{
	"Day-04/code1.sol": {
		"SolidityTest": {
			"abi": [
				{
					"inputs": [],
					"payable": false,
					"stateMutability": "nonpayable",
					"type": "constructor"
				},
				{
					"constant": true,
					"inputs": [],
					"name": "getResult",
					"outputs": [
						{
							"internalType": "string",
							"name": "",
							"type": "string"
						}
					],
					"payable": false,
					"stateMutability": "view",
					"type": "function"
				}
			],
			"devdoc": {
				"methods": {}
			},
			"evm": {
				"assembly": "    /* \"Day-04/code1.sol\":96:911  contract SolidityTest{\r... */\n  mstore(0x40, 0x80)\n    /* \"Day-04/code1.sol\":165:220  constructor() public {\r... */\n  callvalue\n    /* \"--CODEGEN--\":8:17   */\n  dup1\n    /* \"--CODEGEN--\":5:7   */\n  iszero\n  tag_1\n  jumpi\n    /* \"--CODEGEN--\":30:31   */\n  0x00\n    /* \"--CODEGEN--\":27:28   */\n  dup1\n    /* \"--CODEGEN--\":20:32   */\n  revert\n    /* \"--CODEGEN--\":5:7   */\ntag_1:\n    /* \"Day-04/code1.sol\":165:220  constructor() public {\r... */\n  pop\n    /* \"Day-04/code1.sol\":210:212  10 */\n  0x0a\n    /* \"Day-04/code1.sol\":197:207  storedData */\n  0x00\n    /* \"Day-04/code1.sol\":197:212  storedData = 10 */\n  dup2\n  swap1\n  sstore\n  pop\n    /* \"Day-04/code1.sol\":96:911  contract SolidityTest{\r... */\n  dataSize(sub_0)\n  dup1\n  dataOffset(sub_0)\n  0x00\n  codecopy\n  0x00\n  return\nstop\n\nsub_0: assembly {\n        /* \"Day-04/code1.sol\":96:911  contract SolidityTest{\r... */\n      mstore(0x40, 0x80)\n      callvalue\n        /* \"--CODEGEN--\":8:17   */\n      dup1\n        /* \"--CODEGEN--\":5:7   */\n      iszero\n      tag_1\n      jumpi\n        /* \"--CODEGEN--\":30:31   */\n      0x00\n        /* \"--CODEGEN--\":27:28   */\n      dup1\n        /* \"--CODEGEN--\":20:32   */\n      revert\n        /* \"--CODEGEN--\":5:7   */\n    tag_1:\n        /* \"Day-04/code1.sol\":96:911  contract SolidityTest{\r... */\n      pop\n      jumpi(tag_2, lt(calldatasize, 0x04))\n      shr(0xe0, calldataload(0x00))\n      dup1\n      0xde292789\n      eq\n      tag_3\n      jumpi\n    tag_2:\n      0x00\n      dup1\n      revert\n        /* \"Day-04/code1.sol\":228:429  function getResult() public view returns(string memory){\r... */\n    tag_3:\n      tag_4\n      tag_5\n      jump\t// in\n    tag_4:\n      mload(0x40)\n      dup1\n      dup1\n      0x20\n      add\n      dup3\n      dup2\n      sub\n      dup3\n      mstore\n      dup4\n      dup2\n      dup2\n      mload\n      dup2\n      mstore\n      0x20\n      add\n      swap2\n      pop\n      dup1\n      mload\n      swap1\n      0x20\n      add\n      swap1\n      dup1\n      dup4\n      dup4\n        /* \"--CODEGEN--\":23:24   */\n      0x00\n        /* \"--CODEGEN--\":8:108   */\n    tag_6:\n        /* \"--CODEGEN--\":33:36   */\n      dup4\n        /* \"--CODEGEN--\":30:31   */\n      dup2\n        /* \"--CODEGEN--\":27:37   */\n      lt\n        /* \"--CODEGEN--\":8:108   */\n      iszero\n      tag_8\n      jumpi\n        /* \"--CODEGEN--\":99:100   */\n      dup1\n        /* \"--CODEGEN--\":94:97   */\n      dup3\n        /* \"--CODEGEN--\":90:101   */\n      add\n        /* \"--CODEGEN--\":84:102   */\n      mload\n        /* \"--CODEGEN--\":80:81   */\n      dup2\n        /* \"--CODEGEN--\":75:78   */\n      dup5\n        /* \"--CODEGEN--\":71:82   */\n      add\n        /* \"--CODEGEN--\":64:103   */\n      mstore\n        /* \"--CODEGEN--\":52:54   */\n      0x20\n        /* \"--CODEGEN--\":49:50   */\n      dup2\n        /* \"--CODEGEN--\":45:55   */\n      add\n        /* \"--CODEGEN--\":40:55   */\n      swap1\n      pop\n        /* \"--CODEGEN--\":8:108   */\n      jump(tag_6)\n    tag_8:\n        /* \"--CODEGEN--\":12:26   */\n      pop\n        /* \"Day-04/code1.sol\":228:429  function getResult() public view returns(string memory){\r... */\n      pop\n      pop\n      pop\n      swap1\n      pop\n      swap1\n      dup2\n      add\n      swap1\n      0x1f\n      and\n      dup1\n      iszero\n      tag_9\n      jumpi\n      dup1\n      dup3\n      sub\n      dup1\n      mload\n      0x01\n      dup4\n      0x20\n      sub\n      0x0100\n      exp\n      sub\n      not\n      and\n      dup2\n      mstore\n      0x20\n      add\n      swap2\n      pop\n    tag_9:\n      pop\n      swap3\n      pop\n      pop\n      pop\n      mload(0x40)\n      dup1\n      swap2\n      sub\n      swap1\n      return\n    tag_5:\n        /* \"Day-04/code1.sol\":269:282  string memory */\n      0x60\n        /* \"Day-04/code1.sol\":294:300  uint a */\n      0x00\n        /* \"Day-04/code1.sol\":303:304  1 */\n      0x01\n        /* \"Day-04/code1.sol\":294:304  uint a = 1 */\n      swap1\n      pop\n        /* \"Day-04/code1.sol\":332:338  uint b */\n      0x00\n        /* \"Day-04/code1.sol\":341:342  2 */\n      0x02\n        /* \"Day-04/code1.sol\":332:342  uint b = 2 */\n      swap1\n      pop\n        /* \"Day-04/code1.sol\":353:364  uint result */\n      0x00\n        /* \"Day-04/code1.sol\":371:372  b */\n      dup2\n        /* \"Day-04/code1.sol\":367:368  a */\n      dup4\n        /* \"Day-04/code1.sol\":367:372  a + b */\n      add\n        /* \"Day-04/code1.sol\":353:372  uint result = a + b */\n      swap1\n      pop\n        /* \"Day-04/code1.sol\":394:421  integerToString(storedData) */\n      tag_11\n        /* \"Day-04/code1.sol\":410:420  storedData */\n      sload(0x00)\n        /* \"Day-04/code1.sol\":394:409  integerToString */\n      tag_12\n        /* \"Day-04/code1.sol\":394:421  integerToString(storedData) */\n      jump\t// in\n    tag_11:\n        /* \"Day-04/code1.sol\":387:421  return integerToString(storedData) */\n      swap4\n      pop\n      pop\n      pop\n      pop\n        /* \"Day-04/code1.sol\":228:429  function getResult() public view returns(string memory){\r... */\n      swap1\n      jump\t// out\n        /* \"Day-04/code1.sol\":437:908  function integerToString(uint _i) internal pure returns(string memory){\r... */\n    tag_12:\n        /* \"Day-04/code1.sol\":493:506  string memory */\n      0x60\n        /* \"Day-04/code1.sol\":527:528  0 */\n      0x00\n        /* \"Day-04/code1.sol\":521:523  _i */\n      dup3\n        /* \"Day-04/code1.sol\":521:528  _i == 0 */\n      eq\n        /* \"Day-04/code1.sol\":518:566  if(_i == 0){\r... */\n      iszero\n      tag_14\n      jumpi\n        /* \"Day-04/code1.sol\":544:554  return \"0\" */\n      mload(0x40)\n      dup1\n      0x40\n      add\n      0x40\n      mstore\n      dup1\n      0x01\n      dup2\n      mstore\n      0x20\n      add\n      0x3000000000000000000000000000000000000000000000000000000000000000\n      dup2\n      mstore\n      pop\n      swap1\n      pop\n      jump(tag_13)\n        /* \"Day-04/code1.sol\":518:566  if(_i == 0){\r... */\n    tag_14:\n        /* \"Day-04/code1.sol\":578:584  uint j */\n      0x00\n        /* \"Day-04/code1.sol\":587:589  _i */\n      dup3\n        /* \"Day-04/code1.sol\":578:589  uint j = _i */\n      swap1\n      pop\n        /* \"Day-04/code1.sol\":600:608  uint len */\n      0x00\n        /* \"Day-04/code1.sol\":621:691  while(!(j == 0)){\r... */\n    tag_15:\n        /* \"Day-04/code1.sol\":634:635  0 */\n      0x00\n        /* \"Day-04/code1.sol\":629:630  j */\n      dup3\n        /* \"Day-04/code1.sol\":629:635  j == 0 */\n      eq\n        /* \"Day-04/code1.sol\":621:691  while(!(j == 0)){\r... */\n      tag_16\n      jumpi\n        /* \"Day-04/code1.sol\":652:657  len++ */\n      dup1\n      dup1\n      0x01\n      add\n      swap2\n      pop\n      pop\n        /* \"Day-04/code1.sol\":677:679  10 */\n      0x0a\n        /* \"Day-04/code1.sol\":672:679  j /= 10 */\n      dup3\n      dup2\n      tag_17\n      jumpi\n      invalid\n    tag_17:\n      div\n      swap2\n      pop\n        /* \"Day-04/code1.sol\":621:691  while(!(j == 0)){\r... */\n      jump(tag_15)\n    tag_16:\n        /* \"Day-04/code1.sol\":703:720  bytes memory bstr */\n      0x60\n        /* \"Day-04/code1.sol\":733:736  len */\n      dup2\n        /* \"Day-04/code1.sol\":723:737  new bytes(len) */\n      mload(0x40)\n      swap1\n      dup1\n      dup3\n      mstore\n      dup1\n      0x1f\n      add\n      not(0x1f)\n      and\n      0x20\n      add\n      dup3\n      add\n      0x40\n      mstore\n      dup1\n      iszero\n      tag_18\n      jumpi\n      dup2\n      0x20\n      add\n        /* \"--CODEGEN--\":29:30   */\n      0x01\n        /* \"--CODEGEN--\":21:27   */\n      dup3\n        /* \"--CODEGEN--\":17:31   */\n      mul\n        /* \"--CODEGEN--\":116:120   */\n      dup1\n        /* \"--CODEGEN--\":104:114   */\n      codesize\n        /* \"--CODEGEN--\":96:102   */\n      dup4\n        /* \"--CODEGEN--\":87:121   */\n      codecopy\n        /* \"--CODEGEN--\":147:151   */\n      dup1\n        /* \"--CODEGEN--\":139:145   */\n      dup3\n        /* \"--CODEGEN--\":135:152   */\n      add\n        /* \"--CODEGEN--\":125:152   */\n      swap2\n      pop\n        /* \"--CODEGEN--\":0:156   */\n      pop\n        /* \"Day-04/code1.sol\":723:737  new bytes(len) */\n      swap1\n      pop\n    tag_18:\n      pop\n        /* \"Day-04/code1.sol\":703:737  bytes memory bstr = new bytes(len) */\n      swap1\n      pop\n        /* \"Day-04/code1.sol\":748:754  uint k */\n      0x00\n        /* \"Day-04/code1.sol\":763:764  1 */\n      0x01\n        /* \"Day-04/code1.sol\":757:760  len */\n      dup4\n        /* \"Day-04/code1.sol\":757:764  len - 1 */\n      sub\n        /* \"Day-04/code1.sol\":748:764  uint k = len - 1 */\n      swap1\n      pop\n        /* \"Day-04/code1.sol\":776:871  while (_i != 0) {\r... */\n    tag_19:\n        /* \"Day-04/code1.sol\":789:790  0 */\n      0x00\n        /* \"Day-04/code1.sol\":783:785  _i */\n      dup7\n        /* \"Day-04/code1.sol\":783:790  _i != 0 */\n      eq\n        /* \"Day-04/code1.sol\":776:871  while (_i != 0) {\r... */\n      tag_20\n      jumpi\n        /* \"Day-04/code1.sol\":837:839  10 */\n      0x0a\n        /* \"Day-04/code1.sol\":832:834  _i */\n      dup7\n        /* \"Day-04/code1.sol\":832:839  _i % 10 */\n      dup2\n      tag_21\n      jumpi\n      invalid\n    tag_21:\n      mod\n        /* \"Day-04/code1.sol\":827:829  48 */\n      0x30\n        /* \"Day-04/code1.sol\":827:839  48 + _i % 10 */\n      add\n        /* \"Day-04/code1.sol\":816:841  byte(uint8(48 + _i % 10)) */\n      0xf8\n      shl\n        /* \"Day-04/code1.sol\":804:808  bstr */\n      dup3\n        /* \"Day-04/code1.sol\":809:812  k-- */\n      dup3\n      dup1\n      0x01\n      swap1\n      sub\n      swap4\n      pop\n        /* \"Day-04/code1.sol\":804:813  bstr[k--] */\n      dup2\n      mload\n      dup2\n      lt\n      tag_22\n      jumpi\n      invalid\n    tag_22:\n      0x20\n      add\n      add\n        /* \"Day-04/code1.sol\":804:841  bstr[k--] = byte(uint8(48 + _i % 10)) */\n      swap1\n      not(0xffffffffffffffffffffffffffffffffffffffffffffffffffffffffffffff)\n      and\n      swap1\n      dup2\n      0x00\n      byte\n      swap1\n      mstore8\n      pop\n        /* \"Day-04/code1.sol\":859:861  10 */\n      0x0a\n        /* \"Day-04/code1.sol\":853:861  _i /= 10 */\n      dup7\n      dup2\n      tag_23\n      jumpi\n      invalid\n    tag_23:\n      div\n      swap6\n      pop\n        /* \"Day-04/code1.sol\":776:871  while (_i != 0) {\r... */\n      jump(tag_19)\n    tag_20:\n        /* \"Day-04/code1.sol\":895:899  bstr */\n      dup2\n        /* \"Day-04/code1.sol\":881:900  return string(bstr) */\n      swap5\n      pop\n      pop\n      pop\n      pop\n      pop\n        /* \"Day-04/code1.sol\":437:908  function integerToString(uint _i) internal pure returns(string memory){\r... */\n    tag_13:\n      swap2\n      swap1\n      pop\n      jump\t// out\n\n    auxdata: 0xa265627a7a7231582050a64db7cba2207aa89f4a065db30c52e1a59076819294d315e910c12366409c64736f6c63430005110032\n}\n",
				"bytecode": {
					"linkReferences": {},
					"object": "608060405234801561001057600080fd5b50600a60008190555061023d806100286000396000f3fe608060405234801561001057600080fd5b506004361061002b5760003560e01c8063de29278914610030575b600080fd5b6100386100b3565b6040518080602001828103825283818151815260200191508051906020019080838360005b8381101561007857808201518184015260208101905061005d565b50505050905090810190601f1680156100a55780820380516001836020036101000a031916815260200191505b509250505060405180910390f35b6060600060019050600060029050600081830190506100d36000546100db565b935050505090565b60606000821415610123576040518060400160405280600181526020017f30000000000000000000000000000000000000000000000000000000000000008152509050610203565b600082905060005b6000821461014d578080600101915050600a828161014557fe5b04915061012b565b6060816040519080825280601f01601f1916602001820160405280156101825781602001600182028038833980820191505090505b50905060006001830390505b600086146101fb57600a86816101a057fe5b0660300160f81b828280600190039350815181106101ba57fe5b60200101907effffffffffffffffffffffffffffffffffffffffffffffffffffffffffffff1916908160001a905350600a86816101f357fe5b04955061018e565b819450505050505b91905056fea265627a7a7231582050a64db7cba2207aa89f4a065db30c52e1a59076819294d315e910c12366409c64736f6c63430005110032",
					"opcodes": "PUSH1 0x80 PUSH1 0x40 MSTORE CALLVALUE DUP1 ISZERO PUSH2 0x10 JUMPI PUSH1 0x0 DUP1 REVERT JUMPDEST POP PUSH1 0xA PUSH1 0x0 DUP2 SWAP1 SSTORE POP PUSH2 0x23D DUP1 PUSH2 0x28 PUSH1 0x0 CODECOPY PUSH1 0x0 RETURN INVALID PUSH1 0x80 PUSH1 0x40 MSTORE CALLVALUE DUP1 ISZERO PUSH2 0x10 JUMPI PUSH1 0x0 DUP1 REVERT JUMPDEST POP PUSH1 0x4 CALLDATASIZE LT PUSH2 0x2B JUMPI PUSH1 0x0 CALLDATALOAD PUSH1 0xE0 SHR DUP1 PUSH4 0xDE292789 EQ PUSH2 0x30 JUMPI JUMPDEST PUSH1 0x0 DUP1 REVERT JUMPDEST PUSH2 0x38 PUSH2 0xB3 JUMP JUMPDEST PUSH1 0x40 MLOAD DUP1 DUP1 PUSH1 0x20 ADD DUP3 DUP2 SUB DUP3 MSTORE DUP4 DUP2 DUP2 MLOAD DUP2 MSTORE PUSH1 0x20 ADD SWAP2 POP DUP1 MLOAD SWAP1 PUSH1 0x20 ADD SWAP1 DUP1 DUP4 DUP4 PUSH1 0x0 JUMPDEST DUP4 DUP2 LT ISZERO PUSH2 0x78 JUMPI DUP1 DUP3 ADD MLOAD DUP2 DUP5 ADD MSTORE PUSH1 0x20 DUP2 ADD SWAP1 POP PUSH2 0x5D JUMP JUMPDEST POP POP POP POP SWAP1 POP SWAP1 DUP2 ADD SWAP1 PUSH1 0x1F AND DUP1 ISZERO PUSH2 0xA5 JUMPI DUP1 DUP3 SUB DUP1 MLOAD PUSH1 0x1 DUP4 PUSH1 0x20 SUB PUSH2 0x100 EXP SUB NOT AND DUP2 MSTORE PUSH1 0x20 ADD SWAP2 POP JUMPDEST POP SWAP3 POP POP POP PUSH1 0x40 MLOAD DUP1 SWAP2 SUB SWAP1 RETURN JUMPDEST PUSH1 0x60 PUSH1 0x0 PUSH1 0x1 SWAP1 POP PUSH1 0x0 PUSH1 0x2 SWAP1 POP PUSH1 0x0 DUP2 DUP4 ADD SWAP1 POP PUSH2 0xD3 PUSH1 0x0 SLOAD PUSH2 0xDB JUMP JUMPDEST SWAP4 POP POP POP POP SWAP1 JUMP JUMPDEST PUSH1 0x60 PUSH1 0x0 DUP3 EQ ISZERO PUSH2 0x123 JUMPI PUSH1 0x40 MLOAD DUP1 PUSH1 0x40 ADD PUSH1 0x40 MSTORE DUP1 PUSH1 0x1 DUP2 MSTORE PUSH1 0x20 ADD PUSH32 0x3000000000000000000000000000000000000000000000000000000000000000 DUP2 MSTORE POP SWAP1 POP PUSH2 0x203 JUMP JUMPDEST PUSH1 0x0 DUP3 SWAP1 POP PUSH1 0x0 JUMPDEST PUSH1 0x0 DUP3 EQ PUSH2 0x14D JUMPI DUP1 DUP1 PUSH1 0x1 ADD SWAP2 POP POP PUSH1 0xA DUP3 DUP2 PUSH2 0x145 JUMPI INVALID JUMPDEST DIV SWAP2 POP PUSH2 0x12B JUMP JUMPDEST PUSH1 0x60 DUP2 PUSH1 0x40 MLOAD SWAP1 DUP1 DUP3 MSTORE DUP1 PUSH1 0x1F ADD PUSH1 0x1F NOT AND PUSH1 0x20 ADD DUP3 ADD PUSH1 0x40 MSTORE DUP1 ISZERO PUSH2 0x182 JUMPI DUP2 PUSH1 0x20 ADD PUSH1 0x1 DUP3 MUL DUP1 CODESIZE DUP4 CODECOPY DUP1 DUP3 ADD SWAP2 POP POP SWAP1 POP JUMPDEST POP SWAP1 POP PUSH1 0x0 PUSH1 0x1 DUP4 SUB SWAP1 POP JUMPDEST PUSH1 0x0 DUP7 EQ PUSH2 0x1FB JUMPI PUSH1 0xA DUP7 DUP2 PUSH2 0x1A0 JUMPI INVALID JUMPDEST MOD PUSH1 0x30 ADD PUSH1 0xF8 SHL DUP3 DUP3 DUP1 PUSH1 0x1 SWAP1 SUB SWAP4 POP DUP2 MLOAD DUP2 LT PUSH2 0x1BA JUMPI INVALID JUMPDEST PUSH1 0x20 ADD ADD SWAP1 PUSH31 0xFFFFFFFFFFFFFFFFFFFFFFFFFFFFFFFFFFFFFFFFFFFFFFFFFFFFFFFFFFFFFF NOT AND SWAP1 DUP2 PUSH1 0x0 BYTE SWAP1 MSTORE8 POP PUSH1 0xA DUP7 DUP2 PUSH2 0x1F3 JUMPI INVALID JUMPDEST DIV SWAP6 POP PUSH2 0x18E JUMP JUMPDEST DUP2 SWAP5 POP POP POP POP POP JUMPDEST SWAP2 SWAP1 POP JUMP INVALID LOG2 PUSH6 0x627A7A723158 KECCAK256 POP 0xA6 0x4D 0xB7 0xCB LOG2 KECCAK256 PUSH27 0xA89F4A065DB30C52E1A59076819294D315E910C12366409C64736F PUSH13 0x63430005110032000000000000 "
				},
				"gasEstimates": {
					"creation": {
						"codeDepositCost": "114600",
						"executionCost": "20173",
						"totalCost": "134773"
					},
					"external": {
						"getResult()": "infinite"
					},
					"internal": {
						"integerToString(uint256)": "infinite"
					}
				},
				"methodIdentifiers": {
					"getResult()": "de292789"
				}
			},
			"storageLayout": {
				"storage": [
					{
						"astId": 3,
						"contract": "Day-04/code1.sol:SolidityTest",
						"label": "storedData",
						"offset": 0,
						"slot": "0",
						"type": "t_uint256"
					}
				],
				"types": {
					"t_uint256": {
						"encoding": "inplace",
						"label": "uint256",
						"numberOfBytes": "32"
					}
				}
			},
			"userdoc": {
				"methods": {}
			}
		}
	}
}