{
	"Day-08/code2.sol": {
		"Do_while": {
			"abi": [
				{
					"inputs": [
						{
							"internalType": "uint256",
							"name": "",
							"type": "uint256"
						}
					],
					"name": "data",
					"outputs": [
						{
							"internalType": "uint256",
							"name": "",
							"type": "uint256"
						}
					],
					"stateMutability": "view",
					"type": "function"
				},
				{
					"inputs": [],
					"name": "get",
					"outputs": [
						{
							"internalType": "uint256[]",
							"name": "",
							"type": "uint256[]"
						}
					],
					"stateMutability": "nonpayable",
					"type": "function"
				}
			],
			"devdoc": {
				"kind": "dev",
				"methods": {},
				"version": 1
			},
			"evm": {
				"assembly": "    /* \"Day-08/code2.sol\":104:333  contract Do_while{... */\n  mstore(0x40, 0x80)\n    /* \"Day-08/code2.sol\":165:166  0 */\n  0x00\n    /* \"Day-08/code2.sol\":155:166  uint8 j = 0 */\n  0x01\n  exp(0x0100, 0x00)\n  dup2\n  sload\n  dup2\n  0xff\n  mul\n  not\n  and\n  swap1\n  dup4\n  0xff\n  and\n  mul\n  or\n  swap1\n  sstore\n  pop\n    /* \"Day-08/code2.sol\":104:333  contract Do_while{... */\n  callvalue\n  dup1\n  iszero\n  tag_1\n  jumpi\n  0x00\n  dup1\n  revert\ntag_1:\n  pop\n  dataSize(sub_0)\n  dup1\n  dataOffset(sub_0)\n  0x00\n  codecopy\n  0x00\n  return\nstop\n\nsub_0: assembly {\n        /* \"Day-08/code2.sol\":104:333  contract Do_while{... */\n      mstore(0x40, 0x80)\n      callvalue\n      dup1\n      iszero\n      tag_1\n      jumpi\n      0x00\n      dup1\n      revert\n    tag_1:\n      pop\n      jumpi(tag_2, lt(calldatasize, 0x04))\n      shr(0xe0, calldataload(0x00))\n      dup1\n      0x6d4ce63c\n      eq\n      tag_3\n      jumpi\n      dup1\n      0xf0ba8440\n      eq\n      tag_4\n      jumpi\n    tag_2:\n      0x00\n      dup1\n      revert\n        /* \"Day-08/code2.sol\":175:330  function get() public returns(uint[] memory){... */\n    tag_3:\n      tag_5\n      tag_6\n      jump\t// in\n    tag_5:\n      mload(0x40)\n      tag_7\n      swap2\n      swap1\n      tag_8\n      jump\t// in\n    tag_7:\n      mload(0x40)\n      dup1\n      swap2\n      sub\n      swap1\n      return\n        /* \"Day-08/code2.sol\":128:146  uint[] public data */\n    tag_4:\n      tag_9\n      0x04\n      dup1\n      calldatasize\n      sub\n      dup2\n      add\n      swap1\n      tag_10\n      swap2\n      swap1\n      tag_11\n      jump\t// in\n    tag_10:\n      tag_12\n      jump\t// in\n    tag_9:\n      mload(0x40)\n      tag_13\n      swap2\n      swap1\n      tag_14\n      jump\t// in\n    tag_13:\n      mload(0x40)\n      dup1\n      swap2\n      sub\n      swap1\n      return\n        /* \"Day-08/code2.sol\":175:330  function get() public returns(uint[] memory){... */\n    tag_6:\n        /* \"Day-08/code2.sol\":205:218  uint[] memory */\n      0x60\n        /* \"Day-08/code2.sol\":230:301  do{... */\n    tag_16:\n        /* \"Day-08/code2.sol\":247:248  j */\n      0x01\n      0x00\n        /* \"Day-08/code2.sol\":247:250  j++ */\n      dup2\n      dup2\n      swap1\n      sload\n      swap1\n      0x0100\n      exp\n      swap1\n      div\n      0xff\n      and\n      dup1\n      swap3\n      swap2\n      swap1\n      tag_19\n      swap1\n      tag_20\n      jump\t// in\n    tag_19:\n      swap2\n      swap1\n      0x0100\n      exp\n      dup2\n      sload\n      dup2\n      0xff\n      mul\n      not\n      and\n      swap1\n      dup4\n      0xff\n      and\n      mul\n      or\n      swap1\n      sstore\n      pop\n      pop\n        /* \"Day-08/code2.sol\":265:269  data */\n      0x00\n        /* \"Day-08/code2.sol\":275:276  j */\n      0x01\n      0x00\n      swap1\n      sload\n      swap1\n      0x0100\n      exp\n      swap1\n      div\n      0xff\n      and\n        /* \"Day-08/code2.sol\":265:277  data.push(j) */\n      swap1\n      dup1\n      0x01\n      dup2\n      sload\n      add\n      dup1\n      dup3\n      sstore\n      dup1\n      swap2\n      pop\n      pop\n      0x01\n      swap1\n      sub\n      swap1\n      0x00\n      mstore\n      keccak256(0x00, 0x20)\n      add\n      0x00\n      swap1\n      swap2\n      0xff\n      and\n      swap1\n      swap2\n      swap1\n      swap2\n      pop\n      sstore\n        /* \"Day-08/code2.sol\":297:299  10 */\n      0x0a\n        /* \"Day-08/code2.sol\":295:296  j */\n      0x01\n      0x00\n      swap1\n      sload\n      swap1\n      0x0100\n      exp\n      swap1\n      div\n      0xff\n      and\n        /* \"Day-08/code2.sol\":295:299  j<10 */\n      0xff\n      and\n      lt\n        /* \"Day-08/code2.sol\":230:301  do{... */\n      tag_16\n      jumpi\n        /* \"Day-08/code2.sol\":318:322  data */\n      0x00\n        /* \"Day-08/code2.sol\":311:322  return data */\n      dup1\n      sload\n      dup1\n      0x20\n      mul\n      0x20\n      add\n      mload(0x40)\n      swap1\n      dup2\n      add\n      0x40\n      mstore\n      dup1\n      swap3\n      swap2\n      swap1\n      dup2\n      dup2\n      mstore\n      0x20\n      add\n      dup3\n      dup1\n      sload\n      dup1\n      iszero\n      tag_22\n      jumpi\n      0x20\n      mul\n      dup3\n      add\n      swap2\n      swap1\n      0x00\n      mstore\n      keccak256(0x00, 0x20)\n      swap1\n    tag_23:\n      dup2\n      sload\n      dup2\n      mstore\n      0x20\n      add\n      swap1\n      0x01\n      add\n      swap1\n      dup1\n      dup4\n      gt\n      tag_23\n      jumpi\n    tag_22:\n      pop\n      pop\n      pop\n      pop\n      pop\n      swap1\n      pop\n        /* \"Day-08/code2.sol\":175:330  function get() public returns(uint[] memory){... */\n      swap1\n      jump\t// out\n        /* \"Day-08/code2.sol\":128:146  uint[] public data */\n    tag_12:\n      0x00\n      dup2\n      dup2\n      sload\n      dup2\n      lt\n      tag_24\n      jumpi\n      0x00\n      dup1\n      revert\n    tag_24:\n      swap1\n      0x00\n      mstore\n      keccak256(0x00, 0x20)\n      add\n      0x00\n      swap2\n      pop\n      swap1\n      pop\n      sload\n      dup2\n      jump\t// out\n        /* \"#utility.yul\":7:121   */\n    tag_26:\n        /* \"#utility.yul\":74:80   */\n      0x00\n        /* \"#utility.yul\":108:113   */\n      dup2\n        /* \"#utility.yul\":102:114   */\n      mload\n        /* \"#utility.yul\":92:114   */\n      swap1\n      pop\n        /* \"#utility.yul\":7:121   */\n      swap2\n      swap1\n      pop\n      jump\t// out\n        /* \"#utility.yul\":127:311   */\n    tag_27:\n        /* \"#utility.yul\":226:237   */\n      0x00\n        /* \"#utility.yul\":260:266   */\n      dup3\n        /* \"#utility.yul\":255:258   */\n      dup3\n        /* \"#utility.yul\":248:267   */\n      mstore\n        /* \"#utility.yul\":300:304   */\n      0x20\n        /* \"#utility.yul\":295:298   */\n      dup3\n        /* \"#utility.yul\":291:305   */\n      add\n        /* \"#utility.yul\":276:305   */\n      swap1\n      pop\n        /* \"#utility.yul\":127:311   */\n      swap3\n      swap2\n      pop\n      pop\n      jump\t// out\n        /* \"#utility.yul\":317:449   */\n    tag_28:\n        /* \"#utility.yul\":384:388   */\n      0x00\n        /* \"#utility.yul\":407:410   */\n      dup2\n        /* \"#utility.yul\":399:410   */\n      swap1\n      pop\n        /* \"#utility.yul\":437:441   */\n      0x20\n        /* \"#utility.yul\":432:435   */\n      dup3\n        /* \"#utility.yul\":428:442   */\n      add\n        /* \"#utility.yul\":420:442   */\n      swap1\n      pop\n        /* \"#utility.yul\":317:449   */\n      swap2\n      swap1\n      pop\n      jump\t// out\n        /* \"#utility.yul\":455:532   */\n    tag_29:\n        /* \"#utility.yul\":492:499   */\n      0x00\n        /* \"#utility.yul\":521:526   */\n      dup2\n        /* \"#utility.yul\":510:526   */\n      swap1\n      pop\n        /* \"#utility.yul\":455:532   */\n      swap2\n      swap1\n      pop\n      jump\t// out\n        /* \"#utility.yul\":538:646   */\n    tag_30:\n        /* \"#utility.yul\":615:639   */\n      tag_48\n        /* \"#utility.yul\":633:638   */\n      dup2\n        /* \"#utility.yul\":615:639   */\n      tag_29\n      jump\t// in\n    tag_48:\n        /* \"#utility.yul\":610:613   */\n      dup3\n        /* \"#utility.yul\":603:640   */\n      mstore\n        /* \"#utility.yul\":538:646   */\n      pop\n      pop\n      jump\t// out\n        /* \"#utility.yul\":652:831   */\n    tag_31:\n        /* \"#utility.yul\":721:731   */\n      0x00\n        /* \"#utility.yul\":742:788   */\n      tag_50\n        /* \"#utility.yul\":784:787   */\n      dup4\n        /* \"#utility.yul\":776:782   */\n      dup4\n        /* \"#utility.yul\":742:788   */\n      tag_30\n      jump\t// in\n    tag_50:\n        /* \"#utility.yul\":820:824   */\n      0x20\n        /* \"#utility.yul\":815:818   */\n      dup4\n        /* \"#utility.yul\":811:825   */\n      add\n        /* \"#utility.yul\":797:825   */\n      swap1\n      pop\n        /* \"#utility.yul\":652:831   */\n      swap3\n      swap2\n      pop\n      pop\n      jump\t// out\n        /* \"#utility.yul\":837:950   */\n    tag_32:\n        /* \"#utility.yul\":907:911   */\n      0x00\n        /* \"#utility.yul\":939:943   */\n      0x20\n        /* \"#utility.yul\":934:937   */\n      dup3\n        /* \"#utility.yul\":930:944   */\n      add\n        /* \"#utility.yul\":922:944   */\n      swap1\n      pop\n        /* \"#utility.yul\":837:950   */\n      swap2\n      swap1\n      pop\n      jump\t// out\n        /* \"#utility.yul\":986:1718   */\n    tag_33:\n        /* \"#utility.yul\":1105:1108   */\n      0x00\n        /* \"#utility.yul\":1134:1188   */\n      tag_53\n        /* \"#utility.yul\":1182:1187   */\n      dup3\n        /* \"#utility.yul\":1134:1188   */\n      tag_26\n      jump\t// in\n    tag_53:\n        /* \"#utility.yul\":1204:1290   */\n      tag_54\n        /* \"#utility.yul\":1283:1289   */\n      dup2\n        /* \"#utility.yul\":1278:1281   */\n      dup6\n        /* \"#utility.yul\":1204:1290   */\n      tag_27\n      jump\t// in\n    tag_54:\n        /* \"#utility.yul\":1197:1290   */\n      swap4\n      pop\n        /* \"#utility.yul\":1314:1370   */\n      tag_55\n        /* \"#utility.yul\":1364:1369   */\n      dup4\n        /* \"#utility.yul\":1314:1370   */\n      tag_28\n      jump\t// in\n    tag_55:\n        /* \"#utility.yul\":1393:1400   */\n      dup1\n        /* \"#utility.yul\":1424:1425   */\n      0x00\n        /* \"#utility.yul\":1409:1693   */\n    tag_56:\n        /* \"#utility.yul\":1434:1440   */\n      dup4\n        /* \"#utility.yul\":1431:1432   */\n      dup2\n        /* \"#utility.yul\":1428:1441   */\n      lt\n        /* \"#utility.yul\":1409:1693   */\n      iszero\n      tag_58\n      jumpi\n        /* \"#utility.yul\":1510:1516   */\n      dup2\n        /* \"#utility.yul\":1504:1517   */\n      mload\n        /* \"#utility.yul\":1537:1600   */\n      tag_59\n        /* \"#utility.yul\":1596:1599   */\n      dup9\n        /* \"#utility.yul\":1581:1594   */\n      dup3\n        /* \"#utility.yul\":1537:1600   */\n      tag_31\n      jump\t// in\n    tag_59:\n        /* \"#utility.yul\":1530:1600   */\n      swap8\n      pop\n        /* \"#utility.yul\":1623:1683   */\n      tag_60\n        /* \"#utility.yul\":1676:1682   */\n      dup4\n        /* \"#utility.yul\":1623:1683   */\n      tag_32\n      jump\t// in\n    tag_60:\n        /* \"#utility.yul\":1613:1683   */\n      swap3\n      pop\n        /* \"#utility.yul\":1469:1693   */\n      pop\n        /* \"#utility.yul\":1456:1457   */\n      0x01\n        /* \"#utility.yul\":1453:1454   */\n      dup2\n        /* \"#utility.yul\":1449:1458   */\n      add\n        /* \"#utility.yul\":1444:1458   */\n      swap1\n      pop\n        /* \"#utility.yul\":1409:1693   */\n      jump(tag_56)\n    tag_58:\n        /* \"#utility.yul\":1413:1427   */\n      pop\n        /* \"#utility.yul\":1709:1712   */\n      dup6\n        /* \"#utility.yul\":1702:1712   */\n      swap4\n      pop\n        /* \"#utility.yul\":1110:1718   */\n      pop\n      pop\n      pop\n        /* \"#utility.yul\":986:1718   */\n      swap3\n      swap2\n      pop\n      pop\n      jump\t// out\n        /* \"#utility.yul\":1724:2097   */\n    tag_8:\n        /* \"#utility.yul\":1867:1871   */\n      0x00\n        /* \"#utility.yul\":1905:1907   */\n      0x20\n        /* \"#utility.yul\":1894:1903   */\n      dup3\n        /* \"#utility.yul\":1890:1908   */\n      add\n        /* \"#utility.yul\":1882:1908   */\n      swap1\n      pop\n        /* \"#utility.yul\":1954:1963   */\n      dup2\n        /* \"#utility.yul\":1948:1952   */\n      dup2\n        /* \"#utility.yul\":1944:1964   */\n      sub\n        /* \"#utility.yul\":1940:1941   */\n      0x00\n        /* \"#utility.yul\":1929:1938   */\n      dup4\n        /* \"#utility.yul\":1925:1942   */\n      add\n        /* \"#utility.yul\":1918:1965   */\n      mstore\n        /* \"#utility.yul\":1982:2090   */\n      tag_62\n        /* \"#utility.yul\":2085:2089   */\n      dup2\n        /* \"#utility.yul\":2076:2082   */\n      dup5\n        /* \"#utility.yul\":1982:2090   */\n      tag_33\n      jump\t// in\n    tag_62:\n        /* \"#utility.yul\":1974:2090   */\n      swap1\n      pop\n        /* \"#utility.yul\":1724:2097   */\n      swap3\n      swap2\n      pop\n      pop\n      jump\t// out\n        /* \"#utility.yul\":2184:2301   */\n    tag_35:\n        /* \"#utility.yul\":2293:2294   */\n      0x00\n        /* \"#utility.yul\":2290:2291   */\n      dup1\n        /* \"#utility.yul\":2283:2295   */\n      revert\n        /* \"#utility.yul\":2430:2552   */\n    tag_37:\n        /* \"#utility.yul\":2503:2527   */\n      tag_67\n        /* \"#utility.yul\":2521:2526   */\n      dup2\n        /* \"#utility.yul\":2503:2527   */\n      tag_29\n      jump\t// in\n    tag_67:\n        /* \"#utility.yul\":2496:2501   */\n      dup2\n        /* \"#utility.yul\":2493:2528   */\n      eq\n        /* \"#utility.yul\":2483:2546   */\n      tag_68\n      jumpi\n        /* \"#utility.yul\":2542:2543   */\n      0x00\n        /* \"#utility.yul\":2539:2540   */\n      dup1\n        /* \"#utility.yul\":2532:2544   */\n      revert\n        /* \"#utility.yul\":2483:2546   */\n    tag_68:\n        /* \"#utility.yul\":2430:2552   */\n      pop\n      jump\t// out\n        /* \"#utility.yul\":2558:2697   */\n    tag_38:\n        /* \"#utility.yul\":2604:2609   */\n      0x00\n        /* \"#utility.yul\":2642:2648   */\n      dup2\n        /* \"#utility.yul\":2629:2649   */\n      calldataload\n        /* \"#utility.yul\":2620:2649   */\n      swap1\n      pop\n        /* \"#utility.yul\":2658:2691   */\n      tag_70\n        /* \"#utility.yul\":2685:2690   */\n      dup2\n        /* \"#utility.yul\":2658:2691   */\n      tag_37\n      jump\t// in\n    tag_70:\n        /* \"#utility.yul\":2558:2697   */\n      swap3\n      swap2\n      pop\n      pop\n      jump\t// out\n        /* \"#utility.yul\":2703:3032   */\n    tag_11:\n        /* \"#utility.yul\":2762:2768   */\n      0x00\n        /* \"#utility.yul\":2811:2813   */\n      0x20\n        /* \"#utility.yul\":2799:2808   */\n      dup3\n        /* \"#utility.yul\":2790:2797   */\n      dup5\n        /* \"#utility.yul\":2786:2809   */\n      sub\n        /* \"#utility.yul\":2782:2814   */\n      slt\n        /* \"#utility.yul\":2779:2898   */\n      iszero\n      tag_72\n      jumpi\n        /* \"#utility.yul\":2817:2896   */\n      tag_73\n      tag_35\n      jump\t// in\n    tag_73:\n        /* \"#utility.yul\":2779:2898   */\n    tag_72:\n        /* \"#utility.yul\":2937:2938   */\n      0x00\n        /* \"#utility.yul\":2962:3015   */\n      tag_74\n        /* \"#utility.yul\":3007:3014   */\n      dup5\n        /* \"#utility.yul\":2998:3004   */\n      dup3\n        /* \"#utility.yul\":2987:2996   */\n      dup6\n        /* \"#utility.yul\":2983:3005   */\n      add\n        /* \"#utility.yul\":2962:3015   */\n      tag_38\n      jump\t// in\n    tag_74:\n        /* \"#utility.yul\":2952:3015   */\n      swap2\n      pop\n        /* \"#utility.yul\":2908:3025   */\n      pop\n        /* \"#utility.yul\":2703:3032   */\n      swap3\n      swap2\n      pop\n      pop\n      jump\t// out\n        /* \"#utility.yul\":3038:3156   */\n    tag_39:\n        /* \"#utility.yul\":3125:3149   */\n      tag_76\n        /* \"#utility.yul\":3143:3148   */\n      dup2\n        /* \"#utility.yul\":3125:3149   */\n      tag_29\n      jump\t// in\n    tag_76:\n        /* \"#utility.yul\":3120:3123   */\n      dup3\n        /* \"#utility.yul\":3113:3150   */\n      mstore\n        /* \"#utility.yul\":3038:3156   */\n      pop\n      pop\n      jump\t// out\n        /* \"#utility.yul\":3162:3384   */\n    tag_14:\n        /* \"#utility.yul\":3255:3259   */\n      0x00\n        /* \"#utility.yul\":3293:3295   */\n      0x20\n        /* \"#utility.yul\":3282:3291   */\n      dup3\n        /* \"#utility.yul\":3278:3296   */\n      add\n        /* \"#utility.yul\":3270:3296   */\n      swap1\n      pop\n        /* \"#utility.yul\":3306:3377   */\n      tag_78\n        /* \"#utility.yul\":3374:3375   */\n      0x00\n        /* \"#utility.yul\":3363:3372   */\n      dup4\n        /* \"#utility.yul\":3359:3376   */\n      add\n        /* \"#utility.yul\":3350:3356   */\n      dup5\n        /* \"#utility.yul\":3306:3377   */\n      tag_39\n      jump\t// in\n    tag_78:\n        /* \"#utility.yul\":3162:3384   */\n      swap3\n      swap2\n      pop\n      pop\n      jump\t// out\n        /* \"#utility.yul\":3390:3570   */\n    tag_40:\n        /* \"#utility.yul\":3438:3515   */\n      0x4e487b7100000000000000000000000000000000000000000000000000000000\n        /* \"#utility.yul\":3435:3436   */\n      0x00\n        /* \"#utility.yul\":3428:3516   */\n      mstore\n        /* \"#utility.yul\":3535:3539   */\n      0x11\n        /* \"#utility.yul\":3532:3533   */\n      0x04\n        /* \"#utility.yul\":3525:3540   */\n      mstore\n        /* \"#utility.yul\":3559:3563   */\n      0x24\n        /* \"#utility.yul\":3556:3557   */\n      0x00\n        /* \"#utility.yul\":3549:3564   */\n      revert\n        /* \"#utility.yul\":3576:3662   */\n    tag_41:\n        /* \"#utility.yul\":3611:3618   */\n      0x00\n        /* \"#utility.yul\":3651:3655   */\n      0xff\n        /* \"#utility.yul\":3644:3649   */\n      dup3\n        /* \"#utility.yul\":3640:3656   */\n      and\n        /* \"#utility.yul\":3629:3656   */\n      swap1\n      pop\n        /* \"#utility.yul\":3576:3662   */\n      swap2\n      swap1\n      pop\n      jump\t// out\n        /* \"#utility.yul\":3668:3835   */\n    tag_20:\n        /* \"#utility.yul\":3705:3708   */\n      0x00\n        /* \"#utility.yul\":3728:3750   */\n      tag_82\n        /* \"#utility.yul\":3744:3749   */\n      dup3\n        /* \"#utility.yul\":3728:3750   */\n      tag_41\n      jump\t// in\n    tag_82:\n        /* \"#utility.yul\":3719:3750   */\n      swap2\n      pop\n        /* \"#utility.yul\":3772:3776   */\n      0xff\n        /* \"#utility.yul\":3765:3770   */\n      dup3\n        /* \"#utility.yul\":3762:3777   */\n      sub\n        /* \"#utility.yul\":3759:3800   */\n      tag_83\n      jumpi\n        /* \"#utility.yul\":3780:3798   */\n      tag_84\n      tag_40\n      jump\t// in\n    tag_84:\n        /* \"#utility.yul\":3759:3800   */\n    tag_83:\n        /* \"#utility.yul\":3827:3828   */\n      0x01\n        /* \"#utility.yul\":3820:3825   */\n      dup3\n        /* \"#utility.yul\":3816:3829   */\n      add\n        /* \"#utility.yul\":3809:3829   */\n      swap1\n      pop\n        /* \"#utility.yul\":3668:3835   */\n      swap2\n      swap1\n      pop\n      jump\t// out\n\n    auxdata: 0xa2646970667358221220b8a5d0e36292e371cfe240bdb6d3ec242fe19c8382f181ad320983911926caf364736f6c634300081a0033\n}\n",
				"bytecode": {
					"linkReferences": {},
					"object": "60806040525f60015f6101000a81548160ff021916908360ff1602179055503480156028575f80fd5b50610379806100365f395ff3fe608060405234801561000f575f80fd5b5060043610610034575f3560e01c80636d4ce63c14610038578063f0ba844014610056575b5f80fd5b610040610086565b60405161004d9190610241565b60405180910390f35b610070600480360381019061006b919061028f565b610162565b60405161007d91906102c9565b60405180910390f35b60605b60015f81819054906101000a900460ff16809291906100a79061031b565b91906101000a81548160ff021916908360ff160217905550505f60015f9054906101000a900460ff16908060018154018082558091505060019003905f5260205f20015f909160ff16909190915055600a60015f9054906101000a900460ff1660ff1610610089575f80548060200260200160405190810160405280929190818152602001828054801561015857602002820191905f5260205f20905b815481526020019060010190808311610144575b5050505050905090565b5f8181548110610170575f80fd5b905f5260205f20015f915090505481565b5f81519050919050565b5f82825260208201905092915050565b5f819050602082019050919050565b5f819050919050565b6101bc816101aa565b82525050565b5f6101cd83836101b3565b60208301905092915050565b5f602082019050919050565b5f6101ef82610181565b6101f9818561018b565b93506102048361019b565b805f5b8381101561023457815161021b88826101c2565b9750610226836101d9565b925050600181019050610207565b5085935050505092915050565b5f6020820190508181035f83015261025981846101e5565b905092915050565b5f80fd5b61026e816101aa565b8114610278575f80fd5b50565b5f8135905061028981610265565b92915050565b5f602082840312156102a4576102a3610261565b5b5f6102b18482850161027b565b91505092915050565b6102c3816101aa565b82525050565b5f6020820190506102dc5f8301846102ba565b92915050565b7f4e487b71000000000000000000000000000000000000000000000000000000005f52601160045260245ffd5b5f60ff82169050919050565b5f6103258261030f565b915060ff8203610338576103376102e2565b5b60018201905091905056fea2646970667358221220b8a5d0e36292e371cfe240bdb6d3ec242fe19c8382f181ad320983911926caf364736f6c634300081a0033",
					"opcodes": "PUSH1 0x80 PUSH1 0x40 MSTORE PUSH0 PUSH1 0x1 PUSH0 PUSH2 0x100 EXP DUP2 SLOAD DUP2 PUSH1 0xFF MUL NOT AND SWAP1 DUP4 PUSH1 0xFF AND MUL OR SWAP1 SSTORE POP CALLVALUE DUP1 ISZERO PUSH1 0x28 JUMPI PUSH0 DUP1 REVERT JUMPDEST POP PUSH2 0x379 DUP1 PUSH2 0x36 PUSH0 CODECOPY PUSH0 RETURN INVALID PUSH1 0x80 PUSH1 0x40 MSTORE CALLVALUE DUP1 ISZERO PUSH2 0xF JUMPI PUSH0 DUP1 REVERT JUMPDEST POP PUSH1 0x4 CALLDATASIZE LT PUSH2 0x34 JUMPI PUSH0 CALLDATALOAD PUSH1 0xE0 SHR DUP1 PUSH4 0x6D4CE63C EQ PUSH2 0x38 JUMPI DUP1 PUSH4 0xF0BA8440 EQ PUSH2 0x56 JUMPI JUMPDEST PUSH0 DUP1 REVERT JUMPDEST PUSH2 0x40 PUSH2 0x86 JUMP JUMPDEST PUSH1 0x40 MLOAD PUSH2 0x4D SWAP2 SWAP1 PUSH2 0x241 JUMP JUMPDEST PUSH1 0x40 MLOAD DUP1 SWAP2 SUB SWAP1 RETURN JUMPDEST PUSH2 0x70 PUSH1 0x4 DUP1 CALLDATASIZE SUB DUP2 ADD SWAP1 PUSH2 0x6B SWAP2 SWAP1 PUSH2 0x28F JUMP JUMPDEST PUSH2 0x162 JUMP JUMPDEST PUSH1 0x40 MLOAD PUSH2 0x7D SWAP2 SWAP1 PUSH2 0x2C9 JUMP JUMPDEST PUSH1 0x40 MLOAD DUP1 SWAP2 SUB SWAP1 RETURN JUMPDEST PUSH1 0x60 JUMPDEST PUSH1 0x1 PUSH0 DUP2 DUP2 SWAP1 SLOAD SWAP1 PUSH2 0x100 EXP SWAP1 DIV PUSH1 0xFF AND DUP1 SWAP3 SWAP2 SWAP1 PUSH2 0xA7 SWAP1 PUSH2 0x31B JUMP JUMPDEST SWAP2 SWAP1 PUSH2 0x100 EXP DUP2 SLOAD DUP2 PUSH1 0xFF MUL NOT AND SWAP1 DUP4 PUSH1 0xFF AND MUL OR SWAP1 SSTORE POP POP PUSH0 PUSH1 0x1 PUSH0 SWAP1 SLOAD SWAP1 PUSH2 0x100 EXP SWAP1 DIV PUSH1 0xFF AND SWAP1 DUP1 PUSH1 0x1 DUP2 SLOAD ADD DUP1 DUP3 SSTORE DUP1 SWAP2 POP POP PUSH1 0x1 SWAP1 SUB SWAP1 PUSH0 MSTORE PUSH1 0x20 PUSH0 KECCAK256 ADD PUSH0 SWAP1 SWAP2 PUSH1 0xFF AND SWAP1 SWAP2 SWAP1 SWAP2 POP SSTORE PUSH1 0xA PUSH1 0x1 PUSH0 SWAP1 SLOAD SWAP1 PUSH2 0x100 EXP SWAP1 DIV PUSH1 0xFF AND PUSH1 0xFF AND LT PUSH2 0x89 JUMPI PUSH0 DUP1 SLOAD DUP1 PUSH1 0x20 MUL PUSH1 0x20 ADD PUSH1 0x40 MLOAD SWAP1 DUP2 ADD PUSH1 0x40 MSTORE DUP1 SWAP3 SWAP2 SWAP1 DUP2 DUP2 MSTORE PUSH1 0x20 ADD DUP3 DUP1 SLOAD DUP1 ISZERO PUSH2 0x158 JUMPI PUSH1 0x20 MUL DUP3 ADD SWAP2 SWAP1 PUSH0 MSTORE PUSH1 0x20 PUSH0 KECCAK256 SWAP1 JUMPDEST DUP2 SLOAD DUP2 MSTORE PUSH1 0x20 ADD SWAP1 PUSH1 0x1 ADD SWAP1 DUP1 DUP4 GT PUSH2 0x144 JUMPI JUMPDEST POP POP POP POP POP SWAP1 POP SWAP1 JUMP JUMPDEST PUSH0 DUP2 DUP2 SLOAD DUP2 LT PUSH2 0x170 JUMPI PUSH0 DUP1 REVERT JUMPDEST SWAP1 PUSH0 MSTORE PUSH1 0x20 PUSH0 KECCAK256 ADD PUSH0 SWAP2 POP SWAP1 POP SLOAD DUP2 JUMP JUMPDEST PUSH0 DUP2 MLOAD SWAP1 POP SWAP2 SWAP1 POP JUMP JUMPDEST PUSH0 DUP3 DUP3 MSTORE PUSH1 0x20 DUP3 ADD SWAP1 POP SWAP3 SWAP2 POP POP JUMP JUMPDEST PUSH0 DUP2 SWAP1 POP PUSH1 0x20 DUP3 ADD SWAP1 POP SWAP2 SWAP1 POP JUMP JUMPDEST PUSH0 DUP2 SWAP1 POP SWAP2 SWAP1 POP JUMP JUMPDEST PUSH2 0x1BC DUP2 PUSH2 0x1AA JUMP JUMPDEST DUP3 MSTORE POP POP JUMP JUMPDEST PUSH0 PUSH2 0x1CD DUP4 DUP4 PUSH2 0x1B3 JUMP JUMPDEST PUSH1 0x20 DUP4 ADD SWAP1 POP SWAP3 SWAP2 POP POP JUMP JUMPDEST PUSH0 PUSH1 0x20 DUP3 ADD SWAP1 POP SWAP2 SWAP1 POP JUMP JUMPDEST PUSH0 PUSH2 0x1EF DUP3 PUSH2 0x181 JUMP JUMPDEST PUSH2 0x1F9 DUP2 DUP6 PUSH2 0x18B JUMP JUMPDEST SWAP4 POP PUSH2 0x204 DUP4 PUSH2 0x19B JUMP JUMPDEST DUP1 PUSH0 JUMPDEST DUP4 DUP2 LT ISZERO PUSH2 0x234 JUMPI DUP2 MLOAD PUSH2 0x21B DUP9 DUP3 PUSH2 0x1C2 JUMP JUMPDEST SWAP8 POP PUSH2 0x226 DUP4 PUSH2 0x1D9 JUMP JUMPDEST SWAP3 POP POP PUSH1 0x1 DUP2 ADD SWAP1 POP PUSH2 0x207 JUMP JUMPDEST POP DUP6 SWAP4 POP POP POP POP SWAP3 SWAP2 POP POP JUMP JUMPDEST PUSH0 PUSH1 0x20 DUP3 ADD SWAP1 POP DUP2 DUP2 SUB PUSH0 DUP4 ADD MSTORE PUSH2 0x259 DUP2 DUP5 PUSH2 0x1E5 JUMP JUMPDEST SWAP1 POP SWAP3 SWAP2 POP POP JUMP JUMPDEST PUSH0 DUP1 REVERT JUMPDEST PUSH2 0x26E DUP2 PUSH2 0x1AA JUMP JUMPDEST DUP2 EQ PUSH2 0x278 JUMPI PUSH0 DUP1 REVERT JUMPDEST POP JUMP JUMPDEST PUSH0 DUP2 CALLDATALOAD SWAP1 POP PUSH2 0x289 DUP2 PUSH2 0x265 JUMP JUMPDEST SWAP3 SWAP2 POP POP JUMP JUMPDEST PUSH0 PUSH1 0x20 DUP3 DUP5 SUB SLT ISZERO PUSH2 0x2A4 JUMPI PUSH2 0x2A3 PUSH2 0x261 JUMP JUMPDEST JUMPDEST PUSH0 PUSH2 0x2B1 DUP5 DUP3 DUP6 ADD PUSH2 0x27B JUMP JUMPDEST SWAP2 POP POP SWAP3 SWAP2 POP POP JUMP JUMPDEST PUSH2 0x2C3 DUP2 PUSH2 0x1AA JUMP JUMPDEST DUP3 MSTORE POP POP JUMP JUMPDEST PUSH0 PUSH1 0x20 DUP3 ADD SWAP1 POP PUSH2 0x2DC PUSH0 DUP4 ADD DUP5 PUSH2 0x2BA JUMP JUMPDEST SWAP3 SWAP2 POP POP JUMP JUMPDEST PUSH32 0x4E487B7100000000000000000000000000000000000000000000000000000000 PUSH0 MSTORE PUSH1 0x11 PUSH1 0x4 MSTORE PUSH1 0x24 PUSH0 REVERT JUMPDEST PUSH0 PUSH1 0xFF DUP3 AND SWAP1 POP SWAP2 SWAP1 POP JUMP JUMPDEST PUSH0 PUSH2 0x325 DUP3 PUSH2 0x30F JUMP JUMPDEST SWAP2 POP PUSH1 0xFF DUP3 SUB PUSH2 0x338 JUMPI PUSH2 0x337 PUSH2 0x2E2 JUMP JUMPDEST JUMPDEST PUSH1 0x1 DUP3 ADD SWAP1 POP SWAP2 SWAP1 POP JUMP INVALID LOG2 PUSH5 0x6970667358 0x22 SLT KECCAK256 0xB8 0xA5 0xD0 0xE3 PUSH3 0x92E371 0xCF 0xE2 BLOCKHASH 0xBD 0xB6 0xD3 0xEC 0x24 0x2F 0xE1 SWAP13 DUP4 DUP3 CALL DUP2 0xAD ORIGIN MULMOD DUP4 SWAP2 NOT 0x26 0xCA RETURN PUSH5 0x736F6C6343 STOP ADDMOD BYTE STOP CALLER "
				},
				"gasEstimates": {
					"creation": {
						"codeDepositCost": "177800",
						"executionCost": "24483",
						"totalCost": "202283"
					},
					"external": {
						"data(uint256)": "infinite",
						"get()": "infinite"
					}
				},
				"methodIdentifiers": {
					"data(uint256)": "f0ba8440",
					"get()": "6d4ce63c"
				}
			},
			"storageLayout": {
				"storage": [
					{
						"astId": 4,
						"contract": "Day-08/code2.sol:Do_while",
						"label": "data",
						"offset": 0,
						"slot": "0",
						"type": "t_array(t_uint256)dyn_storage"
					},
					{
						"astId": 7,
						"contract": "Day-08/code2.sol:Do_while",
						"label": "j",
						"offset": 0,
						"slot": "1",
						"type": "t_uint8"
					}
				],
				"types": {
					"t_array(t_uint256)dyn_storage": {
						"base": "t_uint256",
						"encoding": "dynamic_array",
						"label": "uint256[]",
						"numberOfBytes": "32"
					},
					"t_uint256": {
						"encoding": "inplace",
						"label": "uint256",
						"numberOfBytes": "32"
					},
					"t_uint8": {
						"encoding": "inplace",
						"label": "uint8",
						"numberOfBytes": "1"
					}
				}
			},
			"userdoc": {
				"kind": "user",
				"methods": {},
				"version": 1
			}
		}
	}
}