{
	"Day-08/code5.sol": {
		"ElseContions": {
			"abi": [
				{
					"inputs": [],
					"name": "get",
					"outputs": [
						{
							"internalType": "bool",
							"name": "",
							"type": "bool"
						}
					],
					"stateMutability": "nonpayable",
					"type": "function"
				}
			],
			"devdoc": {
				"kind": "dev",
				"methods": {},
				"version": 1
			},
			"evm": {
				"assembly": "    /* \"Day-08/code5.sol\":104:342  contract ElseContions{... */\n  mstore(0x40, 0x80)\n    /* \"Day-08/code5.sol\":141:143  10 */\n  0x0a\n    /* \"Day-08/code5.sol\":132:143  uint i = 10 */\n  0x00\n  sstore\n    /* \"Day-08/code5.sol\":104:342  contract ElseContions{... */\n  callvalue\n  dup1\n  iszero\n  tag_1\n  jumpi\n  0x00\n  dup1\n  revert\ntag_1:\n  pop\n  dataSize(sub_0)\n  dup1\n  dataOffset(sub_0)\n  0x00\n  codecopy\n  0x00\n  return\nstop\n\nsub_0: assembly {\n        /* \"Day-08/code5.sol\":104:342  contract ElseContions{... */\n      mstore(0x40, 0x80)\n      callvalue\n      dup1\n      iszero\n      tag_1\n      jumpi\n      0x00\n      dup1\n      revert\n    tag_1:\n      pop\n      jumpi(tag_2, lt(calldatasize, 0x04))\n      shr(0xe0, calldataload(0x00))\n      dup1\n      0x6d4ce63c\n      eq\n      tag_3\n      jumpi\n    tag_2:\n      0x00\n      dup1\n      revert\n        /* \"Day-08/code5.sol\":168:339  function get() public returns(bool){... */\n    tag_3:\n      tag_4\n      tag_5\n      jump\t// in\n    tag_4:\n      mload(0x40)\n      tag_6\n      swap2\n      swap1\n      tag_7\n      jump\t// in\n    tag_6:\n      mload(0x40)\n      dup1\n      swap2\n      sub\n      swap1\n      return\n    tag_5:\n        /* \"Day-08/code5.sol\":198:202  bool */\n      0x00\n        /* \"Day-08/code5.sol\":226:227  0 */\n      dup1\n        /* \"Day-08/code5.sol\":221:222  2 */\n      0x02\n        /* \"Day-08/code5.sol\":217:218  i */\n      sload(0x00)\n        /* \"Day-08/code5.sol\":217:222  i % 2 */\n      tag_9\n      swap2\n      swap1\n      tag_10\n      jump\t// in\n    tag_9:\n        /* \"Day-08/code5.sol\":217:227  i % 2 == 0 */\n      sub\n        /* \"Day-08/code5.sol\":214:309  if(i % 2 == 0){... */\n      tag_11\n      jumpi\n        /* \"Day-08/code5.sol\":250:254  true */\n      0x01\n        /* \"Day-08/code5.sol\":243:247  even */\n      dup1\n      0x00\n        /* \"Day-08/code5.sol\":243:254  even = true */\n      0x0100\n      exp\n      dup2\n      sload\n      dup2\n      0xff\n      mul\n      not\n      and\n      swap1\n      dup4\n      iszero\n      iszero\n      mul\n      or\n      swap1\n      sstore\n      pop\n        /* \"Day-08/code5.sol\":214:309  if(i % 2 == 0){... */\n      jump(tag_12)\n    tag_11:\n        /* \"Day-08/code5.sol\":292:297  false */\n      0x00\n        /* \"Day-08/code5.sol\":285:289  even */\n      0x01\n      0x00\n        /* \"Day-08/code5.sol\":285:297  even = false */\n      0x0100\n      exp\n      dup2\n      sload\n      dup2\n      0xff\n      mul\n      not\n      and\n      swap1\n      dup4\n      iszero\n      iszero\n      mul\n      or\n      swap1\n      sstore\n      pop\n        /* \"Day-08/code5.sol\":214:309  if(i % 2 == 0){... */\n    tag_12:\n        /* \"Day-08/code5.sol\":326:330  even */\n      0x01\n      0x00\n      swap1\n      sload\n      swap1\n      0x0100\n      exp\n      swap1\n      div\n      0xff\n      and\n        /* \"Day-08/code5.sol\":319:330  return even */\n      swap1\n      pop\n        /* \"Day-08/code5.sol\":168:339  function get() public returns(bool){... */\n      swap1\n      jump\t// out\n        /* \"#utility.yul\":7:97   */\n    tag_13:\n        /* \"#utility.yul\":41:48   */\n      0x00\n        /* \"#utility.yul\":84:89   */\n      dup2\n        /* \"#utility.yul\":77:90   */\n      iszero\n        /* \"#utility.yul\":70:91   */\n      iszero\n        /* \"#utility.yul\":59:91   */\n      swap1\n      pop\n        /* \"#utility.yul\":7:97   */\n      swap2\n      swap1\n      pop\n      jump\t// out\n        /* \"#utility.yul\":103:212   */\n    tag_14:\n        /* \"#utility.yul\":184:205   */\n      tag_20\n        /* \"#utility.yul\":199:204   */\n      dup2\n        /* \"#utility.yul\":184:205   */\n      tag_13\n      jump\t// in\n    tag_20:\n        /* \"#utility.yul\":179:182   */\n      dup3\n        /* \"#utility.yul\":172:206   */\n      mstore\n        /* \"#utility.yul\":103:212   */\n      pop\n      pop\n      jump\t// out\n        /* \"#utility.yul\":218:428   */\n    tag_7:\n        /* \"#utility.yul\":305:309   */\n      0x00\n        /* \"#utility.yul\":343:345   */\n      0x20\n        /* \"#utility.yul\":332:341   */\n      dup3\n        /* \"#utility.yul\":328:346   */\n      add\n        /* \"#utility.yul\":320:346   */\n      swap1\n      pop\n        /* \"#utility.yul\":356:421   */\n      tag_22\n        /* \"#utility.yul\":418:419   */\n      0x00\n        /* \"#utility.yul\":407:416   */\n      dup4\n        /* \"#utility.yul\":403:420   */\n      add\n        /* \"#utility.yul\":394:400   */\n      dup5\n        /* \"#utility.yul\":356:421   */\n      tag_14\n      jump\t// in\n    tag_22:\n        /* \"#utility.yul\":218:428   */\n      swap3\n      swap2\n      pop\n      pop\n      jump\t// out\n        /* \"#utility.yul\":434:511   */\n    tag_15:\n        /* \"#utility.yul\":471:478   */\n      0x00\n        /* \"#utility.yul\":500:505   */\n      dup2\n        /* \"#utility.yul\":489:505   */\n      swap1\n      pop\n        /* \"#utility.yul\":434:511   */\n      swap2\n      swap1\n      pop\n      jump\t// out\n        /* \"#utility.yul\":517:697   */\n    tag_16:\n        /* \"#utility.yul\":565:642   */\n      0x4e487b7100000000000000000000000000000000000000000000000000000000\n        /* \"#utility.yul\":562:563   */\n      0x00\n        /* \"#utility.yul\":555:643   */\n      mstore\n        /* \"#utility.yul\":662:666   */\n      0x12\n        /* \"#utility.yul\":659:660   */\n      0x04\n        /* \"#utility.yul\":652:667   */\n      mstore\n        /* \"#utility.yul\":686:690   */\n      0x24\n        /* \"#utility.yul\":683:684   */\n      0x00\n        /* \"#utility.yul\":676:691   */\n      revert\n        /* \"#utility.yul\":703:879   */\n    tag_10:\n        /* \"#utility.yul\":735:736   */\n      0x00\n        /* \"#utility.yul\":752:772   */\n      tag_26\n        /* \"#utility.yul\":770:771   */\n      dup3\n        /* \"#utility.yul\":752:772   */\n      tag_15\n      jump\t// in\n    tag_26:\n        /* \"#utility.yul\":747:772   */\n      swap2\n      pop\n        /* \"#utility.yul\":786:806   */\n      tag_27\n        /* \"#utility.yul\":804:805   */\n      dup4\n        /* \"#utility.yul\":786:806   */\n      tag_15\n      jump\t// in\n    tag_27:\n        /* \"#utility.yul\":781:806   */\n      swap3\n      pop\n        /* \"#utility.yul\":825:826   */\n      dup3\n        /* \"#utility.yul\":815:850   */\n      tag_28\n      jumpi\n        /* \"#utility.yul\":830:848   */\n      tag_29\n      tag_16\n      jump\t// in\n    tag_29:\n        /* \"#utility.yul\":815:850   */\n    tag_28:\n        /* \"#utility.yul\":871:872   */\n      dup3\n        /* \"#utility.yul\":868:869   */\n      dup3\n        /* \"#utility.yul\":864:873   */\n      mod\n        /* \"#utility.yul\":859:873   */\n      swap1\n      pop\n        /* \"#utility.yul\":703:879   */\n      swap3\n      swap2\n      pop\n      pop\n      jump\t// out\n\n    auxdata: 0xa264697066735822122040af8a09d7f9a61e4ae0f90e8586f7e7ddf46f714afd90e1148b7376878ccc4764736f6c634300081a0033\n}\n",
				"bytecode": {
					"linkReferences": {},
					"object": "6080604052600a5f553480156012575f80fd5b5061017b806100205f395ff3fe608060405234801561000f575f80fd5b5060043610610029575f3560e01c80636d4ce63c1461002d575b5f80fd5b61003561004b565b60405161004291906100c6565b60405180910390f35b5f8060025f5461005b9190610115565b0361007e576001805f6101000a81548160ff021916908315150217905550610098565b5f60015f6101000a81548160ff0219169083151502179055505b60015f9054906101000a900460ff16905090565b5f8115159050919050565b6100c0816100ac565b82525050565b5f6020820190506100d95f8301846100b7565b92915050565b5f819050919050565b7f4e487b71000000000000000000000000000000000000000000000000000000005f52601260045260245ffd5b5f61011f826100df565b915061012a836100df565b92508261013a576101396100e8565b5b82820690509291505056fea264697066735822122040af8a09d7f9a61e4ae0f90e8586f7e7ddf46f714afd90e1148b7376878ccc4764736f6c634300081a0033",
					"opcodes": "PUSH1 0x80 PUSH1 0x40 MSTORE PUSH1 0xA PUSH0 SSTORE CALLVALUE DUP1 ISZERO PUSH1 0x12 JUMPI PUSH0 DUP1 REVERT JUMPDEST POP PUSH2 0x17B DUP1 PUSH2 0x20 PUSH0 CODECOPY PUSH0 RETURN INVALID PUSH1 0x80 PUSH1 0x40 MSTORE CALLVALUE DUP1 ISZERO PUSH2 0xF JUMPI PUSH0 DUP1 REVERT JUMPDEST POP PUSH1 0x4 CALLDATASIZE LT PUSH2 0x29 JUMPI PUSH0 CALLDATALOAD PUSH1 0xE0 SHR DUP1 PUSH4 0x6D4CE63C EQ PUSH2 0x2D JUMPI JUMPDEST PUSH0 DUP1 REVERT JUMPDEST PUSH2 0x35 PUSH2 0x4B JUMP JUMPDEST PUSH1 0x40 MLOAD PUSH2 0x42 SWAP2 SWAP1 PUSH2 0xC6 JUMP JUMPDEST PUSH1 0x40 MLOAD DUP1 SWAP2 SUB SWAP1 RETURN JUMPDEST PUSH0 DUP1 PUSH1 0x2 PUSH0 SLOAD PUSH2 0x5B SWAP2 SWAP1 PUSH2 0x115 JUMP JUMPDEST SUB PUSH2 0x7E JUMPI PUSH1 0x1 DUP1 PUSH0 PUSH2 0x100 EXP DUP2 SLOAD DUP2 PUSH1 0xFF MUL NOT AND SWAP1 DUP4 ISZERO ISZERO MUL OR SWAP1 SSTORE POP PUSH2 0x98 JUMP JUMPDEST PUSH0 PUSH1 0x1 PUSH0 PUSH2 0x100 EXP DUP2 SLOAD DUP2 PUSH1 0xFF MUL NOT AND SWAP1 DUP4 ISZERO ISZERO MUL OR SWAP1 SSTORE POP JUMPDEST PUSH1 0x1 PUSH0 SWAP1 SLOAD SWAP1 PUSH2 0x100 EXP SWAP1 DIV PUSH1 0xFF AND SWAP1 POP SWAP1 JUMP JUMPDEST PUSH0 DUP2 ISZERO ISZERO SWAP1 POP SWAP2 SWAP1 POP JUMP JUMPDEST PUSH2 0xC0 DUP2 PUSH2 0xAC JUMP JUMPDEST DUP3 MSTORE POP POP JUMP JUMPDEST PUSH0 PUSH1 0x20 DUP3 ADD SWAP1 POP PUSH2 0xD9 PUSH0 DUP4 ADD DUP5 PUSH2 0xB7 JUMP JUMPDEST SWAP3 SWAP2 POP POP JUMP JUMPDEST PUSH0 DUP2 SWAP1 POP SWAP2 SWAP1 POP JUMP JUMPDEST PUSH32 0x4E487B7100000000000000000000000000000000000000000000000000000000 PUSH0 MSTORE PUSH1 0x12 PUSH1 0x4 MSTORE PUSH1 0x24 PUSH0 REVERT JUMPDEST PUSH0 PUSH2 0x11F DUP3 PUSH2 0xDF JUMP JUMPDEST SWAP2 POP PUSH2 0x12A DUP4 PUSH2 0xDF JUMP JUMPDEST SWAP3 POP DUP3 PUSH2 0x13A JUMPI PUSH2 0x139 PUSH2 0xE8 JUMP JUMPDEST JUMPDEST DUP3 DUP3 MOD SWAP1 POP SWAP3 SWAP2 POP POP JUMP INVALID LOG2 PUSH5 0x6970667358 0x22 SLT KECCAK256 BLOCKHASH 0xAF DUP11 MULMOD 0xD7 0xF9 0xA6 0x1E BLOBBASEFEE 0xE0 0xF9 0xE DUP6 DUP7 0xF7 0xE7 0xDD DELEGATECALL PUSH16 0x714AFD90E1148B7376878CCC4764736F PUSH13 0x634300081A0033000000000000 "
				},
				"gasEstimates": {
					"creation": {
						"codeDepositCost": "75800",
						"executionCost": "22226",
						"totalCost": "98026"
					},
					"external": {
						"get()": "infinite"
					}
				},
				"methodIdentifiers": {
					"get()": "6d4ce63c"
				}
			},
			"storageLayout": {
				"storage": [
					{
						"astId": 4,
						"contract": "Day-08/code5.sol:ElseContions",
						"label": "i",
						"offset": 0,
						"slot": "0",
						"type": "t_uint256"
					},
					{
						"astId": 6,
						"contract": "Day-08/code5.sol:ElseContions",
						"label": "even",
						"offset": 0,
						"slot": "1",
						"type": "t_bool"
					}
				],
				"types": {
					"t_bool": {
						"encoding": "inplace",
						"label": "bool",
						"numberOfBytes": "1"
					},
					"t_uint256": {
						"encoding": "inplace",
						"label": "uint256",
						"numberOfBytes": "32"
					}
				}
			},
			"userdoc": {
				"kind": "user",
				"methods": {},
				"version": 1
			}
		}
	}
}