{
	"Day-26/code4.sol": {
		"Events": {
			"abi": [
				{
					"anonymous": false,
					"inputs": [
						{
							"indexed": false,
							"internalType": "address",
							"name": "account",
							"type": "address"
						},
						{
							"indexed": false,
							"internalType": "string",
							"name": "message",
							"type": "string"
						},
						{
							"indexed": false,
							"internalType": "uint256",
							"name": "val",
							"type": "uint256"
						}
					],
					"name": "balance",
					"type": "event"
				},
				{
					"inputs": [
						{
							"internalType": "uint256",
							"name": "_val",
							"type": "uint256"
						}
					],
					"name": "setData",
					"outputs": [],
					"stateMutability": "nonpayable",
					"type": "function"
				}
			],
			"devdoc": {
				"kind": "dev",
				"methods": {},
				"version": 1
			},
			"evm": {
				"assembly": "    /* \"Day-26/code4.sol\":68:259  contract Events{... */\n  mstore(0x40, 0x80)\n  callvalue\n  dup1\n  iszero\n  tag_1\n  jumpi\n  0x00\n  dup1\n  revert\ntag_1:\n  pop\n  dataSize(sub_0)\n  dup1\n  dataOffset(sub_0)\n  0x00\n  codecopy\n  0x00\n  return\nstop\n\nsub_0: assembly {\n        /* \"Day-26/code4.sol\":68:259  contract Events{... */\n      mstore(0x40, 0x80)\n      callvalue\n      dup1\n      iszero\n      tag_1\n      jumpi\n      0x00\n      dup1\n      revert\n    tag_1:\n      pop\n      jumpi(tag_2, lt(calldatasize, 0x04))\n      shr(0xe0, calldataload(0x00))\n      dup1\n      0x5b4b73a9\n      eq\n      tag_3\n      jumpi\n    tag_2:\n      0x00\n      dup1\n      revert\n        /* \"Day-26/code4.sol\":155:256  function setData(uint _val) public {... */\n    tag_3:\n      tag_4\n      0x04\n      dup1\n      calldatasize\n      sub\n      dup2\n      add\n      swap1\n      tag_5\n      swap2\n      swap1\n      tag_6\n      jump\t// in\n    tag_5:\n      tag_7\n      jump\t// in\n    tag_4:\n      stop\n    tag_7:\n        /* \"Day-26/code4.sol\":206:248  balance(msg.sender, \"Send by Owner\", _val) */\n      0x3028aee09e5f7149e98b3f7f8faa7e2cc5b353de720db250726b7c64d38b5f9c\n        /* \"Day-26/code4.sol\":214:224  msg.sender */\n      caller\n        /* \"Day-26/code4.sol\":243:247  _val */\n      dup3\n        /* \"Day-26/code4.sol\":206:248  balance(msg.sender, \"Send by Owner\", _val) */\n      mload(0x40)\n      tag_9\n      swap3\n      swap2\n      swap1\n      tag_10\n      jump\t// in\n    tag_9:\n      mload(0x40)\n      dup1\n      swap2\n      sub\n      swap1\n      log1\n        /* \"Day-26/code4.sol\":155:256  function setData(uint _val) public {... */\n      pop\n      jump\t// out\n        /* \"#utility.yul\":88:205   */\n    tag_12:\n        /* \"#utility.yul\":197:198   */\n      0x00\n        /* \"#utility.yul\":194:195   */\n      dup1\n        /* \"#utility.yul\":187:199   */\n      revert\n        /* \"#utility.yul\":334:411   */\n    tag_14:\n        /* \"#utility.yul\":371:378   */\n      0x00\n        /* \"#utility.yul\":400:405   */\n      dup2\n        /* \"#utility.yul\":389:405   */\n      swap1\n      pop\n        /* \"#utility.yul\":334:411   */\n      swap2\n      swap1\n      pop\n      jump\t// out\n        /* \"#utility.yul\":417:539   */\n    tag_15:\n        /* \"#utility.yul\":490:514   */\n      tag_30\n        /* \"#utility.yul\":508:513   */\n      dup2\n        /* \"#utility.yul\":490:514   */\n      tag_14\n      jump\t// in\n    tag_30:\n        /* \"#utility.yul\":483:488   */\n      dup2\n        /* \"#utility.yul\":480:515   */\n      eq\n        /* \"#utility.yul\":470:533   */\n      tag_31\n      jumpi\n        /* \"#utility.yul\":529:530   */\n      0x00\n        /* \"#utility.yul\":526:527   */\n      dup1\n        /* \"#utility.yul\":519:531   */\n      revert\n        /* \"#utility.yul\":470:533   */\n    tag_31:\n        /* \"#utility.yul\":417:539   */\n      pop\n      jump\t// out\n        /* \"#utility.yul\":545:684   */\n    tag_16:\n        /* \"#utility.yul\":591:596   */\n      0x00\n        /* \"#utility.yul\":629:635   */\n      dup2\n        /* \"#utility.yul\":616:636   */\n      calldataload\n        /* \"#utility.yul\":607:636   */\n      swap1\n      pop\n        /* \"#utility.yul\":645:678   */\n      tag_33\n        /* \"#utility.yul\":672:677   */\n      dup2\n        /* \"#utility.yul\":645:678   */\n      tag_15\n      jump\t// in\n    tag_33:\n        /* \"#utility.yul\":545:684   */\n      swap3\n      swap2\n      pop\n      pop\n      jump\t// out\n        /* \"#utility.yul\":690:1019   */\n    tag_6:\n        /* \"#utility.yul\":749:755   */\n      0x00\n        /* \"#utility.yul\":798:800   */\n      0x20\n        /* \"#utility.yul\":786:795   */\n      dup3\n        /* \"#utility.yul\":777:784   */\n      dup5\n        /* \"#utility.yul\":773:796   */\n      sub\n        /* \"#utility.yul\":769:801   */\n      slt\n        /* \"#utility.yul\":766:885   */\n      iszero\n      tag_35\n      jumpi\n        /* \"#utility.yul\":804:883   */\n      tag_36\n      tag_12\n      jump\t// in\n    tag_36:\n        /* \"#utility.yul\":766:885   */\n    tag_35:\n        /* \"#utility.yul\":924:925   */\n      0x00\n        /* \"#utility.yul\":949:1002   */\n      tag_37\n        /* \"#utility.yul\":994:1001   */\n      dup5\n        /* \"#utility.yul\":985:991   */\n      dup3\n        /* \"#utility.yul\":974:983   */\n      dup6\n        /* \"#utility.yul\":970:992   */\n      add\n        /* \"#utility.yul\":949:1002   */\n      tag_16\n      jump\t// in\n    tag_37:\n        /* \"#utility.yul\":939:1002   */\n      swap2\n      pop\n        /* \"#utility.yul\":895:1012   */\n      pop\n        /* \"#utility.yul\":690:1019   */\n      swap3\n      swap2\n      pop\n      pop\n      jump\t// out\n        /* \"#utility.yul\":1025:1151   */\n    tag_17:\n        /* \"#utility.yul\":1062:1069   */\n      0x00\n        /* \"#utility.yul\":1102:1144   */\n      0xffffffffffffffffffffffffffffffffffffffff\n        /* \"#utility.yul\":1095:1100   */\n      dup3\n        /* \"#utility.yul\":1091:1145   */\n      and\n        /* \"#utility.yul\":1080:1145   */\n      swap1\n      pop\n        /* \"#utility.yul\":1025:1151   */\n      swap2\n      swap1\n      pop\n      jump\t// out\n        /* \"#utility.yul\":1157:1253   */\n    tag_18:\n        /* \"#utility.yul\":1194:1201   */\n      0x00\n        /* \"#utility.yul\":1223:1247   */\n      tag_40\n        /* \"#utility.yul\":1241:1246   */\n      dup3\n        /* \"#utility.yul\":1223:1247   */\n      tag_17\n      jump\t// in\n    tag_40:\n        /* \"#utility.yul\":1212:1247   */\n      swap1\n      pop\n        /* \"#utility.yul\":1157:1253   */\n      swap2\n      swap1\n      pop\n      jump\t// out\n        /* \"#utility.yul\":1259:1377   */\n    tag_19:\n        /* \"#utility.yul\":1346:1370   */\n      tag_42\n        /* \"#utility.yul\":1364:1369   */\n      dup2\n        /* \"#utility.yul\":1346:1370   */\n      tag_18\n      jump\t// in\n    tag_42:\n        /* \"#utility.yul\":1341:1344   */\n      dup3\n        /* \"#utility.yul\":1334:1371   */\n      mstore\n        /* \"#utility.yul\":1259:1377   */\n      pop\n      pop\n      jump\t// out\n        /* \"#utility.yul\":1383:1552   */\n    tag_20:\n        /* \"#utility.yul\":1467:1478   */\n      0x00\n        /* \"#utility.yul\":1501:1507   */\n      dup3\n        /* \"#utility.yul\":1496:1499   */\n      dup3\n        /* \"#utility.yul\":1489:1508   */\n      mstore\n        /* \"#utility.yul\":1541:1545   */\n      0x20\n        /* \"#utility.yul\":1536:1539   */\n      dup3\n        /* \"#utility.yul\":1532:1546   */\n      add\n        /* \"#utility.yul\":1517:1546   */\n      swap1\n      pop\n        /* \"#utility.yul\":1383:1552   */\n      swap3\n      swap2\n      pop\n      pop\n      jump\t// out\n        /* \"#utility.yul\":1558:1721   */\n    tag_21:\n        /* \"#utility.yul\":1698:1713   */\n      0x53656e64206279204f776e657200000000000000000000000000000000000000\n        /* \"#utility.yul\":1694:1695   */\n      0x00\n        /* \"#utility.yul\":1686:1692   */\n      dup3\n        /* \"#utility.yul\":1682:1696   */\n      add\n        /* \"#utility.yul\":1675:1714   */\n      mstore\n        /* \"#utility.yul\":1558:1721   */\n      pop\n      jump\t// out\n        /* \"#utility.yul\":1727:2093   */\n    tag_22:\n        /* \"#utility.yul\":1869:1872   */\n      0x00\n        /* \"#utility.yul\":1890:1957   */\n      tag_46\n        /* \"#utility.yul\":1954:1956   */\n      0x0d\n        /* \"#utility.yul\":1949:1952   */\n      dup4\n        /* \"#utility.yul\":1890:1957   */\n      tag_20\n      jump\t// in\n    tag_46:\n        /* \"#utility.yul\":1883:1957   */\n      swap2\n      pop\n        /* \"#utility.yul\":1966:2059   */\n      tag_47\n        /* \"#utility.yul\":2055:2058   */\n      dup3\n        /* \"#utility.yul\":1966:2059   */\n      tag_21\n      jump\t// in\n    tag_47:\n        /* \"#utility.yul\":2084:2086   */\n      0x20\n        /* \"#utility.yul\":2079:2082   */\n      dup3\n        /* \"#utility.yul\":2075:2087   */\n      add\n        /* \"#utility.yul\":2068:2087   */\n      swap1\n      pop\n        /* \"#utility.yul\":1727:2093   */\n      swap2\n      swap1\n      pop\n      jump\t// out\n        /* \"#utility.yul\":2099:2217   */\n    tag_23:\n        /* \"#utility.yul\":2186:2210   */\n      tag_49\n        /* \"#utility.yul\":2204:2209   */\n      dup2\n        /* \"#utility.yul\":2186:2210   */\n      tag_14\n      jump\t// in\n    tag_49:\n        /* \"#utility.yul\":2181:2184   */\n      dup3\n        /* \"#utility.yul\":2174:2211   */\n      mstore\n        /* \"#utility.yul\":2099:2217   */\n      pop\n      pop\n      jump\t// out\n        /* \"#utility.yul\":2223:2862   */\n    tag_10:\n        /* \"#utility.yul\":2445:2449   */\n      0x00\n        /* \"#utility.yul\":2483:2485   */\n      0x60\n        /* \"#utility.yul\":2472:2481   */\n      dup3\n        /* \"#utility.yul\":2468:2486   */\n      add\n        /* \"#utility.yul\":2460:2486   */\n      swap1\n      pop\n        /* \"#utility.yul\":2496:2567   */\n      tag_51\n        /* \"#utility.yul\":2564:2565   */\n      0x00\n        /* \"#utility.yul\":2553:2562   */\n      dup4\n        /* \"#utility.yul\":2549:2566   */\n      add\n        /* \"#utility.yul\":2540:2546   */\n      dup6\n        /* \"#utility.yul\":2496:2567   */\n      tag_19\n      jump\t// in\n    tag_51:\n        /* \"#utility.yul\":2614:2623   */\n      dup2\n        /* \"#utility.yul\":2608:2612   */\n      dup2\n        /* \"#utility.yul\":2604:2624   */\n      sub\n        /* \"#utility.yul\":2599:2601   */\n      0x20\n        /* \"#utility.yul\":2588:2597   */\n      dup4\n        /* \"#utility.yul\":2584:2602   */\n      add\n        /* \"#utility.yul\":2577:2625   */\n      mstore\n        /* \"#utility.yul\":2642:2773   */\n      tag_52\n        /* \"#utility.yul\":2768:2772   */\n      dup2\n        /* \"#utility.yul\":2642:2773   */\n      tag_22\n      jump\t// in\n    tag_52:\n        /* \"#utility.yul\":2634:2773   */\n      swap1\n      pop\n        /* \"#utility.yul\":2783:2855   */\n      tag_53\n        /* \"#utility.yul\":2851:2853   */\n      0x40\n        /* \"#utility.yul\":2840:2849   */\n      dup4\n        /* \"#utility.yul\":2836:2854   */\n      add\n        /* \"#utility.yul\":2827:2833   */\n      dup5\n        /* \"#utility.yul\":2783:2855   */\n      tag_23\n      jump\t// in\n    tag_53:\n        /* \"#utility.yul\":2223:2862   */\n      swap4\n      swap3\n      pop\n      pop\n      pop\n      jump\t// out\n\n    auxdata: 0xa2646970667358221220a5995aa97bd41311edad760336b5cf4841c10b033252d92080873599c3da718564736f6c634300081a0033\n}\n",
				"bytecode": {
					"linkReferences": {},
					"object": "6080604052348015600e575f80fd5b506101ff8061001c5f395ff3fe608060405234801561000f575f80fd5b5060043610610029575f3560e01c80635b4b73a91461002d575b5f80fd5b610047600480360381019061004291906100bc565b610049565b005b7f3028aee09e5f7149e98b3f7f8faa7e2cc5b353de720db250726b7c64d38b5f9c338260405161007a92919061018f565b60405180910390a150565b5f80fd5b5f819050919050565b61009b81610089565b81146100a5575f80fd5b50565b5f813590506100b681610092565b92915050565b5f602082840312156100d1576100d0610085565b5b5f6100de848285016100a8565b91505092915050565b5f73ffffffffffffffffffffffffffffffffffffffff82169050919050565b5f610110826100e7565b9050919050565b61012081610106565b82525050565b5f82825260208201905092915050565b7f53656e64206279204f776e6572000000000000000000000000000000000000005f82015250565b5f61016a600d83610126565b915061017582610136565b602082019050919050565b61018981610089565b82525050565b5f6060820190506101a25f830185610117565b81810360208301526101b38161015e565b90506101c26040830184610180565b939250505056fea2646970667358221220a5995aa97bd41311edad760336b5cf4841c10b033252d92080873599c3da718564736f6c634300081a0033",
					"opcodes": "PUSH1 0x80 PUSH1 0x40 MSTORE CALLVALUE DUP1 ISZERO PUSH1 0xE JUMPI PUSH0 DUP1 REVERT JUMPDEST POP PUSH2 0x1FF DUP1 PUSH2 0x1C PUSH0 CODECOPY PUSH0 RETURN INVALID PUSH1 0x80 PUSH1 0x40 MSTORE CALLVALUE DUP1 ISZERO PUSH2 0xF JUMPI PUSH0 DUP1 REVERT JUMPDEST POP PUSH1 0x4 CALLDATASIZE LT PUSH2 0x29 JUMPI PUSH0 CALLDATALOAD PUSH1 0xE0 SHR DUP1 PUSH4 0x5B4B73A9 EQ PUSH2 0x2D JUMPI JUMPDEST PUSH0 DUP1 REVERT JUMPDEST PUSH2 0x47 PUSH1 0x4 DUP1 CALLDATASIZE SUB DUP2 ADD SWAP1 PUSH2 0x42 SWAP2 SWAP1 PUSH2 0xBC JUMP JUMPDEST PUSH2 0x49 JUMP JUMPDEST STOP JUMPDEST PUSH32 0x3028AEE09E5F7149E98B3F7F8FAA7E2CC5B353DE720DB250726B7C64D38B5F9C CALLER DUP3 PUSH1 0x40 MLOAD PUSH2 0x7A SWAP3 SWAP2 SWAP1 PUSH2 0x18F JUMP JUMPDEST PUSH1 0x40 MLOAD DUP1 SWAP2 SUB SWAP1 LOG1 POP JUMP JUMPDEST PUSH0 DUP1 REVERT JUMPDEST PUSH0 DUP2 SWAP1 POP SWAP2 SWAP1 POP JUMP JUMPDEST PUSH2 0x9B DUP2 PUSH2 0x89 JUMP JUMPDEST DUP2 EQ PUSH2 0xA5 JUMPI PUSH0 DUP1 REVERT JUMPDEST POP JUMP JUMPDEST PUSH0 DUP2 CALLDATALOAD SWAP1 POP PUSH2 0xB6 DUP2 PUSH2 0x92 JUMP JUMPDEST SWAP3 SWAP2 POP POP JUMP JUMPDEST PUSH0 PUSH1 0x20 DUP3 DUP5 SUB SLT ISZERO PUSH2 0xD1 JUMPI PUSH2 0xD0 PUSH2 0x85 JUMP JUMPDEST JUMPDEST PUSH0 PUSH2 0xDE DUP5 DUP3 DUP6 ADD PUSH2 0xA8 JUMP JUMPDEST SWAP2 POP POP SWAP3 SWAP2 POP POP JUMP JUMPDEST PUSH0 PUSH20 0xFFFFFFFFFFFFFFFFFFFFFFFFFFFFFFFFFFFFFFFF DUP3 AND SWAP1 POP SWAP2 SWAP1 POP JUMP JUMPDEST PUSH0 PUSH2 0x110 DUP3 PUSH2 0xE7 JUMP JUMPDEST SWAP1 POP SWAP2 SWAP1 POP JUMP JUMPDEST PUSH2 0x120 DUP2 PUSH2 0x106 JUMP JUMPDEST DUP3 MSTORE POP POP JUMP JUMPDEST PUSH0 DUP3 DUP3 MSTORE PUSH1 0x20 DUP3 ADD SWAP1 POP SWAP3 SWAP2 POP POP JUMP JUMPDEST PUSH32 0x53656E64206279204F776E657200000000000000000000000000000000000000 PUSH0 DUP3 ADD MSTORE POP JUMP JUMPDEST PUSH0 PUSH2 0x16A PUSH1 0xD DUP4 PUSH2 0x126 JUMP JUMPDEST SWAP2 POP PUSH2 0x175 DUP3 PUSH2 0x136 JUMP JUMPDEST PUSH1 0x20 DUP3 ADD SWAP1 POP SWAP2 SWAP1 POP JUMP JUMPDEST PUSH2 0x189 DUP2 PUSH2 0x89 JUMP JUMPDEST DUP3 MSTORE POP POP JUMP JUMPDEST PUSH0 PUSH1 0x60 DUP3 ADD SWAP1 POP PUSH2 0x1A2 PUSH0 DUP4 ADD DUP6 PUSH2 0x117 JUMP JUMPDEST DUP2 DUP2 SUB PUSH1 0x20 DUP4 ADD MSTORE PUSH2 0x1B3 DUP2 PUSH2 0x15E JUMP JUMPDEST SWAP1 POP PUSH2 0x1C2 PUSH1 0x40 DUP4 ADD DUP5 PUSH2 0x180 JUMP JUMPDEST SWAP4 SWAP3 POP POP POP JUMP INVALID LOG2 PUSH5 0x6970667358 0x22 SLT KECCAK256 0xA5 SWAP10 GAS 0xA9 PUSH28 0xD41311EDAD760336B5CF4841C10B033252D92080873599C3DA718564 PUSH20 0x6F6C634300081A00330000000000000000000000 "
				},
				"gasEstimates": {
					"creation": {
						"codeDepositCost": "102200",
						"executionCost": "145",
						"totalCost": "102345"
					},
					"external": {
						"setData(uint256)": "infinite"
					}
				},
				"methodIdentifiers": {
					"setData(uint256)": "5b4b73a9"
				}
			},
			"storageLayout": {
				"storage": [],
				"types": null
			},
			"userdoc": {
				"kind": "user",
				"methods": {},
				"version": 1
			}
		}
	}
}