{
	"Day-26/code3.sol": {
		"LibraryExample": {
			"abi": [
				{
					"inputs": [
						{
							"internalType": "uint256",
							"name": "num1",
							"type": "uint256"
						},
						{
							"internalType": "uint256",
							"name": "num2",
							"type": "uint256"
						}
					],
					"name": "getPow",
					"outputs": [
						{
							"internalType": "uint256",
							"name": "",
							"type": "uint256"
						},
						{
							"internalType": "address",
							"name": "",
							"type": "address"
						}
					],
					"stateMutability": "view",
					"type": "function"
				}
			],
			"devdoc": {
				"kind": "dev",
				"methods": {},
				"version": 1
			},
			"evm": {
				"assembly": "    /* \"Day-26/code3.sol\":212:427  contract LibraryExample{... */\n  mstore(0x40, 0x80)\n    /* \"Day-26/code3.sol\":298:302  this */\n  address\n    /* \"Day-26/code3.sol\":274:303  address owner = address(this) */\n  0x00\n  dup1\n  0x0100\n  exp\n  dup2\n  sload\n  dup2\n  0xffffffffffffffffffffffffffffffffffffffff\n  mul\n  not\n  and\n  swap1\n  dup4\n  0xffffffffffffffffffffffffffffffffffffffff\n  and\n  mul\n  or\n  swap1\n  sstore\n  pop\n    /* \"Day-26/code3.sol\":212:427  contract LibraryExample{... */\n  callvalue\n  dup1\n  iszero\n  tag_1\n  jumpi\n  0x00\n  dup1\n  revert\ntag_1:\n  pop\n  dataSize(sub_0)\n  dup1\n  dataOffset(sub_0)\n  0x00\n  codecopy\n  0x00\n  return\nstop\n\nsub_0: assembly {\n        /* \"Day-26/code3.sol\":212:427  contract LibraryExample{... */\n      mstore(0x40, 0x80)\n      callvalue\n      dup1\n      iszero\n      tag_1\n      jumpi\n      0x00\n      dup1\n      revert\n    tag_1:\n      pop\n      jumpi(tag_2, lt(calldatasize, 0x04))\n      shr(0xe0, calldataload(0x00))\n      dup1\n      0x0d41dd3a\n      eq\n      tag_3\n      jumpi\n    tag_2:\n      0x00\n      dup1\n      revert\n        /* \"Day-26/code3.sol\":312:424  function getPow(uint num1, uint num2) public view returns(uint, address){... */\n    tag_3:\n      tag_4\n      0x04\n      dup1\n      calldatasize\n      sub\n      dup2\n      add\n      swap1\n      tag_5\n      swap2\n      swap1\n      tag_6\n      jump\t// in\n    tag_5:\n      tag_7\n      jump\t// in\n    tag_4:\n      mload(0x40)\n      tag_8\n      swap3\n      swap2\n      swap1\n      tag_9\n      jump\t// in\n    tag_8:\n      mload(0x40)\n      dup1\n      swap2\n      sub\n      swap1\n      return\n    tag_7:\n        /* \"Day-26/code3.sol\":370:374  uint */\n      0x00\n        /* \"Day-26/code3.sol\":376:383  address */\n      dup1\n        /* \"Day-26/code3.sol\":402:406  num1 */\n      dup4\n        /* \"Day-26/code3.sol\":402:410  num1.pow */\n      linkerSymbol(\"8ef6f5bacef88f29f27e6c55a7577f0fc75f7e6d404d9f0c06cd059d3b9ae0a3\")\n      0x2e4c697f\n      swap1\n      swap2\n        /* \"Day-26/code3.sol\":411:415  num2 */\n      dup6\n        /* \"Day-26/code3.sol\":402:416  num1.pow(num2) */\n      mload(0x40)\n      dup4\n      0xffffffff\n      and\n      0xe0\n      shl\n      dup2\n      mstore\n      0x04\n      add\n      tag_11\n      swap3\n      swap2\n      swap1\n      tag_12\n      jump\t// in\n    tag_11:\n      0x40\n      dup1\n      mload\n      dup1\n      dup4\n      sub\n      dup2\n      dup7\n      gas\n      delegatecall\n      iszero\n      dup1\n      iszero\n      tag_14\n      jumpi\n      returndatasize\n      0x00\n      dup1\n      returndatacopy\n      revert(0x00, returndatasize)\n    tag_14:\n      pop\n      pop\n      pop\n      pop\n      mload(0x40)\n      returndatasize\n      not(0x1f)\n      0x1f\n      dup3\n      add\n      and\n      dup3\n      add\n      dup1\n      0x40\n      mstore\n      pop\n      dup2\n      add\n      swap1\n      tag_15\n      swap2\n      swap1\n      tag_16\n      jump\t// in\n    tag_15:\n        /* \"Day-26/code3.sol\":395:416  return num1.pow(num2) */\n      swap2\n      pop\n      swap2\n      pop\n        /* \"Day-26/code3.sol\":312:424  function getPow(uint num1, uint num2) public view returns(uint, address){... */\n      swap3\n      pop\n      swap3\n      swap1\n      pop\n      jump\t// out\n        /* \"#utility.yul\":88:205   */\n    tag_18:\n        /* \"#utility.yul\":197:198   */\n      0x00\n        /* \"#utility.yul\":194:195   */\n      dup1\n        /* \"#utility.yul\":187:199   */\n      revert\n        /* \"#utility.yul\":334:411   */\n    tag_20:\n        /* \"#utility.yul\":371:378   */\n      0x00\n        /* \"#utility.yul\":400:405   */\n      dup2\n        /* \"#utility.yul\":389:405   */\n      swap1\n      pop\n        /* \"#utility.yul\":334:411   */\n      swap2\n      swap1\n      pop\n      jump\t// out\n        /* \"#utility.yul\":417:539   */\n    tag_21:\n        /* \"#utility.yul\":490:514   */\n      tag_37\n        /* \"#utility.yul\":508:513   */\n      dup2\n        /* \"#utility.yul\":490:514   */\n      tag_20\n      jump\t// in\n    tag_37:\n        /* \"#utility.yul\":483:488   */\n      dup2\n        /* \"#utility.yul\":480:515   */\n      eq\n        /* \"#utility.yul\":470:533   */\n      tag_38\n      jumpi\n        /* \"#utility.yul\":529:530   */\n      0x00\n        /* \"#utility.yul\":526:527   */\n      dup1\n        /* \"#utility.yul\":519:531   */\n      revert\n        /* \"#utility.yul\":470:533   */\n    tag_38:\n        /* \"#utility.yul\":417:539   */\n      pop\n      jump\t// out\n        /* \"#utility.yul\":545:684   */\n    tag_22:\n        /* \"#utility.yul\":591:596   */\n      0x00\n        /* \"#utility.yul\":629:635   */\n      dup2\n        /* \"#utility.yul\":616:636   */\n      calldataload\n        /* \"#utility.yul\":607:636   */\n      swap1\n      pop\n        /* \"#utility.yul\":645:678   */\n      tag_40\n        /* \"#utility.yul\":672:677   */\n      dup2\n        /* \"#utility.yul\":645:678   */\n      tag_21\n      jump\t// in\n    tag_40:\n        /* \"#utility.yul\":545:684   */\n      swap3\n      swap2\n      pop\n      pop\n      jump\t// out\n        /* \"#utility.yul\":690:1164   */\n    tag_6:\n        /* \"#utility.yul\":758:764   */\n      0x00\n        /* \"#utility.yul\":766:772   */\n      dup1\n        /* \"#utility.yul\":815:817   */\n      0x40\n        /* \"#utility.yul\":803:812   */\n      dup4\n        /* \"#utility.yul\":794:801   */\n      dup6\n        /* \"#utility.yul\":790:813   */\n      sub\n        /* \"#utility.yul\":786:818   */\n      slt\n        /* \"#utility.yul\":783:902   */\n      iszero\n      tag_42\n      jumpi\n        /* \"#utility.yul\":821:900   */\n      tag_43\n      tag_18\n      jump\t// in\n    tag_43:\n        /* \"#utility.yul\":783:902   */\n    tag_42:\n        /* \"#utility.yul\":941:942   */\n      0x00\n        /* \"#utility.yul\":966:1019   */\n      tag_44\n        /* \"#utility.yul\":1011:1018   */\n      dup6\n        /* \"#utility.yul\":1002:1008   */\n      dup3\n        /* \"#utility.yul\":991:1000   */\n      dup7\n        /* \"#utility.yul\":987:1009   */\n      add\n        /* \"#utility.yul\":966:1019   */\n      tag_22\n      jump\t// in\n    tag_44:\n        /* \"#utility.yul\":956:1019   */\n      swap3\n      pop\n        /* \"#utility.yul\":912:1029   */\n      pop\n        /* \"#utility.yul\":1068:1070   */\n      0x20\n        /* \"#utility.yul\":1094:1147   */\n      tag_45\n        /* \"#utility.yul\":1139:1146   */\n      dup6\n        /* \"#utility.yul\":1130:1136   */\n      dup3\n        /* \"#utility.yul\":1119:1128   */\n      dup7\n        /* \"#utility.yul\":1115:1137   */\n      add\n        /* \"#utility.yul\":1094:1147   */\n      tag_22\n      jump\t// in\n    tag_45:\n        /* \"#utility.yul\":1084:1147   */\n      swap2\n      pop\n        /* \"#utility.yul\":1039:1157   */\n      pop\n        /* \"#utility.yul\":690:1164   */\n      swap3\n      pop\n      swap3\n      swap1\n      pop\n      jump\t// out\n        /* \"#utility.yul\":1170:1288   */\n    tag_23:\n        /* \"#utility.yul\":1257:1281   */\n      tag_47\n        /* \"#utility.yul\":1275:1280   */\n      dup2\n        /* \"#utility.yul\":1257:1281   */\n      tag_20\n      jump\t// in\n    tag_47:\n        /* \"#utility.yul\":1252:1255   */\n      dup3\n        /* \"#utility.yul\":1245:1282   */\n      mstore\n        /* \"#utility.yul\":1170:1288   */\n      pop\n      pop\n      jump\t// out\n        /* \"#utility.yul\":1294:1420   */\n    tag_24:\n        /* \"#utility.yul\":1331:1338   */\n      0x00\n        /* \"#utility.yul\":1371:1413   */\n      0xffffffffffffffffffffffffffffffffffffffff\n        /* \"#utility.yul\":1364:1369   */\n      dup3\n        /* \"#utility.yul\":1360:1414   */\n      and\n        /* \"#utility.yul\":1349:1414   */\n      swap1\n      pop\n        /* \"#utility.yul\":1294:1420   */\n      swap2\n      swap1\n      pop\n      jump\t// out\n        /* \"#utility.yul\":1426:1522   */\n    tag_25:\n        /* \"#utility.yul\":1463:1470   */\n      0x00\n        /* \"#utility.yul\":1492:1516   */\n      tag_50\n        /* \"#utility.yul\":1510:1515   */\n      dup3\n        /* \"#utility.yul\":1492:1516   */\n      tag_24\n      jump\t// in\n    tag_50:\n        /* \"#utility.yul\":1481:1516   */\n      swap1\n      pop\n        /* \"#utility.yul\":1426:1522   */\n      swap2\n      swap1\n      pop\n      jump\t// out\n        /* \"#utility.yul\":1528:1646   */\n    tag_26:\n        /* \"#utility.yul\":1615:1639   */\n      tag_52\n        /* \"#utility.yul\":1633:1638   */\n      dup2\n        /* \"#utility.yul\":1615:1639   */\n      tag_25\n      jump\t// in\n    tag_52:\n        /* \"#utility.yul\":1610:1613   */\n      dup3\n        /* \"#utility.yul\":1603:1640   */\n      mstore\n        /* \"#utility.yul\":1528:1646   */\n      pop\n      pop\n      jump\t// out\n        /* \"#utility.yul\":1652:1984   */\n    tag_9:\n        /* \"#utility.yul\":1773:1777   */\n      0x00\n        /* \"#utility.yul\":1811:1813   */\n      0x40\n        /* \"#utility.yul\":1800:1809   */\n      dup3\n        /* \"#utility.yul\":1796:1814   */\n      add\n        /* \"#utility.yul\":1788:1814   */\n      swap1\n      pop\n        /* \"#utility.yul\":1824:1895   */\n      tag_54\n        /* \"#utility.yul\":1892:1893   */\n      0x00\n        /* \"#utility.yul\":1881:1890   */\n      dup4\n        /* \"#utility.yul\":1877:1894   */\n      add\n        /* \"#utility.yul\":1868:1874   */\n      dup6\n        /* \"#utility.yul\":1824:1895   */\n      tag_23\n      jump\t// in\n    tag_54:\n        /* \"#utility.yul\":1905:1977   */\n      tag_55\n        /* \"#utility.yul\":1973:1975   */\n      0x20\n        /* \"#utility.yul\":1962:1971   */\n      dup4\n        /* \"#utility.yul\":1958:1976   */\n      add\n        /* \"#utility.yul\":1949:1955   */\n      dup5\n        /* \"#utility.yul\":1905:1977   */\n      tag_26\n      jump\t// in\n    tag_55:\n        /* \"#utility.yul\":1652:1984   */\n      swap4\n      swap3\n      pop\n      pop\n      pop\n      jump\t// out\n        /* \"#utility.yul\":1990:2116   */\n    tag_27:\n        /* \"#utility.yul\":2085:2109   */\n      tag_57\n        /* \"#utility.yul\":2103:2108   */\n      dup2\n        /* \"#utility.yul\":2085:2109   */\n      tag_20\n      jump\t// in\n    tag_57:\n        /* \"#utility.yul\":2080:2083   */\n      dup3\n        /* \"#utility.yul\":2073:2110   */\n      mstore\n        /* \"#utility.yul\":1990:2116   */\n      pop\n      pop\n      jump\t// out\n        /* \"#utility.yul\":2122:2478   */\n    tag_12:\n        /* \"#utility.yul\":2251:2255   */\n      0x00\n        /* \"#utility.yul\":2289:2291   */\n      0x40\n        /* \"#utility.yul\":2278:2287   */\n      dup3\n        /* \"#utility.yul\":2274:2292   */\n      add\n        /* \"#utility.yul\":2266:2292   */\n      swap1\n      pop\n        /* \"#utility.yul\":2302:2381   */\n      tag_59\n        /* \"#utility.yul\":2378:2379   */\n      0x00\n        /* \"#utility.yul\":2367:2376   */\n      dup4\n        /* \"#utility.yul\":2363:2380   */\n      add\n        /* \"#utility.yul\":2354:2360   */\n      dup6\n        /* \"#utility.yul\":2302:2381   */\n      tag_27\n      jump\t// in\n    tag_59:\n        /* \"#utility.yul\":2391:2471   */\n      tag_60\n        /* \"#utility.yul\":2467:2469   */\n      0x20\n        /* \"#utility.yul\":2456:2465   */\n      dup4\n        /* \"#utility.yul\":2452:2470   */\n      add\n        /* \"#utility.yul\":2443:2449   */\n      dup5\n        /* \"#utility.yul\":2391:2471   */\n      tag_27\n      jump\t// in\n    tag_60:\n        /* \"#utility.yul\":2122:2478   */\n      swap4\n      swap3\n      pop\n      pop\n      pop\n      jump\t// out\n        /* \"#utility.yul\":2484:2627   */\n    tag_28:\n        /* \"#utility.yul\":2541:2546   */\n      0x00\n        /* \"#utility.yul\":2572:2578   */\n      dup2\n        /* \"#utility.yul\":2566:2579   */\n      mload\n        /* \"#utility.yul\":2557:2579   */\n      swap1\n      pop\n        /* \"#utility.yul\":2588:2621   */\n      tag_62\n        /* \"#utility.yul\":2615:2620   */\n      dup2\n        /* \"#utility.yul\":2588:2621   */\n      tag_21\n      jump\t// in\n    tag_62:\n        /* \"#utility.yul\":2484:2627   */\n      swap3\n      swap2\n      pop\n      pop\n      jump\t// out\n        /* \"#utility.yul\":2633:2755   */\n    tag_29:\n        /* \"#utility.yul\":2706:2730   */\n      tag_64\n        /* \"#utility.yul\":2724:2729   */\n      dup2\n        /* \"#utility.yul\":2706:2730   */\n      tag_25\n      jump\t// in\n    tag_64:\n        /* \"#utility.yul\":2699:2704   */\n      dup2\n        /* \"#utility.yul\":2696:2731   */\n      eq\n        /* \"#utility.yul\":2686:2749   */\n      tag_65\n      jumpi\n        /* \"#utility.yul\":2745:2746   */\n      0x00\n        /* \"#utility.yul\":2742:2743   */\n      dup1\n        /* \"#utility.yul\":2735:2747   */\n      revert\n        /* \"#utility.yul\":2686:2749   */\n    tag_65:\n        /* \"#utility.yul\":2633:2755   */\n      pop\n      jump\t// out\n        /* \"#utility.yul\":2761:2904   */\n    tag_30:\n        /* \"#utility.yul\":2818:2823   */\n      0x00\n        /* \"#utility.yul\":2849:2855   */\n      dup2\n        /* \"#utility.yul\":2843:2856   */\n      mload\n        /* \"#utility.yul\":2834:2856   */\n      swap1\n      pop\n        /* \"#utility.yul\":2865:2898   */\n      tag_67\n        /* \"#utility.yul\":2892:2897   */\n      dup2\n        /* \"#utility.yul\":2865:2898   */\n      tag_29\n      jump\t// in\n    tag_67:\n        /* \"#utility.yul\":2761:2904   */\n      swap3\n      swap2\n      pop\n      pop\n      jump\t// out\n        /* \"#utility.yul\":2910:3417   */\n    tag_16:\n        /* \"#utility.yul\":2989:2995   */\n      0x00\n        /* \"#utility.yul\":2997:3003   */\n      dup1\n        /* \"#utility.yul\":3046:3048   */\n      0x40\n        /* \"#utility.yul\":3034:3043   */\n      dup4\n        /* \"#utility.yul\":3025:3032   */\n      dup6\n        /* \"#utility.yul\":3021:3044   */\n      sub\n        /* \"#utility.yul\":3017:3049   */\n      slt\n        /* \"#utility.yul\":3014:3133   */\n      iszero\n      tag_69\n      jumpi\n        /* \"#utility.yul\":3052:3131   */\n      tag_70\n      tag_18\n      jump\t// in\n    tag_70:\n        /* \"#utility.yul\":3014:3133   */\n    tag_69:\n        /* \"#utility.yul\":3172:3173   */\n      0x00\n        /* \"#utility.yul\":3197:3261   */\n      tag_71\n        /* \"#utility.yul\":3253:3260   */\n      dup6\n        /* \"#utility.yul\":3244:3250   */\n      dup3\n        /* \"#utility.yul\":3233:3242   */\n      dup7\n        /* \"#utility.yul\":3229:3251   */\n      add\n        /* \"#utility.yul\":3197:3261   */\n      tag_28\n      jump\t// in\n    tag_71:\n        /* \"#utility.yul\":3187:3261   */\n      swap3\n      pop\n        /* \"#utility.yul\":3143:3271   */\n      pop\n        /* \"#utility.yul\":3310:3312   */\n      0x20\n        /* \"#utility.yul\":3336:3400   */\n      tag_72\n        /* \"#utility.yul\":3392:3399   */\n      dup6\n        /* \"#utility.yul\":3383:3389   */\n      dup3\n        /* \"#utility.yul\":3372:3381   */\n      dup7\n        /* \"#utility.yul\":3368:3390   */\n      add\n        /* \"#utility.yul\":3336:3400   */\n      tag_30\n      jump\t// in\n    tag_72:\n        /* \"#utility.yul\":3326:3400   */\n      swap2\n      pop\n        /* \"#utility.yul\":3281:3410   */\n      pop\n        /* \"#utility.yul\":2910:3417   */\n      swap3\n      pop\n      swap3\n      swap1\n      pop\n      jump\t// out\n\n    auxdata: 0xa264697066735822122040ba8b866c24dd813e2e1e052160bf3472884b83b94e5d94262a3078785dbd4664736f6c634300081a0033\n}\n",
				"bytecode": {
					"linkReferences": {
						"Day-26/code3.sol": {
							"LibExample": [
								{
									"length": 20,
									"start": 190
								}
							]
						}
					},
					"object": "6080604052305f806101000a81548173ffffffffffffffffffffffffffffffffffffffff021916908373ffffffffffffffffffffffffffffffffffffffff160217905550348015604d575f80fd5b506102b68061005b5f395ff3fe608060405234801561000f575f80fd5b5060043610610029575f3560e01c80630d41dd3a1461002d575b5f80fd5b6100476004803603810190610042919061011b565b61005e565b6040516100559291906101a7565b60405180910390f35b5f808373__$8ef6f5bacef88f29f27e6c55a7577f0fc7$__632e4c697f9091856040518363ffffffff1660e01b815260040161009b9291906101dd565b6040805180830381865af41580156100b5573d5f803e3d5ffd5b505050506040513d601f19601f820116820180604052508101906100d99190610242565b915091509250929050565b5f80fd5b5f819050919050565b6100fa816100e8565b8114610104575f80fd5b50565b5f81359050610115816100f1565b92915050565b5f8060408385031215610131576101306100e4565b5b5f61013e85828601610107565b925050602061014f85828601610107565b9150509250929050565b610162816100e8565b82525050565b5f73ffffffffffffffffffffffffffffffffffffffff82169050919050565b5f61019182610168565b9050919050565b6101a181610187565b82525050565b5f6040820190506101ba5f830185610159565b6101c76020830184610198565b9392505050565b6101d7816100e8565b82525050565b5f6040820190506101f05f8301856101ce565b6101fd60208301846101ce565b9392505050565b5f81519050610212816100f1565b92915050565b61022181610187565b811461022b575f80fd5b50565b5f8151905061023c81610218565b92915050565b5f8060408385031215610258576102576100e4565b5b5f61026585828601610204565b92505060206102768582860161022e565b915050925092905056fea264697066735822122040ba8b866c24dd813e2e1e052160bf3472884b83b94e5d94262a3078785dbd4664736f6c634300081a0033",
					"opcodes": "PUSH1 0x80 PUSH1 0x40 MSTORE ADDRESS PUSH0 DUP1 PUSH2 0x100 EXP DUP2 SLOAD DUP2 PUSH20 0xFFFFFFFFFFFFFFFFFFFFFFFFFFFFFFFFFFFFFFFF MUL NOT AND SWAP1 DUP4 PUSH20 0xFFFFFFFFFFFFFFFFFFFFFFFFFFFFFFFFFFFFFFFF AND MUL OR SWAP1 SSTORE POP CALLVALUE DUP1 ISZERO PUSH1 0x4D JUMPI PUSH0 DUP1 REVERT JUMPDEST POP PUSH2 0x2B6 DUP1 PUSH2 0x5B PUSH0 CODECOPY PUSH0 RETURN INVALID PUSH1 0x80 PUSH1 0x40 MSTORE CALLVALUE DUP1 ISZERO PUSH2 0xF JUMPI PUSH0 DUP1 REVERT JUMPDEST POP PUSH1 0x4 CALLDATASIZE LT PUSH2 0x29 JUMPI PUSH0 CALLDATALOAD PUSH1 0xE0 SHR DUP1 PUSH4 0xD41DD3A EQ PUSH2 0x2D JUMPI JUMPDEST PUSH0 DUP1 REVERT JUMPDEST PUSH2 0x47 PUSH1 0x4 DUP1 CALLDATASIZE SUB DUP2 ADD SWAP1 PUSH2 0x42 SWAP2 SWAP1 PUSH2 0x11B JUMP JUMPDEST PUSH2 0x5E JUMP JUMPDEST PUSH1 0x40 MLOAD PUSH2 0x55 SWAP3 SWAP2 SWAP1 PUSH2 0x1A7 JUMP JUMPDEST PUSH1 0x40 MLOAD DUP1 SWAP2 SUB SWAP1 RETURN JUMPDEST PUSH0 DUP1 DUP4 PUSH20 0x0 PUSH4 0x2E4C697F SWAP1 SWAP2 DUP6 PUSH1 0x40 MLOAD DUP4 PUSH4 0xFFFFFFFF AND PUSH1 0xE0 SHL DUP2 MSTORE PUSH1 0x4 ADD PUSH2 0x9B SWAP3 SWAP2 SWAP1 PUSH2 0x1DD JUMP JUMPDEST PUSH1 0x40 DUP1 MLOAD DUP1 DUP4 SUB DUP2 DUP7 GAS DELEGATECALL ISZERO DUP1 ISZERO PUSH2 0xB5 JUMPI RETURNDATASIZE PUSH0 DUP1 RETURNDATACOPY RETURNDATASIZE PUSH0 REVERT JUMPDEST POP POP POP POP PUSH1 0x40 MLOAD RETURNDATASIZE PUSH1 0x1F NOT PUSH1 0x1F DUP3 ADD AND DUP3 ADD DUP1 PUSH1 0x40 MSTORE POP DUP2 ADD SWAP1 PUSH2 0xD9 SWAP2 SWAP1 PUSH2 0x242 JUMP JUMPDEST SWAP2 POP SWAP2 POP SWAP3 POP SWAP3 SWAP1 POP JUMP JUMPDEST PUSH0 DUP1 REVERT JUMPDEST PUSH0 DUP2 SWAP1 POP SWAP2 SWAP1 POP JUMP JUMPDEST PUSH2 0xFA DUP2 PUSH2 0xE8 JUMP JUMPDEST DUP2 EQ PUSH2 0x104 JUMPI PUSH0 DUP1 REVERT JUMPDEST POP JUMP JUMPDEST PUSH0 DUP2 CALLDATALOAD SWAP1 POP PUSH2 0x115 DUP2 PUSH2 0xF1 JUMP JUMPDEST SWAP3 SWAP2 POP POP JUMP JUMPDEST PUSH0 DUP1 PUSH1 0x40 DUP4 DUP6 SUB SLT ISZERO PUSH2 0x131 JUMPI PUSH2 0x130 PUSH2 0xE4 JUMP JUMPDEST JUMPDEST PUSH0 PUSH2 0x13E DUP6 DUP3 DUP7 ADD PUSH2 0x107 JUMP JUMPDEST SWAP3 POP POP PUSH1 0x20 PUSH2 0x14F DUP6 DUP3 DUP7 ADD PUSH2 0x107 JUMP JUMPDEST SWAP2 POP POP SWAP3 POP SWAP3 SWAP1 POP JUMP JUMPDEST PUSH2 0x162 DUP2 PUSH2 0xE8 JUMP JUMPDEST DUP3 MSTORE POP POP JUMP JUMPDEST PUSH0 PUSH20 0xFFFFFFFFFFFFFFFFFFFFFFFFFFFFFFFFFFFFFFFF DUP3 AND SWAP1 POP SWAP2 SWAP1 POP JUMP JUMPDEST PUSH0 PUSH2 0x191 DUP3 PUSH2 0x168 JUMP JUMPDEST SWAP1 POP SWAP2 SWAP1 POP JUMP JUMPDEST PUSH2 0x1A1 DUP2 PUSH2 0x187 JUMP JUMPDEST DUP3 MSTORE POP POP JUMP JUMPDEST PUSH0 PUSH1 0x40 DUP3 ADD SWAP1 POP PUSH2 0x1BA PUSH0 DUP4 ADD DUP6 PUSH2 0x159 JUMP JUMPDEST PUSH2 0x1C7 PUSH1 0x20 DUP4 ADD DUP5 PUSH2 0x198 JUMP JUMPDEST SWAP4 SWAP3 POP POP POP JUMP JUMPDEST PUSH2 0x1D7 DUP2 PUSH2 0xE8 JUMP JUMPDEST DUP3 MSTORE POP POP JUMP JUMPDEST PUSH0 PUSH1 0x40 DUP3 ADD SWAP1 POP PUSH2 0x1F0 PUSH0 DUP4 ADD DUP6 PUSH2 0x1CE JUMP JUMPDEST PUSH2 0x1FD PUSH1 0x20 DUP4 ADD DUP5 PUSH2 0x1CE JUMP JUMPDEST SWAP4 SWAP3 POP POP POP JUMP JUMPDEST PUSH0 DUP2 MLOAD SWAP1 POP PUSH2 0x212 DUP2 PUSH2 0xF1 JUMP JUMPDEST SWAP3 SWAP2 POP POP JUMP JUMPDEST PUSH2 0x221 DUP2 PUSH2 0x187 JUMP JUMPDEST DUP2 EQ PUSH2 0x22B JUMPI PUSH0 DUP1 REVERT JUMPDEST POP JUMP JUMPDEST PUSH0 DUP2 MLOAD SWAP1 POP PUSH2 0x23C DUP2 PUSH2 0x218 JUMP JUMPDEST SWAP3 SWAP2 POP POP JUMP JUMPDEST PUSH0 DUP1 PUSH1 0x40 DUP4 DUP6 SUB SLT ISZERO PUSH2 0x258 JUMPI PUSH2 0x257 PUSH2 0xE4 JUMP JUMPDEST JUMPDEST PUSH0 PUSH2 0x265 DUP6 DUP3 DUP7 ADD PUSH2 0x204 JUMP JUMPDEST SWAP3 POP POP PUSH1 0x20 PUSH2 0x276 DUP6 DUP3 DUP7 ADD PUSH2 0x22E JUMP JUMPDEST SWAP2 POP POP SWAP3 POP SWAP3 SWAP1 POP JUMP INVALID LOG2 PUSH5 0x6970667358 0x22 SLT KECCAK256 BLOCKHASH 0xBA DUP12 DUP7 PUSH13 0x24DD813E2E1E052160BF347288 0x4B DUP4 0xB9 0x4E TSTORE SWAP5 0x26 0x2A ADDRESS PUSH25 0x785DBD4664736F6C634300081A003300000000000000000000 "
				},
				"gasEstimates": {
					"creation": {
						"codeDepositCost": "138800",
						"executionCost": "24446",
						"totalCost": "163246"
					},
					"external": {
						"getPow(uint256,uint256)": "infinite"
					}
				},
				"methodIdentifiers": {
					"getPow(uint256,uint256)": "0d41dd3a"
				}
			},
			"storageLayout": {
				"storage": [
					{
						"astId": 32,
						"contract": "Day-26/code3.sol:LibraryExample",
						"label": "owner",
						"offset": 0,
						"slot": "0",
						"type": "t_address"
					}
				],
				"types": {
					"t_address": {
						"encoding": "inplace",
						"label": "address",
						"numberOfBytes": "20"
					}
				}
			},
			"userdoc": {
				"kind": "user",
				"methods": {},
				"version": 1
			}
		}
	}
}