{
	"data": {
		"bytecode": {
			"linkReferences": {},
			"object": "6080604052348015600f57600080fd5b50609b8061001e6000396000f3fe6080604052348015600f57600080fd5b506004361060285760003560e01c8063f4e5d59914602d575b600080fd5b60336049565b6040518082815260200191505060405180910390f35b60008060029050600060069050600081830190508093505050509056fea265627a7a72315820bcbc3d6d0e58d99b3a8d83165c78ba64fc2deca7e66005f925ba82f2ce0d739964736f6c63430005110032",
			"opcodes": "PUSH1 0x80 PUSH1 0x40 MSTORE CALLVALUE DUP1 ISZERO PUSH1 0xF JUMPI PUSH1 0x0 DUP1 REVERT JUMPDEST POP PUSH1 0x9B DUP1 PUSH2 0x1E PUSH1 0x0 CODECOPY PUSH1 0x0 RETURN INVALID PUSH1 0x80 PUSH1 0x40 MSTORE CALLVALUE DUP1 ISZERO PUSH1 0xF JUMPI PUSH1 0x0 DUP1 REVERT JUMPDEST POP PUSH1 0x4 CALLDATASIZE LT PUSH1 0x28 JUMPI PUSH1 0x0 CALLDATALOAD PUSH1 0xE0 SHR DUP1 PUSH4 0xF4E5D599 EQ PUSH1 0x2D JUMPI JUMPDEST PUSH1 0x0 DUP1 REVERT JUMPDEST PUSH1 0x33 PUSH1 0x49 JUMP JUMPDEST PUSH1 0x40 MLOAD DUP1 DUP3 DUP2 MSTORE PUSH1 0x20 ADD SWAP2 POP POP PUSH1 0x40 MLOAD DUP1 SWAP2 SUB SWAP1 RETURN JUMPDEST PUSH1 0x0 DUP1 PUSH1 0x2 SWAP1 POP PUSH1 0x0 PUSH1 0x6 SWAP1 POP PUSH1 0x0 DUP2 DUP4 ADD SWAP1 POP DUP1 SWAP4 POP POP POP POP SWAP1 JUMP INVALID LOG2 PUSH6 0x627A7A723158 KECCAK256 0xBC 0xBC RETURNDATASIZE PUSH14 0xE58D99B3A8D83165C78BA64FC2D 0xEC 0xA7 0xE6 PUSH1 0x5 0xF9 0x25 0xBA DUP3 CALLCODE 0xCE 0xD PUSH20 0x9964736F6C634300051100320000000000000000 "
		},
		"gasEstimates": {
			"creation": {
				"codeDepositCost": "31000",
				"executionCost": "81",
				"totalCost": "31081"
			},
			"external": {
				"Result()": "236"
			}
		},
		"methodIdentifiers": {
			"Result()": "f4e5d599"
		}
	},
	"abi": [
		{
			"constant": true,
			"inputs": [],
			"name": "Result",
			"outputs": [
				{
					"internalType": "uint256",
					"name": "",
					"type": "uint256"
				}
			],
			"payable": false,
			"stateMutability": "view",
			"type": "function"
		}
	]
}