{
	"Day-14/code1.sol": {
		"SolidityTest": {
			"abi": [
				{
					"inputs": [],
					"name": "get_Inq",
					"outputs": [
						{
							"internalType": "enum SolidityTest.Student_Info",
							"name": "",
							"type": "uint8"
						}
					],
					"stateMutability": "view",
					"type": "function"
				},
				{
					"inputs": [],
					"name": "get_value",
					"outputs": [
						{
							"internalType": "enum SolidityTest.Student_Info",
							"name": "",
							"type": "uint8"
						}
					],
					"stateMutability": "view",
					"type": "function"
				},
				{
					"inputs": [],
					"name": "set_value",
					"outputs": [],
					"stateMutability": "nonpayable",
					"type": "function"
				}
			],
			"devdoc": {
				"kind": "dev",
				"methods": {},
				"version": 1
			},
			"evm": {
				"assembly": "    /* \"Day-14/code1.sol\":106:569  contract SolidityTest{... */\n  mstore(0x40, 0x80)\n  callvalue\n  dup1\n  iszero\n  tag_1\n  jumpi\n  revert(0x00, 0x00)\ntag_1:\n  pop\n  dataSize(sub_0)\n  dup1\n  dataOffset(sub_0)\n  0x00\n  codecopy\n  0x00\n  return\nstop\n\nsub_0: assembly {\n        /* \"Day-14/code1.sol\":106:569  contract SolidityTest{... */\n      mstore(0x40, 0x80)\n      callvalue\n      dup1\n      iszero\n      tag_1\n      jumpi\n      revert(0x00, 0x00)\n    tag_1:\n      pop\n      jumpi(tag_2, lt(calldatasize, 0x04))\n      shr(0xe0, calldataload(0x00))\n      dup1\n      0x2bbfa7a4\n      eq\n      tag_3\n      jumpi\n      dup1\n      0x33cf5080\n      eq\n      tag_4\n      jumpi\n      dup1\n      0xf1388f46\n      eq\n      tag_5\n      jumpi\n    tag_2:\n      revert(0x00, 0x00)\n        /* \"Day-14/code1.sol\":400:477  function get_Inq() public view returns(Student_Info){... */\n    tag_3:\n      tag_6\n      tag_7\n      jump\t// in\n    tag_6:\n      mload(0x40)\n      tag_8\n      swap2\n      swap1\n      tag_9\n      jump\t// in\n    tag_8:\n      mload(0x40)\n      dup1\n      swap2\n      sub\n      swap1\n      return\n        /* \"Day-14/code1.sol\":482:566  function get_value() public view returns(Student_Info){... */\n    tag_4:\n      tag_10\n      tag_11\n      jump\t// in\n    tag_10:\n      mload(0x40)\n      tag_12\n      swap2\n      swap1\n      tag_9\n      jump\t// in\n    tag_12:\n      mload(0x40)\n      dup1\n      swap2\n      sub\n      swap1\n      return\n        /* \"Day-14/code1.sol\":327:395  function set_value() public {... */\n    tag_5:\n      tag_13\n      tag_14\n      jump\t// in\n    tag_13:\n      stop\n        /* \"Day-14/code1.sol\":400:477  function get_Inq() public view returns(Student_Info){... */\n    tag_7:\n        /* \"Day-14/code1.sol\":439:451  Student_Info */\n      0x00\n        /* \"Day-14/code1.sol\":464:472  Unq_Info */\n      0x00\n      0x01\n      swap1\n      sload\n      swap1\n      0x0100\n      exp\n      swap1\n      div\n      0xff\n      and\n        /* \"Day-14/code1.sol\":457:472  return Unq_Info */\n      swap1\n      pop\n        /* \"Day-14/code1.sol\":400:477  function get_Inq() public view returns(Student_Info){... */\n      swap1\n      jump\t// out\n        /* \"Day-14/code1.sol\":482:566  function get_value() public view returns(Student_Info){... */\n    tag_11:\n        /* \"Day-14/code1.sol\":523:535  Student_Info */\n      0x00\n        /* \"Day-14/code1.sol\":304:321  Student_Info.Name */\n      0x00\n        /* \"Day-14/code1.sol\":541:561  return default_value */\n      swap1\n      pop\n        /* \"Day-14/code1.sol\":482:566  function get_value() public view returns(Student_Info){... */\n      swap1\n      jump\t// out\n        /* \"Day-14/code1.sol\":327:395  function set_value() public {... */\n    tag_14:\n        /* \"Day-14/code1.sol\":371:390  Student_Info.Course */\n      0x01\n        /* \"Day-14/code1.sol\":360:368  Unq_Info */\n      0x00\n      0x01\n        /* \"Day-14/code1.sol\":360:390  Unq_Info = Student_Info.Course */\n      0x0100\n      exp\n      dup2\n      sload\n      dup2\n      0xff\n      mul\n      not\n      and\n      swap1\n      dup4\n      0x02\n      dup2\n      gt\n      iszero\n      tag_18\n      jumpi\n      tag_19\n      tag_20\n      jump\t// in\n    tag_19:\n    tag_18:\n      mul\n      or\n      swap1\n      sstore\n      pop\n        /* \"Day-14/code1.sol\":327:395  function set_value() public {... */\n      jump\t// out\n        /* \"#utility.yul\":7:187   */\n    tag_20:\n        /* \"#utility.yul\":55:132   */\n      0x4e487b7100000000000000000000000000000000000000000000000000000000\n        /* \"#utility.yul\":52:53   */\n      0x00\n        /* \"#utility.yul\":45:133   */\n      mstore\n        /* \"#utility.yul\":152:156   */\n      0x21\n        /* \"#utility.yul\":149:150   */\n      0x04\n        /* \"#utility.yul\":142:157   */\n      mstore\n        /* \"#utility.yul\":176:180   */\n      0x24\n        /* \"#utility.yul\":173:174   */\n      0x00\n        /* \"#utility.yul\":166:181   */\n      revert\n        /* \"#utility.yul\":193:312   */\n    tag_21:\n        /* \"#utility.yul\":280:281   */\n      0x03\n        /* \"#utility.yul\":273:278   */\n      dup2\n        /* \"#utility.yul\":270:282   */\n      lt\n        /* \"#utility.yul\":260:306   */\n      tag_28\n      jumpi\n        /* \"#utility.yul\":286:304   */\n      tag_29\n      tag_20\n      jump\t// in\n    tag_29:\n        /* \"#utility.yul\":260:306   */\n    tag_28:\n        /* \"#utility.yul\":193:312   */\n      pop\n      jump\t// out\n        /* \"#utility.yul\":318:457   */\n    tag_22:\n        /* \"#utility.yul\":369:376   */\n      0x00\n        /* \"#utility.yul\":398:403   */\n      dup2\n        /* \"#utility.yul\":387:403   */\n      swap1\n      pop\n        /* \"#utility.yul\":404:451   */\n      tag_31\n        /* \"#utility.yul\":445:450   */\n      dup3\n        /* \"#utility.yul\":404:451   */\n      tag_21\n      jump\t// in\n    tag_31:\n        /* \"#utility.yul\":318:457   */\n      swap2\n      swap1\n      pop\n      jump\t// out\n        /* \"#utility.yul\":463:602   */\n    tag_23:\n        /* \"#utility.yul\":525:534   */\n      0x00\n        /* \"#utility.yul\":558:596   */\n      tag_33\n        /* \"#utility.yul\":590:595   */\n      dup3\n        /* \"#utility.yul\":558:596   */\n      tag_22\n      jump\t// in\n    tag_33:\n        /* \"#utility.yul\":545:596   */\n      swap1\n      pop\n        /* \"#utility.yul\":463:602   */\n      swap2\n      swap1\n      pop\n      jump\t// out\n        /* \"#utility.yul\":608:763   */\n    tag_24:\n        /* \"#utility.yul\":707:756   */\n      tag_35\n        /* \"#utility.yul\":750:755   */\n      dup2\n        /* \"#utility.yul\":707:756   */\n      tag_23\n      jump\t// in\n    tag_35:\n        /* \"#utility.yul\":702:705   */\n      dup3\n        /* \"#utility.yul\":695:757   */\n      mstore\n        /* \"#utility.yul\":608:763   */\n      pop\n      pop\n      jump\t// out\n        /* \"#utility.yul\":769:1015   */\n    tag_9:\n        /* \"#utility.yul\":874:878   */\n      0x00\n        /* \"#utility.yul\":912:914   */\n      0x20\n        /* \"#utility.yul\":901:910   */\n      dup3\n        /* \"#utility.yul\":897:915   */\n      add\n        /* \"#utility.yul\":889:915   */\n      swap1\n      pop\n        /* \"#utility.yul\":925:1008   */\n      tag_37\n        /* \"#utility.yul\":1005:1006   */\n      0x00\n        /* \"#utility.yul\":994:1003   */\n      dup4\n        /* \"#utility.yul\":990:1007   */\n      add\n        /* \"#utility.yul\":981:987   */\n      dup5\n        /* \"#utility.yul\":925:1008   */\n      tag_24\n      jump\t// in\n    tag_37:\n        /* \"#utility.yul\":769:1015   */\n      swap3\n      swap2\n      pop\n      pop\n      jump\t// out\n\n    auxdata: 0xa26469706673582212204b1c342974942e79b30b4c1b2cf710912a8f2236cec72d005b05af1fb8fd270464736f6c634300081c0033\n}\n",
				"bytecode": {
					"linkReferences": {},
					"object": "6080604052348015600e575f5ffd5b506101938061001c5f395ff3fe608060405234801561000f575f5ffd5b506004361061003f575f3560e01c80632bbfa7a41461004357806333cf508014610061578063f1388f461461007f575b5f5ffd5b61004b610089565b6040516100589190610144565b60405180910390f35b61006961009e565b6040516100769190610144565b60405180910390f35b6100876100a5565b005b5f5f60019054906101000a900460ff16905090565b5f5f905090565b60015f60016101000a81548160ff021916908360028111156100ca576100c96100d1565b5b0217905550565b7f4e487b71000000000000000000000000000000000000000000000000000000005f52602160045260245ffd5b6003811061010f5761010e6100d1565b5b50565b5f81905061011f826100fe565b919050565b5f61012e82610112565b9050919050565b61013e81610124565b82525050565b5f6020820190506101575f830184610135565b9291505056fea26469706673582212204b1c342974942e79b30b4c1b2cf710912a8f2236cec72d005b05af1fb8fd270464736f6c634300081c0033",
					"opcodes": "PUSH1 0x80 PUSH1 0x40 MSTORE CALLVALUE DUP1 ISZERO PUSH1 0xE JUMPI PUSH0 PUSH0 REVERT JUMPDEST POP PUSH2 0x193 DUP1 PUSH2 0x1C PUSH0 CODECOPY PUSH0 RETURN INVALID PUSH1 0x80 PUSH1 0x40 MSTORE CALLVALUE DUP1 ISZERO PUSH2 0xF JUMPI PUSH0 PUSH0 REVERT JUMPDEST POP PUSH1 0x4 CALLDATASIZE LT PUSH2 0x3F JUMPI PUSH0 CALLDATALOAD PUSH1 0xE0 SHR DUP1 PUSH4 0x2BBFA7A4 EQ PUSH2 0x43 JUMPI DUP1 PUSH4 0x33CF5080 EQ PUSH2 0x61 JUMPI DUP1 PUSH4 0xF1388F46 EQ PUSH2 0x7F JUMPI JUMPDEST PUSH0 PUSH0 REVERT JUMPDEST PUSH2 0x4B PUSH2 0x89 JUMP JUMPDEST PUSH1 0x40 MLOAD PUSH2 0x58 SWAP2 SWAP1 PUSH2 0x144 JUMP JUMPDEST PUSH1 0x40 MLOAD DUP1 SWAP2 SUB SWAP1 RETURN JUMPDEST PUSH2 0x69 PUSH2 0x9E JUMP JUMPDEST PUSH1 0x40 MLOAD PUSH2 0x76 SWAP2 SWAP1 PUSH2 0x144 JUMP JUMPDEST PUSH1 0x40 MLOAD DUP1 SWAP2 SUB SWAP1 RETURN JUMPDEST PUSH2 0x87 PUSH2 0xA5 JUMP JUMPDEST STOP JUMPDEST PUSH0 PUSH0 PUSH1 0x1 SWAP1 SLOAD SWAP1 PUSH2 0x100 EXP SWAP1 DIV PUSH1 0xFF AND SWAP1 POP SWAP1 JUMP JUMPDEST PUSH0 PUSH0 SWAP1 POP SWAP1 JUMP JUMPDEST PUSH1 0x1 PUSH0 PUSH1 0x1 PUSH2 0x100 EXP DUP2 SLOAD DUP2 PUSH1 0xFF MUL NOT AND SWAP1 DUP4 PUSH1 0x2 DUP2 GT ISZERO PUSH2 0xCA JUMPI PUSH2 0xC9 PUSH2 0xD1 JUMP JUMPDEST JUMPDEST MUL OR SWAP1 SSTORE POP JUMP JUMPDEST PUSH32 0x4E487B7100000000000000000000000000000000000000000000000000000000 PUSH0 MSTORE PUSH1 0x21 PUSH1 0x4 MSTORE PUSH1 0x24 PUSH0 REVERT JUMPDEST PUSH1 0x3 DUP2 LT PUSH2 0x10F JUMPI PUSH2 0x10E PUSH2 0xD1 JUMP JUMPDEST JUMPDEST POP JUMP JUMPDEST PUSH0 DUP2 SWAP1 POP PUSH2 0x11F DUP3 PUSH2 0xFE JUMP JUMPDEST SWAP2 SWAP1 POP JUMP JUMPDEST PUSH0 PUSH2 0x12E DUP3 PUSH2 0x112 JUMP JUMPDEST SWAP1 POP SWAP2 SWAP1 POP JUMP JUMPDEST PUSH2 0x13E DUP2 PUSH2 0x124 JUMP JUMPDEST DUP3 MSTORE POP POP JUMP JUMPDEST PUSH0 PUSH1 0x20 DUP3 ADD SWAP1 POP PUSH2 0x157 PUSH0 DUP4 ADD DUP5 PUSH2 0x135 JUMP JUMPDEST SWAP3 SWAP2 POP POP JUMP INVALID LOG2 PUSH5 0x6970667358 0x22 SLT KECCAK256 0x4B SHR CALLVALUE 0x29 PUSH21 0x942E79B30B4C1B2CF710912A8F2236CEC72D005B05 0xAF 0x1F 0xB8 REVERT 0x27 DIV PUSH5 0x736F6C6343 STOP ADDMOD SHR STOP CALLER "
				},
				"gasEstimates": {
					"creation": {
						"codeDepositCost": "80600",
						"executionCost": "127",
						"totalCost": "80727"
					},
					"external": {
						"get_Inq()": "2589",
						"get_value()": "425",
						"set_value()": "24501"
					}
				},
				"methodIdentifiers": {
					"get_Inq()": "2bbfa7a4",
					"get_value()": "33cf5080",
					"set_value()": "f1388f46"
				}
			},
			"storageLayout": {
				"storage": [
					{
						"astId": 8,
						"contract": "Day-14/code1.sol:SolidityTest",
						"label": "Info",
						"offset": 0,
						"slot": "0",
						"type": "t_enum(Student_Info)5"
					},
					{
						"astId": 11,
						"contract": "Day-14/code1.sol:SolidityTest",
						"label": "Unq_Info",
						"offset": 1,
						"slot": "0",
						"type": "t_enum(Student_Info)5"
					}
				],
				"types": {
					"t_enum(Student_Info)5": {
						"encoding": "inplace",
						"label": "enum SolidityTest.Student_Info",
						"numberOfBytes": "1"
					}
				}
			},
			"userdoc": {
				"kind": "user",
				"methods": {},
				"version": 1
			}
		}
	}
}