{
	"Day-14/code2.sol": {
		"SolidityTest": {
			"abi": [
				{
					"inputs": [],
					"name": "get_Book1",
					"outputs": [
						{
							"internalType": "string",
							"name": "",
							"type": "string"
						},
						{
							"internalType": "string",
							"name": "",
							"type": "string"
						},
						{
							"internalType": "uint256",
							"name": "",
							"type": "uint256"
						},
						{
							"internalType": "bool",
							"name": "",
							"type": "bool"
						}
					],
					"stateMutability": "view",
					"type": "function"
				},
				{
					"inputs": [],
					"name": "get_Book2",
					"outputs": [
						{
							"internalType": "string",
							"name": "",
							"type": "string"
						},
						{
							"internalType": "string",
							"name": "",
							"type": "string"
						},
						{
							"internalType": "uint256",
							"name": "",
							"type": "uint256"
						},
						{
							"internalType": "bool",
							"name": "",
							"type": "bool"
						}
					],
					"stateMutability": "view",
					"type": "function"
				},
				{
					"inputs": [],
					"name": "set_Book1",
					"outputs": [],
					"stateMutability": "nonpayable",
					"type": "function"
				}
			],
			"devdoc": {
				"kind": "dev",
				"methods": {},
				"version": 1
			},
			"evm": {
				"assembly": "    /* \"Day-14/code2.sol\":106:782  contract SolidityTest{... */\n  mstore(0x40, 0x80)\n    /* \"Day-14/code2.sol\":308:343  Book(\"DApps\", \"Anish\", 8373, false) */\n  mload(0x40)\n  dup1\n  0x80\n  add\n  0x40\n  mstore\n  dup1\n  mload(0x40)\n  dup1\n  0x40\n  add\n  0x40\n  mstore\n  dup1\n  0x05\n  dup2\n  mstore\n  0x20\n  add\n  0x4441707073000000000000000000000000000000000000000000000000000000\n  dup2\n  mstore\n  pop\n  dup2\n  mstore\n  0x20\n  add\n  mload(0x40)\n  dup1\n  0x40\n  add\n  0x40\n  mstore\n  dup1\n  0x05\n  dup2\n  mstore\n  0x20\n  add\n  0x416e697368000000000000000000000000000000000000000000000000000000\n  dup2\n  mstore\n  pop\n  dup2\n  mstore\n  0x20\n  add\n    /* \"Day-14/code2.sol\":331:335  8373 */\n  0x20b5\n    /* \"Day-14/code2.sol\":308:343  Book(\"DApps\", \"Anish\", 8373, false) */\n  dup2\n  mstore\n  0x20\n  add\n    /* \"Day-14/code2.sol\":337:342  false */\n  0x00\n    /* \"Day-14/code2.sol\":308:343  Book(\"DApps\", \"Anish\", 8373, false) */\n  iszero\n  iszero\n  dup2\n  mstore\n  pop\n    /* \"Day-14/code2.sol\":295:343  Book book2 = Book(\"DApps\", \"Anish\", 8373, false) */\n  0x04\n  0x00\n  dup3\n  add\n  mload\n  dup2\n  0x00\n  add\n  swap1\n  dup2\n  tag_1\n  swap2\n  swap1\n  tag_2\n  jump\t// in\ntag_1:\n  pop\n  0x20\n  dup3\n  add\n  mload\n  dup2\n  0x01\n  add\n  swap1\n  dup2\n  tag_3\n  swap2\n  swap1\n  tag_2\n  jump\t// in\ntag_3:\n  pop\n  0x40\n  dup3\n  add\n  mload\n  dup2\n  0x02\n  add\n  sstore\n  0x60\n  dup3\n  add\n  mload\n  dup2\n  0x03\n  add\n  exp(0x0100, 0x00)\n  dup2\n  sload\n  dup2\n  0xff\n  mul\n  not\n  and\n  swap1\n  dup4\n  iszero\n  iszero\n  mul\n  or\n  swap1\n  sstore\n  pop\n  pop\n  pop\n    /* \"Day-14/code2.sol\":106:782  contract SolidityTest{... */\n  callvalue\n  dup1\n  iszero\n  tag_4\n  jumpi\n  revert(0x00, 0x00)\ntag_4:\n  pop\n  jump(tag_5)\n    /* \"#utility.yul\":7:106   */\ntag_6:\n    /* \"#utility.yul\":59:65   */\n  0x00\n    /* \"#utility.yul\":93:98   */\n  dup2\n    /* \"#utility.yul\":87:99   */\n  mload\n    /* \"#utility.yul\":77:99   */\n  swap1\n  pop\n    /* \"#utility.yul\":7:106   */\n  swap2\n  swap1\n  pop\n  jump\t// out\n    /* \"#utility.yul\":112:292   */\ntag_7:\n    /* \"#utility.yul\":160:237   */\n  0x4e487b7100000000000000000000000000000000000000000000000000000000\n    /* \"#utility.yul\":157:158   */\n  0x00\n    /* \"#utility.yul\":150:238   */\n  mstore\n    /* \"#utility.yul\":257:261   */\n  0x41\n    /* \"#utility.yul\":254:255   */\n  0x04\n    /* \"#utility.yul\":247:262   */\n  mstore\n    /* \"#utility.yul\":281:285   */\n  0x24\n    /* \"#utility.yul\":278:279   */\n  0x00\n    /* \"#utility.yul\":271:286   */\n  revert\n    /* \"#utility.yul\":298:478   */\ntag_8:\n    /* \"#utility.yul\":346:423   */\n  0x4e487b7100000000000000000000000000000000000000000000000000000000\n    /* \"#utility.yul\":343:344   */\n  0x00\n    /* \"#utility.yul\":336:424   */\n  mstore\n    /* \"#utility.yul\":443:447   */\n  0x22\n    /* \"#utility.yul\":440:441   */\n  0x04\n    /* \"#utility.yul\":433:448   */\n  mstore\n    /* \"#utility.yul\":467:471   */\n  0x24\n    /* \"#utility.yul\":464:465   */\n  0x00\n    /* \"#utility.yul\":457:472   */\n  revert\n    /* \"#utility.yul\":484:804   */\ntag_9:\n    /* \"#utility.yul\":528:534   */\n  0x00\n    /* \"#utility.yul\":565:566   */\n  0x02\n    /* \"#utility.yul\":559:563   */\n  dup3\n    /* \"#utility.yul\":555:567   */\n  div\n    /* \"#utility.yul\":545:567   */\n  swap1\n  pop\n    /* \"#utility.yul\":612:613   */\n  0x01\n    /* \"#utility.yul\":606:610   */\n  dup3\n    /* \"#utility.yul\":602:614   */\n  and\n    /* \"#utility.yul\":633:651   */\n  dup1\n    /* \"#utility.yul\":623:704   */\n  tag_31\n  jumpi\n    /* \"#utility.yul\":689:693   */\n  0x7f\n    /* \"#utility.yul\":681:687   */\n  dup3\n    /* \"#utility.yul\":677:694   */\n  and\n    /* \"#utility.yul\":667:694   */\n  swap2\n  pop\n    /* \"#utility.yul\":623:704   */\ntag_31:\n    /* \"#utility.yul\":751:753   */\n  0x20\n    /* \"#utility.yul\":743:749   */\n  dup3\n    /* \"#utility.yul\":740:754   */\n  lt\n    /* \"#utility.yul\":720:738   */\n  dup2\n    /* \"#utility.yul\":717:755   */\n  sub\n    /* \"#utility.yul\":714:798   */\n  tag_32\n  jumpi\n    /* \"#utility.yul\":770:788   */\n  tag_33\n  tag_8\n  jump\t// in\ntag_33:\n    /* \"#utility.yul\":714:798   */\ntag_32:\n    /* \"#utility.yul\":535:804   */\n  pop\n    /* \"#utility.yul\":484:804   */\n  swap2\n  swap1\n  pop\n  jump\t// out\n    /* \"#utility.yul\":810:951   */\ntag_10:\n    /* \"#utility.yul\":859:863   */\n  0x00\n    /* \"#utility.yul\":882:885   */\n  dup2\n    /* \"#utility.yul\":874:885   */\n  swap1\n  pop\n    /* \"#utility.yul\":905:908   */\n  dup2\n    /* \"#utility.yul\":902:903   */\n  0x00\n    /* \"#utility.yul\":895:909   */\n  mstore\n    /* \"#utility.yul\":939:943   */\n  0x20\n    /* \"#utility.yul\":936:937   */\n  0x00\n    /* \"#utility.yul\":926:944   */\n  keccak256\n    /* \"#utility.yul\":918:944   */\n  swap1\n  pop\n    /* \"#utility.yul\":810:951   */\n  swap2\n  swap1\n  pop\n  jump\t// out\n    /* \"#utility.yul\":957:1050   */\ntag_11:\n    /* \"#utility.yul\":994:1000   */\n  0x00\n    /* \"#utility.yul\":1041:1043   */\n  0x20\n    /* \"#utility.yul\":1036:1038   */\n  0x1f\n    /* \"#utility.yul\":1029:1034   */\n  dup4\n    /* \"#utility.yul\":1025:1039   */\n  add\n    /* \"#utility.yul\":1021:1044   */\n  div\n    /* \"#utility.yul\":1011:1044   */\n  swap1\n  pop\n    /* \"#utility.yul\":957:1050   */\n  swap2\n  swap1\n  pop\n  jump\t// out\n    /* \"#utility.yul\":1056:1163   */\ntag_12:\n    /* \"#utility.yul\":1100:1108   */\n  0x00\n    /* \"#utility.yul\":1150:1155   */\n  dup3\n    /* \"#utility.yul\":1144:1148   */\n  dup3\n    /* \"#utility.yul\":1140:1156   */\n  shl\n    /* \"#utility.yul\":1119:1156   */\n  swap1\n  pop\n    /* \"#utility.yul\":1056:1163   */\n  swap3\n  swap2\n  pop\n  pop\n  jump\t// out\n    /* \"#utility.yul\":1169:1562   */\ntag_13:\n    /* \"#utility.yul\":1238:1244   */\n  0x00\n    /* \"#utility.yul\":1288:1289   */\n  0x08\n    /* \"#utility.yul\":1276:1286   */\n  dup4\n    /* \"#utility.yul\":1272:1290   */\n  mul\n    /* \"#utility.yul\":1311:1408   */\n  tag_38\n    /* \"#utility.yul\":1341:1407   */\n  0xffffffffffffffffffffffffffffffffffffffffffffffffffffffffffffffff\n    /* \"#utility.yul\":1330:1339   */\n  dup3\n    /* \"#utility.yul\":1311:1408   */\n  tag_12\n  jump\t// in\ntag_38:\n    /* \"#utility.yul\":1429:1468   */\n  tag_39\n    /* \"#utility.yul\":1459:1467   */\n  dup7\n    /* \"#utility.yul\":1448:1457   */\n  dup4\n    /* \"#utility.yul\":1429:1468   */\n  tag_12\n  jump\t// in\ntag_39:\n    /* \"#utility.yul\":1417:1468   */\n  swap6\n  pop\n    /* \"#utility.yul\":1501:1505   */\n  dup1\n    /* \"#utility.yul\":1497:1506   */\n  not\n    /* \"#utility.yul\":1490:1495   */\n  dup5\n    /* \"#utility.yul\":1486:1507   */\n  and\n    /* \"#utility.yul\":1477:1507   */\n  swap4\n  pop\n    /* \"#utility.yul\":1550:1554   */\n  dup1\n    /* \"#utility.yul\":1540:1548   */\n  dup7\n    /* \"#utility.yul\":1536:1555   */\n  and\n    /* \"#utility.yul\":1529:1534   */\n  dup5\n    /* \"#utility.yul\":1526:1556   */\n  or\n    /* \"#utility.yul\":1516:1556   */\n  swap3\n  pop\n    /* \"#utility.yul\":1245:1562   */\n  pop\n  pop\n    /* \"#utility.yul\":1169:1562   */\n  swap4\n  swap3\n  pop\n  pop\n  pop\n  jump\t// out\n    /* \"#utility.yul\":1568:1645   */\ntag_14:\n    /* \"#utility.yul\":1605:1612   */\n  0x00\n    /* \"#utility.yul\":1634:1639   */\n  dup2\n    /* \"#utility.yul\":1623:1639   */\n  swap1\n  pop\n    /* \"#utility.yul\":1568:1645   */\n  swap2\n  swap1\n  pop\n  jump\t// out\n    /* \"#utility.yul\":1651:1711   */\ntag_15:\n    /* \"#utility.yul\":1679:1682   */\n  0x00\n    /* \"#utility.yul\":1700:1705   */\n  dup2\n    /* \"#utility.yul\":1693:1705   */\n  swap1\n  pop\n    /* \"#utility.yul\":1651:1711   */\n  swap2\n  swap1\n  pop\n  jump\t// out\n    /* \"#utility.yul\":1717:1859   */\ntag_16:\n    /* \"#utility.yul\":1767:1776   */\n  0x00\n    /* \"#utility.yul\":1800:1853   */\n  tag_43\n    /* \"#utility.yul\":1818:1852   */\n  tag_44\n    /* \"#utility.yul\":1827:1851   */\n  tag_45\n    /* \"#utility.yul\":1845:1850   */\n  dup5\n    /* \"#utility.yul\":1827:1851   */\n  tag_14\n  jump\t// in\ntag_45:\n    /* \"#utility.yul\":1818:1852   */\n  tag_15\n  jump\t// in\ntag_44:\n    /* \"#utility.yul\":1800:1853   */\n  tag_14\n  jump\t// in\ntag_43:\n    /* \"#utility.yul\":1787:1853   */\n  swap1\n  pop\n    /* \"#utility.yul\":1717:1859   */\n  swap2\n  swap1\n  pop\n  jump\t// out\n    /* \"#utility.yul\":1865:1940   */\ntag_17:\n    /* \"#utility.yul\":1908:1911   */\n  0x00\n    /* \"#utility.yul\":1929:1934   */\n  dup2\n    /* \"#utility.yul\":1922:1934   */\n  swap1\n  pop\n    /* \"#utility.yul\":1865:1940   */\n  swap2\n  swap1\n  pop\n  jump\t// out\n    /* \"#utility.yul\":1946:2215   */\ntag_18:\n    /* \"#utility.yul\":2056:2095   */\n  tag_48\n    /* \"#utility.yul\":2087:2094   */\n  dup4\n    /* \"#utility.yul\":2056:2095   */\n  tag_16\n  jump\t// in\ntag_48:\n    /* \"#utility.yul\":2117:2208   */\n  tag_49\n    /* \"#utility.yul\":2166:2207   */\n  tag_50\n    /* \"#utility.yul\":2190:2206   */\n  dup3\n    /* \"#utility.yul\":2166:2207   */\n  tag_17\n  jump\t// in\ntag_50:\n    /* \"#utility.yul\":2158:2164   */\n  dup5\n    /* \"#utility.yul\":2151:2155   */\n  dup5\n    /* \"#utility.yul\":2145:2156   */\n  sload\n    /* \"#utility.yul\":2117:2208   */\n  tag_13\n  jump\t// in\ntag_49:\n    /* \"#utility.yul\":2111:2115   */\n  dup3\n    /* \"#utility.yul\":2104:2209   */\n  sstore\n    /* \"#utility.yul\":2022:2215   */\n  pop\n    /* \"#utility.yul\":1946:2215   */\n  pop\n  pop\n  pop\n  jump\t// out\n    /* \"#utility.yul\":2221:2294   */\ntag_19:\n    /* \"#utility.yul\":2266:2269   */\n  0x00\n    /* \"#utility.yul\":2287:2288   */\n  0x00\n    /* \"#utility.yul\":2280:2288   */\n  swap1\n  pop\n    /* \"#utility.yul\":2221:2294   */\n  swap1\n  jump\t// out\n    /* \"#utility.yul\":2300:2489   */\ntag_20:\n    /* \"#utility.yul\":2377:2409   */\n  tag_53\n  tag_19\n  jump\t// in\ntag_53:\n    /* \"#utility.yul\":2418:2483   */\n  tag_54\n    /* \"#utility.yul\":2476:2482   */\n  dup2\n    /* \"#utility.yul\":2468:2474   */\n  dup5\n    /* \"#utility.yul\":2462:2466   */\n  dup5\n    /* \"#utility.yul\":2418:2483   */\n  tag_18\n  jump\t// in\ntag_54:\n    /* \"#utility.yul\":2353:2489   */\n  pop\n    /* \"#utility.yul\":2300:2489   */\n  pop\n  pop\n  jump\t// out\n    /* \"#utility.yul\":2495:2681   */\ntag_21:\n    /* \"#utility.yul\":2555:2675   */\ntag_56:\n    /* \"#utility.yul\":2572:2575   */\n  dup2\n    /* \"#utility.yul\":2565:2570   */\n  dup2\n    /* \"#utility.yul\":2562:2576   */\n  lt\n    /* \"#utility.yul\":2555:2675   */\n  iszero\n  tag_58\n  jumpi\n    /* \"#utility.yul\":2626:2665   */\n  tag_59\n    /* \"#utility.yul\":2663:2664   */\n  0x00\n    /* \"#utility.yul\":2656:2661   */\n  dup3\n    /* \"#utility.yul\":2626:2665   */\n  tag_20\n  jump\t// in\ntag_59:\n    /* \"#utility.yul\":2599:2600   */\n  0x01\n    /* \"#utility.yul\":2592:2597   */\n  dup2\n    /* \"#utility.yul\":2588:2601   */\n  add\n    /* \"#utility.yul\":2579:2601   */\n  swap1\n  pop\n    /* \"#utility.yul\":2555:2675   */\n  jump(tag_56)\ntag_58:\n    /* \"#utility.yul\":2495:2681   */\n  pop\n  pop\n  jump\t// out\n    /* \"#utility.yul\":2687:3230   */\ntag_22:\n    /* \"#utility.yul\":2788:2790   */\n  0x1f\n    /* \"#utility.yul\":2783:2786   */\n  dup3\n    /* \"#utility.yul\":2780:2791   */\n  gt\n    /* \"#utility.yul\":2777:3223   */\n  iszero\n  tag_61\n  jumpi\n    /* \"#utility.yul\":2822:2860   */\n  tag_62\n    /* \"#utility.yul\":2854:2859   */\n  dup2\n    /* \"#utility.yul\":2822:2860   */\n  tag_10\n  jump\t// in\ntag_62:\n    /* \"#utility.yul\":2906:2935   */\n  tag_63\n    /* \"#utility.yul\":2924:2934   */\n  dup5\n    /* \"#utility.yul\":2906:2935   */\n  tag_11\n  jump\t// in\ntag_63:\n    /* \"#utility.yul\":2896:2904   */\n  dup2\n    /* \"#utility.yul\":2892:2936   */\n  add\n    /* \"#utility.yul\":3089:3091   */\n  0x20\n    /* \"#utility.yul\":3077:3087   */\n  dup6\n    /* \"#utility.yul\":3074:3092   */\n  lt\n    /* \"#utility.yul\":3071:3120   */\n  iszero\n  tag_64\n  jumpi\n    /* \"#utility.yul\":3110:3118   */\n  dup2\n    /* \"#utility.yul\":3095:3118   */\n  swap1\n  pop\n    /* \"#utility.yul\":3071:3120   */\ntag_64:\n    /* \"#utility.yul\":3133:3213   */\n  tag_65\n    /* \"#utility.yul\":3189:3211   */\n  tag_66\n    /* \"#utility.yul\":3207:3210   */\n  dup6\n    /* \"#utility.yul\":3189:3211   */\n  tag_11\n  jump\t// in\ntag_66:\n    /* \"#utility.yul\":3179:3187   */\n  dup4\n    /* \"#utility.yul\":3175:3212   */\n  add\n    /* \"#utility.yul\":3162:3173   */\n  dup3\n    /* \"#utility.yul\":3133:3213   */\n  tag_21\n  jump\t// in\ntag_65:\n    /* \"#utility.yul\":2792:3223   */\n  pop\n  pop\n    /* \"#utility.yul\":2777:3223   */\ntag_61:\n    /* \"#utility.yul\":2687:3230   */\n  pop\n  pop\n  pop\n  jump\t// out\n    /* \"#utility.yul\":3236:3353   */\ntag_23:\n    /* \"#utility.yul\":3290:3298   */\n  0x00\n    /* \"#utility.yul\":3340:3345   */\n  dup3\n    /* \"#utility.yul\":3334:3338   */\n  dup3\n    /* \"#utility.yul\":3330:3346   */\n  shr\n    /* \"#utility.yul\":3309:3346   */\n  swap1\n  pop\n    /* \"#utility.yul\":3236:3353   */\n  swap3\n  swap2\n  pop\n  pop\n  jump\t// out\n    /* \"#utility.yul\":3359:3528   */\ntag_24:\n    /* \"#utility.yul\":3403:3409   */\n  0x00\n    /* \"#utility.yul\":3436:3487   */\n  tag_69\n    /* \"#utility.yul\":3484:3485   */\n  0x00\n    /* \"#utility.yul\":3480:3486   */\n  not\n    /* \"#utility.yul\":3472:3477   */\n  dup5\n    /* \"#utility.yul\":3469:3470   */\n  0x08\n    /* \"#utility.yul\":3465:3478   */\n  mul\n    /* \"#utility.yul\":3436:3487   */\n  tag_23\n  jump\t// in\ntag_69:\n    /* \"#utility.yul\":3432:3488   */\n  not\n    /* \"#utility.yul\":3517:3521   */\n  dup1\n    /* \"#utility.yul\":3511:3515   */\n  dup4\n    /* \"#utility.yul\":3507:3522   */\n  and\n    /* \"#utility.yul\":3497:3522   */\n  swap2\n  pop\n    /* \"#utility.yul\":3410:3528   */\n  pop\n    /* \"#utility.yul\":3359:3528   */\n  swap3\n  swap2\n  pop\n  pop\n  jump\t// out\n    /* \"#utility.yul\":3533:3828   */\ntag_25:\n    /* \"#utility.yul\":3609:3613   */\n  0x00\n    /* \"#utility.yul\":3755:3784   */\n  tag_71\n    /* \"#utility.yul\":3780:3783   */\n  dup4\n    /* \"#utility.yul\":3774:3778   */\n  dup4\n    /* \"#utility.yul\":3755:3784   */\n  tag_24\n  jump\t// in\ntag_71:\n    /* \"#utility.yul\":3747:3784   */\n  swap2\n  pop\n    /* \"#utility.yul\":3817:3820   */\n  dup3\n    /* \"#utility.yul\":3814:3815   */\n  0x02\n    /* \"#utility.yul\":3810:3821   */\n  mul\n    /* \"#utility.yul\":3804:3808   */\n  dup3\n    /* \"#utility.yul\":3801:3822   */\n  or\n    /* \"#utility.yul\":3793:3822   */\n  swap1\n  pop\n    /* \"#utility.yul\":3533:3828   */\n  swap3\n  swap2\n  pop\n  pop\n  jump\t// out\n    /* \"#utility.yul\":3833:5228   */\ntag_2:\n    /* \"#utility.yul\":3950:3987   */\n  tag_73\n    /* \"#utility.yul\":3983:3986   */\n  dup3\n    /* \"#utility.yul\":3950:3987   */\n  tag_6\n  jump\t// in\ntag_73:\n    /* \"#utility.yul\":4052:4070   */\n  0xffffffffffffffff\n    /* \"#utility.yul\":4044:4050   */\n  dup2\n    /* \"#utility.yul\":4041:4071   */\n  gt\n    /* \"#utility.yul\":4038:4094   */\n  iszero\n  tag_74\n  jumpi\n    /* \"#utility.yul\":4074:4092   */\n  tag_75\n  tag_7\n  jump\t// in\ntag_75:\n    /* \"#utility.yul\":4038:4094   */\ntag_74:\n    /* \"#utility.yul\":4118:4156   */\n  tag_76\n    /* \"#utility.yul\":4150:4154   */\n  dup3\n    /* \"#utility.yul\":4144:4155   */\n  sload\n    /* \"#utility.yul\":4118:4156   */\n  tag_9\n  jump\t// in\ntag_76:\n    /* \"#utility.yul\":4203:4270   */\n  tag_77\n    /* \"#utility.yul\":4263:4269   */\n  dup3\n    /* \"#utility.yul\":4255:4261   */\n  dup3\n    /* \"#utility.yul\":4249:4253   */\n  dup6\n    /* \"#utility.yul\":4203:4270   */\n  tag_22\n  jump\t// in\ntag_77:\n    /* \"#utility.yul\":4297:4298   */\n  0x00\n    /* \"#utility.yul\":4321:4325   */\n  0x20\n    /* \"#utility.yul\":4308:4325   */\n  swap1\n  pop\n    /* \"#utility.yul\":4353:4355   */\n  0x1f\n    /* \"#utility.yul\":4345:4351   */\n  dup4\n    /* \"#utility.yul\":4342:4356   */\n  gt\n    /* \"#utility.yul\":4370:4371   */\n  0x01\n    /* \"#utility.yul\":4365:4983   */\n  dup2\n  eq\n  tag_79\n  jumpi\n    /* \"#utility.yul\":5027:5028   */\n  0x00\n    /* \"#utility.yul\":5044:5050   */\n  dup5\n    /* \"#utility.yul\":5041:5118   */\n  iszero\n  tag_80\n  jumpi\n    /* \"#utility.yul\":5093:5102   */\n  dup3\n    /* \"#utility.yul\":5088:5091   */\n  dup8\n    /* \"#utility.yul\":5084:5103   */\n  add\n    /* \"#utility.yul\":5078:5104   */\n  mload\n    /* \"#utility.yul\":5069:5104   */\n  swap1\n  pop\n    /* \"#utility.yul\":5041:5118   */\ntag_80:\n    /* \"#utility.yul\":5144:5211   */\n  tag_81\n    /* \"#utility.yul\":5204:5210   */\n  dup6\n    /* \"#utility.yul\":5197:5202   */\n  dup3\n    /* \"#utility.yul\":5144:5211   */\n  tag_25\n  jump\t// in\ntag_81:\n    /* \"#utility.yul\":5138:5142   */\n  dup7\n    /* \"#utility.yul\":5131:5212   */\n  sstore\n    /* \"#utility.yul\":5000:5222   */\n  pop\n    /* \"#utility.yul\":4335:5222   */\n  jump(tag_78)\n    /* \"#utility.yul\":4365:4983   */\ntag_79:\n    /* \"#utility.yul\":4417:4421   */\n  0x1f\n    /* \"#utility.yul\":4413:4422   */\n  not\n    /* \"#utility.yul\":4405:4411   */\n  dup5\n    /* \"#utility.yul\":4401:4423   */\n  and\n    /* \"#utility.yul\":4451:4488   */\n  tag_82\n    /* \"#utility.yul\":4483:4487   */\n  dup7\n    /* \"#utility.yul\":4451:4488   */\n  tag_10\n  jump\t// in\ntag_82:\n    /* \"#utility.yul\":4510:4511   */\n  0x00\n    /* \"#utility.yul\":4524:4732   */\ntag_83:\n    /* \"#utility.yul\":4538:4545   */\n  dup3\n    /* \"#utility.yul\":4535:4536   */\n  dup2\n    /* \"#utility.yul\":4532:4546   */\n  lt\n    /* \"#utility.yul\":4524:4732   */\n  iszero\n  tag_85\n  jumpi\n    /* \"#utility.yul\":4617:4626   */\n  dup5\n    /* \"#utility.yul\":4612:4615   */\n  dup10\n    /* \"#utility.yul\":4608:4627   */\n  add\n    /* \"#utility.yul\":4602:4628   */\n  mload\n    /* \"#utility.yul\":4594:4600   */\n  dup3\n    /* \"#utility.yul\":4587:4629   */\n  sstore\n    /* \"#utility.yul\":4668:4669   */\n  0x01\n    /* \"#utility.yul\":4660:4666   */\n  dup3\n    /* \"#utility.yul\":4656:4670   */\n  add\n    /* \"#utility.yul\":4646:4670   */\n  swap2\n  pop\n    /* \"#utility.yul\":4715:4717   */\n  0x20\n    /* \"#utility.yul\":4704:4713   */\n  dup6\n    /* \"#utility.yul\":4700:4718   */\n  add\n    /* \"#utility.yul\":4687:4718   */\n  swap5\n  pop\n    /* \"#utility.yul\":4561:4565   */\n  0x20\n    /* \"#utility.yul\":4558:4559   */\n  dup2\n    /* \"#utility.yul\":4554:4566   */\n  add\n    /* \"#utility.yul\":4549:4566   */\n  swap1\n  pop\n    /* \"#utility.yul\":4524:4732   */\n  jump(tag_83)\ntag_85:\n    /* \"#utility.yul\":4760:4766   */\n  dup7\n    /* \"#utility.yul\":4751:4758   */\n  dup4\n    /* \"#utility.yul\":4748:4767   */\n  lt\n    /* \"#utility.yul\":4745:4924   */\n  iszero\n  tag_86\n  jumpi\n    /* \"#utility.yul\":4818:4827   */\n  dup5\n    /* \"#utility.yul\":4813:4816   */\n  dup10\n    /* \"#utility.yul\":4809:4828   */\n  add\n    /* \"#utility.yul\":4803:4829   */\n  mload\n    /* \"#utility.yul\":4861:4909   */\n  tag_87\n    /* \"#utility.yul\":4903:4907   */\n  0x1f\n    /* \"#utility.yul\":4895:4901   */\n  dup10\n    /* \"#utility.yul\":4891:4908   */\n  and\n    /* \"#utility.yul\":4880:4889   */\n  dup3\n    /* \"#utility.yul\":4861:4909   */\n  tag_24\n  jump\t// in\ntag_87:\n    /* \"#utility.yul\":4853:4859   */\n  dup4\n    /* \"#utility.yul\":4846:4910   */\n  sstore\n    /* \"#utility.yul\":4768:4924   */\n  pop\n    /* \"#utility.yul\":4745:4924   */\ntag_86:\n    /* \"#utility.yul\":4970:4971   */\n  0x01\n    /* \"#utility.yul\":4966:4967   */\n  0x02\n    /* \"#utility.yul\":4958:4964   */\n  dup9\n    /* \"#utility.yul\":4954:4968   */\n  mul\n    /* \"#utility.yul\":4950:4972   */\n  add\n    /* \"#utility.yul\":4944:4948   */\n  dup9\n    /* \"#utility.yul\":4937:4973   */\n  sstore\n    /* \"#utility.yul\":4372:4983   */\n  pop\n  pop\n  pop\n    /* \"#utility.yul\":4335:5222   */\ntag_78:\n  pop\n    /* \"#utility.yul\":3925:5228   */\n  pop\n  pop\n  pop\n    /* \"#utility.yul\":3833:5228   */\n  pop\n  pop\n  jump\t// out\n    /* \"Day-14/code2.sol\":106:782  contract SolidityTest{... */\ntag_5:\n  dataSize(sub_0)\n  dup1\n  dataOffset(sub_0)\n  0x00\n  codecopy\n  0x00\n  return\nstop\n\nsub_0: assembly {\n        /* \"Day-14/code2.sol\":106:782  contract SolidityTest{... */\n      mstore(0x40, 0x80)\n      callvalue\n      dup1\n      iszero\n      tag_1\n      jumpi\n      revert(0x00, 0x00)\n    tag_1:\n      pop\n      jumpi(tag_2, lt(calldatasize, 0x04))\n      shr(0xe0, calldataload(0x00))\n      dup1\n      0x2af47108\n      eq\n      tag_3\n      jumpi\n      dup1\n      0xa05da919\n      eq\n      tag_4\n      jumpi\n      dup1\n      0xe136b5e9\n      eq\n      tag_5\n      jumpi\n    tag_2:\n      revert(0x00, 0x00)\n        /* \"Day-14/code2.sol\":620:779  function get_Book2() public view returns(string memory, string memory, uint, bool){... */\n    tag_3:\n      tag_6\n      tag_7\n      jump\t// in\n    tag_6:\n      mload(0x40)\n      tag_8\n      swap5\n      swap4\n      swap3\n      swap2\n      swap1\n      tag_9\n      jump\t// in\n    tag_8:\n      mload(0x40)\n      dup1\n      swap2\n      sub\n      swap1\n      return\n        /* \"Day-14/code2.sol\":453:612  function get_Book1() public view returns(string memory, string memory, uint, bool){... */\n    tag_4:\n      tag_10\n      tag_11\n      jump\t// in\n    tag_10:\n      mload(0x40)\n      tag_12\n      swap5\n      swap4\n      swap3\n      swap2\n      swap1\n      tag_9\n      jump\t// in\n    tag_12:\n      mload(0x40)\n      dup1\n      swap2\n      sub\n      swap1\n      return\n        /* \"Day-14/code2.sol\":352:445  function set_Book1() public{... */\n    tag_5:\n      tag_13\n      tag_14\n      jump\t// in\n    tag_13:\n      stop\n        /* \"Day-14/code2.sol\":620:779  function get_Book2() public view returns(string memory, string memory, uint, bool){... */\n    tag_7:\n        /* \"Day-14/code2.sol\":661:674  string memory */\n      0x60\n        /* \"Day-14/code2.sol\":676:689  string memory */\n      dup1\n        /* \"Day-14/code2.sol\":691:695  uint */\n      0x00\n        /* \"Day-14/code2.sol\":697:701  bool */\n      0x00\n        /* \"Day-14/code2.sol\":720:725  book2 */\n      0x04\n        /* \"Day-14/code2.sol\":720:730  book2.name */\n      0x00\n      add\n        /* \"Day-14/code2.sol\":732:737  book2 */\n      0x04\n        /* \"Day-14/code2.sol\":732:745  book2.writter */\n      0x01\n      add\n        /* \"Day-14/code2.sol\":747:752  book2 */\n      0x04\n        /* \"Day-14/code2.sol\":747:755  book2.id */\n      0x02\n      add\n      sload\n        /* \"Day-14/code2.sol\":757:762  book2 */\n      0x04\n        /* \"Day-14/code2.sol\":757:770  book2.present */\n      0x03\n      add\n      0x00\n      swap1\n      sload\n      swap1\n      0x0100\n      exp\n      swap1\n      div\n      0xff\n      and\n        /* \"Day-14/code2.sol\":713:771  return(book2.name, book2.writter, book2.id, book2.present) */\n      dup4\n      dup1\n      sload\n      tag_16\n      swap1\n      tag_17\n      jump\t// in\n    tag_16:\n      dup1\n      0x1f\n      add\n      0x20\n      dup1\n      swap2\n      div\n      mul\n      0x20\n      add\n      mload(0x40)\n      swap1\n      dup2\n      add\n      0x40\n      mstore\n      dup1\n      swap3\n      swap2\n      swap1\n      dup2\n      dup2\n      mstore\n      0x20\n      add\n      dup3\n      dup1\n      sload\n      tag_18\n      swap1\n      tag_17\n      jump\t// in\n    tag_18:\n      dup1\n      iszero\n      tag_19\n      jumpi\n      dup1\n      0x1f\n      lt\n      tag_20\n      jumpi\n      0x0100\n      dup1\n      dup4\n      sload\n      div\n      mul\n      dup4\n      mstore\n      swap2\n      0x20\n      add\n      swap2\n      jump(tag_19)\n    tag_20:\n      dup3\n      add\n      swap2\n      swap1\n      0x00\n      mstore\n      keccak256(0x00, 0x20)\n      swap1\n    tag_21:\n      dup2\n      sload\n      dup2\n      mstore\n      swap1\n      0x01\n      add\n      swap1\n      0x20\n      add\n      dup1\n      dup4\n      gt\n      tag_21\n      jumpi\n      dup3\n      swap1\n      sub\n      0x1f\n      and\n      dup3\n      add\n      swap2\n    tag_19:\n      pop\n      pop\n      pop\n      pop\n      pop\n      swap4\n      pop\n      dup3\n      dup1\n      sload\n      tag_22\n      swap1\n      tag_17\n      jump\t// in\n    tag_22:\n      dup1\n      0x1f\n      add\n      0x20\n      dup1\n      swap2\n      div\n      mul\n      0x20\n      add\n      mload(0x40)\n      swap1\n      dup2\n      add\n      0x40\n      mstore\n      dup1\n      swap3\n      swap2\n      swap1\n      dup2\n      dup2\n      mstore\n      0x20\n      add\n      dup3\n      dup1\n      sload\n      tag_23\n      swap1\n      tag_17\n      jump\t// in\n    tag_23:\n      dup1\n      iszero\n      tag_24\n      jumpi\n      dup1\n      0x1f\n      lt\n      tag_25\n      jumpi\n      0x0100\n      dup1\n      dup4\n      sload\n      div\n      mul\n      dup4\n      mstore\n      swap2\n      0x20\n      add\n      swap2\n      jump(tag_24)\n    tag_25:\n      dup3\n      add\n      swap2\n      swap1\n      0x00\n      mstore\n      keccak256(0x00, 0x20)\n      swap1\n    tag_26:\n      dup2\n      sload\n      dup2\n      mstore\n      swap1\n      0x01\n      add\n      swap1\n      0x20\n      add\n      dup1\n      dup4\n      gt\n      tag_26\n      jumpi\n      dup3\n      swap1\n      sub\n      0x1f\n      and\n      dup3\n      add\n      swap2\n    tag_24:\n      pop\n      pop\n      pop\n      pop\n      pop\n      swap3\n      pop\n      swap4\n      pop\n      swap4\n      pop\n      swap4\n      pop\n      swap4\n      pop\n        /* \"Day-14/code2.sol\":620:779  function get_Book2() public view returns(string memory, string memory, uint, bool){... */\n      swap1\n      swap2\n      swap3\n      swap4\n      jump\t// out\n        /* \"Day-14/code2.sol\":453:612  function get_Book1() public view returns(string memory, string memory, uint, bool){... */\n    tag_11:\n        /* \"Day-14/code2.sol\":494:507  string memory */\n      0x60\n        /* \"Day-14/code2.sol\":509:522  string memory */\n      dup1\n        /* \"Day-14/code2.sol\":524:528  uint */\n      0x00\n        /* \"Day-14/code2.sol\":530:534  bool */\n      0x00\n        /* \"Day-14/code2.sol\":553:558  book1 */\n      0x00\n        /* \"Day-14/code2.sol\":553:563  book1.name */\n      0x00\n      add\n        /* \"Day-14/code2.sol\":565:570  book1 */\n      0x00\n        /* \"Day-14/code2.sol\":565:578  book1.writter */\n      0x01\n      add\n        /* \"Day-14/code2.sol\":580:585  book1 */\n      0x00\n        /* \"Day-14/code2.sol\":580:588  book1.id */\n      0x02\n      add\n      sload\n        /* \"Day-14/code2.sol\":590:595  book1 */\n      0x00\n        /* \"Day-14/code2.sol\":590:603  book1.present */\n      0x03\n      add\n      0x00\n      swap1\n      sload\n      swap1\n      0x0100\n      exp\n      swap1\n      div\n      0xff\n      and\n        /* \"Day-14/code2.sol\":546:604  return(book1.name, book1.writter, book1.id, book1.present) */\n      dup4\n      dup1\n      sload\n      tag_28\n      swap1\n      tag_17\n      jump\t// in\n    tag_28:\n      dup1\n      0x1f\n      add\n      0x20\n      dup1\n      swap2\n      div\n      mul\n      0x20\n      add\n      mload(0x40)\n      swap1\n      dup2\n      add\n      0x40\n      mstore\n      dup1\n      swap3\n      swap2\n      swap1\n      dup2\n      dup2\n      mstore\n      0x20\n      add\n      dup3\n      dup1\n      sload\n      tag_29\n      swap1\n      tag_17\n      jump\t// in\n    tag_29:\n      dup1\n      iszero\n      tag_30\n      jumpi\n      dup1\n      0x1f\n      lt\n      tag_31\n      jumpi\n      0x0100\n      dup1\n      dup4\n      sload\n      div\n      mul\n      dup4\n      mstore\n      swap2\n      0x20\n      add\n      swap2\n      jump(tag_30)\n    tag_31:\n      dup3\n      add\n      swap2\n      swap1\n      0x00\n      mstore\n      keccak256(0x00, 0x20)\n      swap1\n    tag_32:\n      dup2\n      sload\n      dup2\n      mstore\n      swap1\n      0x01\n      add\n      swap1\n      0x20\n      add\n      dup1\n      dup4\n      gt\n      tag_32\n      jumpi\n      dup3\n      swap1\n      sub\n      0x1f\n      and\n      dup3\n      add\n      swap2\n    tag_30:\n      pop\n      pop\n      pop\n      pop\n      pop\n      swap4\n      pop\n      dup3\n      dup1\n      sload\n      tag_33\n      swap1\n      tag_17\n      jump\t// in\n    tag_33:\n      dup1\n      0x1f\n      add\n      0x20\n      dup1\n      swap2\n      div\n      mul\n      0x20\n      add\n      mload(0x40)\n      swap1\n      dup2\n      add\n      0x40\n      mstore\n      dup1\n      swap3\n      swap2\n      swap1\n      dup2\n      dup2\n      mstore\n      0x20\n      add\n      dup3\n      dup1\n      sload\n      tag_34\n      swap1\n      tag_17\n      jump\t// in\n    tag_34:\n      dup1\n      iszero\n      tag_35\n      jumpi\n      dup1\n      0x1f\n      lt\n      tag_36\n      jumpi\n      0x0100\n      dup1\n      dup4\n      sload\n      div\n      mul\n      dup4\n      mstore\n      swap2\n      0x20\n      add\n      swap2\n      jump(tag_35)\n    tag_36:\n      dup3\n      add\n      swap2\n      swap1\n      0x00\n      mstore\n      keccak256(0x00, 0x20)\n      swap1\n    tag_37:\n      dup2\n      sload\n      dup2\n      mstore\n      swap1\n      0x01\n      add\n      swap1\n      0x20\n      add\n      dup1\n      dup4\n      gt\n      tag_37\n      jumpi\n      dup3\n      swap1\n      sub\n      0x1f\n      and\n      dup3\n      add\n      swap2\n    tag_35:\n      pop\n      pop\n      pop\n      pop\n      pop\n      swap3\n      pop\n      swap4\n      pop\n      swap4\n      pop\n      swap4\n      pop\n      swap4\n      pop\n        /* \"Day-14/code2.sol\":453:612  function get_Book1() public view returns(string memory, string memory, uint, bool){... */\n      swap1\n      swap2\n      swap3\n      swap4\n      jump\t// out\n        /* \"Day-14/code2.sol\":352:445  function set_Book1() public{... */\n    tag_14:\n        /* \"Day-14/code2.sol\":398:437  Book(\"Blockchain\", \"Singh\", 8464, true) */\n      mload(0x40)\n      dup1\n      0x80\n      add\n      0x40\n      mstore\n      dup1\n      mload(0x40)\n      dup1\n      0x40\n      add\n      0x40\n      mstore\n      dup1\n      0x0a\n      dup2\n      mstore\n      0x20\n      add\n      0x426c6f636b636861696e00000000000000000000000000000000000000000000\n      dup2\n      mstore\n      pop\n      dup2\n      mstore\n      0x20\n      add\n      mload(0x40)\n      dup1\n      0x40\n      add\n      0x40\n      mstore\n      dup1\n      0x05\n      dup2\n      mstore\n      0x20\n      add\n      0x53696e6768000000000000000000000000000000000000000000000000000000\n      dup2\n      mstore\n      pop\n      dup2\n      mstore\n      0x20\n      add\n        /* \"Day-14/code2.sol\":426:430  8464 */\n      0x2110\n        /* \"Day-14/code2.sol\":398:437  Book(\"Blockchain\", \"Singh\", 8464, true) */\n      dup2\n      mstore\n      0x20\n      add\n        /* \"Day-14/code2.sol\":432:436  true */\n      0x01\n        /* \"Day-14/code2.sol\":398:437  Book(\"Blockchain\", \"Singh\", 8464, true) */\n      iszero\n      iszero\n      dup2\n      mstore\n      pop\n        /* \"Day-14/code2.sol\":390:395  book1 */\n      0x00\n        /* \"Day-14/code2.sol\":390:437  book1 = Book(\"Blockchain\", \"Singh\", 8464, true) */\n      0x00\n      dup3\n      add\n      mload\n      dup2\n      0x00\n      add\n      swap1\n      dup2\n      tag_39\n      swap2\n      swap1\n      tag_40\n      jump\t// in\n    tag_39:\n      pop\n      0x20\n      dup3\n      add\n      mload\n      dup2\n      0x01\n      add\n      swap1\n      dup2\n      tag_41\n      swap2\n      swap1\n      tag_40\n      jump\t// in\n    tag_41:\n      pop\n      0x40\n      dup3\n      add\n      mload\n      dup2\n      0x02\n      add\n      sstore\n      0x60\n      dup3\n      add\n      mload\n      dup2\n      0x03\n      add\n      exp(0x0100, 0x00)\n      dup2\n      sload\n      dup2\n      0xff\n      mul\n      not\n      and\n      swap1\n      dup4\n      iszero\n      iszero\n      mul\n      or\n      swap1\n      sstore\n      pop\n      swap1\n      pop\n      pop\n        /* \"Day-14/code2.sol\":352:445  function set_Book1() public{... */\n      jump\t// out\n        /* \"#utility.yul\":7:106   */\n    tag_42:\n        /* \"#utility.yul\":59:65   */\n      0x00\n        /* \"#utility.yul\":93:98   */\n      dup2\n        /* \"#utility.yul\":87:99   */\n      mload\n        /* \"#utility.yul\":77:99   */\n      swap1\n      pop\n        /* \"#utility.yul\":7:106   */\n      swap2\n      swap1\n      pop\n      jump\t// out\n        /* \"#utility.yul\":112:281   */\n    tag_43:\n        /* \"#utility.yul\":196:207   */\n      0x00\n        /* \"#utility.yul\":230:236   */\n      dup3\n        /* \"#utility.yul\":225:228   */\n      dup3\n        /* \"#utility.yul\":218:237   */\n      mstore\n        /* \"#utility.yul\":270:274   */\n      0x20\n        /* \"#utility.yul\":265:268   */\n      dup3\n        /* \"#utility.yul\":261:275   */\n      add\n        /* \"#utility.yul\":246:275   */\n      swap1\n      pop\n        /* \"#utility.yul\":112:281   */\n      swap3\n      swap2\n      pop\n      pop\n      jump\t// out\n        /* \"#utility.yul\":287:426   */\n    tag_44:\n        /* \"#utility.yul\":376:382   */\n      dup3\n        /* \"#utility.yul\":371:374   */\n      dup2\n        /* \"#utility.yul\":366:369   */\n      dup4\n        /* \"#utility.yul\":360:383   */\n      mcopy\n        /* \"#utility.yul\":417:418   */\n      0x00\n        /* \"#utility.yul\":408:414   */\n      dup4\n        /* \"#utility.yul\":403:406   */\n      dup4\n        /* \"#utility.yul\":399:415   */\n      add\n        /* \"#utility.yul\":392:419   */\n      mstore\n        /* \"#utility.yul\":287:426   */\n      pop\n      pop\n      pop\n      jump\t// out\n        /* \"#utility.yul\":432:534   */\n    tag_45:\n        /* \"#utility.yul\":473:479   */\n      0x00\n        /* \"#utility.yul\":524:526   */\n      0x1f\n        /* \"#utility.yul\":520:527   */\n      not\n        /* \"#utility.yul\":515:517   */\n      0x1f\n        /* \"#utility.yul\":508:513   */\n      dup4\n        /* \"#utility.yul\":504:518   */\n      add\n        /* \"#utility.yul\":500:528   */\n      and\n        /* \"#utility.yul\":490:528   */\n      swap1\n      pop\n        /* \"#utility.yul\":432:534   */\n      swap2\n      swap1\n      pop\n      jump\t// out\n        /* \"#utility.yul\":540:917   */\n    tag_46:\n        /* \"#utility.yul\":628:631   */\n      0x00\n        /* \"#utility.yul\":656:695   */\n      tag_74\n        /* \"#utility.yul\":689:694   */\n      dup3\n        /* \"#utility.yul\":656:695   */\n      tag_42\n      jump\t// in\n    tag_74:\n        /* \"#utility.yul\":711:782   */\n      tag_75\n        /* \"#utility.yul\":775:781   */\n      dup2\n        /* \"#utility.yul\":770:773   */\n      dup6\n        /* \"#utility.yul\":711:782   */\n      tag_43\n      jump\t// in\n    tag_75:\n        /* \"#utility.yul\":704:782   */\n      swap4\n      pop\n        /* \"#utility.yul\":791:856   */\n      tag_76\n        /* \"#utility.yul\":849:855   */\n      dup2\n        /* \"#utility.yul\":844:847   */\n      dup6\n        /* \"#utility.yul\":837:841   */\n      0x20\n        /* \"#utility.yul\":830:835   */\n      dup7\n        /* \"#utility.yul\":826:842   */\n      add\n        /* \"#utility.yul\":791:856   */\n      tag_44\n      jump\t// in\n    tag_76:\n        /* \"#utility.yul\":881:910   */\n      tag_77\n        /* \"#utility.yul\":903:909   */\n      dup2\n        /* \"#utility.yul\":881:910   */\n      tag_45\n      jump\t// in\n    tag_77:\n        /* \"#utility.yul\":876:879   */\n      dup5\n        /* \"#utility.yul\":872:911   */\n      add\n        /* \"#utility.yul\":865:911   */\n      swap2\n      pop\n        /* \"#utility.yul\":632:917   */\n      pop\n        /* \"#utility.yul\":540:917   */\n      swap3\n      swap2\n      pop\n      pop\n      jump\t// out\n        /* \"#utility.yul\":923:1000   */\n    tag_47:\n        /* \"#utility.yul\":960:967   */\n      0x00\n        /* \"#utility.yul\":989:994   */\n      dup2\n        /* \"#utility.yul\":978:994   */\n      swap1\n      pop\n        /* \"#utility.yul\":923:1000   */\n      swap2\n      swap1\n      pop\n      jump\t// out\n        /* \"#utility.yul\":1006:1124   */\n    tag_48:\n        /* \"#utility.yul\":1093:1117   */\n      tag_80\n        /* \"#utility.yul\":1111:1116   */\n      dup2\n        /* \"#utility.yul\":1093:1117   */\n      tag_47\n      jump\t// in\n    tag_80:\n        /* \"#utility.yul\":1088:1091   */\n      dup3\n        /* \"#utility.yul\":1081:1118   */\n      mstore\n        /* \"#utility.yul\":1006:1124   */\n      pop\n      pop\n      jump\t// out\n        /* \"#utility.yul\":1130:1220   */\n    tag_49:\n        /* \"#utility.yul\":1164:1171   */\n      0x00\n        /* \"#utility.yul\":1207:1212   */\n      dup2\n        /* \"#utility.yul\":1200:1213   */\n      iszero\n        /* \"#utility.yul\":1193:1214   */\n      iszero\n        /* \"#utility.yul\":1182:1214   */\n      swap1\n      pop\n        /* \"#utility.yul\":1130:1220   */\n      swap2\n      swap1\n      pop\n      jump\t// out\n        /* \"#utility.yul\":1226:1335   */\n    tag_50:\n        /* \"#utility.yul\":1307:1328   */\n      tag_83\n        /* \"#utility.yul\":1322:1327   */\n      dup2\n        /* \"#utility.yul\":1307:1328   */\n      tag_49\n      jump\t// in\n    tag_83:\n        /* \"#utility.yul\":1302:1305   */\n      dup3\n        /* \"#utility.yul\":1295:1329   */\n      mstore\n        /* \"#utility.yul\":1226:1335   */\n      pop\n      pop\n      jump\t// out\n        /* \"#utility.yul\":1341:2064   */\n    tag_9:\n        /* \"#utility.yul\":1552:1556   */\n      0x00\n        /* \"#utility.yul\":1590:1593   */\n      0x80\n        /* \"#utility.yul\":1579:1588   */\n      dup3\n        /* \"#utility.yul\":1575:1594   */\n      add\n        /* \"#utility.yul\":1567:1594   */\n      swap1\n      pop\n        /* \"#utility.yul\":1640:1649   */\n      dup2\n        /* \"#utility.yul\":1634:1638   */\n      dup2\n        /* \"#utility.yul\":1630:1650   */\n      sub\n        /* \"#utility.yul\":1626:1627   */\n      0x00\n        /* \"#utility.yul\":1615:1624   */\n      dup4\n        /* \"#utility.yul\":1611:1628   */\n      add\n        /* \"#utility.yul\":1604:1651   */\n      mstore\n        /* \"#utility.yul\":1668:1746   */\n      tag_85\n        /* \"#utility.yul\":1741:1745   */\n      dup2\n        /* \"#utility.yul\":1732:1738   */\n      dup8\n        /* \"#utility.yul\":1668:1746   */\n      tag_46\n      jump\t// in\n    tag_85:\n        /* \"#utility.yul\":1660:1746   */\n      swap1\n      pop\n        /* \"#utility.yul\":1793:1802   */\n      dup2\n        /* \"#utility.yul\":1787:1791   */\n      dup2\n        /* \"#utility.yul\":1783:1803   */\n      sub\n        /* \"#utility.yul\":1778:1780   */\n      0x20\n        /* \"#utility.yul\":1767:1776   */\n      dup4\n        /* \"#utility.yul\":1763:1781   */\n      add\n        /* \"#utility.yul\":1756:1804   */\n      mstore\n        /* \"#utility.yul\":1821:1899   */\n      tag_86\n        /* \"#utility.yul\":1894:1898   */\n      dup2\n        /* \"#utility.yul\":1885:1891   */\n      dup7\n        /* \"#utility.yul\":1821:1899   */\n      tag_46\n      jump\t// in\n    tag_86:\n        /* \"#utility.yul\":1813:1899   */\n      swap1\n      pop\n        /* \"#utility.yul\":1909:1981   */\n      tag_87\n        /* \"#utility.yul\":1977:1979   */\n      0x40\n        /* \"#utility.yul\":1966:1975   */\n      dup4\n        /* \"#utility.yul\":1962:1980   */\n      add\n        /* \"#utility.yul\":1953:1959   */\n      dup6\n        /* \"#utility.yul\":1909:1981   */\n      tag_48\n      jump\t// in\n    tag_87:\n        /* \"#utility.yul\":1991:2057   */\n      tag_88\n        /* \"#utility.yul\":2053:2055   */\n      0x60\n        /* \"#utility.yul\":2042:2051   */\n      dup4\n        /* \"#utility.yul\":2038:2056   */\n      add\n        /* \"#utility.yul\":2029:2035   */\n      dup5\n        /* \"#utility.yul\":1991:2057   */\n      tag_50\n      jump\t// in\n    tag_88:\n        /* \"#utility.yul\":1341:2064   */\n      swap6\n      swap5\n      pop\n      pop\n      pop\n      pop\n      pop\n      jump\t// out\n        /* \"#utility.yul\":2070:2250   */\n    tag_51:\n        /* \"#utility.yul\":2118:2195   */\n      0x4e487b7100000000000000000000000000000000000000000000000000000000\n        /* \"#utility.yul\":2115:2116   */\n      0x00\n        /* \"#utility.yul\":2108:2196   */\n      mstore\n        /* \"#utility.yul\":2215:2219   */\n      0x22\n        /* \"#utility.yul\":2212:2213   */\n      0x04\n        /* \"#utility.yul\":2205:2220   */\n      mstore\n        /* \"#utility.yul\":2239:2243   */\n      0x24\n        /* \"#utility.yul\":2236:2237   */\n      0x00\n        /* \"#utility.yul\":2229:2244   */\n      revert\n        /* \"#utility.yul\":2256:2576   */\n    tag_17:\n        /* \"#utility.yul\":2300:2306   */\n      0x00\n        /* \"#utility.yul\":2337:2338   */\n      0x02\n        /* \"#utility.yul\":2331:2335   */\n      dup3\n        /* \"#utility.yul\":2327:2339   */\n      div\n        /* \"#utility.yul\":2317:2339   */\n      swap1\n      pop\n        /* \"#utility.yul\":2384:2385   */\n      0x01\n        /* \"#utility.yul\":2378:2382   */\n      dup3\n        /* \"#utility.yul\":2374:2386   */\n      and\n        /* \"#utility.yul\":2405:2423   */\n      dup1\n        /* \"#utility.yul\":2395:2476   */\n      tag_91\n      jumpi\n        /* \"#utility.yul\":2461:2465   */\n      0x7f\n        /* \"#utility.yul\":2453:2459   */\n      dup3\n        /* \"#utility.yul\":2449:2466   */\n      and\n        /* \"#utility.yul\":2439:2466   */\n      swap2\n      pop\n        /* \"#utility.yul\":2395:2476   */\n    tag_91:\n        /* \"#utility.yul\":2523:2525   */\n      0x20\n        /* \"#utility.yul\":2515:2521   */\n      dup3\n        /* \"#utility.yul\":2512:2526   */\n      lt\n        /* \"#utility.yul\":2492:2510   */\n      dup2\n        /* \"#utility.yul\":2489:2527   */\n      sub\n        /* \"#utility.yul\":2486:2570   */\n      tag_92\n      jumpi\n        /* \"#utility.yul\":2542:2560   */\n      tag_93\n      tag_51\n      jump\t// in\n    tag_93:\n        /* \"#utility.yul\":2486:2570   */\n    tag_92:\n        /* \"#utility.yul\":2307:2576   */\n      pop\n        /* \"#utility.yul\":2256:2576   */\n      swap2\n      swap1\n      pop\n      jump\t// out\n        /* \"#utility.yul\":2582:2762   */\n    tag_52:\n        /* \"#utility.yul\":2630:2707   */\n      0x4e487b7100000000000000000000000000000000000000000000000000000000\n        /* \"#utility.yul\":2627:2628   */\n      0x00\n        /* \"#utility.yul\":2620:2708   */\n      mstore\n        /* \"#utility.yul\":2727:2731   */\n      0x41\n        /* \"#utility.yul\":2724:2725   */\n      0x04\n        /* \"#utility.yul\":2717:2732   */\n      mstore\n        /* \"#utility.yul\":2751:2755   */\n      0x24\n        /* \"#utility.yul\":2748:2749   */\n      0x00\n        /* \"#utility.yul\":2741:2756   */\n      revert\n        /* \"#utility.yul\":2768:2909   */\n    tag_53:\n        /* \"#utility.yul\":2817:2821   */\n      0x00\n        /* \"#utility.yul\":2840:2843   */\n      dup2\n        /* \"#utility.yul\":2832:2843   */\n      swap1\n      pop\n        /* \"#utility.yul\":2863:2866   */\n      dup2\n        /* \"#utility.yul\":2860:2861   */\n      0x00\n        /* \"#utility.yul\":2853:2867   */\n      mstore\n        /* \"#utility.yul\":2897:2901   */\n      0x20\n        /* \"#utility.yul\":2894:2895   */\n      0x00\n        /* \"#utility.yul\":2884:2902   */\n      keccak256\n        /* \"#utility.yul\":2876:2902   */\n      swap1\n      pop\n        /* \"#utility.yul\":2768:2909   */\n      swap2\n      swap1\n      pop\n      jump\t// out\n        /* \"#utility.yul\":2915:3008   */\n    tag_54:\n        /* \"#utility.yul\":2952:2958   */\n      0x00\n        /* \"#utility.yul\":2999:3001   */\n      0x20\n        /* \"#utility.yul\":2994:2996   */\n      0x1f\n        /* \"#utility.yul\":2987:2992   */\n      dup4\n        /* \"#utility.yul\":2983:2997   */\n      add\n        /* \"#utility.yul\":2979:3002   */\n      div\n        /* \"#utility.yul\":2969:3002   */\n      swap1\n      pop\n        /* \"#utility.yul\":2915:3008   */\n      swap2\n      swap1\n      pop\n      jump\t// out\n        /* \"#utility.yul\":3014:3121   */\n    tag_55:\n        /* \"#utility.yul\":3058:3066   */\n      0x00\n        /* \"#utility.yul\":3108:3113   */\n      dup3\n        /* \"#utility.yul\":3102:3106   */\n      dup3\n        /* \"#utility.yul\":3098:3114   */\n      shl\n        /* \"#utility.yul\":3077:3114   */\n      swap1\n      pop\n        /* \"#utility.yul\":3014:3121   */\n      swap3\n      swap2\n      pop\n      pop\n      jump\t// out\n        /* \"#utility.yul\":3127:3520   */\n    tag_56:\n        /* \"#utility.yul\":3196:3202   */\n      0x00\n        /* \"#utility.yul\":3246:3247   */\n      0x08\n        /* \"#utility.yul\":3234:3244   */\n      dup4\n        /* \"#utility.yul\":3230:3248   */\n      mul\n        /* \"#utility.yul\":3269:3366   */\n      tag_99\n        /* \"#utility.yul\":3299:3365   */\n      0xffffffffffffffffffffffffffffffffffffffffffffffffffffffffffffffff\n        /* \"#utility.yul\":3288:3297   */\n      dup3\n        /* \"#utility.yul\":3269:3366   */\n      tag_55\n      jump\t// in\n    tag_99:\n        /* \"#utility.yul\":3387:3426   */\n      tag_100\n        /* \"#utility.yul\":3417:3425   */\n      dup7\n        /* \"#utility.yul\":3406:3415   */\n      dup4\n        /* \"#utility.yul\":3387:3426   */\n      tag_55\n      jump\t// in\n    tag_100:\n        /* \"#utility.yul\":3375:3426   */\n      swap6\n      pop\n        /* \"#utility.yul\":3459:3463   */\n      dup1\n        /* \"#utility.yul\":3455:3464   */\n      not\n        /* \"#utility.yul\":3448:3453   */\n      dup5\n        /* \"#utility.yul\":3444:3465   */\n      and\n        /* \"#utility.yul\":3435:3465   */\n      swap4\n      pop\n        /* \"#utility.yul\":3508:3512   */\n      dup1\n        /* \"#utility.yul\":3498:3506   */\n      dup7\n        /* \"#utility.yul\":3494:3513   */\n      and\n        /* \"#utility.yul\":3487:3492   */\n      dup5\n        /* \"#utility.yul\":3484:3514   */\n      or\n        /* \"#utility.yul\":3474:3514   */\n      swap3\n      pop\n        /* \"#utility.yul\":3203:3520   */\n      pop\n      pop\n        /* \"#utility.yul\":3127:3520   */\n      swap4\n      swap3\n      pop\n      pop\n      pop\n      jump\t// out\n        /* \"#utility.yul\":3526:3586   */\n    tag_57:\n        /* \"#utility.yul\":3554:3557   */\n      0x00\n        /* \"#utility.yul\":3575:3580   */\n      dup2\n        /* \"#utility.yul\":3568:3580   */\n      swap1\n      pop\n        /* \"#utility.yul\":3526:3586   */\n      swap2\n      swap1\n      pop\n      jump\t// out\n        /* \"#utility.yul\":3592:3734   */\n    tag_58:\n        /* \"#utility.yul\":3642:3651   */\n      0x00\n        /* \"#utility.yul\":3675:3728   */\n      tag_103\n        /* \"#utility.yul\":3693:3727   */\n      tag_104\n        /* \"#utility.yul\":3702:3726   */\n      tag_105\n        /* \"#utility.yul\":3720:3725   */\n      dup5\n        /* \"#utility.yul\":3702:3726   */\n      tag_47\n      jump\t// in\n    tag_105:\n        /* \"#utility.yul\":3693:3727   */\n      tag_57\n      jump\t// in\n    tag_104:\n        /* \"#utility.yul\":3675:3728   */\n      tag_47\n      jump\t// in\n    tag_103:\n        /* \"#utility.yul\":3662:3728   */\n      swap1\n      pop\n        /* \"#utility.yul\":3592:3734   */\n      swap2\n      swap1\n      pop\n      jump\t// out\n        /* \"#utility.yul\":3740:3815   */\n    tag_59:\n        /* \"#utility.yul\":3783:3786   */\n      0x00\n        /* \"#utility.yul\":3804:3809   */\n      dup2\n        /* \"#utility.yul\":3797:3809   */\n      swap1\n      pop\n        /* \"#utility.yul\":3740:3815   */\n      swap2\n      swap1\n      pop\n      jump\t// out\n        /* \"#utility.yul\":3821:4090   */\n    tag_60:\n        /* \"#utility.yul\":3931:3970   */\n      tag_108\n        /* \"#utility.yul\":3962:3969   */\n      dup4\n        /* \"#utility.yul\":3931:3970   */\n      tag_58\n      jump\t// in\n    tag_108:\n        /* \"#utility.yul\":3992:4083   */\n      tag_109\n        /* \"#utility.yul\":4041:4082   */\n      tag_110\n        /* \"#utility.yul\":4065:4081   */\n      dup3\n        /* \"#utility.yul\":4041:4082   */\n      tag_59\n      jump\t// in\n    tag_110:\n        /* \"#utility.yul\":4033:4039   */\n      dup5\n        /* \"#utility.yul\":4026:4030   */\n      dup5\n        /* \"#utility.yul\":4020:4031   */\n      sload\n        /* \"#utility.yul\":3992:4083   */\n      tag_56\n      jump\t// in\n    tag_109:\n        /* \"#utility.yul\":3986:3990   */\n      dup3\n        /* \"#utility.yul\":3979:4084   */\n      sstore\n        /* \"#utility.yul\":3897:4090   */\n      pop\n        /* \"#utility.yul\":3821:4090   */\n      pop\n      pop\n      pop\n      jump\t// out\n        /* \"#utility.yul\":4096:4169   */\n    tag_61:\n        /* \"#utility.yul\":4141:4144   */\n      0x00\n        /* \"#utility.yul\":4162:4163   */\n      0x00\n        /* \"#utility.yul\":4155:4163   */\n      swap1\n      pop\n        /* \"#utility.yul\":4096:4169   */\n      swap1\n      jump\t// out\n        /* \"#utility.yul\":4175:4364   */\n    tag_62:\n        /* \"#utility.yul\":4252:4284   */\n      tag_113\n      tag_61\n      jump\t// in\n    tag_113:\n        /* \"#utility.yul\":4293:4358   */\n      tag_114\n        /* \"#utility.yul\":4351:4357   */\n      dup2\n        /* \"#utility.yul\":4343:4349   */\n      dup5\n        /* \"#utility.yul\":4337:4341   */\n      dup5\n        /* \"#utility.yul\":4293:4358   */\n      tag_60\n      jump\t// in\n    tag_114:\n        /* \"#utility.yul\":4228:4364   */\n      pop\n        /* \"#utility.yul\":4175:4364   */\n      pop\n      pop\n      jump\t// out\n        /* \"#utility.yul\":4370:4556   */\n    tag_63:\n        /* \"#utility.yul\":4430:4550   */\n    tag_116:\n        /* \"#utility.yul\":4447:4450   */\n      dup2\n        /* \"#utility.yul\":4440:4445   */\n      dup2\n        /* \"#utility.yul\":4437:4451   */\n      lt\n        /* \"#utility.yul\":4430:4550   */\n      iszero\n      tag_118\n      jumpi\n        /* \"#utility.yul\":4501:4540   */\n      tag_119\n        /* \"#utility.yul\":4538:4539   */\n      0x00\n        /* \"#utility.yul\":4531:4536   */\n      dup3\n        /* \"#utility.yul\":4501:4540   */\n      tag_62\n      jump\t// in\n    tag_119:\n        /* \"#utility.yul\":4474:4475   */\n      0x01\n        /* \"#utility.yul\":4467:4472   */\n      dup2\n        /* \"#utility.yul\":4463:4476   */\n      add\n        /* \"#utility.yul\":4454:4476   */\n      swap1\n      pop\n        /* \"#utility.yul\":4430:4550   */\n      jump(tag_116)\n    tag_118:\n        /* \"#utility.yul\":4370:4556   */\n      pop\n      pop\n      jump\t// out\n        /* \"#utility.yul\":4562:5105   */\n    tag_64:\n        /* \"#utility.yul\":4663:4665   */\n      0x1f\n        /* \"#utility.yul\":4658:4661   */\n      dup3\n        /* \"#utility.yul\":4655:4666   */\n      gt\n        /* \"#utility.yul\":4652:5098   */\n      iszero\n      tag_121\n      jumpi\n        /* \"#utility.yul\":4697:4735   */\n      tag_122\n        /* \"#utility.yul\":4729:4734   */\n      dup2\n        /* \"#utility.yul\":4697:4735   */\n      tag_53\n      jump\t// in\n    tag_122:\n        /* \"#utility.yul\":4781:4810   */\n      tag_123\n        /* \"#utility.yul\":4799:4809   */\n      dup5\n        /* \"#utility.yul\":4781:4810   */\n      tag_54\n      jump\t// in\n    tag_123:\n        /* \"#utility.yul\":4771:4779   */\n      dup2\n        /* \"#utility.yul\":4767:4811   */\n      add\n        /* \"#utility.yul\":4964:4966   */\n      0x20\n        /* \"#utility.yul\":4952:4962   */\n      dup6\n        /* \"#utility.yul\":4949:4967   */\n      lt\n        /* \"#utility.yul\":4946:4995   */\n      iszero\n      tag_124\n      jumpi\n        /* \"#utility.yul\":4985:4993   */\n      dup2\n        /* \"#utility.yul\":4970:4993   */\n      swap1\n      pop\n        /* \"#utility.yul\":4946:4995   */\n    tag_124:\n        /* \"#utility.yul\":5008:5088   */\n      tag_125\n        /* \"#utility.yul\":5064:5086   */\n      tag_126\n        /* \"#utility.yul\":5082:5085   */\n      dup6\n        /* \"#utility.yul\":5064:5086   */\n      tag_54\n      jump\t// in\n    tag_126:\n        /* \"#utility.yul\":5054:5062   */\n      dup4\n        /* \"#utility.yul\":5050:5087   */\n      add\n        /* \"#utility.yul\":5037:5048   */\n      dup3\n        /* \"#utility.yul\":5008:5088   */\n      tag_63\n      jump\t// in\n    tag_125:\n        /* \"#utility.yul\":4667:5098   */\n      pop\n      pop\n        /* \"#utility.yul\":4652:5098   */\n    tag_121:\n        /* \"#utility.yul\":4562:5105   */\n      pop\n      pop\n      pop\n      jump\t// out\n        /* \"#utility.yul\":5111:5228   */\n    tag_65:\n        /* \"#utility.yul\":5165:5173   */\n      0x00\n        /* \"#utility.yul\":5215:5220   */\n      dup3\n        /* \"#utility.yul\":5209:5213   */\n      dup3\n        /* \"#utility.yul\":5205:5221   */\n      shr\n        /* \"#utility.yul\":5184:5221   */\n      swap1\n      pop\n        /* \"#utility.yul\":5111:5228   */\n      swap3\n      swap2\n      pop\n      pop\n      jump\t// out\n        /* \"#utility.yul\":5234:5403   */\n    tag_66:\n        /* \"#utility.yul\":5278:5284   */\n      0x00\n        /* \"#utility.yul\":5311:5362   */\n      tag_129\n        /* \"#utility.yul\":5359:5360   */\n      0x00\n        /* \"#utility.yul\":5355:5361   */\n      not\n        /* \"#utility.yul\":5347:5352   */\n      dup5\n        /* \"#utility.yul\":5344:5345   */\n      0x08\n        /* \"#utility.yul\":5340:5353   */\n      mul\n        /* \"#utility.yul\":5311:5362   */\n      tag_65\n      jump\t// in\n    tag_129:\n        /* \"#utility.yul\":5307:5363   */\n      not\n        /* \"#utility.yul\":5392:5396   */\n      dup1\n        /* \"#utility.yul\":5386:5390   */\n      dup4\n        /* \"#utility.yul\":5382:5397   */\n      and\n        /* \"#utility.yul\":5372:5397   */\n      swap2\n      pop\n        /* \"#utility.yul\":5285:5403   */\n      pop\n        /* \"#utility.yul\":5234:5403   */\n      swap3\n      swap2\n      pop\n      pop\n      jump\t// out\n        /* \"#utility.yul\":5408:5703   */\n    tag_67:\n        /* \"#utility.yul\":5484:5488   */\n      0x00\n        /* \"#utility.yul\":5630:5659   */\n      tag_131\n        /* \"#utility.yul\":5655:5658   */\n      dup4\n        /* \"#utility.yul\":5649:5653   */\n      dup4\n        /* \"#utility.yul\":5630:5659   */\n      tag_66\n      jump\t// in\n    tag_131:\n        /* \"#utility.yul\":5622:5659   */\n      swap2\n      pop\n        /* \"#utility.yul\":5692:5695   */\n      dup3\n        /* \"#utility.yul\":5689:5690   */\n      0x02\n        /* \"#utility.yul\":5685:5696   */\n      mul\n        /* \"#utility.yul\":5679:5683   */\n      dup3\n        /* \"#utility.yul\":5676:5697   */\n      or\n        /* \"#utility.yul\":5668:5697   */\n      swap1\n      pop\n        /* \"#utility.yul\":5408:5703   */\n      swap3\n      swap2\n      pop\n      pop\n      jump\t// out\n        /* \"#utility.yul\":5708:7103   */\n    tag_40:\n        /* \"#utility.yul\":5825:5862   */\n      tag_133\n        /* \"#utility.yul\":5858:5861   */\n      dup3\n        /* \"#utility.yul\":5825:5862   */\n      tag_42\n      jump\t// in\n    tag_133:\n        /* \"#utility.yul\":5927:5945   */\n      0xffffffffffffffff\n        /* \"#utility.yul\":5919:5925   */\n      dup2\n        /* \"#utility.yul\":5916:5946   */\n      gt\n        /* \"#utility.yul\":5913:5969   */\n      iszero\n      tag_134\n      jumpi\n        /* \"#utility.yul\":5949:5967   */\n      tag_135\n      tag_52\n      jump\t// in\n    tag_135:\n        /* \"#utility.yul\":5913:5969   */\n    tag_134:\n        /* \"#utility.yul\":5993:6031   */\n      tag_136\n        /* \"#utility.yul\":6025:6029   */\n      dup3\n        /* \"#utility.yul\":6019:6030   */\n      sload\n        /* \"#utility.yul\":5993:6031   */\n      tag_17\n      jump\t// in\n    tag_136:\n        /* \"#utility.yul\":6078:6145   */\n      tag_137\n        /* \"#utility.yul\":6138:6144   */\n      dup3\n        /* \"#utility.yul\":6130:6136   */\n      dup3\n        /* \"#utility.yul\":6124:6128   */\n      dup6\n        /* \"#utility.yul\":6078:6145   */\n      tag_64\n      jump\t// in\n    tag_137:\n        /* \"#utility.yul\":6172:6173   */\n      0x00\n        /* \"#utility.yul\":6196:6200   */\n      0x20\n        /* \"#utility.yul\":6183:6200   */\n      swap1\n      pop\n        /* \"#utility.yul\":6228:6230   */\n      0x1f\n        /* \"#utility.yul\":6220:6226   */\n      dup4\n        /* \"#utility.yul\":6217:6231   */\n      gt\n        /* \"#utility.yul\":6245:6246   */\n      0x01\n        /* \"#utility.yul\":6240:6858   */\n      dup2\n      eq\n      tag_139\n      jumpi\n        /* \"#utility.yul\":6902:6903   */\n      0x00\n        /* \"#utility.yul\":6919:6925   */\n      dup5\n        /* \"#utility.yul\":6916:6993   */\n      iszero\n      tag_140\n      jumpi\n        /* \"#utility.yul\":6968:6977   */\n      dup3\n        /* \"#utility.yul\":6963:6966   */\n      dup8\n        /* \"#utility.yul\":6959:6978   */\n      add\n        /* \"#utility.yul\":6953:6979   */\n      mload\n        /* \"#utility.yul\":6944:6979   */\n      swap1\n      pop\n        /* \"#utility.yul\":6916:6993   */\n    tag_140:\n        /* \"#utility.yul\":7019:7086   */\n      tag_141\n        /* \"#utility.yul\":7079:7085   */\n      dup6\n        /* \"#utility.yul\":7072:7077   */\n      dup3\n        /* \"#utility.yul\":7019:7086   */\n      tag_67\n      jump\t// in\n    tag_141:\n        /* \"#utility.yul\":7013:7017   */\n      dup7\n        /* \"#utility.yul\":7006:7087   */\n      sstore\n        /* \"#utility.yul\":6875:7097   */\n      pop\n        /* \"#utility.yul\":6210:7097   */\n      jump(tag_138)\n        /* \"#utility.yul\":6240:6858   */\n    tag_139:\n        /* \"#utility.yul\":6292:6296   */\n      0x1f\n        /* \"#utility.yul\":6288:6297   */\n      not\n        /* \"#utility.yul\":6280:6286   */\n      dup5\n        /* \"#utility.yul\":6276:6298   */\n      and\n        /* \"#utility.yul\":6326:6363   */\n      tag_142\n        /* \"#utility.yul\":6358:6362   */\n      dup7\n        /* \"#utility.yul\":6326:6363   */\n      tag_53\n      jump\t// in\n    tag_142:\n        /* \"#utility.yul\":6385:6386   */\n      0x00\n        /* \"#utility.yul\":6399:6607   */\n    tag_143:\n        /* \"#utility.yul\":6413:6420   */\n      dup3\n        /* \"#utility.yul\":6410:6411   */\n      dup2\n        /* \"#utility.yul\":6407:6421   */\n      lt\n        /* \"#utility.yul\":6399:6607   */\n      iszero\n      tag_145\n      jumpi\n        /* \"#utility.yul\":6492:6501   */\n      dup5\n        /* \"#utility.yul\":6487:6490   */\n      dup10\n        /* \"#utility.yul\":6483:6502   */\n      add\n        /* \"#utility.yul\":6477:6503   */\n      mload\n        /* \"#utility.yul\":6469:6475   */\n      dup3\n        /* \"#utility.yul\":6462:6504   */\n      sstore\n        /* \"#utility.yul\":6543:6544   */\n      0x01\n        /* \"#utility.yul\":6535:6541   */\n      dup3\n        /* \"#utility.yul\":6531:6545   */\n      add\n        /* \"#utility.yul\":6521:6545   */\n      swap2\n      pop\n        /* \"#utility.yul\":6590:6592   */\n      0x20\n        /* \"#utility.yul\":6579:6588   */\n      dup6\n        /* \"#utility.yul\":6575:6593   */\n      add\n        /* \"#utility.yul\":6562:6593   */\n      swap5\n      pop\n        /* \"#utility.yul\":6436:6440   */\n      0x20\n        /* \"#utility.yul\":6433:6434   */\n      dup2\n        /* \"#utility.yul\":6429:6441   */\n      add\n        /* \"#utility.yul\":6424:6441   */\n      swap1\n      pop\n        /* \"#utility.yul\":6399:6607   */\n      jump(tag_143)\n    tag_145:\n        /* \"#utility.yul\":6635:6641   */\n      dup7\n        /* \"#utility.yul\":6626:6633   */\n      dup4\n        /* \"#utility.yul\":6623:6642   */\n      lt\n        /* \"#utility.yul\":6620:6799   */\n      iszero\n      tag_146\n      jumpi\n        /* \"#utility.yul\":6693:6702   */\n      dup5\n        /* \"#utility.yul\":6688:6691   */\n      dup10\n        /* \"#utility.yul\":6684:6703   */\n      add\n        /* \"#utility.yul\":6678:6704   */\n      mload\n        /* \"#utility.yul\":6736:6784   */\n      tag_147\n        /* \"#utility.yul\":6778:6782   */\n      0x1f\n        /* \"#utility.yul\":6770:6776   */\n      dup10\n        /* \"#utility.yul\":6766:6783   */\n      and\n        /* \"#utility.yul\":6755:6764   */\n      dup3\n        /* \"#utility.yul\":6736:6784   */\n      tag_66\n      jump\t// in\n    tag_147:\n        /* \"#utility.yul\":6728:6734   */\n      dup4\n        /* \"#utility.yul\":6721:6785   */\n      sstore\n        /* \"#utility.yul\":6643:6799   */\n      pop\n        /* \"#utility.yul\":6620:6799   */\n    tag_146:\n        /* \"#utility.yul\":6845:6846   */\n      0x01\n        /* \"#utility.yul\":6841:6842   */\n      0x02\n        /* \"#utility.yul\":6833:6839   */\n      dup9\n        /* \"#utility.yul\":6829:6843   */\n      mul\n        /* \"#utility.yul\":6825:6847   */\n      add\n        /* \"#utility.yul\":6819:6823   */\n      dup9\n        /* \"#utility.yul\":6812:6848   */\n      sstore\n        /* \"#utility.yul\":6247:6858   */\n      pop\n      pop\n      pop\n        /* \"#utility.yul\":6210:7097   */\n    tag_138:\n      pop\n        /* \"#utility.yul\":5800:7103   */\n      pop\n      pop\n      pop\n        /* \"#utility.yul\":5708:7103   */\n      pop\n      pop\n      jump\t// out\n\n    auxdata: 0xa26469706673582212201615fc723d0c2c6c439da935b69a0a90c7d1512e13a249c837edfff643d01cc164736f6c634300081c0033\n}\n",
				"bytecode": {
					"linkReferences": {},
					"object": "608060405260405180608001604052806040518060400160405280600581526020017f444170707300000000000000000000000000000000000000000000000000000081525081526020016040518060400160405280600581526020017f416e69736800000000000000000000000000000000000000000000000000000081525081526020016120b581526020015f151581525060045f820151815f0190816100a89190610338565b5060208201518160010190816100be9190610338565b50604082015181600201556060820151816003015f6101000a81548160ff02191690831515021790555050503480156100f5575f5ffd5b50610407565b5f81519050919050565b7f4e487b71000000000000000000000000000000000000000000000000000000005f52604160045260245ffd5b7f4e487b71000000000000000000000000000000000000000000000000000000005f52602260045260245ffd5b5f600282049050600182168061017657607f821691505b60208210810361018957610188610132565b5b50919050565b5f819050815f5260205f209050919050565b5f6020601f8301049050919050565b5f82821b905092915050565b5f600883026101eb7fffffffffffffffffffffffffffffffffffffffffffffffffffffffffffffffff826101b0565b6101f586836101b0565b95508019841693508086168417925050509392505050565b5f819050919050565b5f819050919050565b5f61023961023461022f8461020d565b610216565b61020d565b9050919050565b5f819050919050565b6102528361021f565b61026661025e82610240565b8484546101bc565b825550505050565b5f5f905090565b61027d61026e565b610288818484610249565b505050565b5b818110156102ab576102a05f82610275565b60018101905061028e565b5050565b601f8211156102f0576102c18161018f565b6102ca846101a1565b810160208510156102d9578190505b6102ed6102e5856101a1565b83018261028d565b50505b505050565b5f82821c905092915050565b5f6103105f19846008026102f5565b1980831691505092915050565b5f6103288383610301565b9150826002028217905092915050565b610341826100fb565b67ffffffffffffffff81111561035a57610359610105565b5b610364825461015f565b61036f8282856102af565b5f60209050601f8311600181146103a0575f841561038e578287015190505b610398858261031d565b8655506103ff565b601f1984166103ae8661018f565b5f5b828110156103d5578489015182556001820191506020850194506020810190506103b0565b868310156103f257848901516103ee601f891682610301565b8355505b6001600288020188555050505b505050505050565b610826806104145f395ff3fe608060405234801561000f575f5ffd5b506004361061003f575f3560e01c80632af4710814610043578063a05da91914610064578063e136b5e914610085575b5f5ffd5b61004b61008f565b60405161005b94939291906104a6565b60405180910390f35b61006c6101d7565b60405161007c94939291906104a6565b60405180910390f35b61008d61031b565b005b6060805f5f60045f01600460010160046002015460046003015f9054906101000a900460ff168380546100c190610524565b80601f01602080910402602001604051908101604052809291908181526020018280546100ed90610524565b80156101385780601f1061010f57610100808354040283529160200191610138565b820191905f5260205f20905b81548152906001019060200180831161011b57829003601f168201915b5050505050935082805461014b90610524565b80601f016020809104026020016040519081016040528092919081815260200182805461017790610524565b80156101c25780601f10610199576101008083540402835291602001916101c2565b820191905f5260205f20905b8154815290600101906020018083116101a557829003601f168201915b50505050509250935093509350935090919293565b6060805f5f5f5f015f6001015f600201545f6003015f9054906101000a900460ff1683805461020590610524565b80601f016020809104026020016040519081016040528092919081815260200182805461023190610524565b801561027c5780601f106102535761010080835404028352916020019161027c565b820191905f5260205f20905b81548152906001019060200180831161025f57829003601f168201915b5050505050935082805461028f90610524565b80601f01602080910402602001604051908101604052809291908181526020018280546102bb90610524565b80156103065780601f106102dd57610100808354040283529160200191610306565b820191905f5260205f20905b8154815290600101906020018083116102e957829003601f168201915b50505050509250935093509350935090919293565b60405180608001604052806040518060400160405280600a81526020017f426c6f636b636861696e0000000000000000000000000000000000000000000081525081526020016040518060400160405280600581526020017f53696e676800000000000000000000000000000000000000000000000000000081525081526020016121108152602001600115158152505f5f820151815f0190816103bf9190610721565b5060208201518160010190816103d59190610721565b50604082015181600201556060820151816003015f6101000a81548160ff021916908315150217905550905050565b5f81519050919050565b5f82825260208201905092915050565b8281835e5f83830152505050565b5f601f19601f8301169050919050565b5f61044682610404565b610450818561040e565b935061046081856020860161041e565b6104698161042c565b840191505092915050565b5f819050919050565b61048681610474565b82525050565b5f8115159050919050565b6104a08161048c565b82525050565b5f6080820190508181035f8301526104be818761043c565b905081810360208301526104d2818661043c565b90506104e1604083018561047d565b6104ee6060830184610497565b95945050505050565b7f4e487b71000000000000000000000000000000000000000000000000000000005f52602260045260245ffd5b5f600282049050600182168061053b57607f821691505b60208210810361054e5761054d6104f7565b5b50919050565b7f4e487b71000000000000000000000000000000000000000000000000000000005f52604160045260245ffd5b5f819050815f5260205f209050919050565b5f6020601f8301049050919050565b5f82821b905092915050565b5f600883026105dd7fffffffffffffffffffffffffffffffffffffffffffffffffffffffffffffffff826105a2565b6105e786836105a2565b95508019841693508086168417925050509392505050565b5f819050919050565b5f61062261061d61061884610474565b6105ff565b610474565b9050919050565b5f819050919050565b61063b83610608565b61064f61064782610629565b8484546105ae565b825550505050565b5f5f905090565b610666610657565b610671818484610632565b505050565b5b81811015610694576106895f8261065e565b600181019050610677565b5050565b601f8211156106d9576106aa81610581565b6106b384610593565b810160208510156106c2578190505b6106d66106ce85610593565b830182610676565b50505b505050565b5f82821c905092915050565b5f6106f95f19846008026106de565b1980831691505092915050565b5f61071183836106ea565b9150826002028217905092915050565b61072a82610404565b67ffffffffffffffff81111561074357610742610554565b5b61074d8254610524565b610758828285610698565b5f60209050601f831160018114610789575f8415610777578287015190505b6107818582610706565b8655506107e8565b601f19841661079786610581565b5f5b828110156107be57848901518255600182019150602085019450602081019050610799565b868310156107db57848901516107d7601f8916826106ea565b8355505b6001600288020188555050505b50505050505056fea26469706673582212201615fc723d0c2c6c439da935b69a0a90c7d1512e13a249c837edfff643d01cc164736f6c634300081c0033",
					"opcodes": "PUSH1 0x80 PUSH1 0x40 MSTORE PUSH1 0x40 MLOAD DUP1 PUSH1 0x80 ADD PUSH1 0x40 MSTORE DUP1 PUSH1 0x40 MLOAD DUP1 PUSH1 0x40 ADD PUSH1 0x40 MSTORE DUP1 PUSH1 0x5 DUP2 MSTORE PUSH1 0x20 ADD PUSH32 0x4441707073000000000000000000000000000000000000000000000000000000 DUP2 MSTORE POP DUP2 MSTORE PUSH1 0x20 ADD PUSH1 0x40 MLOAD DUP1 PUSH1 0x40 ADD PUSH1 0x40 MSTORE DUP1 PUSH1 0x5 DUP2 MSTORE PUSH1 0x20 ADD PUSH32 0x416E697368000000000000000000000000000000000000000000000000000000 DUP2 MSTORE POP DUP2 MSTORE PUSH1 0x20 ADD PUSH2 0x20B5 DUP2 MSTORE PUSH1 0x20 ADD PUSH0 ISZERO ISZERO DUP2 MSTORE POP PUSH1 0x4 PUSH0 DUP3 ADD MLOAD DUP2 PUSH0 ADD SWAP1 DUP2 PUSH2 0xA8 SWAP2 SWAP1 PUSH2 0x338 JUMP JUMPDEST POP PUSH1 0x20 DUP3 ADD MLOAD DUP2 PUSH1 0x1 ADD SWAP1 DUP2 PUSH2 0xBE SWAP2 SWAP1 PUSH2 0x338 JUMP JUMPDEST POP PUSH1 0x40 DUP3 ADD MLOAD DUP2 PUSH1 0x2 ADD SSTORE PUSH1 0x60 DUP3 ADD MLOAD DUP2 PUSH1 0x3 ADD PUSH0 PUSH2 0x100 EXP DUP2 SLOAD DUP2 PUSH1 0xFF MUL NOT AND SWAP1 DUP4 ISZERO ISZERO MUL OR SWAP1 SSTORE POP POP POP CALLVALUE DUP1 ISZERO PUSH2 0xF5 JUMPI PUSH0 PUSH0 REVERT JUMPDEST POP PUSH2 0x407 JUMP JUMPDEST PUSH0 DUP2 MLOAD SWAP1 POP SWAP2 SWAP1 POP JUMP JUMPDEST PUSH32 0x4E487B7100000000000000000000000000000000000000000000000000000000 PUSH0 MSTORE PUSH1 0x41 PUSH1 0x4 MSTORE PUSH1 0x24 PUSH0 REVERT JUMPDEST PUSH32 0x4E487B7100000000000000000000000000000000000000000000000000000000 PUSH0 MSTORE PUSH1 0x22 PUSH1 0x4 MSTORE PUSH1 0x24 PUSH0 REVERT JUMPDEST PUSH0 PUSH1 0x2 DUP3 DIV SWAP1 POP PUSH1 0x1 DUP3 AND DUP1 PUSH2 0x176 JUMPI PUSH1 0x7F DUP3 AND SWAP2 POP JUMPDEST PUSH1 0x20 DUP3 LT DUP2 SUB PUSH2 0x189 JUMPI PUSH2 0x188 PUSH2 0x132 JUMP JUMPDEST JUMPDEST POP SWAP2 SWAP1 POP JUMP JUMPDEST PUSH0 DUP2 SWAP1 POP DUP2 PUSH0 MSTORE PUSH1 0x20 PUSH0 KECCAK256 SWAP1 POP SWAP2 SWAP1 POP JUMP JUMPDEST PUSH0 PUSH1 0x20 PUSH1 0x1F DUP4 ADD DIV SWAP1 POP SWAP2 SWAP1 POP JUMP JUMPDEST PUSH0 DUP3 DUP3 SHL SWAP1 POP SWAP3 SWAP2 POP POP JUMP JUMPDEST PUSH0 PUSH1 0x8 DUP4 MUL PUSH2 0x1EB PUSH32 0xFFFFFFFFFFFFFFFFFFFFFFFFFFFFFFFFFFFFFFFFFFFFFFFFFFFFFFFFFFFFFFFF DUP3 PUSH2 0x1B0 JUMP JUMPDEST PUSH2 0x1F5 DUP7 DUP4 PUSH2 0x1B0 JUMP JUMPDEST SWAP6 POP DUP1 NOT DUP5 AND SWAP4 POP DUP1 DUP7 AND DUP5 OR SWAP3 POP POP POP SWAP4 SWAP3 POP POP POP JUMP JUMPDEST PUSH0 DUP2 SWAP1 POP SWAP2 SWAP1 POP JUMP JUMPDEST PUSH0 DUP2 SWAP1 POP SWAP2 SWAP1 POP JUMP JUMPDEST PUSH0 PUSH2 0x239 PUSH2 0x234 PUSH2 0x22F DUP5 PUSH2 0x20D JUMP JUMPDEST PUSH2 0x216 JUMP JUMPDEST PUSH2 0x20D JUMP JUMPDEST SWAP1 POP SWAP2 SWAP1 POP JUMP JUMPDEST PUSH0 DUP2 SWAP1 POP SWAP2 SWAP1 POP JUMP JUMPDEST PUSH2 0x252 DUP4 PUSH2 0x21F JUMP JUMPDEST PUSH2 0x266 PUSH2 0x25E DUP3 PUSH2 0x240 JUMP JUMPDEST DUP5 DUP5 SLOAD PUSH2 0x1BC JUMP JUMPDEST DUP3 SSTORE POP POP POP POP JUMP JUMPDEST PUSH0 PUSH0 SWAP1 POP SWAP1 JUMP JUMPDEST PUSH2 0x27D PUSH2 0x26E JUMP JUMPDEST PUSH2 0x288 DUP2 DUP5 DUP5 PUSH2 0x249 JUMP JUMPDEST POP POP POP JUMP JUMPDEST JUMPDEST DUP2 DUP2 LT ISZERO PUSH2 0x2AB JUMPI PUSH2 0x2A0 PUSH0 DUP3 PUSH2 0x275 JUMP JUMPDEST PUSH1 0x1 DUP2 ADD SWAP1 POP PUSH2 0x28E JUMP JUMPDEST POP POP JUMP JUMPDEST PUSH1 0x1F DUP3 GT ISZERO PUSH2 0x2F0 JUMPI PUSH2 0x2C1 DUP2 PUSH2 0x18F JUMP JUMPDEST PUSH2 0x2CA DUP5 PUSH2 0x1A1 JUMP JUMPDEST DUP2 ADD PUSH1 0x20 DUP6 LT ISZERO PUSH2 0x2D9 JUMPI DUP2 SWAP1 POP JUMPDEST PUSH2 0x2ED PUSH2 0x2E5 DUP6 PUSH2 0x1A1 JUMP JUMPDEST DUP4 ADD DUP3 PUSH2 0x28D JUMP JUMPDEST POP POP JUMPDEST POP POP POP JUMP JUMPDEST PUSH0 DUP3 DUP3 SHR SWAP1 POP SWAP3 SWAP2 POP POP JUMP JUMPDEST PUSH0 PUSH2 0x310 PUSH0 NOT DUP5 PUSH1 0x8 MUL PUSH2 0x2F5 JUMP JUMPDEST NOT DUP1 DUP4 AND SWAP2 POP POP SWAP3 SWAP2 POP POP JUMP JUMPDEST PUSH0 PUSH2 0x328 DUP4 DUP4 PUSH2 0x301 JUMP JUMPDEST SWAP2 POP DUP3 PUSH1 0x2 MUL DUP3 OR SWAP1 POP SWAP3 SWAP2 POP POP JUMP JUMPDEST PUSH2 0x341 DUP3 PUSH2 0xFB JUMP JUMPDEST PUSH8 0xFFFFFFFFFFFFFFFF DUP2 GT ISZERO PUSH2 0x35A JUMPI PUSH2 0x359 PUSH2 0x105 JUMP JUMPDEST JUMPDEST PUSH2 0x364 DUP3 SLOAD PUSH2 0x15F JUMP JUMPDEST PUSH2 0x36F DUP3 DUP3 DUP6 PUSH2 0x2AF JUMP JUMPDEST PUSH0 PUSH1 0x20 SWAP1 POP PUSH1 0x1F DUP4 GT PUSH1 0x1 DUP2 EQ PUSH2 0x3A0 JUMPI PUSH0 DUP5 ISZERO PUSH2 0x38E JUMPI DUP3 DUP8 ADD MLOAD SWAP1 POP JUMPDEST PUSH2 0x398 DUP6 DUP3 PUSH2 0x31D JUMP JUMPDEST DUP7 SSTORE POP PUSH2 0x3FF JUMP JUMPDEST PUSH1 0x1F NOT DUP5 AND PUSH2 0x3AE DUP7 PUSH2 0x18F JUMP JUMPDEST PUSH0 JUMPDEST DUP3 DUP2 LT ISZERO PUSH2 0x3D5 JUMPI DUP5 DUP10 ADD MLOAD DUP3 SSTORE PUSH1 0x1 DUP3 ADD SWAP2 POP PUSH1 0x20 DUP6 ADD SWAP5 POP PUSH1 0x20 DUP2 ADD SWAP1 POP PUSH2 0x3B0 JUMP JUMPDEST DUP7 DUP4 LT ISZERO PUSH2 0x3F2 JUMPI DUP5 DUP10 ADD MLOAD PUSH2 0x3EE PUSH1 0x1F DUP10 AND DUP3 PUSH2 0x301 JUMP JUMPDEST DUP4 SSTORE POP JUMPDEST PUSH1 0x1 PUSH1 0x2 DUP9 MUL ADD DUP9 SSTORE POP POP POP JUMPDEST POP POP POP POP POP POP JUMP JUMPDEST PUSH2 0x826 DUP1 PUSH2 0x414 PUSH0 CODECOPY PUSH0 RETURN INVALID PUSH1 0x80 PUSH1 0x40 MSTORE CALLVALUE DUP1 ISZERO PUSH2 0xF JUMPI PUSH0 PUSH0 REVERT JUMPDEST POP PUSH1 0x4 CALLDATASIZE LT PUSH2 0x3F JUMPI PUSH0 CALLDATALOAD PUSH1 0xE0 SHR DUP1 PUSH4 0x2AF47108 EQ PUSH2 0x43 JUMPI DUP1 PUSH4 0xA05DA919 EQ PUSH2 0x64 JUMPI DUP1 PUSH4 0xE136B5E9 EQ PUSH2 0x85 JUMPI JUMPDEST PUSH0 PUSH0 REVERT JUMPDEST PUSH2 0x4B PUSH2 0x8F JUMP JUMPDEST PUSH1 0x40 MLOAD PUSH2 0x5B SWAP5 SWAP4 SWAP3 SWAP2 SWAP1 PUSH2 0x4A6 JUMP JUMPDEST PUSH1 0x40 MLOAD DUP1 SWAP2 SUB SWAP1 RETURN JUMPDEST PUSH2 0x6C PUSH2 0x1D7 JUMP JUMPDEST PUSH1 0x40 MLOAD PUSH2 0x7C SWAP5 SWAP4 SWAP3 SWAP2 SWAP1 PUSH2 0x4A6 JUMP JUMPDEST PUSH1 0x40 MLOAD DUP1 SWAP2 SUB SWAP1 RETURN JUMPDEST PUSH2 0x8D PUSH2 0x31B JUMP JUMPDEST STOP JUMPDEST PUSH1 0x60 DUP1 PUSH0 PUSH0 PUSH1 0x4 PUSH0 ADD PUSH1 0x4 PUSH1 0x1 ADD PUSH1 0x4 PUSH1 0x2 ADD SLOAD PUSH1 0x4 PUSH1 0x3 ADD PUSH0 SWAP1 SLOAD SWAP1 PUSH2 0x100 EXP SWAP1 DIV PUSH1 0xFF AND DUP4 DUP1 SLOAD PUSH2 0xC1 SWAP1 PUSH2 0x524 JUMP JUMPDEST DUP1 PUSH1 0x1F ADD PUSH1 0x20 DUP1 SWAP2 DIV MUL PUSH1 0x20 ADD PUSH1 0x40 MLOAD SWAP1 DUP2 ADD PUSH1 0x40 MSTORE DUP1 SWAP3 SWAP2 SWAP1 DUP2 DUP2 MSTORE PUSH1 0x20 ADD DUP3 DUP1 SLOAD PUSH2 0xED SWAP1 PUSH2 0x524 JUMP JUMPDEST DUP1 ISZERO PUSH2 0x138 JUMPI DUP1 PUSH1 0x1F LT PUSH2 0x10F JUMPI PUSH2 0x100 DUP1 DUP4 SLOAD DIV MUL DUP4 MSTORE SWAP2 PUSH1 0x20 ADD SWAP2 PUSH2 0x138 JUMP JUMPDEST DUP3 ADD SWAP2 SWAP1 PUSH0 MSTORE PUSH1 0x20 PUSH0 KECCAK256 SWAP1 JUMPDEST DUP2 SLOAD DUP2 MSTORE SWAP1 PUSH1 0x1 ADD SWAP1 PUSH1 0x20 ADD DUP1 DUP4 GT PUSH2 0x11B JUMPI DUP3 SWAP1 SUB PUSH1 0x1F AND DUP3 ADD SWAP2 JUMPDEST POP POP POP POP POP SWAP4 POP DUP3 DUP1 SLOAD PUSH2 0x14B SWAP1 PUSH2 0x524 JUMP JUMPDEST DUP1 PUSH1 0x1F ADD PUSH1 0x20 DUP1 SWAP2 DIV MUL PUSH1 0x20 ADD PUSH1 0x40 MLOAD SWAP1 DUP2 ADD PUSH1 0x40 MSTORE DUP1 SWAP3 SWAP2 SWAP1 DUP2 DUP2 MSTORE PUSH1 0x20 ADD DUP3 DUP1 SLOAD PUSH2 0x177 SWAP1 PUSH2 0x524 JUMP JUMPDEST DUP1 ISZERO PUSH2 0x1C2 JUMPI DUP1 PUSH1 0x1F LT PUSH2 0x199 JUMPI PUSH2 0x100 DUP1 DUP4 SLOAD DIV MUL DUP4 MSTORE SWAP2 PUSH1 0x20 ADD SWAP2 PUSH2 0x1C2 JUMP JUMPDEST DUP3 ADD SWAP2 SWAP1 PUSH0 MSTORE PUSH1 0x20 PUSH0 KECCAK256 SWAP1 JUMPDEST DUP2 SLOAD DUP2 MSTORE SWAP1 PUSH1 0x1 ADD SWAP1 PUSH1 0x20 ADD DUP1 DUP4 GT PUSH2 0x1A5 JUMPI DUP3 SWAP1 SUB PUSH1 0x1F AND DUP3 ADD SWAP2 JUMPDEST POP POP POP POP POP SWAP3 POP SWAP4 POP SWAP4 POP SWAP4 POP SWAP4 POP SWAP1 SWAP2 SWAP3 SWAP4 JUMP JUMPDEST PUSH1 0x60 DUP1 PUSH0 PUSH0 PUSH0 PUSH0 ADD PUSH0 PUSH1 0x1 ADD PUSH0 PUSH1 0x2 ADD SLOAD PUSH0 PUSH1 0x3 ADD PUSH0 SWAP1 SLOAD SWAP1 PUSH2 0x100 EXP SWAP1 DIV PUSH1 0xFF AND DUP4 DUP1 SLOAD PUSH2 0x205 SWAP1 PUSH2 0x524 JUMP JUMPDEST DUP1 PUSH1 0x1F ADD PUSH1 0x20 DUP1 SWAP2 DIV MUL PUSH1 0x20 ADD PUSH1 0x40 MLOAD SWAP1 DUP2 ADD PUSH1 0x40 MSTORE DUP1 SWAP3 SWAP2 SWAP1 DUP2 DUP2 MSTORE PUSH1 0x20 ADD DUP3 DUP1 SLOAD PUSH2 0x231 SWAP1 PUSH2 0x524 JUMP JUMPDEST DUP1 ISZERO PUSH2 0x27C JUMPI DUP1 PUSH1 0x1F LT PUSH2 0x253 JUMPI PUSH2 0x100 DUP1 DUP4 SLOAD DIV MUL DUP4 MSTORE SWAP2 PUSH1 0x20 ADD SWAP2 PUSH2 0x27C JUMP JUMPDEST DUP3 ADD SWAP2 SWAP1 PUSH0 MSTORE PUSH1 0x20 PUSH0 KECCAK256 SWAP1 JUMPDEST DUP2 SLOAD DUP2 MSTORE SWAP1 PUSH1 0x1 ADD SWAP1 PUSH1 0x20 ADD DUP1 DUP4 GT PUSH2 0x25F JUMPI DUP3 SWAP1 SUB PUSH1 0x1F AND DUP3 ADD SWAP2 JUMPDEST POP POP POP POP POP SWAP4 POP DUP3 DUP1 SLOAD PUSH2 0x28F SWAP1 PUSH2 0x524 JUMP JUMPDEST DUP1 PUSH1 0x1F ADD PUSH1 0x20 DUP1 SWAP2 DIV MUL PUSH1 0x20 ADD PUSH1 0x40 MLOAD SWAP1 DUP2 ADD PUSH1 0x40 MSTORE DUP1 SWAP3 SWAP2 SWAP1 DUP2 DUP2 MSTORE PUSH1 0x20 ADD DUP3 DUP1 SLOAD PUSH2 0x2BB SWAP1 PUSH2 0x524 JUMP JUMPDEST DUP1 ISZERO PUSH2 0x306 JUMPI DUP1 PUSH1 0x1F LT PUSH2 0x2DD JUMPI PUSH2 0x100 DUP1 DUP4 SLOAD DIV MUL DUP4 MSTORE SWAP2 PUSH1 0x20 ADD SWAP2 PUSH2 0x306 JUMP JUMPDEST DUP3 ADD SWAP2 SWAP1 PUSH0 MSTORE PUSH1 0x20 PUSH0 KECCAK256 SWAP1 JUMPDEST DUP2 SLOAD DUP2 MSTORE SWAP1 PUSH1 0x1 ADD SWAP1 PUSH1 0x20 ADD DUP1 DUP4 GT PUSH2 0x2E9 JUMPI DUP3 SWAP1 SUB PUSH1 0x1F AND DUP3 ADD SWAP2 JUMPDEST POP POP POP POP POP SWAP3 POP SWAP4 POP SWAP4 POP SWAP4 POP SWAP4 POP SWAP1 SWAP2 SWAP3 SWAP4 JUMP JUMPDEST PUSH1 0x40 MLOAD DUP1 PUSH1 0x80 ADD PUSH1 0x40 MSTORE DUP1 PUSH1 0x40 MLOAD DUP1 PUSH1 0x40 ADD PUSH1 0x40 MSTORE DUP1 PUSH1 0xA DUP2 MSTORE PUSH1 0x20 ADD PUSH32 0x426C6F636B636861696E00000000000000000000000000000000000000000000 DUP2 MSTORE POP DUP2 MSTORE PUSH1 0x20 ADD PUSH1 0x40 MLOAD DUP1 PUSH1 0x40 ADD PUSH1 0x40 MSTORE DUP1 PUSH1 0x5 DUP2 MSTORE PUSH1 0x20 ADD PUSH32 0x53696E6768000000000000000000000000000000000000000000000000000000 DUP2 MSTORE POP DUP2 MSTORE PUSH1 0x20 ADD PUSH2 0x2110 DUP2 MSTORE PUSH1 0x20 ADD PUSH1 0x1 ISZERO ISZERO DUP2 MSTORE POP PUSH0 PUSH0 DUP3 ADD MLOAD DUP2 PUSH0 ADD SWAP1 DUP2 PUSH2 0x3BF SWAP2 SWAP1 PUSH2 0x721 JUMP JUMPDEST POP PUSH1 0x20 DUP3 ADD MLOAD DUP2 PUSH1 0x1 ADD SWAP1 DUP2 PUSH2 0x3D5 SWAP2 SWAP1 PUSH2 0x721 JUMP JUMPDEST POP PUSH1 0x40 DUP3 ADD MLOAD DUP2 PUSH1 0x2 ADD SSTORE PUSH1 0x60 DUP3 ADD MLOAD DUP2 PUSH1 0x3 ADD PUSH0 PUSH2 0x100 EXP DUP2 SLOAD DUP2 PUSH1 0xFF MUL NOT AND SWAP1 DUP4 ISZERO ISZERO MUL OR SWAP1 SSTORE POP SWAP1 POP POP JUMP JUMPDEST PUSH0 DUP2 MLOAD SWAP1 POP SWAP2 SWAP1 POP JUMP JUMPDEST PUSH0 DUP3 DUP3 MSTORE PUSH1 0x20 DUP3 ADD SWAP1 POP SWAP3 SWAP2 POP POP JUMP JUMPDEST DUP3 DUP2 DUP4 MCOPY PUSH0 DUP4 DUP4 ADD MSTORE POP POP POP JUMP JUMPDEST PUSH0 PUSH1 0x1F NOT PUSH1 0x1F DUP4 ADD AND SWAP1 POP SWAP2 SWAP1 POP JUMP JUMPDEST PUSH0 PUSH2 0x446 DUP3 PUSH2 0x404 JUMP JUMPDEST PUSH2 0x450 DUP2 DUP6 PUSH2 0x40E JUMP JUMPDEST SWAP4 POP PUSH2 0x460 DUP2 DUP6 PUSH1 0x20 DUP7 ADD PUSH2 0x41E JUMP JUMPDEST PUSH2 0x469 DUP2 PUSH2 0x42C JUMP JUMPDEST DUP5 ADD SWAP2 POP POP SWAP3 SWAP2 POP POP JUMP JUMPDEST PUSH0 DUP2 SWAP1 POP SWAP2 SWAP1 POP JUMP JUMPDEST PUSH2 0x486 DUP2 PUSH2 0x474 JUMP JUMPDEST DUP3 MSTORE POP POP JUMP JUMPDEST PUSH0 DUP2 ISZERO ISZERO SWAP1 POP SWAP2 SWAP1 POP JUMP JUMPDEST PUSH2 0x4A0 DUP2 PUSH2 0x48C JUMP JUMPDEST DUP3 MSTORE POP POP JUMP JUMPDEST PUSH0 PUSH1 0x80 DUP3 ADD SWAP1 POP DUP2 DUP2 SUB PUSH0 DUP4 ADD MSTORE PUSH2 0x4BE DUP2 DUP8 PUSH2 0x43C JUMP JUMPDEST SWAP1 POP DUP2 DUP2 SUB PUSH1 0x20 DUP4 ADD MSTORE PUSH2 0x4D2 DUP2 DUP7 PUSH2 0x43C JUMP JUMPDEST SWAP1 POP PUSH2 0x4E1 PUSH1 0x40 DUP4 ADD DUP6 PUSH2 0x47D JUMP JUMPDEST PUSH2 0x4EE PUSH1 0x60 DUP4 ADD DUP5 PUSH2 0x497 JUMP JUMPDEST SWAP6 SWAP5 POP POP POP POP POP JUMP JUMPDEST PUSH32 0x4E487B7100000000000000000000000000000000000000000000000000000000 PUSH0 MSTORE PUSH1 0x22 PUSH1 0x4 MSTORE PUSH1 0x24 PUSH0 REVERT JUMPDEST PUSH0 PUSH1 0x2 DUP3 DIV SWAP1 POP PUSH1 0x1 DUP3 AND DUP1 PUSH2 0x53B JUMPI PUSH1 0x7F DUP3 AND SWAP2 POP JUMPDEST PUSH1 0x20 DUP3 LT DUP2 SUB PUSH2 0x54E JUMPI PUSH2 0x54D PUSH2 0x4F7 JUMP JUMPDEST JUMPDEST POP SWAP2 SWAP1 POP JUMP JUMPDEST PUSH32 0x4E487B7100000000000000000000000000000000000000000000000000000000 PUSH0 MSTORE PUSH1 0x41 PUSH1 0x4 MSTORE PUSH1 0x24 PUSH0 REVERT JUMPDEST PUSH0 DUP2 SWAP1 POP DUP2 PUSH0 MSTORE PUSH1 0x20 PUSH0 KECCAK256 SWAP1 POP SWAP2 SWAP1 POP JUMP JUMPDEST PUSH0 PUSH1 0x20 PUSH1 0x1F DUP4 ADD DIV SWAP1 POP SWAP2 SWAP1 POP JUMP JUMPDEST PUSH0 DUP3 DUP3 SHL SWAP1 POP SWAP3 SWAP2 POP POP JUMP JUMPDEST PUSH0 PUSH1 0x8 DUP4 MUL PUSH2 0x5DD PUSH32 0xFFFFFFFFFFFFFFFFFFFFFFFFFFFFFFFFFFFFFFFFFFFFFFFFFFFFFFFFFFFFFFFF DUP3 PUSH2 0x5A2 JUMP JUMPDEST PUSH2 0x5E7 DUP7 DUP4 PUSH2 0x5A2 JUMP JUMPDEST SWAP6 POP DUP1 NOT DUP5 AND SWAP4 POP DUP1 DUP7 AND DUP5 OR SWAP3 POP POP POP SWAP4 SWAP3 POP POP POP JUMP JUMPDEST PUSH0 DUP2 SWAP1 POP SWAP2 SWAP1 POP JUMP JUMPDEST PUSH0 PUSH2 0x622 PUSH2 0x61D PUSH2 0x618 DUP5 PUSH2 0x474 JUMP JUMPDEST PUSH2 0x5FF JUMP JUMPDEST PUSH2 0x474 JUMP JUMPDEST SWAP1 POP SWAP2 SWAP1 POP JUMP JUMPDEST PUSH0 DUP2 SWAP1 POP SWAP2 SWAP1 POP JUMP JUMPDEST PUSH2 0x63B DUP4 PUSH2 0x608 JUMP JUMPDEST PUSH2 0x64F PUSH2 0x647 DUP3 PUSH2 0x629 JUMP JUMPDEST DUP5 DUP5 SLOAD PUSH2 0x5AE JUMP JUMPDEST DUP3 SSTORE POP POP POP POP JUMP JUMPDEST PUSH0 PUSH0 SWAP1 POP SWAP1 JUMP JUMPDEST PUSH2 0x666 PUSH2 0x657 JUMP JUMPDEST PUSH2 0x671 DUP2 DUP5 DUP5 PUSH2 0x632 JUMP JUMPDEST POP POP POP JUMP JUMPDEST JUMPDEST DUP2 DUP2 LT ISZERO PUSH2 0x694 JUMPI PUSH2 0x689 PUSH0 DUP3 PUSH2 0x65E JUMP JUMPDEST PUSH1 0x1 DUP2 ADD SWAP1 POP PUSH2 0x677 JUMP JUMPDEST POP POP JUMP JUMPDEST PUSH1 0x1F DUP3 GT ISZERO PUSH2 0x6D9 JUMPI PUSH2 0x6AA DUP2 PUSH2 0x581 JUMP JUMPDEST PUSH2 0x6B3 DUP5 PUSH2 0x593 JUMP JUMPDEST DUP2 ADD PUSH1 0x20 DUP6 LT ISZERO PUSH2 0x6C2 JUMPI DUP2 SWAP1 POP JUMPDEST PUSH2 0x6D6 PUSH2 0x6CE DUP6 PUSH2 0x593 JUMP JUMPDEST DUP4 ADD DUP3 PUSH2 0x676 JUMP JUMPDEST POP POP JUMPDEST POP POP POP JUMP JUMPDEST PUSH0 DUP3 DUP3 SHR SWAP1 POP SWAP3 SWAP2 POP POP JUMP JUMPDEST PUSH0 PUSH2 0x6F9 PUSH0 NOT DUP5 PUSH1 0x8 MUL PUSH2 0x6DE JUMP JUMPDEST NOT DUP1 DUP4 AND SWAP2 POP POP SWAP3 SWAP2 POP POP JUMP JUMPDEST PUSH0 PUSH2 0x711 DUP4 DUP4 PUSH2 0x6EA JUMP JUMPDEST SWAP2 POP DUP3 PUSH1 0x2 MUL DUP3 OR SWAP1 POP SWAP3 SWAP2 POP POP JUMP JUMPDEST PUSH2 0x72A DUP3 PUSH2 0x404 JUMP JUMPDEST PUSH8 0xFFFFFFFFFFFFFFFF DUP2 GT ISZERO PUSH2 0x743 JUMPI PUSH2 0x742 PUSH2 0x554 JUMP JUMPDEST JUMPDEST PUSH2 0x74D DUP3 SLOAD PUSH2 0x524 JUMP JUMPDEST PUSH2 0x758 DUP3 DUP3 DUP6 PUSH2 0x698 JUMP JUMPDEST PUSH0 PUSH1 0x20 SWAP1 POP PUSH1 0x1F DUP4 GT PUSH1 0x1 DUP2 EQ PUSH2 0x789 JUMPI PUSH0 DUP5 ISZERO PUSH2 0x777 JUMPI DUP3 DUP8 ADD MLOAD SWAP1 POP JUMPDEST PUSH2 0x781 DUP6 DUP3 PUSH2 0x706 JUMP JUMPDEST DUP7 SSTORE POP PUSH2 0x7E8 JUMP JUMPDEST PUSH1 0x1F NOT DUP5 AND PUSH2 0x797 DUP7 PUSH2 0x581 JUMP JUMPDEST PUSH0 JUMPDEST DUP3 DUP2 LT ISZERO PUSH2 0x7BE JUMPI DUP5 DUP10 ADD MLOAD DUP3 SSTORE PUSH1 0x1 DUP3 ADD SWAP2 POP PUSH1 0x20 DUP6 ADD SWAP5 POP PUSH1 0x20 DUP2 ADD SWAP1 POP PUSH2 0x799 JUMP JUMPDEST DUP7 DUP4 LT ISZERO PUSH2 0x7DB JUMPI DUP5 DUP10 ADD MLOAD PUSH2 0x7D7 PUSH1 0x1F DUP10 AND DUP3 PUSH2 0x6EA JUMP JUMPDEST DUP4 SSTORE POP JUMPDEST PUSH1 0x1 PUSH1 0x2 DUP9 MUL ADD DUP9 SSTORE POP POP POP JUMPDEST POP POP POP POP POP POP JUMP INVALID LOG2 PUSH5 0x6970667358 0x22 SLT KECCAK256 AND ISZERO 0xFC PUSH19 0x3D0C2C6C439DA935B69A0A90C7D1512E13A249 0xC8 CALLDATACOPY 0xED SELFDESTRUCT 0xF6 NUMBER 0xD0 SHR 0xC1 PUSH5 0x736F6C6343 STOP ADDMOD SHR STOP CALLER "
				},
				"gasEstimates": {
					"creation": {
						"codeDepositCost": "417200",
						"executionCost": "infinite",
						"totalCost": "infinite"
					},
					"external": {
						"get_Book1()": "infinite",
						"get_Book2()": "infinite",
						"set_Book1()": "infinite"
					}
				},
				"methodIdentifiers": {
					"get_Book1()": "a05da919",
					"get_Book2()": "2af47108",
					"set_Book1()": "e136b5e9"
				}
			},
			"storageLayout": {
				"storage": [
					{
						"astId": 13,
						"contract": "Day-14/code2.sol:SolidityTest",
						"label": "book1",
						"offset": 0,
						"slot": "0",
						"type": "t_struct(Book)10_storage"
					},
					{
						"astId": 22,
						"contract": "Day-14/code2.sol:SolidityTest",
						"label": "book2",
						"offset": 0,
						"slot": "4",
						"type": "t_struct(Book)10_storage"
					}
				],
				"types": {
					"t_bool": {
						"encoding": "inplace",
						"label": "bool",
						"numberOfBytes": "1"
					},
					"t_string_storage": {
						"encoding": "bytes",
						"label": "string",
						"numberOfBytes": "32"
					},
					"t_struct(Book)10_storage": {
						"encoding": "inplace",
						"label": "struct SolidityTest.Book",
						"members": [
							{
								"astId": 3,
								"contract": "Day-14/code2.sol:SolidityTest",
								"label": "name",
								"offset": 0,
								"slot": "0",
								"type": "t_string_storage"
							},
							{
								"astId": 5,
								"contract": "Day-14/code2.sol:SolidityTest",
								"label": "writter",
								"offset": 0,
								"slot": "1",
								"type": "t_string_storage"
							},
							{
								"astId": 7,
								"contract": "Day-14/code2.sol:SolidityTest",
								"label": "id",
								"offset": 0,
								"slot": "2",
								"type": "t_uint256"
							},
							{
								"astId": 9,
								"contract": "Day-14/code2.sol:SolidityTest",
								"label": "present",
								"offset": 0,
								"slot": "3",
								"type": "t_bool"
							}
						],
						"numberOfBytes": "128"
					},
					"t_uint256": {
						"encoding": "inplace",
						"label": "uint256",
						"numberOfBytes": "32"
					}
				}
			},
			"userdoc": {
				"kind": "user",
				"methods": {},
				"version": 1
			}
		}
	}
}