{
	"Day-35/code5.sol": {
		"SolidityTest": {
			"abi": [
				{
					"inputs": [],
					"name": "decison",
					"outputs": [
						{
							"internalType": "bool",
							"name": "",
							"type": "bool"
						}
					],
					"stateMutability": "nonpayable",
					"type": "function"
				}
			],
			"devdoc": {
				"kind": "dev",
				"methods": {},
				"version": 1
			},
			"evm": {
				"assembly": "    /* \"Day-35/code5.sol\":68:267  contract SolidityTest{... */\n  mstore(0x40, 0x80)\n    /* \"Day-35/code5.sol\":105:107  10 */\n  0x0a\n    /* \"Day-35/code5.sol\":96:107  uint i = 10 */\n  0x00\n  sstore\n    /* \"Day-35/code5.sol\":68:267  contract SolidityTest{... */\n  callvalue\n  dup1\n  iszero\n  tag_1\n  jumpi\n  0x00\n  dup1\n  revert\ntag_1:\n  pop\n  dataSize(sub_0)\n  dup1\n  dataOffset(sub_0)\n  0x00\n  codecopy\n  0x00\n  return\nstop\n\nsub_0: assembly {\n        /* \"Day-35/code5.sol\":68:267  contract SolidityTest{... */\n      mstore(0x40, 0x80)\n      callvalue\n      dup1\n      iszero\n      tag_1\n      jumpi\n      0x00\n      dup1\n      revert\n    tag_1:\n      pop\n      jumpi(tag_2, lt(calldatasize, 0x04))\n      shr(0xe0, calldataload(0x00))\n      dup1\n      0xd3a526c6\n      eq\n      tag_3\n      jumpi\n    tag_2:\n      0x00\n      dup1\n      revert\n        /* \"Day-35/code5.sol\":116:264  function decison() public returns(bool){... */\n    tag_3:\n      tag_4\n      tag_5\n      jump\t// in\n    tag_4:\n      mload(0x40)\n      tag_6\n      swap2\n      swap1\n      tag_7\n      jump\t// in\n    tag_6:\n      mload(0x40)\n      dup1\n      swap2\n      sub\n      swap1\n      return\n    tag_5:\n        /* \"Day-35/code5.sol\":150:154  bool */\n      0x00\n        /* \"Day-35/code5.sol\":173:175  10 */\n      0x0a\n        /* \"Day-35/code5.sol\":169:170  i */\n      sload(0x00)\n        /* \"Day-35/code5.sol\":169:175  i < 10 */\n      lt\n        /* \"Day-35/code5.sol\":166:257  if(i < 10){... */\n      iszero\n      tag_9\n      jumpi\n        /* \"Day-35/code5.sol\":198:202  true */\n      0x01\n        /* \"Day-35/code5.sol\":191:202  return true */\n      swap1\n      pop\n      jump(tag_8)\n        /* \"Day-35/code5.sol\":166:257  if(i < 10){... */\n    tag_9:\n        /* \"Day-35/code5.sol\":240:245  false */\n      0x00\n        /* \"Day-35/code5.sol\":233:245  return false */\n      swap1\n      pop\n        /* \"Day-35/code5.sol\":116:264  function decison() public returns(bool){... */\n    tag_8:\n      swap1\n      jump\t// out\n        /* \"#utility.yul\":7:97   */\n    tag_11:\n        /* \"#utility.yul\":41:48   */\n      0x00\n        /* \"#utility.yul\":84:89   */\n      dup2\n        /* \"#utility.yul\":77:90   */\n      iszero\n        /* \"#utility.yul\":70:91   */\n      iszero\n        /* \"#utility.yul\":59:91   */\n      swap1\n      pop\n        /* \"#utility.yul\":7:97   */\n      swap2\n      swap1\n      pop\n      jump\t// out\n        /* \"#utility.yul\":103:212   */\n    tag_12:\n        /* \"#utility.yul\":184:205   */\n      tag_16\n        /* \"#utility.yul\":199:204   */\n      dup2\n        /* \"#utility.yul\":184:205   */\n      tag_11\n      jump\t// in\n    tag_16:\n        /* \"#utility.yul\":179:182   */\n      dup3\n        /* \"#utility.yul\":172:206   */\n      mstore\n        /* \"#utility.yul\":103:212   */\n      pop\n      pop\n      jump\t// out\n        /* \"#utility.yul\":218:428   */\n    tag_7:\n        /* \"#utility.yul\":305:309   */\n      0x00\n        /* \"#utility.yul\":343:345   */\n      0x20\n        /* \"#utility.yul\":332:341   */\n      dup3\n        /* \"#utility.yul\":328:346   */\n      add\n        /* \"#utility.yul\":320:346   */\n      swap1\n      pop\n        /* \"#utility.yul\":356:421   */\n      tag_18\n        /* \"#utility.yul\":418:419   */\n      0x00\n        /* \"#utility.yul\":407:416   */\n      dup4\n        /* \"#utility.yul\":403:420   */\n      add\n        /* \"#utility.yul\":394:400   */\n      dup5\n        /* \"#utility.yul\":356:421   */\n      tag_12\n      jump\t// in\n    tag_18:\n        /* \"#utility.yul\":218:428   */\n      swap3\n      swap2\n      pop\n      pop\n      jump\t// out\n\n    auxdata: 0xa2646970667358221220f9cddcfe21bcfb4d66fe6fecba596cc76aba5eaf7b1ff0eace48cccb74bd712f64736f6c634300081a0033\n}\n",
				"bytecode": {
					"linkReferences": {},
					"object": "6080604052600a5f553480156012575f80fd5b5060c280601e5f395ff3fe6080604052348015600e575f80fd5b50600436106026575f3560e01c8063d3a526c614602a575b5f80fd5b60306044565b604051603b91906075565b60405180910390f35b5f600a5f54101560565760019050605a565b5f90505b90565b5f8115159050919050565b606f81605d565b82525050565b5f60208201905060865f8301846068565b9291505056fea2646970667358221220f9cddcfe21bcfb4d66fe6fecba596cc76aba5eaf7b1ff0eace48cccb74bd712f64736f6c634300081a0033",
					"opcodes": "PUSH1 0x80 PUSH1 0x40 MSTORE PUSH1 0xA PUSH0 SSTORE CALLVALUE DUP1 ISZERO PUSH1 0x12 JUMPI PUSH0 DUP1 REVERT JUMPDEST POP PUSH1 0xC2 DUP1 PUSH1 0x1E PUSH0 CODECOPY PUSH0 RETURN INVALID PUSH1 0x80 PUSH1 0x40 MSTORE CALLVALUE DUP1 ISZERO PUSH1 0xE JUMPI PUSH0 DUP1 REVERT JUMPDEST POP PUSH1 0x4 CALLDATASIZE LT PUSH1 0x26 JUMPI PUSH0 CALLDATALOAD PUSH1 0xE0 SHR DUP1 PUSH4 0xD3A526C6 EQ PUSH1 0x2A JUMPI JUMPDEST PUSH0 DUP1 REVERT JUMPDEST PUSH1 0x30 PUSH1 0x44 JUMP JUMPDEST PUSH1 0x40 MLOAD PUSH1 0x3B SWAP2 SWAP1 PUSH1 0x75 JUMP JUMPDEST PUSH1 0x40 MLOAD DUP1 SWAP2 SUB SWAP1 RETURN JUMPDEST PUSH0 PUSH1 0xA PUSH0 SLOAD LT ISZERO PUSH1 0x56 JUMPI PUSH1 0x1 SWAP1 POP PUSH1 0x5A JUMP JUMPDEST PUSH0 SWAP1 POP JUMPDEST SWAP1 JUMP JUMPDEST PUSH0 DUP2 ISZERO ISZERO SWAP1 POP SWAP2 SWAP1 POP JUMP JUMPDEST PUSH1 0x6F DUP2 PUSH1 0x5D JUMP JUMPDEST DUP3 MSTORE POP POP JUMP JUMPDEST PUSH0 PUSH1 0x20 DUP3 ADD SWAP1 POP PUSH1 0x86 PUSH0 DUP4 ADD DUP5 PUSH1 0x68 JUMP JUMPDEST SWAP3 SWAP2 POP POP JUMP INVALID LOG2 PUSH5 0x6970667358 0x22 SLT KECCAK256 0xF9 0xCD 0xDC INVALID 0x21 0xBC 0xFB 0x4D PUSH7 0xFE6FECBA596CC7 PUSH11 0xBA5EAF7B1FF0EACE48CCCB PUSH21 0xBD712F64736F6C634300081A003300000000000000 "
				},
				"gasEstimates": {
					"creation": {
						"codeDepositCost": "38800",
						"executionCost": "22196",
						"totalCost": "60996"
					},
					"external": {
						"decison()": "2452"
					}
				},
				"methodIdentifiers": {
					"decison()": "d3a526c6"
				}
			},
			"storageLayout": {
				"storage": [
					{
						"astId": 4,
						"contract": "Day-35/code5.sol:SolidityTest",
						"label": "i",
						"offset": 0,
						"slot": "0",
						"type": "t_uint256"
					}
				],
				"types": {
					"t_uint256": {
						"encoding": "inplace",
						"label": "uint256",
						"numberOfBytes": "32"
					}
				}
			},
			"userdoc": {
				"kind": "user",
				"methods": {},
				"version": 1
			}
		}
	}
}