{
	"Day-35/code7.sol": {
		"UserManagement": {
			"abi": [
				{
					"anonymous": false,
					"inputs": [
						{
							"indexed": false,
							"internalType": "address",
							"name": "user",
							"type": "address"
						}
					],
					"name": "UserAdded",
					"type": "event"
				},
				{
					"anonymous": false,
					"inputs": [
						{
							"indexed": false,
							"internalType": "address",
							"name": "user",
							"type": "address"
						}
					],
					"name": "UserRemoved",
					"type": "event"
				},
				{
					"inputs": [
						{
							"internalType": "address",
							"name": "_user",
							"type": "address"
						}
					],
					"name": "addUser",
					"outputs": [],
					"stateMutability": "nonpayable",
					"type": "function"
				},
				{
					"inputs": [],
					"name": "getUsers",
					"outputs": [
						{
							"internalType": "address[]",
							"name": "",
							"type": "address[]"
						}
					],
					"stateMutability": "view",
					"type": "function"
				},
				{
					"inputs": [
						{
							"internalType": "address",
							"name": "_user",
							"type": "address"
						}
					],
					"name": "removeUser",
					"outputs": [],
					"stateMutability": "nonpayable",
					"type": "function"
				},
				{
					"inputs": [
						{
							"internalType": "address",
							"name": "_user",
							"type": "address"
						}
					],
					"name": "userExists",
					"outputs": [
						{
							"internalType": "bool",
							"name": "",
							"type": "bool"
						}
					],
					"stateMutability": "view",
					"type": "function"
				}
			],
			"devdoc": {
				"kind": "dev",
				"methods": {},
				"version": 1
			},
			"evm": {
				"assembly": "    /* \"Day-35/code7.sol\":60:1433  contract UserManagement {... */\n  mstore(0x40, 0x80)\n  callvalue\n  dup1\n  iszero\n  tag_1\n  jumpi\n  0x00\n  dup1\n  revert\ntag_1:\n  pop\n  dataSize(sub_0)\n  dup1\n  dataOffset(sub_0)\n  0x00\n  codecopy\n  0x00\n  return\nstop\n\nsub_0: assembly {\n        /* \"Day-35/code7.sol\":60:1433  contract UserManagement {... */\n      mstore(0x40, 0x80)\n      callvalue\n      dup1\n      iszero\n      tag_1\n      jumpi\n      0x00\n      dup1\n      revert\n    tag_1:\n      pop\n      jumpi(tag_2, lt(calldatasize, 0x04))\n      shr(0xe0, calldataload(0x00))\n      dup1\n      0xce8e3e\n      eq\n      tag_3\n      jumpi\n      dup1\n      0x0e666e49\n      eq\n      tag_4\n      jumpi\n      dup1\n      0x421b2d8b\n      eq\n      tag_5\n      jumpi\n      dup1\n      0x98575188\n      eq\n      tag_6\n      jumpi\n    tag_2:\n      0x00\n      dup1\n      revert\n        /* \"Day-35/code7.sol\":1181:1271  function getUsers() public view returns (address[] memory) {... */\n    tag_3:\n      tag_7\n      tag_8\n      jump\t// in\n    tag_7:\n      mload(0x40)\n      tag_9\n      swap2\n      swap1\n      tag_10\n      jump\t// in\n    tag_9:\n      mload(0x40)\n      dup1\n      swap2\n      sub\n      swap1\n      return\n        /* \"Day-35/code7.sol\":1329:1430  function userExists(address _user) public view returns (bool) {... */\n    tag_4:\n      tag_11\n      0x04\n      dup1\n      calldatasize\n      sub\n      dup2\n      add\n      swap1\n      tag_12\n      swap2\n      swap1\n      tag_13\n      jump\t// in\n    tag_12:\n      tag_14\n      jump\t// in\n    tag_11:\n      mload(0x40)\n      tag_15\n      swap2\n      swap1\n      tag_16\n      jump\t// in\n    tag_15:\n      mload(0x40)\n      dup1\n      swap2\n      sub\n      swap1\n      return\n        /* \"Day-35/code7.sol\":428:623  function addUser(address _user) public {... */\n    tag_5:\n      tag_17\n      0x04\n      dup1\n      calldatasize\n      sub\n      dup2\n      add\n      swap1\n      tag_18\n      swap2\n      swap1\n      tag_13\n      jump\t// in\n    tag_18:\n      tag_19\n      jump\t// in\n    tag_17:\n      stop\n        /* \"Day-35/code7.sol\":665:1131  function removeUser(address _user) public {... */\n    tag_6:\n      tag_20\n      0x04\n      dup1\n      calldatasize\n      sub\n      dup2\n      add\n      swap1\n      tag_21\n      swap2\n      swap1\n      tag_13\n      jump\t// in\n    tag_21:\n      tag_22\n      jump\t// in\n    tag_20:\n      stop\n        /* \"Day-35/code7.sol\":1181:1271  function getUsers() public view returns (address[] memory) {... */\n    tag_8:\n        /* \"Day-35/code7.sol\":1222:1238  address[] memory */\n      0x60\n        /* \"Day-35/code7.sol\":1258:1263  users */\n      0x00\n        /* \"Day-35/code7.sol\":1251:1263  return users */\n      dup1\n      sload\n      dup1\n      0x20\n      mul\n      0x20\n      add\n      mload(0x40)\n      swap1\n      dup2\n      add\n      0x40\n      mstore\n      dup1\n      swap3\n      swap2\n      swap1\n      dup2\n      dup2\n      mstore\n      0x20\n      add\n      dup3\n      dup1\n      sload\n      dup1\n      iszero\n      tag_24\n      jumpi\n      0x20\n      mul\n      dup3\n      add\n      swap2\n      swap1\n      0x00\n      mstore\n      keccak256(0x00, 0x20)\n      swap1\n    tag_25:\n      dup2\n      0x00\n      swap1\n      sload\n      swap1\n      0x0100\n      exp\n      swap1\n      div\n      0xffffffffffffffffffffffffffffffffffffffff\n      and\n      0xffffffffffffffffffffffffffffffffffffffff\n      and\n      dup2\n      mstore\n      0x20\n      add\n      swap1\n      0x01\n      add\n      swap1\n      dup1\n      dup4\n      gt\n      tag_25\n      jumpi\n    tag_24:\n      pop\n      pop\n      pop\n      pop\n      pop\n      swap1\n      pop\n        /* \"Day-35/code7.sol\":1181:1271  function getUsers() public view returns (address[] memory) {... */\n      swap1\n      jump\t// out\n        /* \"Day-35/code7.sol\":1329:1430  function userExists(address _user) public view returns (bool) {... */\n    tag_14:\n        /* \"Day-35/code7.sol\":1385:1389  bool */\n      0x00\n        /* \"Day-35/code7.sol\":1409:1415  isUser */\n      0x01\n        /* \"Day-35/code7.sol\":1409:1422  isUser[_user] */\n      0x00\n        /* \"Day-35/code7.sol\":1416:1421  _user */\n      dup4\n        /* \"Day-35/code7.sol\":1409:1422  isUser[_user] */\n      0xffffffffffffffffffffffffffffffffffffffff\n      and\n      0xffffffffffffffffffffffffffffffffffffffff\n      and\n      dup2\n      mstore\n      0x20\n      add\n      swap1\n      dup2\n      mstore\n      0x20\n      add\n      0x00\n      keccak256\n      0x00\n      swap1\n      sload\n      swap1\n      0x0100\n      exp\n      swap1\n      div\n      0xff\n      and\n        /* \"Day-35/code7.sol\":1402:1422  return isUser[_user] */\n      swap1\n      pop\n        /* \"Day-35/code7.sol\":1329:1430  function userExists(address _user) public view returns (bool) {... */\n      swap2\n      swap1\n      pop\n      jump\t// out\n        /* \"Day-35/code7.sol\":428:623  function addUser(address _user) public {... */\n    tag_19:\n        /* \"Day-35/code7.sol\":487:493  isUser */\n      0x01\n        /* \"Day-35/code7.sol\":487:500  isUser[_user] */\n      0x00\n        /* \"Day-35/code7.sol\":494:499  _user */\n      dup3\n        /* \"Day-35/code7.sol\":487:500  isUser[_user] */\n      0xffffffffffffffffffffffffffffffffffffffff\n      and\n      0xffffffffffffffffffffffffffffffffffffffff\n      and\n      dup2\n      mstore\n      0x20\n      add\n      swap1\n      dup2\n      mstore\n      0x20\n      add\n      0x00\n      keccak256\n      0x00\n      swap1\n      sload\n      swap1\n      0x0100\n      exp\n      swap1\n      div\n      0xff\n      and\n        /* \"Day-35/code7.sol\":486:500  !isUser[_user] */\n      iszero\n        /* \"Day-35/code7.sol\":478:524  require(!isUser[_user], \"User already exists\") */\n      tag_28\n      jumpi\n      mload(0x40)\n      0x08c379a000000000000000000000000000000000000000000000000000000000\n      dup2\n      mstore\n      0x04\n      add\n      tag_29\n      swap1\n      tag_30\n      jump\t// in\n    tag_29:\n      mload(0x40)\n      dup1\n      swap2\n      sub\n      swap1\n      revert\n    tag_28:\n        /* \"Day-35/code7.sol\":535:540  users */\n      0x00\n        /* \"Day-35/code7.sol\":546:551  _user */\n      dup2\n        /* \"Day-35/code7.sol\":535:552  users.push(_user) */\n      swap1\n      dup1\n      0x01\n      dup2\n      sload\n      add\n      dup1\n      dup3\n      sstore\n      dup1\n      swap2\n      pop\n      pop\n      0x01\n      swap1\n      sub\n      swap1\n      0x00\n      mstore\n      keccak256(0x00, 0x20)\n      add\n      0x00\n      swap1\n      swap2\n      swap1\n      swap2\n      swap1\n      swap2\n      0x0100\n      exp\n      dup2\n      sload\n      dup2\n      0xffffffffffffffffffffffffffffffffffffffff\n      mul\n      not\n      and\n      swap1\n      dup4\n      0xffffffffffffffffffffffffffffffffffffffff\n      and\n      mul\n      or\n      swap1\n      sstore\n      pop\n        /* \"Day-35/code7.sol\":579:583  true */\n      0x01\n        /* \"Day-35/code7.sol\":563:569  isUser */\n      dup1\n        /* \"Day-35/code7.sol\":563:576  isUser[_user] */\n      0x00\n        /* \"Day-35/code7.sol\":570:575  _user */\n      dup4\n        /* \"Day-35/code7.sol\":563:576  isUser[_user] */\n      0xffffffffffffffffffffffffffffffffffffffff\n      and\n      0xffffffffffffffffffffffffffffffffffffffff\n      and\n      dup2\n      mstore\n      0x20\n      add\n      swap1\n      dup2\n      mstore\n      0x20\n      add\n      0x00\n      keccak256\n      0x00\n        /* \"Day-35/code7.sol\":563:583  isUser[_user] = true */\n      0x0100\n      exp\n      dup2\n      sload\n      dup2\n      0xff\n      mul\n      not\n      and\n      swap1\n      dup4\n      iszero\n      iszero\n      mul\n      or\n      swap1\n      sstore\n      pop\n        /* \"Day-35/code7.sol\":599:615  UserAdded(_user) */\n      0x19ef9a4877199f89440a26acb26895ec02ed86f2df1aeaa90dc18041b892f71f\n        /* \"Day-35/code7.sol\":609:614  _user */\n      dup2\n        /* \"Day-35/code7.sol\":599:615  UserAdded(_user) */\n      mload(0x40)\n      tag_32\n      swap2\n      swap1\n      tag_33\n      jump\t// in\n    tag_32:\n      mload(0x40)\n      dup1\n      swap2\n      sub\n      swap1\n      log1\n        /* \"Day-35/code7.sol\":428:623  function addUser(address _user) public {... */\n      pop\n      jump\t// out\n        /* \"Day-35/code7.sol\":665:1131  function removeUser(address _user) public {... */\n    tag_22:\n        /* \"Day-35/code7.sol\":726:732  isUser */\n      0x01\n        /* \"Day-35/code7.sol\":726:739  isUser[_user] */\n      0x00\n        /* \"Day-35/code7.sol\":733:738  _user */\n      dup3\n        /* \"Day-35/code7.sol\":726:739  isUser[_user] */\n      0xffffffffffffffffffffffffffffffffffffffff\n      and\n      0xffffffffffffffffffffffffffffffffffffffff\n      and\n      dup2\n      mstore\n      0x20\n      add\n      swap1\n      dup2\n      mstore\n      0x20\n      add\n      0x00\n      keccak256\n      0x00\n      swap1\n      sload\n      swap1\n      0x0100\n      exp\n      swap1\n      div\n      0xff\n      and\n        /* \"Day-35/code7.sol\":718:763  require(isUser[_user], \"User does not exist\") */\n      tag_35\n      jumpi\n      mload(0x40)\n      0x08c379a000000000000000000000000000000000000000000000000000000000\n      dup2\n      mstore\n      0x04\n      add\n      tag_36\n      swap1\n      tag_37\n      jump\t// in\n    tag_36:\n      mload(0x40)\n      dup1\n      swap2\n      sub\n      swap1\n      revert\n    tag_35:\n        /* \"Day-35/code7.sol\":841:847  uint i */\n      0x00\n        /* \"Day-35/code7.sol\":836:1048  for (uint i = 0; i < users.length; i++) {... */\n    tag_38:\n        /* \"Day-35/code7.sol\":857:862  users */\n      0x00\n        /* \"Day-35/code7.sol\":857:869  users.length */\n      dup1\n      sload\n      swap1\n      pop\n        /* \"Day-35/code7.sol\":853:854  i */\n      dup2\n        /* \"Day-35/code7.sol\":853:869  i < users.length */\n      lt\n        /* \"Day-35/code7.sol\":836:1048  for (uint i = 0; i < users.length; i++) {... */\n      iszero\n      tag_39\n      jumpi\n        /* \"Day-35/code7.sol\":907:912  _user */\n      dup2\n        /* \"Day-35/code7.sol\":895:912  users[i] == _user */\n      0xffffffffffffffffffffffffffffffffffffffff\n      and\n        /* \"Day-35/code7.sol\":895:900  users */\n      0x00\n        /* \"Day-35/code7.sol\":901:902  i */\n      dup3\n        /* \"Day-35/code7.sol\":895:903  users[i] */\n      dup2\n      sload\n      dup2\n      lt\n      tag_41\n      jumpi\n      tag_42\n      tag_43\n      jump\t// in\n    tag_42:\n    tag_41:\n      swap1\n      0x00\n      mstore\n      keccak256(0x00, 0x20)\n      add\n      0x00\n      swap1\n      sload\n      swap1\n      0x0100\n      exp\n      swap1\n      div\n      0xffffffffffffffffffffffffffffffffffffffff\n      and\n        /* \"Day-35/code7.sol\":895:912  users[i] == _user */\n      0xffffffffffffffffffffffffffffffffffffffff\n      and\n      sub\n        /* \"Day-35/code7.sol\":891:1037  if (users[i] == _user) {... */\n      tag_45\n      jumpi\n        /* \"Day-35/code7.sol\":944:949  users */\n      0x00\n        /* \"Day-35/code7.sol\":965:966  1 */\n      0x01\n        /* \"Day-35/code7.sol\":950:955  users */\n      0x00\n        /* \"Day-35/code7.sol\":950:962  users.length */\n      dup1\n      sload\n      swap1\n      pop\n        /* \"Day-35/code7.sol\":950:966  users.length - 1 */\n      tag_46\n      swap2\n      swap1\n      tag_47\n      jump\t// in\n    tag_46:\n        /* \"Day-35/code7.sol\":944:967  users[users.length - 1] */\n      dup2\n      sload\n      dup2\n      lt\n      tag_48\n      jumpi\n      tag_49\n      tag_43\n      jump\t// in\n    tag_49:\n    tag_48:\n      swap1\n      0x00\n      mstore\n      keccak256(0x00, 0x20)\n      add\n      0x00\n      swap1\n      sload\n      swap1\n      0x0100\n      exp\n      swap1\n      div\n      0xffffffffffffffffffffffffffffffffffffffff\n      and\n        /* \"Day-35/code7.sol\":933:938  users */\n      0x00\n        /* \"Day-35/code7.sol\":939:940  i */\n      dup3\n        /* \"Day-35/code7.sol\":933:941  users[i] */\n      dup2\n      sload\n      dup2\n      lt\n      tag_51\n      jumpi\n      tag_52\n      tag_43\n      jump\t// in\n    tag_52:\n    tag_51:\n      swap1\n      0x00\n      mstore\n      keccak256(0x00, 0x20)\n      add\n      0x00\n        /* \"Day-35/code7.sol\":933:967  users[i] = users[users.length - 1] */\n      0x0100\n      exp\n      dup2\n      sload\n      dup2\n      0xffffffffffffffffffffffffffffffffffffffff\n      mul\n      not\n      and\n      swap1\n      dup4\n      0xffffffffffffffffffffffffffffffffffffffff\n      and\n      mul\n      or\n      swap1\n      sstore\n      pop\n        /* \"Day-35/code7.sol\":986:991  users */\n      0x00\n        /* \"Day-35/code7.sol\":986:997  users.pop() */\n      dup1\n      sload\n      dup1\n      tag_54\n      jumpi\n      tag_55\n      tag_56\n      jump\t// in\n    tag_55:\n    tag_54:\n      0x01\n      swap1\n      sub\n      dup2\n      dup2\n      swap1\n      0x00\n      mstore\n      keccak256(0x00, 0x20)\n      add\n      exp(0x0100, 0x00)\n      dup2\n      sload\n      swap1\n      0xffffffffffffffffffffffffffffffffffffffff\n      mul\n      not\n      and\n      swap1\n      sstore\n      swap1\n      sstore\n        /* \"Day-35/code7.sol\":1016:1021  break */\n      jump(tag_39)\n        /* \"Day-35/code7.sol\":891:1037  if (users[i] == _user) {... */\n    tag_45:\n        /* \"Day-35/code7.sol\":871:874  i++ */\n      dup1\n      dup1\n      0x01\n      add\n      swap2\n      pop\n      pop\n        /* \"Day-35/code7.sol\":836:1048  for (uint i = 0; i < users.length; i++) {... */\n      jump(tag_38)\n    tag_39:\n      pop\n        /* \"Day-35/code7.sol\":1084:1089  false */\n      0x00\n        /* \"Day-35/code7.sol\":1068:1074  isUser */\n      0x01\n        /* \"Day-35/code7.sol\":1068:1081  isUser[_user] */\n      0x00\n        /* \"Day-35/code7.sol\":1075:1080  _user */\n      dup4\n        /* \"Day-35/code7.sol\":1068:1081  isUser[_user] */\n      0xffffffffffffffffffffffffffffffffffffffff\n      and\n      0xffffffffffffffffffffffffffffffffffffffff\n      and\n      dup2\n      mstore\n      0x20\n      add\n      swap1\n      dup2\n      mstore\n      0x20\n      add\n      0x00\n      keccak256\n      0x00\n        /* \"Day-35/code7.sol\":1068:1089  isUser[_user] = false */\n      0x0100\n      exp\n      dup2\n      sload\n      dup2\n      0xff\n      mul\n      not\n      and\n      swap1\n      dup4\n      iszero\n      iszero\n      mul\n      or\n      swap1\n      sstore\n      pop\n        /* \"Day-35/code7.sol\":1105:1123  UserRemoved(_user) */\n      0xe9dce8c992623ce791725b21e857e33248d1f190a25b5168313420eebdaae99d\n        /* \"Day-35/code7.sol\":1117:1122  _user */\n      dup2\n        /* \"Day-35/code7.sol\":1105:1123  UserRemoved(_user) */\n      mload(0x40)\n      tag_58\n      swap2\n      swap1\n      tag_33\n      jump\t// in\n    tag_58:\n      mload(0x40)\n      dup1\n      swap2\n      sub\n      swap1\n      log1\n        /* \"Day-35/code7.sol\":665:1131  function removeUser(address _user) public {... */\n      pop\n      jump\t// out\n        /* \"#utility.yul\":7:121   */\n    tag_59:\n        /* \"#utility.yul\":74:80   */\n      0x00\n        /* \"#utility.yul\":108:113   */\n      dup2\n        /* \"#utility.yul\":102:114   */\n      mload\n        /* \"#utility.yul\":92:114   */\n      swap1\n      pop\n        /* \"#utility.yul\":7:121   */\n      swap2\n      swap1\n      pop\n      jump\t// out\n        /* \"#utility.yul\":127:311   */\n    tag_60:\n        /* \"#utility.yul\":226:237   */\n      0x00\n        /* \"#utility.yul\":260:266   */\n      dup3\n        /* \"#utility.yul\":255:258   */\n      dup3\n        /* \"#utility.yul\":248:267   */\n      mstore\n        /* \"#utility.yul\":300:304   */\n      0x20\n        /* \"#utility.yul\":295:298   */\n      dup3\n        /* \"#utility.yul\":291:305   */\n      add\n        /* \"#utility.yul\":276:305   */\n      swap1\n      pop\n        /* \"#utility.yul\":127:311   */\n      swap3\n      swap2\n      pop\n      pop\n      jump\t// out\n        /* \"#utility.yul\":317:449   */\n    tag_61:\n        /* \"#utility.yul\":384:388   */\n      0x00\n        /* \"#utility.yul\":407:410   */\n      dup2\n        /* \"#utility.yul\":399:410   */\n      swap1\n      pop\n        /* \"#utility.yul\":437:441   */\n      0x20\n        /* \"#utility.yul\":432:435   */\n      dup3\n        /* \"#utility.yul\":428:442   */\n      add\n        /* \"#utility.yul\":420:442   */\n      swap1\n      pop\n        /* \"#utility.yul\":317:449   */\n      swap2\n      swap1\n      pop\n      jump\t// out\n        /* \"#utility.yul\":455:581   */\n    tag_62:\n        /* \"#utility.yul\":492:499   */\n      0x00\n        /* \"#utility.yul\":532:574   */\n      0xffffffffffffffffffffffffffffffffffffffff\n        /* \"#utility.yul\":525:530   */\n      dup3\n        /* \"#utility.yul\":521:575   */\n      and\n        /* \"#utility.yul\":510:575   */\n      swap1\n      pop\n        /* \"#utility.yul\":455:581   */\n      swap2\n      swap1\n      pop\n      jump\t// out\n        /* \"#utility.yul\":587:683   */\n    tag_63:\n        /* \"#utility.yul\":624:631   */\n      0x00\n        /* \"#utility.yul\":653:677   */\n      tag_89\n        /* \"#utility.yul\":671:676   */\n      dup3\n        /* \"#utility.yul\":653:677   */\n      tag_62\n      jump\t// in\n    tag_89:\n        /* \"#utility.yul\":642:677   */\n      swap1\n      pop\n        /* \"#utility.yul\":587:683   */\n      swap2\n      swap1\n      pop\n      jump\t// out\n        /* \"#utility.yul\":689:797   */\n    tag_64:\n        /* \"#utility.yul\":766:790   */\n      tag_91\n        /* \"#utility.yul\":784:789   */\n      dup2\n        /* \"#utility.yul\":766:790   */\n      tag_63\n      jump\t// in\n    tag_91:\n        /* \"#utility.yul\":761:764   */\n      dup3\n        /* \"#utility.yul\":754:791   */\n      mstore\n        /* \"#utility.yul\":689:797   */\n      pop\n      pop\n      jump\t// out\n        /* \"#utility.yul\":803:982   */\n    tag_65:\n        /* \"#utility.yul\":872:882   */\n      0x00\n        /* \"#utility.yul\":893:939   */\n      tag_93\n        /* \"#utility.yul\":935:938   */\n      dup4\n        /* \"#utility.yul\":927:933   */\n      dup4\n        /* \"#utility.yul\":893:939   */\n      tag_64\n      jump\t// in\n    tag_93:\n        /* \"#utility.yul\":971:975   */\n      0x20\n        /* \"#utility.yul\":966:969   */\n      dup4\n        /* \"#utility.yul\":962:976   */\n      add\n        /* \"#utility.yul\":948:976   */\n      swap1\n      pop\n        /* \"#utility.yul\":803:982   */\n      swap3\n      swap2\n      pop\n      pop\n      jump\t// out\n        /* \"#utility.yul\":988:1101   */\n    tag_66:\n        /* \"#utility.yul\":1058:1062   */\n      0x00\n        /* \"#utility.yul\":1090:1094   */\n      0x20\n        /* \"#utility.yul\":1085:1088   */\n      dup3\n        /* \"#utility.yul\":1081:1095   */\n      add\n        /* \"#utility.yul\":1073:1095   */\n      swap1\n      pop\n        /* \"#utility.yul\":988:1101   */\n      swap2\n      swap1\n      pop\n      jump\t// out\n        /* \"#utility.yul\":1137:1869   */\n    tag_67:\n        /* \"#utility.yul\":1256:1259   */\n      0x00\n        /* \"#utility.yul\":1285:1339   */\n      tag_96\n        /* \"#utility.yul\":1333:1338   */\n      dup3\n        /* \"#utility.yul\":1285:1339   */\n      tag_59\n      jump\t// in\n    tag_96:\n        /* \"#utility.yul\":1355:1441   */\n      tag_97\n        /* \"#utility.yul\":1434:1440   */\n      dup2\n        /* \"#utility.yul\":1429:1432   */\n      dup6\n        /* \"#utility.yul\":1355:1441   */\n      tag_60\n      jump\t// in\n    tag_97:\n        /* \"#utility.yul\":1348:1441   */\n      swap4\n      pop\n        /* \"#utility.yul\":1465:1521   */\n      tag_98\n        /* \"#utility.yul\":1515:1520   */\n      dup4\n        /* \"#utility.yul\":1465:1521   */\n      tag_61\n      jump\t// in\n    tag_98:\n        /* \"#utility.yul\":1544:1551   */\n      dup1\n        /* \"#utility.yul\":1575:1576   */\n      0x00\n        /* \"#utility.yul\":1560:1844   */\n    tag_99:\n        /* \"#utility.yul\":1585:1591   */\n      dup4\n        /* \"#utility.yul\":1582:1583   */\n      dup2\n        /* \"#utility.yul\":1579:1592   */\n      lt\n        /* \"#utility.yul\":1560:1844   */\n      iszero\n      tag_101\n      jumpi\n        /* \"#utility.yul\":1661:1667   */\n      dup2\n        /* \"#utility.yul\":1655:1668   */\n      mload\n        /* \"#utility.yul\":1688:1751   */\n      tag_102\n        /* \"#utility.yul\":1747:1750   */\n      dup9\n        /* \"#utility.yul\":1732:1745   */\n      dup3\n        /* \"#utility.yul\":1688:1751   */\n      tag_65\n      jump\t// in\n    tag_102:\n        /* \"#utility.yul\":1681:1751   */\n      swap8\n      pop\n        /* \"#utility.yul\":1774:1834   */\n      tag_103\n        /* \"#utility.yul\":1827:1833   */\n      dup4\n        /* \"#utility.yul\":1774:1834   */\n      tag_66\n      jump\t// in\n    tag_103:\n        /* \"#utility.yul\":1764:1834   */\n      swap3\n      pop\n        /* \"#utility.yul\":1620:1844   */\n      pop\n        /* \"#utility.yul\":1607:1608   */\n      0x01\n        /* \"#utility.yul\":1604:1605   */\n      dup2\n        /* \"#utility.yul\":1600:1609   */\n      add\n        /* \"#utility.yul\":1595:1609   */\n      swap1\n      pop\n        /* \"#utility.yul\":1560:1844   */\n      jump(tag_99)\n    tag_101:\n        /* \"#utility.yul\":1564:1578   */\n      pop\n        /* \"#utility.yul\":1860:1863   */\n      dup6\n        /* \"#utility.yul\":1853:1863   */\n      swap4\n      pop\n        /* \"#utility.yul\":1261:1869   */\n      pop\n      pop\n      pop\n        /* \"#utility.yul\":1137:1869   */\n      swap3\n      swap2\n      pop\n      pop\n      jump\t// out\n        /* \"#utility.yul\":1875:2248   */\n    tag_10:\n        /* \"#utility.yul\":2018:2022   */\n      0x00\n        /* \"#utility.yul\":2056:2058   */\n      0x20\n        /* \"#utility.yul\":2045:2054   */\n      dup3\n        /* \"#utility.yul\":2041:2059   */\n      add\n        /* \"#utility.yul\":2033:2059   */\n      swap1\n      pop\n        /* \"#utility.yul\":2105:2114   */\n      dup2\n        /* \"#utility.yul\":2099:2103   */\n      dup2\n        /* \"#utility.yul\":2095:2115   */\n      sub\n        /* \"#utility.yul\":2091:2092   */\n      0x00\n        /* \"#utility.yul\":2080:2089   */\n      dup4\n        /* \"#utility.yul\":2076:2093   */\n      add\n        /* \"#utility.yul\":2069:2116   */\n      mstore\n        /* \"#utility.yul\":2133:2241   */\n      tag_105\n        /* \"#utility.yul\":2236:2240   */\n      dup2\n        /* \"#utility.yul\":2227:2233   */\n      dup5\n        /* \"#utility.yul\":2133:2241   */\n      tag_67\n      jump\t// in\n    tag_105:\n        /* \"#utility.yul\":2125:2241   */\n      swap1\n      pop\n        /* \"#utility.yul\":1875:2248   */\n      swap3\n      swap2\n      pop\n      pop\n      jump\t// out\n        /* \"#utility.yul\":2335:2452   */\n    tag_69:\n        /* \"#utility.yul\":2444:2445   */\n      0x00\n        /* \"#utility.yul\":2441:2442   */\n      dup1\n        /* \"#utility.yul\":2434:2446   */\n      revert\n        /* \"#utility.yul\":2581:2703   */\n    tag_71:\n        /* \"#utility.yul\":2654:2678   */\n      tag_110\n        /* \"#utility.yul\":2672:2677   */\n      dup2\n        /* \"#utility.yul\":2654:2678   */\n      tag_63\n      jump\t// in\n    tag_110:\n        /* \"#utility.yul\":2647:2652   */\n      dup2\n        /* \"#utility.yul\":2644:2679   */\n      eq\n        /* \"#utility.yul\":2634:2697   */\n      tag_111\n      jumpi\n        /* \"#utility.yul\":2693:2694   */\n      0x00\n        /* \"#utility.yul\":2690:2691   */\n      dup1\n        /* \"#utility.yul\":2683:2695   */\n      revert\n        /* \"#utility.yul\":2634:2697   */\n    tag_111:\n        /* \"#utility.yul\":2581:2703   */\n      pop\n      jump\t// out\n        /* \"#utility.yul\":2709:2848   */\n    tag_72:\n        /* \"#utility.yul\":2755:2760   */\n      0x00\n        /* \"#utility.yul\":2793:2799   */\n      dup2\n        /* \"#utility.yul\":2780:2800   */\n      calldataload\n        /* \"#utility.yul\":2771:2800   */\n      swap1\n      pop\n        /* \"#utility.yul\":2809:2842   */\n      tag_113\n        /* \"#utility.yul\":2836:2841   */\n      dup2\n        /* \"#utility.yul\":2809:2842   */\n      tag_71\n      jump\t// in\n    tag_113:\n        /* \"#utility.yul\":2709:2848   */\n      swap3\n      swap2\n      pop\n      pop\n      jump\t// out\n        /* \"#utility.yul\":2854:3183   */\n    tag_13:\n        /* \"#utility.yul\":2913:2919   */\n      0x00\n        /* \"#utility.yul\":2962:2964   */\n      0x20\n        /* \"#utility.yul\":2950:2959   */\n      dup3\n        /* \"#utility.yul\":2941:2948   */\n      dup5\n        /* \"#utility.yul\":2937:2960   */\n      sub\n        /* \"#utility.yul\":2933:2965   */\n      slt\n        /* \"#utility.yul\":2930:3049   */\n      iszero\n      tag_115\n      jumpi\n        /* \"#utility.yul\":2968:3047   */\n      tag_116\n      tag_69\n      jump\t// in\n    tag_116:\n        /* \"#utility.yul\":2930:3049   */\n    tag_115:\n        /* \"#utility.yul\":3088:3089   */\n      0x00\n        /* \"#utility.yul\":3113:3166   */\n      tag_117\n        /* \"#utility.yul\":3158:3165   */\n      dup5\n        /* \"#utility.yul\":3149:3155   */\n      dup3\n        /* \"#utility.yul\":3138:3147   */\n      dup6\n        /* \"#utility.yul\":3134:3156   */\n      add\n        /* \"#utility.yul\":3113:3166   */\n      tag_72\n      jump\t// in\n    tag_117:\n        /* \"#utility.yul\":3103:3166   */\n      swap2\n      pop\n        /* \"#utility.yul\":3059:3176   */\n      pop\n        /* \"#utility.yul\":2854:3183   */\n      swap3\n      swap2\n      pop\n      pop\n      jump\t// out\n        /* \"#utility.yul\":3189:3279   */\n    tag_73:\n        /* \"#utility.yul\":3223:3230   */\n      0x00\n        /* \"#utility.yul\":3266:3271   */\n      dup2\n        /* \"#utility.yul\":3259:3272   */\n      iszero\n        /* \"#utility.yul\":3252:3273   */\n      iszero\n        /* \"#utility.yul\":3241:3273   */\n      swap1\n      pop\n        /* \"#utility.yul\":3189:3279   */\n      swap2\n      swap1\n      pop\n      jump\t// out\n        /* \"#utility.yul\":3285:3394   */\n    tag_74:\n        /* \"#utility.yul\":3366:3387   */\n      tag_120\n        /* \"#utility.yul\":3381:3386   */\n      dup2\n        /* \"#utility.yul\":3366:3387   */\n      tag_73\n      jump\t// in\n    tag_120:\n        /* \"#utility.yul\":3361:3364   */\n      dup3\n        /* \"#utility.yul\":3354:3388   */\n      mstore\n        /* \"#utility.yul\":3285:3394   */\n      pop\n      pop\n      jump\t// out\n        /* \"#utility.yul\":3400:3610   */\n    tag_16:\n        /* \"#utility.yul\":3487:3491   */\n      0x00\n        /* \"#utility.yul\":3525:3527   */\n      0x20\n        /* \"#utility.yul\":3514:3523   */\n      dup3\n        /* \"#utility.yul\":3510:3528   */\n      add\n        /* \"#utility.yul\":3502:3528   */\n      swap1\n      pop\n        /* \"#utility.yul\":3538:3603   */\n      tag_122\n        /* \"#utility.yul\":3600:3601   */\n      0x00\n        /* \"#utility.yul\":3589:3598   */\n      dup4\n        /* \"#utility.yul\":3585:3602   */\n      add\n        /* \"#utility.yul\":3576:3582   */\n      dup5\n        /* \"#utility.yul\":3538:3603   */\n      tag_74\n      jump\t// in\n    tag_122:\n        /* \"#utility.yul\":3400:3610   */\n      swap3\n      swap2\n      pop\n      pop\n      jump\t// out\n        /* \"#utility.yul\":3616:3785   */\n    tag_75:\n        /* \"#utility.yul\":3700:3711   */\n      0x00\n        /* \"#utility.yul\":3734:3740   */\n      dup3\n        /* \"#utility.yul\":3729:3732   */\n      dup3\n        /* \"#utility.yul\":3722:3741   */\n      mstore\n        /* \"#utility.yul\":3774:3778   */\n      0x20\n        /* \"#utility.yul\":3769:3772   */\n      dup3\n        /* \"#utility.yul\":3765:3779   */\n      add\n        /* \"#utility.yul\":3750:3779   */\n      swap1\n      pop\n        /* \"#utility.yul\":3616:3785   */\n      swap3\n      swap2\n      pop\n      pop\n      jump\t// out\n        /* \"#utility.yul\":3791:3960   */\n    tag_76:\n        /* \"#utility.yul\":3931:3952   */\n      0x5573657220616c72656164792065786973747300000000000000000000000000\n        /* \"#utility.yul\":3927:3928   */\n      0x00\n        /* \"#utility.yul\":3919:3925   */\n      dup3\n        /* \"#utility.yul\":3915:3929   */\n      add\n        /* \"#utility.yul\":3908:3953   */\n      mstore\n        /* \"#utility.yul\":3791:3960   */\n      pop\n      jump\t// out\n        /* \"#utility.yul\":3966:4332   */\n    tag_77:\n        /* \"#utility.yul\":4108:4111   */\n      0x00\n        /* \"#utility.yul\":4129:4196   */\n      tag_126\n        /* \"#utility.yul\":4193:4195   */\n      0x13\n        /* \"#utility.yul\":4188:4191   */\n      dup4\n        /* \"#utility.yul\":4129:4196   */\n      tag_75\n      jump\t// in\n    tag_126:\n        /* \"#utility.yul\":4122:4196   */\n      swap2\n      pop\n        /* \"#utility.yul\":4205:4298   */\n      tag_127\n        /* \"#utility.yul\":4294:4297   */\n      dup3\n        /* \"#utility.yul\":4205:4298   */\n      tag_76\n      jump\t// in\n    tag_127:\n        /* \"#utility.yul\":4323:4325   */\n      0x20\n        /* \"#utility.yul\":4318:4321   */\n      dup3\n        /* \"#utility.yul\":4314:4326   */\n      add\n        /* \"#utility.yul\":4307:4326   */\n      swap1\n      pop\n        /* \"#utility.yul\":3966:4332   */\n      swap2\n      swap1\n      pop\n      jump\t// out\n        /* \"#utility.yul\":4338:4757   */\n    tag_30:\n        /* \"#utility.yul\":4504:4508   */\n      0x00\n        /* \"#utility.yul\":4542:4544   */\n      0x20\n        /* \"#utility.yul\":4531:4540   */\n      dup3\n        /* \"#utility.yul\":4527:4545   */\n      add\n        /* \"#utility.yul\":4519:4545   */\n      swap1\n      pop\n        /* \"#utility.yul\":4591:4600   */\n      dup2\n        /* \"#utility.yul\":4585:4589   */\n      dup2\n        /* \"#utility.yul\":4581:4601   */\n      sub\n        /* \"#utility.yul\":4577:4578   */\n      0x00\n        /* \"#utility.yul\":4566:4575   */\n      dup4\n        /* \"#utility.yul\":4562:4579   */\n      add\n        /* \"#utility.yul\":4555:4602   */\n      mstore\n        /* \"#utility.yul\":4619:4750   */\n      tag_129\n        /* \"#utility.yul\":4745:4749   */\n      dup2\n        /* \"#utility.yul\":4619:4750   */\n      tag_77\n      jump\t// in\n    tag_129:\n        /* \"#utility.yul\":4611:4750   */\n      swap1\n      pop\n        /* \"#utility.yul\":4338:4757   */\n      swap2\n      swap1\n      pop\n      jump\t// out\n        /* \"#utility.yul\":4763:4881   */\n    tag_78:\n        /* \"#utility.yul\":4850:4874   */\n      tag_131\n        /* \"#utility.yul\":4868:4873   */\n      dup2\n        /* \"#utility.yul\":4850:4874   */\n      tag_63\n      jump\t// in\n    tag_131:\n        /* \"#utility.yul\":4845:4848   */\n      dup3\n        /* \"#utility.yul\":4838:4875   */\n      mstore\n        /* \"#utility.yul\":4763:4881   */\n      pop\n      pop\n      jump\t// out\n        /* \"#utility.yul\":4887:5109   */\n    tag_33:\n        /* \"#utility.yul\":4980:4984   */\n      0x00\n        /* \"#utility.yul\":5018:5020   */\n      0x20\n        /* \"#utility.yul\":5007:5016   */\n      dup3\n        /* \"#utility.yul\":5003:5021   */\n      add\n        /* \"#utility.yul\":4995:5021   */\n      swap1\n      pop\n        /* \"#utility.yul\":5031:5102   */\n      tag_133\n        /* \"#utility.yul\":5099:5100   */\n      0x00\n        /* \"#utility.yul\":5088:5097   */\n      dup4\n        /* \"#utility.yul\":5084:5101   */\n      add\n        /* \"#utility.yul\":5075:5081   */\n      dup5\n        /* \"#utility.yul\":5031:5102   */\n      tag_78\n      jump\t// in\n    tag_133:\n        /* \"#utility.yul\":4887:5109   */\n      swap3\n      swap2\n      pop\n      pop\n      jump\t// out\n        /* \"#utility.yul\":5115:5284   */\n    tag_79:\n        /* \"#utility.yul\":5255:5276   */\n      0x5573657220646f6573206e6f7420657869737400000000000000000000000000\n        /* \"#utility.yul\":5251:5252   */\n      0x00\n        /* \"#utility.yul\":5243:5249   */\n      dup3\n        /* \"#utility.yul\":5239:5253   */\n      add\n        /* \"#utility.yul\":5232:5277   */\n      mstore\n        /* \"#utility.yul\":5115:5284   */\n      pop\n      jump\t// out\n        /* \"#utility.yul\":5290:5656   */\n    tag_80:\n        /* \"#utility.yul\":5432:5435   */\n      0x00\n        /* \"#utility.yul\":5453:5520   */\n      tag_136\n        /* \"#utility.yul\":5517:5519   */\n      0x13\n        /* \"#utility.yul\":5512:5515   */\n      dup4\n        /* \"#utility.yul\":5453:5520   */\n      tag_75\n      jump\t// in\n    tag_136:\n        /* \"#utility.yul\":5446:5520   */\n      swap2\n      pop\n        /* \"#utility.yul\":5529:5622   */\n      tag_137\n        /* \"#utility.yul\":5618:5621   */\n      dup3\n        /* \"#utility.yul\":5529:5622   */\n      tag_79\n      jump\t// in\n    tag_137:\n        /* \"#utility.yul\":5647:5649   */\n      0x20\n        /* \"#utility.yul\":5642:5645   */\n      dup3\n        /* \"#utility.yul\":5638:5650   */\n      add\n        /* \"#utility.yul\":5631:5650   */\n      swap1\n      pop\n        /* \"#utility.yul\":5290:5656   */\n      swap2\n      swap1\n      pop\n      jump\t// out\n        /* \"#utility.yul\":5662:6081   */\n    tag_37:\n        /* \"#utility.yul\":5828:5832   */\n      0x00\n        /* \"#utility.yul\":5866:5868   */\n      0x20\n        /* \"#utility.yul\":5855:5864   */\n      dup3\n        /* \"#utility.yul\":5851:5869   */\n      add\n        /* \"#utility.yul\":5843:5869   */\n      swap1\n      pop\n        /* \"#utility.yul\":5915:5924   */\n      dup2\n        /* \"#utility.yul\":5909:5913   */\n      dup2\n        /* \"#utility.yul\":5905:5925   */\n      sub\n        /* \"#utility.yul\":5901:5902   */\n      0x00\n        /* \"#utility.yul\":5890:5899   */\n      dup4\n        /* \"#utility.yul\":5886:5903   */\n      add\n        /* \"#utility.yul\":5879:5926   */\n      mstore\n        /* \"#utility.yul\":5943:6074   */\n      tag_139\n        /* \"#utility.yul\":6069:6073   */\n      dup2\n        /* \"#utility.yul\":5943:6074   */\n      tag_80\n      jump\t// in\n    tag_139:\n        /* \"#utility.yul\":5935:6074   */\n      swap1\n      pop\n        /* \"#utility.yul\":5662:6081   */\n      swap2\n      swap1\n      pop\n      jump\t// out\n        /* \"#utility.yul\":6087:6267   */\n    tag_43:\n        /* \"#utility.yul\":6135:6212   */\n      0x4e487b7100000000000000000000000000000000000000000000000000000000\n        /* \"#utility.yul\":6132:6133   */\n      0x00\n        /* \"#utility.yul\":6125:6213   */\n      mstore\n        /* \"#utility.yul\":6232:6236   */\n      0x32\n        /* \"#utility.yul\":6229:6230   */\n      0x04\n        /* \"#utility.yul\":6222:6237   */\n      mstore\n        /* \"#utility.yul\":6256:6260   */\n      0x24\n        /* \"#utility.yul\":6253:6254   */\n      0x00\n        /* \"#utility.yul\":6246:6261   */\n      revert\n        /* \"#utility.yul\":6273:6350   */\n    tag_81:\n        /* \"#utility.yul\":6310:6317   */\n      0x00\n        /* \"#utility.yul\":6339:6344   */\n      dup2\n        /* \"#utility.yul\":6328:6344   */\n      swap1\n      pop\n        /* \"#utility.yul\":6273:6350   */\n      swap2\n      swap1\n      pop\n      jump\t// out\n        /* \"#utility.yul\":6356:6536   */\n    tag_82:\n        /* \"#utility.yul\":6404:6481   */\n      0x4e487b7100000000000000000000000000000000000000000000000000000000\n        /* \"#utility.yul\":6401:6402   */\n      0x00\n        /* \"#utility.yul\":6394:6482   */\n      mstore\n        /* \"#utility.yul\":6501:6505   */\n      0x11\n        /* \"#utility.yul\":6498:6499   */\n      0x04\n        /* \"#utility.yul\":6491:6506   */\n      mstore\n        /* \"#utility.yul\":6525:6529   */\n      0x24\n        /* \"#utility.yul\":6522:6523   */\n      0x00\n        /* \"#utility.yul\":6515:6530   */\n      revert\n        /* \"#utility.yul\":6542:6736   */\n    tag_47:\n        /* \"#utility.yul\":6582:6586   */\n      0x00\n        /* \"#utility.yul\":6602:6622   */\n      tag_144\n        /* \"#utility.yul\":6620:6621   */\n      dup3\n        /* \"#utility.yul\":6602:6622   */\n      tag_81\n      jump\t// in\n    tag_144:\n        /* \"#utility.yul\":6597:6622   */\n      swap2\n      pop\n        /* \"#utility.yul\":6636:6656   */\n      tag_145\n        /* \"#utility.yul\":6654:6655   */\n      dup4\n        /* \"#utility.yul\":6636:6656   */\n      tag_81\n      jump\t// in\n    tag_145:\n        /* \"#utility.yul\":6631:6656   */\n      swap3\n      pop\n        /* \"#utility.yul\":6680:6681   */\n      dup3\n        /* \"#utility.yul\":6677:6678   */\n      dup3\n        /* \"#utility.yul\":6673:6682   */\n      sub\n        /* \"#utility.yul\":6665:6682   */\n      swap1\n      pop\n        /* \"#utility.yul\":6704:6705   */\n      dup2\n        /* \"#utility.yul\":6698:6702   */\n      dup2\n        /* \"#utility.yul\":6695:6706   */\n      gt\n        /* \"#utility.yul\":6692:6729   */\n      iszero\n      tag_146\n      jumpi\n        /* \"#utility.yul\":6709:6727   */\n      tag_147\n      tag_82\n      jump\t// in\n    tag_147:\n        /* \"#utility.yul\":6692:6729   */\n    tag_146:\n        /* \"#utility.yul\":6542:6736   */\n      swap3\n      swap2\n      pop\n      pop\n      jump\t// out\n        /* \"#utility.yul\":6742:6922   */\n    tag_56:\n        /* \"#utility.yul\":6790:6867   */\n      0x4e487b7100000000000000000000000000000000000000000000000000000000\n        /* \"#utility.yul\":6787:6788   */\n      0x00\n        /* \"#utility.yul\":6780:6868   */\n      mstore\n        /* \"#utility.yul\":6887:6891   */\n      0x31\n        /* \"#utility.yul\":6884:6885   */\n      0x04\n        /* \"#utility.yul\":6877:6892   */\n      mstore\n        /* \"#utility.yul\":6911:6915   */\n      0x24\n        /* \"#utility.yul\":6908:6909   */\n      0x00\n        /* \"#utility.yul\":6901:6916   */\n      revert\n\n    auxdata: 0xa26469706673582212200cb62ca1dd98a7ed7ecae72381242b04681d20aa6e8a6a8dd2c48d52e17d504764736f6c634300081a0033\n}\n",
				"bytecode": {
					"linkReferences": {},
					"object": "6080604052348015600e575f80fd5b506109458061001c5f395ff3fe608060405234801561000f575f80fd5b5060043610610049575f3560e01c8062ce8e3e1461004d5780630e666e491461006b578063421b2d8b1461009b57806398575188146100b7575b5f80fd5b6100556100d3565b6040516100629190610698565b60405180910390f35b610085600480360381019061008091906106e6565b61015d565b604051610092919061072b565b60405180910390f35b6100b560048036038101906100b091906106e6565b6101af565b005b6100d160048036038101906100cc91906106e6565b610326565b005b60605f80548060200260200160405190810160405280929190818152602001828054801561015357602002820191905f5260205f20905b815f9054906101000a900473ffffffffffffffffffffffffffffffffffffffff1673ffffffffffffffffffffffffffffffffffffffff168152602001906001019080831161010a575b5050505050905090565b5f60015f8373ffffffffffffffffffffffffffffffffffffffff1673ffffffffffffffffffffffffffffffffffffffff1681526020019081526020015f205f9054906101000a900460ff169050919050565b60015f8273ffffffffffffffffffffffffffffffffffffffff1673ffffffffffffffffffffffffffffffffffffffff1681526020019081526020015f205f9054906101000a900460ff1615610239576040517f08c379a00000000000000000000000000000000000000000000000000000000081526004016102309061079e565b60405180910390fd5b5f81908060018154018082558091505060019003905f5260205f20015f9091909190916101000a81548173ffffffffffffffffffffffffffffffffffffffff021916908373ffffffffffffffffffffffffffffffffffffffff1602179055506001805f8373ffffffffffffffffffffffffffffffffffffffff1673ffffffffffffffffffffffffffffffffffffffff1681526020019081526020015f205f6101000a81548160ff0219169083151502179055507f19ef9a4877199f89440a26acb26895ec02ed86f2df1aeaa90dc18041b892f71f8160405161031b91906107cb565b60405180910390a150565b60015f8273ffffffffffffffffffffffffffffffffffffffff1673ffffffffffffffffffffffffffffffffffffffff1681526020019081526020015f205f9054906101000a900460ff166103af576040517f08c379a00000000000000000000000000000000000000000000000000000000081526004016103a69061082e565b60405180910390fd5b5f5b5f80549050811015610522578173ffffffffffffffffffffffffffffffffffffffff165f82815481106103e7576103e661084c565b5b905f5260205f20015f9054906101000a900473ffffffffffffffffffffffffffffffffffffffff1673ffffffffffffffffffffffffffffffffffffffff1603610515575f60015f8054905061043c91906108af565b8154811061044d5761044c61084c565b5b905f5260205f20015f9054906101000a900473ffffffffffffffffffffffffffffffffffffffff165f82815481106104885761048761084c565b5b905f5260205f20015f6101000a81548173ffffffffffffffffffffffffffffffffffffffff021916908373ffffffffffffffffffffffffffffffffffffffff1602179055505f8054806104de576104dd6108e2565b5b600190038181905f5260205f20015f6101000a81549073ffffffffffffffffffffffffffffffffffffffff02191690559055610522565b80806001019150506103b1565b505f60015f8373ffffffffffffffffffffffffffffffffffffffff1673ffffffffffffffffffffffffffffffffffffffff1681526020019081526020015f205f6101000a81548160ff0219169083151502179055507fe9dce8c992623ce791725b21e857e33248d1f190a25b5168313420eebdaae99d816040516105a691906107cb565b60405180910390a150565b5f81519050919050565b5f82825260208201905092915050565b5f819050602082019050919050565b5f73ffffffffffffffffffffffffffffffffffffffff82169050919050565b5f610603826105da565b9050919050565b610613816105f9565b82525050565b5f610624838361060a565b60208301905092915050565b5f602082019050919050565b5f610646826105b1565b61065081856105bb565b935061065b836105cb565b805f5b8381101561068b5781516106728882610619565b975061067d83610630565b92505060018101905061065e565b5085935050505092915050565b5f6020820190508181035f8301526106b0818461063c565b905092915050565b5f80fd5b6106c5816105f9565b81146106cf575f80fd5b50565b5f813590506106e0816106bc565b92915050565b5f602082840312156106fb576106fa6106b8565b5b5f610708848285016106d2565b91505092915050565b5f8115159050919050565b61072581610711565b82525050565b5f60208201905061073e5f83018461071c565b92915050565b5f82825260208201905092915050565b7f5573657220616c726561647920657869737473000000000000000000000000005f82015250565b5f610788601383610744565b915061079382610754565b602082019050919050565b5f6020820190508181035f8301526107b58161077c565b9050919050565b6107c5816105f9565b82525050565b5f6020820190506107de5f8301846107bc565b92915050565b7f5573657220646f6573206e6f74206578697374000000000000000000000000005f82015250565b5f610818601383610744565b9150610823826107e4565b602082019050919050565b5f6020820190508181035f8301526108458161080c565b9050919050565b7f4e487b71000000000000000000000000000000000000000000000000000000005f52603260045260245ffd5b5f819050919050565b7f4e487b71000000000000000000000000000000000000000000000000000000005f52601160045260245ffd5b5f6108b982610879565b91506108c483610879565b92508282039050818111156108dc576108db610882565b5b92915050565b7f4e487b71000000000000000000000000000000000000000000000000000000005f52603160045260245ffdfea26469706673582212200cb62ca1dd98a7ed7ecae72381242b04681d20aa6e8a6a8dd2c48d52e17d504764736f6c634300081a0033",
					"opcodes": "PUSH1 0x80 PUSH1 0x40 MSTORE CALLVALUE DUP1 ISZERO PUSH1 0xE JUMPI PUSH0 DUP1 REVERT JUMPDEST POP PUSH2 0x945 DUP1 PUSH2 0x1C PUSH0 CODECOPY PUSH0 RETURN INVALID PUSH1 0x80 PUSH1 0x40 MSTORE CALLVALUE DUP1 ISZERO PUSH2 0xF JUMPI PUSH0 DUP1 REVERT JUMPDEST POP PUSH1 0x4 CALLDATASIZE LT PUSH2 0x49 JUMPI PUSH0 CALLDATALOAD PUSH1 0xE0 SHR DUP1 PUSH3 0xCE8E3E EQ PUSH2 0x4D JUMPI DUP1 PUSH4 0xE666E49 EQ PUSH2 0x6B JUMPI DUP1 PUSH4 0x421B2D8B EQ PUSH2 0x9B JUMPI DUP1 PUSH4 0x98575188 EQ PUSH2 0xB7 JUMPI JUMPDEST PUSH0 DUP1 REVERT JUMPDEST PUSH2 0x55 PUSH2 0xD3 JUMP JUMPDEST PUSH1 0x40 MLOAD PUSH2 0x62 SWAP2 SWAP1 PUSH2 0x698 JUMP JUMPDEST PUSH1 0x40 MLOAD DUP1 SWAP2 SUB SWAP1 RETURN JUMPDEST PUSH2 0x85 PUSH1 0x4 DUP1 CALLDATASIZE SUB DUP2 ADD SWAP1 PUSH2 0x80 SWAP2 SWAP1 PUSH2 0x6E6 JUMP JUMPDEST PUSH2 0x15D JUMP JUMPDEST PUSH1 0x40 MLOAD PUSH2 0x92 SWAP2 SWAP1 PUSH2 0x72B JUMP JUMPDEST PUSH1 0x40 MLOAD DUP1 SWAP2 SUB SWAP1 RETURN JUMPDEST PUSH2 0xB5 PUSH1 0x4 DUP1 CALLDATASIZE SUB DUP2 ADD SWAP1 PUSH2 0xB0 SWAP2 SWAP1 PUSH2 0x6E6 JUMP JUMPDEST PUSH2 0x1AF JUMP JUMPDEST STOP JUMPDEST PUSH2 0xD1 PUSH1 0x4 DUP1 CALLDATASIZE SUB DUP2 ADD SWAP1 PUSH2 0xCC SWAP2 SWAP1 PUSH2 0x6E6 JUMP JUMPDEST PUSH2 0x326 JUMP JUMPDEST STOP JUMPDEST PUSH1 0x60 PUSH0 DUP1 SLOAD DUP1 PUSH1 0x20 MUL PUSH1 0x20 ADD PUSH1 0x40 MLOAD SWAP1 DUP2 ADD PUSH1 0x40 MSTORE DUP1 SWAP3 SWAP2 SWAP1 DUP2 DUP2 MSTORE PUSH1 0x20 ADD DUP3 DUP1 SLOAD DUP1 ISZERO PUSH2 0x153 JUMPI PUSH1 0x20 MUL DUP3 ADD SWAP2 SWAP1 PUSH0 MSTORE PUSH1 0x20 PUSH0 KECCAK256 SWAP1 JUMPDEST DUP2 PUSH0 SWAP1 SLOAD SWAP1 PUSH2 0x100 EXP SWAP1 DIV PUSH20 0xFFFFFFFFFFFFFFFFFFFFFFFFFFFFFFFFFFFFFFFF AND PUSH20 0xFFFFFFFFFFFFFFFFFFFFFFFFFFFFFFFFFFFFFFFF AND DUP2 MSTORE PUSH1 0x20 ADD SWAP1 PUSH1 0x1 ADD SWAP1 DUP1 DUP4 GT PUSH2 0x10A JUMPI JUMPDEST POP POP POP POP POP SWAP1 POP SWAP1 JUMP JUMPDEST PUSH0 PUSH1 0x1 PUSH0 DUP4 PUSH20 0xFFFFFFFFFFFFFFFFFFFFFFFFFFFFFFFFFFFFFFFF AND PUSH20 0xFFFFFFFFFFFFFFFFFFFFFFFFFFFFFFFFFFFFFFFF AND DUP2 MSTORE PUSH1 0x20 ADD SWAP1 DUP2 MSTORE PUSH1 0x20 ADD PUSH0 KECCAK256 PUSH0 SWAP1 SLOAD SWAP1 PUSH2 0x100 EXP SWAP1 DIV PUSH1 0xFF AND SWAP1 POP SWAP2 SWAP1 POP JUMP JUMPDEST PUSH1 0x1 PUSH0 DUP3 PUSH20 0xFFFFFFFFFFFFFFFFFFFFFFFFFFFFFFFFFFFFFFFF AND PUSH20 0xFFFFFFFFFFFFFFFFFFFFFFFFFFFFFFFFFFFFFFFF AND DUP2 MSTORE PUSH1 0x20 ADD SWAP1 DUP2 MSTORE PUSH1 0x20 ADD PUSH0 KECCAK256 PUSH0 SWAP1 SLOAD SWAP1 PUSH2 0x100 EXP SWAP1 DIV PUSH1 0xFF AND ISZERO PUSH2 0x239 JUMPI PUSH1 0x40 MLOAD PUSH32 0x8C379A000000000000000000000000000000000000000000000000000000000 DUP2 MSTORE PUSH1 0x4 ADD PUSH2 0x230 SWAP1 PUSH2 0x79E JUMP JUMPDEST PUSH1 0x40 MLOAD DUP1 SWAP2 SUB SWAP1 REVERT JUMPDEST PUSH0 DUP2 SWAP1 DUP1 PUSH1 0x1 DUP2 SLOAD ADD DUP1 DUP3 SSTORE DUP1 SWAP2 POP POP PUSH1 0x1 SWAP1 SUB SWAP1 PUSH0 MSTORE PUSH1 0x20 PUSH0 KECCAK256 ADD PUSH0 SWAP1 SWAP2 SWAP1 SWAP2 SWAP1 SWAP2 PUSH2 0x100 EXP DUP2 SLOAD DUP2 PUSH20 0xFFFFFFFFFFFFFFFFFFFFFFFFFFFFFFFFFFFFFFFF MUL NOT AND SWAP1 DUP4 PUSH20 0xFFFFFFFFFFFFFFFFFFFFFFFFFFFFFFFFFFFFFFFF AND MUL OR SWAP1 SSTORE POP PUSH1 0x1 DUP1 PUSH0 DUP4 PUSH20 0xFFFFFFFFFFFFFFFFFFFFFFFFFFFFFFFFFFFFFFFF AND PUSH20 0xFFFFFFFFFFFFFFFFFFFFFFFFFFFFFFFFFFFFFFFF AND DUP2 MSTORE PUSH1 0x20 ADD SWAP1 DUP2 MSTORE PUSH1 0x20 ADD PUSH0 KECCAK256 PUSH0 PUSH2 0x100 EXP DUP2 SLOAD DUP2 PUSH1 0xFF MUL NOT AND SWAP1 DUP4 ISZERO ISZERO MUL OR SWAP1 SSTORE POP PUSH32 0x19EF9A4877199F89440A26ACB26895EC02ED86F2DF1AEAA90DC18041B892F71F DUP2 PUSH1 0x40 MLOAD PUSH2 0x31B SWAP2 SWAP1 PUSH2 0x7CB JUMP JUMPDEST PUSH1 0x40 MLOAD DUP1 SWAP2 SUB SWAP1 LOG1 POP JUMP JUMPDEST PUSH1 0x1 PUSH0 DUP3 PUSH20 0xFFFFFFFFFFFFFFFFFFFFFFFFFFFFFFFFFFFFFFFF AND PUSH20 0xFFFFFFFFFFFFFFFFFFFFFFFFFFFFFFFFFFFFFFFF AND DUP2 MSTORE PUSH1 0x20 ADD SWAP1 DUP2 MSTORE PUSH1 0x20 ADD PUSH0 KECCAK256 PUSH0 SWAP1 SLOAD SWAP1 PUSH2 0x100 EXP SWAP1 DIV PUSH1 0xFF AND PUSH2 0x3AF JUMPI PUSH1 0x40 MLOAD PUSH32 0x8C379A000000000000000000000000000000000000000000000000000000000 DUP2 MSTORE PUSH1 0x4 ADD PUSH2 0x3A6 SWAP1 PUSH2 0x82E JUMP JUMPDEST PUSH1 0x40 MLOAD DUP1 SWAP2 SUB SWAP1 REVERT JUMPDEST PUSH0 JUMPDEST PUSH0 DUP1 SLOAD SWAP1 POP DUP2 LT ISZERO PUSH2 0x522 JUMPI DUP2 PUSH20 0xFFFFFFFFFFFFFFFFFFFFFFFFFFFFFFFFFFFFFFFF AND PUSH0 DUP3 DUP2 SLOAD DUP2 LT PUSH2 0x3E7 JUMPI PUSH2 0x3E6 PUSH2 0x84C JUMP JUMPDEST JUMPDEST SWAP1 PUSH0 MSTORE PUSH1 0x20 PUSH0 KECCAK256 ADD PUSH0 SWAP1 SLOAD SWAP1 PUSH2 0x100 EXP SWAP1 DIV PUSH20 0xFFFFFFFFFFFFFFFFFFFFFFFFFFFFFFFFFFFFFFFF AND PUSH20 0xFFFFFFFFFFFFFFFFFFFFFFFFFFFFFFFFFFFFFFFF AND SUB PUSH2 0x515 JUMPI PUSH0 PUSH1 0x1 PUSH0 DUP1 SLOAD SWAP1 POP PUSH2 0x43C SWAP2 SWAP1 PUSH2 0x8AF JUMP JUMPDEST DUP2 SLOAD DUP2 LT PUSH2 0x44D JUMPI PUSH2 0x44C PUSH2 0x84C JUMP JUMPDEST JUMPDEST SWAP1 PUSH0 MSTORE PUSH1 0x20 PUSH0 KECCAK256 ADD PUSH0 SWAP1 SLOAD SWAP1 PUSH2 0x100 EXP SWAP1 DIV PUSH20 0xFFFFFFFFFFFFFFFFFFFFFFFFFFFFFFFFFFFFFFFF AND PUSH0 DUP3 DUP2 SLOAD DUP2 LT PUSH2 0x488 JUMPI PUSH2 0x487 PUSH2 0x84C JUMP JUMPDEST JUMPDEST SWAP1 PUSH0 MSTORE PUSH1 0x20 PUSH0 KECCAK256 ADD PUSH0 PUSH2 0x100 EXP DUP2 SLOAD DUP2 PUSH20 0xFFFFFFFFFFFFFFFFFFFFFFFFFFFFFFFFFFFFFFFF MUL NOT AND SWAP1 DUP4 PUSH20 0xFFFFFFFFFFFFFFFFFFFFFFFFFFFFFFFFFFFFFFFF AND MUL OR SWAP1 SSTORE POP PUSH0 DUP1 SLOAD DUP1 PUSH2 0x4DE JUMPI PUSH2 0x4DD PUSH2 0x8E2 JUMP JUMPDEST JUMPDEST PUSH1 0x1 SWAP1 SUB DUP2 DUP2 SWAP1 PUSH0 MSTORE PUSH1 0x20 PUSH0 KECCAK256 ADD PUSH0 PUSH2 0x100 EXP DUP2 SLOAD SWAP1 PUSH20 0xFFFFFFFFFFFFFFFFFFFFFFFFFFFFFFFFFFFFFFFF MUL NOT AND SWAP1 SSTORE SWAP1 SSTORE PUSH2 0x522 JUMP JUMPDEST DUP1 DUP1 PUSH1 0x1 ADD SWAP2 POP POP PUSH2 0x3B1 JUMP JUMPDEST POP PUSH0 PUSH1 0x1 PUSH0 DUP4 PUSH20 0xFFFFFFFFFFFFFFFFFFFFFFFFFFFFFFFFFFFFFFFF AND PUSH20 0xFFFFFFFFFFFFFFFFFFFFFFFFFFFFFFFFFFFFFFFF AND DUP2 MSTORE PUSH1 0x20 ADD SWAP1 DUP2 MSTORE PUSH1 0x20 ADD PUSH0 KECCAK256 PUSH0 PUSH2 0x100 EXP DUP2 SLOAD DUP2 PUSH1 0xFF MUL NOT AND SWAP1 DUP4 ISZERO ISZERO MUL OR SWAP1 SSTORE POP PUSH32 0xE9DCE8C992623CE791725B21E857E33248D1F190A25B5168313420EEBDAAE99D DUP2 PUSH1 0x40 MLOAD PUSH2 0x5A6 SWAP2 SWAP1 PUSH2 0x7CB JUMP JUMPDEST PUSH1 0x40 MLOAD DUP1 SWAP2 SUB SWAP1 LOG1 POP JUMP JUMPDEST PUSH0 DUP2 MLOAD SWAP1 POP SWAP2 SWAP1 POP JUMP JUMPDEST PUSH0 DUP3 DUP3 MSTORE PUSH1 0x20 DUP3 ADD SWAP1 POP SWAP3 SWAP2 POP POP JUMP JUMPDEST PUSH0 DUP2 SWAP1 POP PUSH1 0x20 DUP3 ADD SWAP1 POP SWAP2 SWAP1 POP JUMP JUMPDEST PUSH0 PUSH20 0xFFFFFFFFFFFFFFFFFFFFFFFFFFFFFFFFFFFFFFFF DUP3 AND SWAP1 POP SWAP2 SWAP1 POP JUMP JUMPDEST PUSH0 PUSH2 0x603 DUP3 PUSH2 0x5DA JUMP JUMPDEST SWAP1 POP SWAP2 SWAP1 POP JUMP JUMPDEST PUSH2 0x613 DUP2 PUSH2 0x5F9 JUMP JUMPDEST DUP3 MSTORE POP POP JUMP JUMPDEST PUSH0 PUSH2 0x624 DUP4 DUP4 PUSH2 0x60A JUMP JUMPDEST PUSH1 0x20 DUP4 ADD SWAP1 POP SWAP3 SWAP2 POP POP JUMP JUMPDEST PUSH0 PUSH1 0x20 DUP3 ADD SWAP1 POP SWAP2 SWAP1 POP JUMP JUMPDEST PUSH0 PUSH2 0x646 DUP3 PUSH2 0x5B1 JUMP JUMPDEST PUSH2 0x650 DUP2 DUP6 PUSH2 0x5BB JUMP JUMPDEST SWAP4 POP PUSH2 0x65B DUP4 PUSH2 0x5CB JUMP JUMPDEST DUP1 PUSH0 JUMPDEST DUP4 DUP2 LT ISZERO PUSH2 0x68B JUMPI DUP2 MLOAD PUSH2 0x672 DUP9 DUP3 PUSH2 0x619 JUMP JUMPDEST SWAP8 POP PUSH2 0x67D DUP4 PUSH2 0x630 JUMP JUMPDEST SWAP3 POP POP PUSH1 0x1 DUP2 ADD SWAP1 POP PUSH2 0x65E JUMP JUMPDEST POP DUP6 SWAP4 POP POP POP POP SWAP3 SWAP2 POP POP JUMP JUMPDEST PUSH0 PUSH1 0x20 DUP3 ADD SWAP1 POP DUP2 DUP2 SUB PUSH0 DUP4 ADD MSTORE PUSH2 0x6B0 DUP2 DUP5 PUSH2 0x63C JUMP JUMPDEST SWAP1 POP SWAP3 SWAP2 POP POP JUMP JUMPDEST PUSH0 DUP1 REVERT JUMPDEST PUSH2 0x6C5 DUP2 PUSH2 0x5F9 JUMP JUMPDEST DUP2 EQ PUSH2 0x6CF JUMPI PUSH0 DUP1 REVERT JUMPDEST POP JUMP JUMPDEST PUSH0 DUP2 CALLDATALOAD SWAP1 POP PUSH2 0x6E0 DUP2 PUSH2 0x6BC JUMP JUMPDEST SWAP3 SWAP2 POP POP JUMP JUMPDEST PUSH0 PUSH1 0x20 DUP3 DUP5 SUB SLT ISZERO PUSH2 0x6FB JUMPI PUSH2 0x6FA PUSH2 0x6B8 JUMP JUMPDEST JUMPDEST PUSH0 PUSH2 0x708 DUP5 DUP3 DUP6 ADD PUSH2 0x6D2 JUMP JUMPDEST SWAP2 POP POP SWAP3 SWAP2 POP POP JUMP JUMPDEST PUSH0 DUP2 ISZERO ISZERO SWAP1 POP SWAP2 SWAP1 POP JUMP JUMPDEST PUSH2 0x725 DUP2 PUSH2 0x711 JUMP JUMPDEST DUP3 MSTORE POP POP JUMP JUMPDEST PUSH0 PUSH1 0x20 DUP3 ADD SWAP1 POP PUSH2 0x73E PUSH0 DUP4 ADD DUP5 PUSH2 0x71C JUMP JUMPDEST SWAP3 SWAP2 POP POP JUMP JUMPDEST PUSH0 DUP3 DUP3 MSTORE PUSH1 0x20 DUP3 ADD SWAP1 POP SWAP3 SWAP2 POP POP JUMP JUMPDEST PUSH32 0x5573657220616C72656164792065786973747300000000000000000000000000 PUSH0 DUP3 ADD MSTORE POP JUMP JUMPDEST PUSH0 PUSH2 0x788 PUSH1 0x13 DUP4 PUSH2 0x744 JUMP JUMPDEST SWAP2 POP PUSH2 0x793 DUP3 PUSH2 0x754 JUMP JUMPDEST PUSH1 0x20 DUP3 ADD SWAP1 POP SWAP2 SWAP1 POP JUMP JUMPDEST PUSH0 PUSH1 0x20 DUP3 ADD SWAP1 POP DUP2 DUP2 SUB PUSH0 DUP4 ADD MSTORE PUSH2 0x7B5 DUP2 PUSH2 0x77C JUMP JUMPDEST SWAP1 POP SWAP2 SWAP1 POP JUMP JUMPDEST PUSH2 0x7C5 DUP2 PUSH2 0x5F9 JUMP JUMPDEST DUP3 MSTORE POP POP JUMP JUMPDEST PUSH0 PUSH1 0x20 DUP3 ADD SWAP1 POP PUSH2 0x7DE PUSH0 DUP4 ADD DUP5 PUSH2 0x7BC JUMP JUMPDEST SWAP3 SWAP2 POP POP JUMP JUMPDEST PUSH32 0x5573657220646F6573206E6F7420657869737400000000000000000000000000 PUSH0 DUP3 ADD MSTORE POP JUMP JUMPDEST PUSH0 PUSH2 0x818 PUSH1 0x13 DUP4 PUSH2 0x744 JUMP JUMPDEST SWAP2 POP PUSH2 0x823 DUP3 PUSH2 0x7E4 JUMP JUMPDEST PUSH1 0x20 DUP3 ADD SWAP1 POP SWAP2 SWAP1 POP JUMP JUMPDEST PUSH0 PUSH1 0x20 DUP3 ADD SWAP1 POP DUP2 DUP2 SUB PUSH0 DUP4 ADD MSTORE PUSH2 0x845 DUP2 PUSH2 0x80C JUMP JUMPDEST SWAP1 POP SWAP2 SWAP1 POP JUMP JUMPDEST PUSH32 0x4E487B7100000000000000000000000000000000000000000000000000000000 PUSH0 MSTORE PUSH1 0x32 PUSH1 0x4 MSTORE PUSH1 0x24 PUSH0 REVERT JUMPDEST PUSH0 DUP2 SWAP1 POP SWAP2 SWAP1 POP JUMP JUMPDEST PUSH32 0x4E487B7100000000000000000000000000000000000000000000000000000000 PUSH0 MSTORE PUSH1 0x11 PUSH1 0x4 MSTORE PUSH1 0x24 PUSH0 REVERT JUMPDEST PUSH0 PUSH2 0x8B9 DUP3 PUSH2 0x879 JUMP JUMPDEST SWAP2 POP PUSH2 0x8C4 DUP4 PUSH2 0x879 JUMP JUMPDEST SWAP3 POP DUP3 DUP3 SUB SWAP1 POP DUP2 DUP2 GT ISZERO PUSH2 0x8DC JUMPI PUSH2 0x8DB PUSH2 0x882 JUMP JUMPDEST JUMPDEST SWAP3 SWAP2 POP POP JUMP JUMPDEST PUSH32 0x4E487B7100000000000000000000000000000000000000000000000000000000 PUSH0 MSTORE PUSH1 0x31 PUSH1 0x4 MSTORE PUSH1 0x24 PUSH0 REVERT INVALID LOG2 PUSH5 0x6970667358 0x22 SLT KECCAK256 0xC 0xB6 0x2C LOG1 0xDD SWAP9 0xA7 0xED PUSH31 0xCAE72381242B04681D20AA6E8A6A8DD2C48D52E17D504764736F6C63430008 BYTE STOP CALLER "
				},
				"gasEstimates": {
					"creation": {
						"codeDepositCost": "474600",
						"executionCost": "509",
						"totalCost": "475109"
					},
					"external": {
						"addUser(address)": "infinite",
						"getUsers()": "infinite",
						"removeUser(address)": "infinite",
						"userExists(address)": "2870"
					}
				},
				"methodIdentifiers": {
					"addUser(address)": "421b2d8b",
					"getUsers()": "00ce8e3e",
					"removeUser(address)": "98575188",
					"userExists(address)": "0e666e49"
				}
			},
			"storageLayout": {
				"storage": [
					{
						"astId": 4,
						"contract": "Day-35/code7.sol:UserManagement",
						"label": "users",
						"offset": 0,
						"slot": "0",
						"type": "t_array(t_address)dyn_storage"
					},
					{
						"astId": 8,
						"contract": "Day-35/code7.sol:UserManagement",
						"label": "isUser",
						"offset": 0,
						"slot": "1",
						"type": "t_mapping(t_address,t_bool)"
					}
				],
				"types": {
					"t_address": {
						"encoding": "inplace",
						"label": "address",
						"numberOfBytes": "20"
					},
					"t_array(t_address)dyn_storage": {
						"base": "t_address",
						"encoding": "dynamic_array",
						"label": "address[]",
						"numberOfBytes": "32"
					},
					"t_bool": {
						"encoding": "inplace",
						"label": "bool",
						"numberOfBytes": "1"
					},
					"t_mapping(t_address,t_bool)": {
						"encoding": "mapping",
						"key": "t_address",
						"label": "mapping(address => bool)",
						"numberOfBytes": "32",
						"value": "t_bool"
					}
				}
			},
			"userdoc": {
				"kind": "user",
				"methods": {},
				"version": 1
			}
		}
	}
}