{
	"Day-18/code1.sol": {
		"SolidityTest": {
			"abi": [
				{
					"inputs": [
						{
							"internalType": "uint256",
							"name": "a",
							"type": "uint256"
						},
						{
							"internalType": "uint256",
							"name": "b",
							"type": "uint256"
						}
					],
					"name": "add",
					"outputs": [
						{
							"internalType": "uint256",
							"name": "",
							"type": "uint256"
						}
					],
					"stateMutability": "pure",
					"type": "function"
				},
				{
					"inputs": [
						{
							"internalType": "string",
							"name": "a",
							"type": "string"
						},
						{
							"internalType": "string",
							"name": "b",
							"type": "string"
						}
					],
					"name": "add",
					"outputs": [
						{
							"internalType": "string",
							"name": "",
							"type": "string"
						}
					],
					"stateMutability": "pure",
					"type": "function"
				}
			],
			"devdoc": {
				"kind": "dev",
				"methods": {},
				"version": 1
			},
			"evm": {
				"assembly": "    /* \"Day-18/code1.sol\":68:337  contract SolidityTest{... */\n  mstore(0x40, 0x80)\n  callvalue\n  dup1\n  iszero\n  tag_1\n  jumpi\n  0x00\n  dup1\n  revert\ntag_1:\n  pop\n  dataSize(sub_0)\n  dup1\n  dataOffset(sub_0)\n  0x00\n  codecopy\n  0x00\n  return\nstop\n\nsub_0: assembly {\n        /* \"Day-18/code1.sol\":68:337  contract SolidityTest{... */\n      mstore(0x40, 0x80)\n      callvalue\n      dup1\n      iszero\n      tag_1\n      jumpi\n      0x00\n      dup1\n      revert\n    tag_1:\n      pop\n      jumpi(tag_2, lt(calldatasize, 0x04))\n      shr(0xe0, calldataload(0x00))\n      dup1\n      0x771602f7\n      eq\n      tag_3\n      jumpi\n      dup1\n      0xebdf86ca\n      eq\n      tag_4\n      jumpi\n    tag_2:\n      0x00\n      dup1\n      revert\n        /* \"Day-18/code1.sol\":96:190  function add(uint256 a, uint256 b) public pure returns(uint256){... */\n    tag_3:\n      tag_5\n      0x04\n      dup1\n      calldatasize\n      sub\n      dup2\n      add\n      swap1\n      tag_6\n      swap2\n      swap1\n      tag_7\n      jump\t// in\n    tag_6:\n      tag_8\n      jump\t// in\n    tag_5:\n      mload(0x40)\n      tag_9\n      swap2\n      swap1\n      tag_10\n      jump\t// in\n    tag_9:\n      mload(0x40)\n      dup1\n      swap2\n      sub\n      swap1\n      return\n        /* \"Day-18/code1.sol\":198:334  function add(string memory a, string memory b) public pure returns(string memory){... */\n    tag_4:\n      tag_11\n      0x04\n      dup1\n      calldatasize\n      sub\n      dup2\n      add\n      swap1\n      tag_12\n      swap2\n      swap1\n      tag_13\n      jump\t// in\n    tag_12:\n      tag_14\n      jump\t// in\n    tag_11:\n      mload(0x40)\n      tag_15\n      swap2\n      swap1\n      tag_16\n      jump\t// in\n    tag_15:\n      mload(0x40)\n      dup1\n      swap2\n      sub\n      swap1\n      return\n        /* \"Day-18/code1.sol\":96:190  function add(uint256 a, uint256 b) public pure returns(uint256){... */\n    tag_8:\n        /* \"Day-18/code1.sol\":151:158  uint256 */\n      0x00\n        /* \"Day-18/code1.sol\":181:182  b */\n      dup2\n        /* \"Day-18/code1.sol\":177:178  a */\n      dup4\n        /* \"Day-18/code1.sol\":177:182  a + b */\n      tag_18\n      swap2\n      swap1\n      tag_19\n      jump\t// in\n    tag_18:\n        /* \"Day-18/code1.sol\":170:182  return a + b */\n      swap1\n      pop\n        /* \"Day-18/code1.sol\":96:190  function add(uint256 a, uint256 b) public pure returns(uint256){... */\n      swap3\n      swap2\n      pop\n      pop\n      jump\t// out\n        /* \"Day-18/code1.sol\":198:334  function add(string memory a, string memory b) public pure returns(string memory){... */\n    tag_14:\n        /* \"Day-18/code1.sol\":265:278  string memory */\n      0x60\n        /* \"Day-18/code1.sol\":321:322  a */\n      dup3\n        /* \"Day-18/code1.sol\":323:324  b */\n      dup3\n        /* \"Day-18/code1.sol\":304:325  abi.encodePacked(a,b) */\n      add(0x20, mload(0x40))\n      tag_21\n      swap3\n      swap2\n      swap1\n      tag_22\n      jump\t// in\n    tag_21:\n      mload(0x40)\n      0x20\n      dup2\n      dup4\n      sub\n      sub\n      dup2\n      mstore\n      swap1\n      0x40\n      mstore\n        /* \"Day-18/code1.sol\":290:326  return string(abi.encodePacked(a,b)) */\n      swap1\n      pop\n        /* \"Day-18/code1.sol\":198:334  function add(string memory a, string memory b) public pure returns(string memory){... */\n      swap3\n      swap2\n      pop\n      pop\n      jump\t// out\n        /* \"#utility.yul\":7:82   */\n    tag_23:\n        /* \"#utility.yul\":40:46   */\n      0x00\n        /* \"#utility.yul\":73:75   */\n      0x40\n        /* \"#utility.yul\":67:76   */\n      mload\n        /* \"#utility.yul\":57:76   */\n      swap1\n      pop\n        /* \"#utility.yul\":7:82   */\n      swap1\n      jump\t// out\n        /* \"#utility.yul\":88:205   */\n    tag_24:\n        /* \"#utility.yul\":197:198   */\n      0x00\n        /* \"#utility.yul\":194:195   */\n      dup1\n        /* \"#utility.yul\":187:199   */\n      revert\n        /* \"#utility.yul\":211:328   */\n    tag_25:\n        /* \"#utility.yul\":320:321   */\n      0x00\n        /* \"#utility.yul\":317:318   */\n      dup1\n        /* \"#utility.yul\":310:322   */\n      revert\n        /* \"#utility.yul\":334:411   */\n    tag_26:\n        /* \"#utility.yul\":371:378   */\n      0x00\n        /* \"#utility.yul\":400:405   */\n      dup2\n        /* \"#utility.yul\":389:405   */\n      swap1\n      pop\n        /* \"#utility.yul\":334:411   */\n      swap2\n      swap1\n      pop\n      jump\t// out\n        /* \"#utility.yul\":417:539   */\n    tag_27:\n        /* \"#utility.yul\":490:514   */\n      tag_53\n        /* \"#utility.yul\":508:513   */\n      dup2\n        /* \"#utility.yul\":490:514   */\n      tag_26\n      jump\t// in\n    tag_53:\n        /* \"#utility.yul\":483:488   */\n      dup2\n        /* \"#utility.yul\":480:515   */\n      eq\n        /* \"#utility.yul\":470:533   */\n      tag_54\n      jumpi\n        /* \"#utility.yul\":529:530   */\n      0x00\n        /* \"#utility.yul\":526:527   */\n      dup1\n        /* \"#utility.yul\":519:531   */\n      revert\n        /* \"#utility.yul\":470:533   */\n    tag_54:\n        /* \"#utility.yul\":417:539   */\n      pop\n      jump\t// out\n        /* \"#utility.yul\":545:684   */\n    tag_28:\n        /* \"#utility.yul\":591:596   */\n      0x00\n        /* \"#utility.yul\":629:635   */\n      dup2\n        /* \"#utility.yul\":616:636   */\n      calldataload\n        /* \"#utility.yul\":607:636   */\n      swap1\n      pop\n        /* \"#utility.yul\":645:678   */\n      tag_56\n        /* \"#utility.yul\":672:677   */\n      dup2\n        /* \"#utility.yul\":645:678   */\n      tag_27\n      jump\t// in\n    tag_56:\n        /* \"#utility.yul\":545:684   */\n      swap3\n      swap2\n      pop\n      pop\n      jump\t// out\n        /* \"#utility.yul\":690:1164   */\n    tag_7:\n        /* \"#utility.yul\":758:764   */\n      0x00\n        /* \"#utility.yul\":766:772   */\n      dup1\n        /* \"#utility.yul\":815:817   */\n      0x40\n        /* \"#utility.yul\":803:812   */\n      dup4\n        /* \"#utility.yul\":794:801   */\n      dup6\n        /* \"#utility.yul\":790:813   */\n      sub\n        /* \"#utility.yul\":786:818   */\n      slt\n        /* \"#utility.yul\":783:902   */\n      iszero\n      tag_58\n      jumpi\n        /* \"#utility.yul\":821:900   */\n      tag_59\n      tag_24\n      jump\t// in\n    tag_59:\n        /* \"#utility.yul\":783:902   */\n    tag_58:\n        /* \"#utility.yul\":941:942   */\n      0x00\n        /* \"#utility.yul\":966:1019   */\n      tag_60\n        /* \"#utility.yul\":1011:1018   */\n      dup6\n        /* \"#utility.yul\":1002:1008   */\n      dup3\n        /* \"#utility.yul\":991:1000   */\n      dup7\n        /* \"#utility.yul\":987:1009   */\n      add\n        /* \"#utility.yul\":966:1019   */\n      tag_28\n      jump\t// in\n    tag_60:\n        /* \"#utility.yul\":956:1019   */\n      swap3\n      pop\n        /* \"#utility.yul\":912:1029   */\n      pop\n        /* \"#utility.yul\":1068:1070   */\n      0x20\n        /* \"#utility.yul\":1094:1147   */\n      tag_61\n        /* \"#utility.yul\":1139:1146   */\n      dup6\n        /* \"#utility.yul\":1130:1136   */\n      dup3\n        /* \"#utility.yul\":1119:1128   */\n      dup7\n        /* \"#utility.yul\":1115:1137   */\n      add\n        /* \"#utility.yul\":1094:1147   */\n      tag_28\n      jump\t// in\n    tag_61:\n        /* \"#utility.yul\":1084:1147   */\n      swap2\n      pop\n        /* \"#utility.yul\":1039:1157   */\n      pop\n        /* \"#utility.yul\":690:1164   */\n      swap3\n      pop\n      swap3\n      swap1\n      pop\n      jump\t// out\n        /* \"#utility.yul\":1170:1288   */\n    tag_29:\n        /* \"#utility.yul\":1257:1281   */\n      tag_63\n        /* \"#utility.yul\":1275:1280   */\n      dup2\n        /* \"#utility.yul\":1257:1281   */\n      tag_26\n      jump\t// in\n    tag_63:\n        /* \"#utility.yul\":1252:1255   */\n      dup3\n        /* \"#utility.yul\":1245:1282   */\n      mstore\n        /* \"#utility.yul\":1170:1288   */\n      pop\n      pop\n      jump\t// out\n        /* \"#utility.yul\":1294:1516   */\n    tag_10:\n        /* \"#utility.yul\":1387:1391   */\n      0x00\n        /* \"#utility.yul\":1425:1427   */\n      0x20\n        /* \"#utility.yul\":1414:1423   */\n      dup3\n        /* \"#utility.yul\":1410:1428   */\n      add\n        /* \"#utility.yul\":1402:1428   */\n      swap1\n      pop\n        /* \"#utility.yul\":1438:1509   */\n      tag_65\n        /* \"#utility.yul\":1506:1507   */\n      0x00\n        /* \"#utility.yul\":1495:1504   */\n      dup4\n        /* \"#utility.yul\":1491:1508   */\n      add\n        /* \"#utility.yul\":1482:1488   */\n      dup5\n        /* \"#utility.yul\":1438:1509   */\n      tag_29\n      jump\t// in\n    tag_65:\n        /* \"#utility.yul\":1294:1516   */\n      swap3\n      swap2\n      pop\n      pop\n      jump\t// out\n        /* \"#utility.yul\":1522:1639   */\n    tag_30:\n        /* \"#utility.yul\":1631:1632   */\n      0x00\n        /* \"#utility.yul\":1628:1629   */\n      dup1\n        /* \"#utility.yul\":1621:1633   */\n      revert\n        /* \"#utility.yul\":1645:1762   */\n    tag_31:\n        /* \"#utility.yul\":1754:1755   */\n      0x00\n        /* \"#utility.yul\":1751:1752   */\n      dup1\n        /* \"#utility.yul\":1744:1756   */\n      revert\n        /* \"#utility.yul\":1768:1870   */\n    tag_32:\n        /* \"#utility.yul\":1809:1815   */\n      0x00\n        /* \"#utility.yul\":1860:1862   */\n      0x1f\n        /* \"#utility.yul\":1856:1863   */\n      not\n        /* \"#utility.yul\":1851:1853   */\n      0x1f\n        /* \"#utility.yul\":1844:1849   */\n      dup4\n        /* \"#utility.yul\":1840:1854   */\n      add\n        /* \"#utility.yul\":1836:1864   */\n      and\n        /* \"#utility.yul\":1826:1864   */\n      swap1\n      pop\n        /* \"#utility.yul\":1768:1870   */\n      swap2\n      swap1\n      pop\n      jump\t// out\n        /* \"#utility.yul\":1876:2056   */\n    tag_33:\n        /* \"#utility.yul\":1924:2001   */\n      0x4e487b7100000000000000000000000000000000000000000000000000000000\n        /* \"#utility.yul\":1921:1922   */\n      0x00\n        /* \"#utility.yul\":1914:2002   */\n      mstore\n        /* \"#utility.yul\":2021:2025   */\n      0x41\n        /* \"#utility.yul\":2018:2019   */\n      0x04\n        /* \"#utility.yul\":2011:2026   */\n      mstore\n        /* \"#utility.yul\":2045:2049   */\n      0x24\n        /* \"#utility.yul\":2042:2043   */\n      0x00\n        /* \"#utility.yul\":2035:2050   */\n      revert\n        /* \"#utility.yul\":2062:2343   */\n    tag_34:\n        /* \"#utility.yul\":2145:2172   */\n      tag_71\n        /* \"#utility.yul\":2167:2171   */\n      dup3\n        /* \"#utility.yul\":2145:2172   */\n      tag_32\n      jump\t// in\n    tag_71:\n        /* \"#utility.yul\":2137:2143   */\n      dup2\n        /* \"#utility.yul\":2133:2173   */\n      add\n        /* \"#utility.yul\":2275:2281   */\n      dup2\n        /* \"#utility.yul\":2263:2273   */\n      dup2\n        /* \"#utility.yul\":2260:2282   */\n      lt\n        /* \"#utility.yul\":2239:2257   */\n      0xffffffffffffffff\n        /* \"#utility.yul\":2227:2237   */\n      dup3\n        /* \"#utility.yul\":2224:2258   */\n      gt\n        /* \"#utility.yul\":2221:2283   */\n      or\n        /* \"#utility.yul\":2218:2306   */\n      iszero\n      tag_72\n      jumpi\n        /* \"#utility.yul\":2286:2304   */\n      tag_73\n      tag_33\n      jump\t// in\n    tag_73:\n        /* \"#utility.yul\":2218:2306   */\n    tag_72:\n        /* \"#utility.yul\":2326:2336   */\n      dup1\n        /* \"#utility.yul\":2322:2324   */\n      0x40\n        /* \"#utility.yul\":2315:2337   */\n      mstore\n        /* \"#utility.yul\":2105:2343   */\n      pop\n        /* \"#utility.yul\":2062:2343   */\n      pop\n      pop\n      jump\t// out\n        /* \"#utility.yul\":2349:2478   */\n    tag_35:\n        /* \"#utility.yul\":2383:2389   */\n      0x00\n        /* \"#utility.yul\":2410:2430   */\n      tag_75\n      tag_23\n      jump\t// in\n    tag_75:\n        /* \"#utility.yul\":2400:2430   */\n      swap1\n      pop\n        /* \"#utility.yul\":2439:2472   */\n      tag_76\n        /* \"#utility.yul\":2467:2471   */\n      dup3\n        /* \"#utility.yul\":2459:2465   */\n      dup3\n        /* \"#utility.yul\":2439:2472   */\n      tag_34\n      jump\t// in\n    tag_76:\n        /* \"#utility.yul\":2349:2478   */\n      swap2\n      swap1\n      pop\n      jump\t// out\n        /* \"#utility.yul\":2484:2792   */\n    tag_36:\n        /* \"#utility.yul\":2546:2550   */\n      0x00\n        /* \"#utility.yul\":2636:2654   */\n      0xffffffffffffffff\n        /* \"#utility.yul\":2628:2634   */\n      dup3\n        /* \"#utility.yul\":2625:2655   */\n      gt\n        /* \"#utility.yul\":2622:2678   */\n      iszero\n      tag_78\n      jumpi\n        /* \"#utility.yul\":2658:2676   */\n      tag_79\n      tag_33\n      jump\t// in\n    tag_79:\n        /* \"#utility.yul\":2622:2678   */\n    tag_78:\n        /* \"#utility.yul\":2696:2725   */\n      tag_80\n        /* \"#utility.yul\":2718:2724   */\n      dup3\n        /* \"#utility.yul\":2696:2725   */\n      tag_32\n      jump\t// in\n    tag_80:\n        /* \"#utility.yul\":2688:2725   */\n      swap1\n      pop\n        /* \"#utility.yul\":2780:2784   */\n      0x20\n        /* \"#utility.yul\":2774:2778   */\n      dup2\n        /* \"#utility.yul\":2770:2785   */\n      add\n        /* \"#utility.yul\":2762:2785   */\n      swap1\n      pop\n        /* \"#utility.yul\":2484:2792   */\n      swap2\n      swap1\n      pop\n      jump\t// out\n        /* \"#utility.yul\":2798:2946   */\n    tag_37:\n        /* \"#utility.yul\":2896:2902   */\n      dup3\n        /* \"#utility.yul\":2891:2894   */\n      dup2\n        /* \"#utility.yul\":2886:2889   */\n      dup4\n        /* \"#utility.yul\":2873:2903   */\n      calldatacopy\n        /* \"#utility.yul\":2937:2938   */\n      0x00\n        /* \"#utility.yul\":2928:2934   */\n      dup4\n        /* \"#utility.yul\":2923:2926   */\n      dup4\n        /* \"#utility.yul\":2919:2935   */\n      add\n        /* \"#utility.yul\":2912:2939   */\n      mstore\n        /* \"#utility.yul\":2798:2946   */\n      pop\n      pop\n      pop\n      jump\t// out\n        /* \"#utility.yul\":2952:3377   */\n    tag_38:\n        /* \"#utility.yul\":3030:3035   */\n      0x00\n        /* \"#utility.yul\":3055:3121   */\n      tag_83\n        /* \"#utility.yul\":3071:3120   */\n      tag_84\n        /* \"#utility.yul\":3113:3119   */\n      dup5\n        /* \"#utility.yul\":3071:3120   */\n      tag_36\n      jump\t// in\n    tag_84:\n        /* \"#utility.yul\":3055:3121   */\n      tag_35\n      jump\t// in\n    tag_83:\n        /* \"#utility.yul\":3046:3121   */\n      swap1\n      pop\n        /* \"#utility.yul\":3144:3150   */\n      dup3\n        /* \"#utility.yul\":3137:3142   */\n      dup2\n        /* \"#utility.yul\":3130:3151   */\n      mstore\n        /* \"#utility.yul\":3182:3186   */\n      0x20\n        /* \"#utility.yul\":3175:3180   */\n      dup2\n        /* \"#utility.yul\":3171:3187   */\n      add\n        /* \"#utility.yul\":3220:3223   */\n      dup5\n        /* \"#utility.yul\":3211:3217   */\n      dup5\n        /* \"#utility.yul\":3206:3209   */\n      dup5\n        /* \"#utility.yul\":3202:3218   */\n      add\n        /* \"#utility.yul\":3199:3224   */\n      gt\n        /* \"#utility.yul\":3196:3308   */\n      iszero\n      tag_85\n      jumpi\n        /* \"#utility.yul\":3227:3306   */\n      tag_86\n      tag_31\n      jump\t// in\n    tag_86:\n        /* \"#utility.yul\":3196:3308   */\n    tag_85:\n        /* \"#utility.yul\":3317:3371   */\n      tag_87\n        /* \"#utility.yul\":3364:3370   */\n      dup5\n        /* \"#utility.yul\":3359:3362   */\n      dup3\n        /* \"#utility.yul\":3354:3357   */\n      dup6\n        /* \"#utility.yul\":3317:3371   */\n      tag_37\n      jump\t// in\n    tag_87:\n        /* \"#utility.yul\":3036:3377   */\n      pop\n        /* \"#utility.yul\":2952:3377   */\n      swap4\n      swap3\n      pop\n      pop\n      pop\n      jump\t// out\n        /* \"#utility.yul\":3397:3737   */\n    tag_39:\n        /* \"#utility.yul\":3453:3458   */\n      0x00\n        /* \"#utility.yul\":3502:3505   */\n      dup3\n        /* \"#utility.yul\":3495:3499   */\n      0x1f\n        /* \"#utility.yul\":3487:3493   */\n      dup4\n        /* \"#utility.yul\":3483:3500   */\n      add\n        /* \"#utility.yul\":3479:3506   */\n      slt\n        /* \"#utility.yul\":3469:3591   */\n      tag_89\n      jumpi\n        /* \"#utility.yul\":3510:3589   */\n      tag_90\n      tag_30\n      jump\t// in\n    tag_90:\n        /* \"#utility.yul\":3469:3591   */\n    tag_89:\n        /* \"#utility.yul\":3627:3633   */\n      dup2\n        /* \"#utility.yul\":3614:3634   */\n      calldataload\n        /* \"#utility.yul\":3652:3731   */\n      tag_91\n        /* \"#utility.yul\":3727:3730   */\n      dup5\n        /* \"#utility.yul\":3719:3725   */\n      dup3\n        /* \"#utility.yul\":3712:3716   */\n      0x20\n        /* \"#utility.yul\":3704:3710   */\n      dup7\n        /* \"#utility.yul\":3700:3717   */\n      add\n        /* \"#utility.yul\":3652:3731   */\n      tag_38\n      jump\t// in\n    tag_91:\n        /* \"#utility.yul\":3643:3731   */\n      swap2\n      pop\n        /* \"#utility.yul\":3459:3737   */\n      pop\n        /* \"#utility.yul\":3397:3737   */\n      swap3\n      swap2\n      pop\n      pop\n      jump\t// out\n        /* \"#utility.yul\":3743:4577   */\n    tag_13:\n        /* \"#utility.yul\":3831:3837   */\n      0x00\n        /* \"#utility.yul\":3839:3845   */\n      dup1\n        /* \"#utility.yul\":3888:3890   */\n      0x40\n        /* \"#utility.yul\":3876:3885   */\n      dup4\n        /* \"#utility.yul\":3867:3874   */\n      dup6\n        /* \"#utility.yul\":3863:3886   */\n      sub\n        /* \"#utility.yul\":3859:3891   */\n      slt\n        /* \"#utility.yul\":3856:3975   */\n      iszero\n      tag_93\n      jumpi\n        /* \"#utility.yul\":3894:3973   */\n      tag_94\n      tag_24\n      jump\t// in\n    tag_94:\n        /* \"#utility.yul\":3856:3975   */\n    tag_93:\n        /* \"#utility.yul\":4042:4043   */\n      0x00\n        /* \"#utility.yul\":4031:4040   */\n      dup4\n        /* \"#utility.yul\":4027:4044   */\n      add\n        /* \"#utility.yul\":4014:4045   */\n      calldataload\n        /* \"#utility.yul\":4072:4090   */\n      0xffffffffffffffff\n        /* \"#utility.yul\":4064:4070   */\n      dup2\n        /* \"#utility.yul\":4061:4091   */\n      gt\n        /* \"#utility.yul\":4058:4175   */\n      iszero\n      tag_95\n      jumpi\n        /* \"#utility.yul\":4094:4173   */\n      tag_96\n      tag_25\n      jump\t// in\n    tag_96:\n        /* \"#utility.yul\":4058:4175   */\n    tag_95:\n        /* \"#utility.yul\":4199:4262   */\n      tag_97\n        /* \"#utility.yul\":4254:4261   */\n      dup6\n        /* \"#utility.yul\":4245:4251   */\n      dup3\n        /* \"#utility.yul\":4234:4243   */\n      dup7\n        /* \"#utility.yul\":4230:4252   */\n      add\n        /* \"#utility.yul\":4199:4262   */\n      tag_39\n      jump\t// in\n    tag_97:\n        /* \"#utility.yul\":4189:4262   */\n      swap3\n      pop\n        /* \"#utility.yul\":3985:4272   */\n      pop\n        /* \"#utility.yul\":4339:4341   */\n      0x20\n        /* \"#utility.yul\":4328:4337   */\n      dup4\n        /* \"#utility.yul\":4324:4342   */\n      add\n        /* \"#utility.yul\":4311:4343   */\n      calldataload\n        /* \"#utility.yul\":4370:4388   */\n      0xffffffffffffffff\n        /* \"#utility.yul\":4362:4368   */\n      dup2\n        /* \"#utility.yul\":4359:4389   */\n      gt\n        /* \"#utility.yul\":4356:4473   */\n      iszero\n      tag_98\n      jumpi\n        /* \"#utility.yul\":4392:4471   */\n      tag_99\n      tag_25\n      jump\t// in\n    tag_99:\n        /* \"#utility.yul\":4356:4473   */\n    tag_98:\n        /* \"#utility.yul\":4497:4560   */\n      tag_100\n        /* \"#utility.yul\":4552:4559   */\n      dup6\n        /* \"#utility.yul\":4543:4549   */\n      dup3\n        /* \"#utility.yul\":4532:4541   */\n      dup7\n        /* \"#utility.yul\":4528:4550   */\n      add\n        /* \"#utility.yul\":4497:4560   */\n      tag_39\n      jump\t// in\n    tag_100:\n        /* \"#utility.yul\":4487:4560   */\n      swap2\n      pop\n        /* \"#utility.yul\":4282:4570   */\n      pop\n        /* \"#utility.yul\":3743:4577   */\n      swap3\n      pop\n      swap3\n      swap1\n      pop\n      jump\t// out\n        /* \"#utility.yul\":4583:4682   */\n    tag_40:\n        /* \"#utility.yul\":4635:4641   */\n      0x00\n        /* \"#utility.yul\":4669:4674   */\n      dup2\n        /* \"#utility.yul\":4663:4675   */\n      mload\n        /* \"#utility.yul\":4653:4675   */\n      swap1\n      pop\n        /* \"#utility.yul\":4583:4682   */\n      swap2\n      swap1\n      pop\n      jump\t// out\n        /* \"#utility.yul\":4688:4857   */\n    tag_41:\n        /* \"#utility.yul\":4772:4783   */\n      0x00\n        /* \"#utility.yul\":4806:4812   */\n      dup3\n        /* \"#utility.yul\":4801:4804   */\n      dup3\n        /* \"#utility.yul\":4794:4813   */\n      mstore\n        /* \"#utility.yul\":4846:4850   */\n      0x20\n        /* \"#utility.yul\":4841:4844   */\n      dup3\n        /* \"#utility.yul\":4837:4851   */\n      add\n        /* \"#utility.yul\":4822:4851   */\n      swap1\n      pop\n        /* \"#utility.yul\":4688:4857   */\n      swap3\n      swap2\n      pop\n      pop\n      jump\t// out\n        /* \"#utility.yul\":4863:5002   */\n    tag_42:\n        /* \"#utility.yul\":4952:4958   */\n      dup3\n        /* \"#utility.yul\":4947:4950   */\n      dup2\n        /* \"#utility.yul\":4942:4945   */\n      dup4\n        /* \"#utility.yul\":4936:4959   */\n      mcopy\n        /* \"#utility.yul\":4993:4994   */\n      0x00\n        /* \"#utility.yul\":4984:4990   */\n      dup4\n        /* \"#utility.yul\":4979:4982   */\n      dup4\n        /* \"#utility.yul\":4975:4991   */\n      add\n        /* \"#utility.yul\":4968:4995   */\n      mstore\n        /* \"#utility.yul\":4863:5002   */\n      pop\n      pop\n      pop\n      jump\t// out\n        /* \"#utility.yul\":5008:5385   */\n    tag_43:\n        /* \"#utility.yul\":5096:5099   */\n      0x00\n        /* \"#utility.yul\":5124:5163   */\n      tag_105\n        /* \"#utility.yul\":5157:5162   */\n      dup3\n        /* \"#utility.yul\":5124:5163   */\n      tag_40\n      jump\t// in\n    tag_105:\n        /* \"#utility.yul\":5179:5250   */\n      tag_106\n        /* \"#utility.yul\":5243:5249   */\n      dup2\n        /* \"#utility.yul\":5238:5241   */\n      dup6\n        /* \"#utility.yul\":5179:5250   */\n      tag_41\n      jump\t// in\n    tag_106:\n        /* \"#utility.yul\":5172:5250   */\n      swap4\n      pop\n        /* \"#utility.yul\":5259:5324   */\n      tag_107\n        /* \"#utility.yul\":5317:5323   */\n      dup2\n        /* \"#utility.yul\":5312:5315   */\n      dup6\n        /* \"#utility.yul\":5305:5309   */\n      0x20\n        /* \"#utility.yul\":5298:5303   */\n      dup7\n        /* \"#utility.yul\":5294:5310   */\n      add\n        /* \"#utility.yul\":5259:5324   */\n      tag_42\n      jump\t// in\n    tag_107:\n        /* \"#utility.yul\":5349:5378   */\n      tag_108\n        /* \"#utility.yul\":5371:5377   */\n      dup2\n        /* \"#utility.yul\":5349:5378   */\n      tag_32\n      jump\t// in\n    tag_108:\n        /* \"#utility.yul\":5344:5347   */\n      dup5\n        /* \"#utility.yul\":5340:5379   */\n      add\n        /* \"#utility.yul\":5333:5379   */\n      swap2\n      pop\n        /* \"#utility.yul\":5100:5385   */\n      pop\n        /* \"#utility.yul\":5008:5385   */\n      swap3\n      swap2\n      pop\n      pop\n      jump\t// out\n        /* \"#utility.yul\":5391:5704   */\n    tag_16:\n        /* \"#utility.yul\":5504:5508   */\n      0x00\n        /* \"#utility.yul\":5542:5544   */\n      0x20\n        /* \"#utility.yul\":5531:5540   */\n      dup3\n        /* \"#utility.yul\":5527:5545   */\n      add\n        /* \"#utility.yul\":5519:5545   */\n      swap1\n      pop\n        /* \"#utility.yul\":5591:5600   */\n      dup2\n        /* \"#utility.yul\":5585:5589   */\n      dup2\n        /* \"#utility.yul\":5581:5601   */\n      sub\n        /* \"#utility.yul\":5577:5578   */\n      0x00\n        /* \"#utility.yul\":5566:5575   */\n      dup4\n        /* \"#utility.yul\":5562:5579   */\n      add\n        /* \"#utility.yul\":5555:5602   */\n      mstore\n        /* \"#utility.yul\":5619:5697   */\n      tag_110\n        /* \"#utility.yul\":5692:5696   */\n      dup2\n        /* \"#utility.yul\":5683:5689   */\n      dup5\n        /* \"#utility.yul\":5619:5697   */\n      tag_43\n      jump\t// in\n    tag_110:\n        /* \"#utility.yul\":5611:5697   */\n      swap1\n      pop\n        /* \"#utility.yul\":5391:5704   */\n      swap3\n      swap2\n      pop\n      pop\n      jump\t// out\n        /* \"#utility.yul\":5710:5890   */\n    tag_44:\n        /* \"#utility.yul\":5758:5835   */\n      0x4e487b7100000000000000000000000000000000000000000000000000000000\n        /* \"#utility.yul\":5755:5756   */\n      0x00\n        /* \"#utility.yul\":5748:5836   */\n      mstore\n        /* \"#utility.yul\":5855:5859   */\n      0x11\n        /* \"#utility.yul\":5852:5853   */\n      0x04\n        /* \"#utility.yul\":5845:5860   */\n      mstore\n        /* \"#utility.yul\":5879:5883   */\n      0x24\n        /* \"#utility.yul\":5876:5877   */\n      0x00\n        /* \"#utility.yul\":5869:5884   */\n      revert\n        /* \"#utility.yul\":5896:6087   */\n    tag_19:\n        /* \"#utility.yul\":5936:5939   */\n      0x00\n        /* \"#utility.yul\":5955:5975   */\n      tag_113\n        /* \"#utility.yul\":5973:5974   */\n      dup3\n        /* \"#utility.yul\":5955:5975   */\n      tag_26\n      jump\t// in\n    tag_113:\n        /* \"#utility.yul\":5950:5975   */\n      swap2\n      pop\n        /* \"#utility.yul\":5989:6009   */\n      tag_114\n        /* \"#utility.yul\":6007:6008   */\n      dup4\n        /* \"#utility.yul\":5989:6009   */\n      tag_26\n      jump\t// in\n    tag_114:\n        /* \"#utility.yul\":5984:6009   */\n      swap3\n      pop\n        /* \"#utility.yul\":6032:6033   */\n      dup3\n        /* \"#utility.yul\":6029:6030   */\n      dup3\n        /* \"#utility.yul\":6025:6034   */\n      add\n        /* \"#utility.yul\":6018:6034   */\n      swap1\n      pop\n        /* \"#utility.yul\":6053:6056   */\n      dup1\n        /* \"#utility.yul\":6050:6051   */\n      dup3\n        /* \"#utility.yul\":6047:6057   */\n      gt\n        /* \"#utility.yul\":6044:6080   */\n      iszero\n      tag_115\n      jumpi\n        /* \"#utility.yul\":6060:6078   */\n      tag_116\n      tag_44\n      jump\t// in\n    tag_116:\n        /* \"#utility.yul\":6044:6080   */\n    tag_115:\n        /* \"#utility.yul\":5896:6087   */\n      swap3\n      swap2\n      pop\n      pop\n      jump\t// out\n        /* \"#utility.yul\":6093:6241   */\n    tag_45:\n        /* \"#utility.yul\":6195:6206   */\n      0x00\n        /* \"#utility.yul\":6232:6235   */\n      dup2\n        /* \"#utility.yul\":6217:6235   */\n      swap1\n      pop\n        /* \"#utility.yul\":6093:6241   */\n      swap3\n      swap2\n      pop\n      pop\n      jump\t// out\n        /* \"#utility.yul\":6247:6637   */\n    tag_46:\n        /* \"#utility.yul\":6353:6356   */\n      0x00\n        /* \"#utility.yul\":6381:6420   */\n      tag_119\n        /* \"#utility.yul\":6414:6419   */\n      dup3\n        /* \"#utility.yul\":6381:6420   */\n      tag_40\n      jump\t// in\n    tag_119:\n        /* \"#utility.yul\":6436:6525   */\n      tag_120\n        /* \"#utility.yul\":6518:6524   */\n      dup2\n        /* \"#utility.yul\":6513:6516   */\n      dup6\n        /* \"#utility.yul\":6436:6525   */\n      tag_45\n      jump\t// in\n    tag_120:\n        /* \"#utility.yul\":6429:6525   */\n      swap4\n      pop\n        /* \"#utility.yul\":6534:6599   */\n      tag_121\n        /* \"#utility.yul\":6592:6598   */\n      dup2\n        /* \"#utility.yul\":6587:6590   */\n      dup6\n        /* \"#utility.yul\":6580:6584   */\n      0x20\n        /* \"#utility.yul\":6573:6578   */\n      dup7\n        /* \"#utility.yul\":6569:6585   */\n      add\n        /* \"#utility.yul\":6534:6599   */\n      tag_42\n      jump\t// in\n    tag_121:\n        /* \"#utility.yul\":6624:6630   */\n      dup1\n        /* \"#utility.yul\":6619:6622   */\n      dup5\n        /* \"#utility.yul\":6615:6631   */\n      add\n        /* \"#utility.yul\":6608:6631   */\n      swap2\n      pop\n        /* \"#utility.yul\":6357:6637   */\n      pop\n        /* \"#utility.yul\":6247:6637   */\n      swap3\n      swap2\n      pop\n      pop\n      jump\t// out\n        /* \"#utility.yul\":6643:7078   */\n    tag_22:\n        /* \"#utility.yul\":6823:6826   */\n      0x00\n        /* \"#utility.yul\":6845:6940   */\n      tag_123\n        /* \"#utility.yul\":6936:6939   */\n      dup3\n        /* \"#utility.yul\":6927:6933   */\n      dup6\n        /* \"#utility.yul\":6845:6940   */\n      tag_46\n      jump\t// in\n    tag_123:\n        /* \"#utility.yul\":6838:6940   */\n      swap2\n      pop\n        /* \"#utility.yul\":6957:7052   */\n      tag_124\n        /* \"#utility.yul\":7048:7051   */\n      dup3\n        /* \"#utility.yul\":7039:7045   */\n      dup5\n        /* \"#utility.yul\":6957:7052   */\n      tag_46\n      jump\t// in\n    tag_124:\n        /* \"#utility.yul\":6950:7052   */\n      swap2\n      pop\n        /* \"#utility.yul\":7069:7072   */\n      dup2\n        /* \"#utility.yul\":7062:7072   */\n      swap1\n      pop\n        /* \"#utility.yul\":6643:7078   */\n      swap4\n      swap3\n      pop\n      pop\n      pop\n      jump\t// out\n\n    auxdata: 0xa26469706673582212206354c75ba5bd1d176c2977d6b422b62932ecb3c1ffbd808caa1490fceac0a80564736f6c634300081a0033\n}\n",
				"bytecode": {
					"linkReferences": {},
					"object": "6080604052348015600e575f80fd5b506104a88061001c5f395ff3fe608060405234801561000f575f80fd5b5060043610610034575f3560e01c8063771602f714610038578063ebdf86ca14610068575b5f80fd5b610052600480360381019061004d919061011d565b610098565b60405161005f919061016a565b60405180910390f35b610082600480360381019061007d91906102bf565b6100ad565b60405161008f9190610395565b60405180910390f35b5f81836100a591906103e2565b905092915050565b606082826040516020016100c292919061044f565b604051602081830303815290604052905092915050565b5f604051905090565b5f80fd5b5f80fd5b5f819050919050565b6100fc816100ea565b8114610106575f80fd5b50565b5f81359050610117816100f3565b92915050565b5f8060408385031215610133576101326100e2565b5b5f61014085828601610109565b925050602061015185828601610109565b9150509250929050565b610164816100ea565b82525050565b5f60208201905061017d5f83018461015b565b92915050565b5f80fd5b5f80fd5b5f601f19601f8301169050919050565b7f4e487b71000000000000000000000000000000000000000000000000000000005f52604160045260245ffd5b6101d18261018b565b810181811067ffffffffffffffff821117156101f0576101ef61019b565b5b80604052505050565b5f6102026100d9565b905061020e82826101c8565b919050565b5f67ffffffffffffffff82111561022d5761022c61019b565b5b6102368261018b565b9050602081019050919050565b828183375f83830152505050565b5f61026361025e84610213565b6101f9565b90508281526020810184848401111561027f5761027e610187565b5b61028a848285610243565b509392505050565b5f82601f8301126102a6576102a5610183565b5b81356102b6848260208601610251565b91505092915050565b5f80604083850312156102d5576102d46100e2565b5b5f83013567ffffffffffffffff8111156102f2576102f16100e6565b5b6102fe85828601610292565b925050602083013567ffffffffffffffff81111561031f5761031e6100e6565b5b61032b85828601610292565b9150509250929050565b5f81519050919050565b5f82825260208201905092915050565b8281835e5f83830152505050565b5f61036782610335565b610371818561033f565b935061038181856020860161034f565b61038a8161018b565b840191505092915050565b5f6020820190508181035f8301526103ad818461035d565b905092915050565b7f4e487b71000000000000000000000000000000000000000000000000000000005f52601160045260245ffd5b5f6103ec826100ea565b91506103f7836100ea565b925082820190508082111561040f5761040e6103b5565b5b92915050565b5f81905092915050565b5f61042982610335565b6104338185610415565b935061044381856020860161034f565b80840191505092915050565b5f61045a828561041f565b9150610466828461041f565b9150819050939250505056fea26469706673582212206354c75ba5bd1d176c2977d6b422b62932ecb3c1ffbd808caa1490fceac0a80564736f6c634300081a0033",
					"opcodes": "PUSH1 0x80 PUSH1 0x40 MSTORE CALLVALUE DUP1 ISZERO PUSH1 0xE JUMPI PUSH0 DUP1 REVERT JUMPDEST POP PUSH2 0x4A8 DUP1 PUSH2 0x1C PUSH0 CODECOPY PUSH0 RETURN INVALID PUSH1 0x80 PUSH1 0x40 MSTORE CALLVALUE DUP1 ISZERO PUSH2 0xF JUMPI PUSH0 DUP1 REVERT JUMPDEST POP PUSH1 0x4 CALLDATASIZE LT PUSH2 0x34 JUMPI PUSH0 CALLDATALOAD PUSH1 0xE0 SHR DUP1 PUSH4 0x771602F7 EQ PUSH2 0x38 JUMPI DUP1 PUSH4 0xEBDF86CA EQ PUSH2 0x68 JUMPI JUMPDEST PUSH0 DUP1 REVERT JUMPDEST PUSH2 0x52 PUSH1 0x4 DUP1 CALLDATASIZE SUB DUP2 ADD SWAP1 PUSH2 0x4D SWAP2 SWAP1 PUSH2 0x11D JUMP JUMPDEST PUSH2 0x98 JUMP JUMPDEST PUSH1 0x40 MLOAD PUSH2 0x5F SWAP2 SWAP1 PUSH2 0x16A JUMP JUMPDEST PUSH1 0x40 MLOAD DUP1 SWAP2 SUB SWAP1 RETURN JUMPDEST PUSH2 0x82 PUSH1 0x4 DUP1 CALLDATASIZE SUB DUP2 ADD SWAP1 PUSH2 0x7D SWAP2 SWAP1 PUSH2 0x2BF JUMP JUMPDEST PUSH2 0xAD JUMP JUMPDEST PUSH1 0x40 MLOAD PUSH2 0x8F SWAP2 SWAP1 PUSH2 0x395 JUMP JUMPDEST PUSH1 0x40 MLOAD DUP1 SWAP2 SUB SWAP1 RETURN JUMPDEST PUSH0 DUP2 DUP4 PUSH2 0xA5 SWAP2 SWAP1 PUSH2 0x3E2 JUMP JUMPDEST SWAP1 POP SWAP3 SWAP2 POP POP JUMP JUMPDEST PUSH1 0x60 DUP3 DUP3 PUSH1 0x40 MLOAD PUSH1 0x20 ADD PUSH2 0xC2 SWAP3 SWAP2 SWAP1 PUSH2 0x44F JUMP JUMPDEST PUSH1 0x40 MLOAD PUSH1 0x20 DUP2 DUP4 SUB SUB DUP2 MSTORE SWAP1 PUSH1 0x40 MSTORE SWAP1 POP SWAP3 SWAP2 POP POP JUMP JUMPDEST PUSH0 PUSH1 0x40 MLOAD SWAP1 POP SWAP1 JUMP JUMPDEST PUSH0 DUP1 REVERT JUMPDEST PUSH0 DUP1 REVERT JUMPDEST PUSH0 DUP2 SWAP1 POP SWAP2 SWAP1 POP JUMP JUMPDEST PUSH2 0xFC DUP2 PUSH2 0xEA JUMP JUMPDEST DUP2 EQ PUSH2 0x106 JUMPI PUSH0 DUP1 REVERT JUMPDEST POP JUMP JUMPDEST PUSH0 DUP2 CALLDATALOAD SWAP1 POP PUSH2 0x117 DUP2 PUSH2 0xF3 JUMP JUMPDEST SWAP3 SWAP2 POP POP JUMP JUMPDEST PUSH0 DUP1 PUSH1 0x40 DUP4 DUP6 SUB SLT ISZERO PUSH2 0x133 JUMPI PUSH2 0x132 PUSH2 0xE2 JUMP JUMPDEST JUMPDEST PUSH0 PUSH2 0x140 DUP6 DUP3 DUP7 ADD PUSH2 0x109 JUMP JUMPDEST SWAP3 POP POP PUSH1 0x20 PUSH2 0x151 DUP6 DUP3 DUP7 ADD PUSH2 0x109 JUMP JUMPDEST SWAP2 POP POP SWAP3 POP SWAP3 SWAP1 POP JUMP JUMPDEST PUSH2 0x164 DUP2 PUSH2 0xEA JUMP JUMPDEST DUP3 MSTORE POP POP JUMP JUMPDEST PUSH0 PUSH1 0x20 DUP3 ADD SWAP1 POP PUSH2 0x17D PUSH0 DUP4 ADD DUP5 PUSH2 0x15B JUMP JUMPDEST SWAP3 SWAP2 POP POP JUMP JUMPDEST PUSH0 DUP1 REVERT JUMPDEST PUSH0 DUP1 REVERT JUMPDEST PUSH0 PUSH1 0x1F NOT PUSH1 0x1F DUP4 ADD AND SWAP1 POP SWAP2 SWAP1 POP JUMP JUMPDEST PUSH32 0x4E487B7100000000000000000000000000000000000000000000000000000000 PUSH0 MSTORE PUSH1 0x41 PUSH1 0x4 MSTORE PUSH1 0x24 PUSH0 REVERT JUMPDEST PUSH2 0x1D1 DUP3 PUSH2 0x18B JUMP JUMPDEST DUP2 ADD DUP2 DUP2 LT PUSH8 0xFFFFFFFFFFFFFFFF DUP3 GT OR ISZERO PUSH2 0x1F0 JUMPI PUSH2 0x1EF PUSH2 0x19B JUMP JUMPDEST JUMPDEST DUP1 PUSH1 0x40 MSTORE POP POP POP JUMP JUMPDEST PUSH0 PUSH2 0x202 PUSH2 0xD9 JUMP JUMPDEST SWAP1 POP PUSH2 0x20E DUP3 DUP3 PUSH2 0x1C8 JUMP JUMPDEST SWAP2 SWAP1 POP JUMP JUMPDEST PUSH0 PUSH8 0xFFFFFFFFFFFFFFFF DUP3 GT ISZERO PUSH2 0x22D JUMPI PUSH2 0x22C PUSH2 0x19B JUMP JUMPDEST JUMPDEST PUSH2 0x236 DUP3 PUSH2 0x18B JUMP JUMPDEST SWAP1 POP PUSH1 0x20 DUP2 ADD SWAP1 POP SWAP2 SWAP1 POP JUMP JUMPDEST DUP3 DUP2 DUP4 CALLDATACOPY PUSH0 DUP4 DUP4 ADD MSTORE POP POP POP JUMP JUMPDEST PUSH0 PUSH2 0x263 PUSH2 0x25E DUP5 PUSH2 0x213 JUMP JUMPDEST PUSH2 0x1F9 JUMP JUMPDEST SWAP1 POP DUP3 DUP2 MSTORE PUSH1 0x20 DUP2 ADD DUP5 DUP5 DUP5 ADD GT ISZERO PUSH2 0x27F JUMPI PUSH2 0x27E PUSH2 0x187 JUMP JUMPDEST JUMPDEST PUSH2 0x28A DUP5 DUP3 DUP6 PUSH2 0x243 JUMP JUMPDEST POP SWAP4 SWAP3 POP POP POP JUMP JUMPDEST PUSH0 DUP3 PUSH1 0x1F DUP4 ADD SLT PUSH2 0x2A6 JUMPI PUSH2 0x2A5 PUSH2 0x183 JUMP JUMPDEST JUMPDEST DUP2 CALLDATALOAD PUSH2 0x2B6 DUP5 DUP3 PUSH1 0x20 DUP7 ADD PUSH2 0x251 JUMP JUMPDEST SWAP2 POP POP SWAP3 SWAP2 POP POP JUMP JUMPDEST PUSH0 DUP1 PUSH1 0x40 DUP4 DUP6 SUB SLT ISZERO PUSH2 0x2D5 JUMPI PUSH2 0x2D4 PUSH2 0xE2 JUMP JUMPDEST JUMPDEST PUSH0 DUP4 ADD CALLDATALOAD PUSH8 0xFFFFFFFFFFFFFFFF DUP2 GT ISZERO PUSH2 0x2F2 JUMPI PUSH2 0x2F1 PUSH2 0xE6 JUMP JUMPDEST JUMPDEST PUSH2 0x2FE DUP6 DUP3 DUP7 ADD PUSH2 0x292 JUMP JUMPDEST SWAP3 POP POP PUSH1 0x20 DUP4 ADD CALLDATALOAD PUSH8 0xFFFFFFFFFFFFFFFF DUP2 GT ISZERO PUSH2 0x31F JUMPI PUSH2 0x31E PUSH2 0xE6 JUMP JUMPDEST JUMPDEST PUSH2 0x32B DUP6 DUP3 DUP7 ADD PUSH2 0x292 JUMP JUMPDEST SWAP2 POP POP SWAP3 POP SWAP3 SWAP1 POP JUMP JUMPDEST PUSH0 DUP2 MLOAD SWAP1 POP SWAP2 SWAP1 POP JUMP JUMPDEST PUSH0 DUP3 DUP3 MSTORE PUSH1 0x20 DUP3 ADD SWAP1 POP SWAP3 SWAP2 POP POP JUMP JUMPDEST DUP3 DUP2 DUP4 MCOPY PUSH0 DUP4 DUP4 ADD MSTORE POP POP POP JUMP JUMPDEST PUSH0 PUSH2 0x367 DUP3 PUSH2 0x335 JUMP JUMPDEST PUSH2 0x371 DUP2 DUP6 PUSH2 0x33F JUMP JUMPDEST SWAP4 POP PUSH2 0x381 DUP2 DUP6 PUSH1 0x20 DUP7 ADD PUSH2 0x34F JUMP JUMPDEST PUSH2 0x38A DUP2 PUSH2 0x18B JUMP JUMPDEST DUP5 ADD SWAP2 POP POP SWAP3 SWAP2 POP POP JUMP JUMPDEST PUSH0 PUSH1 0x20 DUP3 ADD SWAP1 POP DUP2 DUP2 SUB PUSH0 DUP4 ADD MSTORE PUSH2 0x3AD DUP2 DUP5 PUSH2 0x35D JUMP JUMPDEST SWAP1 POP SWAP3 SWAP2 POP POP JUMP JUMPDEST PUSH32 0x4E487B7100000000000000000000000000000000000000000000000000000000 PUSH0 MSTORE PUSH1 0x11 PUSH1 0x4 MSTORE PUSH1 0x24 PUSH0 REVERT JUMPDEST PUSH0 PUSH2 0x3EC DUP3 PUSH2 0xEA JUMP JUMPDEST SWAP2 POP PUSH2 0x3F7 DUP4 PUSH2 0xEA JUMP JUMPDEST SWAP3 POP DUP3 DUP3 ADD SWAP1 POP DUP1 DUP3 GT ISZERO PUSH2 0x40F JUMPI PUSH2 0x40E PUSH2 0x3B5 JUMP JUMPDEST JUMPDEST SWAP3 SWAP2 POP POP JUMP JUMPDEST PUSH0 DUP2 SWAP1 POP SWAP3 SWAP2 POP POP JUMP JUMPDEST PUSH0 PUSH2 0x429 DUP3 PUSH2 0x335 JUMP JUMPDEST PUSH2 0x433 DUP2 DUP6 PUSH2 0x415 JUMP JUMPDEST SWAP4 POP PUSH2 0x443 DUP2 DUP6 PUSH1 0x20 DUP7 ADD PUSH2 0x34F JUMP JUMPDEST DUP1 DUP5 ADD SWAP2 POP POP SWAP3 SWAP2 POP POP JUMP JUMPDEST PUSH0 PUSH2 0x45A DUP3 DUP6 PUSH2 0x41F JUMP JUMPDEST SWAP2 POP PUSH2 0x466 DUP3 DUP5 PUSH2 0x41F JUMP JUMPDEST SWAP2 POP DUP2 SWAP1 POP SWAP4 SWAP3 POP POP POP JUMP INVALID LOG2 PUSH5 0x6970667358 0x22 SLT KECCAK256 PUSH4 0x54C75BA5 0xBD SAR OR PUSH13 0x2977D6B422B62932ECB3C1FFBD DUP1 DUP13 0xAA EQ SWAP1 0xFC 0xEA 0xC0 0xA8 SDIV PUSH5 0x736F6C6343 STOP ADDMOD BYTE STOP CALLER "
				},
				"gasEstimates": {
					"creation": {
						"codeDepositCost": "238400",
						"executionCost": "279",
						"totalCost": "238679"
					},
					"external": {
						"add(string,string)": "infinite",
						"add(uint256,uint256)": "infinite"
					}
				},
				"methodIdentifiers": {
					"add(string,string)": "ebdf86ca",
					"add(uint256,uint256)": "771602f7"
				}
			},
			"storageLayout": {
				"storage": [],
				"types": null
			},
			"userdoc": {
				"kind": "user",
				"methods": {},
				"version": 1
			}
		}
	}
}