{
	"Day-32/ownership.sol": {
		"TrackOwner": {
			"abi": [
				{
					"inputs": [
						{
							"internalType": "address",
							"name": "",
							"type": "address"
						}
					],
					"name": "asset",
					"outputs": [
						{
							"internalType": "uint256",
							"name": "assetID",
							"type": "uint256"
						},
						{
							"internalType": "address",
							"name": "owner",
							"type": "address"
						},
						{
							"internalType": "string",
							"name": "details",
							"type": "string"
						}
					],
					"stateMutability": "view",
					"type": "function"
				}
			],
			"devdoc": {
				"kind": "dev",
				"methods": {},
				"version": 1
			},
			"evm": {
				"assembly": "    /* \"Day-32/ownership.sol\":60:307  contract TrackOwner{... */\n  mstore(0x40, 0x80)\n  callvalue\n  dup1\n  iszero\n  tag_1\n  jumpi\n  0x00\n  dup1\n  revert\ntag_1:\n  pop\n  dataSize(sub_0)\n  dup1\n  dataOffset(sub_0)\n  0x00\n  codecopy\n  0x00\n  return\nstop\n\nsub_0: assembly {\n        /* \"Day-32/ownership.sol\":60:307  contract TrackOwner{... */\n      mstore(0x40, 0x80)\n      callvalue\n      dup1\n      iszero\n      tag_1\n      jumpi\n      0x00\n      dup1\n      revert\n    tag_1:\n      pop\n      jumpi(tag_2, lt(calldatasize, 0x04))\n      shr(0xe0, calldataload(0x00))\n      dup1\n      0x9c4667a2\n      eq\n      tag_3\n      jumpi\n    tag_2:\n      0x00\n      dup1\n      revert\n        /* \"Day-32/ownership.sol\":256:295  mapping (address => Asset) public asset */\n    tag_3:\n      tag_4\n      0x04\n      dup1\n      calldatasize\n      sub\n      dup2\n      add\n      swap1\n      tag_5\n      swap2\n      swap1\n      tag_6\n      jump\t// in\n    tag_5:\n      tag_7\n      jump\t// in\n    tag_4:\n      mload(0x40)\n      tag_8\n      swap4\n      swap3\n      swap2\n      swap1\n      tag_9\n      jump\t// in\n    tag_8:\n      mload(0x40)\n      dup1\n      swap2\n      sub\n      swap1\n      return\n    tag_7:\n      mstore(0x20, 0x00)\n      dup1\n      0x00\n      mstore\n      keccak256(0x00, 0x40)\n      0x00\n      swap2\n      pop\n      swap1\n      pop\n      dup1\n      0x00\n      add\n      sload\n      swap1\n      dup1\n      0x01\n      add\n      0x00\n      swap1\n      sload\n      swap1\n      0x0100\n      exp\n      swap1\n      div\n      0xffffffffffffffffffffffffffffffffffffffff\n      and\n      swap1\n      dup1\n      0x02\n      add\n      dup1\n      sload\n      tag_10\n      swap1\n      tag_11\n      jump\t// in\n    tag_10:\n      dup1\n      0x1f\n      add\n      0x20\n      dup1\n      swap2\n      div\n      mul\n      0x20\n      add\n      mload(0x40)\n      swap1\n      dup2\n      add\n      0x40\n      mstore\n      dup1\n      swap3\n      swap2\n      swap1\n      dup2\n      dup2\n      mstore\n      0x20\n      add\n      dup3\n      dup1\n      sload\n      tag_12\n      swap1\n      tag_11\n      jump\t// in\n    tag_12:\n      dup1\n      iszero\n      tag_13\n      jumpi\n      dup1\n      0x1f\n      lt\n      tag_14\n      jumpi\n      0x0100\n      dup1\n      dup4\n      sload\n      div\n      mul\n      dup4\n      mstore\n      swap2\n      0x20\n      add\n      swap2\n      jump(tag_13)\n    tag_14:\n      dup3\n      add\n      swap2\n      swap1\n      0x00\n      mstore\n      keccak256(0x00, 0x20)\n      swap1\n    tag_15:\n      dup2\n      sload\n      dup2\n      mstore\n      swap1\n      0x01\n      add\n      swap1\n      0x20\n      add\n      dup1\n      dup4\n      gt\n      tag_15\n      jumpi\n      dup3\n      swap1\n      sub\n      0x1f\n      and\n      dup3\n      add\n      swap2\n    tag_13:\n      pop\n      pop\n      pop\n      pop\n      pop\n      swap1\n      pop\n      dup4\n      jump\t// out\n        /* \"#utility.yul\":88:205   */\n    tag_17:\n        /* \"#utility.yul\":197:198   */\n      0x00\n        /* \"#utility.yul\":194:195   */\n      dup1\n        /* \"#utility.yul\":187:199   */\n      revert\n        /* \"#utility.yul\":334:460   */\n    tag_19:\n        /* \"#utility.yul\":371:378   */\n      0x00\n        /* \"#utility.yul\":411:453   */\n      0xffffffffffffffffffffffffffffffffffffffff\n        /* \"#utility.yul\":404:409   */\n      dup3\n        /* \"#utility.yul\":400:454   */\n      and\n        /* \"#utility.yul\":389:454   */\n      swap1\n      pop\n        /* \"#utility.yul\":334:460   */\n      swap2\n      swap1\n      pop\n      jump\t// out\n        /* \"#utility.yul\":466:562   */\n    tag_20:\n        /* \"#utility.yul\":503:510   */\n      0x00\n        /* \"#utility.yul\":532:556   */\n      tag_38\n        /* \"#utility.yul\":550:555   */\n      dup3\n        /* \"#utility.yul\":532:556   */\n      tag_19\n      jump\t// in\n    tag_38:\n        /* \"#utility.yul\":521:556   */\n      swap1\n      pop\n        /* \"#utility.yul\":466:562   */\n      swap2\n      swap1\n      pop\n      jump\t// out\n        /* \"#utility.yul\":568:690   */\n    tag_21:\n        /* \"#utility.yul\":641:665   */\n      tag_40\n        /* \"#utility.yul\":659:664   */\n      dup2\n        /* \"#utility.yul\":641:665   */\n      tag_20\n      jump\t// in\n    tag_40:\n        /* \"#utility.yul\":634:639   */\n      dup2\n        /* \"#utility.yul\":631:666   */\n      eq\n        /* \"#utility.yul\":621:684   */\n      tag_41\n      jumpi\n        /* \"#utility.yul\":680:681   */\n      0x00\n        /* \"#utility.yul\":677:678   */\n      dup1\n        /* \"#utility.yul\":670:682   */\n      revert\n        /* \"#utility.yul\":621:684   */\n    tag_41:\n        /* \"#utility.yul\":568:690   */\n      pop\n      jump\t// out\n        /* \"#utility.yul\":696:835   */\n    tag_22:\n        /* \"#utility.yul\":742:747   */\n      0x00\n        /* \"#utility.yul\":780:786   */\n      dup2\n        /* \"#utility.yul\":767:787   */\n      calldataload\n        /* \"#utility.yul\":758:787   */\n      swap1\n      pop\n        /* \"#utility.yul\":796:829   */\n      tag_43\n        /* \"#utility.yul\":823:828   */\n      dup2\n        /* \"#utility.yul\":796:829   */\n      tag_21\n      jump\t// in\n    tag_43:\n        /* \"#utility.yul\":696:835   */\n      swap3\n      swap2\n      pop\n      pop\n      jump\t// out\n        /* \"#utility.yul\":841:1170   */\n    tag_6:\n        /* \"#utility.yul\":900:906   */\n      0x00\n        /* \"#utility.yul\":949:951   */\n      0x20\n        /* \"#utility.yul\":937:946   */\n      dup3\n        /* \"#utility.yul\":928:935   */\n      dup5\n        /* \"#utility.yul\":924:947   */\n      sub\n        /* \"#utility.yul\":920:952   */\n      slt\n        /* \"#utility.yul\":917:1036   */\n      iszero\n      tag_45\n      jumpi\n        /* \"#utility.yul\":955:1034   */\n      tag_46\n      tag_17\n      jump\t// in\n    tag_46:\n        /* \"#utility.yul\":917:1036   */\n    tag_45:\n        /* \"#utility.yul\":1075:1076   */\n      0x00\n        /* \"#utility.yul\":1100:1153   */\n      tag_47\n        /* \"#utility.yul\":1145:1152   */\n      dup5\n        /* \"#utility.yul\":1136:1142   */\n      dup3\n        /* \"#utility.yul\":1125:1134   */\n      dup6\n        /* \"#utility.yul\":1121:1143   */\n      add\n        /* \"#utility.yul\":1100:1153   */\n      tag_22\n      jump\t// in\n    tag_47:\n        /* \"#utility.yul\":1090:1153   */\n      swap2\n      pop\n        /* \"#utility.yul\":1046:1163   */\n      pop\n        /* \"#utility.yul\":841:1170   */\n      swap3\n      swap2\n      pop\n      pop\n      jump\t// out\n        /* \"#utility.yul\":1176:1253   */\n    tag_23:\n        /* \"#utility.yul\":1213:1220   */\n      0x00\n        /* \"#utility.yul\":1242:1247   */\n      dup2\n        /* \"#utility.yul\":1231:1247   */\n      swap1\n      pop\n        /* \"#utility.yul\":1176:1253   */\n      swap2\n      swap1\n      pop\n      jump\t// out\n        /* \"#utility.yul\":1259:1377   */\n    tag_24:\n        /* \"#utility.yul\":1346:1370   */\n      tag_50\n        /* \"#utility.yul\":1364:1369   */\n      dup2\n        /* \"#utility.yul\":1346:1370   */\n      tag_23\n      jump\t// in\n    tag_50:\n        /* \"#utility.yul\":1341:1344   */\n      dup3\n        /* \"#utility.yul\":1334:1371   */\n      mstore\n        /* \"#utility.yul\":1259:1377   */\n      pop\n      pop\n      jump\t// out\n        /* \"#utility.yul\":1383:1501   */\n    tag_25:\n        /* \"#utility.yul\":1470:1494   */\n      tag_52\n        /* \"#utility.yul\":1488:1493   */\n      dup2\n        /* \"#utility.yul\":1470:1494   */\n      tag_20\n      jump\t// in\n    tag_52:\n        /* \"#utility.yul\":1465:1468   */\n      dup3\n        /* \"#utility.yul\":1458:1495   */\n      mstore\n        /* \"#utility.yul\":1383:1501   */\n      pop\n      pop\n      jump\t// out\n        /* \"#utility.yul\":1507:1606   */\n    tag_26:\n        /* \"#utility.yul\":1559:1565   */\n      0x00\n        /* \"#utility.yul\":1593:1598   */\n      dup2\n        /* \"#utility.yul\":1587:1599   */\n      mload\n        /* \"#utility.yul\":1577:1599   */\n      swap1\n      pop\n        /* \"#utility.yul\":1507:1606   */\n      swap2\n      swap1\n      pop\n      jump\t// out\n        /* \"#utility.yul\":1612:1781   */\n    tag_27:\n        /* \"#utility.yul\":1696:1707   */\n      0x00\n        /* \"#utility.yul\":1730:1736   */\n      dup3\n        /* \"#utility.yul\":1725:1728   */\n      dup3\n        /* \"#utility.yul\":1718:1737   */\n      mstore\n        /* \"#utility.yul\":1770:1774   */\n      0x20\n        /* \"#utility.yul\":1765:1768   */\n      dup3\n        /* \"#utility.yul\":1761:1775   */\n      add\n        /* \"#utility.yul\":1746:1775   */\n      swap1\n      pop\n        /* \"#utility.yul\":1612:1781   */\n      swap3\n      swap2\n      pop\n      pop\n      jump\t// out\n        /* \"#utility.yul\":1787:1926   */\n    tag_28:\n        /* \"#utility.yul\":1876:1882   */\n      dup3\n        /* \"#utility.yul\":1871:1874   */\n      dup2\n        /* \"#utility.yul\":1866:1869   */\n      dup4\n        /* \"#utility.yul\":1860:1883   */\n      mcopy\n        /* \"#utility.yul\":1917:1918   */\n      0x00\n        /* \"#utility.yul\":1908:1914   */\n      dup4\n        /* \"#utility.yul\":1903:1906   */\n      dup4\n        /* \"#utility.yul\":1899:1915   */\n      add\n        /* \"#utility.yul\":1892:1919   */\n      mstore\n        /* \"#utility.yul\":1787:1926   */\n      pop\n      pop\n      pop\n      jump\t// out\n        /* \"#utility.yul\":1932:2034   */\n    tag_29:\n        /* \"#utility.yul\":1973:1979   */\n      0x00\n        /* \"#utility.yul\":2024:2026   */\n      0x1f\n        /* \"#utility.yul\":2020:2027   */\n      not\n        /* \"#utility.yul\":2015:2017   */\n      0x1f\n        /* \"#utility.yul\":2008:2013   */\n      dup4\n        /* \"#utility.yul\":2004:2018   */\n      add\n        /* \"#utility.yul\":2000:2028   */\n      and\n        /* \"#utility.yul\":1990:2028   */\n      swap1\n      pop\n        /* \"#utility.yul\":1932:2034   */\n      swap2\n      swap1\n      pop\n      jump\t// out\n        /* \"#utility.yul\":2040:2417   */\n    tag_30:\n        /* \"#utility.yul\":2128:2131   */\n      0x00\n        /* \"#utility.yul\":2156:2195   */\n      tag_58\n        /* \"#utility.yul\":2189:2194   */\n      dup3\n        /* \"#utility.yul\":2156:2195   */\n      tag_26\n      jump\t// in\n    tag_58:\n        /* \"#utility.yul\":2211:2282   */\n      tag_59\n        /* \"#utility.yul\":2275:2281   */\n      dup2\n        /* \"#utility.yul\":2270:2273   */\n      dup6\n        /* \"#utility.yul\":2211:2282   */\n      tag_27\n      jump\t// in\n    tag_59:\n        /* \"#utility.yul\":2204:2282   */\n      swap4\n      pop\n        /* \"#utility.yul\":2291:2356   */\n      tag_60\n        /* \"#utility.yul\":2349:2355   */\n      dup2\n        /* \"#utility.yul\":2344:2347   */\n      dup6\n        /* \"#utility.yul\":2337:2341   */\n      0x20\n        /* \"#utility.yul\":2330:2335   */\n      dup7\n        /* \"#utility.yul\":2326:2342   */\n      add\n        /* \"#utility.yul\":2291:2356   */\n      tag_28\n      jump\t// in\n    tag_60:\n        /* \"#utility.yul\":2381:2410   */\n      tag_61\n        /* \"#utility.yul\":2403:2409   */\n      dup2\n        /* \"#utility.yul\":2381:2410   */\n      tag_29\n      jump\t// in\n    tag_61:\n        /* \"#utility.yul\":2376:2379   */\n      dup5\n        /* \"#utility.yul\":2372:2411   */\n      add\n        /* \"#utility.yul\":2365:2411   */\n      swap2\n      pop\n        /* \"#utility.yul\":2132:2417   */\n      pop\n        /* \"#utility.yul\":2040:2417   */\n      swap3\n      swap2\n      pop\n      pop\n      jump\t// out\n        /* \"#utility.yul\":2423:2956   */\n    tag_9:\n        /* \"#utility.yul\":2592:2596   */\n      0x00\n        /* \"#utility.yul\":2630:2632   */\n      0x60\n        /* \"#utility.yul\":2619:2628   */\n      dup3\n        /* \"#utility.yul\":2615:2633   */\n      add\n        /* \"#utility.yul\":2607:2633   */\n      swap1\n      pop\n        /* \"#utility.yul\":2643:2714   */\n      tag_63\n        /* \"#utility.yul\":2711:2712   */\n      0x00\n        /* \"#utility.yul\":2700:2709   */\n      dup4\n        /* \"#utility.yul\":2696:2713   */\n      add\n        /* \"#utility.yul\":2687:2693   */\n      dup7\n        /* \"#utility.yul\":2643:2714   */\n      tag_24\n      jump\t// in\n    tag_63:\n        /* \"#utility.yul\":2724:2796   */\n      tag_64\n        /* \"#utility.yul\":2792:2794   */\n      0x20\n        /* \"#utility.yul\":2781:2790   */\n      dup4\n        /* \"#utility.yul\":2777:2795   */\n      add\n        /* \"#utility.yul\":2768:2774   */\n      dup6\n        /* \"#utility.yul\":2724:2796   */\n      tag_25\n      jump\t// in\n    tag_64:\n        /* \"#utility.yul\":2843:2852   */\n      dup2\n        /* \"#utility.yul\":2837:2841   */\n      dup2\n        /* \"#utility.yul\":2833:2853   */\n      sub\n        /* \"#utility.yul\":2828:2830   */\n      0x40\n        /* \"#utility.yul\":2817:2826   */\n      dup4\n        /* \"#utility.yul\":2813:2831   */\n      add\n        /* \"#utility.yul\":2806:2854   */\n      mstore\n        /* \"#utility.yul\":2871:2949   */\n      tag_65\n        /* \"#utility.yul\":2944:2948   */\n      dup2\n        /* \"#utility.yul\":2935:2941   */\n      dup5\n        /* \"#utility.yul\":2871:2949   */\n      tag_30\n      jump\t// in\n    tag_65:\n        /* \"#utility.yul\":2863:2949   */\n      swap1\n      pop\n        /* \"#utility.yul\":2423:2956   */\n      swap5\n      swap4\n      pop\n      pop\n      pop\n      pop\n      jump\t// out\n        /* \"#utility.yul\":2962:3142   */\n    tag_31:\n        /* \"#utility.yul\":3010:3087   */\n      0x4e487b7100000000000000000000000000000000000000000000000000000000\n        /* \"#utility.yul\":3007:3008   */\n      0x00\n        /* \"#utility.yul\":3000:3088   */\n      mstore\n        /* \"#utility.yul\":3107:3111   */\n      0x22\n        /* \"#utility.yul\":3104:3105   */\n      0x04\n        /* \"#utility.yul\":3097:3112   */\n      mstore\n        /* \"#utility.yul\":3131:3135   */\n      0x24\n        /* \"#utility.yul\":3128:3129   */\n      0x00\n        /* \"#utility.yul\":3121:3136   */\n      revert\n        /* \"#utility.yul\":3148:3468   */\n    tag_11:\n        /* \"#utility.yul\":3192:3198   */\n      0x00\n        /* \"#utility.yul\":3229:3230   */\n      0x02\n        /* \"#utility.yul\":3223:3227   */\n      dup3\n        /* \"#utility.yul\":3219:3231   */\n      div\n        /* \"#utility.yul\":3209:3231   */\n      swap1\n      pop\n        /* \"#utility.yul\":3276:3277   */\n      0x01\n        /* \"#utility.yul\":3270:3274   */\n      dup3\n        /* \"#utility.yul\":3266:3278   */\n      and\n        /* \"#utility.yul\":3297:3315   */\n      dup1\n        /* \"#utility.yul\":3287:3368   */\n      tag_68\n      jumpi\n        /* \"#utility.yul\":3353:3357   */\n      0x7f\n        /* \"#utility.yul\":3345:3351   */\n      dup3\n        /* \"#utility.yul\":3341:3358   */\n      and\n        /* \"#utility.yul\":3331:3358   */\n      swap2\n      pop\n        /* \"#utility.yul\":3287:3368   */\n    tag_68:\n        /* \"#utility.yul\":3415:3417   */\n      0x20\n        /* \"#utility.yul\":3407:3413   */\n      dup3\n        /* \"#utility.yul\":3404:3418   */\n      lt\n        /* \"#utility.yul\":3384:3402   */\n      dup2\n        /* \"#utility.yul\":3381:3419   */\n      sub\n        /* \"#utility.yul\":3378:3462   */\n      tag_69\n      jumpi\n        /* \"#utility.yul\":3434:3452   */\n      tag_70\n      tag_31\n      jump\t// in\n    tag_70:\n        /* \"#utility.yul\":3378:3462   */\n    tag_69:\n        /* \"#utility.yul\":3199:3468   */\n      pop\n        /* \"#utility.yul\":3148:3468   */\n      swap2\n      swap1\n      pop\n      jump\t// out\n\n    auxdata: 0xa264697066735822122086045bf137c623be510374a781c259489dc141ab934acd13f2b7fa3ef6448b5e64736f6c634300081a0033\n}\n",
				"bytecode": {
					"linkReferences": {},
					"object": "6080604052348015600e575f80fd5b506103188061001c5f395ff3fe608060405234801561000f575f80fd5b5060043610610029575f3560e01c80639c4667a21461002d575b5f80fd5b61004760048036038101906100429190610187565b61005f565b60405161005693929190610249565b60405180910390f35b5f602052805f5260405f205f91509050805f015490806001015f9054906101000a900473ffffffffffffffffffffffffffffffffffffffff16908060020180546100a8906102b2565b80601f01602080910402602001604051908101604052809291908181526020018280546100d4906102b2565b801561011f5780601f106100f65761010080835404028352916020019161011f565b820191905f5260205f20905b81548152906001019060200180831161010257829003601f168201915b5050505050905083565b5f80fd5b5f73ffffffffffffffffffffffffffffffffffffffff82169050919050565b5f6101568261012d565b9050919050565b6101668161014c565b8114610170575f80fd5b50565b5f813590506101818161015d565b92915050565b5f6020828403121561019c5761019b610129565b5b5f6101a984828501610173565b91505092915050565b5f819050919050565b6101c4816101b2565b82525050565b6101d38161014c565b82525050565b5f81519050919050565b5f82825260208201905092915050565b8281835e5f83830152505050565b5f601f19601f8301169050919050565b5f61021b826101d9565b61022581856101e3565b93506102358185602086016101f3565b61023e81610201565b840191505092915050565b5f60608201905061025c5f8301866101bb565b61026960208301856101ca565b818103604083015261027b8184610211565b9050949350505050565b7f4e487b71000000000000000000000000000000000000000000000000000000005f52602260045260245ffd5b5f60028204905060018216806102c957607f821691505b6020821081036102dc576102db610285565b5b5091905056fea264697066735822122086045bf137c623be510374a781c259489dc141ab934acd13f2b7fa3ef6448b5e64736f6c634300081a0033",
					"opcodes": "PUSH1 0x80 PUSH1 0x40 MSTORE CALLVALUE DUP1 ISZERO PUSH1 0xE JUMPI PUSH0 DUP1 REVERT JUMPDEST POP PUSH2 0x318 DUP1 PUSH2 0x1C PUSH0 CODECOPY PUSH0 RETURN INVALID PUSH1 0x80 PUSH1 0x40 MSTORE CALLVALUE DUP1 ISZERO PUSH2 0xF JUMPI PUSH0 DUP1 REVERT JUMPDEST POP PUSH1 0x4 CALLDATASIZE LT PUSH2 0x29 JUMPI PUSH0 CALLDATALOAD PUSH1 0xE0 SHR DUP1 PUSH4 0x9C4667A2 EQ PUSH2 0x2D JUMPI JUMPDEST PUSH0 DUP1 REVERT JUMPDEST PUSH2 0x47 PUSH1 0x4 DUP1 CALLDATASIZE SUB DUP2 ADD SWAP1 PUSH2 0x42 SWAP2 SWAP1 PUSH2 0x187 JUMP JUMPDEST PUSH2 0x5F JUMP JUMPDEST PUSH1 0x40 MLOAD PUSH2 0x56 SWAP4 SWAP3 SWAP2 SWAP1 PUSH2 0x249 JUMP JUMPDEST PUSH1 0x40 MLOAD DUP1 SWAP2 SUB SWAP1 RETURN JUMPDEST PUSH0 PUSH1 0x20 MSTORE DUP1 PUSH0 MSTORE PUSH1 0x40 PUSH0 KECCAK256 PUSH0 SWAP2 POP SWAP1 POP DUP1 PUSH0 ADD SLOAD SWAP1 DUP1 PUSH1 0x1 ADD PUSH0 SWAP1 SLOAD SWAP1 PUSH2 0x100 EXP SWAP1 DIV PUSH20 0xFFFFFFFFFFFFFFFFFFFFFFFFFFFFFFFFFFFFFFFF AND SWAP1 DUP1 PUSH1 0x2 ADD DUP1 SLOAD PUSH2 0xA8 SWAP1 PUSH2 0x2B2 JUMP JUMPDEST DUP1 PUSH1 0x1F ADD PUSH1 0x20 DUP1 SWAP2 DIV MUL PUSH1 0x20 ADD PUSH1 0x40 MLOAD SWAP1 DUP2 ADD PUSH1 0x40 MSTORE DUP1 SWAP3 SWAP2 SWAP1 DUP2 DUP2 MSTORE PUSH1 0x20 ADD DUP3 DUP1 SLOAD PUSH2 0xD4 SWAP1 PUSH2 0x2B2 JUMP JUMPDEST DUP1 ISZERO PUSH2 0x11F JUMPI DUP1 PUSH1 0x1F LT PUSH2 0xF6 JUMPI PUSH2 0x100 DUP1 DUP4 SLOAD DIV MUL DUP4 MSTORE SWAP2 PUSH1 0x20 ADD SWAP2 PUSH2 0x11F JUMP JUMPDEST DUP3 ADD SWAP2 SWAP1 PUSH0 MSTORE PUSH1 0x20 PUSH0 KECCAK256 SWAP1 JUMPDEST DUP2 SLOAD DUP2 MSTORE SWAP1 PUSH1 0x1 ADD SWAP1 PUSH1 0x20 ADD DUP1 DUP4 GT PUSH2 0x102 JUMPI DUP3 SWAP1 SUB PUSH1 0x1F AND DUP3 ADD SWAP2 JUMPDEST POP POP POP POP POP SWAP1 POP DUP4 JUMP JUMPDEST PUSH0 DUP1 REVERT JUMPDEST PUSH0 PUSH20 0xFFFFFFFFFFFFFFFFFFFFFFFFFFFFFFFFFFFFFFFF DUP3 AND SWAP1 POP SWAP2 SWAP1 POP JUMP JUMPDEST PUSH0 PUSH2 0x156 DUP3 PUSH2 0x12D JUMP JUMPDEST SWAP1 POP SWAP2 SWAP1 POP JUMP JUMPDEST PUSH2 0x166 DUP2 PUSH2 0x14C JUMP JUMPDEST DUP2 EQ PUSH2 0x170 JUMPI PUSH0 DUP1 REVERT JUMPDEST POP JUMP JUMPDEST PUSH0 DUP2 CALLDATALOAD SWAP1 POP PUSH2 0x181 DUP2 PUSH2 0x15D JUMP JUMPDEST SWAP3 SWAP2 POP POP JUMP JUMPDEST PUSH0 PUSH1 0x20 DUP3 DUP5 SUB SLT ISZERO PUSH2 0x19C JUMPI PUSH2 0x19B PUSH2 0x129 JUMP JUMPDEST JUMPDEST PUSH0 PUSH2 0x1A9 DUP5 DUP3 DUP6 ADD PUSH2 0x173 JUMP JUMPDEST SWAP2 POP POP SWAP3 SWAP2 POP POP JUMP JUMPDEST PUSH0 DUP2 SWAP1 POP SWAP2 SWAP1 POP JUMP JUMPDEST PUSH2 0x1C4 DUP2 PUSH2 0x1B2 JUMP JUMPDEST DUP3 MSTORE POP POP JUMP JUMPDEST PUSH2 0x1D3 DUP2 PUSH2 0x14C JUMP JUMPDEST DUP3 MSTORE POP POP JUMP JUMPDEST PUSH0 DUP2 MLOAD SWAP1 POP SWAP2 SWAP1 POP JUMP JUMPDEST PUSH0 DUP3 DUP3 MSTORE PUSH1 0x20 DUP3 ADD SWAP1 POP SWAP3 SWAP2 POP POP JUMP JUMPDEST DUP3 DUP2 DUP4 MCOPY PUSH0 DUP4 DUP4 ADD MSTORE POP POP POP JUMP JUMPDEST PUSH0 PUSH1 0x1F NOT PUSH1 0x1F DUP4 ADD AND SWAP1 POP SWAP2 SWAP1 POP JUMP JUMPDEST PUSH0 PUSH2 0x21B DUP3 PUSH2 0x1D9 JUMP JUMPDEST PUSH2 0x225 DUP2 DUP6 PUSH2 0x1E3 JUMP JUMPDEST SWAP4 POP PUSH2 0x235 DUP2 DUP6 PUSH1 0x20 DUP7 ADD PUSH2 0x1F3 JUMP JUMPDEST PUSH2 0x23E DUP2 PUSH2 0x201 JUMP JUMPDEST DUP5 ADD SWAP2 POP POP SWAP3 SWAP2 POP POP JUMP JUMPDEST PUSH0 PUSH1 0x60 DUP3 ADD SWAP1 POP PUSH2 0x25C PUSH0 DUP4 ADD DUP7 PUSH2 0x1BB JUMP JUMPDEST PUSH2 0x269 PUSH1 0x20 DUP4 ADD DUP6 PUSH2 0x1CA JUMP JUMPDEST DUP2 DUP2 SUB PUSH1 0x40 DUP4 ADD MSTORE PUSH2 0x27B DUP2 DUP5 PUSH2 0x211 JUMP JUMPDEST SWAP1 POP SWAP5 SWAP4 POP POP POP POP JUMP JUMPDEST PUSH32 0x4E487B7100000000000000000000000000000000000000000000000000000000 PUSH0 MSTORE PUSH1 0x22 PUSH1 0x4 MSTORE PUSH1 0x24 PUSH0 REVERT JUMPDEST PUSH0 PUSH1 0x2 DUP3 DIV SWAP1 POP PUSH1 0x1 DUP3 AND DUP1 PUSH2 0x2C9 JUMPI PUSH1 0x7F DUP3 AND SWAP2 POP JUMPDEST PUSH1 0x20 DUP3 LT DUP2 SUB PUSH2 0x2DC JUMPI PUSH2 0x2DB PUSH2 0x285 JUMP JUMPDEST JUMPDEST POP SWAP2 SWAP1 POP JUMP INVALID LOG2 PUSH5 0x6970667358 0x22 SLT KECCAK256 DUP7 DIV JUMPDEST CALL CALLDATACOPY 0xC6 0x23 0xBE MLOAD SUB PUSH21 0xA781C259489DC141AB934ACD13F2B7FA3EF6448B5E PUSH5 0x736F6C6343 STOP ADDMOD BYTE STOP CALLER "
				},
				"gasEstimates": {
					"creation": {
						"codeDepositCost": "158400",
						"executionCost": "200",
						"totalCost": "158600"
					},
					"external": {
						"asset(address)": "infinite"
					}
				},
				"methodIdentifiers": {
					"asset(address)": "9c4667a2"
				}
			},
			"storageLayout": {
				"storage": [
					{
						"astId": 13,
						"contract": "Day-32/ownership.sol:TrackOwner",
						"label": "asset",
						"offset": 0,
						"slot": "0",
						"type": "t_mapping(t_address,t_struct(Asset)8_storage)"
					}
				],
				"types": {
					"t_address": {
						"encoding": "inplace",
						"label": "address",
						"numberOfBytes": "20"
					},
					"t_mapping(t_address,t_struct(Asset)8_storage)": {
						"encoding": "mapping",
						"key": "t_address",
						"label": "mapping(address => struct TrackOwner.Asset)",
						"numberOfBytes": "32",
						"value": "t_struct(Asset)8_storage"
					},
					"t_string_storage": {
						"encoding": "bytes",
						"label": "string",
						"numberOfBytes": "32"
					},
					"t_struct(Asset)8_storage": {
						"encoding": "inplace",
						"label": "struct TrackOwner.Asset",
						"members": [
							{
								"astId": 3,
								"contract": "Day-32/ownership.sol:TrackOwner",
								"label": "assetID",
								"offset": 0,
								"slot": "0",
								"type": "t_uint256"
							},
							{
								"astId": 5,
								"contract": "Day-32/ownership.sol:TrackOwner",
								"label": "owner",
								"offset": 0,
								"slot": "1",
								"type": "t_address"
							},
							{
								"astId": 7,
								"contract": "Day-32/ownership.sol:TrackOwner",
								"label": "details",
								"offset": 0,
								"slot": "2",
								"type": "t_string_storage"
							}
						],
						"numberOfBytes": "96"
					},
					"t_uint256": {
						"encoding": "inplace",
						"label": "uint256",
						"numberOfBytes": "32"
					}
				}
			},
			"userdoc": {
				"kind": "user",
				"methods": {},
				"version": 1
			}
		}
	}
}