{
	"Day365(02)/library.sol": {
		"Test": {
			"abi": [
				{
					"inputs": [],
					"payable": false,
					"stateMutability": "nonpayable",
					"type": "constructor"
				},
				{
					"constant": true,
					"inputs": [],
					"name": "isValuePresent",
					"outputs": [
						{
							"internalType": "uint256",
							"name": "",
							"type": "uint256"
						}
					],
					"payable": false,
					"stateMutability": "view",
					"type": "function"
				}
			],
			"devdoc": {
				"methods": {}
			},
			"evm": {
				"assembly": "    /* \"Day365(02)/library.sol\":239:650  contract Test {\r... */\n  mstore(0x40, 0x80)\n    /* \"Day365(02)/library.sol\":276:409  constructor() public {\r... */\n  callvalue\n    /* \"--CODEGEN--\":8:17   */\n  dup1\n    /* \"--CODEGEN--\":5:7   */\n  iszero\n  tag_1\n  jumpi\n    /* \"--CODEGEN--\":30:31   */\n  0x00\n    /* \"--CODEGEN--\":27:28   */\n  dup1\n    /* \"--CODEGEN--\":20:32   */\n  revert\n    /* \"--CODEGEN--\":5:7   */\ntag_1:\n    /* \"Day365(02)/library.sol\":276:409  constructor() public {\r... */\n  pop\n    /* \"Day365(02)/library.sol\":306:310  data */\n  0x00\n    /* \"Day365(02)/library.sol\":316:317  1 */\n  0x01\n    /* \"Day365(02)/library.sol\":306:318  data.push(1) */\n  swap1\n  dup1\n    /* \"--CODEGEN--\":39:40   */\n  0x01\n    /* \"--CODEGEN--\":33:36   */\n  dup2\n    /* \"--CODEGEN--\":27:37   */\n  sload\n    /* \"--CODEGEN--\":23:41   */\n  add\n    /* \"--CODEGEN--\":57:67   */\n  dup1\n    /* \"--CODEGEN--\":52:55   */\n  dup3\n    /* \"--CODEGEN--\":45:68   */\n  sstore\n    /* \"--CODEGEN--\":79:89   */\n  dup1\n    /* \"--CODEGEN--\":72:89   */\n  swap2\n  pop\n    /* \"--CODEGEN--\":0:93   */\n  pop\n    /* \"Day365(02)/library.sol\":306:318  data.push(1) */\n  swap1\n  0x01\n  dup3\n  sub\n  swap1\n  0x00\n  mstore\n  keccak256(0x00, 0x20)\n  add\n  0x00\n  swap1\n  swap2\n  swap3\n  swap1\n  swap2\n  swap1\n  swap2\n  pop\n  sstore\n  pop\n    /* \"Day365(02)/library.sol\":327:331  data */\n  0x00\n    /* \"Day365(02)/library.sol\":337:338  2 */\n  0x02\n    /* \"Day365(02)/library.sol\":327:339  data.push(2) */\n  swap1\n  dup1\n    /* \"--CODEGEN--\":39:40   */\n  0x01\n    /* \"--CODEGEN--\":33:36   */\n  dup2\n    /* \"--CODEGEN--\":27:37   */\n  sload\n    /* \"--CODEGEN--\":23:41   */\n  add\n    /* \"--CODEGEN--\":57:67   */\n  dup1\n    /* \"--CODEGEN--\":52:55   */\n  dup3\n    /* \"--CODEGEN--\":45:68   */\n  sstore\n    /* \"--CODEGEN--\":79:89   */\n  dup1\n    /* \"--CODEGEN--\":72:89   */\n  swap2\n  pop\n    /* \"--CODEGEN--\":0:93   */\n  pop\n    /* \"Day365(02)/library.sol\":327:339  data.push(2) */\n  swap1\n  0x01\n  dup3\n  sub\n  swap1\n  0x00\n  mstore\n  keccak256(0x00, 0x20)\n  add\n  0x00\n  swap1\n  swap2\n  swap3\n  swap1\n  swap2\n  swap1\n  swap2\n  pop\n  sstore\n  pop\n    /* \"Day365(02)/library.sol\":348:352  data */\n  0x00\n    /* \"Day365(02)/library.sol\":358:359  3 */\n  0x03\n    /* \"Day365(02)/library.sol\":348:360  data.push(3) */\n  swap1\n  dup1\n    /* \"--CODEGEN--\":39:40   */\n  0x01\n    /* \"--CODEGEN--\":33:36   */\n  dup2\n    /* \"--CODEGEN--\":27:37   */\n  sload\n    /* \"--CODEGEN--\":23:41   */\n  add\n    /* \"--CODEGEN--\":57:67   */\n  dup1\n    /* \"--CODEGEN--\":52:55   */\n  dup3\n    /* \"--CODEGEN--\":45:68   */\n  sstore\n    /* \"--CODEGEN--\":79:89   */\n  dup1\n    /* \"--CODEGEN--\":72:89   */\n  swap2\n  pop\n    /* \"--CODEGEN--\":0:93   */\n  pop\n    /* \"Day365(02)/library.sol\":348:360  data.push(3) */\n  swap1\n  0x01\n  dup3\n  sub\n  swap1\n  0x00\n  mstore\n  keccak256(0x00, 0x20)\n  add\n  0x00\n  swap1\n  swap2\n  swap3\n  swap1\n  swap2\n  swap1\n  swap2\n  pop\n  sstore\n  pop\n    /* \"Day365(02)/library.sol\":369:373  data */\n  0x00\n    /* \"Day365(02)/library.sol\":379:380  4 */\n  0x04\n    /* \"Day365(02)/library.sol\":369:381  data.push(4) */\n  swap1\n  dup1\n    /* \"--CODEGEN--\":39:40   */\n  0x01\n    /* \"--CODEGEN--\":33:36   */\n  dup2\n    /* \"--CODEGEN--\":27:37   */\n  sload\n    /* \"--CODEGEN--\":23:41   */\n  add\n    /* \"--CODEGEN--\":57:67   */\n  dup1\n    /* \"--CODEGEN--\":52:55   */\n  dup3\n    /* \"--CODEGEN--\":45:68   */\n  sstore\n    /* \"--CODEGEN--\":79:89   */\n  dup1\n    /* \"--CODEGEN--\":72:89   */\n  swap2\n  pop\n    /* \"--CODEGEN--\":0:93   */\n  pop\n    /* \"Day365(02)/library.sol\":369:381  data.push(4) */\n  swap1\n  0x01\n  dup3\n  sub\n  swap1\n  0x00\n  mstore\n  keccak256(0x00, 0x20)\n  add\n  0x00\n  swap1\n  swap2\n  swap3\n  swap1\n  swap2\n  swap1\n  swap2\n  pop\n  sstore\n  pop\n    /* \"Day365(02)/library.sol\":390:394  data */\n  0x00\n    /* \"Day365(02)/library.sol\":400:401  5 */\n  0x05\n    /* \"Day365(02)/library.sol\":390:402  data.push(5) */\n  swap1\n  dup1\n    /* \"--CODEGEN--\":39:40   */\n  0x01\n    /* \"--CODEGEN--\":33:36   */\n  dup2\n    /* \"--CODEGEN--\":27:37   */\n  sload\n    /* \"--CODEGEN--\":23:41   */\n  add\n    /* \"--CODEGEN--\":57:67   */\n  dup1\n    /* \"--CODEGEN--\":52:55   */\n  dup3\n    /* \"--CODEGEN--\":45:68   */\n  sstore\n    /* \"--CODEGEN--\":79:89   */\n  dup1\n    /* \"--CODEGEN--\":72:89   */\n  swap2\n  pop\n    /* \"--CODEGEN--\":0:93   */\n  pop\n    /* \"Day365(02)/library.sol\":390:402  data.push(5) */\n  swap1\n  0x01\n  dup3\n  sub\n  swap1\n  0x00\n  mstore\n  keccak256(0x00, 0x20)\n  add\n  0x00\n  swap1\n  swap2\n  swap3\n  swap1\n  swap2\n  swap1\n  swap2\n  pop\n  sstore\n  pop\n    /* \"Day365(02)/library.sol\":239:650  contract Test {\r... */\n  dataSize(sub_0)\n  dup1\n  dataOffset(sub_0)\n  0x00\n  codecopy\n  0x00\n  return\nstop\n\nsub_0: assembly {\n        /* \"Day365(02)/library.sol\":239:650  contract Test {\r... */\n      mstore(0x40, 0x80)\n      callvalue\n        /* \"--CODEGEN--\":8:17   */\n      dup1\n        /* \"--CODEGEN--\":5:7   */\n      iszero\n      tag_1\n      jumpi\n        /* \"--CODEGEN--\":30:31   */\n      0x00\n        /* \"--CODEGEN--\":27:28   */\n      dup1\n        /* \"--CODEGEN--\":20:32   */\n      revert\n        /* \"--CODEGEN--\":5:7   */\n    tag_1:\n        /* \"Day365(02)/library.sol\":239:650  contract Test {\r... */\n      pop\n      jumpi(tag_2, lt(calldatasize, 0x04))\n      shr(0xe0, calldataload(0x00))\n      dup1\n      0x1d321459\n      eq\n      tag_3\n      jumpi\n    tag_2:\n      0x00\n      dup1\n      revert\n        /* \"Day365(02)/library.sol\":414:647  function isValuePresent() external view returns(uint){\r... */\n    tag_3:\n      tag_4\n      tag_5\n      jump\t// in\n    tag_4:\n      mload(0x40)\n      dup1\n      dup3\n      dup2\n      mstore\n      0x20\n      add\n      swap2\n      pop\n      pop\n      mload(0x40)\n      dup1\n      swap2\n      sub\n      swap1\n      return\n    tag_5:\n        /* \"Day365(02)/library.sol\":462:466  uint */\n      0x00\n        /* \"Day365(02)/library.sol\":476:486  uint value */\n      dup1\n        /* \"Day365(02)/library.sol\":489:490  4 */\n      0x04\n        /* \"Day365(02)/library.sol\":476:490  uint value = 4 */\n      swap1\n      pop\n        /* \"Day365(02)/library.sol\":579:589  uint index */\n      0x00\n        /* \"Day365(02)/library.sol\":592:598  Search */\n      linkerSymbol(\"e1ba0d7486a49ba14af0fb2d3ffb592eafd751d3f074f6ae0cb345feb18412e9\")\n        /* \"Day365(02)/library.sol\":592:606  Search.indexOf */\n      0x24fef5c8\n        /* \"Day365(02)/library.sol\":607:611  data */\n      0x00\n        /* \"Day365(02)/library.sol\":613:618  value */\n      dup5\n        /* \"Day365(02)/library.sol\":592:619  Search.indexOf(data, value) */\n      mload(0x40)\n      dup4\n      0xffffffff\n      and\n      0xe0\n      shl\n      dup2\n      mstore\n      0x04\n      add\n      dup1\n      dup4\n      dup2\n      mstore\n      0x20\n      add\n      dup3\n      dup2\n      mstore\n      0x20\n      add\n      swap3\n      pop\n      pop\n      pop\n      0x20\n      mload(0x40)\n      dup1\n      dup4\n      sub\n      dup2\n      dup7\n      dup1\n      extcodesize\n      iszero\n        /* \"--CODEGEN--\":8:17   */\n      dup1\n        /* \"--CODEGEN--\":5:7   */\n      iszero\n      tag_7\n      jumpi\n        /* \"--CODEGEN--\":30:31   */\n      0x00\n        /* \"--CODEGEN--\":27:28   */\n      dup1\n        /* \"--CODEGEN--\":20:32   */\n      revert\n        /* \"--CODEGEN--\":5:7   */\n    tag_7:\n        /* \"Day365(02)/library.sol\":592:619  Search.indexOf(data, value) */\n      pop\n      gas\n      delegatecall\n      iszero\n        /* \"--CODEGEN--\":8:17   */\n      dup1\n        /* \"--CODEGEN--\":5:7   */\n      iszero\n      tag_8\n      jumpi\n        /* \"--CODEGEN--\":45:61   */\n      returndatasize\n        /* \"--CODEGEN--\":42:43   */\n      0x00\n        /* \"--CODEGEN--\":39:40   */\n      dup1\n        /* \"--CODEGEN--\":24:62   */\n      returndatacopy\n        /* \"--CODEGEN--\":77:93   */\n      returndatasize\n        /* \"--CODEGEN--\":74:75   */\n      0x00\n        /* \"--CODEGEN--\":67:94   */\n      revert\n        /* \"--CODEGEN--\":5:7   */\n    tag_8:\n        /* \"Day365(02)/library.sol\":592:619  Search.indexOf(data, value) */\n      pop\n      pop\n      pop\n      pop\n      mload(0x40)\n      returndatasize\n        /* \"--CODEGEN--\":13:15   */\n      0x20\n        /* \"--CODEGEN--\":8:11   */\n      dup2\n        /* \"--CODEGEN--\":5:16   */\n      lt\n        /* \"--CODEGEN--\":2:4   */\n      iszero\n      tag_9\n      jumpi\n        /* \"--CODEGEN--\":29:30   */\n      0x00\n        /* \"--CODEGEN--\":26:27   */\n      dup1\n        /* \"--CODEGEN--\":19:31   */\n      revert\n        /* \"--CODEGEN--\":2:4   */\n    tag_9:\n        /* \"Day365(02)/library.sol\":592:619  Search.indexOf(data, value) */\n      dup2\n      add\n      swap1\n      dup1\n      dup1\n      mload\n      swap1\n      0x20\n      add\n      swap1\n      swap3\n      swap2\n      swap1\n      pop\n      pop\n      pop\n        /* \"Day365(02)/library.sol\":579:619  uint index = Search.indexOf(data, value) */\n      swap1\n      pop\n        /* \"Day365(02)/library.sol\":635:640  index */\n      dup1\n        /* \"Day365(02)/library.sol\":628:640  return index */\n      swap3\n      pop\n      pop\n      pop\n        /* \"Day365(02)/library.sol\":414:647  function isValuePresent() external view returns(uint){\r... */\n      swap1\n      jump\t// out\n\n    auxdata: 0xa265627a7a72315820227e387e13f3a6cb08ded80014db553f310d9bd48532c0f9482283ab801c395164736f6c63430005110032\n}\n",
				"bytecode": {
					"linkReferences": {
						"Day365(02)/library.sol": {
							"Search": [
								{
									"length": 20,
									"start": 341
								}
							]
						}
					},
					"object": "608060405234801561001057600080fd5b50600060019080600181540180825580915050906001820390600052602060002001600090919290919091505550600060029080600181540180825580915050906001820390600052602060002001600090919290919091505550600060039080600181540180825580915050906001820390600052602060002001600090919290919091505550600060049080600181540180825580915050906001820390600052602060002001600090919290919091505550600060059080600181540180825580915050906001820390600052602060002001600090919290919091505550610121806101016000396000f3fe6080604052348015600f57600080fd5b506004361060285760003560e01c80631d32145914602d575b600080fd5b60336049565b6040518082815260200191505060405180910390f35b60008060049050600073__$e1ba0d7486a49ba14af0fb2d3ffb592eaf$__6324fef5c86000846040518363ffffffff1660e01b8152600401808381526020018281526020019250505060206040518083038186803b15801560a957600080fd5b505af415801560bc573d6000803e3d6000fd5b505050506040513d602081101560d157600080fd5b8101908080519060200190929190505050905080925050509056fea265627a7a72315820227e387e13f3a6cb08ded80014db553f310d9bd48532c0f9482283ab801c395164736f6c63430005110032",
					"opcodes": "PUSH1 0x80 PUSH1 0x40 MSTORE CALLVALUE DUP1 ISZERO PUSH2 0x10 JUMPI PUSH1 0x0 DUP1 REVERT JUMPDEST POP PUSH1 0x0 PUSH1 0x1 SWAP1 DUP1 PUSH1 0x1 DUP2 SLOAD ADD DUP1 DUP3 SSTORE DUP1 SWAP2 POP POP SWAP1 PUSH1 0x1 DUP3 SUB SWAP1 PUSH1 0x0 MSTORE PUSH1 0x20 PUSH1 0x0 KECCAK256 ADD PUSH1 0x0 SWAP1 SWAP2 SWAP3 SWAP1 SWAP2 SWAP1 SWAP2 POP SSTORE POP PUSH1 0x0 PUSH1 0x2 SWAP1 DUP1 PUSH1 0x1 DUP2 SLOAD ADD DUP1 DUP3 SSTORE DUP1 SWAP2 POP POP SWAP1 PUSH1 0x1 DUP3 SUB SWAP1 PUSH1 0x0 MSTORE PUSH1 0x20 PUSH1 0x0 KECCAK256 ADD PUSH1 0x0 SWAP1 SWAP2 SWAP3 SWAP1 SWAP2 SWAP1 SWAP2 POP SSTORE POP PUSH1 0x0 PUSH1 0x3 SWAP1 DUP1 PUSH1 0x1 DUP2 SLOAD ADD DUP1 DUP3 SSTORE DUP1 SWAP2 POP POP SWAP1 PUSH1 0x1 DUP3 SUB SWAP1 PUSH1 0x0 MSTORE PUSH1 0x20 PUSH1 0x0 KECCAK256 ADD PUSH1 0x0 SWAP1 SWAP2 SWAP3 SWAP1 SWAP2 SWAP1 SWAP2 POP SSTORE POP PUSH1 0x0 PUSH1 0x4 SWAP1 DUP1 PUSH1 0x1 DUP2 SLOAD ADD DUP1 DUP3 SSTORE DUP1 SWAP2 POP POP SWAP1 PUSH1 0x1 DUP3 SUB SWAP1 PUSH1 0x0 MSTORE PUSH1 0x20 PUSH1 0x0 KECCAK256 ADD PUSH1 0x0 SWAP1 SWAP2 SWAP3 SWAP1 SWAP2 SWAP1 SWAP2 POP SSTORE POP PUSH1 0x0 PUSH1 0x5 SWAP1 DUP1 PUSH1 0x1 DUP2 SLOAD ADD DUP1 DUP3 SSTORE DUP1 SWAP2 POP POP SWAP1 PUSH1 0x1 DUP3 SUB SWAP1 PUSH1 0x0 MSTORE PUSH1 0x20 PUSH1 0x0 KECCAK256 ADD PUSH1 0x0 SWAP1 SWAP2 SWAP3 SWAP1 SWAP2 SWAP1 SWAP2 POP SSTORE POP PUSH2 0x121 DUP1 PUSH2 0x101 PUSH1 0x0 CODECOPY PUSH1 0x0 RETURN INVALID PUSH1 0x80 PUSH1 0x40 MSTORE CALLVALUE DUP1 ISZERO PUSH1 0xF JUMPI PUSH1 0x0 DUP1 REVERT JUMPDEST POP PUSH1 0x4 CALLDATASIZE LT PUSH1 0x28 JUMPI PUSH1 0x0 CALLDATALOAD PUSH1 0xE0 SHR DUP1 PUSH4 0x1D321459 EQ PUSH1 0x2D JUMPI JUMPDEST PUSH1 0x0 DUP1 REVERT JUMPDEST PUSH1 0x33 PUSH1 0x49 JUMP JUMPDEST PUSH1 0x40 MLOAD DUP1 DUP3 DUP2 MSTORE PUSH1 0x20 ADD SWAP2 POP POP PUSH1 0x40 MLOAD DUP1 SWAP2 SUB SWAP1 RETURN JUMPDEST PUSH1 0x0 DUP1 PUSH1 0x4 SWAP1 POP PUSH1 0x0 PUSH20 0x0 PUSH4 0x24FEF5C8 PUSH1 0x0 DUP5 PUSH1 0x40 MLOAD DUP4 PUSH4 0xFFFFFFFF AND PUSH1 0xE0 SHL DUP2 MSTORE PUSH1 0x4 ADD DUP1 DUP4 DUP2 MSTORE PUSH1 0x20 ADD DUP3 DUP2 MSTORE PUSH1 0x20 ADD SWAP3 POP POP POP PUSH1 0x20 PUSH1 0x40 MLOAD DUP1 DUP4 SUB DUP2 DUP7 DUP1 EXTCODESIZE ISZERO DUP1 ISZERO PUSH1 0xA9 JUMPI PUSH1 0x0 DUP1 REVERT JUMPDEST POP GAS DELEGATECALL ISZERO DUP1 ISZERO PUSH1 0xBC JUMPI RETURNDATASIZE PUSH1 0x0 DUP1 RETURNDATACOPY RETURNDATASIZE PUSH1 0x0 REVERT JUMPDEST POP POP POP POP PUSH1 0x40 MLOAD RETURNDATASIZE PUSH1 0x20 DUP2 LT ISZERO PUSH1 0xD1 JUMPI PUSH1 0x0 DUP1 REVERT JUMPDEST DUP2 ADD SWAP1 DUP1 DUP1 MLOAD SWAP1 PUSH1 0x20 ADD SWAP1 SWAP3 SWAP2 SWAP1 POP POP POP SWAP1 POP DUP1 SWAP3 POP POP POP SWAP1 JUMP INVALID LOG2 PUSH6 0x627A7A723158 KECCAK256 0x22 PUSH31 0x387E13F3A6CB08DED80014DB553F310D9BD48532C0F9482283AB801C395164 PUSH20 0x6F6C634300051100320000000000000000000000 "
				},
				"gasEstimates": {
					"creation": {
						"codeDepositCost": "57800",
						"executionCost": "204766",
						"totalCost": "262566"
					},
					"external": {
						"isValuePresent()": "infinite"
					}
				},
				"methodIdentifiers": {
					"isValuePresent()": "1d321459"
				}
			},
			"storageLayout": {
				"storage": [
					{
						"astId": 41,
						"contract": "Day365(02)/library.sol:Test",
						"label": "data",
						"offset": 0,
						"slot": "0",
						"type": "t_array(t_uint256)dyn_storage"
					}
				],
				"types": {
					"t_array(t_uint256)dyn_storage": {
						"base": "t_uint256",
						"encoding": "dynamic_array",
						"label": "uint256[]",
						"numberOfBytes": "32"
					},
					"t_uint256": {
						"encoding": "inplace",
						"label": "uint256",
						"numberOfBytes": "32"
					}
				}
			},
			"userdoc": {
				"methods": {}
			}
		}
	}
}