{
	"Day-34/code5.sol": {
		"SafeMathExample": {
			"abi": [
				{
					"inputs": [],
					"stateMutability": "nonpayable",
					"type": "constructor"
				},
				{
					"inputs": [
						{
							"internalType": "uint256",
							"name": "value",
							"type": "uint256"
						}
					],
					"name": "add",
					"outputs": [],
					"stateMutability": "nonpayable",
					"type": "function"
				},
				{
					"inputs": [
						{
							"internalType": "uint256",
							"name": "value",
							"type": "uint256"
						}
					],
					"name": "divide",
					"outputs": [],
					"stateMutability": "nonpayable",
					"type": "function"
				},
				{
					"inputs": [
						{
							"internalType": "uint256",
							"name": "value",
							"type": "uint256"
						}
					],
					"name": "multiply",
					"outputs": [],
					"stateMutability": "nonpayable",
					"type": "function"
				},
				{
					"inputs": [
						{
							"internalType": "uint256",
							"name": "value",
							"type": "uint256"
						}
					],
					"name": "subtract",
					"outputs": [],
					"stateMutability": "nonpayable",
					"type": "function"
				},
				{
					"inputs": [],
					"name": "total",
					"outputs": [
						{
							"internalType": "uint256",
							"name": "",
							"type": "uint256"
						}
					],
					"stateMutability": "view",
					"type": "function"
				}
			],
			"devdoc": {
				"kind": "dev",
				"methods": {},
				"version": 1
			},
			"evm": {
				"assembly": "    /* \"Day-34/code5.sol\":121:1109  contract SafeMathExample {... */\n  mstore(0x40, 0x80)\n    /* \"Day-34/code5.sol\":361:403  constructor() {... */\n  callvalue\n  dup1\n  iszero\n  tag_1\n  jumpi\n  0x00\n  dup1\n  revert\ntag_1:\n  pop\n    /* \"Day-34/code5.sol\":394:395  0 */\n  0x00\n    /* \"Day-34/code5.sol\":386:391  total */\n  dup1\n    /* \"Day-34/code5.sol\":386:395  total = 0 */\n  dup2\n  swap1\n  sstore\n  pop\n    /* \"Day-34/code5.sol\":121:1109  contract SafeMathExample {... */\n  dataSize(sub_0)\n  dup1\n  dataOffset(sub_0)\n  0x00\n  codecopy\n  0x00\n  return\nstop\n\nsub_0: assembly {\n        /* \"Day-34/code5.sol\":121:1109  contract SafeMathExample {... */\n      mstore(0x40, 0x80)\n      callvalue\n      dup1\n      iszero\n      tag_1\n      jumpi\n      0x00\n      dup1\n      revert\n    tag_1:\n      pop\n      jumpi(tag_2, lt(calldatasize, 0x04))\n      shr(0xe0, calldataload(0x00))\n      dup1\n      0x1003e2d2\n      eq\n      tag_3\n      jumpi\n      dup1\n      0x1dc05f17\n      eq\n      tag_4\n      jumpi\n      dup1\n      0x2ddbd13a\n      eq\n      tag_5\n      jumpi\n      dup1\n      0x3e823f79\n      eq\n      tag_6\n      jumpi\n      dup1\n      0xc6888fa1\n      eq\n      tag_7\n      jumpi\n    tag_2:\n      0x00\n      dup1\n      revert\n        /* \"Day-34/code5.sol\":456:580  function add(uint256 value) external {... */\n    tag_3:\n      tag_8\n      0x04\n      dup1\n      calldatasize\n      sub\n      dup2\n      add\n      swap1\n      tag_9\n      swap2\n      swap1\n      tag_10\n      jump\t// in\n    tag_9:\n      tag_11\n      jump\t// in\n    tag_8:\n      stop\n        /* \"Day-34/code5.sol\":640:770  function subtract(uint256 value) external {... */\n    tag_4:\n      tag_12\n      0x04\n      dup1\n      calldatasize\n      sub\n      dup2\n      add\n      swap1\n      tag_13\n      swap2\n      swap1\n      tag_10\n      jump\t// in\n    tag_13:\n      tag_14\n      jump\t// in\n    tag_12:\n      stop\n        /* \"Day-34/code5.sol\":282:302  uint256 public total */\n    tag_5:\n      tag_15\n      tag_16\n      jump\t// in\n    tag_15:\n      mload(0x40)\n      tag_17\n      swap2\n      swap1\n      tag_18\n      jump\t// in\n    tag_17:\n      mload(0x40)\n      dup1\n      swap2\n      sub\n      swap1\n      return\n        /* \"Day-34/code5.sol\":969:1106  function divide(uint256 value) external {... */\n    tag_6:\n      tag_19\n      0x04\n      dup1\n      calldatasize\n      sub\n      dup2\n      add\n      swap1\n      tag_20\n      swap2\n      swap1\n      tag_10\n      jump\t// in\n    tag_20:\n      tag_21\n      jump\t// in\n    tag_19:\n      stop\n        /* \"Day-34/code5.sol\":828:913  function multiply(uint256 value) external {... */\n    tag_7:\n      tag_22\n      0x04\n      dup1\n      calldatasize\n      sub\n      dup2\n      add\n      swap1\n      tag_23\n      swap2\n      swap1\n      tag_10\n      jump\t// in\n    tag_23:\n      tag_24\n      jump\t// in\n    tag_22:\n      stop\n        /* \"Day-34/code5.sol\":456:580  function add(uint256 value) external {... */\n    tag_11:\n        /* \"Day-34/code5.sol\":556:572  total.add(value) */\n      tag_26\n        /* \"Day-34/code5.sol\":566:571  value */\n      dup2\n        /* \"Day-34/code5.sol\":556:561  total */\n      sload(0x00)\n        /* \"Day-34/code5.sol\":556:565  total.add */\n      tag_27\n      swap1\n        /* \"Day-34/code5.sol\":556:572  total.add(value) */\n      swap2\n      swap1\n      0xffffffff\n      and\n      jump\t// in\n    tag_26:\n        /* \"Day-34/code5.sol\":548:553  total */\n      0x00\n        /* \"Day-34/code5.sol\":548:572  total = total.add(value) */\n      dup2\n      swap1\n      sstore\n      pop\n        /* \"Day-34/code5.sol\":456:580  function add(uint256 value) external {... */\n      pop\n      jump\t// out\n        /* \"Day-34/code5.sol\":640:770  function subtract(uint256 value) external {... */\n    tag_14:\n        /* \"Day-34/code5.sol\":746:762  total.sub(value) */\n      tag_29\n        /* \"Day-34/code5.sol\":756:761  value */\n      dup2\n        /* \"Day-34/code5.sol\":746:751  total */\n      sload(0x00)\n        /* \"Day-34/code5.sol\":746:755  total.sub */\n      tag_30\n      swap1\n        /* \"Day-34/code5.sol\":746:762  total.sub(value) */\n      swap2\n      swap1\n      0xffffffff\n      and\n      jump\t// in\n    tag_29:\n        /* \"Day-34/code5.sol\":738:743  total */\n      0x00\n        /* \"Day-34/code5.sol\":738:762  total = total.sub(value) */\n      dup2\n      swap1\n      sstore\n      pop\n        /* \"Day-34/code5.sol\":640:770  function subtract(uint256 value) external {... */\n      pop\n      jump\t// out\n        /* \"Day-34/code5.sol\":282:302  uint256 public total */\n    tag_16:\n      sload(0x00)\n      dup2\n      jump\t// out\n        /* \"Day-34/code5.sol\":969:1106  function divide(uint256 value) external {... */\n    tag_21:\n        /* \"Day-34/code5.sol\":1036:1037  0 */\n      0x00\n        /* \"Day-34/code5.sol\":1028:1033  value */\n      dup2\n        /* \"Day-34/code5.sol\":1028:1037  value > 0 */\n      gt\n        /* \"Day-34/code5.sol\":1020:1063  require(value > 0, \"Cannot divide by zero\") */\n      tag_32\n      jumpi\n      mload(0x40)\n      0x08c379a000000000000000000000000000000000000000000000000000000000\n      dup2\n      mstore\n      0x04\n      add\n      tag_33\n      swap1\n      tag_34\n      jump\t// in\n    tag_33:\n      mload(0x40)\n      dup1\n      swap2\n      sub\n      swap1\n      revert\n    tag_32:\n        /* \"Day-34/code5.sol\":1082:1098  total.div(value) */\n      tag_35\n        /* \"Day-34/code5.sol\":1092:1097  value */\n      dup2\n        /* \"Day-34/code5.sol\":1082:1087  total */\n      sload(0x00)\n        /* \"Day-34/code5.sol\":1082:1091  total.div */\n      tag_36\n      swap1\n        /* \"Day-34/code5.sol\":1082:1098  total.div(value) */\n      swap2\n      swap1\n      0xffffffff\n      and\n      jump\t// in\n    tag_35:\n        /* \"Day-34/code5.sol\":1074:1079  total */\n      0x00\n        /* \"Day-34/code5.sol\":1074:1098  total = total.div(value) */\n      dup2\n      swap1\n      sstore\n      pop\n        /* \"Day-34/code5.sol\":969:1106  function divide(uint256 value) external {... */\n      pop\n      jump\t// out\n        /* \"Day-34/code5.sol\":828:913  function multiply(uint256 value) external {... */\n    tag_24:\n        /* \"Day-34/code5.sol\":889:905  total.mul(value) */\n      tag_38\n        /* \"Day-34/code5.sol\":899:904  value */\n      dup2\n        /* \"Day-34/code5.sol\":889:894  total */\n      sload(0x00)\n        /* \"Day-34/code5.sol\":889:898  total.mul */\n      tag_39\n      swap1\n        /* \"Day-34/code5.sol\":889:905  total.mul(value) */\n      swap2\n      swap1\n      0xffffffff\n      and\n      jump\t// in\n    tag_38:\n        /* \"Day-34/code5.sol\":881:886  total */\n      0x00\n        /* \"Day-34/code5.sol\":881:905  total = total.mul(value) */\n      dup2\n      swap1\n      sstore\n      pop\n        /* \"Day-34/code5.sol\":828:913  function multiply(uint256 value) external {... */\n      pop\n      jump\t// out\n        /* \"@openzeppelin/contracts/utils/math/SafeMath.sol\":2755:2851  function add(uint256 a, uint256 b) internal pure returns (uint256) {... */\n    tag_27:\n        /* \"@openzeppelin/contracts/utils/math/SafeMath.sol\":2813:2820  uint256 */\n      0x00\n        /* \"@openzeppelin/contracts/utils/math/SafeMath.sol\":2843:2844  b */\n      dup2\n        /* \"@openzeppelin/contracts/utils/math/SafeMath.sol\":2839:2840  a */\n      dup4\n        /* \"@openzeppelin/contracts/utils/math/SafeMath.sol\":2839:2844  a + b */\n      tag_41\n      swap2\n      swap1\n      tag_42\n      jump\t// in\n    tag_41:\n        /* \"@openzeppelin/contracts/utils/math/SafeMath.sol\":2832:2844  return a + b */\n      swap1\n      pop\n        /* \"@openzeppelin/contracts/utils/math/SafeMath.sol\":2755:2851  function add(uint256 a, uint256 b) internal pure returns (uint256) {... */\n      swap3\n      swap2\n      pop\n      pop\n      jump\t// out\n        /* \"@openzeppelin/contracts/utils/math/SafeMath.sol\":3122:3218  function sub(uint256 a, uint256 b) internal pure returns (uint256) {... */\n    tag_30:\n        /* \"@openzeppelin/contracts/utils/math/SafeMath.sol\":3180:3187  uint256 */\n      0x00\n        /* \"@openzeppelin/contracts/utils/math/SafeMath.sol\":3210:3211  b */\n      dup2\n        /* \"@openzeppelin/contracts/utils/math/SafeMath.sol\":3206:3207  a */\n      dup4\n        /* \"@openzeppelin/contracts/utils/math/SafeMath.sol\":3206:3211  a - b */\n      tag_44\n      swap2\n      swap1\n      tag_45\n      jump\t// in\n    tag_44:\n        /* \"@openzeppelin/contracts/utils/math/SafeMath.sol\":3199:3211  return a - b */\n      swap1\n      pop\n        /* \"@openzeppelin/contracts/utils/math/SafeMath.sol\":3122:3218  function sub(uint256 a, uint256 b) internal pure returns (uint256) {... */\n      swap3\n      swap2\n      pop\n      pop\n      jump\t// out\n        /* \"@openzeppelin/contracts/utils/math/SafeMath.sol\":3850:3946  function div(uint256 a, uint256 b) internal pure returns (uint256) {... */\n    tag_36:\n        /* \"@openzeppelin/contracts/utils/math/SafeMath.sol\":3908:3915  uint256 */\n      0x00\n        /* \"@openzeppelin/contracts/utils/math/SafeMath.sol\":3938:3939  b */\n      dup2\n        /* \"@openzeppelin/contracts/utils/math/SafeMath.sol\":3934:3935  a */\n      dup4\n        /* \"@openzeppelin/contracts/utils/math/SafeMath.sol\":3934:3939  a / b */\n      tag_47\n      swap2\n      swap1\n      tag_48\n      jump\t// in\n    tag_47:\n        /* \"@openzeppelin/contracts/utils/math/SafeMath.sol\":3927:3939  return a / b */\n      swap1\n      pop\n        /* \"@openzeppelin/contracts/utils/math/SafeMath.sol\":3850:3946  function div(uint256 a, uint256 b) internal pure returns (uint256) {... */\n      swap3\n      swap2\n      pop\n      pop\n      jump\t// out\n        /* \"@openzeppelin/contracts/utils/math/SafeMath.sol\":3465:3561  function mul(uint256 a, uint256 b) internal pure returns (uint256) {... */\n    tag_39:\n        /* \"@openzeppelin/contracts/utils/math/SafeMath.sol\":3523:3530  uint256 */\n      0x00\n        /* \"@openzeppelin/contracts/utils/math/SafeMath.sol\":3553:3554  b */\n      dup2\n        /* \"@openzeppelin/contracts/utils/math/SafeMath.sol\":3549:3550  a */\n      dup4\n        /* \"@openzeppelin/contracts/utils/math/SafeMath.sol\":3549:3554  a * b */\n      tag_50\n      swap2\n      swap1\n      tag_51\n      jump\t// in\n    tag_50:\n        /* \"@openzeppelin/contracts/utils/math/SafeMath.sol\":3542:3554  return a * b */\n      swap1\n      pop\n        /* \"@openzeppelin/contracts/utils/math/SafeMath.sol\":3465:3561  function mul(uint256 a, uint256 b) internal pure returns (uint256) {... */\n      swap3\n      swap2\n      pop\n      pop\n      jump\t// out\n        /* \"#utility.yul\":88:205   */\n    tag_53:\n        /* \"#utility.yul\":197:198   */\n      0x00\n        /* \"#utility.yul\":194:195   */\n      dup1\n        /* \"#utility.yul\":187:199   */\n      revert\n        /* \"#utility.yul\":334:411   */\n    tag_55:\n        /* \"#utility.yul\":371:378   */\n      0x00\n        /* \"#utility.yul\":400:405   */\n      dup2\n        /* \"#utility.yul\":389:405   */\n      swap1\n      pop\n        /* \"#utility.yul\":334:411   */\n      swap2\n      swap1\n      pop\n      jump\t// out\n        /* \"#utility.yul\":417:539   */\n    tag_56:\n        /* \"#utility.yul\":490:514   */\n      tag_70\n        /* \"#utility.yul\":508:513   */\n      dup2\n        /* \"#utility.yul\":490:514   */\n      tag_55\n      jump\t// in\n    tag_70:\n        /* \"#utility.yul\":483:488   */\n      dup2\n        /* \"#utility.yul\":480:515   */\n      eq\n        /* \"#utility.yul\":470:533   */\n      tag_71\n      jumpi\n        /* \"#utility.yul\":529:530   */\n      0x00\n        /* \"#utility.yul\":526:527   */\n      dup1\n        /* \"#utility.yul\":519:531   */\n      revert\n        /* \"#utility.yul\":470:533   */\n    tag_71:\n        /* \"#utility.yul\":417:539   */\n      pop\n      jump\t// out\n        /* \"#utility.yul\":545:684   */\n    tag_57:\n        /* \"#utility.yul\":591:596   */\n      0x00\n        /* \"#utility.yul\":629:635   */\n      dup2\n        /* \"#utility.yul\":616:636   */\n      calldataload\n        /* \"#utility.yul\":607:636   */\n      swap1\n      pop\n        /* \"#utility.yul\":645:678   */\n      tag_73\n        /* \"#utility.yul\":672:677   */\n      dup2\n        /* \"#utility.yul\":645:678   */\n      tag_56\n      jump\t// in\n    tag_73:\n        /* \"#utility.yul\":545:684   */\n      swap3\n      swap2\n      pop\n      pop\n      jump\t// out\n        /* \"#utility.yul\":690:1019   */\n    tag_10:\n        /* \"#utility.yul\":749:755   */\n      0x00\n        /* \"#utility.yul\":798:800   */\n      0x20\n        /* \"#utility.yul\":786:795   */\n      dup3\n        /* \"#utility.yul\":777:784   */\n      dup5\n        /* \"#utility.yul\":773:796   */\n      sub\n        /* \"#utility.yul\":769:801   */\n      slt\n        /* \"#utility.yul\":766:885   */\n      iszero\n      tag_75\n      jumpi\n        /* \"#utility.yul\":804:883   */\n      tag_76\n      tag_53\n      jump\t// in\n    tag_76:\n        /* \"#utility.yul\":766:885   */\n    tag_75:\n        /* \"#utility.yul\":924:925   */\n      0x00\n        /* \"#utility.yul\":949:1002   */\n      tag_77\n        /* \"#utility.yul\":994:1001   */\n      dup5\n        /* \"#utility.yul\":985:991   */\n      dup3\n        /* \"#utility.yul\":974:983   */\n      dup6\n        /* \"#utility.yul\":970:992   */\n      add\n        /* \"#utility.yul\":949:1002   */\n      tag_57\n      jump\t// in\n    tag_77:\n        /* \"#utility.yul\":939:1002   */\n      swap2\n      pop\n        /* \"#utility.yul\":895:1012   */\n      pop\n        /* \"#utility.yul\":690:1019   */\n      swap3\n      swap2\n      pop\n      pop\n      jump\t// out\n        /* \"#utility.yul\":1025:1143   */\n    tag_58:\n        /* \"#utility.yul\":1112:1136   */\n      tag_79\n        /* \"#utility.yul\":1130:1135   */\n      dup2\n        /* \"#utility.yul\":1112:1136   */\n      tag_55\n      jump\t// in\n    tag_79:\n        /* \"#utility.yul\":1107:1110   */\n      dup3\n        /* \"#utility.yul\":1100:1137   */\n      mstore\n        /* \"#utility.yul\":1025:1143   */\n      pop\n      pop\n      jump\t// out\n        /* \"#utility.yul\":1149:1371   */\n    tag_18:\n        /* \"#utility.yul\":1242:1246   */\n      0x00\n        /* \"#utility.yul\":1280:1282   */\n      0x20\n        /* \"#utility.yul\":1269:1278   */\n      dup3\n        /* \"#utility.yul\":1265:1283   */\n      add\n        /* \"#utility.yul\":1257:1283   */\n      swap1\n      pop\n        /* \"#utility.yul\":1293:1364   */\n      tag_81\n        /* \"#utility.yul\":1361:1362   */\n      0x00\n        /* \"#utility.yul\":1350:1359   */\n      dup4\n        /* \"#utility.yul\":1346:1363   */\n      add\n        /* \"#utility.yul\":1337:1343   */\n      dup5\n        /* \"#utility.yul\":1293:1364   */\n      tag_58\n      jump\t// in\n    tag_81:\n        /* \"#utility.yul\":1149:1371   */\n      swap3\n      swap2\n      pop\n      pop\n      jump\t// out\n        /* \"#utility.yul\":1377:1546   */\n    tag_59:\n        /* \"#utility.yul\":1461:1472   */\n      0x00\n        /* \"#utility.yul\":1495:1501   */\n      dup3\n        /* \"#utility.yul\":1490:1493   */\n      dup3\n        /* \"#utility.yul\":1483:1502   */\n      mstore\n        /* \"#utility.yul\":1535:1539   */\n      0x20\n        /* \"#utility.yul\":1530:1533   */\n      dup3\n        /* \"#utility.yul\":1526:1540   */\n      add\n        /* \"#utility.yul\":1511:1540   */\n      swap1\n      pop\n        /* \"#utility.yul\":1377:1546   */\n      swap3\n      swap2\n      pop\n      pop\n      jump\t// out\n        /* \"#utility.yul\":1552:1723   */\n    tag_60:\n        /* \"#utility.yul\":1692:1715   */\n      0x43616e6e6f7420646976696465206279207a65726f0000000000000000000000\n        /* \"#utility.yul\":1688:1689   */\n      0x00\n        /* \"#utility.yul\":1680:1686   */\n      dup3\n        /* \"#utility.yul\":1676:1690   */\n      add\n        /* \"#utility.yul\":1669:1716   */\n      mstore\n        /* \"#utility.yul\":1552:1723   */\n      pop\n      jump\t// out\n        /* \"#utility.yul\":1729:2095   */\n    tag_61:\n        /* \"#utility.yul\":1871:1874   */\n      0x00\n        /* \"#utility.yul\":1892:1959   */\n      tag_85\n        /* \"#utility.yul\":1956:1958   */\n      0x15\n        /* \"#utility.yul\":1951:1954   */\n      dup4\n        /* \"#utility.yul\":1892:1959   */\n      tag_59\n      jump\t// in\n    tag_85:\n        /* \"#utility.yul\":1885:1959   */\n      swap2\n      pop\n        /* \"#utility.yul\":1968:2061   */\n      tag_86\n        /* \"#utility.yul\":2057:2060   */\n      dup3\n        /* \"#utility.yul\":1968:2061   */\n      tag_60\n      jump\t// in\n    tag_86:\n        /* \"#utility.yul\":2086:2088   */\n      0x20\n        /* \"#utility.yul\":2081:2084   */\n      dup3\n        /* \"#utility.yul\":2077:2089   */\n      add\n        /* \"#utility.yul\":2070:2089   */\n      swap1\n      pop\n        /* \"#utility.yul\":1729:2095   */\n      swap2\n      swap1\n      pop\n      jump\t// out\n        /* \"#utility.yul\":2101:2520   */\n    tag_34:\n        /* \"#utility.yul\":2267:2271   */\n      0x00\n        /* \"#utility.yul\":2305:2307   */\n      0x20\n        /* \"#utility.yul\":2294:2303   */\n      dup3\n        /* \"#utility.yul\":2290:2308   */\n      add\n        /* \"#utility.yul\":2282:2308   */\n      swap1\n      pop\n        /* \"#utility.yul\":2354:2363   */\n      dup2\n        /* \"#utility.yul\":2348:2352   */\n      dup2\n        /* \"#utility.yul\":2344:2364   */\n      sub\n        /* \"#utility.yul\":2340:2341   */\n      0x00\n        /* \"#utility.yul\":2329:2338   */\n      dup4\n        /* \"#utility.yul\":2325:2342   */\n      add\n        /* \"#utility.yul\":2318:2365   */\n      mstore\n        /* \"#utility.yul\":2382:2513   */\n      tag_88\n        /* \"#utility.yul\":2508:2512   */\n      dup2\n        /* \"#utility.yul\":2382:2513   */\n      tag_61\n      jump\t// in\n    tag_88:\n        /* \"#utility.yul\":2374:2513   */\n      swap1\n      pop\n        /* \"#utility.yul\":2101:2520   */\n      swap2\n      swap1\n      pop\n      jump\t// out\n        /* \"#utility.yul\":2526:2706   */\n    tag_62:\n        /* \"#utility.yul\":2574:2651   */\n      0x4e487b7100000000000000000000000000000000000000000000000000000000\n        /* \"#utility.yul\":2571:2572   */\n      0x00\n        /* \"#utility.yul\":2564:2652   */\n      mstore\n        /* \"#utility.yul\":2671:2675   */\n      0x11\n        /* \"#utility.yul\":2668:2669   */\n      0x04\n        /* \"#utility.yul\":2661:2676   */\n      mstore\n        /* \"#utility.yul\":2695:2699   */\n      0x24\n        /* \"#utility.yul\":2692:2693   */\n      0x00\n        /* \"#utility.yul\":2685:2700   */\n      revert\n        /* \"#utility.yul\":2712:2903   */\n    tag_42:\n        /* \"#utility.yul\":2752:2755   */\n      0x00\n        /* \"#utility.yul\":2771:2791   */\n      tag_91\n        /* \"#utility.yul\":2789:2790   */\n      dup3\n        /* \"#utility.yul\":2771:2791   */\n      tag_55\n      jump\t// in\n    tag_91:\n        /* \"#utility.yul\":2766:2791   */\n      swap2\n      pop\n        /* \"#utility.yul\":2805:2825   */\n      tag_92\n        /* \"#utility.yul\":2823:2824   */\n      dup4\n        /* \"#utility.yul\":2805:2825   */\n      tag_55\n      jump\t// in\n    tag_92:\n        /* \"#utility.yul\":2800:2825   */\n      swap3\n      pop\n        /* \"#utility.yul\":2848:2849   */\n      dup3\n        /* \"#utility.yul\":2845:2846   */\n      dup3\n        /* \"#utility.yul\":2841:2850   */\n      add\n        /* \"#utility.yul\":2834:2850   */\n      swap1\n      pop\n        /* \"#utility.yul\":2869:2872   */\n      dup1\n        /* \"#utility.yul\":2866:2867   */\n      dup3\n        /* \"#utility.yul\":2863:2873   */\n      gt\n        /* \"#utility.yul\":2860:2896   */\n      iszero\n      tag_93\n      jumpi\n        /* \"#utility.yul\":2876:2894   */\n      tag_94\n      tag_62\n      jump\t// in\n    tag_94:\n        /* \"#utility.yul\":2860:2896   */\n    tag_93:\n        /* \"#utility.yul\":2712:2903   */\n      swap3\n      swap2\n      pop\n      pop\n      jump\t// out\n        /* \"#utility.yul\":2909:3103   */\n    tag_45:\n        /* \"#utility.yul\":2949:2953   */\n      0x00\n        /* \"#utility.yul\":2969:2989   */\n      tag_96\n        /* \"#utility.yul\":2987:2988   */\n      dup3\n        /* \"#utility.yul\":2969:2989   */\n      tag_55\n      jump\t// in\n    tag_96:\n        /* \"#utility.yul\":2964:2989   */\n      swap2\n      pop\n        /* \"#utility.yul\":3003:3023   */\n      tag_97\n        /* \"#utility.yul\":3021:3022   */\n      dup4\n        /* \"#utility.yul\":3003:3023   */\n      tag_55\n      jump\t// in\n    tag_97:\n        /* \"#utility.yul\":2998:3023   */\n      swap3\n      pop\n        /* \"#utility.yul\":3047:3048   */\n      dup3\n        /* \"#utility.yul\":3044:3045   */\n      dup3\n        /* \"#utility.yul\":3040:3049   */\n      sub\n        /* \"#utility.yul\":3032:3049   */\n      swap1\n      pop\n        /* \"#utility.yul\":3071:3072   */\n      dup2\n        /* \"#utility.yul\":3065:3069   */\n      dup2\n        /* \"#utility.yul\":3062:3073   */\n      gt\n        /* \"#utility.yul\":3059:3096   */\n      iszero\n      tag_98\n      jumpi\n        /* \"#utility.yul\":3076:3094   */\n      tag_99\n      tag_62\n      jump\t// in\n    tag_99:\n        /* \"#utility.yul\":3059:3096   */\n    tag_98:\n        /* \"#utility.yul\":2909:3103   */\n      swap3\n      swap2\n      pop\n      pop\n      jump\t// out\n        /* \"#utility.yul\":3109:3289   */\n    tag_63:\n        /* \"#utility.yul\":3157:3234   */\n      0x4e487b7100000000000000000000000000000000000000000000000000000000\n        /* \"#utility.yul\":3154:3155   */\n      0x00\n        /* \"#utility.yul\":3147:3235   */\n      mstore\n        /* \"#utility.yul\":3254:3258   */\n      0x12\n        /* \"#utility.yul\":3251:3252   */\n      0x04\n        /* \"#utility.yul\":3244:3259   */\n      mstore\n        /* \"#utility.yul\":3278:3282   */\n      0x24\n        /* \"#utility.yul\":3275:3276   */\n      0x00\n        /* \"#utility.yul\":3268:3283   */\n      revert\n        /* \"#utility.yul\":3295:3480   */\n    tag_48:\n        /* \"#utility.yul\":3335:3336   */\n      0x00\n        /* \"#utility.yul\":3352:3372   */\n      tag_102\n        /* \"#utility.yul\":3370:3371   */\n      dup3\n        /* \"#utility.yul\":3352:3372   */\n      tag_55\n      jump\t// in\n    tag_102:\n        /* \"#utility.yul\":3347:3372   */\n      swap2\n      pop\n        /* \"#utility.yul\":3386:3406   */\n      tag_103\n        /* \"#utility.yul\":3404:3405   */\n      dup4\n        /* \"#utility.yul\":3386:3406   */\n      tag_55\n      jump\t// in\n    tag_103:\n        /* \"#utility.yul\":3381:3406   */\n      swap3\n      pop\n        /* \"#utility.yul\":3425:3426   */\n      dup3\n        /* \"#utility.yul\":3415:3450   */\n      tag_104\n      jumpi\n        /* \"#utility.yul\":3430:3448   */\n      tag_105\n      tag_63\n      jump\t// in\n    tag_105:\n        /* \"#utility.yul\":3415:3450   */\n    tag_104:\n        /* \"#utility.yul\":3472:3473   */\n      dup3\n        /* \"#utility.yul\":3469:3470   */\n      dup3\n        /* \"#utility.yul\":3465:3474   */\n      div\n        /* \"#utility.yul\":3460:3474   */\n      swap1\n      pop\n        /* \"#utility.yul\":3295:3480   */\n      swap3\n      swap2\n      pop\n      pop\n      jump\t// out\n        /* \"#utility.yul\":3486:3896   */\n    tag_51:\n        /* \"#utility.yul\":3526:3533   */\n      0x00\n        /* \"#utility.yul\":3549:3569   */\n      tag_107\n        /* \"#utility.yul\":3567:3568   */\n      dup3\n        /* \"#utility.yul\":3549:3569   */\n      tag_55\n      jump\t// in\n    tag_107:\n        /* \"#utility.yul\":3544:3569   */\n      swap2\n      pop\n        /* \"#utility.yul\":3583:3603   */\n      tag_108\n        /* \"#utility.yul\":3601:3602   */\n      dup4\n        /* \"#utility.yul\":3583:3603   */\n      tag_55\n      jump\t// in\n    tag_108:\n        /* \"#utility.yul\":3578:3603   */\n      swap3\n      pop\n        /* \"#utility.yul\":3638:3639   */\n      dup3\n        /* \"#utility.yul\":3635:3636   */\n      dup3\n        /* \"#utility.yul\":3631:3640   */\n      mul\n        /* \"#utility.yul\":3660:3690   */\n      tag_109\n        /* \"#utility.yul\":3678:3689   */\n      dup2\n        /* \"#utility.yul\":3660:3690   */\n      tag_55\n      jump\t// in\n    tag_109:\n        /* \"#utility.yul\":3649:3690   */\n      swap2\n      pop\n        /* \"#utility.yul\":3839:3840   */\n      dup3\n        /* \"#utility.yul\":3830:3837   */\n      dup3\n        /* \"#utility.yul\":3826:3841   */\n      div\n        /* \"#utility.yul\":3823:3824   */\n      dup5\n        /* \"#utility.yul\":3820:3842   */\n      eq\n        /* \"#utility.yul\":3800:3801   */\n      dup4\n        /* \"#utility.yul\":3793:3802   */\n      iszero\n        /* \"#utility.yul\":3773:3856   */\n      or\n        /* \"#utility.yul\":3750:3889   */\n      tag_110\n      jumpi\n        /* \"#utility.yul\":3869:3887   */\n      tag_111\n      tag_62\n      jump\t// in\n    tag_111:\n        /* \"#utility.yul\":3750:3889   */\n    tag_110:\n        /* \"#utility.yul\":3534:3896   */\n      pop\n        /* \"#utility.yul\":3486:3896   */\n      swap3\n      swap2\n      pop\n      pop\n      jump\t// out\n\n    auxdata: 0xa2646970667358221220e3283527bbf5243667d6e37b3c411496f57948443b97379c77d1107c9a99594d64736f6c634300081a0033\n}\n",
				"bytecode": {
					"linkReferences": {},
					"object": "6080604052348015600e575f80fd5b505f808190555061045b806100225f395ff3fe608060405234801561000f575f80fd5b5060043610610055575f3560e01c80631003e2d2146100595780631dc05f17146100755780632ddbd13a146100915780633e823f79146100af578063c6888fa1146100cb575b5f80fd5b610073600480360381019061006e9190610229565b6100e7565b005b61008f600480360381019061008a9190610229565b610103565b005b61009961011f565b6040516100a69190610263565b60405180910390f35b6100c960048036038101906100c49190610229565b610124565b005b6100e560048036038101906100e09190610229565b610182565b005b6100fb815f5461019e90919063ffffffff16565b5f8190555050565b610117815f546101b390919063ffffffff16565b5f8190555050565b5f5481565b5f8111610166576040517f08c379a000000000000000000000000000000000000000000000000000000000815260040161015d906102d6565b60405180910390fd5b61017a815f546101c890919063ffffffff16565b5f8190555050565b610196815f546101dd90919063ffffffff16565b5f8190555050565b5f81836101ab9190610321565b905092915050565b5f81836101c09190610354565b905092915050565b5f81836101d591906103b4565b905092915050565b5f81836101ea91906103e4565b905092915050565b5f80fd5b5f819050919050565b610208816101f6565b8114610212575f80fd5b50565b5f81359050610223816101ff565b92915050565b5f6020828403121561023e5761023d6101f2565b5b5f61024b84828501610215565b91505092915050565b61025d816101f6565b82525050565b5f6020820190506102765f830184610254565b92915050565b5f82825260208201905092915050565b7f43616e6e6f7420646976696465206279207a65726f00000000000000000000005f82015250565b5f6102c060158361027c565b91506102cb8261028c565b602082019050919050565b5f6020820190508181035f8301526102ed816102b4565b9050919050565b7f4e487b71000000000000000000000000000000000000000000000000000000005f52601160045260245ffd5b5f61032b826101f6565b9150610336836101f6565b925082820190508082111561034e5761034d6102f4565b5b92915050565b5f61035e826101f6565b9150610369836101f6565b9250828203905081811115610381576103806102f4565b5b92915050565b7f4e487b71000000000000000000000000000000000000000000000000000000005f52601260045260245ffd5b5f6103be826101f6565b91506103c9836101f6565b9250826103d9576103d8610387565b5b828204905092915050565b5f6103ee826101f6565b91506103f9836101f6565b9250828202610407816101f6565b9150828204841483151761041e5761041d6102f4565b5b509291505056fea2646970667358221220e3283527bbf5243667d6e37b3c411496f57948443b97379c77d1107c9a99594d64736f6c634300081a0033",
					"opcodes": "PUSH1 0x80 PUSH1 0x40 MSTORE CALLVALUE DUP1 ISZERO PUSH1 0xE JUMPI PUSH0 DUP1 REVERT JUMPDEST POP PUSH0 DUP1 DUP2 SWAP1 SSTORE POP PUSH2 0x45B DUP1 PUSH2 0x22 PUSH0 CODECOPY PUSH0 RETURN INVALID PUSH1 0x80 PUSH1 0x40 MSTORE CALLVALUE DUP1 ISZERO PUSH2 0xF JUMPI PUSH0 DUP1 REVERT JUMPDEST POP PUSH1 0x4 CALLDATASIZE LT PUSH2 0x55 JUMPI PUSH0 CALLDATALOAD PUSH1 0xE0 SHR DUP1 PUSH4 0x1003E2D2 EQ PUSH2 0x59 JUMPI DUP1 PUSH4 0x1DC05F17 EQ PUSH2 0x75 JUMPI DUP1 PUSH4 0x2DDBD13A EQ PUSH2 0x91 JUMPI DUP1 PUSH4 0x3E823F79 EQ PUSH2 0xAF JUMPI DUP1 PUSH4 0xC6888FA1 EQ PUSH2 0xCB JUMPI JUMPDEST PUSH0 DUP1 REVERT JUMPDEST PUSH2 0x73 PUSH1 0x4 DUP1 CALLDATASIZE SUB DUP2 ADD SWAP1 PUSH2 0x6E SWAP2 SWAP1 PUSH2 0x229 JUMP JUMPDEST PUSH2 0xE7 JUMP JUMPDEST STOP JUMPDEST PUSH2 0x8F PUSH1 0x4 DUP1 CALLDATASIZE SUB DUP2 ADD SWAP1 PUSH2 0x8A SWAP2 SWAP1 PUSH2 0x229 JUMP JUMPDEST PUSH2 0x103 JUMP JUMPDEST STOP JUMPDEST PUSH2 0x99 PUSH2 0x11F JUMP JUMPDEST PUSH1 0x40 MLOAD PUSH2 0xA6 SWAP2 SWAP1 PUSH2 0x263 JUMP JUMPDEST PUSH1 0x40 MLOAD DUP1 SWAP2 SUB SWAP1 RETURN JUMPDEST PUSH2 0xC9 PUSH1 0x4 DUP1 CALLDATASIZE SUB DUP2 ADD SWAP1 PUSH2 0xC4 SWAP2 SWAP1 PUSH2 0x229 JUMP JUMPDEST PUSH2 0x124 JUMP JUMPDEST STOP JUMPDEST PUSH2 0xE5 PUSH1 0x4 DUP1 CALLDATASIZE SUB DUP2 ADD SWAP1 PUSH2 0xE0 SWAP2 SWAP1 PUSH2 0x229 JUMP JUMPDEST PUSH2 0x182 JUMP JUMPDEST STOP JUMPDEST PUSH2 0xFB DUP2 PUSH0 SLOAD PUSH2 0x19E SWAP1 SWAP2 SWAP1 PUSH4 0xFFFFFFFF AND JUMP JUMPDEST PUSH0 DUP2 SWAP1 SSTORE POP POP JUMP JUMPDEST PUSH2 0x117 DUP2 PUSH0 SLOAD PUSH2 0x1B3 SWAP1 SWAP2 SWAP1 PUSH4 0xFFFFFFFF AND JUMP JUMPDEST PUSH0 DUP2 SWAP1 SSTORE POP POP JUMP JUMPDEST PUSH0 SLOAD DUP2 JUMP JUMPDEST PUSH0 DUP2 GT PUSH2 0x166 JUMPI PUSH1 0x40 MLOAD PUSH32 0x8C379A000000000000000000000000000000000000000000000000000000000 DUP2 MSTORE PUSH1 0x4 ADD PUSH2 0x15D SWAP1 PUSH2 0x2D6 JUMP JUMPDEST PUSH1 0x40 MLOAD DUP1 SWAP2 SUB SWAP1 REVERT JUMPDEST PUSH2 0x17A DUP2 PUSH0 SLOAD PUSH2 0x1C8 SWAP1 SWAP2 SWAP1 PUSH4 0xFFFFFFFF AND JUMP JUMPDEST PUSH0 DUP2 SWAP1 SSTORE POP POP JUMP JUMPDEST PUSH2 0x196 DUP2 PUSH0 SLOAD PUSH2 0x1DD SWAP1 SWAP2 SWAP1 PUSH4 0xFFFFFFFF AND JUMP JUMPDEST PUSH0 DUP2 SWAP1 SSTORE POP POP JUMP JUMPDEST PUSH0 DUP2 DUP4 PUSH2 0x1AB SWAP2 SWAP1 PUSH2 0x321 JUMP JUMPDEST SWAP1 POP SWAP3 SWAP2 POP POP JUMP JUMPDEST PUSH0 DUP2 DUP4 PUSH2 0x1C0 SWAP2 SWAP1 PUSH2 0x354 JUMP JUMPDEST SWAP1 POP SWAP3 SWAP2 POP POP JUMP JUMPDEST PUSH0 DUP2 DUP4 PUSH2 0x1D5 SWAP2 SWAP1 PUSH2 0x3B4 JUMP JUMPDEST SWAP1 POP SWAP3 SWAP2 POP POP JUMP JUMPDEST PUSH0 DUP2 DUP4 PUSH2 0x1EA SWAP2 SWAP1 PUSH2 0x3E4 JUMP JUMPDEST SWAP1 POP SWAP3 SWAP2 POP POP JUMP JUMPDEST PUSH0 DUP1 REVERT JUMPDEST PUSH0 DUP2 SWAP1 POP SWAP2 SWAP1 POP JUMP JUMPDEST PUSH2 0x208 DUP2 PUSH2 0x1F6 JUMP JUMPDEST DUP2 EQ PUSH2 0x212 JUMPI PUSH0 DUP1 REVERT JUMPDEST POP JUMP JUMPDEST PUSH0 DUP2 CALLDATALOAD SWAP1 POP PUSH2 0x223 DUP2 PUSH2 0x1FF JUMP JUMPDEST SWAP3 SWAP2 POP POP JUMP JUMPDEST PUSH0 PUSH1 0x20 DUP3 DUP5 SUB SLT ISZERO PUSH2 0x23E JUMPI PUSH2 0x23D PUSH2 0x1F2 JUMP JUMPDEST JUMPDEST PUSH0 PUSH2 0x24B DUP5 DUP3 DUP6 ADD PUSH2 0x215 JUMP JUMPDEST SWAP2 POP POP SWAP3 SWAP2 POP POP JUMP JUMPDEST PUSH2 0x25D DUP2 PUSH2 0x1F6 JUMP JUMPDEST DUP3 MSTORE POP POP JUMP JUMPDEST PUSH0 PUSH1 0x20 DUP3 ADD SWAP1 POP PUSH2 0x276 PUSH0 DUP4 ADD DUP5 PUSH2 0x254 JUMP JUMPDEST SWAP3 SWAP2 POP POP JUMP JUMPDEST PUSH0 DUP3 DUP3 MSTORE PUSH1 0x20 DUP3 ADD SWAP1 POP SWAP3 SWAP2 POP POP JUMP JUMPDEST PUSH32 0x43616E6E6F7420646976696465206279207A65726F0000000000000000000000 PUSH0 DUP3 ADD MSTORE POP JUMP JUMPDEST PUSH0 PUSH2 0x2C0 PUSH1 0x15 DUP4 PUSH2 0x27C JUMP JUMPDEST SWAP2 POP PUSH2 0x2CB DUP3 PUSH2 0x28C JUMP JUMPDEST PUSH1 0x20 DUP3 ADD SWAP1 POP SWAP2 SWAP1 POP JUMP JUMPDEST PUSH0 PUSH1 0x20 DUP3 ADD SWAP1 POP DUP2 DUP2 SUB PUSH0 DUP4 ADD MSTORE PUSH2 0x2ED DUP2 PUSH2 0x2B4 JUMP JUMPDEST SWAP1 POP SWAP2 SWAP1 POP JUMP JUMPDEST PUSH32 0x4E487B7100000000000000000000000000000000000000000000000000000000 PUSH0 MSTORE PUSH1 0x11 PUSH1 0x4 MSTORE PUSH1 0x24 PUSH0 REVERT JUMPDEST PUSH0 PUSH2 0x32B DUP3 PUSH2 0x1F6 JUMP JUMPDEST SWAP2 POP PUSH2 0x336 DUP4 PUSH2 0x1F6 JUMP JUMPDEST SWAP3 POP DUP3 DUP3 ADD SWAP1 POP DUP1 DUP3 GT ISZERO PUSH2 0x34E JUMPI PUSH2 0x34D PUSH2 0x2F4 JUMP JUMPDEST JUMPDEST SWAP3 SWAP2 POP POP JUMP JUMPDEST PUSH0 PUSH2 0x35E DUP3 PUSH2 0x1F6 JUMP JUMPDEST SWAP2 POP PUSH2 0x369 DUP4 PUSH2 0x1F6 JUMP JUMPDEST SWAP3 POP DUP3 DUP3 SUB SWAP1 POP DUP2 DUP2 GT ISZERO PUSH2 0x381 JUMPI PUSH2 0x380 PUSH2 0x2F4 JUMP JUMPDEST JUMPDEST SWAP3 SWAP2 POP POP JUMP JUMPDEST PUSH32 0x4E487B7100000000000000000000000000000000000000000000000000000000 PUSH0 MSTORE PUSH1 0x12 PUSH1 0x4 MSTORE PUSH1 0x24 PUSH0 REVERT JUMPDEST PUSH0 PUSH2 0x3BE DUP3 PUSH2 0x1F6 JUMP JUMPDEST SWAP2 POP PUSH2 0x3C9 DUP4 PUSH2 0x1F6 JUMP JUMPDEST SWAP3 POP DUP3 PUSH2 0x3D9 JUMPI PUSH2 0x3D8 PUSH2 0x387 JUMP JUMPDEST JUMPDEST DUP3 DUP3 DIV SWAP1 POP SWAP3 SWAP2 POP POP JUMP JUMPDEST PUSH0 PUSH2 0x3EE DUP3 PUSH2 0x1F6 JUMP JUMPDEST SWAP2 POP PUSH2 0x3F9 DUP4 PUSH2 0x1F6 JUMP JUMPDEST SWAP3 POP DUP3 DUP3 MUL PUSH2 0x407 DUP2 PUSH2 0x1F6 JUMP JUMPDEST SWAP2 POP DUP3 DUP3 DIV DUP5 EQ DUP4 ISZERO OR PUSH2 0x41E JUMPI PUSH2 0x41D PUSH2 0x2F4 JUMP JUMPDEST JUMPDEST POP SWAP3 SWAP2 POP POP JUMP INVALID LOG2 PUSH5 0x6970667358 0x22 SLT KECCAK256 0xE3 0x28 CALLDATALOAD 0x27 0xBB CREATE2 0x24 CALLDATASIZE PUSH8 0xD6E37B3C411496F5 PUSH26 0x48443B97379C77D1107C9A99594D64736F6C634300081A003300 "
				},
				"gasEstimates": {
					"creation": {
						"codeDepositCost": "223000",
						"executionCost": "5274",
						"totalCost": "228274"
					},
					"external": {
						"add(uint256)": "infinite",
						"divide(uint256)": "infinite",
						"multiply(uint256)": "infinite",
						"subtract(uint256)": "infinite",
						"total()": "2446"
					}
				},
				"methodIdentifiers": {
					"add(uint256)": "1003e2d2",
					"divide(uint256)": "3e823f79",
					"multiply(uint256)": "c6888fa1",
					"subtract(uint256)": "1dc05f17",
					"total()": "2ddbd13a"
				}
			},
			"storageLayout": {
				"storage": [
					{
						"astId": 319,
						"contract": "Day-34/code5.sol:SafeMathExample",
						"label": "total",
						"offset": 0,
						"slot": "0",
						"type": "t_uint256"
					}
				],
				"types": {
					"t_uint256": {
						"encoding": "inplace",
						"label": "uint256",
						"numberOfBytes": "32"
					}
				}
			},
			"userdoc": {
				"kind": "user",
				"methods": {},
				"version": 1
			}
		}
	}
}