{
	"data": {
		"bytecode": {
			"linkReferences": {},
			"object": "6080604052348015600e575f80fd5b506102b78061001c5f395ff3fe608060405234801561000f575f80fd5b5060043610610029575f3560e01c8063ff9a32741461002d575b5f80fd5b61003561004e565b6040516100459493929190610163565b60405180910390f35b5f805f60605f600a90505f601090505f818361006a91906101da565b90505f8284610079919061020d565b90505f8484610088919061024e565b90505f6040518060400160405280601681526020017f4d756c7469706c652072657475726e2076616c75657300000000000000000000815250905083838383995099509950995050505050505090919293565b5f819050919050565b6100ed816100db565b82525050565b5f81519050919050565b5f82825260208201905092915050565b8281835e5f83830152505050565b5f601f19601f8301169050919050565b5f610135826100f3565b61013f81856100fd565b935061014f81856020860161010d565b6101588161011b565b840191505092915050565b5f6080820190506101765f8301876100e4565b61018360208301866100e4565b61019060408301856100e4565b81810360608301526101a2818461012b565b905095945050505050565b7f4e487b71000000000000000000000000000000000000000000000000000000005f52601160045260245ffd5b5f6101e4826100db565b91506101ef836100db565b9250828201905080821115610207576102066101ad565b5b92915050565b5f610217826100db565b9150610222836100db565b9250828202610230816100db565b91508282048414831517610247576102466101ad565b5b5092915050565b5f610258826100db565b9150610263836100db565b925082820390508181111561027b5761027a6101ad565b5b9291505056fea264697066735822122066c516d035bea34c2a92fe3e3a8cbf971e94579f9d7fad6353912304ad9227a564736f6c634300081a0033",
			"opcodes": "PUSH1 0x80 PUSH1 0x40 MSTORE CALLVALUE DUP1 ISZERO PUSH1 0xE JUMPI PUSH0 DUP1 REVERT JUMPDEST POP PUSH2 0x2B7 DUP1 PUSH2 0x1C PUSH0 CODECOPY PUSH0 RETURN INVALID PUSH1 0x80 PUSH1 0x40 MSTORE CALLVALUE DUP1 ISZERO PUSH2 0xF JUMPI PUSH0 DUP1 REVERT JUMPDEST POP PUSH1 0x4 CALLDATASIZE LT PUSH2 0x29 JUMPI PUSH0 CALLDATALOAD PUSH1 0xE0 SHR DUP1 PUSH4 0xFF9A3274 EQ PUSH2 0x2D JUMPI JUMPDEST PUSH0 DUP1 REVERT JUMPDEST PUSH2 0x35 PUSH2 0x4E JUMP JUMPDEST PUSH1 0x40 MLOAD PUSH2 0x45 SWAP5 SWAP4 SWAP3 SWAP2 SWAP1 PUSH2 0x163 JUMP JUMPDEST PUSH1 0x40 MLOAD DUP1 SWAP2 SUB SWAP1 RETURN JUMPDEST PUSH0 DUP1 PUSH0 PUSH1 0x60 PUSH0 PUSH1 0xA SWAP1 POP PUSH0 PUSH1 0x10 SWAP1 POP PUSH0 DUP2 DUP4 PUSH2 0x6A SWAP2 SWAP1 PUSH2 0x1DA JUMP JUMPDEST SWAP1 POP PUSH0 DUP3 DUP5 PUSH2 0x79 SWAP2 SWAP1 PUSH2 0x20D JUMP JUMPDEST SWAP1 POP PUSH0 DUP5 DUP5 PUSH2 0x88 SWAP2 SWAP1 PUSH2 0x24E JUMP JUMPDEST SWAP1 POP PUSH0 PUSH1 0x40 MLOAD DUP1 PUSH1 0x40 ADD PUSH1 0x40 MSTORE DUP1 PUSH1 0x16 DUP2 MSTORE PUSH1 0x20 ADD PUSH32 0x4D756C7469706C652072657475726E2076616C75657300000000000000000000 DUP2 MSTORE POP SWAP1 POP DUP4 DUP4 DUP4 DUP4 SWAP10 POP SWAP10 POP SWAP10 POP SWAP10 POP POP POP POP POP POP POP SWAP1 SWAP2 SWAP3 SWAP4 JUMP JUMPDEST PUSH0 DUP2 SWAP1 POP SWAP2 SWAP1 POP JUMP JUMPDEST PUSH2 0xED DUP2 PUSH2 0xDB JUMP JUMPDEST DUP3 MSTORE POP POP JUMP JUMPDEST PUSH0 DUP2 MLOAD SWAP1 POP SWAP2 SWAP1 POP JUMP JUMPDEST PUSH0 DUP3 DUP3 MSTORE PUSH1 0x20 DUP3 ADD SWAP1 POP SWAP3 SWAP2 POP POP JUMP JUMPDEST DUP3 DUP2 DUP4 MCOPY PUSH0 DUP4 DUP4 ADD MSTORE POP POP POP JUMP JUMPDEST PUSH0 PUSH1 0x1F NOT PUSH1 0x1F DUP4 ADD AND SWAP1 POP SWAP2 SWAP1 POP JUMP JUMPDEST PUSH0 PUSH2 0x135 DUP3 PUSH2 0xF3 JUMP JUMPDEST PUSH2 0x13F DUP2 DUP6 PUSH2 0xFD JUMP JUMPDEST SWAP4 POP PUSH2 0x14F DUP2 DUP6 PUSH1 0x20 DUP7 ADD PUSH2 0x10D JUMP JUMPDEST PUSH2 0x158 DUP2 PUSH2 0x11B JUMP JUMPDEST DUP5 ADD SWAP2 POP POP SWAP3 SWAP2 POP POP JUMP JUMPDEST PUSH0 PUSH1 0x80 DUP3 ADD SWAP1 POP PUSH2 0x176 PUSH0 DUP4 ADD DUP8 PUSH2 0xE4 JUMP JUMPDEST PUSH2 0x183 PUSH1 0x20 DUP4 ADD DUP7 PUSH2 0xE4 JUMP JUMPDEST PUSH2 0x190 PUSH1 0x40 DUP4 ADD DUP6 PUSH2 0xE4 JUMP JUMPDEST DUP2 DUP2 SUB PUSH1 0x60 DUP4 ADD MSTORE PUSH2 0x1A2 DUP2 DUP5 PUSH2 0x12B JUMP JUMPDEST SWAP1 POP SWAP6 SWAP5 POP POP POP POP POP JUMP JUMPDEST PUSH32 0x4E487B7100000000000000000000000000000000000000000000000000000000 PUSH0 MSTORE PUSH1 0x11 PUSH1 0x4 MSTORE PUSH1 0x24 PUSH0 REVERT JUMPDEST PUSH0 PUSH2 0x1E4 DUP3 PUSH2 0xDB JUMP JUMPDEST SWAP2 POP PUSH2 0x1EF DUP4 PUSH2 0xDB JUMP JUMPDEST SWAP3 POP DUP3 DUP3 ADD SWAP1 POP DUP1 DUP3 GT ISZERO PUSH2 0x207 JUMPI PUSH2 0x206 PUSH2 0x1AD JUMP JUMPDEST JUMPDEST SWAP3 SWAP2 POP POP JUMP JUMPDEST PUSH0 PUSH2 0x217 DUP3 PUSH2 0xDB JUMP JUMPDEST SWAP2 POP PUSH2 0x222 DUP4 PUSH2 0xDB JUMP JUMPDEST SWAP3 POP DUP3 DUP3 MUL PUSH2 0x230 DUP2 PUSH2 0xDB JUMP JUMPDEST SWAP2 POP DUP3 DUP3 DIV DUP5 EQ DUP4 ISZERO OR PUSH2 0x247 JUMPI PUSH2 0x246 PUSH2 0x1AD JUMP JUMPDEST JUMPDEST POP SWAP3 SWAP2 POP POP JUMP JUMPDEST PUSH0 PUSH2 0x258 DUP3 PUSH2 0xDB JUMP JUMPDEST SWAP2 POP PUSH2 0x263 DUP4 PUSH2 0xDB JUMP JUMPDEST SWAP3 POP DUP3 DUP3 SUB SWAP1 POP DUP2 DUP2 GT ISZERO PUSH2 0x27B JUMPI PUSH2 0x27A PUSH2 0x1AD JUMP JUMPDEST JUMPDEST SWAP3 SWAP2 POP POP JUMP INVALID LOG2 PUSH5 0x6970667358 0x22 SLT KECCAK256 PUSH7 0xC516D035BEA34C 0x2A SWAP3 INVALID RETURNDATACOPY GASPRICE DUP13 0xBF SWAP8 0x1E SWAP5 JUMPI SWAP16 SWAP14 PUSH32 0xAD6353912304AD9227A564736F6C634300081A00330000000000000000000000 "
		},
		"gasEstimates": {
			"creation": {
				"codeDepositCost": "139000",
				"executionCost": "181",
				"totalCost": "139181"
			},
			"external": {
				"return_example()": "infinite"
			}
		},
		"methodIdentifiers": {
			"return_example()": "ff9a3274"
		}
	},
	"abi": [
		{
			"inputs": [],
			"name": "return_example",
			"outputs": [
				{
					"internalType": "uint256",
					"name": "",
					"type": "uint256"
				},
				{
					"internalType": "uint256",
					"name": "",
					"type": "uint256"
				},
				{
					"internalType": "uint256",
					"name": "",
					"type": "uint256"
				},
				{
					"internalType": "string",
					"name": "",
					"type": "string"
				}
			],
			"stateMutability": "pure",
			"type": "function"
		}
	]
}