{
	"data": {
		"bytecode": {
			"linkReferences": {},
			"object": "6080604052600a5f553480156012575f80fd5b506106b5806100205f395ff3fe608060405234801561000f575f80fd5b5060043610610034575f3560e01c806365372147146100385780636d4ce63c14610056575b5f80fd5b610040610074565b60405161004d9190610303565b60405180910390f35b61005e610100565b60405161006b9190610303565b60405180910390f35b6001805461008190610350565b80601f01602080910402602001604051908101604052809291908181526020018280546100ad90610350565b80156100f85780601f106100cf576101008083540402835291602001916100f8565b820191905f5260205f20905b8154815290600101906020018083116100db57829003601f168201915b505050505081565b60605f60025f5461011191906103b6565b03610160576040518060400160405280600b81526020017f4576656e204e756d6265720000000000000000000000000000000000000000008152506001908161015a91906105b0565b50610205565b5f60025f5461016f91906103b6565b146101be576040518060400160405280600a81526020017f4f6464204e756d62657200000000000000000000000000000000000000000000815250600190816101b891906105b0565b50610204565b6040518060400160405280600881526020017f4e6f74204576656e0000000000000000000000000000000000000000000000008152506001908161020291906105b0565b505b5b6001805461021290610350565b80601f016020809104026020016040519081016040528092919081815260200182805461023e90610350565b80156102895780601f1061026057610100808354040283529160200191610289565b820191905f5260205f20905b81548152906001019060200180831161026c57829003601f168201915b5050505050905090565b5f81519050919050565b5f82825260208201905092915050565b8281835e5f83830152505050565b5f601f19601f8301169050919050565b5f6102d582610293565b6102df818561029d565b93506102ef8185602086016102ad565b6102f8816102bb565b840191505092915050565b5f6020820190508181035f83015261031b81846102cb565b905092915050565b7f4e487b71000000000000000000000000000000000000000000000000000000005f52602260045260245ffd5b5f600282049050600182168061036757607f821691505b60208210810361037a57610379610323565b5b50919050565b5f819050919050565b7f4e487b71000000000000000000000000000000000000000000000000000000005f52601260045260245ffd5b5f6103c082610380565b91506103cb83610380565b9250826103db576103da610389565b5b828206905092915050565b7f4e487b71000000000000000000000000000000000000000000000000000000005f52604160045260245ffd5b5f819050815f5260205f209050919050565b5f6020601f8301049050919050565b5f82821b905092915050565b5f6008830261046f7fffffffffffffffffffffffffffffffffffffffffffffffffffffffffffffffff82610434565b6104798683610434565b95508019841693508086168417925050509392505050565b5f819050919050565b5f6104b46104af6104aa84610380565b610491565b610380565b9050919050565b5f819050919050565b6104cd8361049a565b6104e16104d9826104bb565b848454610440565b825550505050565b5f90565b6104f56104e9565b6105008184846104c4565b505050565b5b81811015610523576105185f826104ed565b600181019050610506565b5050565b601f8211156105685761053981610413565b61054284610425565b81016020851015610551578190505b61056561055d85610425565b830182610505565b50505b505050565b5f82821c905092915050565b5f6105885f198460080261056d565b1980831691505092915050565b5f6105a08383610579565b9150826002028217905092915050565b6105b982610293565b67ffffffffffffffff8111156105d2576105d16103e6565b5b6105dc8254610350565b6105e7828285610527565b5f60209050601f831160018114610618575f8415610606578287015190505b6106108582610595565b865550610677565b601f19841661062686610413565b5f5b8281101561064d57848901518255600182019150602085019450602081019050610628565b8683101561066a5784890151610666601f891682610579565b8355505b6001600288020188555050505b50505050505056fea2646970667358221220b52665e282572bc2cd76f0ac8994c3237e9439e583a41cae2a453b706b91e86c64736f6c634300081a0033",
			"opcodes": "PUSH1 0x80 PUSH1 0x40 MSTORE PUSH1 0xA PUSH0 SSTORE CALLVALUE DUP1 ISZERO PUSH1 0x12 JUMPI PUSH0 DUP1 REVERT JUMPDEST POP PUSH2 0x6B5 DUP1 PUSH2 0x20 PUSH0 CODECOPY PUSH0 RETURN INVALID PUSH1 0x80 PUSH1 0x40 MSTORE CALLVALUE DUP1 ISZERO PUSH2 0xF JUMPI PUSH0 DUP1 REVERT JUMPDEST POP PUSH1 0x4 CALLDATASIZE LT PUSH2 0x34 JUMPI PUSH0 CALLDATALOAD PUSH1 0xE0 SHR DUP1 PUSH4 0x65372147 EQ PUSH2 0x38 JUMPI DUP1 PUSH4 0x6D4CE63C EQ PUSH2 0x56 JUMPI JUMPDEST PUSH0 DUP1 REVERT JUMPDEST PUSH2 0x40 PUSH2 0x74 JUMP JUMPDEST PUSH1 0x40 MLOAD PUSH2 0x4D SWAP2 SWAP1 PUSH2 0x303 JUMP JUMPDEST PUSH1 0x40 MLOAD DUP1 SWAP2 SUB SWAP1 RETURN JUMPDEST PUSH2 0x5E PUSH2 0x100 JUMP JUMPDEST PUSH1 0x40 MLOAD PUSH2 0x6B SWAP2 SWAP1 PUSH2 0x303 JUMP JUMPDEST PUSH1 0x40 MLOAD DUP1 SWAP2 SUB SWAP1 RETURN JUMPDEST PUSH1 0x1 DUP1 SLOAD PUSH2 0x81 SWAP1 PUSH2 0x350 JUMP JUMPDEST DUP1 PUSH1 0x1F ADD PUSH1 0x20 DUP1 SWAP2 DIV MUL PUSH1 0x20 ADD PUSH1 0x40 MLOAD SWAP1 DUP2 ADD PUSH1 0x40 MSTORE DUP1 SWAP3 SWAP2 SWAP1 DUP2 DUP2 MSTORE PUSH1 0x20 ADD DUP3 DUP1 SLOAD PUSH2 0xAD SWAP1 PUSH2 0x350 JUMP JUMPDEST DUP1 ISZERO PUSH2 0xF8 JUMPI DUP1 PUSH1 0x1F LT PUSH2 0xCF JUMPI PUSH2 0x100 DUP1 DUP4 SLOAD DIV MUL DUP4 MSTORE SWAP2 PUSH1 0x20 ADD SWAP2 PUSH2 0xF8 JUMP JUMPDEST DUP3 ADD SWAP2 SWAP1 PUSH0 MSTORE PUSH1 0x20 PUSH0 KECCAK256 SWAP1 JUMPDEST DUP2 SLOAD DUP2 MSTORE SWAP1 PUSH1 0x1 ADD SWAP1 PUSH1 0x20 ADD DUP1 DUP4 GT PUSH2 0xDB JUMPI DUP3 SWAP1 SUB PUSH1 0x1F AND DUP3 ADD SWAP2 JUMPDEST POP POP POP POP POP DUP2 JUMP JUMPDEST PUSH1 0x60 PUSH0 PUSH1 0x2 PUSH0 SLOAD PUSH2 0x111 SWAP2 SWAP1 PUSH2 0x3B6 JUMP JUMPDEST SUB PUSH2 0x160 JUMPI PUSH1 0x40 MLOAD DUP1 PUSH1 0x40 ADD PUSH1 0x40 MSTORE DUP1 PUSH1 0xB DUP2 MSTORE PUSH1 0x20 ADD PUSH32 0x4576656E204E756D626572000000000000000000000000000000000000000000 DUP2 MSTORE POP PUSH1 0x1 SWAP1 DUP2 PUSH2 0x15A SWAP2 SWAP1 PUSH2 0x5B0 JUMP JUMPDEST POP PUSH2 0x205 JUMP JUMPDEST PUSH0 PUSH1 0x2 PUSH0 SLOAD PUSH2 0x16F SWAP2 SWAP1 PUSH2 0x3B6 JUMP JUMPDEST EQ PUSH2 0x1BE JUMPI PUSH1 0x40 MLOAD DUP1 PUSH1 0x40 ADD PUSH1 0x40 MSTORE DUP1 PUSH1 0xA DUP2 MSTORE PUSH1 0x20 ADD PUSH32 0x4F6464204E756D62657200000000000000000000000000000000000000000000 DUP2 MSTORE POP PUSH1 0x1 SWAP1 DUP2 PUSH2 0x1B8 SWAP2 SWAP1 PUSH2 0x5B0 JUMP JUMPDEST POP PUSH2 0x204 JUMP JUMPDEST PUSH1 0x40 MLOAD DUP1 PUSH1 0x40 ADD PUSH1 0x40 MSTORE DUP1 PUSH1 0x8 DUP2 MSTORE PUSH1 0x20 ADD PUSH32 0x4E6F74204576656E000000000000000000000000000000000000000000000000 DUP2 MSTORE POP PUSH1 0x1 SWAP1 DUP2 PUSH2 0x202 SWAP2 SWAP1 PUSH2 0x5B0 JUMP JUMPDEST POP JUMPDEST JUMPDEST PUSH1 0x1 DUP1 SLOAD PUSH2 0x212 SWAP1 PUSH2 0x350 JUMP JUMPDEST DUP1 PUSH1 0x1F ADD PUSH1 0x20 DUP1 SWAP2 DIV MUL PUSH1 0x20 ADD PUSH1 0x40 MLOAD SWAP1 DUP2 ADD PUSH1 0x40 MSTORE DUP1 SWAP3 SWAP2 SWAP1 DUP2 DUP2 MSTORE PUSH1 0x20 ADD DUP3 DUP1 SLOAD PUSH2 0x23E SWAP1 PUSH2 0x350 JUMP JUMPDEST DUP1 ISZERO PUSH2 0x289 JUMPI DUP1 PUSH1 0x1F LT PUSH2 0x260 JUMPI PUSH2 0x100 DUP1 DUP4 SLOAD DIV MUL DUP4 MSTORE SWAP2 PUSH1 0x20 ADD SWAP2 PUSH2 0x289 JUMP JUMPDEST DUP3 ADD SWAP2 SWAP1 PUSH0 MSTORE PUSH1 0x20 PUSH0 KECCAK256 SWAP1 JUMPDEST DUP2 SLOAD DUP2 MSTORE SWAP1 PUSH1 0x1 ADD SWAP1 PUSH1 0x20 ADD DUP1 DUP4 GT PUSH2 0x26C JUMPI DUP3 SWAP1 SUB PUSH1 0x1F AND DUP3 ADD SWAP2 JUMPDEST POP POP POP POP POP SWAP1 POP SWAP1 JUMP JUMPDEST PUSH0 DUP2 MLOAD SWAP1 POP SWAP2 SWAP1 POP JUMP JUMPDEST PUSH0 DUP3 DUP3 MSTORE PUSH1 0x20 DUP3 ADD SWAP1 POP SWAP3 SWAP2 POP POP JUMP JUMPDEST DUP3 DUP2 DUP4 MCOPY PUSH0 DUP4 DUP4 ADD MSTORE POP POP POP JUMP JUMPDEST PUSH0 PUSH1 0x1F NOT PUSH1 0x1F DUP4 ADD AND SWAP1 POP SWAP2 SWAP1 POP JUMP JUMPDEST PUSH0 PUSH2 0x2D5 DUP3 PUSH2 0x293 JUMP JUMPDEST PUSH2 0x2DF DUP2 DUP6 PUSH2 0x29D JUMP JUMPDEST SWAP4 POP PUSH2 0x2EF DUP2 DUP6 PUSH1 0x20 DUP7 ADD PUSH2 0x2AD JUMP JUMPDEST PUSH2 0x2F8 DUP2 PUSH2 0x2BB JUMP JUMPDEST DUP5 ADD SWAP2 POP POP SWAP3 SWAP2 POP POP JUMP JUMPDEST PUSH0 PUSH1 0x20 DUP3 ADD SWAP1 POP DUP2 DUP2 SUB PUSH0 DUP4 ADD MSTORE PUSH2 0x31B DUP2 DUP5 PUSH2 0x2CB JUMP JUMPDEST SWAP1 POP SWAP3 SWAP2 POP POP JUMP JUMPDEST PUSH32 0x4E487B7100000000000000000000000000000000000000000000000000000000 PUSH0 MSTORE PUSH1 0x22 PUSH1 0x4 MSTORE PUSH1 0x24 PUSH0 REVERT JUMPDEST PUSH0 PUSH1 0x2 DUP3 DIV SWAP1 POP PUSH1 0x1 DUP3 AND DUP1 PUSH2 0x367 JUMPI PUSH1 0x7F DUP3 AND SWAP2 POP JUMPDEST PUSH1 0x20 DUP3 LT DUP2 SUB PUSH2 0x37A JUMPI PUSH2 0x379 PUSH2 0x323 JUMP JUMPDEST JUMPDEST POP SWAP2 SWAP1 POP JUMP JUMPDEST PUSH0 DUP2 SWAP1 POP SWAP2 SWAP1 POP JUMP JUMPDEST PUSH32 0x4E487B7100000000000000000000000000000000000000000000000000000000 PUSH0 MSTORE PUSH1 0x12 PUSH1 0x4 MSTORE PUSH1 0x24 PUSH0 REVERT JUMPDEST PUSH0 PUSH2 0x3C0 DUP3 PUSH2 0x380 JUMP JUMPDEST SWAP2 POP PUSH2 0x3CB DUP4 PUSH2 0x380 JUMP JUMPDEST SWAP3 POP DUP3 PUSH2 0x3DB JUMPI PUSH2 0x3DA PUSH2 0x389 JUMP JUMPDEST JUMPDEST DUP3 DUP3 MOD SWAP1 POP SWAP3 SWAP2 POP POP JUMP JUMPDEST PUSH32 0x4E487B7100000000000000000000000000000000000000000000000000000000 PUSH0 MSTORE PUSH1 0x41 PUSH1 0x4 MSTORE PUSH1 0x24 PUSH0 REVERT JUMPDEST PUSH0 DUP2 SWAP1 POP DUP2 PUSH0 MSTORE PUSH1 0x20 PUSH0 KECCAK256 SWAP1 POP SWAP2 SWAP1 POP JUMP JUMPDEST PUSH0 PUSH1 0x20 PUSH1 0x1F DUP4 ADD DIV SWAP1 POP SWAP2 SWAP1 POP JUMP JUMPDEST PUSH0 DUP3 DUP3 SHL SWAP1 POP SWAP3 SWAP2 POP POP JUMP JUMPDEST PUSH0 PUSH1 0x8 DUP4 MUL PUSH2 0x46F PUSH32 0xFFFFFFFFFFFFFFFFFFFFFFFFFFFFFFFFFFFFFFFFFFFFFFFFFFFFFFFFFFFFFFFF DUP3 PUSH2 0x434 JUMP JUMPDEST PUSH2 0x479 DUP7 DUP4 PUSH2 0x434 JUMP JUMPDEST SWAP6 POP DUP1 NOT DUP5 AND SWAP4 POP DUP1 DUP7 AND DUP5 OR SWAP3 POP POP POP SWAP4 SWAP3 POP POP POP JUMP JUMPDEST PUSH0 DUP2 SWAP1 POP SWAP2 SWAP1 POP JUMP JUMPDEST PUSH0 PUSH2 0x4B4 PUSH2 0x4AF PUSH2 0x4AA DUP5 PUSH2 0x380 JUMP JUMPDEST PUSH2 0x491 JUMP JUMPDEST PUSH2 0x380 JUMP JUMPDEST SWAP1 POP SWAP2 SWAP1 POP JUMP JUMPDEST PUSH0 DUP2 SWAP1 POP SWAP2 SWAP1 POP JUMP JUMPDEST PUSH2 0x4CD DUP4 PUSH2 0x49A JUMP JUMPDEST PUSH2 0x4E1 PUSH2 0x4D9 DUP3 PUSH2 0x4BB JUMP JUMPDEST DUP5 DUP5 SLOAD PUSH2 0x440 JUMP JUMPDEST DUP3 SSTORE POP POP POP POP JUMP JUMPDEST PUSH0 SWAP1 JUMP JUMPDEST PUSH2 0x4F5 PUSH2 0x4E9 JUMP JUMPDEST PUSH2 0x500 DUP2 DUP5 DUP5 PUSH2 0x4C4 JUMP JUMPDEST POP POP POP JUMP JUMPDEST JUMPDEST DUP2 DUP2 LT ISZERO PUSH2 0x523 JUMPI PUSH2 0x518 PUSH0 DUP3 PUSH2 0x4ED JUMP JUMPDEST PUSH1 0x1 DUP2 ADD SWAP1 POP PUSH2 0x506 JUMP JUMPDEST POP POP JUMP JUMPDEST PUSH1 0x1F DUP3 GT ISZERO PUSH2 0x568 JUMPI PUSH2 0x539 DUP2 PUSH2 0x413 JUMP JUMPDEST PUSH2 0x542 DUP5 PUSH2 0x425 JUMP JUMPDEST DUP2 ADD PUSH1 0x20 DUP6 LT ISZERO PUSH2 0x551 JUMPI DUP2 SWAP1 POP JUMPDEST PUSH2 0x565 PUSH2 0x55D DUP6 PUSH2 0x425 JUMP JUMPDEST DUP4 ADD DUP3 PUSH2 0x505 JUMP JUMPDEST POP POP JUMPDEST POP POP POP JUMP JUMPDEST PUSH0 DUP3 DUP3 SHR SWAP1 POP SWAP3 SWAP2 POP POP JUMP JUMPDEST PUSH0 PUSH2 0x588 PUSH0 NOT DUP5 PUSH1 0x8 MUL PUSH2 0x56D JUMP JUMPDEST NOT DUP1 DUP4 AND SWAP2 POP POP SWAP3 SWAP2 POP POP JUMP JUMPDEST PUSH0 PUSH2 0x5A0 DUP4 DUP4 PUSH2 0x579 JUMP JUMPDEST SWAP2 POP DUP3 PUSH1 0x2 MUL DUP3 OR SWAP1 POP SWAP3 SWAP2 POP POP JUMP JUMPDEST PUSH2 0x5B9 DUP3 PUSH2 0x293 JUMP JUMPDEST PUSH8 0xFFFFFFFFFFFFFFFF DUP2 GT ISZERO PUSH2 0x5D2 JUMPI PUSH2 0x5D1 PUSH2 0x3E6 JUMP JUMPDEST JUMPDEST PUSH2 0x5DC DUP3 SLOAD PUSH2 0x350 JUMP JUMPDEST PUSH2 0x5E7 DUP3 DUP3 DUP6 PUSH2 0x527 JUMP JUMPDEST PUSH0 PUSH1 0x20 SWAP1 POP PUSH1 0x1F DUP4 GT PUSH1 0x1 DUP2 EQ PUSH2 0x618 JUMPI PUSH0 DUP5 ISZERO PUSH2 0x606 JUMPI DUP3 DUP8 ADD MLOAD SWAP1 POP JUMPDEST PUSH2 0x610 DUP6 DUP3 PUSH2 0x595 JUMP JUMPDEST DUP7 SSTORE POP PUSH2 0x677 JUMP JUMPDEST PUSH1 0x1F NOT DUP5 AND PUSH2 0x626 DUP7 PUSH2 0x413 JUMP JUMPDEST PUSH0 JUMPDEST DUP3 DUP2 LT ISZERO PUSH2 0x64D JUMPI DUP5 DUP10 ADD MLOAD DUP3 SSTORE PUSH1 0x1 DUP3 ADD SWAP2 POP PUSH1 0x20 DUP6 ADD SWAP5 POP PUSH1 0x20 DUP2 ADD SWAP1 POP PUSH2 0x628 JUMP JUMPDEST DUP7 DUP4 LT ISZERO PUSH2 0x66A JUMPI DUP5 DUP10 ADD MLOAD PUSH2 0x666 PUSH1 0x1F DUP10 AND DUP3 PUSH2 0x579 JUMP JUMPDEST DUP4 SSTORE POP JUMPDEST PUSH1 0x1 PUSH1 0x2 DUP9 MUL ADD DUP9 SSTORE POP POP POP JUMPDEST POP POP POP POP POP POP JUMP INVALID LOG2 PUSH5 0x6970667358 0x22 SLT KECCAK256 0xB5 0x26 PUSH6 0xE282572BC2CD PUSH23 0xF0AC8994C3237E9439E583A41CAE2A453B706B91E86C64 PUSH20 0x6F6C634300081A00330000000000000000000000 "
		},
		"gasEstimates": {
			"creation": {
				"codeDepositCost": "343400",
				"executionCost": "22483",
				"totalCost": "365883"
			},
			"external": {
				"get()": "infinite",
				"result()": "infinite"
			}
		},
		"methodIdentifiers": {
			"get()": "6d4ce63c",
			"result()": "65372147"
		}
	},
	"abi": [
		{
			"inputs": [],
			"name": "get",
			"outputs": [
				{
					"internalType": "string",
					"name": "",
					"type": "string"
				}
			],
			"stateMutability": "nonpayable",
			"type": "function"
		},
		{
			"inputs": [],
			"name": "result",
			"outputs": [
				{
					"internalType": "string",
					"name": "",
					"type": "string"
				}
			],
			"stateMutability": "view",
			"type": "function"
		}
	]
}