{
	"data": {
		"bytecode": {
			"linkReferences": {},
			"object": "6080604052348015600e575f5ffd5b506102758061001c5f395ff3fe608060405260043610610028575f3560e01c806312065fe01461002c578063c9b25f0f14610056575b5f5ffd5b348015610037575f5ffd5b50610040610060565b60405161004d9190610146565b60405180910390f35b61005e610067565b005b5f47905090565b5f73d4fc541236927e2eaf8f27606bd7309c1fc2cbee73ffffffffffffffffffffffffffffffffffffffff16671bc16d674ec800006040516100a8906101b3565b5f6040518083038185875af1925050503d805f81146100e2576040519150601f19603f3d011682016040523d82523d5f602084013e6100e7565b606091505b505090508061012b576040517f08c379a000000000000000000000000000000000000000000000000000000000815260040161012290610221565b60405180910390fd5b50565b5f819050919050565b6101408161012e565b82525050565b5f6020820190506101595f830184610137565b92915050565b5f81905092915050565b7f5472616e73616374696f6e20436f6d706c6574656421000000000000000000005f82015250565b5f61019d60168361015f565b91506101a882610169565b601682019050919050565b5f6101bd82610191565b9150819050919050565b5f82825260208201905092915050565b7f5472616e73616374696f6e204661696c656421000000000000000000000000005f82015250565b5f61020b6013836101c7565b9150610216826101d7565b602082019050919050565b5f6020820190508181035f830152610238816101ff565b905091905056fea26469706673582212200120172d2e51ae7fd0eb594bb8901033400e41ceed459b02bc9cd13e5cdc981364736f6c634300081c0033",
			"opcodes": "PUSH1 0x80 PUSH1 0x40 MSTORE CALLVALUE DUP1 ISZERO PUSH1 0xE JUMPI PUSH0 PUSH0 REVERT JUMPDEST POP PUSH2 0x275 DUP1 PUSH2 0x1C PUSH0 CODECOPY PUSH0 RETURN INVALID PUSH1 0x80 PUSH1 0x40 MSTORE PUSH1 0x4 CALLDATASIZE LT PUSH2 0x28 JUMPI PUSH0 CALLDATALOAD PUSH1 0xE0 SHR DUP1 PUSH4 0x12065FE0 EQ PUSH2 0x2C JUMPI DUP1 PUSH4 0xC9B25F0F EQ PUSH2 0x56 JUMPI JUMPDEST PUSH0 PUSH0 REVERT JUMPDEST CALLVALUE DUP1 ISZERO PUSH2 0x37 JUMPI PUSH0 PUSH0 REVERT JUMPDEST POP PUSH2 0x40 PUSH2 0x60 JUMP JUMPDEST PUSH1 0x40 MLOAD PUSH2 0x4D SWAP2 SWAP1 PUSH2 0x146 JUMP JUMPDEST PUSH1 0x40 MLOAD DUP1 SWAP2 SUB SWAP1 RETURN JUMPDEST PUSH2 0x5E PUSH2 0x67 JUMP JUMPDEST STOP JUMPDEST PUSH0 SELFBALANCE SWAP1 POP SWAP1 JUMP JUMPDEST PUSH0 PUSH20 0xD4FC541236927E2EAF8F27606BD7309C1FC2CBEE PUSH20 0xFFFFFFFFFFFFFFFFFFFFFFFFFFFFFFFFFFFFFFFF AND PUSH8 0x1BC16D674EC80000 PUSH1 0x40 MLOAD PUSH2 0xA8 SWAP1 PUSH2 0x1B3 JUMP JUMPDEST PUSH0 PUSH1 0x40 MLOAD DUP1 DUP4 SUB DUP2 DUP6 DUP8 GAS CALL SWAP3 POP POP POP RETURNDATASIZE DUP1 PUSH0 DUP2 EQ PUSH2 0xE2 JUMPI PUSH1 0x40 MLOAD SWAP2 POP PUSH1 0x1F NOT PUSH1 0x3F RETURNDATASIZE ADD AND DUP3 ADD PUSH1 0x40 MSTORE RETURNDATASIZE DUP3 MSTORE RETURNDATASIZE PUSH0 PUSH1 0x20 DUP5 ADD RETURNDATACOPY PUSH2 0xE7 JUMP JUMPDEST PUSH1 0x60 SWAP2 POP JUMPDEST POP POP SWAP1 POP DUP1 PUSH2 0x12B JUMPI PUSH1 0x40 MLOAD PUSH32 0x8C379A000000000000000000000000000000000000000000000000000000000 DUP2 MSTORE PUSH1 0x4 ADD PUSH2 0x122 SWAP1 PUSH2 0x221 JUMP JUMPDEST PUSH1 0x40 MLOAD DUP1 SWAP2 SUB SWAP1 REVERT JUMPDEST POP JUMP JUMPDEST PUSH0 DUP2 SWAP1 POP SWAP2 SWAP1 POP JUMP JUMPDEST PUSH2 0x140 DUP2 PUSH2 0x12E JUMP JUMPDEST DUP3 MSTORE POP POP JUMP JUMPDEST PUSH0 PUSH1 0x20 DUP3 ADD SWAP1 POP PUSH2 0x159 PUSH0 DUP4 ADD DUP5 PUSH2 0x137 JUMP JUMPDEST SWAP3 SWAP2 POP POP JUMP JUMPDEST PUSH0 DUP2 SWAP1 POP SWAP3 SWAP2 POP POP JUMP JUMPDEST PUSH32 0x5472616E73616374696F6E20436F6D706C657465642100000000000000000000 PUSH0 DUP3 ADD MSTORE POP JUMP JUMPDEST PUSH0 PUSH2 0x19D PUSH1 0x16 DUP4 PUSH2 0x15F JUMP JUMPDEST SWAP2 POP PUSH2 0x1A8 DUP3 PUSH2 0x169 JUMP JUMPDEST PUSH1 0x16 DUP3 ADD SWAP1 POP SWAP2 SWAP1 POP JUMP JUMPDEST PUSH0 PUSH2 0x1BD DUP3 PUSH2 0x191 JUMP JUMPDEST SWAP2 POP DUP2 SWAP1 POP SWAP2 SWAP1 POP JUMP JUMPDEST PUSH0 DUP3 DUP3 MSTORE PUSH1 0x20 DUP3 ADD SWAP1 POP SWAP3 SWAP2 POP POP JUMP JUMPDEST PUSH32 0x5472616E73616374696F6E204661696C65642100000000000000000000000000 PUSH0 DUP3 ADD MSTORE POP JUMP JUMPDEST PUSH0 PUSH2 0x20B PUSH1 0x13 DUP4 PUSH2 0x1C7 JUMP JUMPDEST SWAP2 POP PUSH2 0x216 DUP3 PUSH2 0x1D7 JUMP JUMPDEST PUSH1 0x20 DUP3 ADD SWAP1 POP SWAP2 SWAP1 POP JUMP JUMPDEST PUSH0 PUSH1 0x20 DUP3 ADD SWAP1 POP DUP2 DUP2 SUB PUSH0 DUP4 ADD MSTORE PUSH2 0x238 DUP2 PUSH2 0x1FF JUMP JUMPDEST SWAP1 POP SWAP2 SWAP1 POP JUMP INVALID LOG2 PUSH5 0x6970667358 0x22 SLT KECCAK256 ADD KECCAK256 OR 0x2D 0x2E MLOAD 0xAE PUSH32 0xD0EB594BB8901033400E41CEED459B02BC9CD13E5CDC981364736F6C63430008 SHR STOP CALLER "
		},
		"gasEstimates": {
			"creation": {
				"codeDepositCost": "125800",
				"executionCost": "169",
				"totalCost": "125969"
			},
			"external": {
				"getBalance()": "312",
				"transferEther()": "infinite"
			}
		},
		"methodIdentifiers": {
			"getBalance()": "12065fe0",
			"transferEther()": "c9b25f0f"
		}
	},
	"abi": [
		{
			"inputs": [],
			"name": "getBalance",
			"outputs": [
				{
					"internalType": "uint256",
					"name": "",
					"type": "uint256"
				}
			],
			"stateMutability": "view",
			"type": "function"
		},
		{
			"inputs": [],
			"name": "transferEther",
			"outputs": [],
			"stateMutability": "payable",
			"type": "function"
		}
	]
}