{
	"data": {
		"bytecode": {
			"linkReferences": {},
			"object": "6080604052348015600e575f80fd5b506115f08061001c5f395ff3fe608060405234801561000f575f80fd5b506004361061007b575f3560e01c8063bfd3c4e611610059578063bfd3c4e6146100e7578063cf35bdd014610103578063de611ee514610137578063f3ab880e146101675761007b565b806329507f731461007f578063455bd9511461009b57806376389bdd146100cb575b5f80fd5b61009960048036038101906100949190610b39565b610197565b005b6100b560048036038101906100b09190610b77565b610403565b6040516100c29190610bc4565b60405180910390f35b6100e560048036038101906100e09190610d19565b61042e565b005b61010160048036038101906100fc9190610d85565b610549565b005b61011d60048036038101906101189190610e21565b610726565b60405161012e959493929190610ebb565b60405180910390f35b610151600480360381019061014c9190610e21565b610882565b60405161015e9190610f1a565b60405180910390f35b610181600480360381019061017c9190610f33565b610911565b60405161018e9190611015565b60405180910390f35b813373ffffffffffffffffffffffffffffffffffffffff165f808381526020019081526020015f206002015f9054906101000a900473ffffffffffffffffffffffffffffffffffffffff1673ffffffffffffffffffffffffffffffffffffffff1614610238576040517f08c379a000000000000000000000000000000000000000000000000000000000815260040161022f9061107f565b60405180910390fd5b5f73ffffffffffffffffffffffffffffffffffffffff168273ffffffffffffffffffffffffffffffffffffffff16036102a6576040517f08c379a000000000000000000000000000000000000000000000000000000000815260040161029d9061110d565b60405180910390fd5b5f805f8581526020019081526020015f206002015f9054906101000a900473ffffffffffffffffffffffffffffffffffffffff169050825f808681526020019081526020015f206002015f6101000a81548173ffffffffffffffffffffffffffffffffffffffff021916908373ffffffffffffffffffffffffffffffffffffffff16021790555061033781856109a4565b60015f8473ffffffffffffffffffffffffffffffffffffffff1673ffffffffffffffffffffffffffffffffffffffff1681526020019081526020015f2084908060018154018082558091505060019003905f5260205f20015f90919091909150558273ffffffffffffffffffffffffffffffffffffffff168173ffffffffffffffffffffffffffffffffffffffff167f16b85f49bf01212961345d3016c9a531894accf62eb7680f2045d79185cc0ec0866040516103f59190610bc4565b60405180910390a350505050565b6001602052815f5260405f20818154811061041c575f80fd5b905f5260205f20015f91509150505481565b823373ffffffffffffffffffffffffffffffffffffffff165f808381526020019081526020015f206002015f9054906101000a900473ffffffffffffffffffffffffffffffffffffffff1673ffffffffffffffffffffffffffffffffffffffff16146104cf576040517f08c379a00000000000000000000000000000000000000000000000000000000081526004016104c69061107f565b60405180910390fd5b825f808681526020019081526020015f2060010190816104ef9190611325565b50815f808681526020019081526020015f20600401819055507f8e9305a645831673915d6a37bac66e0d689026ff19a9bcafe63dff9e4d18e7d284848460405161053b939291906113f4565b60405180910390a150505050565b5f805f8681526020019081526020015f205f01541461059d576040517f08c379a00000000000000000000000000000000000000000000000000000000081526004016105949061147a565b60405180910390fd5b6040518060a001604052808581526020018481526020013373ffffffffffffffffffffffffffffffffffffffff168152602001838152602001828152505f808681526020019081526020015f205f820151815f015560208201518160010190816106079190611325565b506040820151816002015f6101000a81548173ffffffffffffffffffffffffffffffffffffffff021916908373ffffffffffffffffffffffffffffffffffffffff16021790555060608201518160030190816106639190611325565b506080820151816004015590505060015f3373ffffffffffffffffffffffffffffffffffffffff1673ffffffffffffffffffffffffffffffffffffffff1681526020019081526020015f2084908060018154018082558091505060019003905f5260205f20015f90919091909150553373ffffffffffffffffffffffffffffffffffffffff167f85819f62de3f36778ef25274607ec7071cf41151e6e04a29971d86f30e8bbf91856040516107189190610bc4565b60405180910390a250505050565b5f602052805f5260405f205f91509050805f01549080600101805461074a90611158565b80601f016020809104026020016040519081016040528092919081815260200182805461077690611158565b80156107c15780601f10610798576101008083540402835291602001916107c1565b820191905f5260205f20905b8154815290600101906020018083116107a457829003601f168201915b505050505090806002015f9054906101000a900473ffffffffffffffffffffffffffffffffffffffff16908060030180546107fb90611158565b80601f016020809104026020016040519081016040528092919081815260200182805461082790611158565b80156108725780601f1061084957610100808354040283529160200191610872565b820191905f5260205f20905b81548152906001019060200180831161085557829003601f168201915b5050505050908060040154905085565b5f805f808481526020019081526020015f205f0154036108d7576040517f08c379a00000000000000000000000000000000000000000000000000000000081526004016108ce906114e2565b60405180910390fd5b5f808381526020019081526020015f206002015f9054906101000a900473ffffffffffffffffffffffffffffffffffffffff169050919050565b606060015f8373ffffffffffffffffffffffffffffffffffffffff1673ffffffffffffffffffffffffffffffffffffffff1681526020019081526020015f2080548060200260200160405190810160405280929190818152602001828054801561099857602002820191905f5260205f20905b815481526020019060010190808311610984575b50505050509050919050565b5f60015f8473ffffffffffffffffffffffffffffffffffffffff1673ffffffffffffffffffffffffffffffffffffffff1681526020019081526020015f2090505f5b8180549050811015610a955782828281548110610a0657610a05611500565b5b905f5260205f20015403610a88578160018380549050610a26919061155a565b81548110610a3757610a36611500565b5b905f5260205f200154828281548110610a5357610a52611500565b5b905f5260205f20018190555081805480610a7057610a6f61158d565b5b600190038181905f5260205f20015f90559055610a95565b80806001019150506109e6565b50505050565b5f604051905090565b5f80fd5b5f80fd5b5f819050919050565b610abe81610aac565b8114610ac8575f80fd5b50565b5f81359050610ad981610ab5565b92915050565b5f73ffffffffffffffffffffffffffffffffffffffff82169050919050565b5f610b0882610adf565b9050919050565b610b1881610afe565b8114610b22575f80fd5b50565b5f81359050610b3381610b0f565b92915050565b5f8060408385031215610b4f57610b4e610aa4565b5b5f610b5c85828601610acb565b9250506020610b6d85828601610b25565b9150509250929050565b5f8060408385031215610b8d57610b8c610aa4565b5b5f610b9a85828601610b25565b9250506020610bab85828601610acb565b9150509250929050565b610bbe81610aac565b82525050565b5f602082019050610bd75f830184610bb5565b92915050565b5f80fd5b5f80fd5b5f601f19601f8301169050919050565b7f4e487b71000000000000000000000000000000000000000000000000000000005f52604160045260245ffd5b610c2b82610be5565b810181811067ffffffffffffffff82111715610c4a57610c49610bf5565b5b80604052505050565b5f610c5c610a9b565b9050610c688282610c22565b919050565b5f67ffffffffffffffff821115610c8757610c86610bf5565b5b610c9082610be5565b9050602081019050919050565b828183375f83830152505050565b5f610cbd610cb884610c6d565b610c53565b905082815260208101848484011115610cd957610cd8610be1565b5b610ce4848285610c9d565b509392505050565b5f82601f830112610d0057610cff610bdd565b5b8135610d10848260208601610cab565b91505092915050565b5f805f60608486031215610d3057610d2f610aa4565b5b5f610d3d86828701610acb565b935050602084013567ffffffffffffffff811115610d5e57610d5d610aa8565b5b610d6a86828701610cec565b9250506040610d7b86828701610acb565b9150509250925092565b5f805f8060808587031215610d9d57610d9c610aa4565b5b5f610daa87828801610acb565b945050602085013567ffffffffffffffff811115610dcb57610dca610aa8565b5b610dd787828801610cec565b935050604085013567ffffffffffffffff811115610df857610df7610aa8565b5b610e0487828801610cec565b9250506060610e1587828801610acb565b91505092959194509250565b5f60208284031215610e3657610e35610aa4565b5b5f610e4384828501610acb565b91505092915050565b5f81519050919050565b5f82825260208201905092915050565b8281835e5f83830152505050565b5f610e7e82610e4c565b610e888185610e56565b9350610e98818560208601610e66565b610ea181610be5565b840191505092915050565b610eb581610afe565b82525050565b5f60a082019050610ece5f830188610bb5565b8181036020830152610ee08187610e74565b9050610eef6040830186610eac565b8181036060830152610f018185610e74565b9050610f106080830184610bb5565b9695505050505050565b5f602082019050610f2d5f830184610eac565b92915050565b5f60208284031215610f4857610f47610aa4565b5b5f610f5584828501610b25565b91505092915050565b5f81519050919050565b5f82825260208201905092915050565b5f819050602082019050919050565b610f9081610aac565b82525050565b5f610fa18383610f87565b60208301905092915050565b5f602082019050919050565b5f610fc382610f5e565b610fcd8185610f68565b9350610fd883610f78565b805f5b83811015611008578151610fef8882610f96565b9750610ffa83610fad565b925050600181019050610fdb565b5085935050505092915050565b5f6020820190508181035f83015261102d8184610fb9565b905092915050565b7f4e6f7420746865206f776e6572206f6620746869732061737365742e000000005f82015250565b5f611069601c83610e56565b915061107482611035565b602082019050919050565b5f6020820190508181035f8301526110968161105d565b9050919050565b7f4e6577206f776e657220616464726573732063616e6e6f74206265207a65726f5f8201527f2e00000000000000000000000000000000000000000000000000000000000000602082015250565b5f6110f7602183610e56565b91506111028261109d565b604082019050919050565b5f6020820190508181035f830152611124816110eb565b9050919050565b7f4e487b71000000000000000000000000000000000000000000000000000000005f52602260045260245ffd5b5f600282049050600182168061116f57607f821691505b6020821081036111825761118161112b565b5b50919050565b5f819050815f5260205f209050919050565b5f6020601f8301049050919050565b5f82821b905092915050565b5f600883026111e47fffffffffffffffffffffffffffffffffffffffffffffffffffffffffffffffff826111a9565b6111ee86836111a9565b95508019841693508086168417925050509392505050565b5f819050919050565b5f61122961122461121f84610aac565b611206565b610aac565b9050919050565b5f819050919050565b6112428361120f565b61125661124e82611230565b8484546111b5565b825550505050565b5f90565b61126a61125e565b611275818484611239565b505050565b5b818110156112985761128d5f82611262565b60018101905061127b565b5050565b601f8211156112dd576112ae81611188565b6112b78461119a565b810160208510156112c6578190505b6112da6112d28561119a565b83018261127a565b50505b505050565b5f82821c905092915050565b5f6112fd5f19846008026112e2565b1980831691505092915050565b5f61131583836112ee565b9150826002028217905092915050565b61132e82610e4c565b67ffffffffffffffff81111561134757611346610bf5565b5b6113518254611158565b61135c82828561129c565b5f60209050601f83116001811461138d575f841561137b578287015190505b611385858261130a565b8655506113ec565b601f19841661139b86611188565b5f5b828110156113c25784890151825560018201915060208501945060208101905061139d565b868310156113df57848901516113db601f8916826112ee565b8355505b6001600288020188555050505b505050505050565b5f6060820190506114075f830186610bb5565b81810360208301526114198185610e74565b90506114286040830184610bb5565b949350505050565b7f417373657420616c7265616479206578697374732e00000000000000000000005f82015250565b5f611464601583610e56565b915061146f82611430565b602082019050919050565b5f6020820190508181035f83015261149181611458565b9050919050565b7f417373657420646f6573206e6f742065786973742e00000000000000000000005f82015250565b5f6114cc601583610e56565b91506114d782611498565b602082019050919050565b5f6020820190508181035f8301526114f9816114c0565b9050919050565b7f4e487b71000000000000000000000000000000000000000000000000000000005f52603260045260245ffd5b7f4e487b71000000000000000000000000000000000000000000000000000000005f52601160045260245ffd5b5f61156482610aac565b915061156f83610aac565b92508282039050818111156115875761158661152d565b5b92915050565b7f4e487b71000000000000000000000000000000000000000000000000000000005f52603160045260245ffdfea2646970667358221220f87b83b3999b82e82408f28d791be6f191917754bce79032ab8246e5c547726464736f6c634300081a0033",
			"opcodes": "PUSH1 0x80 PUSH1 0x40 MSTORE CALLVALUE DUP1 ISZERO PUSH1 0xE JUMPI PUSH0 DUP1 REVERT JUMPDEST POP PUSH2 0x15F0 DUP1 PUSH2 0x1C PUSH0 CODECOPY PUSH0 RETURN INVALID PUSH1 0x80 PUSH1 0x40 MSTORE CALLVALUE DUP1 ISZERO PUSH2 0xF JUMPI PUSH0 DUP1 REVERT JUMPDEST POP PUSH1 0x4 CALLDATASIZE LT PUSH2 0x7B JUMPI PUSH0 CALLDATALOAD PUSH1 0xE0 SHR DUP1 PUSH4 0xBFD3C4E6 GT PUSH2 0x59 JUMPI DUP1 PUSH4 0xBFD3C4E6 EQ PUSH2 0xE7 JUMPI DUP1 PUSH4 0xCF35BDD0 EQ PUSH2 0x103 JUMPI DUP1 PUSH4 0xDE611EE5 EQ PUSH2 0x137 JUMPI DUP1 PUSH4 0xF3AB880E EQ PUSH2 0x167 JUMPI PUSH2 0x7B JUMP JUMPDEST DUP1 PUSH4 0x29507F73 EQ PUSH2 0x7F JUMPI DUP1 PUSH4 0x455BD951 EQ PUSH2 0x9B JUMPI DUP1 PUSH4 0x76389BDD EQ PUSH2 0xCB JUMPI JUMPDEST PUSH0 DUP1 REVERT JUMPDEST PUSH2 0x99 PUSH1 0x4 DUP1 CALLDATASIZE SUB DUP2 ADD SWAP1 PUSH2 0x94 SWAP2 SWAP1 PUSH2 0xB39 JUMP JUMPDEST PUSH2 0x197 JUMP JUMPDEST STOP JUMPDEST PUSH2 0xB5 PUSH1 0x4 DUP1 CALLDATASIZE SUB DUP2 ADD SWAP1 PUSH2 0xB0 SWAP2 SWAP1 PUSH2 0xB77 JUMP JUMPDEST PUSH2 0x403 JUMP JUMPDEST PUSH1 0x40 MLOAD PUSH2 0xC2 SWAP2 SWAP1 PUSH2 0xBC4 JUMP JUMPDEST PUSH1 0x40 MLOAD DUP1 SWAP2 SUB SWAP1 RETURN JUMPDEST PUSH2 0xE5 PUSH1 0x4 DUP1 CALLDATASIZE SUB DUP2 ADD SWAP1 PUSH2 0xE0 SWAP2 SWAP1 PUSH2 0xD19 JUMP JUMPDEST PUSH2 0x42E JUMP JUMPDEST STOP JUMPDEST PUSH2 0x101 PUSH1 0x4 DUP1 CALLDATASIZE SUB DUP2 ADD SWAP1 PUSH2 0xFC SWAP2 SWAP1 PUSH2 0xD85 JUMP JUMPDEST PUSH2 0x549 JUMP JUMPDEST STOP JUMPDEST PUSH2 0x11D PUSH1 0x4 DUP1 CALLDATASIZE SUB DUP2 ADD SWAP1 PUSH2 0x118 SWAP2 SWAP1 PUSH2 0xE21 JUMP JUMPDEST PUSH2 0x726 JUMP JUMPDEST PUSH1 0x40 MLOAD PUSH2 0x12E SWAP6 SWAP5 SWAP4 SWAP3 SWAP2 SWAP1 PUSH2 0xEBB JUMP JUMPDEST PUSH1 0x40 MLOAD DUP1 SWAP2 SUB SWAP1 RETURN JUMPDEST PUSH2 0x151 PUSH1 0x4 DUP1 CALLDATASIZE SUB DUP2 ADD SWAP1 PUSH2 0x14C SWAP2 SWAP1 PUSH2 0xE21 JUMP JUMPDEST PUSH2 0x882 JUMP JUMPDEST PUSH1 0x40 MLOAD PUSH2 0x15E SWAP2 SWAP1 PUSH2 0xF1A JUMP JUMPDEST PUSH1 0x40 MLOAD DUP1 SWAP2 SUB SWAP1 RETURN JUMPDEST PUSH2 0x181 PUSH1 0x4 DUP1 CALLDATASIZE SUB DUP2 ADD SWAP1 PUSH2 0x17C SWAP2 SWAP1 PUSH2 0xF33 JUMP JUMPDEST PUSH2 0x911 JUMP JUMPDEST PUSH1 0x40 MLOAD PUSH2 0x18E SWAP2 SWAP1 PUSH2 0x1015 JUMP JUMPDEST PUSH1 0x40 MLOAD DUP1 SWAP2 SUB SWAP1 RETURN JUMPDEST DUP2 CALLER PUSH20 0xFFFFFFFFFFFFFFFFFFFFFFFFFFFFFFFFFFFFFFFF AND PUSH0 DUP1 DUP4 DUP2 MSTORE PUSH1 0x20 ADD SWAP1 DUP2 MSTORE PUSH1 0x20 ADD PUSH0 KECCAK256 PUSH1 0x2 ADD PUSH0 SWAP1 SLOAD SWAP1 PUSH2 0x100 EXP SWAP1 DIV PUSH20 0xFFFFFFFFFFFFFFFFFFFFFFFFFFFFFFFFFFFFFFFF AND PUSH20 0xFFFFFFFFFFFFFFFFFFFFFFFFFFFFFFFFFFFFFFFF AND EQ PUSH2 0x238 JUMPI PUSH1 0x40 MLOAD PUSH32 0x8C379A000000000000000000000000000000000000000000000000000000000 DUP2 MSTORE PUSH1 0x4 ADD PUSH2 0x22F SWAP1 PUSH2 0x107F JUMP JUMPDEST PUSH1 0x40 MLOAD DUP1 SWAP2 SUB SWAP1 REVERT JUMPDEST PUSH0 PUSH20 0xFFFFFFFFFFFFFFFFFFFFFFFFFFFFFFFFFFFFFFFF AND DUP3 PUSH20 0xFFFFFFFFFFFFFFFFFFFFFFFFFFFFFFFFFFFFFFFF AND SUB PUSH2 0x2A6 JUMPI PUSH1 0x40 MLOAD PUSH32 0x8C379A000000000000000000000000000000000000000000000000000000000 DUP2 MSTORE PUSH1 0x4 ADD PUSH2 0x29D SWAP1 PUSH2 0x110D JUMP JUMPDEST PUSH1 0x40 MLOAD DUP1 SWAP2 SUB SWAP1 REVERT JUMPDEST PUSH0 DUP1 PUSH0 DUP6 DUP2 MSTORE PUSH1 0x20 ADD SWAP1 DUP2 MSTORE PUSH1 0x20 ADD PUSH0 KECCAK256 PUSH1 0x2 ADD PUSH0 SWAP1 SLOAD SWAP1 PUSH2 0x100 EXP SWAP1 DIV PUSH20 0xFFFFFFFFFFFFFFFFFFFFFFFFFFFFFFFFFFFFFFFF AND SWAP1 POP DUP3 PUSH0 DUP1 DUP7 DUP2 MSTORE PUSH1 0x20 ADD SWAP1 DUP2 MSTORE PUSH1 0x20 ADD PUSH0 KECCAK256 PUSH1 0x2 ADD PUSH0 PUSH2 0x100 EXP DUP2 SLOAD DUP2 PUSH20 0xFFFFFFFFFFFFFFFFFFFFFFFFFFFFFFFFFFFFFFFF MUL NOT AND SWAP1 DUP4 PUSH20 0xFFFFFFFFFFFFFFFFFFFFFFFFFFFFFFFFFFFFFFFF AND MUL OR SWAP1 SSTORE POP PUSH2 0x337 DUP2 DUP6 PUSH2 0x9A4 JUMP JUMPDEST PUSH1 0x1 PUSH0 DUP5 PUSH20 0xFFFFFFFFFFFFFFFFFFFFFFFFFFFFFFFFFFFFFFFF AND PUSH20 0xFFFFFFFFFFFFFFFFFFFFFFFFFFFFFFFFFFFFFFFF AND DUP2 MSTORE PUSH1 0x20 ADD SWAP1 DUP2 MSTORE PUSH1 0x20 ADD PUSH0 KECCAK256 DUP5 SWAP1 DUP1 PUSH1 0x1 DUP2 SLOAD ADD DUP1 DUP3 SSTORE DUP1 SWAP2 POP POP PUSH1 0x1 SWAP1 SUB SWAP1 PUSH0 MSTORE PUSH1 0x20 PUSH0 KECCAK256 ADD PUSH0 SWAP1 SWAP2 SWAP1 SWAP2 SWAP1 SWAP2 POP SSTORE DUP3 PUSH20 0xFFFFFFFFFFFFFFFFFFFFFFFFFFFFFFFFFFFFFFFF AND DUP2 PUSH20 0xFFFFFFFFFFFFFFFFFFFFFFFFFFFFFFFFFFFFFFFF AND PUSH32 0x16B85F49BF01212961345D3016C9A531894ACCF62EB7680F2045D79185CC0EC0 DUP7 PUSH1 0x40 MLOAD PUSH2 0x3F5 SWAP2 SWAP1 PUSH2 0xBC4 JUMP JUMPDEST PUSH1 0x40 MLOAD DUP1 SWAP2 SUB SWAP1 LOG3 POP POP POP POP JUMP JUMPDEST PUSH1 0x1 PUSH1 0x20 MSTORE DUP2 PUSH0 MSTORE PUSH1 0x40 PUSH0 KECCAK256 DUP2 DUP2 SLOAD DUP2 LT PUSH2 0x41C JUMPI PUSH0 DUP1 REVERT JUMPDEST SWAP1 PUSH0 MSTORE PUSH1 0x20 PUSH0 KECCAK256 ADD PUSH0 SWAP2 POP SWAP2 POP POP SLOAD DUP2 JUMP JUMPDEST DUP3 CALLER PUSH20 0xFFFFFFFFFFFFFFFFFFFFFFFFFFFFFFFFFFFFFFFF AND PUSH0 DUP1 DUP4 DUP2 MSTORE PUSH1 0x20 ADD SWAP1 DUP2 MSTORE PUSH1 0x20 ADD PUSH0 KECCAK256 PUSH1 0x2 ADD PUSH0 SWAP1 SLOAD SWAP1 PUSH2 0x100 EXP SWAP1 DIV PUSH20 0xFFFFFFFFFFFFFFFFFFFFFFFFFFFFFFFFFFFFFFFF AND PUSH20 0xFFFFFFFFFFFFFFFFFFFFFFFFFFFFFFFFFFFFFFFF AND EQ PUSH2 0x4CF JUMPI PUSH1 0x40 MLOAD PUSH32 0x8C379A000000000000000000000000000000000000000000000000000000000 DUP2 MSTORE PUSH1 0x4 ADD PUSH2 0x4C6 SWAP1 PUSH2 0x107F JUMP JUMPDEST PUSH1 0x40 MLOAD DUP1 SWAP2 SUB SWAP1 REVERT JUMPDEST DUP3 PUSH0 DUP1 DUP7 DUP2 MSTORE PUSH1 0x20 ADD SWAP1 DUP2 MSTORE PUSH1 0x20 ADD PUSH0 KECCAK256 PUSH1 0x1 ADD SWAP1 DUP2 PUSH2 0x4EF SWAP2 SWAP1 PUSH2 0x1325 JUMP JUMPDEST POP DUP2 PUSH0 DUP1 DUP7 DUP2 MSTORE PUSH1 0x20 ADD SWAP1 DUP2 MSTORE PUSH1 0x20 ADD PUSH0 KECCAK256 PUSH1 0x4 ADD DUP2 SWAP1 SSTORE POP PUSH32 0x8E9305A645831673915D6A37BAC66E0D689026FF19A9BCAFE63DFF9E4D18E7D2 DUP5 DUP5 DUP5 PUSH1 0x40 MLOAD PUSH2 0x53B SWAP4 SWAP3 SWAP2 SWAP1 PUSH2 0x13F4 JUMP JUMPDEST PUSH1 0x40 MLOAD DUP1 SWAP2 SUB SWAP1 LOG1 POP POP POP POP JUMP JUMPDEST PUSH0 DUP1 PUSH0 DUP7 DUP2 MSTORE PUSH1 0x20 ADD SWAP1 DUP2 MSTORE PUSH1 0x20 ADD PUSH0 KECCAK256 PUSH0 ADD SLOAD EQ PUSH2 0x59D JUMPI PUSH1 0x40 MLOAD PUSH32 0x8C379A000000000000000000000000000000000000000000000000000000000 DUP2 MSTORE PUSH1 0x4 ADD PUSH2 0x594 SWAP1 PUSH2 0x147A JUMP JUMPDEST PUSH1 0x40 MLOAD DUP1 SWAP2 SUB SWAP1 REVERT JUMPDEST PUSH1 0x40 MLOAD DUP1 PUSH1 0xA0 ADD PUSH1 0x40 MSTORE DUP1 DUP6 DUP2 MSTORE PUSH1 0x20 ADD DUP5 DUP2 MSTORE PUSH1 0x20 ADD CALLER PUSH20 0xFFFFFFFFFFFFFFFFFFFFFFFFFFFFFFFFFFFFFFFF AND DUP2 MSTORE PUSH1 0x20 ADD DUP4 DUP2 MSTORE PUSH1 0x20 ADD DUP3 DUP2 MSTORE POP PUSH0 DUP1 DUP7 DUP2 MSTORE PUSH1 0x20 ADD SWAP1 DUP2 MSTORE PUSH1 0x20 ADD PUSH0 KECCAK256 PUSH0 DUP3 ADD MLOAD DUP2 PUSH0 ADD SSTORE PUSH1 0x20 DUP3 ADD MLOAD DUP2 PUSH1 0x1 ADD SWAP1 DUP2 PUSH2 0x607 SWAP2 SWAP1 PUSH2 0x1325 JUMP JUMPDEST POP PUSH1 0x40 DUP3 ADD MLOAD DUP2 PUSH1 0x2 ADD PUSH0 PUSH2 0x100 EXP DUP2 SLOAD DUP2 PUSH20 0xFFFFFFFFFFFFFFFFFFFFFFFFFFFFFFFFFFFFFFFF MUL NOT AND SWAP1 DUP4 PUSH20 0xFFFFFFFFFFFFFFFFFFFFFFFFFFFFFFFFFFFFFFFF AND MUL OR SWAP1 SSTORE POP PUSH1 0x60 DUP3 ADD MLOAD DUP2 PUSH1 0x3 ADD SWAP1 DUP2 PUSH2 0x663 SWAP2 SWAP1 PUSH2 0x1325 JUMP JUMPDEST POP PUSH1 0x80 DUP3 ADD MLOAD DUP2 PUSH1 0x4 ADD SSTORE SWAP1 POP POP PUSH1 0x1 PUSH0 CALLER PUSH20 0xFFFFFFFFFFFFFFFFFFFFFFFFFFFFFFFFFFFFFFFF AND PUSH20 0xFFFFFFFFFFFFFFFFFFFFFFFFFFFFFFFFFFFFFFFF AND DUP2 MSTORE PUSH1 0x20 ADD SWAP1 DUP2 MSTORE PUSH1 0x20 ADD PUSH0 KECCAK256 DUP5 SWAP1 DUP1 PUSH1 0x1 DUP2 SLOAD ADD DUP1 DUP3 SSTORE DUP1 SWAP2 POP POP PUSH1 0x1 SWAP1 SUB SWAP1 PUSH0 MSTORE PUSH1 0x20 PUSH0 KECCAK256 ADD PUSH0 SWAP1 SWAP2 SWAP1 SWAP2 SWAP1 SWAP2 POP SSTORE CALLER PUSH20 0xFFFFFFFFFFFFFFFFFFFFFFFFFFFFFFFFFFFFFFFF AND PUSH32 0x85819F62DE3F36778EF25274607EC7071CF41151E6E04A29971D86F30E8BBF91 DUP6 PUSH1 0x40 MLOAD PUSH2 0x718 SWAP2 SWAP1 PUSH2 0xBC4 JUMP JUMPDEST PUSH1 0x40 MLOAD DUP1 SWAP2 SUB SWAP1 LOG2 POP POP POP POP JUMP JUMPDEST PUSH0 PUSH1 0x20 MSTORE DUP1 PUSH0 MSTORE PUSH1 0x40 PUSH0 KECCAK256 PUSH0 SWAP2 POP SWAP1 POP DUP1 PUSH0 ADD SLOAD SWAP1 DUP1 PUSH1 0x1 ADD DUP1 SLOAD PUSH2 0x74A SWAP1 PUSH2 0x1158 JUMP JUMPDEST DUP1 PUSH1 0x1F ADD PUSH1 0x20 DUP1 SWAP2 DIV MUL PUSH1 0x20 ADD PUSH1 0x40 MLOAD SWAP1 DUP2 ADD PUSH1 0x40 MSTORE DUP1 SWAP3 SWAP2 SWAP1 DUP2 DUP2 MSTORE PUSH1 0x20 ADD DUP3 DUP1 SLOAD PUSH2 0x776 SWAP1 PUSH2 0x1158 JUMP JUMPDEST DUP1 ISZERO PUSH2 0x7C1 JUMPI DUP1 PUSH1 0x1F LT PUSH2 0x798 JUMPI PUSH2 0x100 DUP1 DUP4 SLOAD DIV MUL DUP4 MSTORE SWAP2 PUSH1 0x20 ADD SWAP2 PUSH2 0x7C1 JUMP JUMPDEST DUP3 ADD SWAP2 SWAP1 PUSH0 MSTORE PUSH1 0x20 PUSH0 KECCAK256 SWAP1 JUMPDEST DUP2 SLOAD DUP2 MSTORE SWAP1 PUSH1 0x1 ADD SWAP1 PUSH1 0x20 ADD DUP1 DUP4 GT PUSH2 0x7A4 JUMPI DUP3 SWAP1 SUB PUSH1 0x1F AND DUP3 ADD SWAP2 JUMPDEST POP POP POP POP POP SWAP1 DUP1 PUSH1 0x2 ADD PUSH0 SWAP1 SLOAD SWAP1 PUSH2 0x100 EXP SWAP1 DIV PUSH20 0xFFFFFFFFFFFFFFFFFFFFFFFFFFFFFFFFFFFFFFFF AND SWAP1 DUP1 PUSH1 0x3 ADD DUP1 SLOAD PUSH2 0x7FB SWAP1 PUSH2 0x1158 JUMP JUMPDEST DUP1 PUSH1 0x1F ADD PUSH1 0x20 DUP1 SWAP2 DIV MUL PUSH1 0x20 ADD PUSH1 0x40 MLOAD SWAP1 DUP2 ADD PUSH1 0x40 MSTORE DUP1 SWAP3 SWAP2 SWAP1 DUP2 DUP2 MSTORE PUSH1 0x20 ADD DUP3 DUP1 SLOAD PUSH2 0x827 SWAP1 PUSH2 0x1158 JUMP JUMPDEST DUP1 ISZERO PUSH2 0x872 JUMPI DUP1 PUSH1 0x1F LT PUSH2 0x849 JUMPI PUSH2 0x100 DUP1 DUP4 SLOAD DIV MUL DUP4 MSTORE SWAP2 PUSH1 0x20 ADD SWAP2 PUSH2 0x872 JUMP JUMPDEST DUP3 ADD SWAP2 SWAP1 PUSH0 MSTORE PUSH1 0x20 PUSH0 KECCAK256 SWAP1 JUMPDEST DUP2 SLOAD DUP2 MSTORE SWAP1 PUSH1 0x1 ADD SWAP1 PUSH1 0x20 ADD DUP1 DUP4 GT PUSH2 0x855 JUMPI DUP3 SWAP1 SUB PUSH1 0x1F AND DUP3 ADD SWAP2 JUMPDEST POP POP POP POP POP SWAP1 DUP1 PUSH1 0x4 ADD SLOAD SWAP1 POP DUP6 JUMP JUMPDEST PUSH0 DUP1 PUSH0 DUP1 DUP5 DUP2 MSTORE PUSH1 0x20 ADD SWAP1 DUP2 MSTORE PUSH1 0x20 ADD PUSH0 KECCAK256 PUSH0 ADD SLOAD SUB PUSH2 0x8D7 JUMPI PUSH1 0x40 MLOAD PUSH32 0x8C379A000000000000000000000000000000000000000000000000000000000 DUP2 MSTORE PUSH1 0x4 ADD PUSH2 0x8CE SWAP1 PUSH2 0x14E2 JUMP JUMPDEST PUSH1 0x40 MLOAD DUP1 SWAP2 SUB SWAP1 REVERT JUMPDEST PUSH0 DUP1 DUP4 DUP2 MSTORE PUSH1 0x20 ADD SWAP1 DUP2 MSTORE PUSH1 0x20 ADD PUSH0 KECCAK256 PUSH1 0x2 ADD PUSH0 SWAP1 SLOAD SWAP1 PUSH2 0x100 EXP SWAP1 DIV PUSH20 0xFFFFFFFFFFFFFFFFFFFFFFFFFFFFFFFFFFFFFFFF AND SWAP1 POP SWAP2 SWAP1 POP JUMP JUMPDEST PUSH1 0x60 PUSH1 0x1 PUSH0 DUP4 PUSH20 0xFFFFFFFFFFFFFFFFFFFFFFFFFFFFFFFFFFFFFFFF AND PUSH20 0xFFFFFFFFFFFFFFFFFFFFFFFFFFFFFFFFFFFFFFFF AND DUP2 MSTORE PUSH1 0x20 ADD SWAP1 DUP2 MSTORE PUSH1 0x20 ADD PUSH0 KECCAK256 DUP1 SLOAD DUP1 PUSH1 0x20 MUL PUSH1 0x20 ADD PUSH1 0x40 MLOAD SWAP1 DUP2 ADD PUSH1 0x40 MSTORE DUP1 SWAP3 SWAP2 SWAP1 DUP2 DUP2 MSTORE PUSH1 0x20 ADD DUP3 DUP1 SLOAD DUP1 ISZERO PUSH2 0x998 JUMPI PUSH1 0x20 MUL DUP3 ADD SWAP2 SWAP1 PUSH0 MSTORE PUSH1 0x20 PUSH0 KECCAK256 SWAP1 JUMPDEST DUP2 SLOAD DUP2 MSTORE PUSH1 0x20 ADD SWAP1 PUSH1 0x1 ADD SWAP1 DUP1 DUP4 GT PUSH2 0x984 JUMPI JUMPDEST POP POP POP POP POP SWAP1 POP SWAP2 SWAP1 POP JUMP JUMPDEST PUSH0 PUSH1 0x1 PUSH0 DUP5 PUSH20 0xFFFFFFFFFFFFFFFFFFFFFFFFFFFFFFFFFFFFFFFF AND PUSH20 0xFFFFFFFFFFFFFFFFFFFFFFFFFFFFFFFFFFFFFFFF AND DUP2 MSTORE PUSH1 0x20 ADD SWAP1 DUP2 MSTORE PUSH1 0x20 ADD PUSH0 KECCAK256 SWAP1 POP PUSH0 JUMPDEST DUP2 DUP1 SLOAD SWAP1 POP DUP2 LT ISZERO PUSH2 0xA95 JUMPI DUP3 DUP3 DUP3 DUP2 SLOAD DUP2 LT PUSH2 0xA06 JUMPI PUSH2 0xA05 PUSH2 0x1500 JUMP JUMPDEST JUMPDEST SWAP1 PUSH0 MSTORE PUSH1 0x20 PUSH0 KECCAK256 ADD SLOAD SUB PUSH2 0xA88 JUMPI DUP2 PUSH1 0x1 DUP4 DUP1 SLOAD SWAP1 POP PUSH2 0xA26 SWAP2 SWAP1 PUSH2 0x155A JUMP JUMPDEST DUP2 SLOAD DUP2 LT PUSH2 0xA37 JUMPI PUSH2 0xA36 PUSH2 0x1500 JUMP JUMPDEST JUMPDEST SWAP1 PUSH0 MSTORE PUSH1 0x20 PUSH0 KECCAK256 ADD SLOAD DUP3 DUP3 DUP2 SLOAD DUP2 LT PUSH2 0xA53 JUMPI PUSH2 0xA52 PUSH2 0x1500 JUMP JUMPDEST JUMPDEST SWAP1 PUSH0 MSTORE PUSH1 0x20 PUSH0 KECCAK256 ADD DUP2 SWAP1 SSTORE POP DUP2 DUP1 SLOAD DUP1 PUSH2 0xA70 JUMPI PUSH2 0xA6F PUSH2 0x158D JUMP JUMPDEST JUMPDEST PUSH1 0x1 SWAP1 SUB DUP2 DUP2 SWAP1 PUSH0 MSTORE PUSH1 0x20 PUSH0 KECCAK256 ADD PUSH0 SWAP1 SSTORE SWAP1 SSTORE PUSH2 0xA95 JUMP JUMPDEST DUP1 DUP1 PUSH1 0x1 ADD SWAP2 POP POP PUSH2 0x9E6 JUMP JUMPDEST POP POP POP POP JUMP JUMPDEST PUSH0 PUSH1 0x40 MLOAD SWAP1 POP SWAP1 JUMP JUMPDEST PUSH0 DUP1 REVERT JUMPDEST PUSH0 DUP1 REVERT JUMPDEST PUSH0 DUP2 SWAP1 POP SWAP2 SWAP1 POP JUMP JUMPDEST PUSH2 0xABE DUP2 PUSH2 0xAAC JUMP JUMPDEST DUP2 EQ PUSH2 0xAC8 JUMPI PUSH0 DUP1 REVERT JUMPDEST POP JUMP JUMPDEST PUSH0 DUP2 CALLDATALOAD SWAP1 POP PUSH2 0xAD9 DUP2 PUSH2 0xAB5 JUMP JUMPDEST SWAP3 SWAP2 POP POP JUMP JUMPDEST PUSH0 PUSH20 0xFFFFFFFFFFFFFFFFFFFFFFFFFFFFFFFFFFFFFFFF DUP3 AND SWAP1 POP SWAP2 SWAP1 POP JUMP JUMPDEST PUSH0 PUSH2 0xB08 DUP3 PUSH2 0xADF JUMP JUMPDEST SWAP1 POP SWAP2 SWAP1 POP JUMP JUMPDEST PUSH2 0xB18 DUP2 PUSH2 0xAFE JUMP JUMPDEST DUP2 EQ PUSH2 0xB22 JUMPI PUSH0 DUP1 REVERT JUMPDEST POP JUMP JUMPDEST PUSH0 DUP2 CALLDATALOAD SWAP1 POP PUSH2 0xB33 DUP2 PUSH2 0xB0F JUMP JUMPDEST SWAP3 SWAP2 POP POP JUMP JUMPDEST PUSH0 DUP1 PUSH1 0x40 DUP4 DUP6 SUB SLT ISZERO PUSH2 0xB4F JUMPI PUSH2 0xB4E PUSH2 0xAA4 JUMP JUMPDEST JUMPDEST PUSH0 PUSH2 0xB5C DUP6 DUP3 DUP7 ADD PUSH2 0xACB JUMP JUMPDEST SWAP3 POP POP PUSH1 0x20 PUSH2 0xB6D DUP6 DUP3 DUP7 ADD PUSH2 0xB25 JUMP JUMPDEST SWAP2 POP POP SWAP3 POP SWAP3 SWAP1 POP JUMP JUMPDEST PUSH0 DUP1 PUSH1 0x40 DUP4 DUP6 SUB SLT ISZERO PUSH2 0xB8D JUMPI PUSH2 0xB8C PUSH2 0xAA4 JUMP JUMPDEST JUMPDEST PUSH0 PUSH2 0xB9A DUP6 DUP3 DUP7 ADD PUSH2 0xB25 JUMP JUMPDEST SWAP3 POP POP PUSH1 0x20 PUSH2 0xBAB DUP6 DUP3 DUP7 ADD PUSH2 0xACB JUMP JUMPDEST SWAP2 POP POP SWAP3 POP SWAP3 SWAP1 POP JUMP JUMPDEST PUSH2 0xBBE DUP2 PUSH2 0xAAC JUMP JUMPDEST DUP3 MSTORE POP POP JUMP JUMPDEST PUSH0 PUSH1 0x20 DUP3 ADD SWAP1 POP PUSH2 0xBD7 PUSH0 DUP4 ADD DUP5 PUSH2 0xBB5 JUMP JUMPDEST SWAP3 SWAP2 POP POP JUMP JUMPDEST PUSH0 DUP1 REVERT JUMPDEST PUSH0 DUP1 REVERT JUMPDEST PUSH0 PUSH1 0x1F NOT PUSH1 0x1F DUP4 ADD AND SWAP1 POP SWAP2 SWAP1 POP JUMP JUMPDEST PUSH32 0x4E487B7100000000000000000000000000000000000000000000000000000000 PUSH0 MSTORE PUSH1 0x41 PUSH1 0x4 MSTORE PUSH1 0x24 PUSH0 REVERT JUMPDEST PUSH2 0xC2B DUP3 PUSH2 0xBE5 JUMP JUMPDEST DUP2 ADD DUP2 DUP2 LT PUSH8 0xFFFFFFFFFFFFFFFF DUP3 GT OR ISZERO PUSH2 0xC4A JUMPI PUSH2 0xC49 PUSH2 0xBF5 JUMP JUMPDEST JUMPDEST DUP1 PUSH1 0x40 MSTORE POP POP POP JUMP JUMPDEST PUSH0 PUSH2 0xC5C PUSH2 0xA9B JUMP JUMPDEST SWAP1 POP PUSH2 0xC68 DUP3 DUP3 PUSH2 0xC22 JUMP JUMPDEST SWAP2 SWAP1 POP JUMP JUMPDEST PUSH0 PUSH8 0xFFFFFFFFFFFFFFFF DUP3 GT ISZERO PUSH2 0xC87 JUMPI PUSH2 0xC86 PUSH2 0xBF5 JUMP JUMPDEST JUMPDEST PUSH2 0xC90 DUP3 PUSH2 0xBE5 JUMP JUMPDEST SWAP1 POP PUSH1 0x20 DUP2 ADD SWAP1 POP SWAP2 SWAP1 POP JUMP JUMPDEST DUP3 DUP2 DUP4 CALLDATACOPY PUSH0 DUP4 DUP4 ADD MSTORE POP POP POP JUMP JUMPDEST PUSH0 PUSH2 0xCBD PUSH2 0xCB8 DUP5 PUSH2 0xC6D JUMP JUMPDEST PUSH2 0xC53 JUMP JUMPDEST SWAP1 POP DUP3 DUP2 MSTORE PUSH1 0x20 DUP2 ADD DUP5 DUP5 DUP5 ADD GT ISZERO PUSH2 0xCD9 JUMPI PUSH2 0xCD8 PUSH2 0xBE1 JUMP JUMPDEST JUMPDEST PUSH2 0xCE4 DUP5 DUP3 DUP6 PUSH2 0xC9D JUMP JUMPDEST POP SWAP4 SWAP3 POP POP POP JUMP JUMPDEST PUSH0 DUP3 PUSH1 0x1F DUP4 ADD SLT PUSH2 0xD00 JUMPI PUSH2 0xCFF PUSH2 0xBDD JUMP JUMPDEST JUMPDEST DUP2 CALLDATALOAD PUSH2 0xD10 DUP5 DUP3 PUSH1 0x20 DUP7 ADD PUSH2 0xCAB JUMP JUMPDEST SWAP2 POP POP SWAP3 SWAP2 POP POP JUMP JUMPDEST PUSH0 DUP1 PUSH0 PUSH1 0x60 DUP5 DUP7 SUB SLT ISZERO PUSH2 0xD30 JUMPI PUSH2 0xD2F PUSH2 0xAA4 JUMP JUMPDEST JUMPDEST PUSH0 PUSH2 0xD3D DUP7 DUP3 DUP8 ADD PUSH2 0xACB JUMP JUMPDEST SWAP4 POP POP PUSH1 0x20 DUP5 ADD CALLDATALOAD PUSH8 0xFFFFFFFFFFFFFFFF DUP2 GT ISZERO PUSH2 0xD5E JUMPI PUSH2 0xD5D PUSH2 0xAA8 JUMP JUMPDEST JUMPDEST PUSH2 0xD6A DUP7 DUP3 DUP8 ADD PUSH2 0xCEC JUMP JUMPDEST SWAP3 POP POP PUSH1 0x40 PUSH2 0xD7B DUP7 DUP3 DUP8 ADD PUSH2 0xACB JUMP JUMPDEST SWAP2 POP POP SWAP3 POP SWAP3 POP SWAP3 JUMP JUMPDEST PUSH0 DUP1 PUSH0 DUP1 PUSH1 0x80 DUP6 DUP8 SUB SLT ISZERO PUSH2 0xD9D JUMPI PUSH2 0xD9C PUSH2 0xAA4 JUMP JUMPDEST JUMPDEST PUSH0 PUSH2 0xDAA DUP8 DUP3 DUP9 ADD PUSH2 0xACB JUMP JUMPDEST SWAP5 POP POP PUSH1 0x20 DUP6 ADD CALLDATALOAD PUSH8 0xFFFFFFFFFFFFFFFF DUP2 GT ISZERO PUSH2 0xDCB JUMPI PUSH2 0xDCA PUSH2 0xAA8 JUMP JUMPDEST JUMPDEST PUSH2 0xDD7 DUP8 DUP3 DUP9 ADD PUSH2 0xCEC JUMP JUMPDEST SWAP4 POP POP PUSH1 0x40 DUP6 ADD CALLDATALOAD PUSH8 0xFFFFFFFFFFFFFFFF DUP2 GT ISZERO PUSH2 0xDF8 JUMPI PUSH2 0xDF7 PUSH2 0xAA8 JUMP JUMPDEST JUMPDEST PUSH2 0xE04 DUP8 DUP3 DUP9 ADD PUSH2 0xCEC JUMP JUMPDEST SWAP3 POP POP PUSH1 0x60 PUSH2 0xE15 DUP8 DUP3 DUP9 ADD PUSH2 0xACB JUMP JUMPDEST SWAP2 POP POP SWAP3 SWAP6 SWAP2 SWAP5 POP SWAP3 POP JUMP JUMPDEST PUSH0 PUSH1 0x20 DUP3 DUP5 SUB SLT ISZERO PUSH2 0xE36 JUMPI PUSH2 0xE35 PUSH2 0xAA4 JUMP JUMPDEST JUMPDEST PUSH0 PUSH2 0xE43 DUP5 DUP3 DUP6 ADD PUSH2 0xACB JUMP JUMPDEST SWAP2 POP POP SWAP3 SWAP2 POP POP JUMP JUMPDEST PUSH0 DUP2 MLOAD SWAP1 POP SWAP2 SWAP1 POP JUMP JUMPDEST PUSH0 DUP3 DUP3 MSTORE PUSH1 0x20 DUP3 ADD SWAP1 POP SWAP3 SWAP2 POP POP JUMP JUMPDEST DUP3 DUP2 DUP4 MCOPY PUSH0 DUP4 DUP4 ADD MSTORE POP POP POP JUMP JUMPDEST PUSH0 PUSH2 0xE7E DUP3 PUSH2 0xE4C JUMP JUMPDEST PUSH2 0xE88 DUP2 DUP6 PUSH2 0xE56 JUMP JUMPDEST SWAP4 POP PUSH2 0xE98 DUP2 DUP6 PUSH1 0x20 DUP7 ADD PUSH2 0xE66 JUMP JUMPDEST PUSH2 0xEA1 DUP2 PUSH2 0xBE5 JUMP JUMPDEST DUP5 ADD SWAP2 POP POP SWAP3 SWAP2 POP POP JUMP JUMPDEST PUSH2 0xEB5 DUP2 PUSH2 0xAFE JUMP JUMPDEST DUP3 MSTORE POP POP JUMP JUMPDEST PUSH0 PUSH1 0xA0 DUP3 ADD SWAP1 POP PUSH2 0xECE PUSH0 DUP4 ADD DUP9 PUSH2 0xBB5 JUMP JUMPDEST DUP2 DUP2 SUB PUSH1 0x20 DUP4 ADD MSTORE PUSH2 0xEE0 DUP2 DUP8 PUSH2 0xE74 JUMP JUMPDEST SWAP1 POP PUSH2 0xEEF PUSH1 0x40 DUP4 ADD DUP7 PUSH2 0xEAC JUMP JUMPDEST DUP2 DUP2 SUB PUSH1 0x60 DUP4 ADD MSTORE PUSH2 0xF01 DUP2 DUP6 PUSH2 0xE74 JUMP JUMPDEST SWAP1 POP PUSH2 0xF10 PUSH1 0x80 DUP4 ADD DUP5 PUSH2 0xBB5 JUMP JUMPDEST SWAP7 SWAP6 POP POP POP POP POP POP JUMP JUMPDEST PUSH0 PUSH1 0x20 DUP3 ADD SWAP1 POP PUSH2 0xF2D PUSH0 DUP4 ADD DUP5 PUSH2 0xEAC JUMP JUMPDEST SWAP3 SWAP2 POP POP JUMP JUMPDEST PUSH0 PUSH1 0x20 DUP3 DUP5 SUB SLT ISZERO PUSH2 0xF48 JUMPI PUSH2 0xF47 PUSH2 0xAA4 JUMP JUMPDEST JUMPDEST PUSH0 PUSH2 0xF55 DUP5 DUP3 DUP6 ADD PUSH2 0xB25 JUMP JUMPDEST SWAP2 POP POP SWAP3 SWAP2 POP POP JUMP JUMPDEST PUSH0 DUP2 MLOAD SWAP1 POP SWAP2 SWAP1 POP JUMP JUMPDEST PUSH0 DUP3 DUP3 MSTORE PUSH1 0x20 DUP3 ADD SWAP1 POP SWAP3 SWAP2 POP POP JUMP JUMPDEST PUSH0 DUP2 SWAP1 POP PUSH1 0x20 DUP3 ADD SWAP1 POP SWAP2 SWAP1 POP JUMP JUMPDEST PUSH2 0xF90 DUP2 PUSH2 0xAAC JUMP JUMPDEST DUP3 MSTORE POP POP JUMP JUMPDEST PUSH0 PUSH2 0xFA1 DUP4 DUP4 PUSH2 0xF87 JUMP JUMPDEST PUSH1 0x20 DUP4 ADD SWAP1 POP SWAP3 SWAP2 POP POP JUMP JUMPDEST PUSH0 PUSH1 0x20 DUP3 ADD SWAP1 POP SWAP2 SWAP1 POP JUMP JUMPDEST PUSH0 PUSH2 0xFC3 DUP3 PUSH2 0xF5E JUMP JUMPDEST PUSH2 0xFCD DUP2 DUP6 PUSH2 0xF68 JUMP JUMPDEST SWAP4 POP PUSH2 0xFD8 DUP4 PUSH2 0xF78 JUMP JUMPDEST DUP1 PUSH0 JUMPDEST DUP4 DUP2 LT ISZERO PUSH2 0x1008 JUMPI DUP2 MLOAD PUSH2 0xFEF DUP9 DUP3 PUSH2 0xF96 JUMP JUMPDEST SWAP8 POP PUSH2 0xFFA DUP4 PUSH2 0xFAD JUMP JUMPDEST SWAP3 POP POP PUSH1 0x1 DUP2 ADD SWAP1 POP PUSH2 0xFDB JUMP JUMPDEST POP DUP6 SWAP4 POP POP POP POP SWAP3 SWAP2 POP POP JUMP JUMPDEST PUSH0 PUSH1 0x20 DUP3 ADD SWAP1 POP DUP2 DUP2 SUB PUSH0 DUP4 ADD MSTORE PUSH2 0x102D DUP2 DUP5 PUSH2 0xFB9 JUMP JUMPDEST SWAP1 POP SWAP3 SWAP2 POP POP JUMP JUMPDEST PUSH32 0x4E6F7420746865206F776E6572206F6620746869732061737365742E00000000 PUSH0 DUP3 ADD MSTORE POP JUMP JUMPDEST PUSH0 PUSH2 0x1069 PUSH1 0x1C DUP4 PUSH2 0xE56 JUMP JUMPDEST SWAP2 POP PUSH2 0x1074 DUP3 PUSH2 0x1035 JUMP JUMPDEST PUSH1 0x20 DUP3 ADD SWAP1 POP SWAP2 SWAP1 POP JUMP JUMPDEST PUSH0 PUSH1 0x20 DUP3 ADD SWAP1 POP DUP2 DUP2 SUB PUSH0 DUP4 ADD MSTORE PUSH2 0x1096 DUP2 PUSH2 0x105D JUMP JUMPDEST SWAP1 POP SWAP2 SWAP1 POP JUMP JUMPDEST PUSH32 0x4E6577206F776E657220616464726573732063616E6E6F74206265207A65726F PUSH0 DUP3 ADD MSTORE PUSH32 0x2E00000000000000000000000000000000000000000000000000000000000000 PUSH1 0x20 DUP3 ADD MSTORE POP JUMP JUMPDEST PUSH0 PUSH2 0x10F7 PUSH1 0x21 DUP4 PUSH2 0xE56 JUMP JUMPDEST SWAP2 POP PUSH2 0x1102 DUP3 PUSH2 0x109D JUMP JUMPDEST PUSH1 0x40 DUP3 ADD SWAP1 POP SWAP2 SWAP1 POP JUMP JUMPDEST PUSH0 PUSH1 0x20 DUP3 ADD SWAP1 POP DUP2 DUP2 SUB PUSH0 DUP4 ADD MSTORE PUSH2 0x1124 DUP2 PUSH2 0x10EB JUMP JUMPDEST SWAP1 POP SWAP2 SWAP1 POP JUMP JUMPDEST PUSH32 0x4E487B7100000000000000000000000000000000000000000000000000000000 PUSH0 MSTORE PUSH1 0x22 PUSH1 0x4 MSTORE PUSH1 0x24 PUSH0 REVERT JUMPDEST PUSH0 PUSH1 0x2 DUP3 DIV SWAP1 POP PUSH1 0x1 DUP3 AND DUP1 PUSH2 0x116F JUMPI PUSH1 0x7F DUP3 AND SWAP2 POP JUMPDEST PUSH1 0x20 DUP3 LT DUP2 SUB PUSH2 0x1182 JUMPI PUSH2 0x1181 PUSH2 0x112B JUMP JUMPDEST JUMPDEST POP SWAP2 SWAP1 POP JUMP JUMPDEST PUSH0 DUP2 SWAP1 POP DUP2 PUSH0 MSTORE PUSH1 0x20 PUSH0 KECCAK256 SWAP1 POP SWAP2 SWAP1 POP JUMP JUMPDEST PUSH0 PUSH1 0x20 PUSH1 0x1F DUP4 ADD DIV SWAP1 POP SWAP2 SWAP1 POP JUMP JUMPDEST PUSH0 DUP3 DUP3 SHL SWAP1 POP SWAP3 SWAP2 POP POP JUMP JUMPDEST PUSH0 PUSH1 0x8 DUP4 MUL PUSH2 0x11E4 PUSH32 0xFFFFFFFFFFFFFFFFFFFFFFFFFFFFFFFFFFFFFFFFFFFFFFFFFFFFFFFFFFFFFFFF DUP3 PUSH2 0x11A9 JUMP JUMPDEST PUSH2 0x11EE DUP7 DUP4 PUSH2 0x11A9 JUMP JUMPDEST SWAP6 POP DUP1 NOT DUP5 AND SWAP4 POP DUP1 DUP7 AND DUP5 OR SWAP3 POP POP POP SWAP4 SWAP3 POP POP POP JUMP JUMPDEST PUSH0 DUP2 SWAP1 POP SWAP2 SWAP1 POP JUMP JUMPDEST PUSH0 PUSH2 0x1229 PUSH2 0x1224 PUSH2 0x121F DUP5 PUSH2 0xAAC JUMP JUMPDEST PUSH2 0x1206 JUMP JUMPDEST PUSH2 0xAAC JUMP JUMPDEST SWAP1 POP SWAP2 SWAP1 POP JUMP JUMPDEST PUSH0 DUP2 SWAP1 POP SWAP2 SWAP1 POP JUMP JUMPDEST PUSH2 0x1242 DUP4 PUSH2 0x120F JUMP JUMPDEST PUSH2 0x1256 PUSH2 0x124E DUP3 PUSH2 0x1230 JUMP JUMPDEST DUP5 DUP5 SLOAD PUSH2 0x11B5 JUMP JUMPDEST DUP3 SSTORE POP POP POP POP JUMP JUMPDEST PUSH0 SWAP1 JUMP JUMPDEST PUSH2 0x126A PUSH2 0x125E JUMP JUMPDEST PUSH2 0x1275 DUP2 DUP5 DUP5 PUSH2 0x1239 JUMP JUMPDEST POP POP POP JUMP JUMPDEST JUMPDEST DUP2 DUP2 LT ISZERO PUSH2 0x1298 JUMPI PUSH2 0x128D PUSH0 DUP3 PUSH2 0x1262 JUMP JUMPDEST PUSH1 0x1 DUP2 ADD SWAP1 POP PUSH2 0x127B JUMP JUMPDEST POP POP JUMP JUMPDEST PUSH1 0x1F DUP3 GT ISZERO PUSH2 0x12DD JUMPI PUSH2 0x12AE DUP2 PUSH2 0x1188 JUMP JUMPDEST PUSH2 0x12B7 DUP5 PUSH2 0x119A JUMP JUMPDEST DUP2 ADD PUSH1 0x20 DUP6 LT ISZERO PUSH2 0x12C6 JUMPI DUP2 SWAP1 POP JUMPDEST PUSH2 0x12DA PUSH2 0x12D2 DUP6 PUSH2 0x119A JUMP JUMPDEST DUP4 ADD DUP3 PUSH2 0x127A JUMP JUMPDEST POP POP JUMPDEST POP POP POP JUMP JUMPDEST PUSH0 DUP3 DUP3 SHR SWAP1 POP SWAP3 SWAP2 POP POP JUMP JUMPDEST PUSH0 PUSH2 0x12FD PUSH0 NOT DUP5 PUSH1 0x8 MUL PUSH2 0x12E2 JUMP JUMPDEST NOT DUP1 DUP4 AND SWAP2 POP POP SWAP3 SWAP2 POP POP JUMP JUMPDEST PUSH0 PUSH2 0x1315 DUP4 DUP4 PUSH2 0x12EE JUMP JUMPDEST SWAP2 POP DUP3 PUSH1 0x2 MUL DUP3 OR SWAP1 POP SWAP3 SWAP2 POP POP JUMP JUMPDEST PUSH2 0x132E DUP3 PUSH2 0xE4C JUMP JUMPDEST PUSH8 0xFFFFFFFFFFFFFFFF DUP2 GT ISZERO PUSH2 0x1347 JUMPI PUSH2 0x1346 PUSH2 0xBF5 JUMP JUMPDEST JUMPDEST PUSH2 0x1351 DUP3 SLOAD PUSH2 0x1158 JUMP JUMPDEST PUSH2 0x135C DUP3 DUP3 DUP6 PUSH2 0x129C JUMP JUMPDEST PUSH0 PUSH1 0x20 SWAP1 POP PUSH1 0x1F DUP4 GT PUSH1 0x1 DUP2 EQ PUSH2 0x138D JUMPI PUSH0 DUP5 ISZERO PUSH2 0x137B JUMPI DUP3 DUP8 ADD MLOAD SWAP1 POP JUMPDEST PUSH2 0x1385 DUP6 DUP3 PUSH2 0x130A JUMP JUMPDEST DUP7 SSTORE POP PUSH2 0x13EC JUMP JUMPDEST PUSH1 0x1F NOT DUP5 AND PUSH2 0x139B DUP7 PUSH2 0x1188 JUMP JUMPDEST PUSH0 JUMPDEST DUP3 DUP2 LT ISZERO PUSH2 0x13C2 JUMPI DUP5 DUP10 ADD MLOAD DUP3 SSTORE PUSH1 0x1 DUP3 ADD SWAP2 POP PUSH1 0x20 DUP6 ADD SWAP5 POP PUSH1 0x20 DUP2 ADD SWAP1 POP PUSH2 0x139D JUMP JUMPDEST DUP7 DUP4 LT ISZERO PUSH2 0x13DF JUMPI DUP5 DUP10 ADD MLOAD PUSH2 0x13DB PUSH1 0x1F DUP10 AND DUP3 PUSH2 0x12EE JUMP JUMPDEST DUP4 SSTORE POP JUMPDEST PUSH1 0x1 PUSH1 0x2 DUP9 MUL ADD DUP9 SSTORE POP POP POP JUMPDEST POP POP POP POP POP POP JUMP JUMPDEST PUSH0 PUSH1 0x60 DUP3 ADD SWAP1 POP PUSH2 0x1407 PUSH0 DUP4 ADD DUP7 PUSH2 0xBB5 JUMP JUMPDEST DUP2 DUP2 SUB PUSH1 0x20 DUP4 ADD MSTORE PUSH2 0x1419 DUP2 DUP6 PUSH2 0xE74 JUMP JUMPDEST SWAP1 POP PUSH2 0x1428 PUSH1 0x40 DUP4 ADD DUP5 PUSH2 0xBB5 JUMP JUMPDEST SWAP5 SWAP4 POP POP POP POP JUMP JUMPDEST PUSH32 0x417373657420616C7265616479206578697374732E0000000000000000000000 PUSH0 DUP3 ADD MSTORE POP JUMP JUMPDEST PUSH0 PUSH2 0x1464 PUSH1 0x15 DUP4 PUSH2 0xE56 JUMP JUMPDEST SWAP2 POP PUSH2 0x146F DUP3 PUSH2 0x1430 JUMP JUMPDEST PUSH1 0x20 DUP3 ADD SWAP1 POP SWAP2 SWAP1 POP JUMP JUMPDEST PUSH0 PUSH1 0x20 DUP3 ADD SWAP1 POP DUP2 DUP2 SUB PUSH0 DUP4 ADD MSTORE PUSH2 0x1491 DUP2 PUSH2 0x1458 JUMP JUMPDEST SWAP1 POP SWAP2 SWAP1 POP JUMP JUMPDEST PUSH32 0x417373657420646F6573206E6F742065786973742E0000000000000000000000 PUSH0 DUP3 ADD MSTORE POP JUMP JUMPDEST PUSH0 PUSH2 0x14CC PUSH1 0x15 DUP4 PUSH2 0xE56 JUMP JUMPDEST SWAP2 POP PUSH2 0x14D7 DUP3 PUSH2 0x1498 JUMP JUMPDEST PUSH1 0x20 DUP3 ADD SWAP1 POP SWAP2 SWAP1 POP JUMP JUMPDEST PUSH0 PUSH1 0x20 DUP3 ADD SWAP1 POP DUP2 DUP2 SUB PUSH0 DUP4 ADD MSTORE PUSH2 0x14F9 DUP2 PUSH2 0x14C0 JUMP JUMPDEST SWAP1 POP SWAP2 SWAP1 POP JUMP JUMPDEST PUSH32 0x4E487B7100000000000000000000000000000000000000000000000000000000 PUSH0 MSTORE PUSH1 0x32 PUSH1 0x4 MSTORE PUSH1 0x24 PUSH0 REVERT JUMPDEST PUSH32 0x4E487B7100000000000000000000000000000000000000000000000000000000 PUSH0 MSTORE PUSH1 0x11 PUSH1 0x4 MSTORE PUSH1 0x24 PUSH0 REVERT JUMPDEST PUSH0 PUSH2 0x1564 DUP3 PUSH2 0xAAC JUMP JUMPDEST SWAP2 POP PUSH2 0x156F DUP4 PUSH2 0xAAC JUMP JUMPDEST SWAP3 POP DUP3 DUP3 SUB SWAP1 POP DUP2 DUP2 GT ISZERO PUSH2 0x1587 JUMPI PUSH2 0x1586 PUSH2 0x152D JUMP JUMPDEST JUMPDEST SWAP3 SWAP2 POP POP JUMP JUMPDEST PUSH32 0x4E487B7100000000000000000000000000000000000000000000000000000000 PUSH0 MSTORE PUSH1 0x31 PUSH1 0x4 MSTORE PUSH1 0x24 PUSH0 REVERT INVALID LOG2 PUSH5 0x6970667358 0x22 SLT KECCAK256 0xF8 PUSH28 0x83B3999B82E82408F28D791BE6F191917754BCE79032AB8246E5C547 PUSH19 0x6464736F6C634300081A003300000000000000 "
		},
		"gasEstimates": {
			"creation": {
				"codeDepositCost": "1123200",
				"executionCost": "1165",
				"totalCost": "1124365"
			},
			"external": {
				"assets(uint256)": "infinite",
				"getAssetsOfOwner(address)": "infinite",
				"ownerAssets(address,uint256)": "infinite",
				"registerAsset(uint256,string,string,uint256)": "infinite",
				"transferOwnership(uint256,address)": "infinite",
				"updateAssetDetails(uint256,string,uint256)": "infinite",
				"verifyOwnership(uint256)": "5106"
			},
			"internal": {
				"_removeAssetFromOwner(address,uint256)": "infinite"
			}
		},
		"methodIdentifiers": {
			"assets(uint256)": "cf35bdd0",
			"getAssetsOfOwner(address)": "f3ab880e",
			"ownerAssets(address,uint256)": "455bd951",
			"registerAsset(uint256,string,string,uint256)": "bfd3c4e6",
			"transferOwnership(uint256,address)": "29507f73",
			"updateAssetDetails(uint256,string,uint256)": "76389bdd",
			"verifyOwnership(uint256)": "de611ee5"
		}
	},
	"abi": [
		{
			"anonymous": false,
			"inputs": [
				{
					"indexed": false,
					"internalType": "uint256",
					"name": "assetID",
					"type": "uint256"
				},
				{
					"indexed": false,
					"internalType": "string",
					"name": "description",
					"type": "string"
				},
				{
					"indexed": false,
					"internalType": "uint256",
					"name": "value",
					"type": "uint256"
				}
			],
			"name": "AssetDetailsUpdated",
			"type": "event"
		},
		{
			"anonymous": false,
			"inputs": [
				{
					"indexed": false,
					"internalType": "uint256",
					"name": "assetID",
					"type": "uint256"
				},
				{
					"indexed": true,
					"internalType": "address",
					"name": "owner",
					"type": "address"
				}
			],
			"name": "AssetRegistered",
			"type": "event"
		},
		{
			"anonymous": false,
			"inputs": [
				{
					"indexed": false,
					"internalType": "uint256",
					"name": "assetID",
					"type": "uint256"
				},
				{
					"indexed": true,
					"internalType": "address",
					"name": "from",
					"type": "address"
				},
				{
					"indexed": true,
					"internalType": "address",
					"name": "to",
					"type": "address"
				}
			],
			"name": "OwnershipTransferred",
			"type": "event"
		},
		{
			"inputs": [
				{
					"internalType": "uint256",
					"name": "",
					"type": "uint256"
				}
			],
			"name": "assets",
			"outputs": [
				{
					"internalType": "uint256",
					"name": "assetID",
					"type": "uint256"
				},
				{
					"internalType": "string",
					"name": "description",
					"type": "string"
				},
				{
					"internalType": "address",
					"name": "currentOwner",
					"type": "address"
				},
				{
					"internalType": "string",
					"name": "location",
					"type": "string"
				},
				{
					"internalType": "uint256",
					"name": "value",
					"type": "uint256"
				}
			],
			"stateMutability": "view",
			"type": "function"
		},
		{
			"inputs": [
				{
					"internalType": "address",
					"name": "owner",
					"type": "address"
				}
			],
			"name": "getAssetsOfOwner",
			"outputs": [
				{
					"internalType": "uint256[]",
					"name": "",
					"type": "uint256[]"
				}
			],
			"stateMutability": "view",
			"type": "function"
		},
		{
			"inputs": [
				{
					"internalType": "address",
					"name": "",
					"type": "address"
				},
				{
					"internalType": "uint256",
					"name": "",
					"type": "uint256"
				}
			],
			"name": "ownerAssets",
			"outputs": [
				{
					"internalType": "uint256",
					"name": "",
					"type": "uint256"
				}
			],
			"stateMutability": "view",
			"type": "function"
		},
		{
			"inputs": [
				{
					"internalType": "uint256",
					"name": "assetID",
					"type": "uint256"
				},
				{
					"internalType": "string",
					"name": "description",
					"type": "string"
				},
				{
					"internalType": "string",
					"name": "location",
					"type": "string"
				},
				{
					"internalType": "uint256",
					"name": "value",
					"type": "uint256"
				}
			],
			"name": "registerAsset",
			"outputs": [],
			"stateMutability": "nonpayable",
			"type": "function"
		},
		{
			"inputs": [
				{
					"internalType": "uint256",
					"name": "assetID",
					"type": "uint256"
				},
				{
					"internalType": "address",
					"name": "newOwner",
					"type": "address"
				}
			],
			"name": "transferOwnership",
			"outputs": [],
			"stateMutability": "nonpayable",
			"type": "function"
		},
		{
			"inputs": [
				{
					"internalType": "uint256",
					"name": "assetID",
					"type": "uint256"
				},
				{
					"internalType": "string",
					"name": "newDescription",
					"type": "string"
				},
				{
					"internalType": "uint256",
					"name": "newValue",
					"type": "uint256"
				}
			],
			"name": "updateAssetDetails",
			"outputs": [],
			"stateMutability": "nonpayable",
			"type": "function"
		},
		{
			"inputs": [
				{
					"internalType": "uint256",
					"name": "assetID",
					"type": "uint256"
				}
			],
			"name": "verifyOwnership",
			"outputs": [
				{
					"internalType": "address",
					"name": "",
					"type": "address"
				}
			],
			"stateMutability": "view",
			"type": "function"
		}
	]
}