{
	"data": {
		"bytecode": {
			"linkReferences": {},
			"object": "6080604052348015600e575f80fd5b505f808190555061045b806100225f395ff3fe608060405234801561000f575f80fd5b5060043610610055575f3560e01c80631003e2d2146100595780631dc05f17146100755780632ddbd13a146100915780633e823f79146100af578063c6888fa1146100cb575b5f80fd5b610073600480360381019061006e9190610229565b6100e7565b005b61008f600480360381019061008a9190610229565b610103565b005b61009961011f565b6040516100a69190610263565b60405180910390f35b6100c960048036038101906100c49190610229565b610124565b005b6100e560048036038101906100e09190610229565b610182565b005b6100fb815f5461019e90919063ffffffff16565b5f8190555050565b610117815f546101b390919063ffffffff16565b5f8190555050565b5f5481565b5f8111610166576040517f08c379a000000000000000000000000000000000000000000000000000000000815260040161015d906102d6565b60405180910390fd5b61017a815f546101c890919063ffffffff16565b5f8190555050565b610196815f546101dd90919063ffffffff16565b5f8190555050565b5f81836101ab9190610321565b905092915050565b5f81836101c09190610354565b905092915050565b5f81836101d591906103b4565b905092915050565b5f81836101ea91906103e4565b905092915050565b5f80fd5b5f819050919050565b610208816101f6565b8114610212575f80fd5b50565b5f81359050610223816101ff565b92915050565b5f6020828403121561023e5761023d6101f2565b5b5f61024b84828501610215565b91505092915050565b61025d816101f6565b82525050565b5f6020820190506102765f830184610254565b92915050565b5f82825260208201905092915050565b7f43616e6e6f7420646976696465206279207a65726f00000000000000000000005f82015250565b5f6102c060158361027c565b91506102cb8261028c565b602082019050919050565b5f6020820190508181035f8301526102ed816102b4565b9050919050565b7f4e487b71000000000000000000000000000000000000000000000000000000005f52601160045260245ffd5b5f61032b826101f6565b9150610336836101f6565b925082820190508082111561034e5761034d6102f4565b5b92915050565b5f61035e826101f6565b9150610369836101f6565b9250828203905081811115610381576103806102f4565b5b92915050565b7f4e487b71000000000000000000000000000000000000000000000000000000005f52601260045260245ffd5b5f6103be826101f6565b91506103c9836101f6565b9250826103d9576103d8610387565b5b828204905092915050565b5f6103ee826101f6565b91506103f9836101f6565b9250828202610407816101f6565b9150828204841483151761041e5761041d6102f4565b5b509291505056fea2646970667358221220ae273c06d5b493e7386b1c357f971535289391e3b98e8ddcc3cc89f9edbf1cba64736f6c634300081a0033",
			"opcodes": "PUSH1 0x80 PUSH1 0x40 MSTORE CALLVALUE DUP1 ISZERO PUSH1 0xE JUMPI PUSH0 DUP1 REVERT JUMPDEST POP PUSH0 DUP1 DUP2 SWAP1 SSTORE POP PUSH2 0x45B DUP1 PUSH2 0x22 PUSH0 CODECOPY PUSH0 RETURN INVALID PUSH1 0x80 PUSH1 0x40 MSTORE CALLVALUE DUP1 ISZERO PUSH2 0xF JUMPI PUSH0 DUP1 REVERT JUMPDEST POP PUSH1 0x4 CALLDATASIZE LT PUSH2 0x55 JUMPI PUSH0 CALLDATALOAD PUSH1 0xE0 SHR DUP1 PUSH4 0x1003E2D2 EQ PUSH2 0x59 JUMPI DUP1 PUSH4 0x1DC05F17 EQ PUSH2 0x75 JUMPI DUP1 PUSH4 0x2DDBD13A EQ PUSH2 0x91 JUMPI DUP1 PUSH4 0x3E823F79 EQ PUSH2 0xAF JUMPI DUP1 PUSH4 0xC6888FA1 EQ PUSH2 0xCB JUMPI JUMPDEST PUSH0 DUP1 REVERT JUMPDEST PUSH2 0x73 PUSH1 0x4 DUP1 CALLDATASIZE SUB DUP2 ADD SWAP1 PUSH2 0x6E SWAP2 SWAP1 PUSH2 0x229 JUMP JUMPDEST PUSH2 0xE7 JUMP JUMPDEST STOP JUMPDEST PUSH2 0x8F PUSH1 0x4 DUP1 CALLDATASIZE SUB DUP2 ADD SWAP1 PUSH2 0x8A SWAP2 SWAP1 PUSH2 0x229 JUMP JUMPDEST PUSH2 0x103 JUMP JUMPDEST STOP JUMPDEST PUSH2 0x99 PUSH2 0x11F JUMP JUMPDEST PUSH1 0x40 MLOAD PUSH2 0xA6 SWAP2 SWAP1 PUSH2 0x263 JUMP JUMPDEST PUSH1 0x40 MLOAD DUP1 SWAP2 SUB SWAP1 RETURN JUMPDEST PUSH2 0xC9 PUSH1 0x4 DUP1 CALLDATASIZE SUB DUP2 ADD SWAP1 PUSH2 0xC4 SWAP2 SWAP1 PUSH2 0x229 JUMP JUMPDEST PUSH2 0x124 JUMP JUMPDEST STOP JUMPDEST PUSH2 0xE5 PUSH1 0x4 DUP1 CALLDATASIZE SUB DUP2 ADD SWAP1 PUSH2 0xE0 SWAP2 SWAP1 PUSH2 0x229 JUMP JUMPDEST PUSH2 0x182 JUMP JUMPDEST STOP JUMPDEST PUSH2 0xFB DUP2 PUSH0 SLOAD PUSH2 0x19E SWAP1 SWAP2 SWAP1 PUSH4 0xFFFFFFFF AND JUMP JUMPDEST PUSH0 DUP2 SWAP1 SSTORE POP POP JUMP JUMPDEST PUSH2 0x117 DUP2 PUSH0 SLOAD PUSH2 0x1B3 SWAP1 SWAP2 SWAP1 PUSH4 0xFFFFFFFF AND JUMP JUMPDEST PUSH0 DUP2 SWAP1 SSTORE POP POP JUMP JUMPDEST PUSH0 SLOAD DUP2 JUMP JUMPDEST PUSH0 DUP2 GT PUSH2 0x166 JUMPI PUSH1 0x40 MLOAD PUSH32 0x8C379A000000000000000000000000000000000000000000000000000000000 DUP2 MSTORE PUSH1 0x4 ADD PUSH2 0x15D SWAP1 PUSH2 0x2D6 JUMP JUMPDEST PUSH1 0x40 MLOAD DUP1 SWAP2 SUB SWAP1 REVERT JUMPDEST PUSH2 0x17A DUP2 PUSH0 SLOAD PUSH2 0x1C8 SWAP1 SWAP2 SWAP1 PUSH4 0xFFFFFFFF AND JUMP JUMPDEST PUSH0 DUP2 SWAP1 SSTORE POP POP JUMP JUMPDEST PUSH2 0x196 DUP2 PUSH0 SLOAD PUSH2 0x1DD SWAP1 SWAP2 SWAP1 PUSH4 0xFFFFFFFF AND JUMP JUMPDEST PUSH0 DUP2 SWAP1 SSTORE POP POP JUMP JUMPDEST PUSH0 DUP2 DUP4 PUSH2 0x1AB SWAP2 SWAP1 PUSH2 0x321 JUMP JUMPDEST SWAP1 POP SWAP3 SWAP2 POP POP JUMP JUMPDEST PUSH0 DUP2 DUP4 PUSH2 0x1C0 SWAP2 SWAP1 PUSH2 0x354 JUMP JUMPDEST SWAP1 POP SWAP3 SWAP2 POP POP JUMP JUMPDEST PUSH0 DUP2 DUP4 PUSH2 0x1D5 SWAP2 SWAP1 PUSH2 0x3B4 JUMP JUMPDEST SWAP1 POP SWAP3 SWAP2 POP POP JUMP JUMPDEST PUSH0 DUP2 DUP4 PUSH2 0x1EA SWAP2 SWAP1 PUSH2 0x3E4 JUMP JUMPDEST SWAP1 POP SWAP3 SWAP2 POP POP JUMP JUMPDEST PUSH0 DUP1 REVERT JUMPDEST PUSH0 DUP2 SWAP1 POP SWAP2 SWAP1 POP JUMP JUMPDEST PUSH2 0x208 DUP2 PUSH2 0x1F6 JUMP JUMPDEST DUP2 EQ PUSH2 0x212 JUMPI PUSH0 DUP1 REVERT JUMPDEST POP JUMP JUMPDEST PUSH0 DUP2 CALLDATALOAD SWAP1 POP PUSH2 0x223 DUP2 PUSH2 0x1FF JUMP JUMPDEST SWAP3 SWAP2 POP POP JUMP JUMPDEST PUSH0 PUSH1 0x20 DUP3 DUP5 SUB SLT ISZERO PUSH2 0x23E JUMPI PUSH2 0x23D PUSH2 0x1F2 JUMP JUMPDEST JUMPDEST PUSH0 PUSH2 0x24B DUP5 DUP3 DUP6 ADD PUSH2 0x215 JUMP JUMPDEST SWAP2 POP POP SWAP3 SWAP2 POP POP JUMP JUMPDEST PUSH2 0x25D DUP2 PUSH2 0x1F6 JUMP JUMPDEST DUP3 MSTORE POP POP JUMP JUMPDEST PUSH0 PUSH1 0x20 DUP3 ADD SWAP1 POP PUSH2 0x276 PUSH0 DUP4 ADD DUP5 PUSH2 0x254 JUMP JUMPDEST SWAP3 SWAP2 POP POP JUMP JUMPDEST PUSH0 DUP3 DUP3 MSTORE PUSH1 0x20 DUP3 ADD SWAP1 POP SWAP3 SWAP2 POP POP JUMP JUMPDEST PUSH32 0x43616E6E6F7420646976696465206279207A65726F0000000000000000000000 PUSH0 DUP3 ADD MSTORE POP JUMP JUMPDEST PUSH0 PUSH2 0x2C0 PUSH1 0x15 DUP4 PUSH2 0x27C JUMP JUMPDEST SWAP2 POP PUSH2 0x2CB DUP3 PUSH2 0x28C JUMP JUMPDEST PUSH1 0x20 DUP3 ADD SWAP1 POP SWAP2 SWAP1 POP JUMP JUMPDEST PUSH0 PUSH1 0x20 DUP3 ADD SWAP1 POP DUP2 DUP2 SUB PUSH0 DUP4 ADD MSTORE PUSH2 0x2ED DUP2 PUSH2 0x2B4 JUMP JUMPDEST SWAP1 POP SWAP2 SWAP1 POP JUMP JUMPDEST PUSH32 0x4E487B7100000000000000000000000000000000000000000000000000000000 PUSH0 MSTORE PUSH1 0x11 PUSH1 0x4 MSTORE PUSH1 0x24 PUSH0 REVERT JUMPDEST PUSH0 PUSH2 0x32B DUP3 PUSH2 0x1F6 JUMP JUMPDEST SWAP2 POP PUSH2 0x336 DUP4 PUSH2 0x1F6 JUMP JUMPDEST SWAP3 POP DUP3 DUP3 ADD SWAP1 POP DUP1 DUP3 GT ISZERO PUSH2 0x34E JUMPI PUSH2 0x34D PUSH2 0x2F4 JUMP JUMPDEST JUMPDEST SWAP3 SWAP2 POP POP JUMP JUMPDEST PUSH0 PUSH2 0x35E DUP3 PUSH2 0x1F6 JUMP JUMPDEST SWAP2 POP PUSH2 0x369 DUP4 PUSH2 0x1F6 JUMP JUMPDEST SWAP3 POP DUP3 DUP3 SUB SWAP1 POP DUP2 DUP2 GT ISZERO PUSH2 0x381 JUMPI PUSH2 0x380 PUSH2 0x2F4 JUMP JUMPDEST JUMPDEST SWAP3 SWAP2 POP POP JUMP JUMPDEST PUSH32 0x4E487B7100000000000000000000000000000000000000000000000000000000 PUSH0 MSTORE PUSH1 0x12 PUSH1 0x4 MSTORE PUSH1 0x24 PUSH0 REVERT JUMPDEST PUSH0 PUSH2 0x3BE DUP3 PUSH2 0x1F6 JUMP JUMPDEST SWAP2 POP PUSH2 0x3C9 DUP4 PUSH2 0x1F6 JUMP JUMPDEST SWAP3 POP DUP3 PUSH2 0x3D9 JUMPI PUSH2 0x3D8 PUSH2 0x387 JUMP JUMPDEST JUMPDEST DUP3 DUP3 DIV SWAP1 POP SWAP3 SWAP2 POP POP JUMP JUMPDEST PUSH0 PUSH2 0x3EE DUP3 PUSH2 0x1F6 JUMP JUMPDEST SWAP2 POP PUSH2 0x3F9 DUP4 PUSH2 0x1F6 JUMP JUMPDEST SWAP3 POP DUP3 DUP3 MUL PUSH2 0x407 DUP2 PUSH2 0x1F6 JUMP JUMPDEST SWAP2 POP DUP3 DUP3 DIV DUP5 EQ DUP4 ISZERO OR PUSH2 0x41E JUMPI PUSH2 0x41D PUSH2 0x2F4 JUMP JUMPDEST JUMPDEST POP SWAP3 SWAP2 POP POP JUMP INVALID LOG2 PUSH5 0x6970667358 0x22 SLT KECCAK256 0xAE 0x27 EXTCODECOPY MOD 0xD5 0xB4 SWAP4 0xE7 CODESIZE PUSH12 0x1C357F971535289391E3B98E DUP14 0xDC 0xC3 0xCC DUP10 0xF9 0xED 0xBF SHR 0xBA PUSH5 0x736F6C6343 STOP ADDMOD BYTE STOP CALLER "
		},
		"gasEstimates": {
			"creation": {
				"codeDepositCost": "223000",
				"executionCost": "5274",
				"totalCost": "228274"
			},
			"external": {
				"add(uint256)": "infinite",
				"divide(uint256)": "infinite",
				"multiply(uint256)": "infinite",
				"subtract(uint256)": "infinite",
				"total()": "2446"
			}
		},
		"methodIdentifiers": {
			"add(uint256)": "1003e2d2",
			"divide(uint256)": "3e823f79",
			"multiply(uint256)": "c6888fa1",
			"subtract(uint256)": "1dc05f17",
			"total()": "2ddbd13a"
		}
	},
	"abi": [
		{
			"inputs": [],
			"stateMutability": "nonpayable",
			"type": "constructor"
		},
		{
			"inputs": [
				{
					"internalType": "uint256",
					"name": "value",
					"type": "uint256"
				}
			],
			"name": "add",
			"outputs": [],
			"stateMutability": "nonpayable",
			"type": "function"
		},
		{
			"inputs": [
				{
					"internalType": "uint256",
					"name": "value",
					"type": "uint256"
				}
			],
			"name": "divide",
			"outputs": [],
			"stateMutability": "nonpayable",
			"type": "function"
		},
		{
			"inputs": [
				{
					"internalType": "uint256",
					"name": "value",
					"type": "uint256"
				}
			],
			"name": "multiply",
			"outputs": [],
			"stateMutability": "nonpayable",
			"type": "function"
		},
		{
			"inputs": [
				{
					"internalType": "uint256",
					"name": "value",
					"type": "uint256"
				}
			],
			"name": "subtract",
			"outputs": [],
			"stateMutability": "nonpayable",
			"type": "function"
		},
		{
			"inputs": [],
			"name": "total",
			"outputs": [
				{
					"internalType": "uint256",
					"name": "",
					"type": "uint256"
				}
			],
			"stateMutability": "view",
			"type": "function"
		}
	]
}