{
	"Day-21/code2.sol": {
		"Constructor": {
			"abi": [
				{
					"inputs": [
						{
							"internalType": "string",
							"name": "_name",
							"type": "string"
						},
						{
							"internalType": "uint256",
							"name": "_age",
							"type": "uint256"
						},
						{
							"internalType": "address",
							"name": "_owner",
							"type": "address"
						}
					],
					"stateMutability": "nonpayable",
					"type": "constructor"
				},
				{
					"inputs": [],
					"name": "age",
					"outputs": [
						{
							"internalType": "uint256",
							"name": "",
							"type": "uint256"
						}
					],
					"stateMutability": "view",
					"type": "function"
				},
				{
					"inputs": [],
					"name": "name",
					"outputs": [
						{
							"internalType": "string",
							"name": "",
							"type": "string"
						}
					],
					"stateMutability": "view",
					"type": "function"
				},
				{
					"inputs": [],
					"name": "owner",
					"outputs": [
						{
							"internalType": "address",
							"name": "",
							"type": "address"
						}
					],
					"stateMutability": "view",
					"type": "function"
				}
			],
			"devdoc": {
				"kind": "dev",
				"methods": {},
				"version": 1
			},
			"evm": {
				"assembly": "    /* \"Day-21/code2.sol\":60:302  contract Constructor{... */\n  mstore(0x40, 0x80)\n    /* \"Day-21/code2.sol\":163:299  constructor(string memory _name, uint _age, address _owner){... */\n  callvalue\n  dup1\n  iszero\n  tag_1\n  jumpi\n  0x00\n  dup1\n  revert\ntag_1:\n  pop\n  mload(0x40)\n  sub(codesize, bytecodeSize)\n  dup1\n  bytecodeSize\n  dup4\n  codecopy\n  dup2\n  dup2\n  add\n  0x40\n  mstore\n  dup2\n  add\n  swap1\n  tag_2\n  swap2\n  swap1\n  tag_3\n  jump\t// in\ntag_2:\n    /* \"Day-21/code2.sol\":240:245  _name */\n  dup3\n    /* \"Day-21/code2.sol\":233:237  name */\n  0x00\n    /* \"Day-21/code2.sol\":233:245  name = _name */\n  swap1\n  dup2\n  tag_6\n  swap2\n  swap1\n  tag_7\n  jump\t// in\ntag_6:\n  pop\n    /* \"Day-21/code2.sol\":262:266  _age */\n  dup2\n    /* \"Day-21/code2.sol\":256:259  age */\n  0x01\n    /* \"Day-21/code2.sol\":256:266  age = _age */\n  dup2\n  swap1\n  sstore\n  pop\n    /* \"Day-21/code2.sol\":285:291  _owner */\n  dup1\n    /* \"Day-21/code2.sol\":277:282  owner */\n  0x02\n  0x00\n    /* \"Day-21/code2.sol\":277:291  owner = _owner */\n  0x0100\n  exp\n  dup2\n  sload\n  dup2\n  0xffffffffffffffffffffffffffffffffffffffff\n  mul\n  not\n  and\n  swap1\n  dup4\n  0xffffffffffffffffffffffffffffffffffffffff\n  and\n  mul\n  or\n  swap1\n  sstore\n  pop\n    /* \"Day-21/code2.sol\":163:299  constructor(string memory _name, uint _age, address _owner){... */\n  pop\n  pop\n  pop\n    /* \"Day-21/code2.sol\":60:302  contract Constructor{... */\n  jump(tag_8)\n    /* \"#utility.yul\":7:82   */\ntag_9:\n    /* \"#utility.yul\":40:46   */\n  0x00\n    /* \"#utility.yul\":73:75   */\n  0x40\n    /* \"#utility.yul\":67:76   */\n  mload\n    /* \"#utility.yul\":57:76   */\n  swap1\n  pop\n    /* \"#utility.yul\":7:82   */\n  swap1\n  jump\t// out\n    /* \"#utility.yul\":88:205   */\ntag_10:\n    /* \"#utility.yul\":197:198   */\n  0x00\n    /* \"#utility.yul\":194:195   */\n  dup1\n    /* \"#utility.yul\":187:199   */\n  revert\n    /* \"#utility.yul\":211:328   */\ntag_11:\n    /* \"#utility.yul\":320:321   */\n  0x00\n    /* \"#utility.yul\":317:318   */\n  dup1\n    /* \"#utility.yul\":310:322   */\n  revert\n    /* \"#utility.yul\":334:451   */\ntag_12:\n    /* \"#utility.yul\":443:444   */\n  0x00\n    /* \"#utility.yul\":440:441   */\n  dup1\n    /* \"#utility.yul\":433:445   */\n  revert\n    /* \"#utility.yul\":457:574   */\ntag_13:\n    /* \"#utility.yul\":566:567   */\n  0x00\n    /* \"#utility.yul\":563:564   */\n  dup1\n    /* \"#utility.yul\":556:568   */\n  revert\n    /* \"#utility.yul\":580:682   */\ntag_14:\n    /* \"#utility.yul\":621:627   */\n  0x00\n    /* \"#utility.yul\":672:674   */\n  0x1f\n    /* \"#utility.yul\":668:675   */\n  not\n    /* \"#utility.yul\":663:665   */\n  0x1f\n    /* \"#utility.yul\":656:661   */\n  dup4\n    /* \"#utility.yul\":652:666   */\n  add\n    /* \"#utility.yul\":648:676   */\n  and\n    /* \"#utility.yul\":638:676   */\n  swap1\n  pop\n    /* \"#utility.yul\":580:682   */\n  swap2\n  swap1\n  pop\n  jump\t// out\n    /* \"#utility.yul\":688:868   */\ntag_15:\n    /* \"#utility.yul\":736:813   */\n  0x4e487b7100000000000000000000000000000000000000000000000000000000\n    /* \"#utility.yul\":733:734   */\n  0x00\n    /* \"#utility.yul\":726:814   */\n  mstore\n    /* \"#utility.yul\":833:837   */\n  0x41\n    /* \"#utility.yul\":830:831   */\n  0x04\n    /* \"#utility.yul\":823:838   */\n  mstore\n    /* \"#utility.yul\":857:861   */\n  0x24\n    /* \"#utility.yul\":854:855   */\n  0x00\n    /* \"#utility.yul\":847:862   */\n  revert\n    /* \"#utility.yul\":874:1155   */\ntag_16:\n    /* \"#utility.yul\":957:984   */\n  tag_56\n    /* \"#utility.yul\":979:983   */\n  dup3\n    /* \"#utility.yul\":957:984   */\n  tag_14\n  jump\t// in\ntag_56:\n    /* \"#utility.yul\":949:955   */\n  dup2\n    /* \"#utility.yul\":945:985   */\n  add\n    /* \"#utility.yul\":1087:1093   */\n  dup2\n    /* \"#utility.yul\":1075:1085   */\n  dup2\n    /* \"#utility.yul\":1072:1094   */\n  lt\n    /* \"#utility.yul\":1051:1069   */\n  0xffffffffffffffff\n    /* \"#utility.yul\":1039:1049   */\n  dup3\n    /* \"#utility.yul\":1036:1070   */\n  gt\n    /* \"#utility.yul\":1033:1095   */\n  or\n    /* \"#utility.yul\":1030:1118   */\n  iszero\n  tag_57\n  jumpi\n    /* \"#utility.yul\":1098:1116   */\n  tag_58\n  tag_15\n  jump\t// in\ntag_58:\n    /* \"#utility.yul\":1030:1118   */\ntag_57:\n    /* \"#utility.yul\":1138:1148   */\n  dup1\n    /* \"#utility.yul\":1134:1136   */\n  0x40\n    /* \"#utility.yul\":1127:1149   */\n  mstore\n    /* \"#utility.yul\":917:1155   */\n  pop\n    /* \"#utility.yul\":874:1155   */\n  pop\n  pop\n  jump\t// out\n    /* \"#utility.yul\":1161:1290   */\ntag_17:\n    /* \"#utility.yul\":1195:1201   */\n  0x00\n    /* \"#utility.yul\":1222:1242   */\n  tag_60\n  tag_9\n  jump\t// in\ntag_60:\n    /* \"#utility.yul\":1212:1242   */\n  swap1\n  pop\n    /* \"#utility.yul\":1251:1284   */\n  tag_61\n    /* \"#utility.yul\":1279:1283   */\n  dup3\n    /* \"#utility.yul\":1271:1277   */\n  dup3\n    /* \"#utility.yul\":1251:1284   */\n  tag_16\n  jump\t// in\ntag_61:\n    /* \"#utility.yul\":1161:1290   */\n  swap2\n  swap1\n  pop\n  jump\t// out\n    /* \"#utility.yul\":1296:1604   */\ntag_18:\n    /* \"#utility.yul\":1358:1362   */\n  0x00\n    /* \"#utility.yul\":1448:1466   */\n  0xffffffffffffffff\n    /* \"#utility.yul\":1440:1446   */\n  dup3\n    /* \"#utility.yul\":1437:1467   */\n  gt\n    /* \"#utility.yul\":1434:1490   */\n  iszero\n  tag_63\n  jumpi\n    /* \"#utility.yul\":1470:1488   */\n  tag_64\n  tag_15\n  jump\t// in\ntag_64:\n    /* \"#utility.yul\":1434:1490   */\ntag_63:\n    /* \"#utility.yul\":1508:1537   */\n  tag_65\n    /* \"#utility.yul\":1530:1536   */\n  dup3\n    /* \"#utility.yul\":1508:1537   */\n  tag_14\n  jump\t// in\ntag_65:\n    /* \"#utility.yul\":1500:1537   */\n  swap1\n  pop\n    /* \"#utility.yul\":1592:1596   */\n  0x20\n    /* \"#utility.yul\":1586:1590   */\n  dup2\n    /* \"#utility.yul\":1582:1597   */\n  add\n    /* \"#utility.yul\":1574:1597   */\n  swap1\n  pop\n    /* \"#utility.yul\":1296:1604   */\n  swap2\n  swap1\n  pop\n  jump\t// out\n    /* \"#utility.yul\":1610:1749   */\ntag_19:\n    /* \"#utility.yul\":1699:1705   */\n  dup3\n    /* \"#utility.yul\":1694:1697   */\n  dup2\n    /* \"#utility.yul\":1689:1692   */\n  dup4\n    /* \"#utility.yul\":1683:1706   */\n  mcopy\n    /* \"#utility.yul\":1740:1741   */\n  0x00\n    /* \"#utility.yul\":1731:1737   */\n  dup4\n    /* \"#utility.yul\":1726:1729   */\n  dup4\n    /* \"#utility.yul\":1722:1738   */\n  add\n    /* \"#utility.yul\":1715:1742   */\n  mstore\n    /* \"#utility.yul\":1610:1749   */\n  pop\n  pop\n  pop\n  jump\t// out\n    /* \"#utility.yul\":1755:2189   */\ntag_20:\n    /* \"#utility.yul\":1844:1849   */\n  0x00\n    /* \"#utility.yul\":1869:1935   */\n  tag_68\n    /* \"#utility.yul\":1885:1934   */\n  tag_69\n    /* \"#utility.yul\":1927:1933   */\n  dup5\n    /* \"#utility.yul\":1885:1934   */\n  tag_18\n  jump\t// in\ntag_69:\n    /* \"#utility.yul\":1869:1935   */\n  tag_17\n  jump\t// in\ntag_68:\n    /* \"#utility.yul\":1860:1935   */\n  swap1\n  pop\n    /* \"#utility.yul\":1958:1964   */\n  dup3\n    /* \"#utility.yul\":1951:1956   */\n  dup2\n    /* \"#utility.yul\":1944:1965   */\n  mstore\n    /* \"#utility.yul\":1996:2000   */\n  0x20\n    /* \"#utility.yul\":1989:1994   */\n  dup2\n    /* \"#utility.yul\":1985:2001   */\n  add\n    /* \"#utility.yul\":2034:2037   */\n  dup5\n    /* \"#utility.yul\":2025:2031   */\n  dup5\n    /* \"#utility.yul\":2020:2023   */\n  dup5\n    /* \"#utility.yul\":2016:2032   */\n  add\n    /* \"#utility.yul\":2013:2038   */\n  gt\n    /* \"#utility.yul\":2010:2122   */\n  iszero\n  tag_70\n  jumpi\n    /* \"#utility.yul\":2041:2120   */\n  tag_71\n  tag_13\n  jump\t// in\ntag_71:\n    /* \"#utility.yul\":2010:2122   */\ntag_70:\n    /* \"#utility.yul\":2131:2183   */\n  tag_72\n    /* \"#utility.yul\":2176:2182   */\n  dup5\n    /* \"#utility.yul\":2171:2174   */\n  dup3\n    /* \"#utility.yul\":2166:2169   */\n  dup6\n    /* \"#utility.yul\":2131:2183   */\n  tag_19\n  jump\t// in\ntag_72:\n    /* \"#utility.yul\":1850:2189   */\n  pop\n    /* \"#utility.yul\":1755:2189   */\n  swap4\n  swap3\n  pop\n  pop\n  pop\n  jump\t// out\n    /* \"#utility.yul\":2209:2564   */\ntag_21:\n    /* \"#utility.yul\":2276:2281   */\n  0x00\n    /* \"#utility.yul\":2325:2328   */\n  dup3\n    /* \"#utility.yul\":2318:2322   */\n  0x1f\n    /* \"#utility.yul\":2310:2316   */\n  dup4\n    /* \"#utility.yul\":2306:2323   */\n  add\n    /* \"#utility.yul\":2302:2329   */\n  slt\n    /* \"#utility.yul\":2292:2414   */\n  tag_74\n  jumpi\n    /* \"#utility.yul\":2333:2412   */\n  tag_75\n  tag_12\n  jump\t// in\ntag_75:\n    /* \"#utility.yul\":2292:2414   */\ntag_74:\n    /* \"#utility.yul\":2443:2449   */\n  dup2\n    /* \"#utility.yul\":2437:2450   */\n  mload\n    /* \"#utility.yul\":2468:2558   */\n  tag_76\n    /* \"#utility.yul\":2554:2557   */\n  dup5\n    /* \"#utility.yul\":2546:2552   */\n  dup3\n    /* \"#utility.yul\":2539:2543   */\n  0x20\n    /* \"#utility.yul\":2531:2537   */\n  dup7\n    /* \"#utility.yul\":2527:2544   */\n  add\n    /* \"#utility.yul\":2468:2558   */\n  tag_20\n  jump\t// in\ntag_76:\n    /* \"#utility.yul\":2459:2558   */\n  swap2\n  pop\n    /* \"#utility.yul\":2282:2564   */\n  pop\n    /* \"#utility.yul\":2209:2564   */\n  swap3\n  swap2\n  pop\n  pop\n  jump\t// out\n    /* \"#utility.yul\":2570:2647   */\ntag_22:\n    /* \"#utility.yul\":2607:2614   */\n  0x00\n    /* \"#utility.yul\":2636:2641   */\n  dup2\n    /* \"#utility.yul\":2625:2641   */\n  swap1\n  pop\n    /* \"#utility.yul\":2570:2647   */\n  swap2\n  swap1\n  pop\n  jump\t// out\n    /* \"#utility.yul\":2653:2775   */\ntag_23:\n    /* \"#utility.yul\":2726:2750   */\n  tag_79\n    /* \"#utility.yul\":2744:2749   */\n  dup2\n    /* \"#utility.yul\":2726:2750   */\n  tag_22\n  jump\t// in\ntag_79:\n    /* \"#utility.yul\":2719:2724   */\n  dup2\n    /* \"#utility.yul\":2716:2751   */\n  eq\n    /* \"#utility.yul\":2706:2769   */\n  tag_80\n  jumpi\n    /* \"#utility.yul\":2765:2766   */\n  0x00\n    /* \"#utility.yul\":2762:2763   */\n  dup1\n    /* \"#utility.yul\":2755:2767   */\n  revert\n    /* \"#utility.yul\":2706:2769   */\ntag_80:\n    /* \"#utility.yul\":2653:2775   */\n  pop\n  jump\t// out\n    /* \"#utility.yul\":2781:2924   */\ntag_24:\n    /* \"#utility.yul\":2838:2843   */\n  0x00\n    /* \"#utility.yul\":2869:2875   */\n  dup2\n    /* \"#utility.yul\":2863:2876   */\n  mload\n    /* \"#utility.yul\":2854:2876   */\n  swap1\n  pop\n    /* \"#utility.yul\":2885:2918   */\n  tag_82\n    /* \"#utility.yul\":2912:2917   */\n  dup2\n    /* \"#utility.yul\":2885:2918   */\n  tag_23\n  jump\t// in\ntag_82:\n    /* \"#utility.yul\":2781:2924   */\n  swap3\n  swap2\n  pop\n  pop\n  jump\t// out\n    /* \"#utility.yul\":2930:3056   */\ntag_25:\n    /* \"#utility.yul\":2967:2974   */\n  0x00\n    /* \"#utility.yul\":3007:3049   */\n  0xffffffffffffffffffffffffffffffffffffffff\n    /* \"#utility.yul\":3000:3005   */\n  dup3\n    /* \"#utility.yul\":2996:3050   */\n  and\n    /* \"#utility.yul\":2985:3050   */\n  swap1\n  pop\n    /* \"#utility.yul\":2930:3056   */\n  swap2\n  swap1\n  pop\n  jump\t// out\n    /* \"#utility.yul\":3062:3158   */\ntag_26:\n    /* \"#utility.yul\":3099:3106   */\n  0x00\n    /* \"#utility.yul\":3128:3152   */\n  tag_85\n    /* \"#utility.yul\":3146:3151   */\n  dup3\n    /* \"#utility.yul\":3128:3152   */\n  tag_25\n  jump\t// in\ntag_85:\n    /* \"#utility.yul\":3117:3152   */\n  swap1\n  pop\n    /* \"#utility.yul\":3062:3158   */\n  swap2\n  swap1\n  pop\n  jump\t// out\n    /* \"#utility.yul\":3164:3286   */\ntag_27:\n    /* \"#utility.yul\":3237:3261   */\n  tag_87\n    /* \"#utility.yul\":3255:3260   */\n  dup2\n    /* \"#utility.yul\":3237:3261   */\n  tag_26\n  jump\t// in\ntag_87:\n    /* \"#utility.yul\":3230:3235   */\n  dup2\n    /* \"#utility.yul\":3227:3262   */\n  eq\n    /* \"#utility.yul\":3217:3280   */\n  tag_88\n  jumpi\n    /* \"#utility.yul\":3276:3277   */\n  0x00\n    /* \"#utility.yul\":3273:3274   */\n  dup1\n    /* \"#utility.yul\":3266:3278   */\n  revert\n    /* \"#utility.yul\":3217:3280   */\ntag_88:\n    /* \"#utility.yul\":3164:3286   */\n  pop\n  jump\t// out\n    /* \"#utility.yul\":3292:3435   */\ntag_28:\n    /* \"#utility.yul\":3349:3354   */\n  0x00\n    /* \"#utility.yul\":3380:3386   */\n  dup2\n    /* \"#utility.yul\":3374:3387   */\n  mload\n    /* \"#utility.yul\":3365:3387   */\n  swap1\n  pop\n    /* \"#utility.yul\":3396:3429   */\n  tag_90\n    /* \"#utility.yul\":3423:3428   */\n  dup2\n    /* \"#utility.yul\":3396:3429   */\n  tag_27\n  jump\t// in\ntag_90:\n    /* \"#utility.yul\":3292:3435   */\n  swap3\n  swap2\n  pop\n  pop\n  jump\t// out\n    /* \"#utility.yul\":3441:4277   */\ntag_3:\n    /* \"#utility.yul\":3539:3545   */\n  0x00\n    /* \"#utility.yul\":3547:3553   */\n  dup1\n    /* \"#utility.yul\":3555:3561   */\n  0x00\n    /* \"#utility.yul\":3604:3606   */\n  0x60\n    /* \"#utility.yul\":3592:3601   */\n  dup5\n    /* \"#utility.yul\":3583:3590   */\n  dup7\n    /* \"#utility.yul\":3579:3602   */\n  sub\n    /* \"#utility.yul\":3575:3607   */\n  slt\n    /* \"#utility.yul\":3572:3691   */\n  iszero\n  tag_92\n  jumpi\n    /* \"#utility.yul\":3610:3689   */\n  tag_93\n  tag_10\n  jump\t// in\ntag_93:\n    /* \"#utility.yul\":3572:3691   */\ntag_92:\n    /* \"#utility.yul\":3751:3752   */\n  0x00\n    /* \"#utility.yul\":3740:3749   */\n  dup5\n    /* \"#utility.yul\":3736:3753   */\n  add\n    /* \"#utility.yul\":3730:3754   */\n  mload\n    /* \"#utility.yul\":3781:3799   */\n  0xffffffffffffffff\n    /* \"#utility.yul\":3773:3779   */\n  dup2\n    /* \"#utility.yul\":3770:3800   */\n  gt\n    /* \"#utility.yul\":3767:3884   */\n  iszero\n  tag_94\n  jumpi\n    /* \"#utility.yul\":3803:3882   */\n  tag_95\n  tag_11\n  jump\t// in\ntag_95:\n    /* \"#utility.yul\":3767:3884   */\ntag_94:\n    /* \"#utility.yul\":3908:3982   */\n  tag_96\n    /* \"#utility.yul\":3974:3981   */\n  dup7\n    /* \"#utility.yul\":3965:3971   */\n  dup3\n    /* \"#utility.yul\":3954:3963   */\n  dup8\n    /* \"#utility.yul\":3950:3972   */\n  add\n    /* \"#utility.yul\":3908:3982   */\n  tag_21\n  jump\t// in\ntag_96:\n    /* \"#utility.yul\":3898:3982   */\n  swap4\n  pop\n    /* \"#utility.yul\":3701:3992   */\n  pop\n    /* \"#utility.yul\":4031:4033   */\n  0x20\n    /* \"#utility.yul\":4057:4121   */\n  tag_97\n    /* \"#utility.yul\":4113:4120   */\n  dup7\n    /* \"#utility.yul\":4104:4110   */\n  dup3\n    /* \"#utility.yul\":4093:4102   */\n  dup8\n    /* \"#utility.yul\":4089:4111   */\n  add\n    /* \"#utility.yul\":4057:4121   */\n  tag_24\n  jump\t// in\ntag_97:\n    /* \"#utility.yul\":4047:4121   */\n  swap3\n  pop\n    /* \"#utility.yul\":4002:4131   */\n  pop\n    /* \"#utility.yul\":4170:4172   */\n  0x40\n    /* \"#utility.yul\":4196:4260   */\n  tag_98\n    /* \"#utility.yul\":4252:4259   */\n  dup7\n    /* \"#utility.yul\":4243:4249   */\n  dup3\n    /* \"#utility.yul\":4232:4241   */\n  dup8\n    /* \"#utility.yul\":4228:4250   */\n  add\n    /* \"#utility.yul\":4196:4260   */\n  tag_28\n  jump\t// in\ntag_98:\n    /* \"#utility.yul\":4186:4260   */\n  swap2\n  pop\n    /* \"#utility.yul\":4141:4270   */\n  pop\n    /* \"#utility.yul\":3441:4277   */\n  swap3\n  pop\n  swap3\n  pop\n  swap3\n  jump\t// out\n    /* \"#utility.yul\":4283:4382   */\ntag_29:\n    /* \"#utility.yul\":4335:4341   */\n  0x00\n    /* \"#utility.yul\":4369:4374   */\n  dup2\n    /* \"#utility.yul\":4363:4375   */\n  mload\n    /* \"#utility.yul\":4353:4375   */\n  swap1\n  pop\n    /* \"#utility.yul\":4283:4382   */\n  swap2\n  swap1\n  pop\n  jump\t// out\n    /* \"#utility.yul\":4388:4568   */\ntag_30:\n    /* \"#utility.yul\":4436:4513   */\n  0x4e487b7100000000000000000000000000000000000000000000000000000000\n    /* \"#utility.yul\":4433:4434   */\n  0x00\n    /* \"#utility.yul\":4426:4514   */\n  mstore\n    /* \"#utility.yul\":4533:4537   */\n  0x22\n    /* \"#utility.yul\":4530:4531   */\n  0x04\n    /* \"#utility.yul\":4523:4538   */\n  mstore\n    /* \"#utility.yul\":4557:4561   */\n  0x24\n    /* \"#utility.yul\":4554:4555   */\n  0x00\n    /* \"#utility.yul\":4547:4562   */\n  revert\n    /* \"#utility.yul\":4574:4894   */\ntag_31:\n    /* \"#utility.yul\":4618:4624   */\n  0x00\n    /* \"#utility.yul\":4655:4656   */\n  0x02\n    /* \"#utility.yul\":4649:4653   */\n  dup3\n    /* \"#utility.yul\":4645:4657   */\n  div\n    /* \"#utility.yul\":4635:4657   */\n  swap1\n  pop\n    /* \"#utility.yul\":4702:4703   */\n  0x01\n    /* \"#utility.yul\":4696:4700   */\n  dup3\n    /* \"#utility.yul\":4692:4704   */\n  and\n    /* \"#utility.yul\":4723:4741   */\n  dup1\n    /* \"#utility.yul\":4713:4794   */\n  tag_102\n  jumpi\n    /* \"#utility.yul\":4779:4783   */\n  0x7f\n    /* \"#utility.yul\":4771:4777   */\n  dup3\n    /* \"#utility.yul\":4767:4784   */\n  and\n    /* \"#utility.yul\":4757:4784   */\n  swap2\n  pop\n    /* \"#utility.yul\":4713:4794   */\ntag_102:\n    /* \"#utility.yul\":4841:4843   */\n  0x20\n    /* \"#utility.yul\":4833:4839   */\n  dup3\n    /* \"#utility.yul\":4830:4844   */\n  lt\n    /* \"#utility.yul\":4810:4828   */\n  dup2\n    /* \"#utility.yul\":4807:4845   */\n  sub\n    /* \"#utility.yul\":4804:4888   */\n  tag_103\n  jumpi\n    /* \"#utility.yul\":4860:4878   */\n  tag_104\n  tag_30\n  jump\t// in\ntag_104:\n    /* \"#utility.yul\":4804:4888   */\ntag_103:\n    /* \"#utility.yul\":4625:4894   */\n  pop\n    /* \"#utility.yul\":4574:4894   */\n  swap2\n  swap1\n  pop\n  jump\t// out\n    /* \"#utility.yul\":4900:5041   */\ntag_32:\n    /* \"#utility.yul\":4949:4953   */\n  0x00\n    /* \"#utility.yul\":4972:4975   */\n  dup2\n    /* \"#utility.yul\":4964:4975   */\n  swap1\n  pop\n    /* \"#utility.yul\":4995:4998   */\n  dup2\n    /* \"#utility.yul\":4992:4993   */\n  0x00\n    /* \"#utility.yul\":4985:4999   */\n  mstore\n    /* \"#utility.yul\":5029:5033   */\n  0x20\n    /* \"#utility.yul\":5026:5027   */\n  0x00\n    /* \"#utility.yul\":5016:5034   */\n  keccak256\n    /* \"#utility.yul\":5008:5034   */\n  swap1\n  pop\n    /* \"#utility.yul\":4900:5041   */\n  swap2\n  swap1\n  pop\n  jump\t// out\n    /* \"#utility.yul\":5047:5140   */\ntag_33:\n    /* \"#utility.yul\":5084:5090   */\n  0x00\n    /* \"#utility.yul\":5131:5133   */\n  0x20\n    /* \"#utility.yul\":5126:5128   */\n  0x1f\n    /* \"#utility.yul\":5119:5124   */\n  dup4\n    /* \"#utility.yul\":5115:5129   */\n  add\n    /* \"#utility.yul\":5111:5134   */\n  div\n    /* \"#utility.yul\":5101:5134   */\n  swap1\n  pop\n    /* \"#utility.yul\":5047:5140   */\n  swap2\n  swap1\n  pop\n  jump\t// out\n    /* \"#utility.yul\":5146:5253   */\ntag_34:\n    /* \"#utility.yul\":5190:5198   */\n  0x00\n    /* \"#utility.yul\":5240:5245   */\n  dup3\n    /* \"#utility.yul\":5234:5238   */\n  dup3\n    /* \"#utility.yul\":5230:5246   */\n  shl\n    /* \"#utility.yul\":5209:5246   */\n  swap1\n  pop\n    /* \"#utility.yul\":5146:5253   */\n  swap3\n  swap2\n  pop\n  pop\n  jump\t// out\n    /* \"#utility.yul\":5259:5652   */\ntag_35:\n    /* \"#utility.yul\":5328:5334   */\n  0x00\n    /* \"#utility.yul\":5378:5379   */\n  0x08\n    /* \"#utility.yul\":5366:5376   */\n  dup4\n    /* \"#utility.yul\":5362:5380   */\n  mul\n    /* \"#utility.yul\":5401:5498   */\n  tag_109\n    /* \"#utility.yul\":5431:5497   */\n  0xffffffffffffffffffffffffffffffffffffffffffffffffffffffffffffffff\n    /* \"#utility.yul\":5420:5429   */\n  dup3\n    /* \"#utility.yul\":5401:5498   */\n  tag_34\n  jump\t// in\ntag_109:\n    /* \"#utility.yul\":5519:5558   */\n  tag_110\n    /* \"#utility.yul\":5549:5557   */\n  dup7\n    /* \"#utility.yul\":5538:5547   */\n  dup4\n    /* \"#utility.yul\":5519:5558   */\n  tag_34\n  jump\t// in\ntag_110:\n    /* \"#utility.yul\":5507:5558   */\n  swap6\n  pop\n    /* \"#utility.yul\":5591:5595   */\n  dup1\n    /* \"#utility.yul\":5587:5596   */\n  not\n    /* \"#utility.yul\":5580:5585   */\n  dup5\n    /* \"#utility.yul\":5576:5597   */\n  and\n    /* \"#utility.yul\":5567:5597   */\n  swap4\n  pop\n    /* \"#utility.yul\":5640:5644   */\n  dup1\n    /* \"#utility.yul\":5630:5638   */\n  dup7\n    /* \"#utility.yul\":5626:5645   */\n  and\n    /* \"#utility.yul\":5619:5624   */\n  dup5\n    /* \"#utility.yul\":5616:5646   */\n  or\n    /* \"#utility.yul\":5606:5646   */\n  swap3\n  pop\n    /* \"#utility.yul\":5335:5652   */\n  pop\n  pop\n    /* \"#utility.yul\":5259:5652   */\n  swap4\n  swap3\n  pop\n  pop\n  pop\n  jump\t// out\n    /* \"#utility.yul\":5658:5718   */\ntag_36:\n    /* \"#utility.yul\":5686:5689   */\n  0x00\n    /* \"#utility.yul\":5707:5712   */\n  dup2\n    /* \"#utility.yul\":5700:5712   */\n  swap1\n  pop\n    /* \"#utility.yul\":5658:5718   */\n  swap2\n  swap1\n  pop\n  jump\t// out\n    /* \"#utility.yul\":5724:5866   */\ntag_37:\n    /* \"#utility.yul\":5774:5783   */\n  0x00\n    /* \"#utility.yul\":5807:5860   */\n  tag_113\n    /* \"#utility.yul\":5825:5859   */\n  tag_114\n    /* \"#utility.yul\":5834:5858   */\n  tag_115\n    /* \"#utility.yul\":5852:5857   */\n  dup5\n    /* \"#utility.yul\":5834:5858   */\n  tag_22\n  jump\t// in\ntag_115:\n    /* \"#utility.yul\":5825:5859   */\n  tag_36\n  jump\t// in\ntag_114:\n    /* \"#utility.yul\":5807:5860   */\n  tag_22\n  jump\t// in\ntag_113:\n    /* \"#utility.yul\":5794:5860   */\n  swap1\n  pop\n    /* \"#utility.yul\":5724:5866   */\n  swap2\n  swap1\n  pop\n  jump\t// out\n    /* \"#utility.yul\":5872:5947   */\ntag_38:\n    /* \"#utility.yul\":5915:5918   */\n  0x00\n    /* \"#utility.yul\":5936:5941   */\n  dup2\n    /* \"#utility.yul\":5929:5941   */\n  swap1\n  pop\n    /* \"#utility.yul\":5872:5947   */\n  swap2\n  swap1\n  pop\n  jump\t// out\n    /* \"#utility.yul\":5953:6222   */\ntag_39:\n    /* \"#utility.yul\":6063:6102   */\n  tag_118\n    /* \"#utility.yul\":6094:6101   */\n  dup4\n    /* \"#utility.yul\":6063:6102   */\n  tag_37\n  jump\t// in\ntag_118:\n    /* \"#utility.yul\":6124:6215   */\n  tag_119\n    /* \"#utility.yul\":6173:6214   */\n  tag_120\n    /* \"#utility.yul\":6197:6213   */\n  dup3\n    /* \"#utility.yul\":6173:6214   */\n  tag_38\n  jump\t// in\ntag_120:\n    /* \"#utility.yul\":6165:6171   */\n  dup5\n    /* \"#utility.yul\":6158:6162   */\n  dup5\n    /* \"#utility.yul\":6152:6163   */\n  sload\n    /* \"#utility.yul\":6124:6215   */\n  tag_35\n  jump\t// in\ntag_119:\n    /* \"#utility.yul\":6118:6122   */\n  dup3\n    /* \"#utility.yul\":6111:6216   */\n  sstore\n    /* \"#utility.yul\":6029:6222   */\n  pop\n    /* \"#utility.yul\":5953:6222   */\n  pop\n  pop\n  pop\n  jump\t// out\n    /* \"#utility.yul\":6228:6301   */\ntag_40:\n    /* \"#utility.yul\":6273:6276   */\n  0x00\n    /* \"#utility.yul\":6228:6301   */\n  swap1\n  jump\t// out\n    /* \"#utility.yul\":6307:6496   */\ntag_41:\n    /* \"#utility.yul\":6384:6416   */\n  tag_123\n  tag_40\n  jump\t// in\ntag_123:\n    /* \"#utility.yul\":6425:6490   */\n  tag_124\n    /* \"#utility.yul\":6483:6489   */\n  dup2\n    /* \"#utility.yul\":6475:6481   */\n  dup5\n    /* \"#utility.yul\":6469:6473   */\n  dup5\n    /* \"#utility.yul\":6425:6490   */\n  tag_39\n  jump\t// in\ntag_124:\n    /* \"#utility.yul\":6360:6496   */\n  pop\n    /* \"#utility.yul\":6307:6496   */\n  pop\n  pop\n  jump\t// out\n    /* \"#utility.yul\":6502:6688   */\ntag_42:\n    /* \"#utility.yul\":6562:6682   */\ntag_126:\n    /* \"#utility.yul\":6579:6582   */\n  dup2\n    /* \"#utility.yul\":6572:6577   */\n  dup2\n    /* \"#utility.yul\":6569:6583   */\n  lt\n    /* \"#utility.yul\":6562:6682   */\n  iszero\n  tag_128\n  jumpi\n    /* \"#utility.yul\":6633:6672   */\n  tag_129\n    /* \"#utility.yul\":6670:6671   */\n  0x00\n    /* \"#utility.yul\":6663:6668   */\n  dup3\n    /* \"#utility.yul\":6633:6672   */\n  tag_41\n  jump\t// in\ntag_129:\n    /* \"#utility.yul\":6606:6607   */\n  0x01\n    /* \"#utility.yul\":6599:6604   */\n  dup2\n    /* \"#utility.yul\":6595:6608   */\n  add\n    /* \"#utility.yul\":6586:6608   */\n  swap1\n  pop\n    /* \"#utility.yul\":6562:6682   */\n  jump(tag_126)\ntag_128:\n    /* \"#utility.yul\":6502:6688   */\n  pop\n  pop\n  jump\t// out\n    /* \"#utility.yul\":6694:7237   */\ntag_43:\n    /* \"#utility.yul\":6795:6797   */\n  0x1f\n    /* \"#utility.yul\":6790:6793   */\n  dup3\n    /* \"#utility.yul\":6787:6798   */\n  gt\n    /* \"#utility.yul\":6784:7230   */\n  iszero\n  tag_131\n  jumpi\n    /* \"#utility.yul\":6829:6867   */\n  tag_132\n    /* \"#utility.yul\":6861:6866   */\n  dup2\n    /* \"#utility.yul\":6829:6867   */\n  tag_32\n  jump\t// in\ntag_132:\n    /* \"#utility.yul\":6913:6942   */\n  tag_133\n    /* \"#utility.yul\":6931:6941   */\n  dup5\n    /* \"#utility.yul\":6913:6942   */\n  tag_33\n  jump\t// in\ntag_133:\n    /* \"#utility.yul\":6903:6911   */\n  dup2\n    /* \"#utility.yul\":6899:6943   */\n  add\n    /* \"#utility.yul\":7096:7098   */\n  0x20\n    /* \"#utility.yul\":7084:7094   */\n  dup6\n    /* \"#utility.yul\":7081:7099   */\n  lt\n    /* \"#utility.yul\":7078:7127   */\n  iszero\n  tag_134\n  jumpi\n    /* \"#utility.yul\":7117:7125   */\n  dup2\n    /* \"#utility.yul\":7102:7125   */\n  swap1\n  pop\n    /* \"#utility.yul\":7078:7127   */\ntag_134:\n    /* \"#utility.yul\":7140:7220   */\n  tag_135\n    /* \"#utility.yul\":7196:7218   */\n  tag_136\n    /* \"#utility.yul\":7214:7217   */\n  dup6\n    /* \"#utility.yul\":7196:7218   */\n  tag_33\n  jump\t// in\ntag_136:\n    /* \"#utility.yul\":7186:7194   */\n  dup4\n    /* \"#utility.yul\":7182:7219   */\n  add\n    /* \"#utility.yul\":7169:7180   */\n  dup3\n    /* \"#utility.yul\":7140:7220   */\n  tag_42\n  jump\t// in\ntag_135:\n    /* \"#utility.yul\":6799:7230   */\n  pop\n  pop\n    /* \"#utility.yul\":6784:7230   */\ntag_131:\n    /* \"#utility.yul\":6694:7237   */\n  pop\n  pop\n  pop\n  jump\t// out\n    /* \"#utility.yul\":7243:7360   */\ntag_44:\n    /* \"#utility.yul\":7297:7305   */\n  0x00\n    /* \"#utility.yul\":7347:7352   */\n  dup3\n    /* \"#utility.yul\":7341:7345   */\n  dup3\n    /* \"#utility.yul\":7337:7353   */\n  shr\n    /* \"#utility.yul\":7316:7353   */\n  swap1\n  pop\n    /* \"#utility.yul\":7243:7360   */\n  swap3\n  swap2\n  pop\n  pop\n  jump\t// out\n    /* \"#utility.yul\":7366:7535   */\ntag_45:\n    /* \"#utility.yul\":7410:7416   */\n  0x00\n    /* \"#utility.yul\":7443:7494   */\n  tag_139\n    /* \"#utility.yul\":7491:7492   */\n  0x00\n    /* \"#utility.yul\":7487:7493   */\n  not\n    /* \"#utility.yul\":7479:7484   */\n  dup5\n    /* \"#utility.yul\":7476:7477   */\n  0x08\n    /* \"#utility.yul\":7472:7485   */\n  mul\n    /* \"#utility.yul\":7443:7494   */\n  tag_44\n  jump\t// in\ntag_139:\n    /* \"#utility.yul\":7439:7495   */\n  not\n    /* \"#utility.yul\":7524:7528   */\n  dup1\n    /* \"#utility.yul\":7518:7522   */\n  dup4\n    /* \"#utility.yul\":7514:7529   */\n  and\n    /* \"#utility.yul\":7504:7529   */\n  swap2\n  pop\n    /* \"#utility.yul\":7417:7535   */\n  pop\n    /* \"#utility.yul\":7366:7535   */\n  swap3\n  swap2\n  pop\n  pop\n  jump\t// out\n    /* \"#utility.yul\":7540:7835   */\ntag_46:\n    /* \"#utility.yul\":7616:7620   */\n  0x00\n    /* \"#utility.yul\":7762:7791   */\n  tag_141\n    /* \"#utility.yul\":7787:7790   */\n  dup4\n    /* \"#utility.yul\":7781:7785   */\n  dup4\n    /* \"#utility.yul\":7762:7791   */\n  tag_45\n  jump\t// in\ntag_141:\n    /* \"#utility.yul\":7754:7791   */\n  swap2\n  pop\n    /* \"#utility.yul\":7824:7827   */\n  dup3\n    /* \"#utility.yul\":7821:7822   */\n  0x02\n    /* \"#utility.yul\":7817:7828   */\n  mul\n    /* \"#utility.yul\":7811:7815   */\n  dup3\n    /* \"#utility.yul\":7808:7829   */\n  or\n    /* \"#utility.yul\":7800:7829   */\n  swap1\n  pop\n    /* \"#utility.yul\":7540:7835   */\n  swap3\n  swap2\n  pop\n  pop\n  jump\t// out\n    /* \"#utility.yul\":7840:9235   */\ntag_7:\n    /* \"#utility.yul\":7957:7994   */\n  tag_143\n    /* \"#utility.yul\":7990:7993   */\n  dup3\n    /* \"#utility.yul\":7957:7994   */\n  tag_29\n  jump\t// in\ntag_143:\n    /* \"#utility.yul\":8059:8077   */\n  0xffffffffffffffff\n    /* \"#utility.yul\":8051:8057   */\n  dup2\n    /* \"#utility.yul\":8048:8078   */\n  gt\n    /* \"#utility.yul\":8045:8101   */\n  iszero\n  tag_144\n  jumpi\n    /* \"#utility.yul\":8081:8099   */\n  tag_145\n  tag_15\n  jump\t// in\ntag_145:\n    /* \"#utility.yul\":8045:8101   */\ntag_144:\n    /* \"#utility.yul\":8125:8163   */\n  tag_146\n    /* \"#utility.yul\":8157:8161   */\n  dup3\n    /* \"#utility.yul\":8151:8162   */\n  sload\n    /* \"#utility.yul\":8125:8163   */\n  tag_31\n  jump\t// in\ntag_146:\n    /* \"#utility.yul\":8210:8277   */\n  tag_147\n    /* \"#utility.yul\":8270:8276   */\n  dup3\n    /* \"#utility.yul\":8262:8268   */\n  dup3\n    /* \"#utility.yul\":8256:8260   */\n  dup6\n    /* \"#utility.yul\":8210:8277   */\n  tag_43\n  jump\t// in\ntag_147:\n    /* \"#utility.yul\":8304:8305   */\n  0x00\n    /* \"#utility.yul\":8328:8332   */\n  0x20\n    /* \"#utility.yul\":8315:8332   */\n  swap1\n  pop\n    /* \"#utility.yul\":8360:8362   */\n  0x1f\n    /* \"#utility.yul\":8352:8358   */\n  dup4\n    /* \"#utility.yul\":8349:8363   */\n  gt\n    /* \"#utility.yul\":8377:8378   */\n  0x01\n    /* \"#utility.yul\":8372:8990   */\n  dup2\n  eq\n  tag_149\n  jumpi\n    /* \"#utility.yul\":9034:9035   */\n  0x00\n    /* \"#utility.yul\":9051:9057   */\n  dup5\n    /* \"#utility.yul\":9048:9125   */\n  iszero\n  tag_150\n  jumpi\n    /* \"#utility.yul\":9100:9109   */\n  dup3\n    /* \"#utility.yul\":9095:9098   */\n  dup8\n    /* \"#utility.yul\":9091:9110   */\n  add\n    /* \"#utility.yul\":9085:9111   */\n  mload\n    /* \"#utility.yul\":9076:9111   */\n  swap1\n  pop\n    /* \"#utility.yul\":9048:9125   */\ntag_150:\n    /* \"#utility.yul\":9151:9218   */\n  tag_151\n    /* \"#utility.yul\":9211:9217   */\n  dup6\n    /* \"#utility.yul\":9204:9209   */\n  dup3\n    /* \"#utility.yul\":9151:9218   */\n  tag_46\n  jump\t// in\ntag_151:\n    /* \"#utility.yul\":9145:9149   */\n  dup7\n    /* \"#utility.yul\":9138:9219   */\n  sstore\n    /* \"#utility.yul\":9007:9229   */\n  pop\n    /* \"#utility.yul\":8342:9229   */\n  jump(tag_148)\n    /* \"#utility.yul\":8372:8990   */\ntag_149:\n    /* \"#utility.yul\":8424:8428   */\n  0x1f\n    /* \"#utility.yul\":8420:8429   */\n  not\n    /* \"#utility.yul\":8412:8418   */\n  dup5\n    /* \"#utility.yul\":8408:8430   */\n  and\n    /* \"#utility.yul\":8458:8495   */\n  tag_152\n    /* \"#utility.yul\":8490:8494   */\n  dup7\n    /* \"#utility.yul\":8458:8495   */\n  tag_32\n  jump\t// in\ntag_152:\n    /* \"#utility.yul\":8517:8518   */\n  0x00\n    /* \"#utility.yul\":8531:8739   */\ntag_153:\n    /* \"#utility.yul\":8545:8552   */\n  dup3\n    /* \"#utility.yul\":8542:8543   */\n  dup2\n    /* \"#utility.yul\":8539:8553   */\n  lt\n    /* \"#utility.yul\":8531:8739   */\n  iszero\n  tag_155\n  jumpi\n    /* \"#utility.yul\":8624:8633   */\n  dup5\n    /* \"#utility.yul\":8619:8622   */\n  dup10\n    /* \"#utility.yul\":8615:8634   */\n  add\n    /* \"#utility.yul\":8609:8635   */\n  mload\n    /* \"#utility.yul\":8601:8607   */\n  dup3\n    /* \"#utility.yul\":8594:8636   */\n  sstore\n    /* \"#utility.yul\":8675:8676   */\n  0x01\n    /* \"#utility.yul\":8667:8673   */\n  dup3\n    /* \"#utility.yul\":8663:8677   */\n  add\n    /* \"#utility.yul\":8653:8677   */\n  swap2\n  pop\n    /* \"#utility.yul\":8722:8724   */\n  0x20\n    /* \"#utility.yul\":8711:8720   */\n  dup6\n    /* \"#utility.yul\":8707:8725   */\n  add\n    /* \"#utility.yul\":8694:8725   */\n  swap5\n  pop\n    /* \"#utility.yul\":8568:8572   */\n  0x20\n    /* \"#utility.yul\":8565:8566   */\n  dup2\n    /* \"#utility.yul\":8561:8573   */\n  add\n    /* \"#utility.yul\":8556:8573   */\n  swap1\n  pop\n    /* \"#utility.yul\":8531:8739   */\n  jump(tag_153)\ntag_155:\n    /* \"#utility.yul\":8767:8773   */\n  dup7\n    /* \"#utility.yul\":8758:8765   */\n  dup4\n    /* \"#utility.yul\":8755:8774   */\n  lt\n    /* \"#utility.yul\":8752:8931   */\n  iszero\n  tag_156\n  jumpi\n    /* \"#utility.yul\":8825:8834   */\n  dup5\n    /* \"#utility.yul\":8820:8823   */\n  dup10\n    /* \"#utility.yul\":8816:8835   */\n  add\n    /* \"#utility.yul\":8810:8836   */\n  mload\n    /* \"#utility.yul\":8868:8916   */\n  tag_157\n    /* \"#utility.yul\":8910:8914   */\n  0x1f\n    /* \"#utility.yul\":8902:8908   */\n  dup10\n    /* \"#utility.yul\":8898:8915   */\n  and\n    /* \"#utility.yul\":8887:8896   */\n  dup3\n    /* \"#utility.yul\":8868:8916   */\n  tag_45\n  jump\t// in\ntag_157:\n    /* \"#utility.yul\":8860:8866   */\n  dup4\n    /* \"#utility.yul\":8853:8917   */\n  sstore\n    /* \"#utility.yul\":8775:8931   */\n  pop\n    /* \"#utility.yul\":8752:8931   */\ntag_156:\n    /* \"#utility.yul\":8977:8978   */\n  0x01\n    /* \"#utility.yul\":8973:8974   */\n  0x02\n    /* \"#utility.yul\":8965:8971   */\n  dup9\n    /* \"#utility.yul\":8961:8975   */\n  mul\n    /* \"#utility.yul\":8957:8979   */\n  add\n    /* \"#utility.yul\":8951:8955   */\n  dup9\n    /* \"#utility.yul\":8944:8980   */\n  sstore\n    /* \"#utility.yul\":8379:8990   */\n  pop\n  pop\n  pop\n    /* \"#utility.yul\":8342:9229   */\ntag_148:\n  pop\n    /* \"#utility.yul\":7932:9235   */\n  pop\n  pop\n  pop\n    /* \"#utility.yul\":7840:9235   */\n  pop\n  pop\n  jump\t// out\n    /* \"Day-21/code2.sol\":60:302  contract Constructor{... */\ntag_8:\n  dataSize(sub_0)\n  dup1\n  dataOffset(sub_0)\n  0x00\n  codecopy\n  0x00\n  return\nstop\n\nsub_0: assembly {\n        /* \"Day-21/code2.sol\":60:302  contract Constructor{... */\n      mstore(0x40, 0x80)\n      callvalue\n      dup1\n      iszero\n      tag_1\n      jumpi\n      0x00\n      dup1\n      revert\n    tag_1:\n      pop\n      jumpi(tag_2, lt(calldatasize, 0x04))\n      shr(0xe0, calldataload(0x00))\n      dup1\n      0x06fdde03\n      eq\n      tag_3\n      jumpi\n      dup1\n      0x262a9dff\n      eq\n      tag_4\n      jumpi\n      dup1\n      0x8da5cb5b\n      eq\n      tag_5\n      jumpi\n    tag_2:\n      0x00\n      dup1\n      revert\n        /* \"Day-21/code2.sol\":87:105  string public name */\n    tag_3:\n      tag_6\n      tag_7\n      jump\t// in\n    tag_6:\n      mload(0x40)\n      tag_8\n      swap2\n      swap1\n      tag_9\n      jump\t// in\n    tag_8:\n      mload(0x40)\n      dup1\n      swap2\n      sub\n      swap1\n      return\n        /* \"Day-21/code2.sol\":112:127  uint public age */\n    tag_4:\n      tag_10\n      tag_11\n      jump\t// in\n    tag_10:\n      mload(0x40)\n      tag_12\n      swap2\n      swap1\n      tag_13\n      jump\t// in\n    tag_12:\n      mload(0x40)\n      dup1\n      swap2\n      sub\n      swap1\n      return\n        /* \"Day-21/code2.sol\":134:154  address public owner */\n    tag_5:\n      tag_14\n      tag_15\n      jump\t// in\n    tag_14:\n      mload(0x40)\n      tag_16\n      swap2\n      swap1\n      tag_17\n      jump\t// in\n    tag_16:\n      mload(0x40)\n      dup1\n      swap2\n      sub\n      swap1\n      return\n        /* \"Day-21/code2.sol\":87:105  string public name */\n    tag_7:\n      0x00\n      dup1\n      sload\n      tag_18\n      swap1\n      tag_19\n      jump\t// in\n    tag_18:\n      dup1\n      0x1f\n      add\n      0x20\n      dup1\n      swap2\n      div\n      mul\n      0x20\n      add\n      mload(0x40)\n      swap1\n      dup2\n      add\n      0x40\n      mstore\n      dup1\n      swap3\n      swap2\n      swap1\n      dup2\n      dup2\n      mstore\n      0x20\n      add\n      dup3\n      dup1\n      sload\n      tag_20\n      swap1\n      tag_19\n      jump\t// in\n    tag_20:\n      dup1\n      iszero\n      tag_21\n      jumpi\n      dup1\n      0x1f\n      lt\n      tag_22\n      jumpi\n      0x0100\n      dup1\n      dup4\n      sload\n      div\n      mul\n      dup4\n      mstore\n      swap2\n      0x20\n      add\n      swap2\n      jump(tag_21)\n    tag_22:\n      dup3\n      add\n      swap2\n      swap1\n      0x00\n      mstore\n      keccak256(0x00, 0x20)\n      swap1\n    tag_23:\n      dup2\n      sload\n      dup2\n      mstore\n      swap1\n      0x01\n      add\n      swap1\n      0x20\n      add\n      dup1\n      dup4\n      gt\n      tag_23\n      jumpi\n      dup3\n      swap1\n      sub\n      0x1f\n      and\n      dup3\n      add\n      swap2\n    tag_21:\n      pop\n      pop\n      pop\n      pop\n      pop\n      dup2\n      jump\t// out\n        /* \"Day-21/code2.sol\":112:127  uint public age */\n    tag_11:\n      sload(0x01)\n      dup2\n      jump\t// out\n        /* \"Day-21/code2.sol\":134:154  address public owner */\n    tag_15:\n      0x02\n      0x00\n      swap1\n      sload\n      swap1\n      0x0100\n      exp\n      swap1\n      div\n      0xffffffffffffffffffffffffffffffffffffffff\n      and\n      dup2\n      jump\t// out\n        /* \"#utility.yul\":7:106   */\n    tag_24:\n        /* \"#utility.yul\":59:65   */\n      0x00\n        /* \"#utility.yul\":93:98   */\n      dup2\n        /* \"#utility.yul\":87:99   */\n      mload\n        /* \"#utility.yul\":77:99   */\n      swap1\n      pop\n        /* \"#utility.yul\":7:106   */\n      swap2\n      swap1\n      pop\n      jump\t// out\n        /* \"#utility.yul\":112:281   */\n    tag_25:\n        /* \"#utility.yul\":196:207   */\n      0x00\n        /* \"#utility.yul\":230:236   */\n      dup3\n        /* \"#utility.yul\":225:228   */\n      dup3\n        /* \"#utility.yul\":218:237   */\n      mstore\n        /* \"#utility.yul\":270:274   */\n      0x20\n        /* \"#utility.yul\":265:268   */\n      dup3\n        /* \"#utility.yul\":261:275   */\n      add\n        /* \"#utility.yul\":246:275   */\n      swap1\n      pop\n        /* \"#utility.yul\":112:281   */\n      swap3\n      swap2\n      pop\n      pop\n      jump\t// out\n        /* \"#utility.yul\":287:426   */\n    tag_26:\n        /* \"#utility.yul\":376:382   */\n      dup3\n        /* \"#utility.yul\":371:374   */\n      dup2\n        /* \"#utility.yul\":366:369   */\n      dup4\n        /* \"#utility.yul\":360:383   */\n      mcopy\n        /* \"#utility.yul\":417:418   */\n      0x00\n        /* \"#utility.yul\":408:414   */\n      dup4\n        /* \"#utility.yul\":403:406   */\n      dup4\n        /* \"#utility.yul\":399:415   */\n      add\n        /* \"#utility.yul\":392:419   */\n      mstore\n        /* \"#utility.yul\":287:426   */\n      pop\n      pop\n      pop\n      jump\t// out\n        /* \"#utility.yul\":432:534   */\n    tag_27:\n        /* \"#utility.yul\":473:479   */\n      0x00\n        /* \"#utility.yul\":524:526   */\n      0x1f\n        /* \"#utility.yul\":520:527   */\n      not\n        /* \"#utility.yul\":515:517   */\n      0x1f\n        /* \"#utility.yul\":508:513   */\n      dup4\n        /* \"#utility.yul\":504:518   */\n      add\n        /* \"#utility.yul\":500:528   */\n      and\n        /* \"#utility.yul\":490:528   */\n      swap1\n      pop\n        /* \"#utility.yul\":432:534   */\n      swap2\n      swap1\n      pop\n      jump\t// out\n        /* \"#utility.yul\":540:917   */\n    tag_28:\n        /* \"#utility.yul\":628:631   */\n      0x00\n        /* \"#utility.yul\":656:695   */\n      tag_41\n        /* \"#utility.yul\":689:694   */\n      dup3\n        /* \"#utility.yul\":656:695   */\n      tag_24\n      jump\t// in\n    tag_41:\n        /* \"#utility.yul\":711:782   */\n      tag_42\n        /* \"#utility.yul\":775:781   */\n      dup2\n        /* \"#utility.yul\":770:773   */\n      dup6\n        /* \"#utility.yul\":711:782   */\n      tag_25\n      jump\t// in\n    tag_42:\n        /* \"#utility.yul\":704:782   */\n      swap4\n      pop\n        /* \"#utility.yul\":791:856   */\n      tag_43\n        /* \"#utility.yul\":849:855   */\n      dup2\n        /* \"#utility.yul\":844:847   */\n      dup6\n        /* \"#utility.yul\":837:841   */\n      0x20\n        /* \"#utility.yul\":830:835   */\n      dup7\n        /* \"#utility.yul\":826:842   */\n      add\n        /* \"#utility.yul\":791:856   */\n      tag_26\n      jump\t// in\n    tag_43:\n        /* \"#utility.yul\":881:910   */\n      tag_44\n        /* \"#utility.yul\":903:909   */\n      dup2\n        /* \"#utility.yul\":881:910   */\n      tag_27\n      jump\t// in\n    tag_44:\n        /* \"#utility.yul\":876:879   */\n      dup5\n        /* \"#utility.yul\":872:911   */\n      add\n        /* \"#utility.yul\":865:911   */\n      swap2\n      pop\n        /* \"#utility.yul\":632:917   */\n      pop\n        /* \"#utility.yul\":540:917   */\n      swap3\n      swap2\n      pop\n      pop\n      jump\t// out\n        /* \"#utility.yul\":923:1236   */\n    tag_9:\n        /* \"#utility.yul\":1036:1040   */\n      0x00\n        /* \"#utility.yul\":1074:1076   */\n      0x20\n        /* \"#utility.yul\":1063:1072   */\n      dup3\n        /* \"#utility.yul\":1059:1077   */\n      add\n        /* \"#utility.yul\":1051:1077   */\n      swap1\n      pop\n        /* \"#utility.yul\":1123:1132   */\n      dup2\n        /* \"#utility.yul\":1117:1121   */\n      dup2\n        /* \"#utility.yul\":1113:1133   */\n      sub\n        /* \"#utility.yul\":1109:1110   */\n      0x00\n        /* \"#utility.yul\":1098:1107   */\n      dup4\n        /* \"#utility.yul\":1094:1111   */\n      add\n        /* \"#utility.yul\":1087:1134   */\n      mstore\n        /* \"#utility.yul\":1151:1229   */\n      tag_46\n        /* \"#utility.yul\":1224:1228   */\n      dup2\n        /* \"#utility.yul\":1215:1221   */\n      dup5\n        /* \"#utility.yul\":1151:1229   */\n      tag_28\n      jump\t// in\n    tag_46:\n        /* \"#utility.yul\":1143:1229   */\n      swap1\n      pop\n        /* \"#utility.yul\":923:1236   */\n      swap3\n      swap2\n      pop\n      pop\n      jump\t// out\n        /* \"#utility.yul\":1242:1319   */\n    tag_29:\n        /* \"#utility.yul\":1279:1286   */\n      0x00\n        /* \"#utility.yul\":1308:1313   */\n      dup2\n        /* \"#utility.yul\":1297:1313   */\n      swap1\n      pop\n        /* \"#utility.yul\":1242:1319   */\n      swap2\n      swap1\n      pop\n      jump\t// out\n        /* \"#utility.yul\":1325:1443   */\n    tag_30:\n        /* \"#utility.yul\":1412:1436   */\n      tag_49\n        /* \"#utility.yul\":1430:1435   */\n      dup2\n        /* \"#utility.yul\":1412:1436   */\n      tag_29\n      jump\t// in\n    tag_49:\n        /* \"#utility.yul\":1407:1410   */\n      dup3\n        /* \"#utility.yul\":1400:1437   */\n      mstore\n        /* \"#utility.yul\":1325:1443   */\n      pop\n      pop\n      jump\t// out\n        /* \"#utility.yul\":1449:1671   */\n    tag_13:\n        /* \"#utility.yul\":1542:1546   */\n      0x00\n        /* \"#utility.yul\":1580:1582   */\n      0x20\n        /* \"#utility.yul\":1569:1578   */\n      dup3\n        /* \"#utility.yul\":1565:1583   */\n      add\n        /* \"#utility.yul\":1557:1583   */\n      swap1\n      pop\n        /* \"#utility.yul\":1593:1664   */\n      tag_51\n        /* \"#utility.yul\":1661:1662   */\n      0x00\n        /* \"#utility.yul\":1650:1659   */\n      dup4\n        /* \"#utility.yul\":1646:1663   */\n      add\n        /* \"#utility.yul\":1637:1643   */\n      dup5\n        /* \"#utility.yul\":1593:1664   */\n      tag_30\n      jump\t// in\n    tag_51:\n        /* \"#utility.yul\":1449:1671   */\n      swap3\n      swap2\n      pop\n      pop\n      jump\t// out\n        /* \"#utility.yul\":1677:1803   */\n    tag_31:\n        /* \"#utility.yul\":1714:1721   */\n      0x00\n        /* \"#utility.yul\":1754:1796   */\n      0xffffffffffffffffffffffffffffffffffffffff\n        /* \"#utility.yul\":1747:1752   */\n      dup3\n        /* \"#utility.yul\":1743:1797   */\n      and\n        /* \"#utility.yul\":1732:1797   */\n      swap1\n      pop\n        /* \"#utility.yul\":1677:1803   */\n      swap2\n      swap1\n      pop\n      jump\t// out\n        /* \"#utility.yul\":1809:1905   */\n    tag_32:\n        /* \"#utility.yul\":1846:1853   */\n      0x00\n        /* \"#utility.yul\":1875:1899   */\n      tag_54\n        /* \"#utility.yul\":1893:1898   */\n      dup3\n        /* \"#utility.yul\":1875:1899   */\n      tag_31\n      jump\t// in\n    tag_54:\n        /* \"#utility.yul\":1864:1899   */\n      swap1\n      pop\n        /* \"#utility.yul\":1809:1905   */\n      swap2\n      swap1\n      pop\n      jump\t// out\n        /* \"#utility.yul\":1911:2029   */\n    tag_33:\n        /* \"#utility.yul\":1998:2022   */\n      tag_56\n        /* \"#utility.yul\":2016:2021   */\n      dup2\n        /* \"#utility.yul\":1998:2022   */\n      tag_32\n      jump\t// in\n    tag_56:\n        /* \"#utility.yul\":1993:1996   */\n      dup3\n        /* \"#utility.yul\":1986:2023   */\n      mstore\n        /* \"#utility.yul\":1911:2029   */\n      pop\n      pop\n      jump\t// out\n        /* \"#utility.yul\":2035:2257   */\n    tag_17:\n        /* \"#utility.yul\":2128:2132   */\n      0x00\n        /* \"#utility.yul\":2166:2168   */\n      0x20\n        /* \"#utility.yul\":2155:2164   */\n      dup3\n        /* \"#utility.yul\":2151:2169   */\n      add\n        /* \"#utility.yul\":2143:2169   */\n      swap1\n      pop\n        /* \"#utility.yul\":2179:2250   */\n      tag_58\n        /* \"#utility.yul\":2247:2248   */\n      0x00\n        /* \"#utility.yul\":2236:2245   */\n      dup4\n        /* \"#utility.yul\":2232:2249   */\n      add\n        /* \"#utility.yul\":2223:2229   */\n      dup5\n        /* \"#utility.yul\":2179:2250   */\n      tag_33\n      jump\t// in\n    tag_58:\n        /* \"#utility.yul\":2035:2257   */\n      swap3\n      swap2\n      pop\n      pop\n      jump\t// out\n        /* \"#utility.yul\":2263:2443   */\n    tag_34:\n        /* \"#utility.yul\":2311:2388   */\n      0x4e487b7100000000000000000000000000000000000000000000000000000000\n        /* \"#utility.yul\":2308:2309   */\n      0x00\n        /* \"#utility.yul\":2301:2389   */\n      mstore\n        /* \"#utility.yul\":2408:2412   */\n      0x22\n        /* \"#utility.yul\":2405:2406   */\n      0x04\n        /* \"#utility.yul\":2398:2413   */\n      mstore\n        /* \"#utility.yul\":2432:2436   */\n      0x24\n        /* \"#utility.yul\":2429:2430   */\n      0x00\n        /* \"#utility.yul\":2422:2437   */\n      revert\n        /* \"#utility.yul\":2449:2769   */\n    tag_19:\n        /* \"#utility.yul\":2493:2499   */\n      0x00\n        /* \"#utility.yul\":2530:2531   */\n      0x02\n        /* \"#utility.yul\":2524:2528   */\n      dup3\n        /* \"#utility.yul\":2520:2532   */\n      div\n        /* \"#utility.yul\":2510:2532   */\n      swap1\n      pop\n        /* \"#utility.yul\":2577:2578   */\n      0x01\n        /* \"#utility.yul\":2571:2575   */\n      dup3\n        /* \"#utility.yul\":2567:2579   */\n      and\n        /* \"#utility.yul\":2598:2616   */\n      dup1\n        /* \"#utility.yul\":2588:2669   */\n      tag_61\n      jumpi\n        /* \"#utility.yul\":2654:2658   */\n      0x7f\n        /* \"#utility.yul\":2646:2652   */\n      dup3\n        /* \"#utility.yul\":2642:2659   */\n      and\n        /* \"#utility.yul\":2632:2659   */\n      swap2\n      pop\n        /* \"#utility.yul\":2588:2669   */\n    tag_61:\n        /* \"#utility.yul\":2716:2718   */\n      0x20\n        /* \"#utility.yul\":2708:2714   */\n      dup3\n        /* \"#utility.yul\":2705:2719   */\n      lt\n        /* \"#utility.yul\":2685:2703   */\n      dup2\n        /* \"#utility.yul\":2682:2720   */\n      sub\n        /* \"#utility.yul\":2679:2763   */\n      tag_62\n      jumpi\n        /* \"#utility.yul\":2735:2753   */\n      tag_63\n      tag_34\n      jump\t// in\n    tag_63:\n        /* \"#utility.yul\":2679:2763   */\n    tag_62:\n        /* \"#utility.yul\":2500:2769   */\n      pop\n        /* \"#utility.yul\":2449:2769   */\n      swap2\n      swap1\n      pop\n      jump\t// out\n\n    auxdata: 0xa264697066735822122062da6d94fc983ecb1ee6b56bb5cb6f530fc68cc90c06ada04f716d11ce1da72f64736f6c634300081a0033\n}\n",
				"bytecode": {
					"linkReferences": {},
					"object": "608060405234801561000f575f80fd5b506040516108b43803806108b483398181016040528101906100319190610269565b825f908161003f91906104d9565b50816001819055508060025f6101000a81548173ffffffffffffffffffffffffffffffffffffffff021916908373ffffffffffffffffffffffffffffffffffffffff1602179055505050506105a8565b5f604051905090565b5f80fd5b5f80fd5b5f80fd5b5f80fd5b5f601f19601f8301169050919050565b7f4e487b71000000000000000000000000000000000000000000000000000000005f52604160045260245ffd5b6100ee826100a8565b810181811067ffffffffffffffff8211171561010d5761010c6100b8565b5b80604052505050565b5f61011f61008f565b905061012b82826100e5565b919050565b5f67ffffffffffffffff82111561014a576101496100b8565b5b610153826100a8565b9050602081019050919050565b8281835e5f83830152505050565b5f61018061017b84610130565b610116565b90508281526020810184848401111561019c5761019b6100a4565b5b6101a7848285610160565b509392505050565b5f82601f8301126101c3576101c26100a0565b5b81516101d384826020860161016e565b91505092915050565b5f819050919050565b6101ee816101dc565b81146101f8575f80fd5b50565b5f81519050610209816101e5565b92915050565b5f73ffffffffffffffffffffffffffffffffffffffff82169050919050565b5f6102388261020f565b9050919050565b6102488161022e565b8114610252575f80fd5b50565b5f815190506102638161023f565b92915050565b5f805f606084860312156102805761027f610098565b5b5f84015167ffffffffffffffff81111561029d5761029c61009c565b5b6102a9868287016101af565b93505060206102ba868287016101fb565b92505060406102cb86828701610255565b9150509250925092565b5f81519050919050565b7f4e487b71000000000000000000000000000000000000000000000000000000005f52602260045260245ffd5b5f600282049050600182168061032357607f821691505b602082108103610336576103356102df565b5b50919050565b5f819050815f5260205f209050919050565b5f6020601f8301049050919050565b5f82821b905092915050565b5f600883026103987fffffffffffffffffffffffffffffffffffffffffffffffffffffffffffffffff8261035d565b6103a2868361035d565b95508019841693508086168417925050509392505050565b5f819050919050565b5f6103dd6103d86103d3846101dc565b6103ba565b6101dc565b9050919050565b5f819050919050565b6103f6836103c3565b61040a610402826103e4565b848454610369565b825550505050565b5f90565b61041e610412565b6104298184846103ed565b505050565b5b8181101561044c576104415f82610416565b60018101905061042f565b5050565b601f821115610491576104628161033c565b61046b8461034e565b8101602085101561047a578190505b61048e6104868561034e565b83018261042e565b50505b505050565b5f82821c905092915050565b5f6104b15f1984600802610496565b1980831691505092915050565b5f6104c983836104a2565b9150826002028217905092915050565b6104e2826102d5565b67ffffffffffffffff8111156104fb576104fa6100b8565b5b610505825461030c565b610510828285610450565b5f60209050601f831160018114610541575f841561052f578287015190505b61053985826104be565b8655506105a0565b601f19841661054f8661033c565b5f5b8281101561057657848901518255600182019150602085019450602081019050610551565b86831015610593578489015161058f601f8916826104a2565b8355505b6001600288020188555050505b505050505050565b6102ff806105b55f395ff3fe608060405234801561000f575f80fd5b506004361061003f575f3560e01c806306fdde0314610043578063262a9dff146100615780638da5cb5b1461007f575b5f80fd5b61004b61009d565b60405161005891906101c3565b60405180910390f35b610069610128565b60405161007691906101fb565b60405180910390f35b61008761012e565b6040516100949190610253565b60405180910390f35b5f80546100a990610299565b80601f01602080910402602001604051908101604052809291908181526020018280546100d590610299565b80156101205780601f106100f757610100808354040283529160200191610120565b820191905f5260205f20905b81548152906001019060200180831161010357829003601f168201915b505050505081565b60015481565b60025f9054906101000a900473ffffffffffffffffffffffffffffffffffffffff1681565b5f81519050919050565b5f82825260208201905092915050565b8281835e5f83830152505050565b5f601f19601f8301169050919050565b5f61019582610153565b61019f818561015d565b93506101af81856020860161016d565b6101b88161017b565b840191505092915050565b5f6020820190508181035f8301526101db818461018b565b905092915050565b5f819050919050565b6101f5816101e3565b82525050565b5f60208201905061020e5f8301846101ec565b92915050565b5f73ffffffffffffffffffffffffffffffffffffffff82169050919050565b5f61023d82610214565b9050919050565b61024d81610233565b82525050565b5f6020820190506102665f830184610244565b92915050565b7f4e487b71000000000000000000000000000000000000000000000000000000005f52602260045260245ffd5b5f60028204905060018216806102b057607f821691505b6020821081036102c3576102c261026c565b5b5091905056fea264697066735822122062da6d94fc983ecb1ee6b56bb5cb6f530fc68cc90c06ada04f716d11ce1da72f64736f6c634300081a0033",
					"opcodes": "PUSH1 0x80 PUSH1 0x40 MSTORE CALLVALUE DUP1 ISZERO PUSH2 0xF JUMPI PUSH0 DUP1 REVERT JUMPDEST POP PUSH1 0x40 MLOAD PUSH2 0x8B4 CODESIZE SUB DUP1 PUSH2 0x8B4 DUP4 CODECOPY DUP2 DUP2 ADD PUSH1 0x40 MSTORE DUP2 ADD SWAP1 PUSH2 0x31 SWAP2 SWAP1 PUSH2 0x269 JUMP JUMPDEST DUP3 PUSH0 SWAP1 DUP2 PUSH2 0x3F SWAP2 SWAP1 PUSH2 0x4D9 JUMP JUMPDEST POP DUP2 PUSH1 0x1 DUP2 SWAP1 SSTORE POP DUP1 PUSH1 0x2 PUSH0 PUSH2 0x100 EXP DUP2 SLOAD DUP2 PUSH20 0xFFFFFFFFFFFFFFFFFFFFFFFFFFFFFFFFFFFFFFFF MUL NOT AND SWAP1 DUP4 PUSH20 0xFFFFFFFFFFFFFFFFFFFFFFFFFFFFFFFFFFFFFFFF AND MUL OR SWAP1 SSTORE POP POP POP POP PUSH2 0x5A8 JUMP JUMPDEST PUSH0 PUSH1 0x40 MLOAD SWAP1 POP SWAP1 JUMP JUMPDEST PUSH0 DUP1 REVERT JUMPDEST PUSH0 DUP1 REVERT JUMPDEST PUSH0 DUP1 REVERT JUMPDEST PUSH0 DUP1 REVERT JUMPDEST PUSH0 PUSH1 0x1F NOT PUSH1 0x1F DUP4 ADD AND SWAP1 POP SWAP2 SWAP1 POP JUMP JUMPDEST PUSH32 0x4E487B7100000000000000000000000000000000000000000000000000000000 PUSH0 MSTORE PUSH1 0x41 PUSH1 0x4 MSTORE PUSH1 0x24 PUSH0 REVERT JUMPDEST PUSH2 0xEE DUP3 PUSH2 0xA8 JUMP JUMPDEST DUP2 ADD DUP2 DUP2 LT PUSH8 0xFFFFFFFFFFFFFFFF DUP3 GT OR ISZERO PUSH2 0x10D JUMPI PUSH2 0x10C PUSH2 0xB8 JUMP JUMPDEST JUMPDEST DUP1 PUSH1 0x40 MSTORE POP POP POP JUMP JUMPDEST PUSH0 PUSH2 0x11F PUSH2 0x8F JUMP JUMPDEST SWAP1 POP PUSH2 0x12B DUP3 DUP3 PUSH2 0xE5 JUMP JUMPDEST SWAP2 SWAP1 POP JUMP JUMPDEST PUSH0 PUSH8 0xFFFFFFFFFFFFFFFF DUP3 GT ISZERO PUSH2 0x14A JUMPI PUSH2 0x149 PUSH2 0xB8 JUMP JUMPDEST JUMPDEST PUSH2 0x153 DUP3 PUSH2 0xA8 JUMP JUMPDEST SWAP1 POP PUSH1 0x20 DUP2 ADD SWAP1 POP SWAP2 SWAP1 POP JUMP JUMPDEST DUP3 DUP2 DUP4 MCOPY PUSH0 DUP4 DUP4 ADD MSTORE POP POP POP JUMP JUMPDEST PUSH0 PUSH2 0x180 PUSH2 0x17B DUP5 PUSH2 0x130 JUMP JUMPDEST PUSH2 0x116 JUMP JUMPDEST SWAP1 POP DUP3 DUP2 MSTORE PUSH1 0x20 DUP2 ADD DUP5 DUP5 DUP5 ADD GT ISZERO PUSH2 0x19C JUMPI PUSH2 0x19B PUSH2 0xA4 JUMP JUMPDEST JUMPDEST PUSH2 0x1A7 DUP5 DUP3 DUP6 PUSH2 0x160 JUMP JUMPDEST POP SWAP4 SWAP3 POP POP POP JUMP JUMPDEST PUSH0 DUP3 PUSH1 0x1F DUP4 ADD SLT PUSH2 0x1C3 JUMPI PUSH2 0x1C2 PUSH2 0xA0 JUMP JUMPDEST JUMPDEST DUP2 MLOAD PUSH2 0x1D3 DUP5 DUP3 PUSH1 0x20 DUP7 ADD PUSH2 0x16E JUMP JUMPDEST SWAP2 POP POP SWAP3 SWAP2 POP POP JUMP JUMPDEST PUSH0 DUP2 SWAP1 POP SWAP2 SWAP1 POP JUMP JUMPDEST PUSH2 0x1EE DUP2 PUSH2 0x1DC JUMP JUMPDEST DUP2 EQ PUSH2 0x1F8 JUMPI PUSH0 DUP1 REVERT JUMPDEST POP JUMP JUMPDEST PUSH0 DUP2 MLOAD SWAP1 POP PUSH2 0x209 DUP2 PUSH2 0x1E5 JUMP JUMPDEST SWAP3 SWAP2 POP POP JUMP JUMPDEST PUSH0 PUSH20 0xFFFFFFFFFFFFFFFFFFFFFFFFFFFFFFFFFFFFFFFF DUP3 AND SWAP1 POP SWAP2 SWAP1 POP JUMP JUMPDEST PUSH0 PUSH2 0x238 DUP3 PUSH2 0x20F JUMP JUMPDEST SWAP1 POP SWAP2 SWAP1 POP JUMP JUMPDEST PUSH2 0x248 DUP2 PUSH2 0x22E JUMP JUMPDEST DUP2 EQ PUSH2 0x252 JUMPI PUSH0 DUP1 REVERT JUMPDEST POP JUMP JUMPDEST PUSH0 DUP2 MLOAD SWAP1 POP PUSH2 0x263 DUP2 PUSH2 0x23F JUMP JUMPDEST SWAP3 SWAP2 POP POP JUMP JUMPDEST PUSH0 DUP1 PUSH0 PUSH1 0x60 DUP5 DUP7 SUB SLT ISZERO PUSH2 0x280 JUMPI PUSH2 0x27F PUSH2 0x98 JUMP JUMPDEST JUMPDEST PUSH0 DUP5 ADD MLOAD PUSH8 0xFFFFFFFFFFFFFFFF DUP2 GT ISZERO PUSH2 0x29D JUMPI PUSH2 0x29C PUSH2 0x9C JUMP JUMPDEST JUMPDEST PUSH2 0x2A9 DUP7 DUP3 DUP8 ADD PUSH2 0x1AF JUMP JUMPDEST SWAP4 POP POP PUSH1 0x20 PUSH2 0x2BA DUP7 DUP3 DUP8 ADD PUSH2 0x1FB JUMP JUMPDEST SWAP3 POP POP PUSH1 0x40 PUSH2 0x2CB DUP7 DUP3 DUP8 ADD PUSH2 0x255 JUMP JUMPDEST SWAP2 POP POP SWAP3 POP SWAP3 POP SWAP3 JUMP JUMPDEST PUSH0 DUP2 MLOAD SWAP1 POP SWAP2 SWAP1 POP JUMP JUMPDEST PUSH32 0x4E487B7100000000000000000000000000000000000000000000000000000000 PUSH0 MSTORE PUSH1 0x22 PUSH1 0x4 MSTORE PUSH1 0x24 PUSH0 REVERT JUMPDEST PUSH0 PUSH1 0x2 DUP3 DIV SWAP1 POP PUSH1 0x1 DUP3 AND DUP1 PUSH2 0x323 JUMPI PUSH1 0x7F DUP3 AND SWAP2 POP JUMPDEST PUSH1 0x20 DUP3 LT DUP2 SUB PUSH2 0x336 JUMPI PUSH2 0x335 PUSH2 0x2DF JUMP JUMPDEST JUMPDEST POP SWAP2 SWAP1 POP JUMP JUMPDEST PUSH0 DUP2 SWAP1 POP DUP2 PUSH0 MSTORE PUSH1 0x20 PUSH0 KECCAK256 SWAP1 POP SWAP2 SWAP1 POP JUMP JUMPDEST PUSH0 PUSH1 0x20 PUSH1 0x1F DUP4 ADD DIV SWAP1 POP SWAP2 SWAP1 POP JUMP JUMPDEST PUSH0 DUP3 DUP3 SHL SWAP1 POP SWAP3 SWAP2 POP POP JUMP JUMPDEST PUSH0 PUSH1 0x8 DUP4 MUL PUSH2 0x398 PUSH32 0xFFFFFFFFFFFFFFFFFFFFFFFFFFFFFFFFFFFFFFFFFFFFFFFFFFFFFFFFFFFFFFFF DUP3 PUSH2 0x35D JUMP JUMPDEST PUSH2 0x3A2 DUP7 DUP4 PUSH2 0x35D JUMP JUMPDEST SWAP6 POP DUP1 NOT DUP5 AND SWAP4 POP DUP1 DUP7 AND DUP5 OR SWAP3 POP POP POP SWAP4 SWAP3 POP POP POP JUMP JUMPDEST PUSH0 DUP2 SWAP1 POP SWAP2 SWAP1 POP JUMP JUMPDEST PUSH0 PUSH2 0x3DD PUSH2 0x3D8 PUSH2 0x3D3 DUP5 PUSH2 0x1DC JUMP JUMPDEST PUSH2 0x3BA JUMP JUMPDEST PUSH2 0x1DC JUMP JUMPDEST SWAP1 POP SWAP2 SWAP1 POP JUMP JUMPDEST PUSH0 DUP2 SWAP1 POP SWAP2 SWAP1 POP JUMP JUMPDEST PUSH2 0x3F6 DUP4 PUSH2 0x3C3 JUMP JUMPDEST PUSH2 0x40A PUSH2 0x402 DUP3 PUSH2 0x3E4 JUMP JUMPDEST DUP5 DUP5 SLOAD PUSH2 0x369 JUMP JUMPDEST DUP3 SSTORE POP POP POP POP JUMP JUMPDEST PUSH0 SWAP1 JUMP JUMPDEST PUSH2 0x41E PUSH2 0x412 JUMP JUMPDEST PUSH2 0x429 DUP2 DUP5 DUP5 PUSH2 0x3ED JUMP JUMPDEST POP POP POP JUMP JUMPDEST JUMPDEST DUP2 DUP2 LT ISZERO PUSH2 0x44C JUMPI PUSH2 0x441 PUSH0 DUP3 PUSH2 0x416 JUMP JUMPDEST PUSH1 0x1 DUP2 ADD SWAP1 POP PUSH2 0x42F JUMP JUMPDEST POP POP JUMP JUMPDEST PUSH1 0x1F DUP3 GT ISZERO PUSH2 0x491 JUMPI PUSH2 0x462 DUP2 PUSH2 0x33C JUMP JUMPDEST PUSH2 0x46B DUP5 PUSH2 0x34E JUMP JUMPDEST DUP2 ADD PUSH1 0x20 DUP6 LT ISZERO PUSH2 0x47A JUMPI DUP2 SWAP1 POP JUMPDEST PUSH2 0x48E PUSH2 0x486 DUP6 PUSH2 0x34E JUMP JUMPDEST DUP4 ADD DUP3 PUSH2 0x42E JUMP JUMPDEST POP POP JUMPDEST POP POP POP JUMP JUMPDEST PUSH0 DUP3 DUP3 SHR SWAP1 POP SWAP3 SWAP2 POP POP JUMP JUMPDEST PUSH0 PUSH2 0x4B1 PUSH0 NOT DUP5 PUSH1 0x8 MUL PUSH2 0x496 JUMP JUMPDEST NOT DUP1 DUP4 AND SWAP2 POP POP SWAP3 SWAP2 POP POP JUMP JUMPDEST PUSH0 PUSH2 0x4C9 DUP4 DUP4 PUSH2 0x4A2 JUMP JUMPDEST SWAP2 POP DUP3 PUSH1 0x2 MUL DUP3 OR SWAP1 POP SWAP3 SWAP2 POP POP JUMP JUMPDEST PUSH2 0x4E2 DUP3 PUSH2 0x2D5 JUMP JUMPDEST PUSH8 0xFFFFFFFFFFFFFFFF DUP2 GT ISZERO PUSH2 0x4FB JUMPI PUSH2 0x4FA PUSH2 0xB8 JUMP JUMPDEST JUMPDEST PUSH2 0x505 DUP3 SLOAD PUSH2 0x30C JUMP JUMPDEST PUSH2 0x510 DUP3 DUP3 DUP6 PUSH2 0x450 JUMP JUMPDEST PUSH0 PUSH1 0x20 SWAP1 POP PUSH1 0x1F DUP4 GT PUSH1 0x1 DUP2 EQ PUSH2 0x541 JUMPI PUSH0 DUP5 ISZERO PUSH2 0x52F JUMPI DUP3 DUP8 ADD MLOAD SWAP1 POP JUMPDEST PUSH2 0x539 DUP6 DUP3 PUSH2 0x4BE JUMP JUMPDEST DUP7 SSTORE POP PUSH2 0x5A0 JUMP JUMPDEST PUSH1 0x1F NOT DUP5 AND PUSH2 0x54F DUP7 PUSH2 0x33C JUMP JUMPDEST PUSH0 JUMPDEST DUP3 DUP2 LT ISZERO PUSH2 0x576 JUMPI DUP5 DUP10 ADD MLOAD DUP3 SSTORE PUSH1 0x1 DUP3 ADD SWAP2 POP PUSH1 0x20 DUP6 ADD SWAP5 POP PUSH1 0x20 DUP2 ADD SWAP1 POP PUSH2 0x551 JUMP JUMPDEST DUP7 DUP4 LT ISZERO PUSH2 0x593 JUMPI DUP5 DUP10 ADD MLOAD PUSH2 0x58F PUSH1 0x1F DUP10 AND DUP3 PUSH2 0x4A2 JUMP JUMPDEST DUP4 SSTORE POP JUMPDEST PUSH1 0x1 PUSH1 0x2 DUP9 MUL ADD DUP9 SSTORE POP POP POP JUMPDEST POP POP POP POP POP POP JUMP JUMPDEST PUSH2 0x2FF DUP1 PUSH2 0x5B5 PUSH0 CODECOPY PUSH0 RETURN INVALID PUSH1 0x80 PUSH1 0x40 MSTORE CALLVALUE DUP1 ISZERO PUSH2 0xF JUMPI PUSH0 DUP1 REVERT JUMPDEST POP PUSH1 0x4 CALLDATASIZE LT PUSH2 0x3F JUMPI PUSH0 CALLDATALOAD PUSH1 0xE0 SHR DUP1 PUSH4 0x6FDDE03 EQ PUSH2 0x43 JUMPI DUP1 PUSH4 0x262A9DFF EQ PUSH2 0x61 JUMPI DUP1 PUSH4 0x8DA5CB5B EQ PUSH2 0x7F JUMPI JUMPDEST PUSH0 DUP1 REVERT JUMPDEST PUSH2 0x4B PUSH2 0x9D JUMP JUMPDEST PUSH1 0x40 MLOAD PUSH2 0x58 SWAP2 SWAP1 PUSH2 0x1C3 JUMP JUMPDEST PUSH1 0x40 MLOAD DUP1 SWAP2 SUB SWAP1 RETURN JUMPDEST PUSH2 0x69 PUSH2 0x128 JUMP JUMPDEST PUSH1 0x40 MLOAD PUSH2 0x76 SWAP2 SWAP1 PUSH2 0x1FB JUMP JUMPDEST PUSH1 0x40 MLOAD DUP1 SWAP2 SUB SWAP1 RETURN JUMPDEST PUSH2 0x87 PUSH2 0x12E JUMP JUMPDEST PUSH1 0x40 MLOAD PUSH2 0x94 SWAP2 SWAP1 PUSH2 0x253 JUMP JUMPDEST PUSH1 0x40 MLOAD DUP1 SWAP2 SUB SWAP1 RETURN JUMPDEST PUSH0 DUP1 SLOAD PUSH2 0xA9 SWAP1 PUSH2 0x299 JUMP JUMPDEST DUP1 PUSH1 0x1F ADD PUSH1 0x20 DUP1 SWAP2 DIV MUL PUSH1 0x20 ADD PUSH1 0x40 MLOAD SWAP1 DUP2 ADD PUSH1 0x40 MSTORE DUP1 SWAP3 SWAP2 SWAP1 DUP2 DUP2 MSTORE PUSH1 0x20 ADD DUP3 DUP1 SLOAD PUSH2 0xD5 SWAP1 PUSH2 0x299 JUMP JUMPDEST DUP1 ISZERO PUSH2 0x120 JUMPI DUP1 PUSH1 0x1F LT PUSH2 0xF7 JUMPI PUSH2 0x100 DUP1 DUP4 SLOAD DIV MUL DUP4 MSTORE SWAP2 PUSH1 0x20 ADD SWAP2 PUSH2 0x120 JUMP JUMPDEST DUP3 ADD SWAP2 SWAP1 PUSH0 MSTORE PUSH1 0x20 PUSH0 KECCAK256 SWAP1 JUMPDEST DUP2 SLOAD DUP2 MSTORE SWAP1 PUSH1 0x1 ADD SWAP1 PUSH1 0x20 ADD DUP1 DUP4 GT PUSH2 0x103 JUMPI DUP3 SWAP1 SUB PUSH1 0x1F AND DUP3 ADD SWAP2 JUMPDEST POP POP POP POP POP DUP2 JUMP JUMPDEST PUSH1 0x1 SLOAD DUP2 JUMP JUMPDEST PUSH1 0x2 PUSH0 SWAP1 SLOAD SWAP1 PUSH2 0x100 EXP SWAP1 DIV PUSH20 0xFFFFFFFFFFFFFFFFFFFFFFFFFFFFFFFFFFFFFFFF AND DUP2 JUMP JUMPDEST PUSH0 DUP2 MLOAD SWAP1 POP SWAP2 SWAP1 POP JUMP JUMPDEST PUSH0 DUP3 DUP3 MSTORE PUSH1 0x20 DUP3 ADD SWAP1 POP SWAP3 SWAP2 POP POP JUMP JUMPDEST DUP3 DUP2 DUP4 MCOPY PUSH0 DUP4 DUP4 ADD MSTORE POP POP POP JUMP JUMPDEST PUSH0 PUSH1 0x1F NOT PUSH1 0x1F DUP4 ADD AND SWAP1 POP SWAP2 SWAP1 POP JUMP JUMPDEST PUSH0 PUSH2 0x195 DUP3 PUSH2 0x153 JUMP JUMPDEST PUSH2 0x19F DUP2 DUP6 PUSH2 0x15D JUMP JUMPDEST SWAP4 POP PUSH2 0x1AF DUP2 DUP6 PUSH1 0x20 DUP7 ADD PUSH2 0x16D JUMP JUMPDEST PUSH2 0x1B8 DUP2 PUSH2 0x17B JUMP JUMPDEST DUP5 ADD SWAP2 POP POP SWAP3 SWAP2 POP POP JUMP JUMPDEST PUSH0 PUSH1 0x20 DUP3 ADD SWAP1 POP DUP2 DUP2 SUB PUSH0 DUP4 ADD MSTORE PUSH2 0x1DB DUP2 DUP5 PUSH2 0x18B JUMP JUMPDEST SWAP1 POP SWAP3 SWAP2 POP POP JUMP JUMPDEST PUSH0 DUP2 SWAP1 POP SWAP2 SWAP1 POP JUMP JUMPDEST PUSH2 0x1F5 DUP2 PUSH2 0x1E3 JUMP JUMPDEST DUP3 MSTORE POP POP JUMP JUMPDEST PUSH0 PUSH1 0x20 DUP3 ADD SWAP1 POP PUSH2 0x20E PUSH0 DUP4 ADD DUP5 PUSH2 0x1EC JUMP JUMPDEST SWAP3 SWAP2 POP POP JUMP JUMPDEST PUSH0 PUSH20 0xFFFFFFFFFFFFFFFFFFFFFFFFFFFFFFFFFFFFFFFF DUP3 AND SWAP1 POP SWAP2 SWAP1 POP JUMP JUMPDEST PUSH0 PUSH2 0x23D DUP3 PUSH2 0x214 JUMP JUMPDEST SWAP1 POP SWAP2 SWAP1 POP JUMP JUMPDEST PUSH2 0x24D DUP2 PUSH2 0x233 JUMP JUMPDEST DUP3 MSTORE POP POP JUMP JUMPDEST PUSH0 PUSH1 0x20 DUP3 ADD SWAP1 POP PUSH2 0x266 PUSH0 DUP4 ADD DUP5 PUSH2 0x244 JUMP JUMPDEST SWAP3 SWAP2 POP POP JUMP JUMPDEST PUSH32 0x4E487B7100000000000000000000000000000000000000000000000000000000 PUSH0 MSTORE PUSH1 0x22 PUSH1 0x4 MSTORE PUSH1 0x24 PUSH0 REVERT JUMPDEST PUSH0 PUSH1 0x2 DUP3 DIV SWAP1 POP PUSH1 0x1 DUP3 AND DUP1 PUSH2 0x2B0 JUMPI PUSH1 0x7F DUP3 AND SWAP2 POP JUMPDEST PUSH1 0x20 DUP3 LT DUP2 SUB PUSH2 0x2C3 JUMPI PUSH2 0x2C2 PUSH2 0x26C JUMP JUMPDEST JUMPDEST POP SWAP2 SWAP1 POP JUMP INVALID LOG2 PUSH5 0x6970667358 0x22 SLT KECCAK256 PUSH3 0xDA6D94 0xFC SWAP9 RETURNDATACOPY 0xCB 0x1E 0xE6 0xB5 PUSH12 0xB5CB6F530FC68CC90C06ADA0 0x4F PUSH18 0x6D11CE1DA72F64736F6C634300081A003300 "
				},
				"gasEstimates": {
					"creation": {
						"codeDepositCost": "153400",
						"executionCost": "infinite",
						"totalCost": "infinite"
					},
					"external": {
						"age()": "2425",
						"name()": "infinite",
						"owner()": "2530"
					}
				},
				"methodIdentifiers": {
					"age()": "262a9dff",
					"name()": "06fdde03",
					"owner()": "8da5cb5b"
				}
			},
			"storageLayout": {
				"storage": [
					{
						"astId": 3,
						"contract": "Day-21/code2.sol:Constructor",
						"label": "name",
						"offset": 0,
						"slot": "0",
						"type": "t_string_storage"
					},
					{
						"astId": 5,
						"contract": "Day-21/code2.sol:Constructor",
						"label": "age",
						"offset": 0,
						"slot": "1",
						"type": "t_uint256"
					},
					{
						"astId": 7,
						"contract": "Day-21/code2.sol:Constructor",
						"label": "owner",
						"offset": 0,
						"slot": "2",
						"type": "t_address"
					}
				],
				"types": {
					"t_address": {
						"encoding": "inplace",
						"label": "address",
						"numberOfBytes": "20"
					},
					"t_string_storage": {
						"encoding": "bytes",
						"label": "string",
						"numberOfBytes": "32"
					},
					"t_uint256": {
						"encoding": "inplace",
						"label": "uint256",
						"numberOfBytes": "32"
					}
				}
			},
			"userdoc": {
				"kind": "user",
				"methods": {},
				"version": 1
			}
		}
	}
}