{
	"Day-21/code3.sol": {
		"A": {
			"abi": [
				{
					"inputs": [
						{
							"internalType": "string",
							"name": "_name",
							"type": "string"
						},
						{
							"internalType": "uint256",
							"name": "_age",
							"type": "uint256"
						}
					],
					"stateMutability": "nonpayable",
					"type": "constructor"
				},
				{
					"inputs": [],
					"name": "age",
					"outputs": [
						{
							"internalType": "uint256",
							"name": "",
							"type": "uint256"
						}
					],
					"stateMutability": "view",
					"type": "function"
				},
				{
					"inputs": [],
					"name": "name",
					"outputs": [
						{
							"internalType": "string",
							"name": "",
							"type": "string"
						}
					],
					"stateMutability": "view",
					"type": "function"
				}
			],
			"devdoc": {
				"kind": "dev",
				"methods": {},
				"version": 1
			},
			"evm": {
				"assembly": "    /* \"Day-21/code3.sol\":130:294  contract A{... */\n  mstore(0x40, 0x80)\n    /* \"Day-21/code3.sol\":196:291  constructor(string memory _name, uint _age){... */\n  callvalue\n  dup1\n  iszero\n  tag_1\n  jumpi\n  0x00\n  dup1\n  revert\ntag_1:\n  pop\n  mload(0x40)\n  sub(codesize, bytecodeSize)\n  dup1\n  bytecodeSize\n  dup4\n  codecopy\n  dup2\n  dup2\n  add\n  0x40\n  mstore\n  dup2\n  add\n  swap1\n  tag_2\n  swap2\n  swap1\n  tag_3\n  jump\t// in\ntag_2:\n    /* \"Day-21/code3.sol\":257:262  _name */\n  dup2\n    /* \"Day-21/code3.sol\":250:254  name */\n  0x00\n    /* \"Day-21/code3.sol\":250:262  name = _name */\n  swap1\n  dup2\n  tag_6\n  swap2\n  swap1\n  tag_7\n  jump\t// in\ntag_6:\n  pop\n    /* \"Day-21/code3.sol\":279:283  _age */\n  dup1\n    /* \"Day-21/code3.sol\":273:276  age */\n  0x01\n    /* \"Day-21/code3.sol\":273:283  age = _age */\n  dup2\n  swap1\n  sstore\n  pop\n    /* \"Day-21/code3.sol\":196:291  constructor(string memory _name, uint _age){... */\n  pop\n  pop\n    /* \"Day-21/code3.sol\":130:294  contract A{... */\n  jump(tag_8)\n    /* \"#utility.yul\":7:82   */\ntag_9:\n    /* \"#utility.yul\":40:46   */\n  0x00\n    /* \"#utility.yul\":73:75   */\n  0x40\n    /* \"#utility.yul\":67:76   */\n  mload\n    /* \"#utility.yul\":57:76   */\n  swap1\n  pop\n    /* \"#utility.yul\":7:82   */\n  swap1\n  jump\t// out\n    /* \"#utility.yul\":88:205   */\ntag_10:\n    /* \"#utility.yul\":197:198   */\n  0x00\n    /* \"#utility.yul\":194:195   */\n  dup1\n    /* \"#utility.yul\":187:199   */\n  revert\n    /* \"#utility.yul\":211:328   */\ntag_11:\n    /* \"#utility.yul\":320:321   */\n  0x00\n    /* \"#utility.yul\":317:318   */\n  dup1\n    /* \"#utility.yul\":310:322   */\n  revert\n    /* \"#utility.yul\":334:451   */\ntag_12:\n    /* \"#utility.yul\":443:444   */\n  0x00\n    /* \"#utility.yul\":440:441   */\n  dup1\n    /* \"#utility.yul\":433:445   */\n  revert\n    /* \"#utility.yul\":457:574   */\ntag_13:\n    /* \"#utility.yul\":566:567   */\n  0x00\n    /* \"#utility.yul\":563:564   */\n  dup1\n    /* \"#utility.yul\":556:568   */\n  revert\n    /* \"#utility.yul\":580:682   */\ntag_14:\n    /* \"#utility.yul\":621:627   */\n  0x00\n    /* \"#utility.yul\":672:674   */\n  0x1f\n    /* \"#utility.yul\":668:675   */\n  not\n    /* \"#utility.yul\":663:665   */\n  0x1f\n    /* \"#utility.yul\":656:661   */\n  dup4\n    /* \"#utility.yul\":652:666   */\n  add\n    /* \"#utility.yul\":648:676   */\n  and\n    /* \"#utility.yul\":638:676   */\n  swap1\n  pop\n    /* \"#utility.yul\":580:682   */\n  swap2\n  swap1\n  pop\n  jump\t// out\n    /* \"#utility.yul\":688:868   */\ntag_15:\n    /* \"#utility.yul\":736:813   */\n  0x4e487b7100000000000000000000000000000000000000000000000000000000\n    /* \"#utility.yul\":733:734   */\n  0x00\n    /* \"#utility.yul\":726:814   */\n  mstore\n    /* \"#utility.yul\":833:837   */\n  0x41\n    /* \"#utility.yul\":830:831   */\n  0x04\n    /* \"#utility.yul\":823:838   */\n  mstore\n    /* \"#utility.yul\":857:861   */\n  0x24\n    /* \"#utility.yul\":854:855   */\n  0x00\n    /* \"#utility.yul\":847:862   */\n  revert\n    /* \"#utility.yul\":874:1155   */\ntag_16:\n    /* \"#utility.yul\":957:984   */\n  tag_52\n    /* \"#utility.yul\":979:983   */\n  dup3\n    /* \"#utility.yul\":957:984   */\n  tag_14\n  jump\t// in\ntag_52:\n    /* \"#utility.yul\":949:955   */\n  dup2\n    /* \"#utility.yul\":945:985   */\n  add\n    /* \"#utility.yul\":1087:1093   */\n  dup2\n    /* \"#utility.yul\":1075:1085   */\n  dup2\n    /* \"#utility.yul\":1072:1094   */\n  lt\n    /* \"#utility.yul\":1051:1069   */\n  0xffffffffffffffff\n    /* \"#utility.yul\":1039:1049   */\n  dup3\n    /* \"#utility.yul\":1036:1070   */\n  gt\n    /* \"#utility.yul\":1033:1095   */\n  or\n    /* \"#utility.yul\":1030:1118   */\n  iszero\n  tag_53\n  jumpi\n    /* \"#utility.yul\":1098:1116   */\n  tag_54\n  tag_15\n  jump\t// in\ntag_54:\n    /* \"#utility.yul\":1030:1118   */\ntag_53:\n    /* \"#utility.yul\":1138:1148   */\n  dup1\n    /* \"#utility.yul\":1134:1136   */\n  0x40\n    /* \"#utility.yul\":1127:1149   */\n  mstore\n    /* \"#utility.yul\":917:1155   */\n  pop\n    /* \"#utility.yul\":874:1155   */\n  pop\n  pop\n  jump\t// out\n    /* \"#utility.yul\":1161:1290   */\ntag_17:\n    /* \"#utility.yul\":1195:1201   */\n  0x00\n    /* \"#utility.yul\":1222:1242   */\n  tag_56\n  tag_9\n  jump\t// in\ntag_56:\n    /* \"#utility.yul\":1212:1242   */\n  swap1\n  pop\n    /* \"#utility.yul\":1251:1284   */\n  tag_57\n    /* \"#utility.yul\":1279:1283   */\n  dup3\n    /* \"#utility.yul\":1271:1277   */\n  dup3\n    /* \"#utility.yul\":1251:1284   */\n  tag_16\n  jump\t// in\ntag_57:\n    /* \"#utility.yul\":1161:1290   */\n  swap2\n  swap1\n  pop\n  jump\t// out\n    /* \"#utility.yul\":1296:1604   */\ntag_18:\n    /* \"#utility.yul\":1358:1362   */\n  0x00\n    /* \"#utility.yul\":1448:1466   */\n  0xffffffffffffffff\n    /* \"#utility.yul\":1440:1446   */\n  dup3\n    /* \"#utility.yul\":1437:1467   */\n  gt\n    /* \"#utility.yul\":1434:1490   */\n  iszero\n  tag_59\n  jumpi\n    /* \"#utility.yul\":1470:1488   */\n  tag_60\n  tag_15\n  jump\t// in\ntag_60:\n    /* \"#utility.yul\":1434:1490   */\ntag_59:\n    /* \"#utility.yul\":1508:1537   */\n  tag_61\n    /* \"#utility.yul\":1530:1536   */\n  dup3\n    /* \"#utility.yul\":1508:1537   */\n  tag_14\n  jump\t// in\ntag_61:\n    /* \"#utility.yul\":1500:1537   */\n  swap1\n  pop\n    /* \"#utility.yul\":1592:1596   */\n  0x20\n    /* \"#utility.yul\":1586:1590   */\n  dup2\n    /* \"#utility.yul\":1582:1597   */\n  add\n    /* \"#utility.yul\":1574:1597   */\n  swap1\n  pop\n    /* \"#utility.yul\":1296:1604   */\n  swap2\n  swap1\n  pop\n  jump\t// out\n    /* \"#utility.yul\":1610:1749   */\ntag_19:\n    /* \"#utility.yul\":1699:1705   */\n  dup3\n    /* \"#utility.yul\":1694:1697   */\n  dup2\n    /* \"#utility.yul\":1689:1692   */\n  dup4\n    /* \"#utility.yul\":1683:1706   */\n  mcopy\n    /* \"#utility.yul\":1740:1741   */\n  0x00\n    /* \"#utility.yul\":1731:1737   */\n  dup4\n    /* \"#utility.yul\":1726:1729   */\n  dup4\n    /* \"#utility.yul\":1722:1738   */\n  add\n    /* \"#utility.yul\":1715:1742   */\n  mstore\n    /* \"#utility.yul\":1610:1749   */\n  pop\n  pop\n  pop\n  jump\t// out\n    /* \"#utility.yul\":1755:2189   */\ntag_20:\n    /* \"#utility.yul\":1844:1849   */\n  0x00\n    /* \"#utility.yul\":1869:1935   */\n  tag_64\n    /* \"#utility.yul\":1885:1934   */\n  tag_65\n    /* \"#utility.yul\":1927:1933   */\n  dup5\n    /* \"#utility.yul\":1885:1934   */\n  tag_18\n  jump\t// in\ntag_65:\n    /* \"#utility.yul\":1869:1935   */\n  tag_17\n  jump\t// in\ntag_64:\n    /* \"#utility.yul\":1860:1935   */\n  swap1\n  pop\n    /* \"#utility.yul\":1958:1964   */\n  dup3\n    /* \"#utility.yul\":1951:1956   */\n  dup2\n    /* \"#utility.yul\":1944:1965   */\n  mstore\n    /* \"#utility.yul\":1996:2000   */\n  0x20\n    /* \"#utility.yul\":1989:1994   */\n  dup2\n    /* \"#utility.yul\":1985:2001   */\n  add\n    /* \"#utility.yul\":2034:2037   */\n  dup5\n    /* \"#utility.yul\":2025:2031   */\n  dup5\n    /* \"#utility.yul\":2020:2023   */\n  dup5\n    /* \"#utility.yul\":2016:2032   */\n  add\n    /* \"#utility.yul\":2013:2038   */\n  gt\n    /* \"#utility.yul\":2010:2122   */\n  iszero\n  tag_66\n  jumpi\n    /* \"#utility.yul\":2041:2120   */\n  tag_67\n  tag_13\n  jump\t// in\ntag_67:\n    /* \"#utility.yul\":2010:2122   */\ntag_66:\n    /* \"#utility.yul\":2131:2183   */\n  tag_68\n    /* \"#utility.yul\":2176:2182   */\n  dup5\n    /* \"#utility.yul\":2171:2174   */\n  dup3\n    /* \"#utility.yul\":2166:2169   */\n  dup6\n    /* \"#utility.yul\":2131:2183   */\n  tag_19\n  jump\t// in\ntag_68:\n    /* \"#utility.yul\":1850:2189   */\n  pop\n    /* \"#utility.yul\":1755:2189   */\n  swap4\n  swap3\n  pop\n  pop\n  pop\n  jump\t// out\n    /* \"#utility.yul\":2209:2564   */\ntag_21:\n    /* \"#utility.yul\":2276:2281   */\n  0x00\n    /* \"#utility.yul\":2325:2328   */\n  dup3\n    /* \"#utility.yul\":2318:2322   */\n  0x1f\n    /* \"#utility.yul\":2310:2316   */\n  dup4\n    /* \"#utility.yul\":2306:2323   */\n  add\n    /* \"#utility.yul\":2302:2329   */\n  slt\n    /* \"#utility.yul\":2292:2414   */\n  tag_70\n  jumpi\n    /* \"#utility.yul\":2333:2412   */\n  tag_71\n  tag_12\n  jump\t// in\ntag_71:\n    /* \"#utility.yul\":2292:2414   */\ntag_70:\n    /* \"#utility.yul\":2443:2449   */\n  dup2\n    /* \"#utility.yul\":2437:2450   */\n  mload\n    /* \"#utility.yul\":2468:2558   */\n  tag_72\n    /* \"#utility.yul\":2554:2557   */\n  dup5\n    /* \"#utility.yul\":2546:2552   */\n  dup3\n    /* \"#utility.yul\":2539:2543   */\n  0x20\n    /* \"#utility.yul\":2531:2537   */\n  dup7\n    /* \"#utility.yul\":2527:2544   */\n  add\n    /* \"#utility.yul\":2468:2558   */\n  tag_20\n  jump\t// in\ntag_72:\n    /* \"#utility.yul\":2459:2558   */\n  swap2\n  pop\n    /* \"#utility.yul\":2282:2564   */\n  pop\n    /* \"#utility.yul\":2209:2564   */\n  swap3\n  swap2\n  pop\n  pop\n  jump\t// out\n    /* \"#utility.yul\":2570:2647   */\ntag_22:\n    /* \"#utility.yul\":2607:2614   */\n  0x00\n    /* \"#utility.yul\":2636:2641   */\n  dup2\n    /* \"#utility.yul\":2625:2641   */\n  swap1\n  pop\n    /* \"#utility.yul\":2570:2647   */\n  swap2\n  swap1\n  pop\n  jump\t// out\n    /* \"#utility.yul\":2653:2775   */\ntag_23:\n    /* \"#utility.yul\":2726:2750   */\n  tag_75\n    /* \"#utility.yul\":2744:2749   */\n  dup2\n    /* \"#utility.yul\":2726:2750   */\n  tag_22\n  jump\t// in\ntag_75:\n    /* \"#utility.yul\":2719:2724   */\n  dup2\n    /* \"#utility.yul\":2716:2751   */\n  eq\n    /* \"#utility.yul\":2706:2769   */\n  tag_76\n  jumpi\n    /* \"#utility.yul\":2765:2766   */\n  0x00\n    /* \"#utility.yul\":2762:2763   */\n  dup1\n    /* \"#utility.yul\":2755:2767   */\n  revert\n    /* \"#utility.yul\":2706:2769   */\ntag_76:\n    /* \"#utility.yul\":2653:2775   */\n  pop\n  jump\t// out\n    /* \"#utility.yul\":2781:2924   */\ntag_24:\n    /* \"#utility.yul\":2838:2843   */\n  0x00\n    /* \"#utility.yul\":2869:2875   */\n  dup2\n    /* \"#utility.yul\":2863:2876   */\n  mload\n    /* \"#utility.yul\":2854:2876   */\n  swap1\n  pop\n    /* \"#utility.yul\":2885:2918   */\n  tag_78\n    /* \"#utility.yul\":2912:2917   */\n  dup2\n    /* \"#utility.yul\":2885:2918   */\n  tag_23\n  jump\t// in\ntag_78:\n    /* \"#utility.yul\":2781:2924   */\n  swap3\n  swap2\n  pop\n  pop\n  jump\t// out\n    /* \"#utility.yul\":2930:3610   */\ntag_3:\n    /* \"#utility.yul\":3019:3025   */\n  0x00\n    /* \"#utility.yul\":3027:3033   */\n  dup1\n    /* \"#utility.yul\":3076:3078   */\n  0x40\n    /* \"#utility.yul\":3064:3073   */\n  dup4\n    /* \"#utility.yul\":3055:3062   */\n  dup6\n    /* \"#utility.yul\":3051:3074   */\n  sub\n    /* \"#utility.yul\":3047:3079   */\n  slt\n    /* \"#utility.yul\":3044:3163   */\n  iszero\n  tag_80\n  jumpi\n    /* \"#utility.yul\":3082:3161   */\n  tag_81\n  tag_10\n  jump\t// in\ntag_81:\n    /* \"#utility.yul\":3044:3163   */\ntag_80:\n    /* \"#utility.yul\":3223:3224   */\n  0x00\n    /* \"#utility.yul\":3212:3221   */\n  dup4\n    /* \"#utility.yul\":3208:3225   */\n  add\n    /* \"#utility.yul\":3202:3226   */\n  mload\n    /* \"#utility.yul\":3253:3271   */\n  0xffffffffffffffff\n    /* \"#utility.yul\":3245:3251   */\n  dup2\n    /* \"#utility.yul\":3242:3272   */\n  gt\n    /* \"#utility.yul\":3239:3356   */\n  iszero\n  tag_82\n  jumpi\n    /* \"#utility.yul\":3275:3354   */\n  tag_83\n  tag_11\n  jump\t// in\ntag_83:\n    /* \"#utility.yul\":3239:3356   */\ntag_82:\n    /* \"#utility.yul\":3380:3454   */\n  tag_84\n    /* \"#utility.yul\":3446:3453   */\n  dup6\n    /* \"#utility.yul\":3437:3443   */\n  dup3\n    /* \"#utility.yul\":3426:3435   */\n  dup7\n    /* \"#utility.yul\":3422:3444   */\n  add\n    /* \"#utility.yul\":3380:3454   */\n  tag_21\n  jump\t// in\ntag_84:\n    /* \"#utility.yul\":3370:3454   */\n  swap3\n  pop\n    /* \"#utility.yul\":3173:3464   */\n  pop\n    /* \"#utility.yul\":3503:3505   */\n  0x20\n    /* \"#utility.yul\":3529:3593   */\n  tag_85\n    /* \"#utility.yul\":3585:3592   */\n  dup6\n    /* \"#utility.yul\":3576:3582   */\n  dup3\n    /* \"#utility.yul\":3565:3574   */\n  dup7\n    /* \"#utility.yul\":3561:3583   */\n  add\n    /* \"#utility.yul\":3529:3593   */\n  tag_24\n  jump\t// in\ntag_85:\n    /* \"#utility.yul\":3519:3593   */\n  swap2\n  pop\n    /* \"#utility.yul\":3474:3603   */\n  pop\n    /* \"#utility.yul\":2930:3610   */\n  swap3\n  pop\n  swap3\n  swap1\n  pop\n  jump\t// out\n    /* \"#utility.yul\":3616:3715   */\ntag_25:\n    /* \"#utility.yul\":3668:3674   */\n  0x00\n    /* \"#utility.yul\":3702:3707   */\n  dup2\n    /* \"#utility.yul\":3696:3708   */\n  mload\n    /* \"#utility.yul\":3686:3708   */\n  swap1\n  pop\n    /* \"#utility.yul\":3616:3715   */\n  swap2\n  swap1\n  pop\n  jump\t// out\n    /* \"#utility.yul\":3721:3901   */\ntag_26:\n    /* \"#utility.yul\":3769:3846   */\n  0x4e487b7100000000000000000000000000000000000000000000000000000000\n    /* \"#utility.yul\":3766:3767   */\n  0x00\n    /* \"#utility.yul\":3759:3847   */\n  mstore\n    /* \"#utility.yul\":3866:3870   */\n  0x22\n    /* \"#utility.yul\":3863:3864   */\n  0x04\n    /* \"#utility.yul\":3856:3871   */\n  mstore\n    /* \"#utility.yul\":3890:3894   */\n  0x24\n    /* \"#utility.yul\":3887:3888   */\n  0x00\n    /* \"#utility.yul\":3880:3895   */\n  revert\n    /* \"#utility.yul\":3907:4227   */\ntag_27:\n    /* \"#utility.yul\":3951:3957   */\n  0x00\n    /* \"#utility.yul\":3988:3989   */\n  0x02\n    /* \"#utility.yul\":3982:3986   */\n  dup3\n    /* \"#utility.yul\":3978:3990   */\n  div\n    /* \"#utility.yul\":3968:3990   */\n  swap1\n  pop\n    /* \"#utility.yul\":4035:4036   */\n  0x01\n    /* \"#utility.yul\":4029:4033   */\n  dup3\n    /* \"#utility.yul\":4025:4037   */\n  and\n    /* \"#utility.yul\":4056:4074   */\n  dup1\n    /* \"#utility.yul\":4046:4127   */\n  tag_89\n  jumpi\n    /* \"#utility.yul\":4112:4116   */\n  0x7f\n    /* \"#utility.yul\":4104:4110   */\n  dup3\n    /* \"#utility.yul\":4100:4117   */\n  and\n    /* \"#utility.yul\":4090:4117   */\n  swap2\n  pop\n    /* \"#utility.yul\":4046:4127   */\ntag_89:\n    /* \"#utility.yul\":4174:4176   */\n  0x20\n    /* \"#utility.yul\":4166:4172   */\n  dup3\n    /* \"#utility.yul\":4163:4177   */\n  lt\n    /* \"#utility.yul\":4143:4161   */\n  dup2\n    /* \"#utility.yul\":4140:4178   */\n  sub\n    /* \"#utility.yul\":4137:4221   */\n  tag_90\n  jumpi\n    /* \"#utility.yul\":4193:4211   */\n  tag_91\n  tag_26\n  jump\t// in\ntag_91:\n    /* \"#utility.yul\":4137:4221   */\ntag_90:\n    /* \"#utility.yul\":3958:4227   */\n  pop\n    /* \"#utility.yul\":3907:4227   */\n  swap2\n  swap1\n  pop\n  jump\t// out\n    /* \"#utility.yul\":4233:4374   */\ntag_28:\n    /* \"#utility.yul\":4282:4286   */\n  0x00\n    /* \"#utility.yul\":4305:4308   */\n  dup2\n    /* \"#utility.yul\":4297:4308   */\n  swap1\n  pop\n    /* \"#utility.yul\":4328:4331   */\n  dup2\n    /* \"#utility.yul\":4325:4326   */\n  0x00\n    /* \"#utility.yul\":4318:4332   */\n  mstore\n    /* \"#utility.yul\":4362:4366   */\n  0x20\n    /* \"#utility.yul\":4359:4360   */\n  0x00\n    /* \"#utility.yul\":4349:4367   */\n  keccak256\n    /* \"#utility.yul\":4341:4367   */\n  swap1\n  pop\n    /* \"#utility.yul\":4233:4374   */\n  swap2\n  swap1\n  pop\n  jump\t// out\n    /* \"#utility.yul\":4380:4473   */\ntag_29:\n    /* \"#utility.yul\":4417:4423   */\n  0x00\n    /* \"#utility.yul\":4464:4466   */\n  0x20\n    /* \"#utility.yul\":4459:4461   */\n  0x1f\n    /* \"#utility.yul\":4452:4457   */\n  dup4\n    /* \"#utility.yul\":4448:4462   */\n  add\n    /* \"#utility.yul\":4444:4467   */\n  div\n    /* \"#utility.yul\":4434:4467   */\n  swap1\n  pop\n    /* \"#utility.yul\":4380:4473   */\n  swap2\n  swap1\n  pop\n  jump\t// out\n    /* \"#utility.yul\":4479:4586   */\ntag_30:\n    /* \"#utility.yul\":4523:4531   */\n  0x00\n    /* \"#utility.yul\":4573:4578   */\n  dup3\n    /* \"#utility.yul\":4567:4571   */\n  dup3\n    /* \"#utility.yul\":4563:4579   */\n  shl\n    /* \"#utility.yul\":4542:4579   */\n  swap1\n  pop\n    /* \"#utility.yul\":4479:4586   */\n  swap3\n  swap2\n  pop\n  pop\n  jump\t// out\n    /* \"#utility.yul\":4592:4985   */\ntag_31:\n    /* \"#utility.yul\":4661:4667   */\n  0x00\n    /* \"#utility.yul\":4711:4712   */\n  0x08\n    /* \"#utility.yul\":4699:4709   */\n  dup4\n    /* \"#utility.yul\":4695:4713   */\n  mul\n    /* \"#utility.yul\":4734:4831   */\n  tag_96\n    /* \"#utility.yul\":4764:4830   */\n  0xffffffffffffffffffffffffffffffffffffffffffffffffffffffffffffffff\n    /* \"#utility.yul\":4753:4762   */\n  dup3\n    /* \"#utility.yul\":4734:4831   */\n  tag_30\n  jump\t// in\ntag_96:\n    /* \"#utility.yul\":4852:4891   */\n  tag_97\n    /* \"#utility.yul\":4882:4890   */\n  dup7\n    /* \"#utility.yul\":4871:4880   */\n  dup4\n    /* \"#utility.yul\":4852:4891   */\n  tag_30\n  jump\t// in\ntag_97:\n    /* \"#utility.yul\":4840:4891   */\n  swap6\n  pop\n    /* \"#utility.yul\":4924:4928   */\n  dup1\n    /* \"#utility.yul\":4920:4929   */\n  not\n    /* \"#utility.yul\":4913:4918   */\n  dup5\n    /* \"#utility.yul\":4909:4930   */\n  and\n    /* \"#utility.yul\":4900:4930   */\n  swap4\n  pop\n    /* \"#utility.yul\":4973:4977   */\n  dup1\n    /* \"#utility.yul\":4963:4971   */\n  dup7\n    /* \"#utility.yul\":4959:4978   */\n  and\n    /* \"#utility.yul\":4952:4957   */\n  dup5\n    /* \"#utility.yul\":4949:4979   */\n  or\n    /* \"#utility.yul\":4939:4979   */\n  swap3\n  pop\n    /* \"#utility.yul\":4668:4985   */\n  pop\n  pop\n    /* \"#utility.yul\":4592:4985   */\n  swap4\n  swap3\n  pop\n  pop\n  pop\n  jump\t// out\n    /* \"#utility.yul\":4991:5051   */\ntag_32:\n    /* \"#utility.yul\":5019:5022   */\n  0x00\n    /* \"#utility.yul\":5040:5045   */\n  dup2\n    /* \"#utility.yul\":5033:5045   */\n  swap1\n  pop\n    /* \"#utility.yul\":4991:5051   */\n  swap2\n  swap1\n  pop\n  jump\t// out\n    /* \"#utility.yul\":5057:5199   */\ntag_33:\n    /* \"#utility.yul\":5107:5116   */\n  0x00\n    /* \"#utility.yul\":5140:5193   */\n  tag_100\n    /* \"#utility.yul\":5158:5192   */\n  tag_101\n    /* \"#utility.yul\":5167:5191   */\n  tag_102\n    /* \"#utility.yul\":5185:5190   */\n  dup5\n    /* \"#utility.yul\":5167:5191   */\n  tag_22\n  jump\t// in\ntag_102:\n    /* \"#utility.yul\":5158:5192   */\n  tag_32\n  jump\t// in\ntag_101:\n    /* \"#utility.yul\":5140:5193   */\n  tag_22\n  jump\t// in\ntag_100:\n    /* \"#utility.yul\":5127:5193   */\n  swap1\n  pop\n    /* \"#utility.yul\":5057:5199   */\n  swap2\n  swap1\n  pop\n  jump\t// out\n    /* \"#utility.yul\":5205:5280   */\ntag_34:\n    /* \"#utility.yul\":5248:5251   */\n  0x00\n    /* \"#utility.yul\":5269:5274   */\n  dup2\n    /* \"#utility.yul\":5262:5274   */\n  swap1\n  pop\n    /* \"#utility.yul\":5205:5280   */\n  swap2\n  swap1\n  pop\n  jump\t// out\n    /* \"#utility.yul\":5286:5555   */\ntag_35:\n    /* \"#utility.yul\":5396:5435   */\n  tag_105\n    /* \"#utility.yul\":5427:5434   */\n  dup4\n    /* \"#utility.yul\":5396:5435   */\n  tag_33\n  jump\t// in\ntag_105:\n    /* \"#utility.yul\":5457:5548   */\n  tag_106\n    /* \"#utility.yul\":5506:5547   */\n  tag_107\n    /* \"#utility.yul\":5530:5546   */\n  dup3\n    /* \"#utility.yul\":5506:5547   */\n  tag_34\n  jump\t// in\ntag_107:\n    /* \"#utility.yul\":5498:5504   */\n  dup5\n    /* \"#utility.yul\":5491:5495   */\n  dup5\n    /* \"#utility.yul\":5485:5496   */\n  sload\n    /* \"#utility.yul\":5457:5548   */\n  tag_31\n  jump\t// in\ntag_106:\n    /* \"#utility.yul\":5451:5455   */\n  dup3\n    /* \"#utility.yul\":5444:5549   */\n  sstore\n    /* \"#utility.yul\":5362:5555   */\n  pop\n    /* \"#utility.yul\":5286:5555   */\n  pop\n  pop\n  pop\n  jump\t// out\n    /* \"#utility.yul\":5561:5634   */\ntag_36:\n    /* \"#utility.yul\":5606:5609   */\n  0x00\n    /* \"#utility.yul\":5561:5634   */\n  swap1\n  jump\t// out\n    /* \"#utility.yul\":5640:5829   */\ntag_37:\n    /* \"#utility.yul\":5717:5749   */\n  tag_110\n  tag_36\n  jump\t// in\ntag_110:\n    /* \"#utility.yul\":5758:5823   */\n  tag_111\n    /* \"#utility.yul\":5816:5822   */\n  dup2\n    /* \"#utility.yul\":5808:5814   */\n  dup5\n    /* \"#utility.yul\":5802:5806   */\n  dup5\n    /* \"#utility.yul\":5758:5823   */\n  tag_35\n  jump\t// in\ntag_111:\n    /* \"#utility.yul\":5693:5829   */\n  pop\n    /* \"#utility.yul\":5640:5829   */\n  pop\n  pop\n  jump\t// out\n    /* \"#utility.yul\":5835:6021   */\ntag_38:\n    /* \"#utility.yul\":5895:6015   */\ntag_113:\n    /* \"#utility.yul\":5912:5915   */\n  dup2\n    /* \"#utility.yul\":5905:5910   */\n  dup2\n    /* \"#utility.yul\":5902:5916   */\n  lt\n    /* \"#utility.yul\":5895:6015   */\n  iszero\n  tag_115\n  jumpi\n    /* \"#utility.yul\":5966:6005   */\n  tag_116\n    /* \"#utility.yul\":6003:6004   */\n  0x00\n    /* \"#utility.yul\":5996:6001   */\n  dup3\n    /* \"#utility.yul\":5966:6005   */\n  tag_37\n  jump\t// in\ntag_116:\n    /* \"#utility.yul\":5939:5940   */\n  0x01\n    /* \"#utility.yul\":5932:5937   */\n  dup2\n    /* \"#utility.yul\":5928:5941   */\n  add\n    /* \"#utility.yul\":5919:5941   */\n  swap1\n  pop\n    /* \"#utility.yul\":5895:6015   */\n  jump(tag_113)\ntag_115:\n    /* \"#utility.yul\":5835:6021   */\n  pop\n  pop\n  jump\t// out\n    /* \"#utility.yul\":6027:6570   */\ntag_39:\n    /* \"#utility.yul\":6128:6130   */\n  0x1f\n    /* \"#utility.yul\":6123:6126   */\n  dup3\n    /* \"#utility.yul\":6120:6131   */\n  gt\n    /* \"#utility.yul\":6117:6563   */\n  iszero\n  tag_118\n  jumpi\n    /* \"#utility.yul\":6162:6200   */\n  tag_119\n    /* \"#utility.yul\":6194:6199   */\n  dup2\n    /* \"#utility.yul\":6162:6200   */\n  tag_28\n  jump\t// in\ntag_119:\n    /* \"#utility.yul\":6246:6275   */\n  tag_120\n    /* \"#utility.yul\":6264:6274   */\n  dup5\n    /* \"#utility.yul\":6246:6275   */\n  tag_29\n  jump\t// in\ntag_120:\n    /* \"#utility.yul\":6236:6244   */\n  dup2\n    /* \"#utility.yul\":6232:6276   */\n  add\n    /* \"#utility.yul\":6429:6431   */\n  0x20\n    /* \"#utility.yul\":6417:6427   */\n  dup6\n    /* \"#utility.yul\":6414:6432   */\n  lt\n    /* \"#utility.yul\":6411:6460   */\n  iszero\n  tag_121\n  jumpi\n    /* \"#utility.yul\":6450:6458   */\n  dup2\n    /* \"#utility.yul\":6435:6458   */\n  swap1\n  pop\n    /* \"#utility.yul\":6411:6460   */\ntag_121:\n    /* \"#utility.yul\":6473:6553   */\n  tag_122\n    /* \"#utility.yul\":6529:6551   */\n  tag_123\n    /* \"#utility.yul\":6547:6550   */\n  dup6\n    /* \"#utility.yul\":6529:6551   */\n  tag_29\n  jump\t// in\ntag_123:\n    /* \"#utility.yul\":6519:6527   */\n  dup4\n    /* \"#utility.yul\":6515:6552   */\n  add\n    /* \"#utility.yul\":6502:6513   */\n  dup3\n    /* \"#utility.yul\":6473:6553   */\n  tag_38\n  jump\t// in\ntag_122:\n    /* \"#utility.yul\":6132:6563   */\n  pop\n  pop\n    /* \"#utility.yul\":6117:6563   */\ntag_118:\n    /* \"#utility.yul\":6027:6570   */\n  pop\n  pop\n  pop\n  jump\t// out\n    /* \"#utility.yul\":6576:6693   */\ntag_40:\n    /* \"#utility.yul\":6630:6638   */\n  0x00\n    /* \"#utility.yul\":6680:6685   */\n  dup3\n    /* \"#utility.yul\":6674:6678   */\n  dup3\n    /* \"#utility.yul\":6670:6686   */\n  shr\n    /* \"#utility.yul\":6649:6686   */\n  swap1\n  pop\n    /* \"#utility.yul\":6576:6693   */\n  swap3\n  swap2\n  pop\n  pop\n  jump\t// out\n    /* \"#utility.yul\":6699:6868   */\ntag_41:\n    /* \"#utility.yul\":6743:6749   */\n  0x00\n    /* \"#utility.yul\":6776:6827   */\n  tag_126\n    /* \"#utility.yul\":6824:6825   */\n  0x00\n    /* \"#utility.yul\":6820:6826   */\n  not\n    /* \"#utility.yul\":6812:6817   */\n  dup5\n    /* \"#utility.yul\":6809:6810   */\n  0x08\n    /* \"#utility.yul\":6805:6818   */\n  mul\n    /* \"#utility.yul\":6776:6827   */\n  tag_40\n  jump\t// in\ntag_126:\n    /* \"#utility.yul\":6772:6828   */\n  not\n    /* \"#utility.yul\":6857:6861   */\n  dup1\n    /* \"#utility.yul\":6851:6855   */\n  dup4\n    /* \"#utility.yul\":6847:6862   */\n  and\n    /* \"#utility.yul\":6837:6862   */\n  swap2\n  pop\n    /* \"#utility.yul\":6750:6868   */\n  pop\n    /* \"#utility.yul\":6699:6868   */\n  swap3\n  swap2\n  pop\n  pop\n  jump\t// out\n    /* \"#utility.yul\":6873:7168   */\ntag_42:\n    /* \"#utility.yul\":6949:6953   */\n  0x00\n    /* \"#utility.yul\":7095:7124   */\n  tag_128\n    /* \"#utility.yul\":7120:7123   */\n  dup4\n    /* \"#utility.yul\":7114:7118   */\n  dup4\n    /* \"#utility.yul\":7095:7124   */\n  tag_41\n  jump\t// in\ntag_128:\n    /* \"#utility.yul\":7087:7124   */\n  swap2\n  pop\n    /* \"#utility.yul\":7157:7160   */\n  dup3\n    /* \"#utility.yul\":7154:7155   */\n  0x02\n    /* \"#utility.yul\":7150:7161   */\n  mul\n    /* \"#utility.yul\":7144:7148   */\n  dup3\n    /* \"#utility.yul\":7141:7162   */\n  or\n    /* \"#utility.yul\":7133:7162   */\n  swap1\n  pop\n    /* \"#utility.yul\":6873:7168   */\n  swap3\n  swap2\n  pop\n  pop\n  jump\t// out\n    /* \"#utility.yul\":7173:8568   */\ntag_7:\n    /* \"#utility.yul\":7290:7327   */\n  tag_130\n    /* \"#utility.yul\":7323:7326   */\n  dup3\n    /* \"#utility.yul\":7290:7327   */\n  tag_25\n  jump\t// in\ntag_130:\n    /* \"#utility.yul\":7392:7410   */\n  0xffffffffffffffff\n    /* \"#utility.yul\":7384:7390   */\n  dup2\n    /* \"#utility.yul\":7381:7411   */\n  gt\n    /* \"#utility.yul\":7378:7434   */\n  iszero\n  tag_131\n  jumpi\n    /* \"#utility.yul\":7414:7432   */\n  tag_132\n  tag_15\n  jump\t// in\ntag_132:\n    /* \"#utility.yul\":7378:7434   */\ntag_131:\n    /* \"#utility.yul\":7458:7496   */\n  tag_133\n    /* \"#utility.yul\":7490:7494   */\n  dup3\n    /* \"#utility.yul\":7484:7495   */\n  sload\n    /* \"#utility.yul\":7458:7496   */\n  tag_27\n  jump\t// in\ntag_133:\n    /* \"#utility.yul\":7543:7610   */\n  tag_134\n    /* \"#utility.yul\":7603:7609   */\n  dup3\n    /* \"#utility.yul\":7595:7601   */\n  dup3\n    /* \"#utility.yul\":7589:7593   */\n  dup6\n    /* \"#utility.yul\":7543:7610   */\n  tag_39\n  jump\t// in\ntag_134:\n    /* \"#utility.yul\":7637:7638   */\n  0x00\n    /* \"#utility.yul\":7661:7665   */\n  0x20\n    /* \"#utility.yul\":7648:7665   */\n  swap1\n  pop\n    /* \"#utility.yul\":7693:7695   */\n  0x1f\n    /* \"#utility.yul\":7685:7691   */\n  dup4\n    /* \"#utility.yul\":7682:7696   */\n  gt\n    /* \"#utility.yul\":7710:7711   */\n  0x01\n    /* \"#utility.yul\":7705:8323   */\n  dup2\n  eq\n  tag_136\n  jumpi\n    /* \"#utility.yul\":8367:8368   */\n  0x00\n    /* \"#utility.yul\":8384:8390   */\n  dup5\n    /* \"#utility.yul\":8381:8458   */\n  iszero\n  tag_137\n  jumpi\n    /* \"#utility.yul\":8433:8442   */\n  dup3\n    /* \"#utility.yul\":8428:8431   */\n  dup8\n    /* \"#utility.yul\":8424:8443   */\n  add\n    /* \"#utility.yul\":8418:8444   */\n  mload\n    /* \"#utility.yul\":8409:8444   */\n  swap1\n  pop\n    /* \"#utility.yul\":8381:8458   */\ntag_137:\n    /* \"#utility.yul\":8484:8551   */\n  tag_138\n    /* \"#utility.yul\":8544:8550   */\n  dup6\n    /* \"#utility.yul\":8537:8542   */\n  dup3\n    /* \"#utility.yul\":8484:8551   */\n  tag_42\n  jump\t// in\ntag_138:\n    /* \"#utility.yul\":8478:8482   */\n  dup7\n    /* \"#utility.yul\":8471:8552   */\n  sstore\n    /* \"#utility.yul\":8340:8562   */\n  pop\n    /* \"#utility.yul\":7675:8562   */\n  jump(tag_135)\n    /* \"#utility.yul\":7705:8323   */\ntag_136:\n    /* \"#utility.yul\":7757:7761   */\n  0x1f\n    /* \"#utility.yul\":7753:7762   */\n  not\n    /* \"#utility.yul\":7745:7751   */\n  dup5\n    /* \"#utility.yul\":7741:7763   */\n  and\n    /* \"#utility.yul\":7791:7828   */\n  tag_139\n    /* \"#utility.yul\":7823:7827   */\n  dup7\n    /* \"#utility.yul\":7791:7828   */\n  tag_28\n  jump\t// in\ntag_139:\n    /* \"#utility.yul\":7850:7851   */\n  0x00\n    /* \"#utility.yul\":7864:8072   */\ntag_140:\n    /* \"#utility.yul\":7878:7885   */\n  dup3\n    /* \"#utility.yul\":7875:7876   */\n  dup2\n    /* \"#utility.yul\":7872:7886   */\n  lt\n    /* \"#utility.yul\":7864:8072   */\n  iszero\n  tag_142\n  jumpi\n    /* \"#utility.yul\":7957:7966   */\n  dup5\n    /* \"#utility.yul\":7952:7955   */\n  dup10\n    /* \"#utility.yul\":7948:7967   */\n  add\n    /* \"#utility.yul\":7942:7968   */\n  mload\n    /* \"#utility.yul\":7934:7940   */\n  dup3\n    /* \"#utility.yul\":7927:7969   */\n  sstore\n    /* \"#utility.yul\":8008:8009   */\n  0x01\n    /* \"#utility.yul\":8000:8006   */\n  dup3\n    /* \"#utility.yul\":7996:8010   */\n  add\n    /* \"#utility.yul\":7986:8010   */\n  swap2\n  pop\n    /* \"#utility.yul\":8055:8057   */\n  0x20\n    /* \"#utility.yul\":8044:8053   */\n  dup6\n    /* \"#utility.yul\":8040:8058   */\n  add\n    /* \"#utility.yul\":8027:8058   */\n  swap5\n  pop\n    /* \"#utility.yul\":7901:7905   */\n  0x20\n    /* \"#utility.yul\":7898:7899   */\n  dup2\n    /* \"#utility.yul\":7894:7906   */\n  add\n    /* \"#utility.yul\":7889:7906   */\n  swap1\n  pop\n    /* \"#utility.yul\":7864:8072   */\n  jump(tag_140)\ntag_142:\n    /* \"#utility.yul\":8100:8106   */\n  dup7\n    /* \"#utility.yul\":8091:8098   */\n  dup4\n    /* \"#utility.yul\":8088:8107   */\n  lt\n    /* \"#utility.yul\":8085:8264   */\n  iszero\n  tag_143\n  jumpi\n    /* \"#utility.yul\":8158:8167   */\n  dup5\n    /* \"#utility.yul\":8153:8156   */\n  dup10\n    /* \"#utility.yul\":8149:8168   */\n  add\n    /* \"#utility.yul\":8143:8169   */\n  mload\n    /* \"#utility.yul\":8201:8249   */\n  tag_144\n    /* \"#utility.yul\":8243:8247   */\n  0x1f\n    /* \"#utility.yul\":8235:8241   */\n  dup10\n    /* \"#utility.yul\":8231:8248   */\n  and\n    /* \"#utility.yul\":8220:8229   */\n  dup3\n    /* \"#utility.yul\":8201:8249   */\n  tag_41\n  jump\t// in\ntag_144:\n    /* \"#utility.yul\":8193:8199   */\n  dup4\n    /* \"#utility.yul\":8186:8250   */\n  sstore\n    /* \"#utility.yul\":8108:8264   */\n  pop\n    /* \"#utility.yul\":8085:8264   */\ntag_143:\n    /* \"#utility.yul\":8310:8311   */\n  0x01\n    /* \"#utility.yul\":8306:8307   */\n  0x02\n    /* \"#utility.yul\":8298:8304   */\n  dup9\n    /* \"#utility.yul\":8294:8308   */\n  mul\n    /* \"#utility.yul\":8290:8312   */\n  add\n    /* \"#utility.yul\":8284:8288   */\n  dup9\n    /* \"#utility.yul\":8277:8313   */\n  sstore\n    /* \"#utility.yul\":7712:8323   */\n  pop\n  pop\n  pop\n    /* \"#utility.yul\":7675:8562   */\ntag_135:\n  pop\n    /* \"#utility.yul\":7265:8568   */\n  pop\n  pop\n  pop\n    /* \"#utility.yul\":7173:8568   */\n  pop\n  pop\n  jump\t// out\n    /* \"Day-21/code3.sol\":130:294  contract A{... */\ntag_8:\n  dataSize(sub_0)\n  dup1\n  dataOffset(sub_0)\n  0x00\n  codecopy\n  0x00\n  return\nstop\n\nsub_0: assembly {\n        /* \"Day-21/code3.sol\":130:294  contract A{... */\n      mstore(0x40, 0x80)\n      callvalue\n      dup1\n      iszero\n      tag_1\n      jumpi\n      0x00\n      dup1\n      revert\n    tag_1:\n      pop\n      jumpi(tag_2, lt(calldatasize, 0x04))\n      shr(0xe0, calldataload(0x00))\n      dup1\n      0x06fdde03\n      eq\n      tag_3\n      jumpi\n      dup1\n      0x262a9dff\n      eq\n      tag_4\n      jumpi\n    tag_2:\n      0x00\n      dup1\n      revert\n        /* \"Day-21/code3.sol\":147:165  string public name */\n    tag_3:\n      tag_5\n      tag_6\n      jump\t// in\n    tag_5:\n      mload(0x40)\n      tag_7\n      swap2\n      swap1\n      tag_8\n      jump\t// in\n    tag_7:\n      mload(0x40)\n      dup1\n      swap2\n      sub\n      swap1\n      return\n        /* \"Day-21/code3.sol\":172:187  uint public age */\n    tag_4:\n      tag_9\n      tag_10\n      jump\t// in\n    tag_9:\n      mload(0x40)\n      tag_11\n      swap2\n      swap1\n      tag_12\n      jump\t// in\n    tag_11:\n      mload(0x40)\n      dup1\n      swap2\n      sub\n      swap1\n      return\n        /* \"Day-21/code3.sol\":147:165  string public name */\n    tag_6:\n      0x00\n      dup1\n      sload\n      tag_13\n      swap1\n      tag_14\n      jump\t// in\n    tag_13:\n      dup1\n      0x1f\n      add\n      0x20\n      dup1\n      swap2\n      div\n      mul\n      0x20\n      add\n      mload(0x40)\n      swap1\n      dup2\n      add\n      0x40\n      mstore\n      dup1\n      swap3\n      swap2\n      swap1\n      dup2\n      dup2\n      mstore\n      0x20\n      add\n      dup3\n      dup1\n      sload\n      tag_15\n      swap1\n      tag_14\n      jump\t// in\n    tag_15:\n      dup1\n      iszero\n      tag_16\n      jumpi\n      dup1\n      0x1f\n      lt\n      tag_17\n      jumpi\n      0x0100\n      dup1\n      dup4\n      sload\n      div\n      mul\n      dup4\n      mstore\n      swap2\n      0x20\n      add\n      swap2\n      jump(tag_16)\n    tag_17:\n      dup3\n      add\n      swap2\n      swap1\n      0x00\n      mstore\n      keccak256(0x00, 0x20)\n      swap1\n    tag_18:\n      dup2\n      sload\n      dup2\n      mstore\n      swap1\n      0x01\n      add\n      swap1\n      0x20\n      add\n      dup1\n      dup4\n      gt\n      tag_18\n      jumpi\n      dup3\n      swap1\n      sub\n      0x1f\n      and\n      dup3\n      add\n      swap2\n    tag_16:\n      pop\n      pop\n      pop\n      pop\n      pop\n      dup2\n      jump\t// out\n        /* \"Day-21/code3.sol\":172:187  uint public age */\n    tag_10:\n      sload(0x01)\n      dup2\n      jump\t// out\n        /* \"#utility.yul\":7:106   */\n    tag_19:\n        /* \"#utility.yul\":59:65   */\n      0x00\n        /* \"#utility.yul\":93:98   */\n      dup2\n        /* \"#utility.yul\":87:99   */\n      mload\n        /* \"#utility.yul\":77:99   */\n      swap1\n      pop\n        /* \"#utility.yul\":7:106   */\n      swap2\n      swap1\n      pop\n      jump\t// out\n        /* \"#utility.yul\":112:281   */\n    tag_20:\n        /* \"#utility.yul\":196:207   */\n      0x00\n        /* \"#utility.yul\":230:236   */\n      dup3\n        /* \"#utility.yul\":225:228   */\n      dup3\n        /* \"#utility.yul\":218:237   */\n      mstore\n        /* \"#utility.yul\":270:274   */\n      0x20\n        /* \"#utility.yul\":265:268   */\n      dup3\n        /* \"#utility.yul\":261:275   */\n      add\n        /* \"#utility.yul\":246:275   */\n      swap1\n      pop\n        /* \"#utility.yul\":112:281   */\n      swap3\n      swap2\n      pop\n      pop\n      jump\t// out\n        /* \"#utility.yul\":287:426   */\n    tag_21:\n        /* \"#utility.yul\":376:382   */\n      dup3\n        /* \"#utility.yul\":371:374   */\n      dup2\n        /* \"#utility.yul\":366:369   */\n      dup4\n        /* \"#utility.yul\":360:383   */\n      mcopy\n        /* \"#utility.yul\":417:418   */\n      0x00\n        /* \"#utility.yul\":408:414   */\n      dup4\n        /* \"#utility.yul\":403:406   */\n      dup4\n        /* \"#utility.yul\":399:415   */\n      add\n        /* \"#utility.yul\":392:419   */\n      mstore\n        /* \"#utility.yul\":287:426   */\n      pop\n      pop\n      pop\n      jump\t// out\n        /* \"#utility.yul\":432:534   */\n    tag_22:\n        /* \"#utility.yul\":473:479   */\n      0x00\n        /* \"#utility.yul\":524:526   */\n      0x1f\n        /* \"#utility.yul\":520:527   */\n      not\n        /* \"#utility.yul\":515:517   */\n      0x1f\n        /* \"#utility.yul\":508:513   */\n      dup4\n        /* \"#utility.yul\":504:518   */\n      add\n        /* \"#utility.yul\":500:528   */\n      and\n        /* \"#utility.yul\":490:528   */\n      swap1\n      pop\n        /* \"#utility.yul\":432:534   */\n      swap2\n      swap1\n      pop\n      jump\t// out\n        /* \"#utility.yul\":540:917   */\n    tag_23:\n        /* \"#utility.yul\":628:631   */\n      0x00\n        /* \"#utility.yul\":656:695   */\n      tag_33\n        /* \"#utility.yul\":689:694   */\n      dup3\n        /* \"#utility.yul\":656:695   */\n      tag_19\n      jump\t// in\n    tag_33:\n        /* \"#utility.yul\":711:782   */\n      tag_34\n        /* \"#utility.yul\":775:781   */\n      dup2\n        /* \"#utility.yul\":770:773   */\n      dup6\n        /* \"#utility.yul\":711:782   */\n      tag_20\n      jump\t// in\n    tag_34:\n        /* \"#utility.yul\":704:782   */\n      swap4\n      pop\n        /* \"#utility.yul\":791:856   */\n      tag_35\n        /* \"#utility.yul\":849:855   */\n      dup2\n        /* \"#utility.yul\":844:847   */\n      dup6\n        /* \"#utility.yul\":837:841   */\n      0x20\n        /* \"#utility.yul\":830:835   */\n      dup7\n        /* \"#utility.yul\":826:842   */\n      add\n        /* \"#utility.yul\":791:856   */\n      tag_21\n      jump\t// in\n    tag_35:\n        /* \"#utility.yul\":881:910   */\n      tag_36\n        /* \"#utility.yul\":903:909   */\n      dup2\n        /* \"#utility.yul\":881:910   */\n      tag_22\n      jump\t// in\n    tag_36:\n        /* \"#utility.yul\":876:879   */\n      dup5\n        /* \"#utility.yul\":872:911   */\n      add\n        /* \"#utility.yul\":865:911   */\n      swap2\n      pop\n        /* \"#utility.yul\":632:917   */\n      pop\n        /* \"#utility.yul\":540:917   */\n      swap3\n      swap2\n      pop\n      pop\n      jump\t// out\n        /* \"#utility.yul\":923:1236   */\n    tag_8:\n        /* \"#utility.yul\":1036:1040   */\n      0x00\n        /* \"#utility.yul\":1074:1076   */\n      0x20\n        /* \"#utility.yul\":1063:1072   */\n      dup3\n        /* \"#utility.yul\":1059:1077   */\n      add\n        /* \"#utility.yul\":1051:1077   */\n      swap1\n      pop\n        /* \"#utility.yul\":1123:1132   */\n      dup2\n        /* \"#utility.yul\":1117:1121   */\n      dup2\n        /* \"#utility.yul\":1113:1133   */\n      sub\n        /* \"#utility.yul\":1109:1110   */\n      0x00\n        /* \"#utility.yul\":1098:1107   */\n      dup4\n        /* \"#utility.yul\":1094:1111   */\n      add\n        /* \"#utility.yul\":1087:1134   */\n      mstore\n        /* \"#utility.yul\":1151:1229   */\n      tag_38\n        /* \"#utility.yul\":1224:1228   */\n      dup2\n        /* \"#utility.yul\":1215:1221   */\n      dup5\n        /* \"#utility.yul\":1151:1229   */\n      tag_23\n      jump\t// in\n    tag_38:\n        /* \"#utility.yul\":1143:1229   */\n      swap1\n      pop\n        /* \"#utility.yul\":923:1236   */\n      swap3\n      swap2\n      pop\n      pop\n      jump\t// out\n        /* \"#utility.yul\":1242:1319   */\n    tag_24:\n        /* \"#utility.yul\":1279:1286   */\n      0x00\n        /* \"#utility.yul\":1308:1313   */\n      dup2\n        /* \"#utility.yul\":1297:1313   */\n      swap1\n      pop\n        /* \"#utility.yul\":1242:1319   */\n      swap2\n      swap1\n      pop\n      jump\t// out\n        /* \"#utility.yul\":1325:1443   */\n    tag_25:\n        /* \"#utility.yul\":1412:1436   */\n      tag_41\n        /* \"#utility.yul\":1430:1435   */\n      dup2\n        /* \"#utility.yul\":1412:1436   */\n      tag_24\n      jump\t// in\n    tag_41:\n        /* \"#utility.yul\":1407:1410   */\n      dup3\n        /* \"#utility.yul\":1400:1437   */\n      mstore\n        /* \"#utility.yul\":1325:1443   */\n      pop\n      pop\n      jump\t// out\n        /* \"#utility.yul\":1449:1671   */\n    tag_12:\n        /* \"#utility.yul\":1542:1546   */\n      0x00\n        /* \"#utility.yul\":1580:1582   */\n      0x20\n        /* \"#utility.yul\":1569:1578   */\n      dup3\n        /* \"#utility.yul\":1565:1583   */\n      add\n        /* \"#utility.yul\":1557:1583   */\n      swap1\n      pop\n        /* \"#utility.yul\":1593:1664   */\n      tag_43\n        /* \"#utility.yul\":1661:1662   */\n      0x00\n        /* \"#utility.yul\":1650:1659   */\n      dup4\n        /* \"#utility.yul\":1646:1663   */\n      add\n        /* \"#utility.yul\":1637:1643   */\n      dup5\n        /* \"#utility.yul\":1593:1664   */\n      tag_25\n      jump\t// in\n    tag_43:\n        /* \"#utility.yul\":1449:1671   */\n      swap3\n      swap2\n      pop\n      pop\n      jump\t// out\n        /* \"#utility.yul\":1677:1857   */\n    tag_26:\n        /* \"#utility.yul\":1725:1802   */\n      0x4e487b7100000000000000000000000000000000000000000000000000000000\n        /* \"#utility.yul\":1722:1723   */\n      0x00\n        /* \"#utility.yul\":1715:1803   */\n      mstore\n        /* \"#utility.yul\":1822:1826   */\n      0x22\n        /* \"#utility.yul\":1819:1820   */\n      0x04\n        /* \"#utility.yul\":1812:1827   */\n      mstore\n        /* \"#utility.yul\":1846:1850   */\n      0x24\n        /* \"#utility.yul\":1843:1844   */\n      0x00\n        /* \"#utility.yul\":1836:1851   */\n      revert\n        /* \"#utility.yul\":1863:2183   */\n    tag_14:\n        /* \"#utility.yul\":1907:1913   */\n      0x00\n        /* \"#utility.yul\":1944:1945   */\n      0x02\n        /* \"#utility.yul\":1938:1942   */\n      dup3\n        /* \"#utility.yul\":1934:1946   */\n      div\n        /* \"#utility.yul\":1924:1946   */\n      swap1\n      pop\n        /* \"#utility.yul\":1991:1992   */\n      0x01\n        /* \"#utility.yul\":1985:1989   */\n      dup3\n        /* \"#utility.yul\":1981:1993   */\n      and\n        /* \"#utility.yul\":2012:2030   */\n      dup1\n        /* \"#utility.yul\":2002:2083   */\n      tag_46\n      jumpi\n        /* \"#utility.yul\":2068:2072   */\n      0x7f\n        /* \"#utility.yul\":2060:2066   */\n      dup3\n        /* \"#utility.yul\":2056:2073   */\n      and\n        /* \"#utility.yul\":2046:2073   */\n      swap2\n      pop\n        /* \"#utility.yul\":2002:2083   */\n    tag_46:\n        /* \"#utility.yul\":2130:2132   */\n      0x20\n        /* \"#utility.yul\":2122:2128   */\n      dup3\n        /* \"#utility.yul\":2119:2133   */\n      lt\n        /* \"#utility.yul\":2099:2117   */\n      dup2\n        /* \"#utility.yul\":2096:2134   */\n      sub\n        /* \"#utility.yul\":2093:2177   */\n      tag_47\n      jumpi\n        /* \"#utility.yul\":2149:2167   */\n      tag_48\n      tag_26\n      jump\t// in\n    tag_48:\n        /* \"#utility.yul\":2093:2177   */\n    tag_47:\n        /* \"#utility.yul\":1914:2183   */\n      pop\n        /* \"#utility.yul\":1863:2183   */\n      swap2\n      swap1\n      pop\n      jump\t// out\n\n    auxdata: 0xa2646970667358221220a909059c19401f01e32ad31feeab9f22cbceb583302671aeec7b4960e0313ff464736f6c634300081a0033\n}\n",
				"bytecode": {
					"linkReferences": {},
					"object": "608060405234801561000f575f80fd5b50604051610761380380610761833981810160405281019061003191906101ce565b815f908161003f919061042c565b508060018190555050506104fb565b5f604051905090565b5f80fd5b5f80fd5b5f80fd5b5f80fd5b5f601f19601f8301169050919050565b7f4e487b71000000000000000000000000000000000000000000000000000000005f52604160045260245ffd5b6100ad82610067565b810181811067ffffffffffffffff821117156100cc576100cb610077565b5b80604052505050565b5f6100de61004e565b90506100ea82826100a4565b919050565b5f67ffffffffffffffff82111561010957610108610077565b5b61011282610067565b9050602081019050919050565b8281835e5f83830152505050565b5f61013f61013a846100ef565b6100d5565b90508281526020810184848401111561015b5761015a610063565b5b61016684828561011f565b509392505050565b5f82601f8301126101825761018161005f565b5b815161019284826020860161012d565b91505092915050565b5f819050919050565b6101ad8161019b565b81146101b7575f80fd5b50565b5f815190506101c8816101a4565b92915050565b5f80604083850312156101e4576101e3610057565b5b5f83015167ffffffffffffffff8111156102015761020061005b565b5b61020d8582860161016e565b925050602061021e858286016101ba565b9150509250929050565b5f81519050919050565b7f4e487b71000000000000000000000000000000000000000000000000000000005f52602260045260245ffd5b5f600282049050600182168061027657607f821691505b60208210810361028957610288610232565b5b50919050565b5f819050815f5260205f209050919050565b5f6020601f8301049050919050565b5f82821b905092915050565b5f600883026102eb7fffffffffffffffffffffffffffffffffffffffffffffffffffffffffffffffff826102b0565b6102f586836102b0565b95508019841693508086168417925050509392505050565b5f819050919050565b5f61033061032b6103268461019b565b61030d565b61019b565b9050919050565b5f819050919050565b61034983610316565b61035d61035582610337565b8484546102bc565b825550505050565b5f90565b610371610365565b61037c818484610340565b505050565b5b8181101561039f576103945f82610369565b600181019050610382565b5050565b601f8211156103e4576103b58161028f565b6103be846102a1565b810160208510156103cd578190505b6103e16103d9856102a1565b830182610381565b50505b505050565b5f82821c905092915050565b5f6104045f19846008026103e9565b1980831691505092915050565b5f61041c83836103f5565b9150826002028217905092915050565b61043582610228565b67ffffffffffffffff81111561044e5761044d610077565b5b610458825461025f565b6104638282856103a3565b5f60209050601f831160018114610494575f8415610482578287015190505b61048c8582610411565b8655506104f3565b601f1984166104a28661028f565b5f5b828110156104c9578489015182556001820191506020850194506020810190506104a4565b868310156104e657848901516104e2601f8916826103f5565b8355505b6001600288020188555050505b505050505050565b610259806105085f395ff3fe608060405234801561000f575f80fd5b5060043610610034575f3560e01c806306fdde0314610038578063262a9dff14610056575b5f80fd5b610040610074565b60405161004d9190610175565b60405180910390f35b61005e6100ff565b60405161006b91906101ad565b60405180910390f35b5f8054610080906101f3565b80601f01602080910402602001604051908101604052809291908181526020018280546100ac906101f3565b80156100f75780601f106100ce576101008083540402835291602001916100f7565b820191905f5260205f20905b8154815290600101906020018083116100da57829003601f168201915b505050505081565b60015481565b5f81519050919050565b5f82825260208201905092915050565b8281835e5f83830152505050565b5f601f19601f8301169050919050565b5f61014782610105565b610151818561010f565b935061016181856020860161011f565b61016a8161012d565b840191505092915050565b5f6020820190508181035f83015261018d818461013d565b905092915050565b5f819050919050565b6101a781610195565b82525050565b5f6020820190506101c05f83018461019e565b92915050565b7f4e487b71000000000000000000000000000000000000000000000000000000005f52602260045260245ffd5b5f600282049050600182168061020a57607f821691505b60208210810361021d5761021c6101c6565b5b5091905056fea2646970667358221220a909059c19401f01e32ad31feeab9f22cbceb583302671aeec7b4960e0313ff464736f6c634300081a0033",
					"opcodes": "PUSH1 0x80 PUSH1 0x40 MSTORE CALLVALUE DUP1 ISZERO PUSH2 0xF JUMPI PUSH0 DUP1 REVERT JUMPDEST POP PUSH1 0x40 MLOAD PUSH2 0x761 CODESIZE SUB DUP1 PUSH2 0x761 DUP4 CODECOPY DUP2 DUP2 ADD PUSH1 0x40 MSTORE DUP2 ADD SWAP1 PUSH2 0x31 SWAP2 SWAP1 PUSH2 0x1CE JUMP JUMPDEST DUP2 PUSH0 SWAP1 DUP2 PUSH2 0x3F SWAP2 SWAP1 PUSH2 0x42C JUMP JUMPDEST POP DUP1 PUSH1 0x1 DUP2 SWAP1 SSTORE POP POP POP PUSH2 0x4FB JUMP JUMPDEST PUSH0 PUSH1 0x40 MLOAD SWAP1 POP SWAP1 JUMP JUMPDEST PUSH0 DUP1 REVERT JUMPDEST PUSH0 DUP1 REVERT JUMPDEST PUSH0 DUP1 REVERT JUMPDEST PUSH0 DUP1 REVERT JUMPDEST PUSH0 PUSH1 0x1F NOT PUSH1 0x1F DUP4 ADD AND SWAP1 POP SWAP2 SWAP1 POP JUMP JUMPDEST PUSH32 0x4E487B7100000000000000000000000000000000000000000000000000000000 PUSH0 MSTORE PUSH1 0x41 PUSH1 0x4 MSTORE PUSH1 0x24 PUSH0 REVERT JUMPDEST PUSH2 0xAD DUP3 PUSH2 0x67 JUMP JUMPDEST DUP2 ADD DUP2 DUP2 LT PUSH8 0xFFFFFFFFFFFFFFFF DUP3 GT OR ISZERO PUSH2 0xCC JUMPI PUSH2 0xCB PUSH2 0x77 JUMP JUMPDEST JUMPDEST DUP1 PUSH1 0x40 MSTORE POP POP POP JUMP JUMPDEST PUSH0 PUSH2 0xDE PUSH2 0x4E JUMP JUMPDEST SWAP1 POP PUSH2 0xEA DUP3 DUP3 PUSH2 0xA4 JUMP JUMPDEST SWAP2 SWAP1 POP JUMP JUMPDEST PUSH0 PUSH8 0xFFFFFFFFFFFFFFFF DUP3 GT ISZERO PUSH2 0x109 JUMPI PUSH2 0x108 PUSH2 0x77 JUMP JUMPDEST JUMPDEST PUSH2 0x112 DUP3 PUSH2 0x67 JUMP JUMPDEST SWAP1 POP PUSH1 0x20 DUP2 ADD SWAP1 POP SWAP2 SWAP1 POP JUMP JUMPDEST DUP3 DUP2 DUP4 MCOPY PUSH0 DUP4 DUP4 ADD MSTORE POP POP POP JUMP JUMPDEST PUSH0 PUSH2 0x13F PUSH2 0x13A DUP5 PUSH2 0xEF JUMP JUMPDEST PUSH2 0xD5 JUMP JUMPDEST SWAP1 POP DUP3 DUP2 MSTORE PUSH1 0x20 DUP2 ADD DUP5 DUP5 DUP5 ADD GT ISZERO PUSH2 0x15B JUMPI PUSH2 0x15A PUSH2 0x63 JUMP JUMPDEST JUMPDEST PUSH2 0x166 DUP5 DUP3 DUP6 PUSH2 0x11F JUMP JUMPDEST POP SWAP4 SWAP3 POP POP POP JUMP JUMPDEST PUSH0 DUP3 PUSH1 0x1F DUP4 ADD SLT PUSH2 0x182 JUMPI PUSH2 0x181 PUSH2 0x5F JUMP JUMPDEST JUMPDEST DUP2 MLOAD PUSH2 0x192 DUP5 DUP3 PUSH1 0x20 DUP7 ADD PUSH2 0x12D JUMP JUMPDEST SWAP2 POP POP SWAP3 SWAP2 POP POP JUMP JUMPDEST PUSH0 DUP2 SWAP1 POP SWAP2 SWAP1 POP JUMP JUMPDEST PUSH2 0x1AD DUP2 PUSH2 0x19B JUMP JUMPDEST DUP2 EQ PUSH2 0x1B7 JUMPI PUSH0 DUP1 REVERT JUMPDEST POP JUMP JUMPDEST PUSH0 DUP2 MLOAD SWAP1 POP PUSH2 0x1C8 DUP2 PUSH2 0x1A4 JUMP JUMPDEST SWAP3 SWAP2 POP POP JUMP JUMPDEST PUSH0 DUP1 PUSH1 0x40 DUP4 DUP6 SUB SLT ISZERO PUSH2 0x1E4 JUMPI PUSH2 0x1E3 PUSH2 0x57 JUMP JUMPDEST JUMPDEST PUSH0 DUP4 ADD MLOAD PUSH8 0xFFFFFFFFFFFFFFFF DUP2 GT ISZERO PUSH2 0x201 JUMPI PUSH2 0x200 PUSH2 0x5B JUMP JUMPDEST JUMPDEST PUSH2 0x20D DUP6 DUP3 DUP7 ADD PUSH2 0x16E JUMP JUMPDEST SWAP3 POP POP PUSH1 0x20 PUSH2 0x21E DUP6 DUP3 DUP7 ADD PUSH2 0x1BA JUMP JUMPDEST SWAP2 POP POP SWAP3 POP SWAP3 SWAP1 POP JUMP JUMPDEST PUSH0 DUP2 MLOAD SWAP1 POP SWAP2 SWAP1 POP JUMP JUMPDEST PUSH32 0x4E487B7100000000000000000000000000000000000000000000000000000000 PUSH0 MSTORE PUSH1 0x22 PUSH1 0x4 MSTORE PUSH1 0x24 PUSH0 REVERT JUMPDEST PUSH0 PUSH1 0x2 DUP3 DIV SWAP1 POP PUSH1 0x1 DUP3 AND DUP1 PUSH2 0x276 JUMPI PUSH1 0x7F DUP3 AND SWAP2 POP JUMPDEST PUSH1 0x20 DUP3 LT DUP2 SUB PUSH2 0x289 JUMPI PUSH2 0x288 PUSH2 0x232 JUMP JUMPDEST JUMPDEST POP SWAP2 SWAP1 POP JUMP JUMPDEST PUSH0 DUP2 SWAP1 POP DUP2 PUSH0 MSTORE PUSH1 0x20 PUSH0 KECCAK256 SWAP1 POP SWAP2 SWAP1 POP JUMP JUMPDEST PUSH0 PUSH1 0x20 PUSH1 0x1F DUP4 ADD DIV SWAP1 POP SWAP2 SWAP1 POP JUMP JUMPDEST PUSH0 DUP3 DUP3 SHL SWAP1 POP SWAP3 SWAP2 POP POP JUMP JUMPDEST PUSH0 PUSH1 0x8 DUP4 MUL PUSH2 0x2EB PUSH32 0xFFFFFFFFFFFFFFFFFFFFFFFFFFFFFFFFFFFFFFFFFFFFFFFFFFFFFFFFFFFFFFFF DUP3 PUSH2 0x2B0 JUMP JUMPDEST PUSH2 0x2F5 DUP7 DUP4 PUSH2 0x2B0 JUMP JUMPDEST SWAP6 POP DUP1 NOT DUP5 AND SWAP4 POP DUP1 DUP7 AND DUP5 OR SWAP3 POP POP POP SWAP4 SWAP3 POP POP POP JUMP JUMPDEST PUSH0 DUP2 SWAP1 POP SWAP2 SWAP1 POP JUMP JUMPDEST PUSH0 PUSH2 0x330 PUSH2 0x32B PUSH2 0x326 DUP5 PUSH2 0x19B JUMP JUMPDEST PUSH2 0x30D JUMP JUMPDEST PUSH2 0x19B JUMP JUMPDEST SWAP1 POP SWAP2 SWAP1 POP JUMP JUMPDEST PUSH0 DUP2 SWAP1 POP SWAP2 SWAP1 POP JUMP JUMPDEST PUSH2 0x349 DUP4 PUSH2 0x316 JUMP JUMPDEST PUSH2 0x35D PUSH2 0x355 DUP3 PUSH2 0x337 JUMP JUMPDEST DUP5 DUP5 SLOAD PUSH2 0x2BC JUMP JUMPDEST DUP3 SSTORE POP POP POP POP JUMP JUMPDEST PUSH0 SWAP1 JUMP JUMPDEST PUSH2 0x371 PUSH2 0x365 JUMP JUMPDEST PUSH2 0x37C DUP2 DUP5 DUP5 PUSH2 0x340 JUMP JUMPDEST POP POP POP JUMP JUMPDEST JUMPDEST DUP2 DUP2 LT ISZERO PUSH2 0x39F JUMPI PUSH2 0x394 PUSH0 DUP3 PUSH2 0x369 JUMP JUMPDEST PUSH1 0x1 DUP2 ADD SWAP1 POP PUSH2 0x382 JUMP JUMPDEST POP POP JUMP JUMPDEST PUSH1 0x1F DUP3 GT ISZERO PUSH2 0x3E4 JUMPI PUSH2 0x3B5 DUP2 PUSH2 0x28F JUMP JUMPDEST PUSH2 0x3BE DUP5 PUSH2 0x2A1 JUMP JUMPDEST DUP2 ADD PUSH1 0x20 DUP6 LT ISZERO PUSH2 0x3CD JUMPI DUP2 SWAP1 POP JUMPDEST PUSH2 0x3E1 PUSH2 0x3D9 DUP6 PUSH2 0x2A1 JUMP JUMPDEST DUP4 ADD DUP3 PUSH2 0x381 JUMP JUMPDEST POP POP JUMPDEST POP POP POP JUMP JUMPDEST PUSH0 DUP3 DUP3 SHR SWAP1 POP SWAP3 SWAP2 POP POP JUMP JUMPDEST PUSH0 PUSH2 0x404 PUSH0 NOT DUP5 PUSH1 0x8 MUL PUSH2 0x3E9 JUMP JUMPDEST NOT DUP1 DUP4 AND SWAP2 POP POP SWAP3 SWAP2 POP POP JUMP JUMPDEST PUSH0 PUSH2 0x41C DUP4 DUP4 PUSH2 0x3F5 JUMP JUMPDEST SWAP2 POP DUP3 PUSH1 0x2 MUL DUP3 OR SWAP1 POP SWAP3 SWAP2 POP POP JUMP JUMPDEST PUSH2 0x435 DUP3 PUSH2 0x228 JUMP JUMPDEST PUSH8 0xFFFFFFFFFFFFFFFF DUP2 GT ISZERO PUSH2 0x44E JUMPI PUSH2 0x44D PUSH2 0x77 JUMP JUMPDEST JUMPDEST PUSH2 0x458 DUP3 SLOAD PUSH2 0x25F JUMP JUMPDEST PUSH2 0x463 DUP3 DUP3 DUP6 PUSH2 0x3A3 JUMP JUMPDEST PUSH0 PUSH1 0x20 SWAP1 POP PUSH1 0x1F DUP4 GT PUSH1 0x1 DUP2 EQ PUSH2 0x494 JUMPI PUSH0 DUP5 ISZERO PUSH2 0x482 JUMPI DUP3 DUP8 ADD MLOAD SWAP1 POP JUMPDEST PUSH2 0x48C DUP6 DUP3 PUSH2 0x411 JUMP JUMPDEST DUP7 SSTORE POP PUSH2 0x4F3 JUMP JUMPDEST PUSH1 0x1F NOT DUP5 AND PUSH2 0x4A2 DUP7 PUSH2 0x28F JUMP JUMPDEST PUSH0 JUMPDEST DUP3 DUP2 LT ISZERO PUSH2 0x4C9 JUMPI DUP5 DUP10 ADD MLOAD DUP3 SSTORE PUSH1 0x1 DUP3 ADD SWAP2 POP PUSH1 0x20 DUP6 ADD SWAP5 POP PUSH1 0x20 DUP2 ADD SWAP1 POP PUSH2 0x4A4 JUMP JUMPDEST DUP7 DUP4 LT ISZERO PUSH2 0x4E6 JUMPI DUP5 DUP10 ADD MLOAD PUSH2 0x4E2 PUSH1 0x1F DUP10 AND DUP3 PUSH2 0x3F5 JUMP JUMPDEST DUP4 SSTORE POP JUMPDEST PUSH1 0x1 PUSH1 0x2 DUP9 MUL ADD DUP9 SSTORE POP POP POP JUMPDEST POP POP POP POP POP POP JUMP JUMPDEST PUSH2 0x259 DUP1 PUSH2 0x508 PUSH0 CODECOPY PUSH0 RETURN INVALID PUSH1 0x80 PUSH1 0x40 MSTORE CALLVALUE DUP1 ISZERO PUSH2 0xF JUMPI PUSH0 DUP1 REVERT JUMPDEST POP PUSH1 0x4 CALLDATASIZE LT PUSH2 0x34 JUMPI PUSH0 CALLDATALOAD PUSH1 0xE0 SHR DUP1 PUSH4 0x6FDDE03 EQ PUSH2 0x38 JUMPI DUP1 PUSH4 0x262A9DFF EQ PUSH2 0x56 JUMPI JUMPDEST PUSH0 DUP1 REVERT JUMPDEST PUSH2 0x40 PUSH2 0x74 JUMP JUMPDEST PUSH1 0x40 MLOAD PUSH2 0x4D SWAP2 SWAP1 PUSH2 0x175 JUMP JUMPDEST PUSH1 0x40 MLOAD DUP1 SWAP2 SUB SWAP1 RETURN JUMPDEST PUSH2 0x5E PUSH2 0xFF JUMP JUMPDEST PUSH1 0x40 MLOAD PUSH2 0x6B SWAP2 SWAP1 PUSH2 0x1AD JUMP JUMPDEST PUSH1 0x40 MLOAD DUP1 SWAP2 SUB SWAP1 RETURN JUMPDEST PUSH0 DUP1 SLOAD PUSH2 0x80 SWAP1 PUSH2 0x1F3 JUMP JUMPDEST DUP1 PUSH1 0x1F ADD PUSH1 0x20 DUP1 SWAP2 DIV MUL PUSH1 0x20 ADD PUSH1 0x40 MLOAD SWAP1 DUP2 ADD PUSH1 0x40 MSTORE DUP1 SWAP3 SWAP2 SWAP1 DUP2 DUP2 MSTORE PUSH1 0x20 ADD DUP3 DUP1 SLOAD PUSH2 0xAC SWAP1 PUSH2 0x1F3 JUMP JUMPDEST DUP1 ISZERO PUSH2 0xF7 JUMPI DUP1 PUSH1 0x1F LT PUSH2 0xCE JUMPI PUSH2 0x100 DUP1 DUP4 SLOAD DIV MUL DUP4 MSTORE SWAP2 PUSH1 0x20 ADD SWAP2 PUSH2 0xF7 JUMP JUMPDEST DUP3 ADD SWAP2 SWAP1 PUSH0 MSTORE PUSH1 0x20 PUSH0 KECCAK256 SWAP1 JUMPDEST DUP2 SLOAD DUP2 MSTORE SWAP1 PUSH1 0x1 ADD SWAP1 PUSH1 0x20 ADD DUP1 DUP4 GT PUSH2 0xDA JUMPI DUP3 SWAP1 SUB PUSH1 0x1F AND DUP3 ADD SWAP2 JUMPDEST POP POP POP POP POP DUP2 JUMP JUMPDEST PUSH1 0x1 SLOAD DUP2 JUMP JUMPDEST PUSH0 DUP2 MLOAD SWAP1 POP SWAP2 SWAP1 POP JUMP JUMPDEST PUSH0 DUP3 DUP3 MSTORE PUSH1 0x20 DUP3 ADD SWAP1 POP SWAP3 SWAP2 POP POP JUMP JUMPDEST DUP3 DUP2 DUP4 MCOPY PUSH0 DUP4 DUP4 ADD MSTORE POP POP POP JUMP JUMPDEST PUSH0 PUSH1 0x1F NOT PUSH1 0x1F DUP4 ADD AND SWAP1 POP SWAP2 SWAP1 POP JUMP JUMPDEST PUSH0 PUSH2 0x147 DUP3 PUSH2 0x105 JUMP JUMPDEST PUSH2 0x151 DUP2 DUP6 PUSH2 0x10F JUMP JUMPDEST SWAP4 POP PUSH2 0x161 DUP2 DUP6 PUSH1 0x20 DUP7 ADD PUSH2 0x11F JUMP JUMPDEST PUSH2 0x16A DUP2 PUSH2 0x12D JUMP JUMPDEST DUP5 ADD SWAP2 POP POP SWAP3 SWAP2 POP POP JUMP JUMPDEST PUSH0 PUSH1 0x20 DUP3 ADD SWAP1 POP DUP2 DUP2 SUB PUSH0 DUP4 ADD MSTORE PUSH2 0x18D DUP2 DUP5 PUSH2 0x13D JUMP JUMPDEST SWAP1 POP SWAP3 SWAP2 POP POP JUMP JUMPDEST PUSH0 DUP2 SWAP1 POP SWAP2 SWAP1 POP JUMP JUMPDEST PUSH2 0x1A7 DUP2 PUSH2 0x195 JUMP JUMPDEST DUP3 MSTORE POP POP JUMP JUMPDEST PUSH0 PUSH1 0x20 DUP3 ADD SWAP1 POP PUSH2 0x1C0 PUSH0 DUP4 ADD DUP5 PUSH2 0x19E JUMP JUMPDEST SWAP3 SWAP2 POP POP JUMP JUMPDEST PUSH32 0x4E487B7100000000000000000000000000000000000000000000000000000000 PUSH0 MSTORE PUSH1 0x22 PUSH1 0x4 MSTORE PUSH1 0x24 PUSH0 REVERT JUMPDEST PUSH0 PUSH1 0x2 DUP3 DIV SWAP1 POP PUSH1 0x1 DUP3 AND DUP1 PUSH2 0x20A JUMPI PUSH1 0x7F DUP3 AND SWAP2 POP JUMPDEST PUSH1 0x20 DUP3 LT DUP2 SUB PUSH2 0x21D JUMPI PUSH2 0x21C PUSH2 0x1C6 JUMP JUMPDEST JUMPDEST POP SWAP2 SWAP1 POP JUMP INVALID LOG2 PUSH5 0x6970667358 0x22 SLT KECCAK256 0xA9 MULMOD SDIV SWAP13 NOT BLOCKHASH 0x1F ADD 0xE3 0x2A 0xD3 0x1F 0xEE 0xAB SWAP16 0x22 0xCB 0xCE 0xB5 DUP4 ADDRESS 0x26 PUSH18 0xAEEC7B4960E0313FF464736F6C634300081A STOP CALLER "
				},
				"gasEstimates": {
					"creation": {
						"codeDepositCost": "120200",
						"executionCost": "infinite",
						"totalCost": "infinite"
					},
					"external": {
						"age()": "2425",
						"name()": "infinite"
					}
				},
				"methodIdentifiers": {
					"age()": "262a9dff",
					"name()": "06fdde03"
				}
			},
			"storageLayout": {
				"storage": [
					{
						"astId": 3,
						"contract": "Day-21/code3.sol:A",
						"label": "name",
						"offset": 0,
						"slot": "0",
						"type": "t_string_storage"
					},
					{
						"astId": 5,
						"contract": "Day-21/code3.sol:A",
						"label": "age",
						"offset": 0,
						"slot": "1",
						"type": "t_uint256"
					}
				],
				"types": {
					"t_string_storage": {
						"encoding": "bytes",
						"label": "string",
						"numberOfBytes": "32"
					},
					"t_uint256": {
						"encoding": "inplace",
						"label": "uint256",
						"numberOfBytes": "32"
					}
				}
			},
			"userdoc": {
				"kind": "user",
				"methods": {},
				"version": 1
			}
		}
	}
}