{
	"Day-15/code4.sol": {
		"SolidityTest": {
			"abi": [
				{
					"inputs": [],
					"name": "getResult",
					"outputs": [
						{
							"internalType": "uint256",
							"name": "",
							"type": "uint256"
						}
					],
					"stateMutability": "pure",
					"type": "function"
				},
				{
					"inputs": [
						{
							"internalType": "uint256",
							"name": "_num",
							"type": "uint256"
						}
					],
					"name": "sqr",
					"outputs": [
						{
							"internalType": "uint256",
							"name": "",
							"type": "uint256"
						}
					],
					"stateMutability": "pure",
					"type": "function"
				}
			],
			"devdoc": {
				"kind": "dev",
				"methods": {},
				"version": 1
			},
			"evm": {
				"assembly": "    /* \"Day-15/code4.sol\":68:376  contract SolidityTest{... */\n  mstore(0x40, 0x80)\n  callvalue\n  dup1\n  iszero\n  tag_1\n  jumpi\n  0x00\n  dup1\n  revert\ntag_1:\n  pop\n  dataSize(sub_0)\n  dup1\n  dataOffset(sub_0)\n  0x00\n  codecopy\n  0x00\n  return\nstop\n\nsub_0: assembly {\n        /* \"Day-15/code4.sol\":68:376  contract SolidityTest{... */\n      mstore(0x40, 0x80)\n      callvalue\n      dup1\n      iszero\n      tag_1\n      jumpi\n      0x00\n      dup1\n      revert\n    tag_1:\n      pop\n      jumpi(tag_2, lt(calldatasize, 0x04))\n      shr(0xe0, calldataload(0x00))\n      dup1\n      0xa1a6c035\n      eq\n      tag_3\n      jumpi\n      dup1\n      0xde292789\n      eq\n      tag_4\n      jumpi\n    tag_2:\n      0x00\n      dup1\n      revert\n        /* \"Day-15/code4.sol\":96:202  function sqr(uint _num) public pure returns(uint){... */\n    tag_3:\n      tag_5\n      0x04\n      dup1\n      calldatasize\n      sub\n      dup2\n      add\n      swap1\n      tag_6\n      swap2\n      swap1\n      tag_7\n      jump\t// in\n    tag_6:\n      tag_8\n      jump\t// in\n    tag_5:\n      mload(0x40)\n      tag_9\n      swap2\n      swap1\n      tag_10\n      jump\t// in\n    tag_9:\n      mload(0x40)\n      dup1\n      swap2\n      sub\n      swap1\n      return\n        /* \"Day-15/code4.sol\":210:373  function getResult() public pure returns(uint){... */\n    tag_4:\n      tag_11\n      tag_12\n      jump\t// in\n    tag_11:\n      mload(0x40)\n      tag_13\n      swap2\n      swap1\n      tag_10\n      jump\t// in\n    tag_13:\n      mload(0x40)\n      dup1\n      swap2\n      sub\n      swap1\n      return\n        /* \"Day-15/code4.sol\":96:202  function sqr(uint _num) public pure returns(uint){... */\n    tag_8:\n        /* \"Day-15/code4.sol\":140:144  uint */\n      0x00\n        /* \"Day-15/code4.sol\":171:172  2 */\n      0x02\n        /* \"Day-15/code4.sol\":163:167  _num */\n      dup3\n        /* \"Day-15/code4.sol\":163:172  _num ** 2 */\n      tag_15\n      swap2\n      swap1\n      tag_16\n      jump\t// in\n    tag_15:\n        /* \"Day-15/code4.sol\":156:172  _num = _num ** 2 */\n      swap2\n      pop\n        /* \"Day-15/code4.sol\":190:194  _num */\n      dup2\n        /* \"Day-15/code4.sol\":183:194  return _num */\n      swap1\n      pop\n        /* \"Day-15/code4.sol\":96:202  function sqr(uint _num) public pure returns(uint){... */\n      swap2\n      swap1\n      pop\n      jump\t// out\n        /* \"Day-15/code4.sol\":210:373  function getResult() public pure returns(uint){... */\n    tag_12:\n        /* \"Day-15/code4.sol\":251:255  uint */\n      0x00\n        /* \"Day-15/code4.sol\":267:276  uint num1 */\n      dup1\n        /* \"Day-15/code4.sol\":279:280  5 */\n      0x05\n        /* \"Day-15/code4.sol\":267:280  uint num1 = 5 */\n      swap1\n      pop\n        /* \"Day-15/code4.sol\":291:300  uint num2 */\n      0x00\n        /* \"Day-15/code4.sol\":303:304  5 */\n      0x05\n        /* \"Day-15/code4.sol\":291:304  uint num2 = 5 */\n      swap1\n      pop\n        /* \"Day-15/code4.sol\":315:323  uint sum */\n      0x00\n        /* \"Day-15/code4.sol\":333:337  num2 */\n      dup2\n        /* \"Day-15/code4.sol\":326:330  num1 */\n      dup4\n        /* \"Day-15/code4.sol\":326:337  num1 + num2 */\n      tag_18\n      swap2\n      swap1\n      tag_19\n      jump\t// in\n    tag_18:\n        /* \"Day-15/code4.sol\":315:337  uint sum = num1 + num2 */\n      swap1\n      pop\n        /* \"Day-15/code4.sol\":357:365  sqr(sum) */\n      tag_20\n        /* \"Day-15/code4.sol\":361:364  sum */\n      dup2\n        /* \"Day-15/code4.sol\":357:360  sqr */\n      tag_8\n        /* \"Day-15/code4.sol\":357:365  sqr(sum) */\n      jump\t// in\n    tag_20:\n        /* \"Day-15/code4.sol\":350:365  return sqr(sum) */\n      swap4\n      pop\n      pop\n      pop\n      pop\n        /* \"Day-15/code4.sol\":210:373  function getResult() public pure returns(uint){... */\n      swap1\n      jump\t// out\n        /* \"#utility.yul\":88:205   */\n    tag_22:\n        /* \"#utility.yul\":197:198   */\n      0x00\n        /* \"#utility.yul\":194:195   */\n      dup1\n        /* \"#utility.yul\":187:199   */\n      revert\n        /* \"#utility.yul\":334:411   */\n    tag_24:\n        /* \"#utility.yul\":371:378   */\n      0x00\n        /* \"#utility.yul\":400:405   */\n      dup2\n        /* \"#utility.yul\":389:405   */\n      swap1\n      pop\n        /* \"#utility.yul\":334:411   */\n      swap2\n      swap1\n      pop\n      jump\t// out\n        /* \"#utility.yul\":417:539   */\n    tag_25:\n        /* \"#utility.yul\":490:514   */\n      tag_39\n        /* \"#utility.yul\":508:513   */\n      dup2\n        /* \"#utility.yul\":490:514   */\n      tag_24\n      jump\t// in\n    tag_39:\n        /* \"#utility.yul\":483:488   */\n      dup2\n        /* \"#utility.yul\":480:515   */\n      eq\n        /* \"#utility.yul\":470:533   */\n      tag_40\n      jumpi\n        /* \"#utility.yul\":529:530   */\n      0x00\n        /* \"#utility.yul\":526:527   */\n      dup1\n        /* \"#utility.yul\":519:531   */\n      revert\n        /* \"#utility.yul\":470:533   */\n    tag_40:\n        /* \"#utility.yul\":417:539   */\n      pop\n      jump\t// out\n        /* \"#utility.yul\":545:684   */\n    tag_26:\n        /* \"#utility.yul\":591:596   */\n      0x00\n        /* \"#utility.yul\":629:635   */\n      dup2\n        /* \"#utility.yul\":616:636   */\n      calldataload\n        /* \"#utility.yul\":607:636   */\n      swap1\n      pop\n        /* \"#utility.yul\":645:678   */\n      tag_42\n        /* \"#utility.yul\":672:677   */\n      dup2\n        /* \"#utility.yul\":645:678   */\n      tag_25\n      jump\t// in\n    tag_42:\n        /* \"#utility.yul\":545:684   */\n      swap3\n      swap2\n      pop\n      pop\n      jump\t// out\n        /* \"#utility.yul\":690:1019   */\n    tag_7:\n        /* \"#utility.yul\":749:755   */\n      0x00\n        /* \"#utility.yul\":798:800   */\n      0x20\n        /* \"#utility.yul\":786:795   */\n      dup3\n        /* \"#utility.yul\":777:784   */\n      dup5\n        /* \"#utility.yul\":773:796   */\n      sub\n        /* \"#utility.yul\":769:801   */\n      slt\n        /* \"#utility.yul\":766:885   */\n      iszero\n      tag_44\n      jumpi\n        /* \"#utility.yul\":804:883   */\n      tag_45\n      tag_22\n      jump\t// in\n    tag_45:\n        /* \"#utility.yul\":766:885   */\n    tag_44:\n        /* \"#utility.yul\":924:925   */\n      0x00\n        /* \"#utility.yul\":949:1002   */\n      tag_46\n        /* \"#utility.yul\":994:1001   */\n      dup5\n        /* \"#utility.yul\":985:991   */\n      dup3\n        /* \"#utility.yul\":974:983   */\n      dup6\n        /* \"#utility.yul\":970:992   */\n      add\n        /* \"#utility.yul\":949:1002   */\n      tag_26\n      jump\t// in\n    tag_46:\n        /* \"#utility.yul\":939:1002   */\n      swap2\n      pop\n        /* \"#utility.yul\":895:1012   */\n      pop\n        /* \"#utility.yul\":690:1019   */\n      swap3\n      swap2\n      pop\n      pop\n      jump\t// out\n        /* \"#utility.yul\":1025:1143   */\n    tag_27:\n        /* \"#utility.yul\":1112:1136   */\n      tag_48\n        /* \"#utility.yul\":1130:1135   */\n      dup2\n        /* \"#utility.yul\":1112:1136   */\n      tag_24\n      jump\t// in\n    tag_48:\n        /* \"#utility.yul\":1107:1110   */\n      dup3\n        /* \"#utility.yul\":1100:1137   */\n      mstore\n        /* \"#utility.yul\":1025:1143   */\n      pop\n      pop\n      jump\t// out\n        /* \"#utility.yul\":1149:1371   */\n    tag_10:\n        /* \"#utility.yul\":1242:1246   */\n      0x00\n        /* \"#utility.yul\":1280:1282   */\n      0x20\n        /* \"#utility.yul\":1269:1278   */\n      dup3\n        /* \"#utility.yul\":1265:1283   */\n      add\n        /* \"#utility.yul\":1257:1283   */\n      swap1\n      pop\n        /* \"#utility.yul\":1293:1364   */\n      tag_50\n        /* \"#utility.yul\":1361:1362   */\n      0x00\n        /* \"#utility.yul\":1350:1359   */\n      dup4\n        /* \"#utility.yul\":1346:1363   */\n      add\n        /* \"#utility.yul\":1337:1343   */\n      dup5\n        /* \"#utility.yul\":1293:1364   */\n      tag_27\n      jump\t// in\n    tag_50:\n        /* \"#utility.yul\":1149:1371   */\n      swap3\n      swap2\n      pop\n      pop\n      jump\t// out\n        /* \"#utility.yul\":1377:1557   */\n    tag_28:\n        /* \"#utility.yul\":1425:1502   */\n      0x4e487b7100000000000000000000000000000000000000000000000000000000\n        /* \"#utility.yul\":1422:1423   */\n      0x00\n        /* \"#utility.yul\":1415:1503   */\n      mstore\n        /* \"#utility.yul\":1522:1526   */\n      0x11\n        /* \"#utility.yul\":1519:1520   */\n      0x04\n        /* \"#utility.yul\":1512:1527   */\n      mstore\n        /* \"#utility.yul\":1546:1550   */\n      0x24\n        /* \"#utility.yul\":1543:1544   */\n      0x00\n        /* \"#utility.yul\":1536:1551   */\n      revert\n        /* \"#utility.yul\":1563:1665   */\n    tag_29:\n        /* \"#utility.yul\":1605:1613   */\n      0x00\n        /* \"#utility.yul\":1652:1657   */\n      dup2\n        /* \"#utility.yul\":1649:1650   */\n      0x01\n        /* \"#utility.yul\":1645:1658   */\n      shr\n        /* \"#utility.yul\":1624:1658   */\n      swap1\n      pop\n        /* \"#utility.yul\":1563:1665   */\n      swap2\n      swap1\n      pop\n      jump\t// out\n        /* \"#utility.yul\":1671:2519   */\n    tag_30:\n        /* \"#utility.yul\":1732:1737   */\n      0x00\n        /* \"#utility.yul\":1739:1743   */\n      dup1\n        /* \"#utility.yul\":1763:1769   */\n      dup3\n        /* \"#utility.yul\":1754:1769   */\n      swap2\n      pop\n        /* \"#utility.yul\":1787:1792   */\n      dup4\n        /* \"#utility.yul\":1778:1792   */\n      swap1\n      pop\n        /* \"#utility.yul\":1801:2513   */\n    tag_54:\n        /* \"#utility.yul\":1822:1823   */\n      0x01\n        /* \"#utility.yul\":1812:1820   */\n      dup6\n        /* \"#utility.yul\":1809:1824   */\n      gt\n        /* \"#utility.yul\":1801:2513   */\n      iszero\n      tag_56\n      jumpi\n        /* \"#utility.yul\":1917:1921   */\n      dup1\n        /* \"#utility.yul\":1912:1915   */\n      dup7\n        /* \"#utility.yul\":1908:1922   */\n      div\n        /* \"#utility.yul\":1902:1906   */\n      dup2\n        /* \"#utility.yul\":1899:1923   */\n      gt\n        /* \"#utility.yul\":1896:1946   */\n      iszero\n      tag_57\n      jumpi\n        /* \"#utility.yul\":1926:1944   */\n      tag_58\n      tag_28\n      jump\t// in\n    tag_58:\n        /* \"#utility.yul\":1896:1946   */\n    tag_57:\n        /* \"#utility.yul\":1976:1977   */\n      0x01\n        /* \"#utility.yul\":1966:1974   */\n      dup6\n        /* \"#utility.yul\":1962:1978   */\n      and\n        /* \"#utility.yul\":1959:2410   */\n      iszero\n      tag_59\n      jumpi\n        /* \"#utility.yul\":2391:2395   */\n      dup1\n        /* \"#utility.yul\":2384:2389   */\n      dup3\n        /* \"#utility.yul\":2380:2396   */\n      mul\n        /* \"#utility.yul\":2371:2396   */\n      swap2\n      pop\n        /* \"#utility.yul\":1959:2410   */\n    tag_59:\n        /* \"#utility.yul\":2441:2445   */\n      dup1\n        /* \"#utility.yul\":2435:2439   */\n      dup2\n        /* \"#utility.yul\":2431:2446   */\n      mul\n        /* \"#utility.yul\":2423:2446   */\n      swap1\n      pop\n        /* \"#utility.yul\":2471:2503   */\n      tag_60\n        /* \"#utility.yul\":2494:2502   */\n      dup6\n        /* \"#utility.yul\":2471:2503   */\n      tag_29\n      jump\t// in\n    tag_60:\n        /* \"#utility.yul\":2459:2503   */\n      swap5\n      pop\n        /* \"#utility.yul\":1801:2513   */\n      jump(tag_54)\n    tag_56:\n        /* \"#utility.yul\":1671:2519   */\n      swap5\n      pop\n      swap5\n      swap3\n      pop\n      pop\n      pop\n      jump\t// out\n        /* \"#utility.yul\":2525:3598   */\n    tag_31:\n        /* \"#utility.yul\":2579:2584   */\n      0x00\n        /* \"#utility.yul\":2770:2778   */\n      dup3\n        /* \"#utility.yul\":2760:2800   */\n      tag_62\n      jumpi\n        /* \"#utility.yul\":2791:2792   */\n      0x01\n        /* \"#utility.yul\":2782:2792   */\n      swap1\n      pop\n        /* \"#utility.yul\":2793:2798   */\n      jump(tag_61)\n        /* \"#utility.yul\":2760:2800   */\n    tag_62:\n        /* \"#utility.yul\":2819:2823   */\n      dup2\n        /* \"#utility.yul\":2809:2845   */\n      tag_63\n      jumpi\n        /* \"#utility.yul\":2836:2837   */\n      0x00\n        /* \"#utility.yul\":2827:2837   */\n      swap1\n      pop\n        /* \"#utility.yul\":2838:2843   */\n      jump(tag_61)\n        /* \"#utility.yul\":2809:2845   */\n    tag_63:\n        /* \"#utility.yul\":2905:2909   */\n      dup2\n        /* \"#utility.yul\":2953:2954   */\n      0x01\n        /* \"#utility.yul\":2948:2975   */\n      dup2\n      eq\n      tag_65\n      jumpi\n        /* \"#utility.yul\":2989:2990   */\n      0x02\n        /* \"#utility.yul\":2984:3175   */\n      dup2\n      eq\n      tag_66\n      jumpi\n        /* \"#utility.yul\":2898:3175   */\n      jump(tag_64)\n        /* \"#utility.yul\":2948:2975   */\n    tag_65:\n        /* \"#utility.yul\":2966:2967   */\n      0x01\n        /* \"#utility.yul\":2957:2967   */\n      swap2\n      pop\n        /* \"#utility.yul\":2968:2973   */\n      pop\n      jump(tag_61)\n        /* \"#utility.yul\":2984:3175   */\n    tag_66:\n        /* \"#utility.yul\":3029:3032   */\n      0xff\n        /* \"#utility.yul\":3019:3027   */\n      dup5\n        /* \"#utility.yul\":3016:3033   */\n      gt\n        /* \"#utility.yul\":3013:3056   */\n      iszero\n      tag_67\n      jumpi\n        /* \"#utility.yul\":3036:3054   */\n      tag_68\n      tag_28\n      jump\t// in\n    tag_68:\n        /* \"#utility.yul\":3013:3056   */\n    tag_67:\n        /* \"#utility.yul\":3085:3093   */\n      dup4\n        /* \"#utility.yul\":3082:3083   */\n      0x02\n        /* \"#utility.yul\":3078:3094   */\n      exp\n        /* \"#utility.yul\":3069:3094   */\n      swap2\n      pop\n        /* \"#utility.yul\":3120:3123   */\n      dup5\n        /* \"#utility.yul\":3113:3118   */\n      dup3\n        /* \"#utility.yul\":3110:3124   */\n      gt\n        /* \"#utility.yul\":3107:3147   */\n      iszero\n      tag_69\n      jumpi\n        /* \"#utility.yul\":3127:3145   */\n      tag_70\n      tag_28\n      jump\t// in\n    tag_70:\n        /* \"#utility.yul\":3107:3147   */\n    tag_69:\n        /* \"#utility.yul\":3160:3165   */\n      pop\n      jump(tag_61)\n        /* \"#utility.yul\":2898:3175   */\n    tag_64:\n      pop\n        /* \"#utility.yul\":3284:3286   */\n      0x20\n        /* \"#utility.yul\":3274:3282   */\n      dup4\n        /* \"#utility.yul\":3271:3287   */\n      lt\n        /* \"#utility.yul\":3265:3268   */\n      0x0133\n        /* \"#utility.yul\":3259:3263   */\n      dup4\n        /* \"#utility.yul\":3256:3269   */\n      lt\n        /* \"#utility.yul\":3252:3288   */\n      and\n        /* \"#utility.yul\":3234:3236   */\n      0x4e\n        /* \"#utility.yul\":3224:3232   */\n      dup5\n        /* \"#utility.yul\":3221:3237   */\n      lt\n        /* \"#utility.yul\":3216:3218   */\n      0x0b\n        /* \"#utility.yul\":3210:3214   */\n      dup5\n        /* \"#utility.yul\":3207:3219   */\n      lt\n        /* \"#utility.yul\":3203:3238   */\n      and\n        /* \"#utility.yul\":3187:3298   */\n      or\n        /* \"#utility.yul\":3184:3430   */\n      iszero\n      tag_71\n      jumpi\n        /* \"#utility.yul\":3340:3348   */\n      dup3\n        /* \"#utility.yul\":3334:3338   */\n      dup3\n        /* \"#utility.yul\":3330:3349   */\n      exp\n        /* \"#utility.yul\":3321:3349   */\n      swap1\n      pop\n        /* \"#utility.yul\":3375:3378   */\n      dup4\n        /* \"#utility.yul\":3368:3373   */\n      dup2\n        /* \"#utility.yul\":3365:3379   */\n      gt\n        /* \"#utility.yul\":3362:3402   */\n      iszero\n      tag_72\n      jumpi\n        /* \"#utility.yul\":3382:3400   */\n      tag_73\n      tag_28\n      jump\t// in\n    tag_73:\n        /* \"#utility.yul\":3362:3402   */\n    tag_72:\n        /* \"#utility.yul\":3415:3420   */\n      jump(tag_61)\n        /* \"#utility.yul\":3184:3430   */\n    tag_71:\n        /* \"#utility.yul\":3455:3497   */\n      tag_74\n        /* \"#utility.yul\":3493:3496   */\n      dup5\n        /* \"#utility.yul\":3483:3491   */\n      dup5\n        /* \"#utility.yul\":3477:3481   */\n      dup5\n        /* \"#utility.yul\":3474:3475   */\n      0x01\n        /* \"#utility.yul\":3455:3497   */\n      tag_30\n      jump\t// in\n    tag_74:\n        /* \"#utility.yul\":3440:3497   */\n      swap3\n      pop\n      swap1\n      pop\n        /* \"#utility.yul\":3529:3533   */\n      dup2\n        /* \"#utility.yul\":3524:3527   */\n      dup5\n        /* \"#utility.yul\":3520:3534   */\n      div\n        /* \"#utility.yul\":3513:3518   */\n      dup2\n        /* \"#utility.yul\":3510:3535   */\n      gt\n        /* \"#utility.yul\":3507:3558   */\n      iszero\n      tag_75\n      jumpi\n        /* \"#utility.yul\":3538:3556   */\n      tag_76\n      tag_28\n      jump\t// in\n    tag_76:\n        /* \"#utility.yul\":3507:3558   */\n    tag_75:\n        /* \"#utility.yul\":3587:3591   */\n      dup2\n        /* \"#utility.yul\":3580:3585   */\n      dup2\n        /* \"#utility.yul\":3576:3592   */\n      mul\n        /* \"#utility.yul\":3567:3592   */\n      swap1\n      pop\n        /* \"#utility.yul\":2525:3598   */\n    tag_61:\n      swap4\n      swap3\n      pop\n      pop\n      pop\n      jump\t// out\n        /* \"#utility.yul\":3604:3690   */\n    tag_32:\n        /* \"#utility.yul\":3639:3646   */\n      0x00\n        /* \"#utility.yul\":3679:3683   */\n      0xff\n        /* \"#utility.yul\":3672:3677   */\n      dup3\n        /* \"#utility.yul\":3668:3684   */\n      and\n        /* \"#utility.yul\":3657:3684   */\n      swap1\n      pop\n        /* \"#utility.yul\":3604:3690   */\n      swap2\n      swap1\n      pop\n      jump\t// out\n        /* \"#utility.yul\":3696:3977   */\n    tag_16:\n        /* \"#utility.yul\":3754:3759   */\n      0x00\n        /* \"#utility.yul\":3778:3801   */\n      tag_79\n        /* \"#utility.yul\":3796:3800   */\n      dup3\n        /* \"#utility.yul\":3778:3801   */\n      tag_24\n      jump\t// in\n    tag_79:\n        /* \"#utility.yul\":3770:3801   */\n      swap2\n      pop\n        /* \"#utility.yul\":3822:3847   */\n      tag_80\n        /* \"#utility.yul\":3838:3846   */\n      dup4\n        /* \"#utility.yul\":3822:3847   */\n      tag_32\n      jump\t// in\n    tag_80:\n        /* \"#utility.yul\":3810:3847   */\n      swap3\n      pop\n        /* \"#utility.yul\":3866:3970   */\n      tag_81\n        /* \"#utility.yul\":3903:3969   */\n      0xffffffffffffffffffffffffffffffffffffffffffffffffffffffffffffffff\n        /* \"#utility.yul\":3893:3901   */\n      dup5\n        /* \"#utility.yul\":3887:3891   */\n      dup5\n        /* \"#utility.yul\":3866:3970   */\n      tag_31\n      jump\t// in\n    tag_81:\n        /* \"#utility.yul\":3857:3970   */\n      swap1\n      pop\n        /* \"#utility.yul\":3696:3977   */\n      swap3\n      swap2\n      pop\n      pop\n      jump\t// out\n        /* \"#utility.yul\":3983:4174   */\n    tag_19:\n        /* \"#utility.yul\":4023:4026   */\n      0x00\n        /* \"#utility.yul\":4042:4062   */\n      tag_83\n        /* \"#utility.yul\":4060:4061   */\n      dup3\n        /* \"#utility.yul\":4042:4062   */\n      tag_24\n      jump\t// in\n    tag_83:\n        /* \"#utility.yul\":4037:4062   */\n      swap2\n      pop\n        /* \"#utility.yul\":4076:4096   */\n      tag_84\n        /* \"#utility.yul\":4094:4095   */\n      dup4\n        /* \"#utility.yul\":4076:4096   */\n      tag_24\n      jump\t// in\n    tag_84:\n        /* \"#utility.yul\":4071:4096   */\n      swap3\n      pop\n        /* \"#utility.yul\":4119:4120   */\n      dup3\n        /* \"#utility.yul\":4116:4117   */\n      dup3\n        /* \"#utility.yul\":4112:4121   */\n      add\n        /* \"#utility.yul\":4105:4121   */\n      swap1\n      pop\n        /* \"#utility.yul\":4140:4143   */\n      dup1\n        /* \"#utility.yul\":4137:4138   */\n      dup3\n        /* \"#utility.yul\":4134:4144   */\n      gt\n        /* \"#utility.yul\":4131:4167   */\n      iszero\n      tag_85\n      jumpi\n        /* \"#utility.yul\":4147:4165   */\n      tag_86\n      tag_28\n      jump\t// in\n    tag_86:\n        /* \"#utility.yul\":4131:4167   */\n    tag_85:\n        /* \"#utility.yul\":3983:4174   */\n      swap3\n      swap2\n      pop\n      pop\n      jump\t// out\n\n    auxdata: 0xa2646970667358221220448984f2106c075ed943df19284eff656cd2fb87b3c05c732a8f9b4a89bcfe0064736f6c634300081a0033\n}\n",
				"bytecode": {
					"linkReferences": {},
					"object": "6080604052348015600e575f80fd5b5061036e8061001c5f395ff3fe608060405234801561000f575f80fd5b5060043610610034575f3560e01c8063a1a6c03514610038578063de29278914610068575b5f80fd5b610052600480360381019061004d9190610100565b610086565b60405161005f919061013a565b60405180910390f35b61007061009e565b60405161007d919061013a565b60405180910390f35b5f60028261009491906102bb565b9150819050919050565b5f80600590505f600590505f81836100b69190610305565b90506100c181610086565b935050505090565b5f80fd5b5f819050919050565b6100df816100cd565b81146100e9575f80fd5b50565b5f813590506100fa816100d6565b92915050565b5f60208284031215610115576101146100c9565b5b5f610122848285016100ec565b91505092915050565b610134816100cd565b82525050565b5f60208201905061014d5f83018461012b565b92915050565b7f4e487b71000000000000000000000000000000000000000000000000000000005f52601160045260245ffd5b5f8160011c9050919050565b5f808291508390505b60018511156101d5578086048111156101b1576101b0610153565b5b60018516156101c05780820291505b80810290506101ce85610180565b9450610195565b94509492505050565b5f826101ed57600190506102a8565b816101fa575f90506102a8565b8160018114610210576002811461021a57610249565b60019150506102a8565b60ff84111561022c5761022b610153565b5b8360020a91508482111561024357610242610153565b5b506102a8565b5060208310610133831016604e8410600b841016171561027e5782820a90508381111561027957610278610153565b5b6102a8565b61028b848484600161018c565b925090508184048111156102a2576102a1610153565b5b81810290505b9392505050565b5f60ff82169050919050565b5f6102c5826100cd565b91506102d0836102af565b92506102fd7fffffffffffffffffffffffffffffffffffffffffffffffffffffffffffffffff84846101de565b905092915050565b5f61030f826100cd565b915061031a836100cd565b925082820190508082111561033257610331610153565b5b9291505056fea2646970667358221220448984f2106c075ed943df19284eff656cd2fb87b3c05c732a8f9b4a89bcfe0064736f6c634300081a0033",
					"opcodes": "PUSH1 0x80 PUSH1 0x40 MSTORE CALLVALUE DUP1 ISZERO PUSH1 0xE JUMPI PUSH0 DUP1 REVERT JUMPDEST POP PUSH2 0x36E DUP1 PUSH2 0x1C PUSH0 CODECOPY PUSH0 RETURN INVALID PUSH1 0x80 PUSH1 0x40 MSTORE CALLVALUE DUP1 ISZERO PUSH2 0xF JUMPI PUSH0 DUP1 REVERT JUMPDEST POP PUSH1 0x4 CALLDATASIZE LT PUSH2 0x34 JUMPI PUSH0 CALLDATALOAD PUSH1 0xE0 SHR DUP1 PUSH4 0xA1A6C035 EQ PUSH2 0x38 JUMPI DUP1 PUSH4 0xDE292789 EQ PUSH2 0x68 JUMPI JUMPDEST PUSH0 DUP1 REVERT JUMPDEST PUSH2 0x52 PUSH1 0x4 DUP1 CALLDATASIZE SUB DUP2 ADD SWAP1 PUSH2 0x4D SWAP2 SWAP1 PUSH2 0x100 JUMP JUMPDEST PUSH2 0x86 JUMP JUMPDEST PUSH1 0x40 MLOAD PUSH2 0x5F SWAP2 SWAP1 PUSH2 0x13A JUMP JUMPDEST PUSH1 0x40 MLOAD DUP1 SWAP2 SUB SWAP1 RETURN JUMPDEST PUSH2 0x70 PUSH2 0x9E JUMP JUMPDEST PUSH1 0x40 MLOAD PUSH2 0x7D SWAP2 SWAP1 PUSH2 0x13A JUMP JUMPDEST PUSH1 0x40 MLOAD DUP1 SWAP2 SUB SWAP1 RETURN JUMPDEST PUSH0 PUSH1 0x2 DUP3 PUSH2 0x94 SWAP2 SWAP1 PUSH2 0x2BB JUMP JUMPDEST SWAP2 POP DUP2 SWAP1 POP SWAP2 SWAP1 POP JUMP JUMPDEST PUSH0 DUP1 PUSH1 0x5 SWAP1 POP PUSH0 PUSH1 0x5 SWAP1 POP PUSH0 DUP2 DUP4 PUSH2 0xB6 SWAP2 SWAP1 PUSH2 0x305 JUMP JUMPDEST SWAP1 POP PUSH2 0xC1 DUP2 PUSH2 0x86 JUMP JUMPDEST SWAP4 POP POP POP POP SWAP1 JUMP JUMPDEST PUSH0 DUP1 REVERT JUMPDEST PUSH0 DUP2 SWAP1 POP SWAP2 SWAP1 POP JUMP JUMPDEST PUSH2 0xDF DUP2 PUSH2 0xCD JUMP JUMPDEST DUP2 EQ PUSH2 0xE9 JUMPI PUSH0 DUP1 REVERT JUMPDEST POP JUMP JUMPDEST PUSH0 DUP2 CALLDATALOAD SWAP1 POP PUSH2 0xFA DUP2 PUSH2 0xD6 JUMP JUMPDEST SWAP3 SWAP2 POP POP JUMP JUMPDEST PUSH0 PUSH1 0x20 DUP3 DUP5 SUB SLT ISZERO PUSH2 0x115 JUMPI PUSH2 0x114 PUSH2 0xC9 JUMP JUMPDEST JUMPDEST PUSH0 PUSH2 0x122 DUP5 DUP3 DUP6 ADD PUSH2 0xEC JUMP JUMPDEST SWAP2 POP POP SWAP3 SWAP2 POP POP JUMP JUMPDEST PUSH2 0x134 DUP2 PUSH2 0xCD JUMP JUMPDEST DUP3 MSTORE POP POP JUMP JUMPDEST PUSH0 PUSH1 0x20 DUP3 ADD SWAP1 POP PUSH2 0x14D PUSH0 DUP4 ADD DUP5 PUSH2 0x12B JUMP JUMPDEST SWAP3 SWAP2 POP POP JUMP JUMPDEST PUSH32 0x4E487B7100000000000000000000000000000000000000000000000000000000 PUSH0 MSTORE PUSH1 0x11 PUSH1 0x4 MSTORE PUSH1 0x24 PUSH0 REVERT JUMPDEST PUSH0 DUP2 PUSH1 0x1 SHR SWAP1 POP SWAP2 SWAP1 POP JUMP JUMPDEST PUSH0 DUP1 DUP3 SWAP2 POP DUP4 SWAP1 POP JUMPDEST PUSH1 0x1 DUP6 GT ISZERO PUSH2 0x1D5 JUMPI DUP1 DUP7 DIV DUP2 GT ISZERO PUSH2 0x1B1 JUMPI PUSH2 0x1B0 PUSH2 0x153 JUMP JUMPDEST JUMPDEST PUSH1 0x1 DUP6 AND ISZERO PUSH2 0x1C0 JUMPI DUP1 DUP3 MUL SWAP2 POP JUMPDEST DUP1 DUP2 MUL SWAP1 POP PUSH2 0x1CE DUP6 PUSH2 0x180 JUMP JUMPDEST SWAP5 POP PUSH2 0x195 JUMP JUMPDEST SWAP5 POP SWAP5 SWAP3 POP POP POP JUMP JUMPDEST PUSH0 DUP3 PUSH2 0x1ED JUMPI PUSH1 0x1 SWAP1 POP PUSH2 0x2A8 JUMP JUMPDEST DUP2 PUSH2 0x1FA JUMPI PUSH0 SWAP1 POP PUSH2 0x2A8 JUMP JUMPDEST DUP2 PUSH1 0x1 DUP2 EQ PUSH2 0x210 JUMPI PUSH1 0x2 DUP2 EQ PUSH2 0x21A JUMPI PUSH2 0x249 JUMP JUMPDEST PUSH1 0x1 SWAP2 POP POP PUSH2 0x2A8 JUMP JUMPDEST PUSH1 0xFF DUP5 GT ISZERO PUSH2 0x22C JUMPI PUSH2 0x22B PUSH2 0x153 JUMP JUMPDEST JUMPDEST DUP4 PUSH1 0x2 EXP SWAP2 POP DUP5 DUP3 GT ISZERO PUSH2 0x243 JUMPI PUSH2 0x242 PUSH2 0x153 JUMP JUMPDEST JUMPDEST POP PUSH2 0x2A8 JUMP JUMPDEST POP PUSH1 0x20 DUP4 LT PUSH2 0x133 DUP4 LT AND PUSH1 0x4E DUP5 LT PUSH1 0xB DUP5 LT AND OR ISZERO PUSH2 0x27E JUMPI DUP3 DUP3 EXP SWAP1 POP DUP4 DUP2 GT ISZERO PUSH2 0x279 JUMPI PUSH2 0x278 PUSH2 0x153 JUMP JUMPDEST JUMPDEST PUSH2 0x2A8 JUMP JUMPDEST PUSH2 0x28B DUP5 DUP5 DUP5 PUSH1 0x1 PUSH2 0x18C JUMP JUMPDEST SWAP3 POP SWAP1 POP DUP2 DUP5 DIV DUP2 GT ISZERO PUSH2 0x2A2 JUMPI PUSH2 0x2A1 PUSH2 0x153 JUMP JUMPDEST JUMPDEST DUP2 DUP2 MUL SWAP1 POP JUMPDEST SWAP4 SWAP3 POP POP POP JUMP JUMPDEST PUSH0 PUSH1 0xFF DUP3 AND SWAP1 POP SWAP2 SWAP1 POP JUMP JUMPDEST PUSH0 PUSH2 0x2C5 DUP3 PUSH2 0xCD JUMP JUMPDEST SWAP2 POP PUSH2 0x2D0 DUP4 PUSH2 0x2AF JUMP JUMPDEST SWAP3 POP PUSH2 0x2FD PUSH32 0xFFFFFFFFFFFFFFFFFFFFFFFFFFFFFFFFFFFFFFFFFFFFFFFFFFFFFFFFFFFFFFFF DUP5 DUP5 PUSH2 0x1DE JUMP JUMPDEST SWAP1 POP SWAP3 SWAP2 POP POP JUMP JUMPDEST PUSH0 PUSH2 0x30F DUP3 PUSH2 0xCD JUMP JUMPDEST SWAP2 POP PUSH2 0x31A DUP4 PUSH2 0xCD JUMP JUMPDEST SWAP3 POP DUP3 DUP3 ADD SWAP1 POP DUP1 DUP3 GT ISZERO PUSH2 0x332 JUMPI PUSH2 0x331 PUSH2 0x153 JUMP JUMPDEST JUMPDEST SWAP3 SWAP2 POP POP JUMP INVALID LOG2 PUSH5 0x6970667358 0x22 SLT KECCAK256 PREVRANDAO DUP10 DUP5 CALLCODE LT PUSH13 0x75ED943DF19284EFF656CD2FB DUP8 0xB3 0xC0 TLOAD PUSH20 0x2A8F9B4A89BCFE0064736F6C634300081A003300 "
				},
				"gasEstimates": {
					"creation": {
						"codeDepositCost": "175600",
						"executionCost": "218",
						"totalCost": "175818"
					},
					"external": {
						"getResult()": "infinite",
						"sqr(uint256)": "infinite"
					}
				},
				"methodIdentifiers": {
					"getResult()": "de292789",
					"sqr(uint256)": "a1a6c035"
				}
			},
			"storageLayout": {
				"storage": [],
				"types": null
			},
			"userdoc": {
				"kind": "user",
				"methods": {},
				"version": 1
			}
		}
	}
}