{
	"data": {
		"bytecode": {
			"linkReferences": {},
			"object": "6080604052348015600e575f80fd5b506101588061001c5f395ff3fe608060405234801561000f575f80fd5b5060043610610029575f3560e01c806391bbdcc71461002d575b5f80fd5b61003561004b565b6040516100429190610102565b60405180910390f35b60605f6040518060400160405280600b81526020017f48656c6c6f20576f726c6400000000000000000000000000000000000000000081525090505f819050809250505090565b5f81519050919050565b5f82825260208201905092915050565b8281835e5f83830152505050565b5f601f19601f8301169050919050565b5f6100d482610092565b6100de818561009c565b93506100ee8185602086016100ac565b6100f7816100ba565b840191505092915050565b5f6020820190508181035f83015261011a81846100ca565b90509291505056fea2646970667358221220f96567eab64ef669cb6c4a0f5c436aab5b0cdf20b9fad7c807fbd6f548b49f5664736f6c634300081a0033",
			"opcodes": "PUSH1 0x80 PUSH1 0x40 MSTORE CALLVALUE DUP1 ISZERO PUSH1 0xE JUMPI PUSH0 DUP1 REVERT JUMPDEST POP PUSH2 0x158 DUP1 PUSH2 0x1C PUSH0 CODECOPY PUSH0 RETURN INVALID PUSH1 0x80 PUSH1 0x40 MSTORE CALLVALUE DUP1 ISZERO PUSH2 0xF JUMPI PUSH0 DUP1 REVERT JUMPDEST POP PUSH1 0x4 CALLDATASIZE LT PUSH2 0x29 JUMPI PUSH0 CALLDATALOAD PUSH1 0xE0 SHR DUP1 PUSH4 0x91BBDCC7 EQ PUSH2 0x2D JUMPI JUMPDEST PUSH0 DUP1 REVERT JUMPDEST PUSH2 0x35 PUSH2 0x4B JUMP JUMPDEST PUSH1 0x40 MLOAD PUSH2 0x42 SWAP2 SWAP1 PUSH2 0x102 JUMP JUMPDEST PUSH1 0x40 MLOAD DUP1 SWAP2 SUB SWAP1 RETURN JUMPDEST PUSH1 0x60 PUSH0 PUSH1 0x40 MLOAD DUP1 PUSH1 0x40 ADD PUSH1 0x40 MSTORE DUP1 PUSH1 0xB DUP2 MSTORE PUSH1 0x20 ADD PUSH32 0x48656C6C6F20576F726C64000000000000000000000000000000000000000000 DUP2 MSTORE POP SWAP1 POP PUSH0 DUP2 SWAP1 POP DUP1 SWAP3 POP POP POP SWAP1 JUMP JUMPDEST PUSH0 DUP2 MLOAD SWAP1 POP SWAP2 SWAP1 POP JUMP JUMPDEST PUSH0 DUP3 DUP3 MSTORE PUSH1 0x20 DUP3 ADD SWAP1 POP SWAP3 SWAP2 POP POP JUMP JUMPDEST DUP3 DUP2 DUP4 MCOPY PUSH0 DUP4 DUP4 ADD MSTORE POP POP POP JUMP JUMPDEST PUSH0 PUSH1 0x1F NOT PUSH1 0x1F DUP4 ADD AND SWAP1 POP SWAP2 SWAP1 POP JUMP JUMPDEST PUSH0 PUSH2 0xD4 DUP3 PUSH2 0x92 JUMP JUMPDEST PUSH2 0xDE DUP2 DUP6 PUSH2 0x9C JUMP JUMPDEST SWAP4 POP PUSH2 0xEE DUP2 DUP6 PUSH1 0x20 DUP7 ADD PUSH2 0xAC JUMP JUMPDEST PUSH2 0xF7 DUP2 PUSH2 0xBA JUMP JUMPDEST DUP5 ADD SWAP2 POP POP SWAP3 SWAP2 POP POP JUMP JUMPDEST PUSH0 PUSH1 0x20 DUP3 ADD SWAP1 POP DUP2 DUP2 SUB PUSH0 DUP4 ADD MSTORE PUSH2 0x11A DUP2 DUP5 PUSH2 0xCA JUMP JUMPDEST SWAP1 POP SWAP3 SWAP2 POP POP JUMP INVALID LOG2 PUSH5 0x6970667358 0x22 SLT KECCAK256 0xF9 PUSH6 0x67EAB64EF669 0xCB PUSH13 0x4A0F5C436AAB5B0CDF20B9FAD7 0xC8 SMOD 0xFB 0xD6 CREATE2 BASEFEE 0xB4 SWAP16 JUMP PUSH5 0x736F6C6343 STOP ADDMOD BYTE STOP CALLER "
		},
		"gasEstimates": {
			"creation": {
				"codeDepositCost": "68800",
				"executionCost": "115",
				"totalCost": "68915"
			},
			"external": {
				"convert()": "infinite"
			}
		},
		"methodIdentifiers": {
			"convert()": "91bbdcc7"
		}
	},
	"abi": [
		{
			"inputs": [],
			"name": "convert",
			"outputs": [
				{
					"internalType": "bytes",
					"name": "",
					"type": "bytes"
				}
			],
			"stateMutability": "pure",
			"type": "function"
		}
	]
}