{
	"Day-11/code1.sol": {
		"Types": {
			"abi": [
				{
					"constant": false,
					"inputs": [],
					"name": "array_example",
					"outputs": [
						{
							"internalType": "int256[5]",
							"name": "",
							"type": "int256[5]"
						},
						{
							"internalType": "uint256[6]",
							"name": "",
							"type": "uint256[6]"
						}
					],
					"payable": false,
					"stateMutability": "nonpayable",
					"type": "function"
				}
			],
			"devdoc": {
				"methods": {}
			},
			"evm": {
				"assembly": "    /* \"Day-11/code1.sol\":92:463  contract Types { \r... */\n  mstore(0x40, 0x80)\n  callvalue\n    /* \"--CODEGEN--\":8:17   */\n  dup1\n    /* \"--CODEGEN--\":5:7   */\n  iszero\n  tag_1\n  jumpi\n    /* \"--CODEGEN--\":30:31   */\n  0x00\n    /* \"--CODEGEN--\":27:28   */\n  dup1\n    /* \"--CODEGEN--\":20:32   */\n  revert\n    /* \"--CODEGEN--\":5:7   */\ntag_1:\n    /* \"Day-11/code1.sol\":92:463  contract Types { \r... */\n  pop\n  dataSize(sub_0)\n  dup1\n  dataOffset(sub_0)\n  0x00\n  codecopy\n  0x00\n  return\nstop\n\nsub_0: assembly {\n        /* \"Day-11/code1.sol\":92:463  contract Types { \r... */\n      mstore(0x40, 0x80)\n      callvalue\n        /* \"--CODEGEN--\":8:17   */\n      dup1\n        /* \"--CODEGEN--\":5:7   */\n      iszero\n      tag_1\n      jumpi\n        /* \"--CODEGEN--\":30:31   */\n      0x00\n        /* \"--CODEGEN--\":27:28   */\n      dup1\n        /* \"--CODEGEN--\":20:32   */\n      revert\n        /* \"--CODEGEN--\":5:7   */\n    tag_1:\n        /* \"Day-11/code1.sol\":92:463  contract Types { \r... */\n      pop\n      jumpi(tag_2, lt(calldatasize, 0x04))\n      shr(0xe0, calldataload(0x00))\n      dup1\n      0x67227992\n      eq\n      tag_3\n      jumpi\n    tag_2:\n      0x00\n      dup1\n      revert\n        /* \"Day-11/code1.sol\":241:459  function array_example() public returns (\r... */\n    tag_3:\n      tag_4\n      tag_5\n      jump\t// in\n    tag_4:\n      mload(0x40)\n      dup1\n      dup4\n      mul(0x20, 0x05)\n      dup1\n      dup4\n      dup4\n        /* \"--CODEGEN--\":23:24   */\n      0x00\n        /* \"--CODEGEN--\":8:108   */\n    tag_6:\n        /* \"--CODEGEN--\":33:36   */\n      dup4\n        /* \"--CODEGEN--\":30:31   */\n      dup2\n        /* \"--CODEGEN--\":27:37   */\n      lt\n        /* \"--CODEGEN--\":8:108   */\n      iszero\n      tag_8\n      jumpi\n        /* \"--CODEGEN--\":99:100   */\n      dup1\n        /* \"--CODEGEN--\":94:97   */\n      dup3\n        /* \"--CODEGEN--\":90:101   */\n      add\n        /* \"--CODEGEN--\":84:102   */\n      mload\n        /* \"--CODEGEN--\":80:81   */\n      dup2\n        /* \"--CODEGEN--\":75:78   */\n      dup5\n        /* \"--CODEGEN--\":71:82   */\n      add\n        /* \"--CODEGEN--\":64:103   */\n      mstore\n        /* \"--CODEGEN--\":52:54   */\n      0x20\n        /* \"--CODEGEN--\":49:50   */\n      dup2\n        /* \"--CODEGEN--\":45:55   */\n      add\n        /* \"--CODEGEN--\":40:55   */\n      swap1\n      pop\n        /* \"--CODEGEN--\":8:108   */\n      jump(tag_6)\n    tag_8:\n        /* \"--CODEGEN--\":12:26   */\n      pop\n        /* \"Day-11/code1.sol\":241:459  function array_example() public returns (\r... */\n      pop\n      pop\n      pop\n      swap1\n      pop\n      add\n      dup3\n      mul(0x20, 0x06)\n      dup1\n      dup4\n      dup4\n        /* \"--CODEGEN--\":23:24   */\n      0x00\n        /* \"--CODEGEN--\":8:108   */\n    tag_9:\n        /* \"--CODEGEN--\":33:36   */\n      dup4\n        /* \"--CODEGEN--\":30:31   */\n      dup2\n        /* \"--CODEGEN--\":27:37   */\n      lt\n        /* \"--CODEGEN--\":8:108   */\n      iszero\n      tag_11\n      jumpi\n        /* \"--CODEGEN--\":99:100   */\n      dup1\n        /* \"--CODEGEN--\":94:97   */\n      dup3\n        /* \"--CODEGEN--\":90:101   */\n      add\n        /* \"--CODEGEN--\":84:102   */\n      mload\n        /* \"--CODEGEN--\":80:81   */\n      dup2\n        /* \"--CODEGEN--\":75:78   */\n      dup5\n        /* \"--CODEGEN--\":71:82   */\n      add\n        /* \"--CODEGEN--\":64:103   */\n      mstore\n        /* \"--CODEGEN--\":52:54   */\n      0x20\n        /* \"--CODEGEN--\":49:50   */\n      dup2\n        /* \"--CODEGEN--\":45:55   */\n      add\n        /* \"--CODEGEN--\":40:55   */\n      swap1\n      pop\n        /* \"--CODEGEN--\":8:108   */\n      jump(tag_9)\n    tag_11:\n        /* \"--CODEGEN--\":12:26   */\n      pop\n        /* \"Day-11/code1.sol\":241:459  function array_example() public returns (\r... */\n      pop\n      pop\n      pop\n      swap1\n      pop\n      add\n      swap3\n      pop\n      pop\n      pop\n      mload(0x40)\n      dup1\n      swap2\n      sub\n      swap1\n      return\n    tag_5:\n        /* \"Day-11/code1.sol\":285:298  int[5] memory */\n      tag_12\n      tag_13\n      jump\t// in\n    tag_12:\n        /* \"Day-11/code1.sol\":300:314  uint[6] memory */\n      tag_14\n      tag_15\n      jump\t// in\n    tag_14:\n        /* \"Day-11/code1.sol\":325:343  int[5] memory data */\n      tag_17\n      tag_13\n      jump\t// in\n    tag_17:\n        /* \"Day-11/code1.sol\":325:377  int[5] memory data \r... */\n      mload(0x40)\n      dup1\n      0xa0\n      add\n      0x40\n      mstore\n      dup1\n        /* \"Day-11/code1.sol\":355:357  50 */\n      0x32\n        /* \"Day-11/code1.sol\":325:377  int[5] memory data \r... */\n      dup2\n      mstore\n      0x20\n      add\n        /* \"Day-11/code1.sol\":360:363  -63 */\n      0xffffffffffffffffffffffffffffffffffffffffffffffffffffffffffffffc1\n        /* \"Day-11/code1.sol\":325:377  int[5] memory data \r... */\n      dup2\n      mstore\n      0x20\n      add\n        /* \"Day-11/code1.sol\":365:367  77 */\n      0x4d\n        /* \"Day-11/code1.sol\":325:377  int[5] memory data \r... */\n      dup2\n      mstore\n      0x20\n      add\n        /* \"Day-11/code1.sol\":369:372  -28 */\n      0xffffffffffffffffffffffffffffffffffffffffffffffffffffffffffffffe4\n        /* \"Day-11/code1.sol\":325:377  int[5] memory data \r... */\n      dup2\n      mstore\n      0x20\n      add\n        /* \"Day-11/code1.sol\":374:376  90 */\n      0x5a\n        /* \"Day-11/code1.sol\":325:377  int[5] memory data \r... */\n      dup2\n      mstore\n      pop\n      swap1\n      pop\n        /* \"Day-11/code1.sol\":383:425  data1 \r... */\n      mload(0x40)\n      dup1\n      0xc0\n      add\n      0x40\n      mstore\n      dup1\n        /* \"Day-11/code1.sol\":401:403  10 */\n      0x0a\n        /* \"Day-11/code1.sol\":383:425  data1 \r... */\n      dup2\n      mstore\n      0x20\n      add\n        /* \"Day-11/code1.sol\":406:408  20 */\n      0x14\n        /* \"Day-11/code1.sol\":383:425  data1 \r... */\n      dup2\n      mstore\n      0x20\n      add\n        /* \"Day-11/code1.sol\":410:412  30 */\n      0x1e\n        /* \"Day-11/code1.sol\":383:425  data1 \r... */\n      dup2\n      mstore\n      0x20\n      add\n        /* \"Day-11/code1.sol\":414:416  40 */\n      0x28\n        /* \"Day-11/code1.sol\":383:425  data1 \r... */\n      dup2\n      mstore\n      0x20\n      add\n        /* \"Day-11/code1.sol\":418:420  50 */\n      0x32\n        /* \"Day-11/code1.sol\":383:425  data1 \r... */\n      dup2\n      mstore\n      0x20\n      add\n        /* \"Day-11/code1.sol\":422:424  60 */\n      0x3c\n        /* \"Day-11/code1.sol\":383:425  data1 \r... */\n      dup2\n      mstore\n      pop\n        /* \"Day-11/code1.sol\":383:388  data1 */\n      0x00\n        /* \"Day-11/code1.sol\":383:425  data1 \r... */\n      swap1\n      0x06\n      tag_18\n      swap3\n      swap2\n      swap1\n      tag_19\n      jump\t// in\n    tag_18:\n      pop\n        /* \"Day-11/code1.sol\":442:446  data */\n      dup1\n        /* \"Day-11/code1.sol\":448:453  data1 */\n      0x00\n        /* \"Day-11/code1.sol\":434:454  return (data, data1) */\n      dup1\n      0x06\n      dup1\n      0x20\n      mul\n      mload(0x40)\n      swap1\n      dup2\n      add\n      0x40\n      mstore\n      dup1\n      swap3\n      swap2\n      swap1\n      dup3\n      0x06\n      dup1\n      iszero\n      tag_20\n      jumpi\n      0x20\n      mul\n      dup3\n      add\n      swap2\n    tag_21:\n      dup2\n      sload\n      dup2\n      mstore\n      0x20\n      add\n      swap1\n      0x01\n      add\n      swap1\n      dup1\n      dup4\n      gt\n      tag_21\n      jumpi\n    tag_20:\n      pop\n      pop\n      pop\n      pop\n      pop\n      swap1\n      pop\n      swap3\n      pop\n      swap3\n      pop\n      pop\n        /* \"Day-11/code1.sol\":241:459  function array_example() public returns (\r... */\n      swap1\n      swap2\n      jump\t// out\n        /* \"Day-11/code1.sol\":92:463  contract Types { \r... */\n    tag_13:\n      mload(0x40)\n      dup1\n      0xa0\n      add\n      0x40\n      mstore\n      dup1\n      0x05\n      swap1\n        /* \"--CODEGEN--\":29:31   */\n      0x20\n        /* \"--CODEGEN--\":21:27   */\n      dup3\n        /* \"--CODEGEN--\":17:32   */\n      mul\n        /* \"--CODEGEN--\":117:121   */\n      dup1\n        /* \"--CODEGEN--\":105:115   */\n      codesize\n        /* \"--CODEGEN--\":97:103   */\n      dup4\n        /* \"--CODEGEN--\":88:122   */\n      codecopy\n        /* \"--CODEGEN--\":148:152   */\n      dup1\n        /* \"--CODEGEN--\":140:146   */\n      dup3\n        /* \"--CODEGEN--\":136:153   */\n      add\n        /* \"--CODEGEN--\":126:153   */\n      swap2\n      pop\n        /* \"--CODEGEN--\":0:157   */\n      pop\n        /* \"Day-11/code1.sol\":92:463  contract Types { \r... */\n      swap1\n      pop\n      pop\n      swap1\n      jump\t// out\n    tag_15:\n      mload(0x40)\n      dup1\n      0xc0\n      add\n      0x40\n      mstore\n      dup1\n      0x06\n      swap1\n        /* \"--CODEGEN--\":29:31   */\n      0x20\n        /* \"--CODEGEN--\":21:27   */\n      dup3\n        /* \"--CODEGEN--\":17:32   */\n      mul\n        /* \"--CODEGEN--\":117:121   */\n      dup1\n        /* \"--CODEGEN--\":105:115   */\n      codesize\n        /* \"--CODEGEN--\":97:103   */\n      dup4\n        /* \"--CODEGEN--\":88:122   */\n      codecopy\n        /* \"--CODEGEN--\":148:152   */\n      dup1\n        /* \"--CODEGEN--\":140:146   */\n      dup3\n        /* \"--CODEGEN--\":136:153   */\n      add\n        /* \"--CODEGEN--\":126:153   */\n      swap2\n      pop\n        /* \"--CODEGEN--\":0:157   */\n      pop\n        /* \"Day-11/code1.sol\":92:463  contract Types { \r... */\n      swap1\n      pop\n      pop\n      swap1\n      jump\t// out\n    tag_19:\n      dup3\n      0x06\n      dup2\n      add\n      swap3\n      dup3\n      iszero\n      tag_22\n      jumpi\n      swap2\n      0x20\n      mul\n      dup3\n      add\n    tag_23:\n      dup3\n      dup2\n      gt\n      iszero\n      tag_24\n      jumpi\n      dup3\n      mload\n      dup3\n      sstore\n      swap2\n      0x20\n      add\n      swap2\n      swap1\n      0x01\n      add\n      swap1\n      jump(tag_23)\n    tag_24:\n    tag_22:\n      pop\n      swap1\n      pop\n      tag_25\n      swap2\n      swap1\n      tag_26\n      jump\t// in\n    tag_25:\n      pop\n      swap1\n      jump\t// out\n    tag_26:\n      tag_27\n      swap2\n      swap1\n    tag_28:\n      dup1\n      dup3\n      gt\n      iszero\n      tag_29\n      jumpi\n      0x00\n      dup2\n      0x00\n      swap1\n      sstore\n      pop\n      0x01\n      add\n      jump(tag_28)\n    tag_29:\n      pop\n      swap1\n      jump\n    tag_27:\n      swap1\n      jump\t// out\n\n    auxdata: 0xa265627a7a72315820b6d4c69e9284eb4ecc584906a5d0e2544ae4a33d2df25dce1a123d9f0b7120ab64736f6c63430005110032\n}\n",
				"bytecode": {
					"linkReferences": {},
					"object": "608060405234801561001057600080fd5b50610296806100206000396000f3fe608060405234801561001057600080fd5b506004361061002b5760003560e01c80636722799214610030575b600080fd5b6100386100a5565b6040518083600560200280838360005b83811015610063578082015181840152602081019050610048565b5050505090500182600660200280838360005b83811015610091578082015181840152602081019050610076565b505050509050019250505060405180910390f35b6100ad6101b8565b6100b56101da565b6100bd6101b8565b6040518060a00160405280603281526020017fffffffffffffffffffffffffffffffffffffffffffffffffffffffffffffffc18152602001604d81526020017fffffffffffffffffffffffffffffffffffffffffffffffffffffffffffffffe48152602001605a81525090506040518060c00160405280600a815260200160148152602001601e81526020016028815260200160328152602001603c815250600090600661016c9291906101fc565b50806000806006806020026040519081016040528092919082600680156101a8576020028201915b815481526020019060010190808311610194575b5050505050905092509250509091565b6040518060a00160405280600590602082028038833980820191505090505090565b6040518060c00160405280600690602082028038833980820191505090505090565b826006810192821561022b579160200282015b8281111561022a57825182559160200191906001019061020f565b5b509050610238919061023c565b5090565b61025e91905b8082111561025a576000816000905550600101610242565b5090565b9056fea265627a7a72315820b6d4c69e9284eb4ecc584906a5d0e2544ae4a33d2df25dce1a123d9f0b7120ab64736f6c63430005110032",
					"opcodes": "PUSH1 0x80 PUSH1 0x40 MSTORE CALLVALUE DUP1 ISZERO PUSH2 0x10 JUMPI PUSH1 0x0 DUP1 REVERT JUMPDEST POP PUSH2 0x296 DUP1 PUSH2 0x20 PUSH1 0x0 CODECOPY PUSH1 0x0 RETURN INVALID PUSH1 0x80 PUSH1 0x40 MSTORE CALLVALUE DUP1 ISZERO PUSH2 0x10 JUMPI PUSH1 0x0 DUP1 REVERT JUMPDEST POP PUSH1 0x4 CALLDATASIZE LT PUSH2 0x2B JUMPI PUSH1 0x0 CALLDATALOAD PUSH1 0xE0 SHR DUP1 PUSH4 0x67227992 EQ PUSH2 0x30 JUMPI JUMPDEST PUSH1 0x0 DUP1 REVERT JUMPDEST PUSH2 0x38 PUSH2 0xA5 JUMP JUMPDEST PUSH1 0x40 MLOAD DUP1 DUP4 PUSH1 0x5 PUSH1 0x20 MUL DUP1 DUP4 DUP4 PUSH1 0x0 JUMPDEST DUP4 DUP2 LT ISZERO PUSH2 0x63 JUMPI DUP1 DUP3 ADD MLOAD DUP2 DUP5 ADD MSTORE PUSH1 0x20 DUP2 ADD SWAP1 POP PUSH2 0x48 JUMP JUMPDEST POP POP POP POP SWAP1 POP ADD DUP3 PUSH1 0x6 PUSH1 0x20 MUL DUP1 DUP4 DUP4 PUSH1 0x0 JUMPDEST DUP4 DUP2 LT ISZERO PUSH2 0x91 JUMPI DUP1 DUP3 ADD MLOAD DUP2 DUP5 ADD MSTORE PUSH1 0x20 DUP2 ADD SWAP1 POP PUSH2 0x76 JUMP JUMPDEST POP POP POP POP SWAP1 POP ADD SWAP3 POP POP POP PUSH1 0x40 MLOAD DUP1 SWAP2 SUB SWAP1 RETURN JUMPDEST PUSH2 0xAD PUSH2 0x1B8 JUMP JUMPDEST PUSH2 0xB5 PUSH2 0x1DA JUMP JUMPDEST PUSH2 0xBD PUSH2 0x1B8 JUMP JUMPDEST PUSH1 0x40 MLOAD DUP1 PUSH1 0xA0 ADD PUSH1 0x40 MSTORE DUP1 PUSH1 0x32 DUP2 MSTORE PUSH1 0x20 ADD PUSH32 0xFFFFFFFFFFFFFFFFFFFFFFFFFFFFFFFFFFFFFFFFFFFFFFFFFFFFFFFFFFFFFFC1 DUP2 MSTORE PUSH1 0x20 ADD PUSH1 0x4D DUP2 MSTORE PUSH1 0x20 ADD PUSH32 0xFFFFFFFFFFFFFFFFFFFFFFFFFFFFFFFFFFFFFFFFFFFFFFFFFFFFFFFFFFFFFFE4 DUP2 MSTORE PUSH1 0x20 ADD PUSH1 0x5A DUP2 MSTORE POP SWAP1 POP PUSH1 0x40 MLOAD DUP1 PUSH1 0xC0 ADD PUSH1 0x40 MSTORE DUP1 PUSH1 0xA DUP2 MSTORE PUSH1 0x20 ADD PUSH1 0x14 DUP2 MSTORE PUSH1 0x20 ADD PUSH1 0x1E DUP2 MSTORE PUSH1 0x20 ADD PUSH1 0x28 DUP2 MSTORE PUSH1 0x20 ADD PUSH1 0x32 DUP2 MSTORE PUSH1 0x20 ADD PUSH1 0x3C DUP2 MSTORE POP PUSH1 0x0 SWAP1 PUSH1 0x6 PUSH2 0x16C SWAP3 SWAP2 SWAP1 PUSH2 0x1FC JUMP JUMPDEST POP DUP1 PUSH1 0x0 DUP1 PUSH1 0x6 DUP1 PUSH1 0x20 MUL PUSH1 0x40 MLOAD SWAP1 DUP2 ADD PUSH1 0x40 MSTORE DUP1 SWAP3 SWAP2 SWAP1 DUP3 PUSH1 0x6 DUP1 ISZERO PUSH2 0x1A8 JUMPI PUSH1 0x20 MUL DUP3 ADD SWAP2 JUMPDEST DUP2 SLOAD DUP2 MSTORE PUSH1 0x20 ADD SWAP1 PUSH1 0x1 ADD SWAP1 DUP1 DUP4 GT PUSH2 0x194 JUMPI JUMPDEST POP POP POP POP POP SWAP1 POP SWAP3 POP SWAP3 POP POP SWAP1 SWAP2 JUMP JUMPDEST PUSH1 0x40 MLOAD DUP1 PUSH1 0xA0 ADD PUSH1 0x40 MSTORE DUP1 PUSH1 0x5 SWAP1 PUSH1 0x20 DUP3 MUL DUP1 CODESIZE DUP4 CODECOPY DUP1 DUP3 ADD SWAP2 POP POP SWAP1 POP POP SWAP1 JUMP JUMPDEST PUSH1 0x40 MLOAD DUP1 PUSH1 0xC0 ADD PUSH1 0x40 MSTORE DUP1 PUSH1 0x6 SWAP1 PUSH1 0x20 DUP3 MUL DUP1 CODESIZE DUP4 CODECOPY DUP1 DUP3 ADD SWAP2 POP POP SWAP1 POP POP SWAP1 JUMP JUMPDEST DUP3 PUSH1 0x6 DUP2 ADD SWAP3 DUP3 ISZERO PUSH2 0x22B JUMPI SWAP2 PUSH1 0x20 MUL DUP3 ADD JUMPDEST DUP3 DUP2 GT ISZERO PUSH2 0x22A JUMPI DUP3 MLOAD DUP3 SSTORE SWAP2 PUSH1 0x20 ADD SWAP2 SWAP1 PUSH1 0x1 ADD SWAP1 PUSH2 0x20F JUMP JUMPDEST JUMPDEST POP SWAP1 POP PUSH2 0x238 SWAP2 SWAP1 PUSH2 0x23C JUMP JUMPDEST POP SWAP1 JUMP JUMPDEST PUSH2 0x25E SWAP2 SWAP1 JUMPDEST DUP1 DUP3 GT ISZERO PUSH2 0x25A JUMPI PUSH1 0x0 DUP2 PUSH1 0x0 SWAP1 SSTORE POP PUSH1 0x1 ADD PUSH2 0x242 JUMP JUMPDEST POP SWAP1 JUMP JUMPDEST SWAP1 JUMP INVALID LOG2 PUSH6 0x627A7A723158 KECCAK256 0xB6 0xD4 0xC6 SWAP15 SWAP3 DUP5 0xEB 0x4E 0xCC PC 0x49 MOD 0xA5 0xD0 0xE2 SLOAD 0x4A 0xE4 LOG3 RETURNDATASIZE 0x2D CALLCODE 0x5D 0xCE BYTE SLT RETURNDATASIZE SWAP16 SIGNEXTEND PUSH18 0x20AB64736F6C634300051100320000000000 "
				},
				"gasEstimates": {
					"creation": {
						"codeDepositCost": "132400",
						"executionCost": "177",
						"totalCost": "132577"
					},
					"external": {
						"array_example()": "infinite"
					}
				},
				"methodIdentifiers": {
					"array_example()": "67227992"
				}
			},
			"storageLayout": {
				"storage": [
					{
						"astId": 5,
						"contract": "Day-11/code1.sol:Types",
						"label": "data1",
						"offset": 0,
						"slot": "0",
						"type": "t_array(t_uint256)6_storage"
					}
				],
				"types": {
					"t_array(t_uint256)6_storage": {
						"base": "t_uint256",
						"encoding": "inplace",
						"label": "uint256[6]",
						"numberOfBytes": "192"
					},
					"t_uint256": {
						"encoding": "inplace",
						"label": "uint256",
						"numberOfBytes": "32"
					}
				}
			},
			"userdoc": {
				"methods": {}
			}
		}
	}
}