{
	"data": {
		"bytecode": {
			"linkReferences": {},
			"object": "6080604052348015600e575f80fd5b506102e88061001c5f395ff3fe608060405234801561000f575f80fd5b5060043610610029575f3560e01c8063669e48aa1461002d575b5f80fd5b610047600480360381019061004291906100eb565b61005d565b6040516100549190610138565b60405180910390f35b5f80828461006b919061017e565b90505f838561007a91906101b1565b90505f848661008991906101e4565b90505f85876100989190610252565b90505f86886100a79190610282565b9050505050505092915050565b5f80fd5b5f819050919050565b6100ca816100b8565b81146100d4575f80fd5b50565b5f813590506100e5816100c1565b92915050565b5f8060408385031215610101576101006100b4565b5b5f61010e858286016100d7565b925050602061011f858286016100d7565b9150509250929050565b610132816100b8565b82525050565b5f60208201905061014b5f830184610129565b92915050565b7f4e487b71000000000000000000000000000000000000000000000000000000005f52601160045260245ffd5b5f610188826100b8565b9150610193836100b8565b92508282019050808211156101ab576101aa610151565b5b92915050565b5f6101bb826100b8565b91506101c6836100b8565b92508282039050818111156101de576101dd610151565b5b92915050565b5f6101ee826100b8565b91506101f9836100b8565b9250828202610207816100b8565b9150828204841483151761021e5761021d610151565b5b5092915050565b7f4e487b71000000000000000000000000000000000000000000000000000000005f52601260045260245ffd5b5f61025c826100b8565b9150610267836100b8565b92508261027757610276610225565b5b828204905092915050565b5f61028c826100b8565b9150610297836100b8565b9250826102a7576102a6610225565b5b82820690509291505056fea2646970667358221220a3a7ac6e523e174d96590d6735b07c57e58aab23593a5ea260df9d3073bc540364736f6c634300081a0033",
			"opcodes": "PUSH1 0x80 PUSH1 0x40 MSTORE CALLVALUE DUP1 ISZERO PUSH1 0xE JUMPI PUSH0 DUP1 REVERT JUMPDEST POP PUSH2 0x2E8 DUP1 PUSH2 0x1C PUSH0 CODECOPY PUSH0 RETURN INVALID PUSH1 0x80 PUSH1 0x40 MSTORE CALLVALUE DUP1 ISZERO PUSH2 0xF JUMPI PUSH0 DUP1 REVERT JUMPDEST POP PUSH1 0x4 CALLDATASIZE LT PUSH2 0x29 JUMPI PUSH0 CALLDATALOAD PUSH1 0xE0 SHR DUP1 PUSH4 0x669E48AA EQ PUSH2 0x2D JUMPI JUMPDEST PUSH0 DUP1 REVERT JUMPDEST PUSH2 0x47 PUSH1 0x4 DUP1 CALLDATASIZE SUB DUP2 ADD SWAP1 PUSH2 0x42 SWAP2 SWAP1 PUSH2 0xEB JUMP JUMPDEST PUSH2 0x5D JUMP JUMPDEST PUSH1 0x40 MLOAD PUSH2 0x54 SWAP2 SWAP1 PUSH2 0x138 JUMP JUMPDEST PUSH1 0x40 MLOAD DUP1 SWAP2 SUB SWAP1 RETURN JUMPDEST PUSH0 DUP1 DUP3 DUP5 PUSH2 0x6B SWAP2 SWAP1 PUSH2 0x17E JUMP JUMPDEST SWAP1 POP PUSH0 DUP4 DUP6 PUSH2 0x7A SWAP2 SWAP1 PUSH2 0x1B1 JUMP JUMPDEST SWAP1 POP PUSH0 DUP5 DUP7 PUSH2 0x89 SWAP2 SWAP1 PUSH2 0x1E4 JUMP JUMPDEST SWAP1 POP PUSH0 DUP6 DUP8 PUSH2 0x98 SWAP2 SWAP1 PUSH2 0x252 JUMP JUMPDEST SWAP1 POP PUSH0 DUP7 DUP9 PUSH2 0xA7 SWAP2 SWAP1 PUSH2 0x282 JUMP JUMPDEST SWAP1 POP POP POP POP POP POP SWAP3 SWAP2 POP POP JUMP JUMPDEST PUSH0 DUP1 REVERT JUMPDEST PUSH0 DUP2 SWAP1 POP SWAP2 SWAP1 POP JUMP JUMPDEST PUSH2 0xCA DUP2 PUSH2 0xB8 JUMP JUMPDEST DUP2 EQ PUSH2 0xD4 JUMPI PUSH0 DUP1 REVERT JUMPDEST POP JUMP JUMPDEST PUSH0 DUP2 CALLDATALOAD SWAP1 POP PUSH2 0xE5 DUP2 PUSH2 0xC1 JUMP JUMPDEST SWAP3 SWAP2 POP POP JUMP JUMPDEST PUSH0 DUP1 PUSH1 0x40 DUP4 DUP6 SUB SLT ISZERO PUSH2 0x101 JUMPI PUSH2 0x100 PUSH2 0xB4 JUMP JUMPDEST JUMPDEST PUSH0 PUSH2 0x10E DUP6 DUP3 DUP7 ADD PUSH2 0xD7 JUMP JUMPDEST SWAP3 POP POP PUSH1 0x20 PUSH2 0x11F DUP6 DUP3 DUP7 ADD PUSH2 0xD7 JUMP JUMPDEST SWAP2 POP POP SWAP3 POP SWAP3 SWAP1 POP JUMP JUMPDEST PUSH2 0x132 DUP2 PUSH2 0xB8 JUMP JUMPDEST DUP3 MSTORE POP POP JUMP JUMPDEST PUSH0 PUSH1 0x20 DUP3 ADD SWAP1 POP PUSH2 0x14B PUSH0 DUP4 ADD DUP5 PUSH2 0x129 JUMP JUMPDEST SWAP3 SWAP2 POP POP JUMP JUMPDEST PUSH32 0x4E487B7100000000000000000000000000000000000000000000000000000000 PUSH0 MSTORE PUSH1 0x11 PUSH1 0x4 MSTORE PUSH1 0x24 PUSH0 REVERT JUMPDEST PUSH0 PUSH2 0x188 DUP3 PUSH2 0xB8 JUMP JUMPDEST SWAP2 POP PUSH2 0x193 DUP4 PUSH2 0xB8 JUMP JUMPDEST SWAP3 POP DUP3 DUP3 ADD SWAP1 POP DUP1 DUP3 GT ISZERO PUSH2 0x1AB JUMPI PUSH2 0x1AA PUSH2 0x151 JUMP JUMPDEST JUMPDEST SWAP3 SWAP2 POP POP JUMP JUMPDEST PUSH0 PUSH2 0x1BB DUP3 PUSH2 0xB8 JUMP JUMPDEST SWAP2 POP PUSH2 0x1C6 DUP4 PUSH2 0xB8 JUMP JUMPDEST SWAP3 POP DUP3 DUP3 SUB SWAP1 POP DUP2 DUP2 GT ISZERO PUSH2 0x1DE JUMPI PUSH2 0x1DD PUSH2 0x151 JUMP JUMPDEST JUMPDEST SWAP3 SWAP2 POP POP JUMP JUMPDEST PUSH0 PUSH2 0x1EE DUP3 PUSH2 0xB8 JUMP JUMPDEST SWAP2 POP PUSH2 0x1F9 DUP4 PUSH2 0xB8 JUMP JUMPDEST SWAP3 POP DUP3 DUP3 MUL PUSH2 0x207 DUP2 PUSH2 0xB8 JUMP JUMPDEST SWAP2 POP DUP3 DUP3 DIV DUP5 EQ DUP4 ISZERO OR PUSH2 0x21E JUMPI PUSH2 0x21D PUSH2 0x151 JUMP JUMPDEST JUMPDEST POP SWAP3 SWAP2 POP POP JUMP JUMPDEST PUSH32 0x4E487B7100000000000000000000000000000000000000000000000000000000 PUSH0 MSTORE PUSH1 0x12 PUSH1 0x4 MSTORE PUSH1 0x24 PUSH0 REVERT JUMPDEST PUSH0 PUSH2 0x25C DUP3 PUSH2 0xB8 JUMP JUMPDEST SWAP2 POP PUSH2 0x267 DUP4 PUSH2 0xB8 JUMP JUMPDEST SWAP3 POP DUP3 PUSH2 0x277 JUMPI PUSH2 0x276 PUSH2 0x225 JUMP JUMPDEST JUMPDEST DUP3 DUP3 DIV SWAP1 POP SWAP3 SWAP2 POP POP JUMP JUMPDEST PUSH0 PUSH2 0x28C DUP3 PUSH2 0xB8 JUMP JUMPDEST SWAP2 POP PUSH2 0x297 DUP4 PUSH2 0xB8 JUMP JUMPDEST SWAP3 POP DUP3 PUSH2 0x2A7 JUMPI PUSH2 0x2A6 PUSH2 0x225 JUMP JUMPDEST JUMPDEST DUP3 DUP3 MOD SWAP1 POP SWAP3 SWAP2 POP POP JUMP INVALID LOG2 PUSH5 0x6970667358 0x22 SLT KECCAK256 LOG3 0xA7 0xAC PUSH15 0x523E174D96590D6735B07C57E58AAB 0x23 MSIZE GASPRICE MCOPY LOG2 PUSH1 0xDF SWAP14 ADDRESS PUSH20 0xBC540364736F6C634300081A0033000000000000 "
		},
		"gasEstimates": {
			"creation": {
				"codeDepositCost": "148800",
				"executionCost": "194",
				"totalCost": "148994"
			},
			"external": {
				"get(uint256,uint256)": "infinite"
			}
		},
		"methodIdentifiers": {
			"get(uint256,uint256)": "669e48aa"
		}
	},
	"abi": [
		{
			"inputs": [
				{
					"internalType": "uint256",
					"name": "x",
					"type": "uint256"
				},
				{
					"internalType": "uint256",
					"name": "y",
					"type": "uint256"
				}
			],
			"name": "get",
			"outputs": [
				{
					"internalType": "uint256",
					"name": "",
					"type": "uint256"
				}
			],
			"stateMutability": "pure",
			"type": "function"
		}
	]
}