{
	"Day1/code3.sol": {
		"SolidityTest": {
			"abi": [
				{
					"inputs": [],
					"payable": false,
					"stateMutability": "nonpayable",
					"type": "constructor"
				},
				{
					"constant": true,
					"inputs": [],
					"name": "getResult",
					"outputs": [
						{
							"internalType": "string",
							"name": "",
							"type": "string"
						}
					],
					"payable": false,
					"stateMutability": "view",
					"type": "function"
				}
			],
			"devdoc": {
				"methods": {}
			},
			"evm": {
				"assembly": "    /* \"Day1/code3.sol\":27:870  contract SolidityTest {\r... */\n  mstore(0x40, 0x80)\n    /* \"Day1/code3.sol\":94:148  constructor() public{\r... */\n  callvalue\n    /* \"--CODEGEN--\":8:17   */\n  dup1\n    /* \"--CODEGEN--\":5:7   */\n  iszero\n  tag_1\n  jumpi\n    /* \"--CODEGEN--\":30:31   */\n  0x00\n    /* \"--CODEGEN--\":27:28   */\n  dup1\n    /* \"--CODEGEN--\":20:32   */\n  revert\n    /* \"--CODEGEN--\":5:7   */\ntag_1:\n    /* \"Day1/code3.sol\":94:148  constructor() public{\r... */\n  pop\n    /* \"Day1/code3.sol\":136:138  10 */\n  0x0a\n    /* \"Day1/code3.sol\":123:133  storedData */\n  0x00\n    /* \"Day1/code3.sol\":123:138  storedData = 10 */\n  dup2\n  swap1\n  sstore\n  pop\n    /* \"Day1/code3.sol\":27:870  contract SolidityTest {\r... */\n  dataSize(sub_0)\n  dup1\n  dataOffset(sub_0)\n  0x00\n  codecopy\n  0x00\n  return\nstop\n\nsub_0: assembly {\n        /* \"Day1/code3.sol\":27:870  contract SolidityTest {\r... */\n      mstore(0x40, 0x80)\n      callvalue\n        /* \"--CODEGEN--\":8:17   */\n      dup1\n        /* \"--CODEGEN--\":5:7   */\n      iszero\n      tag_1\n      jumpi\n        /* \"--CODEGEN--\":30:31   */\n      0x00\n        /* \"--CODEGEN--\":27:28   */\n      dup1\n        /* \"--CODEGEN--\":20:32   */\n      revert\n        /* \"--CODEGEN--\":5:7   */\n    tag_1:\n        /* \"Day1/code3.sol\":27:870  contract SolidityTest {\r... */\n      pop\n      jumpi(tag_2, lt(calldatasize, 0x04))\n      shr(0xe0, calldataload(0x00))\n      dup1\n      0xde292789\n      eq\n      tag_3\n      jumpi\n    tag_2:\n      0x00\n      dup1\n      revert\n        /* \"Day1/code3.sol\":153:370  function getResult() public view returns(string memory){\r... */\n    tag_3:\n      tag_4\n      tag_5\n      jump\t// in\n    tag_4:\n      mload(0x40)\n      dup1\n      dup1\n      0x20\n      add\n      dup3\n      dup2\n      sub\n      dup3\n      mstore\n      dup4\n      dup2\n      dup2\n      mload\n      dup2\n      mstore\n      0x20\n      add\n      swap2\n      pop\n      dup1\n      mload\n      swap1\n      0x20\n      add\n      swap1\n      dup1\n      dup4\n      dup4\n        /* \"--CODEGEN--\":23:24   */\n      0x00\n        /* \"--CODEGEN--\":8:108   */\n    tag_6:\n        /* \"--CODEGEN--\":33:36   */\n      dup4\n        /* \"--CODEGEN--\":30:31   */\n      dup2\n        /* \"--CODEGEN--\":27:37   */\n      lt\n        /* \"--CODEGEN--\":8:108   */\n      iszero\n      tag_8\n      jumpi\n        /* \"--CODEGEN--\":99:100   */\n      dup1\n        /* \"--CODEGEN--\":94:97   */\n      dup3\n        /* \"--CODEGEN--\":90:101   */\n      add\n        /* \"--CODEGEN--\":84:102   */\n      mload\n        /* \"--CODEGEN--\":80:81   */\n      dup2\n        /* \"--CODEGEN--\":75:78   */\n      dup5\n        /* \"--CODEGEN--\":71:82   */\n      add\n        /* \"--CODEGEN--\":64:103   */\n      mstore\n        /* \"--CODEGEN--\":52:54   */\n      0x20\n        /* \"--CODEGEN--\":49:50   */\n      dup2\n        /* \"--CODEGEN--\":45:55   */\n      add\n        /* \"--CODEGEN--\":40:55   */\n      swap1\n      pop\n        /* \"--CODEGEN--\":8:108   */\n      jump(tag_6)\n    tag_8:\n        /* \"--CODEGEN--\":12:26   */\n      pop\n        /* \"Day1/code3.sol\":153:370  function getResult() public view returns(string memory){\r... */\n      pop\n      pop\n      pop\n      swap1\n      pop\n      swap1\n      dup2\n      add\n      swap1\n      0x1f\n      and\n      dup1\n      iszero\n      tag_9\n      jumpi\n      dup1\n      dup3\n      sub\n      dup1\n      mload\n      0x01\n      dup4\n      0x20\n      sub\n      0x0100\n      exp\n      sub\n      not\n      and\n      dup2\n      mstore\n      0x20\n      add\n      swap2\n      pop\n    tag_9:\n      pop\n      swap3\n      pop\n      pop\n      pop\n      mload(0x40)\n      dup1\n      swap2\n      sub\n      swap1\n      return\n    tag_5:\n        /* \"Day1/code3.sol\":194:207  string memory */\n      0x60\n        /* \"Day1/code3.sol\":217:223  uint a */\n      0x00\n        /* \"Day1/code3.sol\":226:227  1 */\n      0x01\n        /* \"Day1/code3.sol\":217:227  uint a = 1 */\n      swap1\n      pop\n        /* \"Day1/code3.sol\":254:260  uint b */\n      0x00\n        /* \"Day1/code3.sol\":263:264  2 */\n      0x02\n        /* \"Day1/code3.sol\":254:264  uint b = 2 */\n      swap1\n      pop\n        /* \"Day1/code3.sol\":273:284  uint result */\n      0x00\n        /* \"Day1/code3.sol\":291:292  b */\n      dup2\n        /* \"Day1/code3.sol\":287:288  a */\n      dup4\n        /* \"Day1/code3.sol\":287:292  a + b */\n      add\n        /* \"Day1/code3.sol\":273:292  uint result = a + b */\n      swap1\n      pop\n        /* \"Day1/code3.sol\":308:335  integerToString(storedData) */\n      tag_11\n        /* \"Day1/code3.sol\":324:334  storedData */\n      sload(0x00)\n        /* \"Day1/code3.sol\":308:323  integerToString */\n      tag_12\n        /* \"Day1/code3.sol\":308:335  integerToString(storedData) */\n      jump\t// in\n    tag_11:\n        /* \"Day1/code3.sol\":301:335  return integerToString(storedData) */\n      swap4\n      pop\n      pop\n      pop\n      pop\n        /* \"Day1/code3.sol\":153:370  function getResult() public view returns(string memory){\r... */\n      swap1\n      jump\t// out\n        /* \"Day1/code3.sol\":375:867  function integerToString(uint _i) internal pure \r... */\n    tag_12:\n        /* \"Day1/code3.sol\":440:453  string memory */\n      0x60\n        /* \"Day1/code3.sol\":482:483  0 */\n      0x00\n        /* \"Day1/code3.sol\":476:478  _i */\n      dup3\n        /* \"Day1/code3.sol\":476:483  _i == 0 */\n      eq\n        /* \"Day1/code3.sol\":472:517  if (_i == 0) {\r... */\n      iszero\n      tag_14\n      jumpi\n        /* \"Day1/code3.sol\":497:507  return \"0\" */\n      mload(0x40)\n      dup1\n      0x40\n      add\n      0x40\n      mstore\n      dup1\n      0x01\n      dup2\n      mstore\n      0x20\n      add\n      0x3000000000000000000000000000000000000000000000000000000000000000\n      dup2\n      mstore\n      pop\n      swap1\n      pop\n      jump(tag_13)\n        /* \"Day1/code3.sol\":472:517  if (_i == 0) {\r... */\n    tag_14:\n        /* \"Day1/code3.sol\":525:531  uint j */\n      0x00\n        /* \"Day1/code3.sol\":534:536  _i */\n      dup3\n        /* \"Day1/code3.sol\":525:536  uint j = _i */\n      swap1\n      pop\n        /* \"Day1/code3.sol\":545:553  uint len */\n      0x00\n        /* \"Day1/code3.sol\":570:654  while (!(j == 0)) {  //logical operator\r... */\n    tag_15:\n        /* \"Day1/code3.sol\":584:585  0 */\n      0x00\n        /* \"Day1/code3.sol\":579:580  j */\n      dup3\n        /* \"Day1/code3.sol\":579:585  j == 0 */\n      eq\n        /* \"Day1/code3.sol\":570:654  while (!(j == 0)) {  //logical operator\r... */\n      tag_16\n      jumpi\n        /* \"Day1/code3.sol\":620:625  len++ */\n      dup1\n      dup1\n      0x01\n      add\n      swap2\n      pop\n      pop\n        /* \"Day1/code3.sol\":642:644  10 */\n      0x0a\n        /* \"Day1/code3.sol\":637:644  j /= 10 */\n      dup3\n      dup2\n      tag_17\n      jumpi\n      invalid\n    tag_17:\n      div\n      swap2\n      pop\n        /* \"Day1/code3.sol\":570:654  while (!(j == 0)) {  //logical operator\r... */\n      jump(tag_15)\n    tag_16:\n        /* \"Day1/code3.sol\":662:679  bytes memory bstr */\n      0x60\n        /* \"Day1/code3.sol\":692:695  len */\n      dup2\n        /* \"Day1/code3.sol\":682:696  new bytes(len) */\n      mload(0x40)\n      swap1\n      dup1\n      dup3\n      mstore\n      dup1\n      0x1f\n      add\n      not(0x1f)\n      and\n      0x20\n      add\n      dup3\n      add\n      0x40\n      mstore\n      dup1\n      iszero\n      tag_18\n      jumpi\n      dup2\n      0x20\n      add\n        /* \"--CODEGEN--\":29:30   */\n      0x01\n        /* \"--CODEGEN--\":21:27   */\n      dup3\n        /* \"--CODEGEN--\":17:31   */\n      mul\n        /* \"--CODEGEN--\":116:120   */\n      dup1\n        /* \"--CODEGEN--\":104:114   */\n      codesize\n        /* \"--CODEGEN--\":96:102   */\n      dup4\n        /* \"--CODEGEN--\":87:121   */\n      codecopy\n        /* \"--CODEGEN--\":147:151   */\n      dup1\n        /* \"--CODEGEN--\":139:145   */\n      dup3\n        /* \"--CODEGEN--\":135:152   */\n      add\n        /* \"--CODEGEN--\":125:152   */\n      swap2\n      pop\n        /* \"--CODEGEN--\":0:156   */\n      pop\n        /* \"Day1/code3.sol\":682:696  new bytes(len) */\n      swap1\n      pop\n    tag_18:\n      pop\n        /* \"Day1/code3.sol\":662:696  bytes memory bstr = new bytes(len) */\n      swap1\n      pop\n        /* \"Day1/code3.sol\":705:711  uint k */\n      0x00\n        /* \"Day1/code3.sol\":720:721  1 */\n      0x01\n        /* \"Day1/code3.sol\":714:717  len */\n      dup4\n        /* \"Day1/code3.sol\":714:721  len - 1 */\n      sub\n        /* \"Day1/code3.sol\":705:721  uint k = len - 1 */\n      swap1\n      pop\n        /* \"Day1/code3.sol\":738:833  while (_i != 0) {\r... */\n    tag_19:\n        /* \"Day1/code3.sol\":751:752  0 */\n      0x00\n        /* \"Day1/code3.sol\":745:747  _i */\n      dup7\n        /* \"Day1/code3.sol\":745:752  _i != 0 */\n      eq\n        /* \"Day1/code3.sol\":738:833  while (_i != 0) {\r... */\n      tag_20\n      jumpi\n        /* \"Day1/code3.sol\":799:801  10 */\n      0x0a\n        /* \"Day1/code3.sol\":794:796  _i */\n      dup7\n        /* \"Day1/code3.sol\":794:801  _i % 10 */\n      dup2\n      tag_21\n      jumpi\n      invalid\n    tag_21:\n      mod\n        /* \"Day1/code3.sol\":789:791  48 */\n      0x30\n        /* \"Day1/code3.sol\":789:801  48 + _i % 10 */\n      add\n        /* \"Day1/code3.sol\":778:803  byte(uint8(48 + _i % 10)) */\n      0xf8\n      shl\n        /* \"Day1/code3.sol\":766:770  bstr */\n      dup3\n        /* \"Day1/code3.sol\":771:774  k-- */\n      dup3\n      dup1\n      0x01\n      swap1\n      sub\n      swap4\n      pop\n        /* \"Day1/code3.sol\":766:775  bstr[k--] */\n      dup2\n      mload\n      dup2\n      lt\n      tag_22\n      jumpi\n      invalid\n    tag_22:\n      0x20\n      add\n      add\n        /* \"Day1/code3.sol\":766:803  bstr[k--] = byte(uint8(48 + _i % 10)) */\n      swap1\n      not(0xffffffffffffffffffffffffffffffffffffffffffffffffffffffffffffff)\n      and\n      swap1\n      dup2\n      0x00\n      byte\n      swap1\n      mstore8\n      pop\n        /* \"Day1/code3.sol\":821:823  10 */\n      0x0a\n        /* \"Day1/code3.sol\":815:823  _i /= 10 */\n      dup7\n      dup2\n      tag_23\n      jumpi\n      invalid\n    tag_23:\n      div\n      swap6\n      pop\n        /* \"Day1/code3.sol\":738:833  while (_i != 0) {\r... */\n      jump(tag_19)\n    tag_20:\n        /* \"Day1/code3.sol\":855:859  bstr */\n      dup2\n        /* \"Day1/code3.sol\":841:860  return string(bstr) */\n      swap5\n      pop\n      pop\n      pop\n      pop\n      pop\n        /* \"Day1/code3.sol\":375:867  function integerToString(uint _i) internal pure \r... */\n    tag_13:\n      swap2\n      swap1\n      pop\n      jump\t// out\n\n    auxdata: 0xa265627a7a7231582037bbf790440508dac0e1664d2fa15a438be32ba3dfa6482bd7b5009334c0302f64736f6c63430005110032\n}\n",
				"bytecode": {
					"linkReferences": {},
					"object": "608060405234801561001057600080fd5b50600a60008190555061023d806100286000396000f3fe608060405234801561001057600080fd5b506004361061002b5760003560e01c8063de29278914610030575b600080fd5b6100386100b3565b6040518080602001828103825283818151815260200191508051906020019080838360005b8381101561007857808201518184015260208101905061005d565b50505050905090810190601f1680156100a55780820380516001836020036101000a031916815260200191505b509250505060405180910390f35b6060600060019050600060029050600081830190506100d36000546100db565b935050505090565b60606000821415610123576040518060400160405280600181526020017f30000000000000000000000000000000000000000000000000000000000000008152509050610203565b600082905060005b6000821461014d578080600101915050600a828161014557fe5b04915061012b565b6060816040519080825280601f01601f1916602001820160405280156101825781602001600182028038833980820191505090505b50905060006001830390505b600086146101fb57600a86816101a057fe5b0660300160f81b828280600190039350815181106101ba57fe5b60200101907effffffffffffffffffffffffffffffffffffffffffffffffffffffffffffff1916908160001a905350600a86816101f357fe5b04955061018e565b819450505050505b91905056fea265627a7a7231582037bbf790440508dac0e1664d2fa15a438be32ba3dfa6482bd7b5009334c0302f64736f6c63430005110032",
					"opcodes": "PUSH1 0x80 PUSH1 0x40 MSTORE CALLVALUE DUP1 ISZERO PUSH2 0x10 JUMPI PUSH1 0x0 DUP1 REVERT JUMPDEST POP PUSH1 0xA PUSH1 0x0 DUP2 SWAP1 SSTORE POP PUSH2 0x23D DUP1 PUSH2 0x28 PUSH1 0x0 CODECOPY PUSH1 0x0 RETURN INVALID PUSH1 0x80 PUSH1 0x40 MSTORE CALLVALUE DUP1 ISZERO PUSH2 0x10 JUMPI PUSH1 0x0 DUP1 REVERT JUMPDEST POP PUSH1 0x4 CALLDATASIZE LT PUSH2 0x2B JUMPI PUSH1 0x0 CALLDATALOAD PUSH1 0xE0 SHR DUP1 PUSH4 0xDE292789 EQ PUSH2 0x30 JUMPI JUMPDEST PUSH1 0x0 DUP1 REVERT JUMPDEST PUSH2 0x38 PUSH2 0xB3 JUMP JUMPDEST PUSH1 0x40 MLOAD DUP1 DUP1 PUSH1 0x20 ADD DUP3 DUP2 SUB DUP3 MSTORE DUP4 DUP2 DUP2 MLOAD DUP2 MSTORE PUSH1 0x20 ADD SWAP2 POP DUP1 MLOAD SWAP1 PUSH1 0x20 ADD SWAP1 DUP1 DUP4 DUP4 PUSH1 0x0 JUMPDEST DUP4 DUP2 LT ISZERO PUSH2 0x78 JUMPI DUP1 DUP3 ADD MLOAD DUP2 DUP5 ADD MSTORE PUSH1 0x20 DUP2 ADD SWAP1 POP PUSH2 0x5D JUMP JUMPDEST POP POP POP POP SWAP1 POP SWAP1 DUP2 ADD SWAP1 PUSH1 0x1F AND DUP1 ISZERO PUSH2 0xA5 JUMPI DUP1 DUP3 SUB DUP1 MLOAD PUSH1 0x1 DUP4 PUSH1 0x20 SUB PUSH2 0x100 EXP SUB NOT AND DUP2 MSTORE PUSH1 0x20 ADD SWAP2 POP JUMPDEST POP SWAP3 POP POP POP PUSH1 0x40 MLOAD DUP1 SWAP2 SUB SWAP1 RETURN JUMPDEST PUSH1 0x60 PUSH1 0x0 PUSH1 0x1 SWAP1 POP PUSH1 0x0 PUSH1 0x2 SWAP1 POP PUSH1 0x0 DUP2 DUP4 ADD SWAP1 POP PUSH2 0xD3 PUSH1 0x0 SLOAD PUSH2 0xDB JUMP JUMPDEST SWAP4 POP POP POP POP SWAP1 JUMP JUMPDEST PUSH1 0x60 PUSH1 0x0 DUP3 EQ ISZERO PUSH2 0x123 JUMPI PUSH1 0x40 MLOAD DUP1 PUSH1 0x40 ADD PUSH1 0x40 MSTORE DUP1 PUSH1 0x1 DUP2 MSTORE PUSH1 0x20 ADD PUSH32 0x3000000000000000000000000000000000000000000000000000000000000000 DUP2 MSTORE POP SWAP1 POP PUSH2 0x203 JUMP JUMPDEST PUSH1 0x0 DUP3 SWAP1 POP PUSH1 0x0 JUMPDEST PUSH1 0x0 DUP3 EQ PUSH2 0x14D JUMPI DUP1 DUP1 PUSH1 0x1 ADD SWAP2 POP POP PUSH1 0xA DUP3 DUP2 PUSH2 0x145 JUMPI INVALID JUMPDEST DIV SWAP2 POP PUSH2 0x12B JUMP JUMPDEST PUSH1 0x60 DUP2 PUSH1 0x40 MLOAD SWAP1 DUP1 DUP3 MSTORE DUP1 PUSH1 0x1F ADD PUSH1 0x1F NOT AND PUSH1 0x20 ADD DUP3 ADD PUSH1 0x40 MSTORE DUP1 ISZERO PUSH2 0x182 JUMPI DUP2 PUSH1 0x20 ADD PUSH1 0x1 DUP3 MUL DUP1 CODESIZE DUP4 CODECOPY DUP1 DUP3 ADD SWAP2 POP POP SWAP1 POP JUMPDEST POP SWAP1 POP PUSH1 0x0 PUSH1 0x1 DUP4 SUB SWAP1 POP JUMPDEST PUSH1 0x0 DUP7 EQ PUSH2 0x1FB JUMPI PUSH1 0xA DUP7 DUP2 PUSH2 0x1A0 JUMPI INVALID JUMPDEST MOD PUSH1 0x30 ADD PUSH1 0xF8 SHL DUP3 DUP3 DUP1 PUSH1 0x1 SWAP1 SUB SWAP4 POP DUP2 MLOAD DUP2 LT PUSH2 0x1BA JUMPI INVALID JUMPDEST PUSH1 0x20 ADD ADD SWAP1 PUSH31 0xFFFFFFFFFFFFFFFFFFFFFFFFFFFFFFFFFFFFFFFFFFFFFFFFFFFFFFFFFFFFFF NOT AND SWAP1 DUP2 PUSH1 0x0 BYTE SWAP1 MSTORE8 POP PUSH1 0xA DUP7 DUP2 PUSH2 0x1F3 JUMPI INVALID JUMPDEST DIV SWAP6 POP PUSH2 0x18E JUMP JUMPDEST DUP2 SWAP5 POP POP POP POP POP JUMPDEST SWAP2 SWAP1 POP JUMP INVALID LOG2 PUSH6 0x627A7A723158 KECCAK256 CALLDATACOPY 0xBB 0xF7 SWAP1 DIFFICULTY SDIV ADDMOD 0xDA 0xC0 0xE1 PUSH7 0x4D2FA15A438BE3 0x2B LOG3 0xDF 0xA6 0x48 0x2B 0xD7 0xB5 STOP SWAP4 CALLVALUE 0xC0 ADDRESS 0x2F PUSH5 0x736F6C6343 STOP SDIV GT STOP ORIGIN "
				},
				"gasEstimates": {
					"creation": {
						"codeDepositCost": "114600",
						"executionCost": "20173",
						"totalCost": "134773"
					},
					"external": {
						"getResult()": "infinite"
					},
					"internal": {
						"integerToString(uint256)": "infinite"
					}
				},
				"methodIdentifiers": {
					"getResult()": "de292789"
				}
			},
			"storageLayout": {
				"storage": [
					{
						"astId": 3,
						"contract": "Day1/code3.sol:SolidityTest",
						"label": "storedData",
						"offset": 0,
						"slot": "0",
						"type": "t_uint256"
					}
				],
				"types": {
					"t_uint256": {
						"encoding": "inplace",
						"label": "uint256",
						"numberOfBytes": "32"
					}
				}
			},
			"userdoc": {
				"methods": {}
			}
		}
	}
}