{
	"data": {
		"bytecode": {
			"linkReferences": {},
			"object": "6080604052348015600e575f80fd5b506101ff8061001c5f395ff3fe608060405234801561000f575f80fd5b5060043610610029575f3560e01c80635b4b73a91461002d575b5f80fd5b610047600480360381019061004291906100bc565b610049565b005b7f3028aee09e5f7149e98b3f7f8faa7e2cc5b353de720db250726b7c64d38b5f9c338260405161007a92919061018f565b60405180910390a150565b5f80fd5b5f819050919050565b61009b81610089565b81146100a5575f80fd5b50565b5f813590506100b681610092565b92915050565b5f602082840312156100d1576100d0610085565b5b5f6100de848285016100a8565b91505092915050565b5f73ffffffffffffffffffffffffffffffffffffffff82169050919050565b5f610110826100e7565b9050919050565b61012081610106565b82525050565b5f82825260208201905092915050565b7f6861732076616c756500000000000000000000000000000000000000000000005f82015250565b5f61016a600983610126565b915061017582610136565b602082019050919050565b61018981610089565b82525050565b5f6060820190506101a25f830185610117565b81810360208301526101b38161015e565b90506101c26040830184610180565b939250505056fea264697066735822122046eb5cfeda09858d2ce96f95bde8e7ffde7510b68ae11c03417a86cd735f5df164736f6c634300081a0033",
			"opcodes": "PUSH1 0x80 PUSH1 0x40 MSTORE CALLVALUE DUP1 ISZERO PUSH1 0xE JUMPI PUSH0 DUP1 REVERT JUMPDEST POP PUSH2 0x1FF DUP1 PUSH2 0x1C PUSH0 CODECOPY PUSH0 RETURN INVALID PUSH1 0x80 PUSH1 0x40 MSTORE CALLVALUE DUP1 ISZERO PUSH2 0xF JUMPI PUSH0 DUP1 REVERT JUMPDEST POP PUSH1 0x4 CALLDATASIZE LT PUSH2 0x29 JUMPI PUSH0 CALLDATALOAD PUSH1 0xE0 SHR DUP1 PUSH4 0x5B4B73A9 EQ PUSH2 0x2D JUMPI JUMPDEST PUSH0 DUP1 REVERT JUMPDEST PUSH2 0x47 PUSH1 0x4 DUP1 CALLDATASIZE SUB DUP2 ADD SWAP1 PUSH2 0x42 SWAP2 SWAP1 PUSH2 0xBC JUMP JUMPDEST PUSH2 0x49 JUMP JUMPDEST STOP JUMPDEST PUSH32 0x3028AEE09E5F7149E98B3F7F8FAA7E2CC5B353DE720DB250726B7C64D38B5F9C CALLER DUP3 PUSH1 0x40 MLOAD PUSH2 0x7A SWAP3 SWAP2 SWAP1 PUSH2 0x18F JUMP JUMPDEST PUSH1 0x40 MLOAD DUP1 SWAP2 SUB SWAP1 LOG1 POP JUMP JUMPDEST PUSH0 DUP1 REVERT JUMPDEST PUSH0 DUP2 SWAP1 POP SWAP2 SWAP1 POP JUMP JUMPDEST PUSH2 0x9B DUP2 PUSH2 0x89 JUMP JUMPDEST DUP2 EQ PUSH2 0xA5 JUMPI PUSH0 DUP1 REVERT JUMPDEST POP JUMP JUMPDEST PUSH0 DUP2 CALLDATALOAD SWAP1 POP PUSH2 0xB6 DUP2 PUSH2 0x92 JUMP JUMPDEST SWAP3 SWAP2 POP POP JUMP JUMPDEST PUSH0 PUSH1 0x20 DUP3 DUP5 SUB SLT ISZERO PUSH2 0xD1 JUMPI PUSH2 0xD0 PUSH2 0x85 JUMP JUMPDEST JUMPDEST PUSH0 PUSH2 0xDE DUP5 DUP3 DUP6 ADD PUSH2 0xA8 JUMP JUMPDEST SWAP2 POP POP SWAP3 SWAP2 POP POP JUMP JUMPDEST PUSH0 PUSH20 0xFFFFFFFFFFFFFFFFFFFFFFFFFFFFFFFFFFFFFFFF DUP3 AND SWAP1 POP SWAP2 SWAP1 POP JUMP JUMPDEST PUSH0 PUSH2 0x110 DUP3 PUSH2 0xE7 JUMP JUMPDEST SWAP1 POP SWAP2 SWAP1 POP JUMP JUMPDEST PUSH2 0x120 DUP2 PUSH2 0x106 JUMP JUMPDEST DUP3 MSTORE POP POP JUMP JUMPDEST PUSH0 DUP3 DUP3 MSTORE PUSH1 0x20 DUP3 ADD SWAP1 POP SWAP3 SWAP2 POP POP JUMP JUMPDEST PUSH32 0x6861732076616C75650000000000000000000000000000000000000000000000 PUSH0 DUP3 ADD MSTORE POP JUMP JUMPDEST PUSH0 PUSH2 0x16A PUSH1 0x9 DUP4 PUSH2 0x126 JUMP JUMPDEST SWAP2 POP PUSH2 0x175 DUP3 PUSH2 0x136 JUMP JUMPDEST PUSH1 0x20 DUP3 ADD SWAP1 POP SWAP2 SWAP1 POP JUMP JUMPDEST PUSH2 0x189 DUP2 PUSH2 0x89 JUMP JUMPDEST DUP3 MSTORE POP POP JUMP JUMPDEST PUSH0 PUSH1 0x60 DUP3 ADD SWAP1 POP PUSH2 0x1A2 PUSH0 DUP4 ADD DUP6 PUSH2 0x117 JUMP JUMPDEST DUP2 DUP2 SUB PUSH1 0x20 DUP4 ADD MSTORE PUSH2 0x1B3 DUP2 PUSH2 0x15E JUMP JUMPDEST SWAP1 POP PUSH2 0x1C2 PUSH1 0x40 DUP4 ADD DUP5 PUSH2 0x180 JUMP JUMPDEST SWAP4 SWAP3 POP POP POP JUMP INVALID LOG2 PUSH5 0x6970667358 0x22 SLT KECCAK256 CHAINID 0xEB TLOAD INVALID 0xDA MULMOD DUP6 DUP14 0x2C 0xE9 PUSH16 0x95BDE8E7FFDE7510B68AE11C03417A86 0xCD PUSH20 0x5F5DF164736F6C634300081A0033000000000000 "
		},
		"gasEstimates": {
			"creation": {
				"codeDepositCost": "102200",
				"executionCost": "145",
				"totalCost": "102345"
			},
			"external": {
				"setData(uint256)": "infinite"
			}
		},
		"methodIdentifiers": {
			"setData(uint256)": "5b4b73a9"
		}
	},
	"abi": [
		{
			"anonymous": false,
			"inputs": [
				{
					"indexed": false,
					"internalType": "address",
					"name": "account",
					"type": "address"
				},
				{
					"indexed": false,
					"internalType": "string",
					"name": "message",
					"type": "string"
				},
				{
					"indexed": false,
					"internalType": "uint256",
					"name": "val",
					"type": "uint256"
				}
			],
			"name": "balance",
			"type": "event"
		},
		{
			"inputs": [
				{
					"internalType": "uint256",
					"name": "_val",
					"type": "uint256"
				}
			],
			"name": "setData",
			"outputs": [],
			"stateMutability": "nonpayable",
			"type": "function"
		}
	]
}