{
	"data": {
		"bytecode": {
			"linkReferences": {},
			"object": "61034961004d600b8282823980515f1a6073146041577f4e487b71000000000000000000000000000000000000000000000000000000005f525f60045260245ffd5b305f52607381538281f3fe7300000000000000000000000000000000000000003014608060405260043610610034575f3560e01c80632e4c697f14610038575b5f80fd5b610052600480360381019061004d91906100ba565b610069565b604051610060929190610146565b60405180910390f35b5f80828461007791906102c9565b30915091509250929050565b5f80fd5b5f819050919050565b61009981610087565b81146100a3575f80fd5b50565b5f813590506100b481610090565b92915050565b5f80604083850312156100d0576100cf610083565b5b5f6100dd858286016100a6565b92505060206100ee858286016100a6565b9150509250929050565b61010181610087565b82525050565b5f73ffffffffffffffffffffffffffffffffffffffff82169050919050565b5f61013082610107565b9050919050565b61014081610126565b82525050565b5f6040820190506101595f8301856100f8565b6101666020830184610137565b9392505050565b7f4e487b71000000000000000000000000000000000000000000000000000000005f52601160045260245ffd5b5f8160011c9050919050565b5f808291508390505b60018511156101ef578086048111156101cb576101ca61016d565b5b60018516156101da5780820291505b80810290506101e88561019a565b94506101af565b94509492505050565b5f8261020757600190506102c2565b81610214575f90506102c2565b816001811461022a576002811461023457610263565b60019150506102c2565b60ff8411156102465761024561016d565b5b8360020a91508482111561025d5761025c61016d565b5b506102c2565b5060208310610133831016604e8410600b84101617156102985782820a9050838111156102935761029261016d565b5b6102c2565b6102a584848460016101a6565b925090508184048111156102bc576102bb61016d565b5b81810290505b9392505050565b5f6102d382610087565b91506102de83610087565b925061030b7fffffffffffffffffffffffffffffffffffffffffffffffffffffffffffffffff84846101f8565b90509291505056fea26469706673582212208cfb7339a4fac97fb37470914b0b0c4d3bfafe24a5723e6fa2d5877f4d9c581064736f6c634300081a0033",
			"opcodes": "PUSH2 0x349 PUSH2 0x4D PUSH1 0xB DUP3 DUP3 DUP3 CODECOPY DUP1 MLOAD PUSH0 BYTE PUSH1 0x73 EQ PUSH1 0x41 JUMPI PUSH32 0x4E487B7100000000000000000000000000000000000000000000000000000000 PUSH0 MSTORE PUSH0 PUSH1 0x4 MSTORE PUSH1 0x24 PUSH0 REVERT JUMPDEST ADDRESS PUSH0 MSTORE PUSH1 0x73 DUP2 MSTORE8 DUP3 DUP2 RETURN INVALID PUSH20 0x0 ADDRESS EQ PUSH1 0x80 PUSH1 0x40 MSTORE PUSH1 0x4 CALLDATASIZE LT PUSH2 0x34 JUMPI PUSH0 CALLDATALOAD PUSH1 0xE0 SHR DUP1 PUSH4 0x2E4C697F EQ PUSH2 0x38 JUMPI JUMPDEST PUSH0 DUP1 REVERT JUMPDEST PUSH2 0x52 PUSH1 0x4 DUP1 CALLDATASIZE SUB DUP2 ADD SWAP1 PUSH2 0x4D SWAP2 SWAP1 PUSH2 0xBA JUMP JUMPDEST PUSH2 0x69 JUMP JUMPDEST PUSH1 0x40 MLOAD PUSH2 0x60 SWAP3 SWAP2 SWAP1 PUSH2 0x146 JUMP JUMPDEST PUSH1 0x40 MLOAD DUP1 SWAP2 SUB SWAP1 RETURN JUMPDEST PUSH0 DUP1 DUP3 DUP5 PUSH2 0x77 SWAP2 SWAP1 PUSH2 0x2C9 JUMP JUMPDEST ADDRESS SWAP2 POP SWAP2 POP SWAP3 POP SWAP3 SWAP1 POP JUMP JUMPDEST PUSH0 DUP1 REVERT JUMPDEST PUSH0 DUP2 SWAP1 POP SWAP2 SWAP1 POP JUMP JUMPDEST PUSH2 0x99 DUP2 PUSH2 0x87 JUMP JUMPDEST DUP2 EQ PUSH2 0xA3 JUMPI PUSH0 DUP1 REVERT JUMPDEST POP JUMP JUMPDEST PUSH0 DUP2 CALLDATALOAD SWAP1 POP PUSH2 0xB4 DUP2 PUSH2 0x90 JUMP JUMPDEST SWAP3 SWAP2 POP POP JUMP JUMPDEST PUSH0 DUP1 PUSH1 0x40 DUP4 DUP6 SUB SLT ISZERO PUSH2 0xD0 JUMPI PUSH2 0xCF PUSH2 0x83 JUMP JUMPDEST JUMPDEST PUSH0 PUSH2 0xDD DUP6 DUP3 DUP7 ADD PUSH2 0xA6 JUMP JUMPDEST SWAP3 POP POP PUSH1 0x20 PUSH2 0xEE DUP6 DUP3 DUP7 ADD PUSH2 0xA6 JUMP JUMPDEST SWAP2 POP POP SWAP3 POP SWAP3 SWAP1 POP JUMP JUMPDEST PUSH2 0x101 DUP2 PUSH2 0x87 JUMP JUMPDEST DUP3 MSTORE POP POP JUMP JUMPDEST PUSH0 PUSH20 0xFFFFFFFFFFFFFFFFFFFFFFFFFFFFFFFFFFFFFFFF DUP3 AND SWAP1 POP SWAP2 SWAP1 POP JUMP JUMPDEST PUSH0 PUSH2 0x130 DUP3 PUSH2 0x107 JUMP JUMPDEST SWAP1 POP SWAP2 SWAP1 POP JUMP JUMPDEST PUSH2 0x140 DUP2 PUSH2 0x126 JUMP JUMPDEST DUP3 MSTORE POP POP JUMP JUMPDEST PUSH0 PUSH1 0x40 DUP3 ADD SWAP1 POP PUSH2 0x159 PUSH0 DUP4 ADD DUP6 PUSH2 0xF8 JUMP JUMPDEST PUSH2 0x166 PUSH1 0x20 DUP4 ADD DUP5 PUSH2 0x137 JUMP JUMPDEST SWAP4 SWAP3 POP POP POP JUMP JUMPDEST PUSH32 0x4E487B7100000000000000000000000000000000000000000000000000000000 PUSH0 MSTORE PUSH1 0x11 PUSH1 0x4 MSTORE PUSH1 0x24 PUSH0 REVERT JUMPDEST PUSH0 DUP2 PUSH1 0x1 SHR SWAP1 POP SWAP2 SWAP1 POP JUMP JUMPDEST PUSH0 DUP1 DUP3 SWAP2 POP DUP4 SWAP1 POP JUMPDEST PUSH1 0x1 DUP6 GT ISZERO PUSH2 0x1EF JUMPI DUP1 DUP7 DIV DUP2 GT ISZERO PUSH2 0x1CB JUMPI PUSH2 0x1CA PUSH2 0x16D JUMP JUMPDEST JUMPDEST PUSH1 0x1 DUP6 AND ISZERO PUSH2 0x1DA JUMPI DUP1 DUP3 MUL SWAP2 POP JUMPDEST DUP1 DUP2 MUL SWAP1 POP PUSH2 0x1E8 DUP6 PUSH2 0x19A JUMP JUMPDEST SWAP5 POP PUSH2 0x1AF JUMP JUMPDEST SWAP5 POP SWAP5 SWAP3 POP POP POP JUMP JUMPDEST PUSH0 DUP3 PUSH2 0x207 JUMPI PUSH1 0x1 SWAP1 POP PUSH2 0x2C2 JUMP JUMPDEST DUP2 PUSH2 0x214 JUMPI PUSH0 SWAP1 POP PUSH2 0x2C2 JUMP JUMPDEST DUP2 PUSH1 0x1 DUP2 EQ PUSH2 0x22A JUMPI PUSH1 0x2 DUP2 EQ PUSH2 0x234 JUMPI PUSH2 0x263 JUMP JUMPDEST PUSH1 0x1 SWAP2 POP POP PUSH2 0x2C2 JUMP JUMPDEST PUSH1 0xFF DUP5 GT ISZERO PUSH2 0x246 JUMPI PUSH2 0x245 PUSH2 0x16D JUMP JUMPDEST JUMPDEST DUP4 PUSH1 0x2 EXP SWAP2 POP DUP5 DUP3 GT ISZERO PUSH2 0x25D JUMPI PUSH2 0x25C PUSH2 0x16D JUMP JUMPDEST JUMPDEST POP PUSH2 0x2C2 JUMP JUMPDEST POP PUSH1 0x20 DUP4 LT PUSH2 0x133 DUP4 LT AND PUSH1 0x4E DUP5 LT PUSH1 0xB DUP5 LT AND OR ISZERO PUSH2 0x298 JUMPI DUP3 DUP3 EXP SWAP1 POP DUP4 DUP2 GT ISZERO PUSH2 0x293 JUMPI PUSH2 0x292 PUSH2 0x16D JUMP JUMPDEST JUMPDEST PUSH2 0x2C2 JUMP JUMPDEST PUSH2 0x2A5 DUP5 DUP5 DUP5 PUSH1 0x1 PUSH2 0x1A6 JUMP JUMPDEST SWAP3 POP SWAP1 POP DUP2 DUP5 DIV DUP2 GT ISZERO PUSH2 0x2BC JUMPI PUSH2 0x2BB PUSH2 0x16D JUMP JUMPDEST JUMPDEST DUP2 DUP2 MUL SWAP1 POP JUMPDEST SWAP4 SWAP3 POP POP POP JUMP JUMPDEST PUSH0 PUSH2 0x2D3 DUP3 PUSH2 0x87 JUMP JUMPDEST SWAP2 POP PUSH2 0x2DE DUP4 PUSH2 0x87 JUMP JUMPDEST SWAP3 POP PUSH2 0x30B PUSH32 0xFFFFFFFFFFFFFFFFFFFFFFFFFFFFFFFFFFFFFFFFFFFFFFFFFFFFFFFFFFFFFFFF DUP5 DUP5 PUSH2 0x1F8 JUMP JUMPDEST SWAP1 POP SWAP3 SWAP2 POP POP JUMP INVALID LOG2 PUSH5 0x6970667358 0x22 SLT KECCAK256 DUP13 0xFB PUSH20 0x39A4FAC97FB37470914B0B0C4D3BFAFE24A5723E PUSH16 0xA2D5877F4D9C581064736F6C63430008 BYTE STOP CALLER "
		},
		"gasEstimates": {
			"creation": {
				"codeDepositCost": "168200",
				"executionCost": "237",
				"totalCost": "168437"
			},
			"external": {
				"pow(uint256,uint256)": "infinite"
			}
		},
		"methodIdentifiers": {
			"pow(uint256,uint256)": "2e4c697f"
		}
	},
	"abi": [
		{
			"inputs": [
				{
					"internalType": "uint256",
					"name": "a",
					"type": "uint256"
				},
				{
					"internalType": "uint256",
					"name": "b",
					"type": "uint256"
				}
			],
			"name": "pow",
			"outputs": [
				{
					"internalType": "uint256",
					"name": "",
					"type": "uint256"
				},
				{
					"internalType": "address",
					"name": "",
					"type": "address"
				}
			],
			"stateMutability": "view",
			"type": "function"
		}
	]
}