{
	"data": {
		"bytecode": {
			"linkReferences": {},
			"object": "608060405234801561000f575f80fd5b506040516108a83803806108a8833981810160405281019061003191906101ef565b81818585815f9081610043919061048f565b50806001819055505050816002908161005c919061048f565b508060038190555050505050505061055e565b5f604051905090565b5f80fd5b5f80fd5b5f80fd5b5f80fd5b5f601f19601f8301169050919050565b7f4e487b71000000000000000000000000000000000000000000000000000000005f52604160045260245ffd5b6100ce82610088565b810181811067ffffffffffffffff821117156100ed576100ec610098565b5b80604052505050565b5f6100ff61006f565b905061010b82826100c5565b919050565b5f67ffffffffffffffff82111561012a57610129610098565b5b61013382610088565b9050602081019050919050565b8281835e5f83830152505050565b5f61016061015b84610110565b6100f6565b90508281526020810184848401111561017c5761017b610084565b5b610187848285610140565b509392505050565b5f82601f8301126101a3576101a2610080565b5b81516101b384826020860161014e565b91505092915050565b5f819050919050565b6101ce816101bc565b81146101d8575f80fd5b50565b5f815190506101e9816101c5565b92915050565b5f805f806080858703121561020757610206610078565b5b5f85015167ffffffffffffffff8111156102245761022361007c565b5b6102308782880161018f565b9450506020610241878288016101db565b935050604085015167ffffffffffffffff8111156102625761026161007c565b5b61026e8782880161018f565b925050606061027f878288016101db565b91505092959194509250565b5f81519050919050565b7f4e487b71000000000000000000000000000000000000000000000000000000005f52602260045260245ffd5b5f60028204905060018216806102d957607f821691505b6020821081036102ec576102eb610295565b5b50919050565b5f819050815f5260205f209050919050565b5f6020601f8301049050919050565b5f82821b905092915050565b5f6008830261034e7fffffffffffffffffffffffffffffffffffffffffffffffffffffffffffffffff82610313565b6103588683610313565b95508019841693508086168417925050509392505050565b5f819050919050565b5f61039361038e610389846101bc565b610370565b6101bc565b9050919050565b5f819050919050565b6103ac83610379565b6103c06103b88261039a565b84845461031f565b825550505050565b5f90565b6103d46103c8565b6103df8184846103a3565b505050565b5b81811015610402576103f75f826103cc565b6001810190506103e5565b5050565b601f82111561044757610418816102f2565b61042184610304565b81016020851015610430578190505b61044461043c85610304565b8301826103e4565b50505b505050565b5f82821c905092915050565b5f6104675f198460080261044c565b1980831691505092915050565b5f61047f8383610458565b9150826002028217905092915050565b6104988261028b565b67ffffffffffffffff8111156104b1576104b0610098565b5b6104bb82546102c2565b6104c6828285610406565b5f60209050601f8311600181146104f7575f84156104e5578287015190505b6104ef8582610474565b865550610556565b601f198416610505866102f2565b5f5b8281101561052c57848901518255600182019150602085019450602081019050610507565b868310156105495784890151610545601f891682610458565b8355505b6001600288020188555050505b505050505050565b61033d8061056b5f395ff3fe608060405234801561000f575f80fd5b506004361061004a575f3560e01c80630397b6521461004e57806306fdde031461006c578063262a9dff1461008a5780634f2be91f146100a8575b5f80fd5b6100566100c6565b6040516100639190610201565b60405180910390f35b6100746100cc565b604051610081919061028a565b60405180910390f35b610092610157565b60405161009f9190610201565b60405180910390f35b6100b061015d565b6040516100bd919061028a565b60405180910390f35b60035481565b5f80546100d8906102d7565b80601f0160208091040260200160405190810160405280929190818152602001828054610104906102d7565b801561014f5780601f106101265761010080835404028352916020019161014f565b820191905f5260205f20905b81548152906001019060200180831161013257829003601f168201915b505050505081565b60015481565b6002805461016a906102d7565b80601f0160208091040260200160405190810160405280929190818152602001828054610196906102d7565b80156101e15780601f106101b8576101008083540402835291602001916101e1565b820191905f5260205f20905b8154815290600101906020018083116101c457829003601f168201915b505050505081565b5f819050919050565b6101fb816101e9565b82525050565b5f6020820190506102145f8301846101f2565b92915050565b5f81519050919050565b5f82825260208201905092915050565b8281835e5f83830152505050565b5f601f19601f8301169050919050565b5f61025c8261021a565b6102668185610224565b9350610276818560208601610234565b61027f81610242565b840191505092915050565b5f6020820190508181035f8301526102a28184610252565b905092915050565b7f4e487b71000000000000000000000000000000000000000000000000000000005f52602260045260245ffd5b5f60028204905060018216806102ee57607f821691505b602082108103610301576103006102aa565b5b5091905056fea2646970667358221220387b53b93d972bb4ae1743147b7639411272221e6d8e335c1b3dff8bcafab03764736f6c634300081a0033",
			"opcodes": "PUSH1 0x80 PUSH1 0x40 MSTORE CALLVALUE DUP1 ISZERO PUSH2 0xF JUMPI PUSH0 DUP1 REVERT JUMPDEST POP PUSH1 0x40 MLOAD PUSH2 0x8A8 CODESIZE SUB DUP1 PUSH2 0x8A8 DUP4 CODECOPY DUP2 DUP2 ADD PUSH1 0x40 MSTORE DUP2 ADD SWAP1 PUSH2 0x31 SWAP2 SWAP1 PUSH2 0x1EF JUMP JUMPDEST DUP2 DUP2 DUP6 DUP6 DUP2 PUSH0 SWAP1 DUP2 PUSH2 0x43 SWAP2 SWAP1 PUSH2 0x48F JUMP JUMPDEST POP DUP1 PUSH1 0x1 DUP2 SWAP1 SSTORE POP POP POP DUP2 PUSH1 0x2 SWAP1 DUP2 PUSH2 0x5C SWAP2 SWAP1 PUSH2 0x48F JUMP JUMPDEST POP DUP1 PUSH1 0x3 DUP2 SWAP1 SSTORE POP POP POP POP POP POP POP PUSH2 0x55E JUMP JUMPDEST PUSH0 PUSH1 0x40 MLOAD SWAP1 POP SWAP1 JUMP JUMPDEST PUSH0 DUP1 REVERT JUMPDEST PUSH0 DUP1 REVERT JUMPDEST PUSH0 DUP1 REVERT JUMPDEST PUSH0 DUP1 REVERT JUMPDEST PUSH0 PUSH1 0x1F NOT PUSH1 0x1F DUP4 ADD AND SWAP1 POP SWAP2 SWAP1 POP JUMP JUMPDEST PUSH32 0x4E487B7100000000000000000000000000000000000000000000000000000000 PUSH0 MSTORE PUSH1 0x41 PUSH1 0x4 MSTORE PUSH1 0x24 PUSH0 REVERT JUMPDEST PUSH2 0xCE DUP3 PUSH2 0x88 JUMP JUMPDEST DUP2 ADD DUP2 DUP2 LT PUSH8 0xFFFFFFFFFFFFFFFF DUP3 GT OR ISZERO PUSH2 0xED JUMPI PUSH2 0xEC PUSH2 0x98 JUMP JUMPDEST JUMPDEST DUP1 PUSH1 0x40 MSTORE POP POP POP JUMP JUMPDEST PUSH0 PUSH2 0xFF PUSH2 0x6F JUMP JUMPDEST SWAP1 POP PUSH2 0x10B DUP3 DUP3 PUSH2 0xC5 JUMP JUMPDEST SWAP2 SWAP1 POP JUMP JUMPDEST PUSH0 PUSH8 0xFFFFFFFFFFFFFFFF DUP3 GT ISZERO PUSH2 0x12A JUMPI PUSH2 0x129 PUSH2 0x98 JUMP JUMPDEST JUMPDEST PUSH2 0x133 DUP3 PUSH2 0x88 JUMP JUMPDEST SWAP1 POP PUSH1 0x20 DUP2 ADD SWAP1 POP SWAP2 SWAP1 POP JUMP JUMPDEST DUP3 DUP2 DUP4 MCOPY PUSH0 DUP4 DUP4 ADD MSTORE POP POP POP JUMP JUMPDEST PUSH0 PUSH2 0x160 PUSH2 0x15B DUP5 PUSH2 0x110 JUMP JUMPDEST PUSH2 0xF6 JUMP JUMPDEST SWAP1 POP DUP3 DUP2 MSTORE PUSH1 0x20 DUP2 ADD DUP5 DUP5 DUP5 ADD GT ISZERO PUSH2 0x17C JUMPI PUSH2 0x17B PUSH2 0x84 JUMP JUMPDEST JUMPDEST PUSH2 0x187 DUP5 DUP3 DUP6 PUSH2 0x140 JUMP JUMPDEST POP SWAP4 SWAP3 POP POP POP JUMP JUMPDEST PUSH0 DUP3 PUSH1 0x1F DUP4 ADD SLT PUSH2 0x1A3 JUMPI PUSH2 0x1A2 PUSH2 0x80 JUMP JUMPDEST JUMPDEST DUP2 MLOAD PUSH2 0x1B3 DUP5 DUP3 PUSH1 0x20 DUP7 ADD PUSH2 0x14E JUMP JUMPDEST SWAP2 POP POP SWAP3 SWAP2 POP POP JUMP JUMPDEST PUSH0 DUP2 SWAP1 POP SWAP2 SWAP1 POP JUMP JUMPDEST PUSH2 0x1CE DUP2 PUSH2 0x1BC JUMP JUMPDEST DUP2 EQ PUSH2 0x1D8 JUMPI PUSH0 DUP1 REVERT JUMPDEST POP JUMP JUMPDEST PUSH0 DUP2 MLOAD SWAP1 POP PUSH2 0x1E9 DUP2 PUSH2 0x1C5 JUMP JUMPDEST SWAP3 SWAP2 POP POP JUMP JUMPDEST PUSH0 DUP1 PUSH0 DUP1 PUSH1 0x80 DUP6 DUP8 SUB SLT ISZERO PUSH2 0x207 JUMPI PUSH2 0x206 PUSH2 0x78 JUMP JUMPDEST JUMPDEST PUSH0 DUP6 ADD MLOAD PUSH8 0xFFFFFFFFFFFFFFFF DUP2 GT ISZERO PUSH2 0x224 JUMPI PUSH2 0x223 PUSH2 0x7C JUMP JUMPDEST JUMPDEST PUSH2 0x230 DUP8 DUP3 DUP9 ADD PUSH2 0x18F JUMP JUMPDEST SWAP5 POP POP PUSH1 0x20 PUSH2 0x241 DUP8 DUP3 DUP9 ADD PUSH2 0x1DB JUMP JUMPDEST SWAP4 POP POP PUSH1 0x40 DUP6 ADD MLOAD PUSH8 0xFFFFFFFFFFFFFFFF DUP2 GT ISZERO PUSH2 0x262 JUMPI PUSH2 0x261 PUSH2 0x7C JUMP JUMPDEST JUMPDEST PUSH2 0x26E DUP8 DUP3 DUP9 ADD PUSH2 0x18F JUMP JUMPDEST SWAP3 POP POP PUSH1 0x60 PUSH2 0x27F DUP8 DUP3 DUP9 ADD PUSH2 0x1DB JUMP JUMPDEST SWAP2 POP POP SWAP3 SWAP6 SWAP2 SWAP5 POP SWAP3 POP JUMP JUMPDEST PUSH0 DUP2 MLOAD SWAP1 POP SWAP2 SWAP1 POP JUMP JUMPDEST PUSH32 0x4E487B7100000000000000000000000000000000000000000000000000000000 PUSH0 MSTORE PUSH1 0x22 PUSH1 0x4 MSTORE PUSH1 0x24 PUSH0 REVERT JUMPDEST PUSH0 PUSH1 0x2 DUP3 DIV SWAP1 POP PUSH1 0x1 DUP3 AND DUP1 PUSH2 0x2D9 JUMPI PUSH1 0x7F DUP3 AND SWAP2 POP JUMPDEST PUSH1 0x20 DUP3 LT DUP2 SUB PUSH2 0x2EC JUMPI PUSH2 0x2EB PUSH2 0x295 JUMP JUMPDEST JUMPDEST POP SWAP2 SWAP1 POP JUMP JUMPDEST PUSH0 DUP2 SWAP1 POP DUP2 PUSH0 MSTORE PUSH1 0x20 PUSH0 KECCAK256 SWAP1 POP SWAP2 SWAP1 POP JUMP JUMPDEST PUSH0 PUSH1 0x20 PUSH1 0x1F DUP4 ADD DIV SWAP1 POP SWAP2 SWAP1 POP JUMP JUMPDEST PUSH0 DUP3 DUP3 SHL SWAP1 POP SWAP3 SWAP2 POP POP JUMP JUMPDEST PUSH0 PUSH1 0x8 DUP4 MUL PUSH2 0x34E PUSH32 0xFFFFFFFFFFFFFFFFFFFFFFFFFFFFFFFFFFFFFFFFFFFFFFFFFFFFFFFFFFFFFFFF DUP3 PUSH2 0x313 JUMP JUMPDEST PUSH2 0x358 DUP7 DUP4 PUSH2 0x313 JUMP JUMPDEST SWAP6 POP DUP1 NOT DUP5 AND SWAP4 POP DUP1 DUP7 AND DUP5 OR SWAP3 POP POP POP SWAP4 SWAP3 POP POP POP JUMP JUMPDEST PUSH0 DUP2 SWAP1 POP SWAP2 SWAP1 POP JUMP JUMPDEST PUSH0 PUSH2 0x393 PUSH2 0x38E PUSH2 0x389 DUP5 PUSH2 0x1BC JUMP JUMPDEST PUSH2 0x370 JUMP JUMPDEST PUSH2 0x1BC JUMP JUMPDEST SWAP1 POP SWAP2 SWAP1 POP JUMP JUMPDEST PUSH0 DUP2 SWAP1 POP SWAP2 SWAP1 POP JUMP JUMPDEST PUSH2 0x3AC DUP4 PUSH2 0x379 JUMP JUMPDEST PUSH2 0x3C0 PUSH2 0x3B8 DUP3 PUSH2 0x39A JUMP JUMPDEST DUP5 DUP5 SLOAD PUSH2 0x31F JUMP JUMPDEST DUP3 SSTORE POP POP POP POP JUMP JUMPDEST PUSH0 SWAP1 JUMP JUMPDEST PUSH2 0x3D4 PUSH2 0x3C8 JUMP JUMPDEST PUSH2 0x3DF DUP2 DUP5 DUP5 PUSH2 0x3A3 JUMP JUMPDEST POP POP POP JUMP JUMPDEST JUMPDEST DUP2 DUP2 LT ISZERO PUSH2 0x402 JUMPI PUSH2 0x3F7 PUSH0 DUP3 PUSH2 0x3CC JUMP JUMPDEST PUSH1 0x1 DUP2 ADD SWAP1 POP PUSH2 0x3E5 JUMP JUMPDEST POP POP JUMP JUMPDEST PUSH1 0x1F DUP3 GT ISZERO PUSH2 0x447 JUMPI PUSH2 0x418 DUP2 PUSH2 0x2F2 JUMP JUMPDEST PUSH2 0x421 DUP5 PUSH2 0x304 JUMP JUMPDEST DUP2 ADD PUSH1 0x20 DUP6 LT ISZERO PUSH2 0x430 JUMPI DUP2 SWAP1 POP JUMPDEST PUSH2 0x444 PUSH2 0x43C DUP6 PUSH2 0x304 JUMP JUMPDEST DUP4 ADD DUP3 PUSH2 0x3E4 JUMP JUMPDEST POP POP JUMPDEST POP POP POP JUMP JUMPDEST PUSH0 DUP3 DUP3 SHR SWAP1 POP SWAP3 SWAP2 POP POP JUMP JUMPDEST PUSH0 PUSH2 0x467 PUSH0 NOT DUP5 PUSH1 0x8 MUL PUSH2 0x44C JUMP JUMPDEST NOT DUP1 DUP4 AND SWAP2 POP POP SWAP3 SWAP2 POP POP JUMP JUMPDEST PUSH0 PUSH2 0x47F DUP4 DUP4 PUSH2 0x458 JUMP JUMPDEST SWAP2 POP DUP3 PUSH1 0x2 MUL DUP3 OR SWAP1 POP SWAP3 SWAP2 POP POP JUMP JUMPDEST PUSH2 0x498 DUP3 PUSH2 0x28B JUMP JUMPDEST PUSH8 0xFFFFFFFFFFFFFFFF DUP2 GT ISZERO PUSH2 0x4B1 JUMPI PUSH2 0x4B0 PUSH2 0x98 JUMP JUMPDEST JUMPDEST PUSH2 0x4BB DUP3 SLOAD PUSH2 0x2C2 JUMP JUMPDEST PUSH2 0x4C6 DUP3 DUP3 DUP6 PUSH2 0x406 JUMP JUMPDEST PUSH0 PUSH1 0x20 SWAP1 POP PUSH1 0x1F DUP4 GT PUSH1 0x1 DUP2 EQ PUSH2 0x4F7 JUMPI PUSH0 DUP5 ISZERO PUSH2 0x4E5 JUMPI DUP3 DUP8 ADD MLOAD SWAP1 POP JUMPDEST PUSH2 0x4EF DUP6 DUP3 PUSH2 0x474 JUMP JUMPDEST DUP7 SSTORE POP PUSH2 0x556 JUMP JUMPDEST PUSH1 0x1F NOT DUP5 AND PUSH2 0x505 DUP7 PUSH2 0x2F2 JUMP JUMPDEST PUSH0 JUMPDEST DUP3 DUP2 LT ISZERO PUSH2 0x52C JUMPI DUP5 DUP10 ADD MLOAD DUP3 SSTORE PUSH1 0x1 DUP3 ADD SWAP2 POP PUSH1 0x20 DUP6 ADD SWAP5 POP PUSH1 0x20 DUP2 ADD SWAP1 POP PUSH2 0x507 JUMP JUMPDEST DUP7 DUP4 LT ISZERO PUSH2 0x549 JUMPI DUP5 DUP10 ADD MLOAD PUSH2 0x545 PUSH1 0x1F DUP10 AND DUP3 PUSH2 0x458 JUMP JUMPDEST DUP4 SSTORE POP JUMPDEST PUSH1 0x1 PUSH1 0x2 DUP9 MUL ADD DUP9 SSTORE POP POP POP JUMPDEST POP POP POP POP POP POP JUMP JUMPDEST PUSH2 0x33D DUP1 PUSH2 0x56B PUSH0 CODECOPY PUSH0 RETURN INVALID PUSH1 0x80 PUSH1 0x40 MSTORE CALLVALUE DUP1 ISZERO PUSH2 0xF JUMPI PUSH0 DUP1 REVERT JUMPDEST POP PUSH1 0x4 CALLDATASIZE LT PUSH2 0x4A JUMPI PUSH0 CALLDATALOAD PUSH1 0xE0 SHR DUP1 PUSH4 0x397B652 EQ PUSH2 0x4E JUMPI DUP1 PUSH4 0x6FDDE03 EQ PUSH2 0x6C JUMPI DUP1 PUSH4 0x262A9DFF EQ PUSH2 0x8A JUMPI DUP1 PUSH4 0x4F2BE91F EQ PUSH2 0xA8 JUMPI JUMPDEST PUSH0 DUP1 REVERT JUMPDEST PUSH2 0x56 PUSH2 0xC6 JUMP JUMPDEST PUSH1 0x40 MLOAD PUSH2 0x63 SWAP2 SWAP1 PUSH2 0x201 JUMP JUMPDEST PUSH1 0x40 MLOAD DUP1 SWAP2 SUB SWAP1 RETURN JUMPDEST PUSH2 0x74 PUSH2 0xCC JUMP JUMPDEST PUSH1 0x40 MLOAD PUSH2 0x81 SWAP2 SWAP1 PUSH2 0x28A JUMP JUMPDEST PUSH1 0x40 MLOAD DUP1 SWAP2 SUB SWAP1 RETURN JUMPDEST PUSH2 0x92 PUSH2 0x157 JUMP JUMPDEST PUSH1 0x40 MLOAD PUSH2 0x9F SWAP2 SWAP1 PUSH2 0x201 JUMP JUMPDEST PUSH1 0x40 MLOAD DUP1 SWAP2 SUB SWAP1 RETURN JUMPDEST PUSH2 0xB0 PUSH2 0x15D JUMP JUMPDEST PUSH1 0x40 MLOAD PUSH2 0xBD SWAP2 SWAP1 PUSH2 0x28A JUMP JUMPDEST PUSH1 0x40 MLOAD DUP1 SWAP2 SUB SWAP1 RETURN JUMPDEST PUSH1 0x3 SLOAD DUP2 JUMP JUMPDEST PUSH0 DUP1 SLOAD PUSH2 0xD8 SWAP1 PUSH2 0x2D7 JUMP JUMPDEST DUP1 PUSH1 0x1F ADD PUSH1 0x20 DUP1 SWAP2 DIV MUL PUSH1 0x20 ADD PUSH1 0x40 MLOAD SWAP1 DUP2 ADD PUSH1 0x40 MSTORE DUP1 SWAP3 SWAP2 SWAP1 DUP2 DUP2 MSTORE PUSH1 0x20 ADD DUP3 DUP1 SLOAD PUSH2 0x104 SWAP1 PUSH2 0x2D7 JUMP JUMPDEST DUP1 ISZERO PUSH2 0x14F JUMPI DUP1 PUSH1 0x1F LT PUSH2 0x126 JUMPI PUSH2 0x100 DUP1 DUP4 SLOAD DIV MUL DUP4 MSTORE SWAP2 PUSH1 0x20 ADD SWAP2 PUSH2 0x14F JUMP JUMPDEST DUP3 ADD SWAP2 SWAP1 PUSH0 MSTORE PUSH1 0x20 PUSH0 KECCAK256 SWAP1 JUMPDEST DUP2 SLOAD DUP2 MSTORE SWAP1 PUSH1 0x1 ADD SWAP1 PUSH1 0x20 ADD DUP1 DUP4 GT PUSH2 0x132 JUMPI DUP3 SWAP1 SUB PUSH1 0x1F AND DUP3 ADD SWAP2 JUMPDEST POP POP POP POP POP DUP2 JUMP JUMPDEST PUSH1 0x1 SLOAD DUP2 JUMP JUMPDEST PUSH1 0x2 DUP1 SLOAD PUSH2 0x16A SWAP1 PUSH2 0x2D7 JUMP JUMPDEST DUP1 PUSH1 0x1F ADD PUSH1 0x20 DUP1 SWAP2 DIV MUL PUSH1 0x20 ADD PUSH1 0x40 MLOAD SWAP1 DUP2 ADD PUSH1 0x40 MSTORE DUP1 SWAP3 SWAP2 SWAP1 DUP2 DUP2 MSTORE PUSH1 0x20 ADD DUP3 DUP1 SLOAD PUSH2 0x196 SWAP1 PUSH2 0x2D7 JUMP JUMPDEST DUP1 ISZERO PUSH2 0x1E1 JUMPI DUP1 PUSH1 0x1F LT PUSH2 0x1B8 JUMPI PUSH2 0x100 DUP1 DUP4 SLOAD DIV MUL DUP4 MSTORE SWAP2 PUSH1 0x20 ADD SWAP2 PUSH2 0x1E1 JUMP JUMPDEST DUP3 ADD SWAP2 SWAP1 PUSH0 MSTORE PUSH1 0x20 PUSH0 KECCAK256 SWAP1 JUMPDEST DUP2 SLOAD DUP2 MSTORE SWAP1 PUSH1 0x1 ADD SWAP1 PUSH1 0x20 ADD DUP1 DUP4 GT PUSH2 0x1C4 JUMPI DUP3 SWAP1 SUB PUSH1 0x1F AND DUP3 ADD SWAP2 JUMPDEST POP POP POP POP POP DUP2 JUMP JUMPDEST PUSH0 DUP2 SWAP1 POP SWAP2 SWAP1 POP JUMP JUMPDEST PUSH2 0x1FB DUP2 PUSH2 0x1E9 JUMP JUMPDEST DUP3 MSTORE POP POP JUMP JUMPDEST PUSH0 PUSH1 0x20 DUP3 ADD SWAP1 POP PUSH2 0x214 PUSH0 DUP4 ADD DUP5 PUSH2 0x1F2 JUMP JUMPDEST SWAP3 SWAP2 POP POP JUMP JUMPDEST PUSH0 DUP2 MLOAD SWAP1 POP SWAP2 SWAP1 POP JUMP JUMPDEST PUSH0 DUP3 DUP3 MSTORE PUSH1 0x20 DUP3 ADD SWAP1 POP SWAP3 SWAP2 POP POP JUMP JUMPDEST DUP3 DUP2 DUP4 MCOPY PUSH0 DUP4 DUP4 ADD MSTORE POP POP POP JUMP JUMPDEST PUSH0 PUSH1 0x1F NOT PUSH1 0x1F DUP4 ADD AND SWAP1 POP SWAP2 SWAP1 POP JUMP JUMPDEST PUSH0 PUSH2 0x25C DUP3 PUSH2 0x21A JUMP JUMPDEST PUSH2 0x266 DUP2 DUP6 PUSH2 0x224 JUMP JUMPDEST SWAP4 POP PUSH2 0x276 DUP2 DUP6 PUSH1 0x20 DUP7 ADD PUSH2 0x234 JUMP JUMPDEST PUSH2 0x27F DUP2 PUSH2 0x242 JUMP JUMPDEST DUP5 ADD SWAP2 POP POP SWAP3 SWAP2 POP POP JUMP JUMPDEST PUSH0 PUSH1 0x20 DUP3 ADD SWAP1 POP DUP2 DUP2 SUB PUSH0 DUP4 ADD MSTORE PUSH2 0x2A2 DUP2 DUP5 PUSH2 0x252 JUMP JUMPDEST SWAP1 POP SWAP3 SWAP2 POP POP JUMP JUMPDEST PUSH32 0x4E487B7100000000000000000000000000000000000000000000000000000000 PUSH0 MSTORE PUSH1 0x22 PUSH1 0x4 MSTORE PUSH1 0x24 PUSH0 REVERT JUMPDEST PUSH0 PUSH1 0x2 DUP3 DIV SWAP1 POP PUSH1 0x1 DUP3 AND DUP1 PUSH2 0x2EE JUMPI PUSH1 0x7F DUP3 AND SWAP2 POP JUMPDEST PUSH1 0x20 DUP3 LT DUP2 SUB PUSH2 0x301 JUMPI PUSH2 0x300 PUSH2 0x2AA JUMP JUMPDEST JUMPDEST POP SWAP2 SWAP1 POP JUMP INVALID LOG2 PUSH5 0x6970667358 0x22 SLT KECCAK256 CODESIZE PUSH28 0x53B93D972BB4AE1743147B7639411272221E6D8E335C1B3DFF8BCAFA 0xB0 CALLDATACOPY PUSH5 0x736F6C6343 STOP ADDMOD BYTE STOP CALLER "
		},
		"gasEstimates": {
			"creation": {
				"codeDepositCost": "165800",
				"executionCost": "infinite",
				"totalCost": "infinite"
			},
			"external": {
				"add()": "infinite",
				"age()": "2447",
				"name()": "infinite",
				"salary()": "2403"
			}
		},
		"methodIdentifiers": {
			"add()": "4f2be91f",
			"age()": "262a9dff",
			"name()": "06fdde03",
			"salary()": "0397b652"
		}
	},
	"abi": [
		{
			"inputs": [
				{
					"internalType": "string",
					"name": "_name",
					"type": "string"
				},
				{
					"internalType": "uint256",
					"name": "_age",
					"type": "uint256"
				},
				{
					"internalType": "string",
					"name": "_add",
					"type": "string"
				},
				{
					"internalType": "uint256",
					"name": "_salary",
					"type": "uint256"
				}
			],
			"stateMutability": "nonpayable",
			"type": "constructor"
		},
		{
			"inputs": [],
			"name": "add",
			"outputs": [
				{
					"internalType": "string",
					"name": "",
					"type": "string"
				}
			],
			"stateMutability": "view",
			"type": "function"
		},
		{
			"inputs": [],
			"name": "age",
			"outputs": [
				{
					"internalType": "uint256",
					"name": "",
					"type": "uint256"
				}
			],
			"stateMutability": "view",
			"type": "function"
		},
		{
			"inputs": [],
			"name": "name",
			"outputs": [
				{
					"internalType": "string",
					"name": "",
					"type": "string"
				}
			],
			"stateMutability": "view",
			"type": "function"
		},
		{
			"inputs": [],
			"name": "salary",
			"outputs": [
				{
					"internalType": "uint256",
					"name": "",
					"type": "uint256"
				}
			],
			"stateMutability": "view",
			"type": "function"
		}
	]
}